{
	"contracts/BitcoinNetflowContract.sol": {
		"BitcoinNetflowContract": {
			"abi": [
				{
					"inputs": [
						{
							"internalType": "address",
							"name": "_initialOwner",
							"type": "address"
						},
						{
							"internalType": "address",
							"name": "_dashboardNotifierAddress",
							"type": "address"
						}
					],
					"stateMutability": "nonpayable",
					"type": "constructor"
				},
				{
					"inputs": [
						{
							"internalType": "address",
							"name": "owner",
							"type": "address"
						}
					],
					"name": "OwnableInvalidOwner",
					"type": "error"
				},
				{
					"inputs": [
						{
							"internalType": "address",
							"name": "account",
							"type": "address"
						}
					],
					"name": "OwnableUnauthorizedAccount",
					"type": "error"
				},
				{
					"anonymous": false,
					"inputs": [
						{
							"indexed": true,
							"internalType": "uint256",
							"name": "alertId",
							"type": "uint256"
						}
					],
					"name": "AlertActivated",
					"type": "event"
				},
				{
					"anonymous": false,
					"inputs": [
						{
							"indexed": true,
							"internalType": "uint256",
							"name": "alertId",
							"type": "uint256"
						},
						{
							"components": [
								{
									"internalType": "uint256",
									"name": "id",
									"type": "uint256"
								},
								{
									"internalType": "address",
									"name": "user",
									"type": "address"
								},
								{
									"internalType": "enum DataTypes.AlertCondition",
									"name": "condition",
									"type": "uint8"
								},
								{
									"internalType": "int256",
									"name": "threshold1",
									"type": "int256"
								},
								{
									"internalType": "int256",
									"name": "threshold2",
									"type": "int256"
								},
								{
									"internalType": "bool",
									"name": "isActive",
									"type": "bool"
								},
								{
									"internalType": "bool",
									"name": "isTriggered",
									"type": "bool"
								},
								{
									"internalType": "uint256",
									"name": "lastTriggeredAt",
									"type": "uint256"
								},
								{
									"internalType": "string",
									"name": "message",
									"type": "string"
								}
							],
							"indexed": false,
							"internalType": "struct DataTypes.AlertConfig",
							"name": "config",
							"type": "tuple"
						}
					],
					"name": "AlertConfigured",
					"type": "event"
				},
				{
					"anonymous": false,
					"inputs": [
						{
							"indexed": true,
							"internalType": "uint256",
							"name": "alertId",
							"type": "uint256"
						}
					],
					"name": "AlertDeactivated",
					"type": "event"
				},
				{
					"anonymous": false,
					"inputs": [
						{
							"indexed": true,
							"internalType": "uint256",
							"name": "alertId",
							"type": "uint256"
						}
					],
					"name": "AlertTriggerReset",
					"type": "event"
				},
				{
					"anonymous": false,
					"inputs": [
						{
							"indexed": true,
							"internalType": "uint256",
							"name": "alertId",
							"type": "uint256"
						},
						{
							"indexed": false,
							"internalType": "int256",
							"name": "currentValue",
							"type": "int256"
						},
						{
							"indexed": false,
							"internalType": "string",
							"name": "message",
							"type": "string"
						}
					],
					"name": "AlertTriggered",
					"type": "event"
				},
				{
					"anonymous": false,
					"inputs": [
						{
							"components": [
								{
									"internalType": "int256",
									"name": "amount",
									"type": "int256"
								},
								{
									"internalType": "uint256",
									"name": "lastUpdatedAt",
									"type": "uint256"
								}
							],
							"indexed": false,
							"internalType": "struct DataTypes.NetflowInfo",
							"name": "netflow",
							"type": "tuple"
						}
					],
					"name": "NetflowUpdated",
					"type": "event"
				},
				{
					"anonymous": false,
					"inputs": [
						{
							"indexed": true,
							"internalType": "address",
							"name": "previousOwner",
							"type": "address"
						},
						{
							"indexed": true,
							"internalType": "address",
							"name": "newOwner",
							"type": "address"
						}
					],
					"name": "OwnershipTransferred",
					"type": "event"
				},
				{
					"inputs": [],
					"name": "activateAlert",
					"outputs": [],
					"stateMutability": "nonpayable",
					"type": "function"
				},
				{
					"inputs": [
						{
							"internalType": "enum DataTypes.AlertCondition",
							"name": "_condition",
							"type": "uint8"
						},
						{
							"internalType": "int256",
							"name": "_bound1",
							"type": "int256"
						},
						{
							"internalType": "int256",
							"name": "_bound2",
							"type": "int256"
						},
						{
							"internalType": "string",
							"name": "_message",
							"type": "string"
						}
					],
					"name": "configureChannelAlert",
					"outputs": [],
					"stateMutability": "nonpayable",
					"type": "function"
				},
				{
					"inputs": [
						{
							"internalType": "enum DataTypes.AlertCondition",
							"name": "_condition",
							"type": "uint8"
						},
						{
							"internalType": "int256",
							"name": "_threshold1",
							"type": "int256"
						},
						{
							"internalType": "string",
							"name": "_message",
							"type": "string"
						}
					],
					"name": "configureSingleThresholdAlert",
					"outputs": [],
					"stateMutability": "nonpayable",
					"type": "function"
				},
				{
					"inputs": [],
					"name": "currentNetflow",
					"outputs": [
						{
							"internalType": "int256",
							"name": "amount",
							"type": "int256"
						},
						{
							"internalType": "uint256",
							"name": "lastUpdatedAt",
							"type": "uint256"
						}
					],
					"stateMutability": "view",
					"type": "function"
				},
				{
					"inputs": [],
					"name": "dashboardNotifier",
					"outputs": [
						{
							"internalType": "contract IDashboardNotifier",
							"name": "",
							"type": "address"
						}
					],
					"stateMutability": "view",
					"type": "function"
				},
				{
					"inputs": [],
					"name": "getCurrentNetflow",
					"outputs": [
						{
							"components": [
								{
									"internalType": "int256",
									"name": "amount",
									"type": "int256"
								},
								{
									"internalType": "uint256",
									"name": "lastUpdatedAt",
									"type": "uint256"
								}
							],
							"internalType": "struct DataTypes.NetflowInfo",
							"name": "",
							"type": "tuple"
						}
					],
					"stateMutability": "view",
					"type": "function"
				},
				{
					"inputs": [],
					"name": "hasPreviousNetflowAmount",
					"outputs": [
						{
							"internalType": "bool",
							"name": "",
							"type": "bool"
						}
					],
					"stateMutability": "view",
					"type": "function"
				},
				{
					"inputs": [],
					"name": "netflowAlert",
					"outputs": [
						{
							"internalType": "uint256",
							"name": "id",
							"type": "uint256"
						},
						{
							"internalType": "address",
							"name": "user",
							"type": "address"
						},
						{
							"internalType": "enum DataTypes.AlertCondition",
							"name": "condition",
							"type": "uint8"
						},
						{
							"internalType": "int256",
							"name": "threshold1",
							"type": "int256"
						},
						{
							"internalType": "int256",
							"name": "threshold2",
							"type": "int256"
						},
						{
							"internalType": "bool",
							"name": "isActive",
							"type": "bool"
						},
						{
							"internalType": "bool",
							"name": "isTriggered",
							"type": "bool"
						},
						{
							"internalType": "uint256",
							"name": "lastTriggeredAt",
							"type": "uint256"
						},
						{
							"internalType": "string",
							"name": "message",
							"type": "string"
						}
					],
					"stateMutability": "view",
					"type": "function"
				},
				{
					"inputs": [],
					"name": "owner",
					"outputs": [
						{
							"internalType": "address",
							"name": "",
							"type": "address"
						}
					],
					"stateMutability": "view",
					"type": "function"
				},
				{
					"inputs": [],
					"name": "previousNetflowAmount",
					"outputs": [
						{
							"internalType": "int256",
							"name": "",
							"type": "int256"
						}
					],
					"stateMutability": "view",
					"type": "function"
				},
				{
					"inputs": [],
					"name": "renounceOwnership",
					"outputs": [],
					"stateMutability": "nonpayable",
					"type": "function"
				},
				{
					"inputs": [],
					"name": "resetAlertTriggerState",
					"outputs": [],
					"stateMutability": "nonpayable",
					"type": "function"
				},
				{
					"inputs": [
						{
							"internalType": "address",
							"name": "_dashboardNotifierAddress",
							"type": "address"
						}
					],
					"name": "setDashboardNotifier",
					"outputs": [],
					"stateMutability": "nonpayable",
					"type": "function"
				},
				{
					"inputs": [
						{
							"internalType": "address",
							"name": "newOwner",
							"type": "address"
						}
					],
					"name": "transferOwnership",
					"outputs": [],
					"stateMutability": "nonpayable",
					"type": "function"
				},
				{
					"inputs": [],
					"name": "turnOffAlert",
					"outputs": [],
					"stateMutability": "nonpayable",
					"type": "function"
				},
				{
					"inputs": [
						{
							"internalType": "int256",
							"name": "_amount",
							"type": "int256"
						}
					],
					"name": "updateNetflow",
					"outputs": [],
					"stateMutability": "nonpayable",
					"type": "function"
				}
			],
			"devdoc": {
				"errors": {
					"OwnableInvalidOwner(address)": [
						{
							"details": "The owner is not a valid owner account. (eg. `address(0)`)"
						}
					],
					"OwnableUnauthorizedAccount(address)": [
						{
							"details": "The caller account is not authorized to perform an operation."
						}
					]
				},
				"kind": "dev",
				"methods": {
					"owner()": {
						"details": "Returns the address of the current owner."
					},
					"renounceOwnership()": {
						"details": "Leaves the contract without owner. It will not be possible to call `onlyOwner` functions. Can only be called by the current owner. NOTE: Renouncing ownership will leave the contract without an owner, thereby disabling any functionality that is only available to the owner."
					},
					"transferOwnership(address)": {
						"details": "Transfers ownership of the contract to a new account (`newOwner`). Can only be called by the current owner."
					}
				},
				"version": 1
			},
			"evm": {
				"assembly": "    /* \"contracts/BitcoinNetflowContract.sol\":196:9259  contract BitcoinNetflowContract is Ownable {... */\n  mstore(0x40, 0x80)\n    /* \"contracts/BitcoinNetflowContract.sol\":436:480  bool public hasPreviousNetflowAmount = false */\n  0x04\n  dup1\n  sload\n  not(0xff)\n  and\n  swap1\n  sstore\n  0x01\n    /* \"contracts/BitcoinNetflowContract.sol\":537:576  uint256 private nextAlertIdInternal = 1 */\n  0x0c\n  sstore\n    /* \"contracts/BitcoinNetflowContract.sol\":1030:1348  constructor(address _initialOwner, address _dashboardNotifierAddress) Ownable(_initialOwner) {... */\n  callvalue\n  dup1\n  iszero\n  tag_1\n  jumpi\n  revert(0x00, 0x00)\ntag_1:\n  pop\n  mload(0x40)\n  sub(codesize, bytecodeSize)\n  dup1\n  bytecodeSize\n  dup4\n  codecopy\n  dup2\n  add\n  0x40\n  dup2\n  swap1\n  mstore\n  tag_2\n  swap2\n  tag_3\n  jump\t// in\ntag_2:\n    /* \"contracts/BitcoinNetflowContract.sol\":1108:1121  _initialOwner */\n  dup2\n  sub(shl(0xa0, 0x01), 0x01)\n    /* \"@openzeppelin/contracts/access/Ownable.sol\":1273:1299  initialOwner == address(0) */\n  dup2\n  and\n    /* \"@openzeppelin/contracts/access/Ownable.sol\":1269:1364  if (initialOwner == address(0)) {... */\n  tag_7\n  jumpi\n    /* \"@openzeppelin/contracts/access/Ownable.sol\":1322:1353  OwnableInvalidOwner(address(0)) */\n  mload(0x40)\n  shl(0xe0, 0x1e4fbdf7)\n  dup2\n  mstore\n    /* \"@openzeppelin/contracts/access/Ownable.sol\":1350:1351  0 */\n  0x00\n    /* \"@openzeppelin/contracts/access/Ownable.sol\":1322:1353  OwnableInvalidOwner(address(0)) */\n  0x04\n  dup3\n  add\n    /* \"#utility.yul\":640:691   */\n  mstore\n    /* \"#utility.yul\":613:631   */\n  0x24\n  add\n    /* \"@openzeppelin/contracts/access/Ownable.sol\":1322:1353  OwnableInvalidOwner(address(0)) */\n  mload(0x40)\n  dup1\n  swap2\n  sub\n  swap1\n  revert\n    /* \"@openzeppelin/contracts/access/Ownable.sol\":1269:1364  if (initialOwner == address(0)) {... */\ntag_7:\n    /* \"@openzeppelin/contracts/access/Ownable.sol\":1373:1405  _transferOwnership(initialOwner) */\n  tag_10\n    /* \"@openzeppelin/contracts/access/Ownable.sol\":1392:1404  initialOwner */\n  dup2\n    /* \"@openzeppelin/contracts/access/Ownable.sol\":1373:1391  _transferOwnership */\n  tag_11\n    /* \"@openzeppelin/contracts/access/Ownable.sol\":1373:1405  _transferOwnership(initialOwner) */\n  jump\t// in\ntag_10:\n  pop\n  sub(shl(0xa0, 0x01), 0x01)\n    /* \"contracts/BitcoinNetflowContract.sol\":1138:1177  _dashboardNotifierAddress != address(0) */\n  dup2\n  and\n  iszero\n    /* \"contracts/BitcoinNetflowContract.sol\":1134:1271  if (_dashboardNotifierAddress != address(0)) {... */\n  tag_13\n  jumpi\n    /* \"contracts/BitcoinNetflowContract.sol\":1194:1211  dashboardNotifier */\n  0x0d\n    /* \"contracts/BitcoinNetflowContract.sol\":1194:1259  dashboardNotifier = IDashboardNotifier(_dashboardNotifierAddress) */\n  dup1\n  sload\n  not(sub(shl(0xa0, 0x01), 0x01))\n  and\n  sub(shl(0xa0, 0x01), 0x01)\n  dup4\n  and\n  or\n  swap1\n  sstore\n    /* \"contracts/BitcoinNetflowContract.sol\":1134:1271  if (_dashboardNotifierAddress != address(0)) {... */\ntag_13:\n  pop\n  pop\n    /* \"contracts/BitcoinNetflowContract.sol\":1281:1302  netflowAlert.isActive */\n  0x09\n    /* \"contracts/BitcoinNetflowContract.sol\":1281:1310  netflowAlert.isActive = false */\n  dup1\n  sload\n  not(0xff)\n  and\n  swap1\n  sstore\n    /* \"contracts/BitcoinNetflowContract.sol\":1305:1310  false */\n  0x00\n    /* \"contracts/BitcoinNetflowContract.sol\":1281:1293  netflowAlert */\n  0x05\n    /* \"contracts/BitcoinNetflowContract.sol\":1321:1340  netflowAlert.id = 0 */\n  sstore\n    /* \"contracts/BitcoinNetflowContract.sol\":196:9259  contract BitcoinNetflowContract is Ownable {... */\n  jump(tag_17)\n    /* \"@openzeppelin/contracts/access/Ownable.sol\":2912:3099  function _transferOwnership(address newOwner) internal virtual {... */\ntag_11:\n    /* \"@openzeppelin/contracts/access/Ownable.sol\":2985:3001  address oldOwner */\n  0x00\n    /* \"@openzeppelin/contracts/access/Ownable.sol\":3004:3010  _owner */\n  dup1\n  sload\n  sub(shl(0xa0, 0x01), 0x01)\n    /* \"@openzeppelin/contracts/access/Ownable.sol\":3020:3037  _owner = newOwner */\n  dup4\n  dup2\n  and\n  not(sub(shl(0xa0, 0x01), 0x01))\n  dup4\n  and\n  dup2\n  or\n  dup5\n  sstore\n    /* \"@openzeppelin/contracts/access/Ownable.sol\":3052:3092  OwnershipTransferred(oldOwner, newOwner) */\n  mload(0x40)\n    /* \"@openzeppelin/contracts/access/Ownable.sol\":3004:3010  _owner */\n  swap2\n  swap1\n  swap3\n  and\n  swap3\n  dup4\n  swap2\n    /* \"@openzeppelin/contracts/access/Ownable.sol\":3052:3092  OwnershipTransferred(oldOwner, newOwner) */\n  0x8be0079c531659141344cd1fd0a4f28419497f9722a3daafe3b4186f6b6457e0\n  swap2\n    /* \"@openzeppelin/contracts/access/Ownable.sol\":2985:3001  address oldOwner */\n  swap1\n    /* \"@openzeppelin/contracts/access/Ownable.sol\":3052:3092  OwnershipTransferred(oldOwner, newOwner) */\n  log3\n    /* \"@openzeppelin/contracts/access/Ownable.sol\":2975:3099  {... */\n  pop\n    /* \"@openzeppelin/contracts/access/Ownable.sol\":2912:3099  function _transferOwnership(address newOwner) internal virtual {... */\n  pop\n  jump\t// out\n    /* \"#utility.yul\":14:191   */\ntag_16:\n    /* \"#utility.yul\":93:106   */\n  dup1\n  mload\n  sub(shl(0xa0, 0x01), 0x01)\n    /* \"#utility.yul\":135:166   */\n  dup2\n  and\n    /* \"#utility.yul\":125:167   */\n  dup2\n  eq\n    /* \"#utility.yul\":115:185   */\n  tag_19\n  jumpi\n    /* \"#utility.yul\":181:182   */\n  0x00\n    /* \"#utility.yul\":178:179   */\n  0x00\n    /* \"#utility.yul\":171:183   */\n  revert\n    /* \"#utility.yul\":115:185   */\ntag_19:\n    /* \"#utility.yul\":14:191   */\n  swap2\n  swap1\n  pop\n  jump\t// out\n    /* \"#utility.yul\":196:489   */\ntag_3:\n    /* \"#utility.yul\":275:281   */\n  0x00\n    /* \"#utility.yul\":283:289   */\n  0x00\n    /* \"#utility.yul\":336:338   */\n  0x40\n    /* \"#utility.yul\":324:333   */\n  dup4\n    /* \"#utility.yul\":315:322   */\n  dup6\n    /* \"#utility.yul\":311:334   */\n  sub\n    /* \"#utility.yul\":307:339   */\n  slt\n    /* \"#utility.yul\":304:356   */\n  iszero\n  tag_21\n  jumpi\n    /* \"#utility.yul\":352:353   */\n  0x00\n    /* \"#utility.yul\":349:350   */\n  0x00\n    /* \"#utility.yul\":342:354   */\n  revert\n    /* \"#utility.yul\":304:356   */\ntag_21:\n    /* \"#utility.yul\":375:415   */\n  tag_22\n    /* \"#utility.yul\":405:414   */\n  dup4\n    /* \"#utility.yul\":375:415   */\n  tag_16\n  jump\t// in\ntag_22:\n    /* \"#utility.yul\":365:415   */\n  swap2\n  pop\n    /* \"#utility.yul\":434:483   */\n  tag_23\n    /* \"#utility.yul\":479:481   */\n  0x20\n    /* \"#utility.yul\":468:477   */\n  dup5\n    /* \"#utility.yul\":464:482   */\n  add\n    /* \"#utility.yul\":434:483   */\n  tag_16\n  jump\t// in\ntag_23:\n    /* \"#utility.yul\":424:483   */\n  swap1\n  pop\n    /* \"#utility.yul\":196:489   */\n  swap3\n  pop\n  swap3\n  swap1\n  pop\n  jump\t// out\n    /* \"#utility.yul\":494:697   */\ntag_17:\n    /* \"contracts/BitcoinNetflowContract.sol\":196:9259  contract BitcoinNetflowContract is Ownable {... */\n  dataSize(sub_0)\n  dup1\n  dataOffset(sub_0)\n  0x00\n  codecopy\n  0x00\n  return\nstop\n\nsub_0: assembly {\n        /* \"contracts/BitcoinNetflowContract.sol\":196:9259  contract BitcoinNetflowContract is Ownable {... */\n      mstore(0x40, 0x80)\n      callvalue\n      dup1\n      iszero\n      tag_1\n      jumpi\n      revert(0x00, 0x00)\n    tag_1:\n      pop\n      jumpi(tag_2, lt(calldatasize, 0x04))\n      shr(0xe0, calldataload(0x00))\n      dup1\n      0x8da5cb5b\n      gt\n      tag_19\n      jumpi\n      dup1\n      0xbf25c80c\n      gt\n      tag_20\n      jumpi\n      dup1\n      0xbf25c80c\n      eq\n      tag_15\n      jumpi\n      dup1\n      0xf2fde38b\n      eq\n      tag_16\n      jumpi\n      dup1\n      0xf608a360\n      eq\n      tag_17\n      jumpi\n      dup1\n      0xf68baac1\n      eq\n      tag_18\n      jumpi\n      revert(0x00, 0x00)\n    tag_20:\n      dup1\n      0x8da5cb5b\n      eq\n      tag_11\n      jumpi\n      dup1\n      0x9d2ed12b\n      eq\n      tag_12\n      jumpi\n      dup1\n      0xa82b9060\n      eq\n      tag_13\n      jumpi\n      dup1\n      0xac57e64e\n      eq\n      tag_14\n      jumpi\n      revert(0x00, 0x00)\n    tag_19:\n      dup1\n      0x715018a6\n      gt\n      tag_21\n      jumpi\n      dup1\n      0x715018a6\n      eq\n      tag_7\n      jumpi\n      dup1\n      0x7aad4061\n      eq\n      tag_8\n      jumpi\n      dup1\n      0x80b3880c\n      eq\n      tag_9\n      jumpi\n      dup1\n      0x8804d1b3\n      eq\n      tag_10\n      jumpi\n      revert(0x00, 0x00)\n    tag_21:\n      dup1\n      0x2f66b011\n      eq\n      tag_3\n      jumpi\n      dup1\n      0x311e4319\n      eq\n      tag_4\n      jumpi\n      dup1\n      0x440c1ec9\n      eq\n      tag_5\n      jumpi\n      dup1\n      0x651a96af\n      eq\n      tag_6\n      jumpi\n    tag_2:\n      revert(0x00, 0x00)\n        /* \"contracts/BitcoinNetflowContract.sol\":8615:8881  function activateAlert() external onlyOwner {... */\n    tag_3:\n      tag_22\n      tag_23\n      jump\t// in\n    tag_22:\n      stop\n        /* \"contracts/BitcoinNetflowContract.sol\":2251:3567  function configureSingleThresholdAlert(... */\n    tag_4:\n      tag_22\n      tag_25\n      calldatasize\n      0x04\n      tag_26\n      jump\t// in\n    tag_25:\n      tag_27\n      jump\t// in\n        /* \"contracts/BitcoinNetflowContract.sol\":8889:9126  function resetAlertTriggerState() external onlyOwner {... */\n    tag_5:\n      tag_22\n      tag_29\n      jump\t// in\n        /* \"contracts/BitcoinNetflowContract.sol\":3575:4915  function configureChannelAlert(... */\n    tag_6:\n      tag_22\n      tag_31\n      calldatasize\n      0x04\n      tag_32\n      jump\t// in\n    tag_31:\n      tag_33\n      jump\t// in\n        /* \"@openzeppelin/contracts/access/Ownable.sol\":2293:2394  function renounceOwnership() public virtual onlyOwner {... */\n    tag_7:\n      tag_22\n      tag_35\n      jump\t// in\n        /* \"contracts/BitcoinNetflowContract.sol\":394:429  int256 public previousNetflowAmount */\n    tag_8:\n      tag_36\n      sload(0x03)\n      dup2\n      jump\n    tag_36:\n      mload(0x40)\n        /* \"#utility.yul\":2060:2085   */\n      swap1\n      dup2\n      mstore\n        /* \"#utility.yul\":2048:2050   */\n      0x20\n        /* \"#utility.yul\":2033:2051   */\n      add\n        /* \"contracts/BitcoinNetflowContract.sol\":394:429  int256 public previousNetflowAmount */\n    tag_38:\n      mload(0x40)\n      dup1\n      swap2\n      sub\n      swap1\n      return\n        /* \"contracts/BitcoinNetflowContract.sol\":585:628  IDashboardNotifier public dashboardNotifier */\n    tag_9:\n      sload(0x0d)\n      tag_40\n      swap1\n      sub(shl(0xa0, 0x01), 0x01)\n      and\n      dup2\n      jump\n    tag_40:\n      mload(0x40)\n      sub(shl(0xa0, 0x01), 0x01)\n        /* \"#utility.yul\":2287:2319   */\n      swap1\n      swap2\n      and\n        /* \"#utility.yul\":2269:2320   */\n      dup2\n      mstore\n        /* \"#utility.yul\":2257:2259   */\n      0x20\n        /* \"#utility.yul\":2242:2260   */\n      add\n        /* \"contracts/BitcoinNetflowContract.sol\":585:628  IDashboardNotifier public dashboardNotifier */\n      tag_38\n        /* \"#utility.yul\":2096:2326   */\n      jump\n        /* \"contracts/BitcoinNetflowContract.sol\":1532:2243  function updateNetflow(int256 _amount) external onlyOwner {... */\n    tag_10:\n      tag_22\n      tag_45\n      calldatasize\n      0x04\n      tag_46\n      jump\t// in\n    tag_45:\n      tag_47\n      jump\t// in\n        /* \"@openzeppelin/contracts/access/Ownable.sol\":1638:1723  function owner() public view virtual returns (address) {... */\n    tag_11:\n        /* \"@openzeppelin/contracts/access/Ownable.sol\":1684:1691  address */\n      0x00\n        /* \"@openzeppelin/contracts/access/Ownable.sol\":1710:1716  _owner */\n      sload\n      sub(shl(0xa0, 0x01), 0x01)\n      and\n        /* \"@openzeppelin/contracts/access/Ownable.sol\":1638:1723  function owner() public view virtual returns (address) {... */\n      jump(tag_40)\n        /* \"contracts/BitcoinNetflowContract.sol\":1356:1524  function setDashboardNotifier(address _dashboardNotifierAddress) external onlyOwner {... */\n    tag_12:\n      tag_22\n      tag_53\n      calldatasize\n      0x04\n      tag_54\n      jump\t// in\n    tag_53:\n      tag_55\n      jump\t// in\n        /* \"contracts/BitcoinNetflowContract.sol\":436:480  bool public hasPreviousNetflowAmount = false */\n    tag_13:\n      sload(0x04)\n      tag_56\n      swap1\n      0xff\n      and\n      dup2\n      jump\n    tag_56:\n      mload(0x40)\n        /* \"#utility.yul\":3430:3444   */\n      swap1\n      iszero\n        /* \"#utility.yul\":3423:3445   */\n      iszero\n        /* \"#utility.yul\":3405:3446   */\n      dup2\n      mstore\n        /* \"#utility.yul\":3393:3395   */\n      0x20\n        /* \"#utility.yul\":3378:3396   */\n      add\n        /* \"contracts/BitcoinNetflowContract.sol\":436:480  bool public hasPreviousNetflowAmount = false */\n      tag_38\n        /* \"#utility.yul\":3265:3452   */\n      jump\n        /* \"contracts/BitcoinNetflowContract.sol\":8388:8607  function turnOffAlert() external onlyOwner {... */\n    tag_14:\n      tag_22\n      tag_61\n      jump\t// in\n        /* \"contracts/BitcoinNetflowContract.sol\":344:387  DataTypes.NetflowInfo public currentNetflow */\n    tag_15:\n      sload(0x01)\n      sload(0x02)\n      tag_62\n      swap2\n      swap1\n      dup3\n      jump\n    tag_62:\n      0x40\n      dup1\n      mload\n        /* \"#utility.yul\":3629:3654   */\n      swap3\n      dup4\n      mstore\n        /* \"#utility.yul\":3685:3687   */\n      0x20\n        /* \"#utility.yul\":3670:3688   */\n      dup4\n      add\n        /* \"#utility.yul\":3663:3697   */\n      swap2\n      swap1\n      swap2\n      mstore\n        /* \"#utility.yul\":3602:3620   */\n      add\n        /* \"contracts/BitcoinNetflowContract.sol\":344:387  DataTypes.NetflowInfo public currentNetflow */\n      tag_38\n        /* \"#utility.yul\":3457:3703   */\n      jump\n        /* \"@openzeppelin/contracts/access/Ownable.sol\":2543:2758  function transferOwnership(address newOwner) public virtual onlyOwner {... */\n    tag_16:\n      tag_22\n      tag_67\n      calldatasize\n      0x04\n      tag_54\n      jump\t// in\n    tag_67:\n      tag_68\n      jump\t// in\n        /* \"contracts/BitcoinNetflowContract.sol\":9134:9256  function getCurrentNetflow() external view returns (DataTypes.NetflowInfo memory) {... */\n    tag_17:\n      0x40\n      dup1\n      mload\n      dup1\n      dup3\n      add\n      dup3\n      mstore\n      0x00\n      dup1\n      dup3\n      mstore\n      0x20\n      swap2\n      dup3\n      add\n      mstore\n        /* \"contracts/BitcoinNetflowContract.sol\":9227:9248  return currentNetflow */\n      dup2\n      mload\n      dup1\n      dup4\n      add\n      dup4\n      mstore\n        /* \"contracts/BitcoinNetflowContract.sol\":9234:9248  currentNetflow */\n      0x01\n        /* \"contracts/BitcoinNetflowContract.sol\":9227:9248  return currentNetflow */\n      sload\n      dup1\n      dup3\n      mstore\n      sload(0x02)\n      swap2\n      dup4\n      add\n      swap2\n      dup3\n      mstore\n        /* \"contracts/BitcoinNetflowContract.sol\":9134:9256  function getCurrentNetflow() external view returns (DataTypes.NetflowInfo memory) {... */\n      dup4\n      mload\n        /* \"#utility.yul\":3912:3944   */\n      swap1\n      dup2\n      mstore\n        /* \"#utility.yul\":3982:4006   */\n      swap1\n      mload\n        /* \"#utility.yul\":3960:3980   */\n      swap2\n      dup2\n      add\n        /* \"#utility.yul\":3953:4007   */\n      swap2\n      swap1\n      swap2\n      mstore\n        /* \"#utility.yul\":3885:3903   */\n      add\n        /* \"contracts/BitcoinNetflowContract.sol\":9134:9256  function getCurrentNetflow() external view returns (DataTypes.NetflowInfo memory) {... */\n      tag_38\n        /* \"#utility.yul\":3708:4013   */\n      jump\n        /* \"contracts/BitcoinNetflowContract.sol\":489:530  DataTypes.AlertConfig public netflowAlert */\n    tag_18:\n      tag_73\n      tag_74\n      jump\t// in\n    tag_73:\n      mload(0x40)\n      tag_38\n      swap10\n      swap9\n      swap8\n      swap7\n      swap6\n      swap5\n      swap4\n      swap3\n      swap2\n      swap1\n      tag_76\n      jump\t// in\n        /* \"contracts/BitcoinNetflowContract.sol\":8615:8881  function activateAlert() external onlyOwner {... */\n    tag_23:\n        /* \"@openzeppelin/contracts/access/Ownable.sol\":1531:1544  _checkOwner() */\n      tag_78\n        /* \"@openzeppelin/contracts/access/Ownable.sol\":1531:1542  _checkOwner */\n      tag_79\n        /* \"@openzeppelin/contracts/access/Ownable.sol\":1531:1544  _checkOwner() */\n      jump\t// in\n    tag_78:\n        /* \"contracts/BitcoinNetflowContract.sol\":8674:8686  netflowAlert */\n      0x05\n        /* \"contracts/BitcoinNetflowContract.sol\":8674:8689  netflowAlert.id */\n      sload\n        /* \"contracts/BitcoinNetflowContract.sol\":8674:8694  netflowAlert.id != 0 */\n      iszero\n      dup1\n      iszero\n      swap1\n        /* \"contracts/BitcoinNetflowContract.sol\":8674:8720  netflowAlert.id != 0 && !netflowAlert.isActive */\n      tag_81\n      jumpi\n      pop\n        /* \"contracts/BitcoinNetflowContract.sol\":8699:8720  netflowAlert.isActive */\n      and(0xff, sload(0x09))\n        /* \"contracts/BitcoinNetflowContract.sol\":8698:8720  !netflowAlert.isActive */\n      iszero\n        /* \"contracts/BitcoinNetflowContract.sol\":8674:8720  netflowAlert.id != 0 && !netflowAlert.isActive */\n    tag_81:\n        /* \"contracts/BitcoinNetflowContract.sol\":8671:8874  if(netflowAlert.id != 0 && !netflowAlert.isActive){... */\n      iszero\n      tag_82\n      jumpi\n        /* \"contracts/BitcoinNetflowContract.sol\":8736:8757  netflowAlert.isActive */\n      0x09\n        /* \"contracts/BitcoinNetflowContract.sol\":8736:8764  netflowAlert.isActive = true */\n      dup1\n      sload\n      not(0xffff)\n        /* \"contracts/BitcoinNetflowContract.sol\":8779:8811  netflowAlert.isTriggered = false */\n      and\n        /* \"contracts/BitcoinNetflowContract.sol\":8760:8764  true */\n      0x01\n        /* \"contracts/BitcoinNetflowContract.sol\":8779:8811  netflowAlert.isTriggered = false */\n      or\n      swap1\n      sstore\n        /* \"contracts/BitcoinNetflowContract.sol\":8736:8748  netflowAlert */\n      0x05\n        /* \"contracts/BitcoinNetflowContract.sol\":8846:8861  netflowAlert.id */\n      sload\n        /* \"contracts/BitcoinNetflowContract.sol\":8831:8862  AlertActivated(netflowAlert.id) */\n      mload(0x40)\n      0x5b2a724a870cf7fe2c83bd903795d3ba6163ee1091a97587edf93ff866e22965\n      swap1\n        /* \"contracts/BitcoinNetflowContract.sol\":8736:8757  netflowAlert.isActive */\n      0x00\n      swap1\n        /* \"contracts/BitcoinNetflowContract.sol\":8831:8862  AlertActivated(netflowAlert.id) */\n      log2\n        /* \"contracts/BitcoinNetflowContract.sol\":8671:8874  if(netflowAlert.id != 0 && !netflowAlert.isActive){... */\n    tag_82:\n        /* \"contracts/BitcoinNetflowContract.sol\":8615:8881  function activateAlert() external onlyOwner {... */\n      jump\t// out\n        /* \"contracts/BitcoinNetflowContract.sol\":2251:3567  function configureSingleThresholdAlert(... */\n    tag_27:\n        /* \"@openzeppelin/contracts/access/Ownable.sol\":1531:1544  _checkOwner() */\n      tag_84\n        /* \"@openzeppelin/contracts/access/Ownable.sol\":1531:1542  _checkOwner */\n      tag_79\n        /* \"@openzeppelin/contracts/access/Ownable.sol\":1531:1544  _checkOwner() */\n      jump\t// in\n    tag_84:\n        /* \"contracts/BitcoinNetflowContract.sol\":2473:2510  DataTypes.AlertCondition.GREATER_THAN */\n      0x01\n        /* \"contracts/BitcoinNetflowContract.sol\":2459:2469  _condition */\n      dup5\n        /* \"contracts/BitcoinNetflowContract.sol\":2459:2510  _condition == DataTypes.AlertCondition.GREATER_THAN */\n      0x0c\n      dup2\n      gt\n      iszero\n      tag_90\n      jumpi\n      tag_90\n      tag_88\n      jump\t// in\n    tag_90:\n      eq\n        /* \"contracts/BitcoinNetflowContract.sol\":2459:2575  _condition == DataTypes.AlertCondition.GREATER_THAN ||... */\n      dup1\n      tag_91\n      jumpi\n      pop\n        /* \"contracts/BitcoinNetflowContract.sol\":2541:2575  DataTypes.AlertCondition.LESS_THAN */\n      0x02\n        /* \"contracts/BitcoinNetflowContract.sol\":2527:2537  _condition */\n      dup5\n        /* \"contracts/BitcoinNetflowContract.sol\":2527:2575  _condition == DataTypes.AlertCondition.LESS_THAN */\n      0x0c\n      dup2\n      gt\n      iszero\n      tag_95\n      jumpi\n      tag_95\n      tag_88\n      jump\t// in\n    tag_95:\n      eq\n        /* \"contracts/BitcoinNetflowContract.sol\":2459:2575  _condition == DataTypes.AlertCondition.GREATER_THAN ||... */\n    tag_91:\n        /* \"contracts/BitcoinNetflowContract.sol\":2459:2639  _condition == DataTypes.AlertCondition.GREATER_THAN ||... */\n      dup1\n      tag_96\n      jumpi\n      pop\n        /* \"contracts/BitcoinNetflowContract.sol\":2606:2639  DataTypes.AlertCondition.EQUAL_TO */\n      0x03\n        /* \"contracts/BitcoinNetflowContract.sol\":2592:2602  _condition */\n      dup5\n        /* \"contracts/BitcoinNetflowContract.sol\":2592:2639  _condition == DataTypes.AlertCondition.EQUAL_TO */\n      0x0c\n      dup2\n      gt\n      iszero\n      tag_100\n      jumpi\n      tag_100\n      tag_88\n      jump\t// in\n    tag_100:\n      eq\n        /* \"contracts/BitcoinNetflowContract.sol\":2459:2639  _condition == DataTypes.AlertCondition.GREATER_THAN ||... */\n    tag_96:\n        /* \"contracts/BitcoinNetflowContract.sol\":2459:2703  _condition == DataTypes.AlertCondition.GREATER_THAN ||... */\n      dup1\n      tag_101\n      jumpi\n      pop\n        /* \"contracts/BitcoinNetflowContract.sol\":2670:2703  DataTypes.AlertCondition.CROSSING */\n      0x04\n        /* \"contracts/BitcoinNetflowContract.sol\":2656:2666  _condition */\n      dup5\n        /* \"contracts/BitcoinNetflowContract.sol\":2656:2703  _condition == DataTypes.AlertCondition.CROSSING */\n      0x0c\n      dup2\n      gt\n      iszero\n      tag_105\n      jumpi\n      tag_105\n      tag_88\n      jump\t// in\n    tag_105:\n      eq\n        /* \"contracts/BitcoinNetflowContract.sol\":2459:2703  _condition == DataTypes.AlertCondition.GREATER_THAN ||... */\n    tag_101:\n        /* \"contracts/BitcoinNetflowContract.sol\":2459:2770  _condition == DataTypes.AlertCondition.GREATER_THAN ||... */\n      dup1\n      tag_106\n      jumpi\n      pop\n        /* \"contracts/BitcoinNetflowContract.sol\":2734:2770  DataTypes.AlertCondition.CROSSING_UP */\n      0x05\n        /* \"contracts/BitcoinNetflowContract.sol\":2720:2730  _condition */\n      dup5\n        /* \"contracts/BitcoinNetflowContract.sol\":2720:2770  _condition == DataTypes.AlertCondition.CROSSING_UP */\n      0x0c\n      dup2\n      gt\n      iszero\n      tag_110\n      jumpi\n      tag_110\n      tag_88\n      jump\t// in\n    tag_110:\n      eq\n        /* \"contracts/BitcoinNetflowContract.sol\":2459:2770  _condition == DataTypes.AlertCondition.GREATER_THAN ||... */\n    tag_106:\n        /* \"contracts/BitcoinNetflowContract.sol\":2459:2839  _condition == DataTypes.AlertCondition.GREATER_THAN ||... */\n      dup1\n      tag_111\n      jumpi\n      pop\n        /* \"contracts/BitcoinNetflowContract.sol\":2801:2839  DataTypes.AlertCondition.CROSSING_DOWN */\n      0x06\n        /* \"contracts/BitcoinNetflowContract.sol\":2787:2797  _condition */\n      dup5\n        /* \"contracts/BitcoinNetflowContract.sol\":2787:2839  _condition == DataTypes.AlertCondition.CROSSING_DOWN */\n      0x0c\n      dup2\n      gt\n      iszero\n      tag_115\n      jumpi\n      tag_115\n      tag_88\n      jump\t// in\n    tag_115:\n      eq\n        /* \"contracts/BitcoinNetflowContract.sol\":2459:2839  _condition == DataTypes.AlertCondition.GREATER_THAN ||... */\n    tag_111:\n        /* \"contracts/BitcoinNetflowContract.sol\":2459:2904  _condition == DataTypes.AlertCondition.GREATER_THAN ||... */\n      dup1\n      tag_116\n      jumpi\n      pop\n        /* \"contracts/BitcoinNetflowContract.sol\":2870:2904  DataTypes.AlertCondition.MOVING_UP */\n      0x0b\n        /* \"contracts/BitcoinNetflowContract.sol\":2856:2866  _condition */\n      dup5\n        /* \"contracts/BitcoinNetflowContract.sol\":2856:2904  _condition == DataTypes.AlertCondition.MOVING_UP */\n      0x0c\n      dup2\n      gt\n      iszero\n      tag_120\n      jumpi\n      tag_120\n      tag_88\n      jump\t// in\n    tag_120:\n      eq\n        /* \"contracts/BitcoinNetflowContract.sol\":2459:2904  _condition == DataTypes.AlertCondition.GREATER_THAN ||... */\n    tag_116:\n        /* \"contracts/BitcoinNetflowContract.sol\":2459:2971  _condition == DataTypes.AlertCondition.GREATER_THAN ||... */\n      dup1\n      tag_121\n      jumpi\n      pop\n        /* \"contracts/BitcoinNetflowContract.sol\":2935:2971  DataTypes.AlertCondition.MOVING_DOWN */\n      0x0c\n        /* \"contracts/BitcoinNetflowContract.sol\":2921:2931  _condition */\n      dup5\n        /* \"contracts/BitcoinNetflowContract.sol\":2921:2971  _condition == DataTypes.AlertCondition.MOVING_DOWN */\n      0x0c\n      dup2\n      gt\n      iszero\n      tag_125\n      jumpi\n      tag_125\n      tag_88\n      jump\t// in\n    tag_125:\n      eq\n        /* \"contracts/BitcoinNetflowContract.sol\":2459:2971  _condition == DataTypes.AlertCondition.GREATER_THAN ||... */\n    tag_121:\n        /* \"contracts/BitcoinNetflowContract.sol\":2437:3053  require(... */\n      tag_126\n      jumpi\n      mload(0x40)\n      shl(0xe5, 0x461bcd)\n      dup2\n      mstore\n        /* \"#utility.yul\":5684:5686   */\n      0x20\n        /* \"contracts/BitcoinNetflowContract.sol\":2437:3053  require(... */\n      0x04\n      dup3\n      add\n        /* \"#utility.yul\":5666:5687   */\n      mstore\n        /* \"#utility.yul\":5723:5725   */\n      0x36\n        /* \"#utility.yul\":5703:5721   */\n      0x24\n      dup3\n      add\n        /* \"#utility.yul\":5696:5726   */\n      mstore\n        /* \"#utility.yul\":5762:5796   */\n      0x426974636f696e4e6574666c6f773a20496e76616c696420636f6e646974696f\n        /* \"#utility.yul\":5742:5760   */\n      0x44\n      dup3\n      add\n        /* \"#utility.yul\":5735:5797   */\n      mstore\n      shl(0x52, 0x1b88199bdc881cda5b99db19481d1a1c995cda1bdb19)\n        /* \"#utility.yul\":5813:5831   */\n      0x64\n      dup3\n      add\n        /* \"#utility.yul\":5806:5858   */\n      mstore\n        /* \"#utility.yul\":5875:5894   */\n      0x84\n      add\n        /* \"contracts/BitcoinNetflowContract.sol\":2437:3053  require(... */\n    tag_127:\n      mload(0x40)\n      dup1\n      swap2\n      sub\n      swap1\n      revert\n    tag_126:\n        /* \"contracts/BitcoinNetflowContract.sol\":3070:3082  netflowAlert */\n      0x05\n        /* \"contracts/BitcoinNetflowContract.sol\":3070:3085  netflowAlert.id */\n      sload\n      0x00\n        /* \"contracts/BitcoinNetflowContract.sol\":3070:3090  netflowAlert.id == 0 */\n      sub\n        /* \"contracts/BitcoinNetflowContract.sol\":3066:3158  if (netflowAlert.id == 0) {... */\n      tag_129\n      jumpi\n        /* \"contracts/BitcoinNetflowContract.sol\":3125:3144  nextAlertIdInternal */\n      0x0c\n        /* \"contracts/BitcoinNetflowContract.sol\":3125:3146  nextAlertIdInternal++ */\n      dup1\n      sload\n      swap1\n        /* \"contracts/BitcoinNetflowContract.sol\":3125:3144  nextAlertIdInternal */\n      0x00\n        /* \"contracts/BitcoinNetflowContract.sol\":3125:3146  nextAlertIdInternal++ */\n      tag_130\n      dup4\n      tag_131\n      jump\t// in\n    tag_130:\n      swap1\n      swap2\n      sstore\n      pop\n        /* \"contracts/BitcoinNetflowContract.sol\":3107:3119  netflowAlert */\n      0x05\n        /* \"contracts/BitcoinNetflowContract.sol\":3107:3146  netflowAlert.id = nextAlertIdInternal++ */\n      sstore\n        /* \"contracts/BitcoinNetflowContract.sol\":3066:3158  if (netflowAlert.id == 0) {... */\n    tag_129:\n        /* \"contracts/BitcoinNetflowContract.sol\":3168:3185  netflowAlert.user */\n      0x06\n        /* \"contracts/BitcoinNetflowContract.sol\":3168:3198  netflowAlert.user = msg.sender */\n      dup1\n      sload\n        /* \"contracts/BitcoinNetflowContract.sol\":3188:3198  msg.sender */\n      caller\n      not(sub(shl(0xa0, 0x01), 0x01))\n        /* \"contracts/BitcoinNetflowContract.sol\":3168:3198  netflowAlert.user = msg.sender */\n      dup3\n      and\n      dup2\n      or\n      dup4\n      sstore\n        /* \"contracts/BitcoinNetflowContract.sol\":3234:3244  _condition */\n      dup7\n      swap3\n        /* \"contracts/BitcoinNetflowContract.sol\":3168:3185  netflowAlert.user */\n      swap2\n      not(sub(shl(0xa8, 0x01), 0x01))\n        /* \"contracts/BitcoinNetflowContract.sol\":3209:3244  netflowAlert.condition = _condition */\n      and\n      not(shl(0xa0, 0xff))\n      swap1\n      swap2\n      and\n      or\n      shl(0xa0, 0x01)\n        /* \"contracts/BitcoinNetflowContract.sol\":3234:3244  _condition */\n      dup4\n        /* \"contracts/BitcoinNetflowContract.sol\":3209:3244  netflowAlert.condition = _condition */\n      0x0c\n      dup2\n      gt\n      iszero\n      tag_133\n      jumpi\n      tag_133\n      tag_88\n      jump\t// in\n    tag_133:\n      mul\n      or\n      swap1\n      sstore\n      pop\n        /* \"contracts/BitcoinNetflowContract.sol\":3255:3278  netflowAlert.threshold1 */\n      0x07\n        /* \"contracts/BitcoinNetflowContract.sol\":3255:3292  netflowAlert.threshold1 = _threshold1 */\n      dup4\n      swap1\n      sstore\n        /* \"contracts/BitcoinNetflowContract.sol\":3329:3330  0 */\n      0x00\n        /* \"contracts/BitcoinNetflowContract.sol\":3303:3326  netflowAlert.threshold2 */\n      0x08\n        /* \"contracts/BitcoinNetflowContract.sol\":3303:3330  netflowAlert.threshold2 = 0 */\n      sstore\n        /* \"contracts/BitcoinNetflowContract.sol\":3341:3361  netflowAlert.message */\n      0x0b\n        /* \"contracts/BitcoinNetflowContract.sol\":3341:3372  netflowAlert.message = _message */\n      tag_134\n        /* \"contracts/BitcoinNetflowContract.sol\":3364:3372  _message */\n      dup3\n      dup5\n        /* \"contracts/BitcoinNetflowContract.sol\":3341:3361  netflowAlert.message */\n      dup4\n        /* \"contracts/BitcoinNetflowContract.sol\":3341:3372  netflowAlert.message = _message */\n      tag_135\n      jump\t// in\n    tag_134:\n      pop\n        /* \"contracts/BitcoinNetflowContract.sol\":3383:3404  netflowAlert.isActive */\n      0x09\n        /* \"contracts/BitcoinNetflowContract.sol\":3383:3411  netflowAlert.isActive = true */\n      dup1\n      sload\n      not(0xffff)\n        /* \"contracts/BitcoinNetflowContract.sol\":3422:3454  netflowAlert.isTriggered = false */\n      and\n        /* \"contracts/BitcoinNetflowContract.sol\":3407:3411  true */\n      0x01\n        /* \"contracts/BitcoinNetflowContract.sol\":3422:3454  netflowAlert.isTriggered = false */\n      or\n      swap1\n      sstore\n        /* \"contracts/BitcoinNetflowContract.sol\":3383:3404  netflowAlert.isActive */\n      0x00\n        /* \"contracts/BitcoinNetflowContract.sol\":3465:3493  netflowAlert.lastTriggeredAt */\n      0x0a\n        /* \"contracts/BitcoinNetflowContract.sol\":3465:3497  netflowAlert.lastTriggeredAt = 0 */\n      sstore\n        /* \"contracts/BitcoinNetflowContract.sol\":3383:3395  netflowAlert */\n      0x05\n        /* \"contracts/BitcoinNetflowContract.sol\":3529:3544  netflowAlert.id */\n      dup1\n      sload\n        /* \"contracts/BitcoinNetflowContract.sol\":3513:3559  AlertConfigured(netflowAlert.id, netflowAlert) */\n      mload(0x40)\n        /* \"contracts/BitcoinNetflowContract.sol\":3529:3544  netflowAlert.id */\n      swap1\n      swap2\n        /* \"contracts/BitcoinNetflowContract.sol\":3513:3559  AlertConfigured(netflowAlert.id, netflowAlert) */\n      0x3440945fea32b95db84a1da2429e3b2489a75ede5070a7e82bf894273c544032\n      swap2\n      tag_136\n      swap2\n        /* \"contracts/BitcoinNetflowContract.sol\":3383:3395  netflowAlert */\n      swap1\n        /* \"contracts/BitcoinNetflowContract.sol\":3513:3559  AlertConfigured(netflowAlert.id, netflowAlert) */\n      tag_137\n      jump\t// in\n    tag_136:\n      mload(0x40)\n      dup1\n      swap2\n      sub\n      swap1\n      log2\n        /* \"contracts/BitcoinNetflowContract.sol\":2251:3567  function configureSingleThresholdAlert(... */\n      pop\n      pop\n      pop\n      pop\n      jump\t// out\n        /* \"contracts/BitcoinNetflowContract.sol\":8889:9126  function resetAlertTriggerState() external onlyOwner {... */\n    tag_29:\n        /* \"@openzeppelin/contracts/access/Ownable.sol\":1531:1544  _checkOwner() */\n      tag_139\n        /* \"@openzeppelin/contracts/access/Ownable.sol\":1531:1542  _checkOwner */\n      tag_79\n        /* \"@openzeppelin/contracts/access/Ownable.sol\":1531:1544  _checkOwner() */\n      jump\t// in\n    tag_139:\n        /* \"contracts/BitcoinNetflowContract.sol\":8956:8968  netflowAlert */\n      0x05\n        /* \"contracts/BitcoinNetflowContract.sol\":8956:8971  netflowAlert.id */\n      sload\n        /* \"contracts/BitcoinNetflowContract.sol\":8956:8976  netflowAlert.id != 0 */\n      iszero\n      dup1\n      iszero\n      swap1\n        /* \"contracts/BitcoinNetflowContract.sol\":8956:9004  netflowAlert.id != 0 && netflowAlert.isTriggered */\n      tag_141\n      jumpi\n      pop\n        /* \"contracts/BitcoinNetflowContract.sol\":8980:9004  netflowAlert.isTriggered */\n      sload(0x09)\n      0x0100\n      swap1\n      div\n      0xff\n      and\n        /* \"contracts/BitcoinNetflowContract.sol\":8956:9004  netflowAlert.id != 0 && netflowAlert.isTriggered */\n    tag_141:\n        /* \"contracts/BitcoinNetflowContract.sol\":8953:9119  if(netflowAlert.id != 0 && netflowAlert.isTriggered) {... */\n      iszero\n      tag_82\n      jumpi\n        /* \"contracts/BitcoinNetflowContract.sol\":9021:9045  netflowAlert.isTriggered */\n      0x09\n        /* \"contracts/BitcoinNetflowContract.sol\":9021:9053  netflowAlert.isTriggered = false */\n      dup1\n      sload\n      not(0xff00)\n      and\n      swap1\n      sstore\n        /* \"contracts/BitcoinNetflowContract.sol\":9021:9033  netflowAlert */\n      0x05\n        /* \"contracts/BitcoinNetflowContract.sol\":9091:9106  netflowAlert.id */\n      sload\n        /* \"contracts/BitcoinNetflowContract.sol\":9073:9107  AlertTriggerReset(netflowAlert.id) */\n      mload(0x40)\n      0xc26f9c3201044d3757e27488cd192595aaf8b176842b2175ef47a4cdf1a53952\n      swap1\n        /* \"contracts/BitcoinNetflowContract.sol\":9048:9053  false */\n      0x00\n      swap1\n        /* \"contracts/BitcoinNetflowContract.sol\":9073:9107  AlertTriggerReset(netflowAlert.id) */\n      log2\n        /* \"contracts/BitcoinNetflowContract.sol\":8889:9126  function resetAlertTriggerState() external onlyOwner {... */\n      jump\t// out\n        /* \"contracts/BitcoinNetflowContract.sol\":3575:4915  function configureChannelAlert(... */\n    tag_33:\n        /* \"@openzeppelin/contracts/access/Ownable.sol\":1531:1544  _checkOwner() */\n      tag_144\n        /* \"@openzeppelin/contracts/access/Ownable.sol\":1531:1542  _checkOwner */\n      tag_79\n        /* \"@openzeppelin/contracts/access/Ownable.sol\":1531:1544  _checkOwner() */\n      jump\t// in\n    tag_144:\n        /* \"contracts/BitcoinNetflowContract.sol\":3810:3851  DataTypes.AlertCondition.ENTERING_CHANNEL */\n      0x07\n        /* \"contracts/BitcoinNetflowContract.sol\":3796:3806  _condition */\n      dup6\n        /* \"contracts/BitcoinNetflowContract.sol\":3796:3851  _condition == DataTypes.AlertCondition.ENTERING_CHANNEL */\n      0x0c\n      dup2\n      gt\n      iszero\n      tag_149\n      jumpi\n      tag_149\n      tag_88\n      jump\t// in\n    tag_149:\n      eq\n        /* \"contracts/BitcoinNetflowContract.sol\":3796:3922  _condition == DataTypes.AlertCondition.ENTERING_CHANNEL ||... */\n      dup1\n      tag_150\n      jumpi\n      pop\n        /* \"contracts/BitcoinNetflowContract.sol\":3882:3922  DataTypes.AlertCondition.EXITING_CHANNEL */\n      0x08\n        /* \"contracts/BitcoinNetflowContract.sol\":3868:3878  _condition */\n      dup6\n        /* \"contracts/BitcoinNetflowContract.sol\":3868:3922  _condition == DataTypes.AlertCondition.EXITING_CHANNEL */\n      0x0c\n      dup2\n      gt\n      iszero\n      tag_154\n      jumpi\n      tag_154\n      tag_88\n      jump\t// in\n    tag_154:\n      eq\n        /* \"contracts/BitcoinNetflowContract.sol\":3796:3922  _condition == DataTypes.AlertCondition.ENTERING_CHANNEL ||... */\n    tag_150:\n        /* \"contracts/BitcoinNetflowContract.sol\":3796:3992  _condition == DataTypes.AlertCondition.ENTERING_CHANNEL ||... */\n      dup1\n      tag_155\n      jumpi\n      pop\n        /* \"contracts/BitcoinNetflowContract.sol\":3953:3992  DataTypes.AlertCondition.INSIDE_CHANNEL */\n      0x09\n        /* \"contracts/BitcoinNetflowContract.sol\":3939:3949  _condition */\n      dup6\n        /* \"contracts/BitcoinNetflowContract.sol\":3939:3992  _condition == DataTypes.AlertCondition.INSIDE_CHANNEL */\n      0x0c\n      dup2\n      gt\n      iszero\n      tag_159\n      jumpi\n      tag_159\n      tag_88\n      jump\t// in\n    tag_159:\n      eq\n        /* \"contracts/BitcoinNetflowContract.sol\":3796:3992  _condition == DataTypes.AlertCondition.ENTERING_CHANNEL ||... */\n    tag_155:\n        /* \"contracts/BitcoinNetflowContract.sol\":3796:4063  _condition == DataTypes.AlertCondition.ENTERING_CHANNEL ||... */\n      dup1\n      tag_160\n      jumpi\n      pop\n        /* \"contracts/BitcoinNetflowContract.sol\":4023:4063  DataTypes.AlertCondition.OUTSIDE_CHANNEL */\n      0x0a\n        /* \"contracts/BitcoinNetflowContract.sol\":4009:4019  _condition */\n      dup6\n        /* \"contracts/BitcoinNetflowContract.sol\":4009:4063  _condition == DataTypes.AlertCondition.OUTSIDE_CHANNEL */\n      0x0c\n      dup2\n      gt\n      iszero\n      tag_164\n      jumpi\n      tag_164\n      tag_88\n      jump\t// in\n    tag_164:\n      eq\n        /* \"contracts/BitcoinNetflowContract.sol\":3796:4063  _condition == DataTypes.AlertCondition.ENTERING_CHANNEL ||... */\n    tag_160:\n        /* \"contracts/BitcoinNetflowContract.sol\":3774:4142  require(... */\n      tag_165\n      jumpi\n      mload(0x40)\n      shl(0xe5, 0x461bcd)\n      dup2\n      mstore\n        /* \"#utility.yul\":10614:10616   */\n      0x20\n        /* \"contracts/BitcoinNetflowContract.sol\":3774:4142  require(... */\n      0x04\n      dup3\n      add\n        /* \"#utility.yul\":10596:10617   */\n      mstore\n        /* \"#utility.yul\":10653:10655   */\n      0x33\n        /* \"#utility.yul\":10633:10651   */\n      0x24\n      dup3\n      add\n        /* \"#utility.yul\":10626:10656   */\n      mstore\n        /* \"#utility.yul\":10692:10726   */\n      0x426974636f696e4e6574666c6f773a20496e76616c696420636f6e646974696f\n        /* \"#utility.yul\":10672:10690   */\n      0x44\n      dup3\n      add\n        /* \"#utility.yul\":10665:10727   */\n      mstore\n      shl(0x6a, 0x1b88199bdc8818da185b9b995b08185b195c9d)\n        /* \"#utility.yul\":10743:10761   */\n      0x64\n      dup3\n      add\n        /* \"#utility.yul\":10736:10785   */\n      mstore\n        /* \"#utility.yul\":10802:10821   */\n      0x84\n      add\n        /* \"contracts/BitcoinNetflowContract.sol\":3774:4142  require(... */\n      tag_127\n        /* \"#utility.yul\":10412:10827   */\n      jump\n        /* \"contracts/BitcoinNetflowContract.sol\":3774:4142  require(... */\n    tag_165:\n        /* \"contracts/BitcoinNetflowContract.sol\":4172:4179  _bound2 */\n      dup3\n        /* \"contracts/BitcoinNetflowContract.sol\":4161:4168  _bound1 */\n      dup5\n        /* \"contracts/BitcoinNetflowContract.sol\":4161:4179  _bound1 != _bound2 */\n      sub\n        /* \"contracts/BitcoinNetflowContract.sol\":4153:4232  require(_bound1 != _bound2, \"BitcoinNetflow: Channel bounds must be different\") */\n      tag_168\n      jumpi\n      mload(0x40)\n      shl(0xe5, 0x461bcd)\n      dup2\n      mstore\n        /* \"#utility.yul\":11034:11036   */\n      0x20\n        /* \"contracts/BitcoinNetflowContract.sol\":4153:4232  require(_bound1 != _bound2, \"BitcoinNetflow: Channel bounds must be different\") */\n      0x04\n      dup3\n      add\n        /* \"#utility.yul\":11016:11037   */\n      mstore\n        /* \"#utility.yul\":11073:11075   */\n      0x30\n        /* \"#utility.yul\":11053:11071   */\n      0x24\n      dup3\n      add\n        /* \"#utility.yul\":11046:11076   */\n      mstore\n        /* \"#utility.yul\":11112:11146   */\n      0x426974636f696e4e6574666c6f773a204368616e6e656c20626f756e6473206d\n        /* \"#utility.yul\":11092:11110   */\n      0x44\n      dup3\n      add\n        /* \"#utility.yul\":11085:11147   */\n      mstore\n      shl(0x82, 0x1d5cdd08189948191a5999995c995b9d)\n        /* \"#utility.yul\":11163:11181   */\n      0x64\n      dup3\n      add\n        /* \"#utility.yul\":11156:11202   */\n      mstore\n        /* \"#utility.yul\":11219:11238   */\n      0x84\n      add\n        /* \"contracts/BitcoinNetflowContract.sol\":4153:4232  require(_bound1 != _bound2, \"BitcoinNetflow: Channel bounds must be different\") */\n      tag_127\n        /* \"#utility.yul\":10832:11244   */\n      jump\n        /* \"contracts/BitcoinNetflowContract.sol\":4153:4232  require(_bound1 != _bound2, \"BitcoinNetflow: Channel bounds must be different\") */\n    tag_168:\n        /* \"contracts/BitcoinNetflowContract.sol\":4249:4261  netflowAlert */\n      0x05\n        /* \"contracts/BitcoinNetflowContract.sol\":4249:4264  netflowAlert.id */\n      sload\n      0x00\n        /* \"contracts/BitcoinNetflowContract.sol\":4249:4269  netflowAlert.id == 0 */\n      sub\n        /* \"contracts/BitcoinNetflowContract.sol\":4245:4337  if (netflowAlert.id == 0) {... */\n      tag_171\n      jumpi\n        /* \"contracts/BitcoinNetflowContract.sol\":4304:4323  nextAlertIdInternal */\n      0x0c\n        /* \"contracts/BitcoinNetflowContract.sol\":4304:4325  nextAlertIdInternal++ */\n      dup1\n      sload\n      swap1\n        /* \"contracts/BitcoinNetflowContract.sol\":4304:4323  nextAlertIdInternal */\n      0x00\n        /* \"contracts/BitcoinNetflowContract.sol\":4304:4325  nextAlertIdInternal++ */\n      tag_172\n      dup4\n      tag_131\n      jump\t// in\n    tag_172:\n      swap1\n      swap2\n      sstore\n      pop\n        /* \"contracts/BitcoinNetflowContract.sol\":4286:4298  netflowAlert */\n      0x05\n        /* \"contracts/BitcoinNetflowContract.sol\":4286:4325  netflowAlert.id = nextAlertIdInternal++ */\n      sstore\n        /* \"contracts/BitcoinNetflowContract.sol\":4245:4337  if (netflowAlert.id == 0) {... */\n    tag_171:\n        /* \"contracts/BitcoinNetflowContract.sol\":4347:4364  netflowAlert.user */\n      0x06\n        /* \"contracts/BitcoinNetflowContract.sol\":4347:4377  netflowAlert.user = msg.sender */\n      dup1\n      sload\n        /* \"contracts/BitcoinNetflowContract.sol\":4367:4377  msg.sender */\n      caller\n      not(sub(shl(0xa0, 0x01), 0x01))\n        /* \"contracts/BitcoinNetflowContract.sol\":4347:4377  netflowAlert.user = msg.sender */\n      dup3\n      and\n      dup2\n      or\n      dup4\n      sstore\n        /* \"contracts/BitcoinNetflowContract.sol\":4413:4423  _condition */\n      dup8\n      swap3\n        /* \"contracts/BitcoinNetflowContract.sol\":4347:4364  netflowAlert.user */\n      swap2\n      not(sub(shl(0xa8, 0x01), 0x01))\n        /* \"contracts/BitcoinNetflowContract.sol\":4388:4423  netflowAlert.condition = _condition */\n      and\n      not(shl(0xa0, 0xff))\n      swap1\n      swap2\n      and\n      or\n      shl(0xa0, 0x01)\n        /* \"contracts/BitcoinNetflowContract.sol\":4413:4423  _condition */\n      dup4\n        /* \"contracts/BitcoinNetflowContract.sol\":4388:4423  netflowAlert.condition = _condition */\n      0x0c\n      dup2\n      gt\n      iszero\n      tag_174\n      jumpi\n      tag_174\n      tag_88\n      jump\t// in\n    tag_174:\n      mul\n      or\n      swap1\n      sstore\n      pop\n        /* \"contracts/BitcoinNetflowContract.sol\":4448:4455  _bound2 */\n      dup3\n        /* \"contracts/BitcoinNetflowContract.sol\":4438:4445  _bound1 */\n      dup5\n        /* \"contracts/BitcoinNetflowContract.sol\":4438:4455  _bound1 < _bound2 */\n      slt\n        /* \"contracts/BitcoinNetflowContract.sol\":4434:4679  if (_bound1 < _bound2) {... */\n      iszero\n      tag_175\n      jumpi\n        /* \"contracts/BitcoinNetflowContract.sol\":4472:4495  netflowAlert.threshold1 */\n      0x07\n        /* \"contracts/BitcoinNetflowContract.sol\":4472:4505  netflowAlert.threshold1 = _bound1 */\n      dup5\n      swap1\n      sstore\n        /* \"contracts/BitcoinNetflowContract.sol\":4520:4543  netflowAlert.threshold2 */\n      0x08\n        /* \"contracts/BitcoinNetflowContract.sol\":4520:4553  netflowAlert.threshold2 = _bound2 */\n      dup4\n      swap1\n      sstore\n        /* \"contracts/BitcoinNetflowContract.sol\":4434:4679  if (_bound1 < _bound2) {... */\n      jump(tag_176)\n    tag_175:\n        /* \"contracts/BitcoinNetflowContract.sol\":4586:4609  netflowAlert.threshold1 */\n      0x07\n        /* \"contracts/BitcoinNetflowContract.sol\":4586:4619  netflowAlert.threshold1 = _bound2 */\n      dup4\n      swap1\n      sstore\n        /* \"contracts/BitcoinNetflowContract.sol\":4634:4657  netflowAlert.threshold2 */\n      0x08\n        /* \"contracts/BitcoinNetflowContract.sol\":4634:4667  netflowAlert.threshold2 = _bound1 */\n      dup5\n      swap1\n      sstore\n        /* \"contracts/BitcoinNetflowContract.sol\":4434:4679  if (_bound1 < _bound2) {... */\n    tag_176:\n        /* \"contracts/BitcoinNetflowContract.sol\":4689:4709  netflowAlert.message */\n      0x0b\n        /* \"contracts/BitcoinNetflowContract.sol\":4689:4720  netflowAlert.message = _message */\n      tag_177\n        /* \"contracts/BitcoinNetflowContract.sol\":4712:4720  _message */\n      dup3\n      dup5\n        /* \"contracts/BitcoinNetflowContract.sol\":4689:4709  netflowAlert.message */\n      dup4\n        /* \"contracts/BitcoinNetflowContract.sol\":4689:4720  netflowAlert.message = _message */\n      tag_135\n      jump\t// in\n    tag_177:\n      pop\n        /* \"contracts/BitcoinNetflowContract.sol\":4731:4752  netflowAlert.isActive */\n      0x09\n        /* \"contracts/BitcoinNetflowContract.sol\":4731:4759  netflowAlert.isActive = true */\n      dup1\n      sload\n      not(0xffff)\n        /* \"contracts/BitcoinNetflowContract.sol\":4770:4802  netflowAlert.isTriggered = false */\n      and\n        /* \"contracts/BitcoinNetflowContract.sol\":4755:4759  true */\n      0x01\n        /* \"contracts/BitcoinNetflowContract.sol\":4770:4802  netflowAlert.isTriggered = false */\n      or\n      swap1\n      sstore\n        /* \"contracts/BitcoinNetflowContract.sol\":4731:4752  netflowAlert.isActive */\n      0x00\n        /* \"contracts/BitcoinNetflowContract.sol\":4813:4841  netflowAlert.lastTriggeredAt */\n      0x0a\n        /* \"contracts/BitcoinNetflowContract.sol\":4813:4845  netflowAlert.lastTriggeredAt = 0 */\n      sstore\n        /* \"contracts/BitcoinNetflowContract.sol\":4731:4743  netflowAlert */\n      0x05\n        /* \"contracts/BitcoinNetflowContract.sol\":4877:4892  netflowAlert.id */\n      dup1\n      sload\n        /* \"contracts/BitcoinNetflowContract.sol\":4861:4907  AlertConfigured(netflowAlert.id, netflowAlert) */\n      mload(0x40)\n        /* \"contracts/BitcoinNetflowContract.sol\":4877:4892  netflowAlert.id */\n      swap1\n      swap2\n        /* \"contracts/BitcoinNetflowContract.sol\":4861:4907  AlertConfigured(netflowAlert.id, netflowAlert) */\n      0x3440945fea32b95db84a1da2429e3b2489a75ede5070a7e82bf894273c544032\n      swap2\n      tag_178\n      swap2\n        /* \"contracts/BitcoinNetflowContract.sol\":4731:4743  netflowAlert */\n      swap1\n        /* \"contracts/BitcoinNetflowContract.sol\":4861:4907  AlertConfigured(netflowAlert.id, netflowAlert) */\n      tag_137\n      jump\t// in\n    tag_178:\n      mload(0x40)\n      dup1\n      swap2\n      sub\n      swap1\n      log2\n        /* \"contracts/BitcoinNetflowContract.sol\":3575:4915  function configureChannelAlert(... */\n      pop\n      pop\n      pop\n      pop\n      pop\n      jump\t// out\n        /* \"@openzeppelin/contracts/access/Ownable.sol\":2293:2394  function renounceOwnership() public virtual onlyOwner {... */\n    tag_35:\n        /* \"@openzeppelin/contracts/access/Ownable.sol\":1531:1544  _checkOwner() */\n      tag_180\n        /* \"@openzeppelin/contracts/access/Ownable.sol\":1531:1542  _checkOwner */\n      tag_79\n        /* \"@openzeppelin/contracts/access/Ownable.sol\":1531:1544  _checkOwner() */\n      jump\t// in\n    tag_180:\n        /* \"@openzeppelin/contracts/access/Ownable.sol\":2357:2387  _transferOwnership(address(0)) */\n      tag_82\n        /* \"@openzeppelin/contracts/access/Ownable.sol\":2384:2385  0 */\n      0x00\n        /* \"@openzeppelin/contracts/access/Ownable.sol\":2357:2375  _transferOwnership */\n      tag_183\n        /* \"@openzeppelin/contracts/access/Ownable.sol\":2357:2387  _transferOwnership(address(0)) */\n      jump\t// in\n        /* \"contracts/BitcoinNetflowContract.sol\":1532:2243  function updateNetflow(int256 _amount) external onlyOwner {... */\n    tag_47:\n        /* \"@openzeppelin/contracts/access/Ownable.sol\":1531:1544  _checkOwner() */\n      tag_185\n        /* \"@openzeppelin/contracts/access/Ownable.sol\":1531:1542  _checkOwner */\n      tag_79\n        /* \"@openzeppelin/contracts/access/Ownable.sol\":1531:1544  _checkOwner() */\n      jump\t// in\n    tag_185:\n        /* \"contracts/BitcoinNetflowContract.sol\":1605:1629  hasPreviousNetflowAmount */\n      and(0xff, sload(0x04))\n      dup1\n        /* \"contracts/BitcoinNetflowContract.sol\":1605:1666  hasPreviousNetflowAmount || currentNetflow.lastUpdatedAt != 0 */\n      tag_187\n      jumpi\n      pop\n        /* \"contracts/BitcoinNetflowContract.sol\":1633:1661  currentNetflow.lastUpdatedAt */\n      sload(0x02)\n        /* \"contracts/BitcoinNetflowContract.sol\":1633:1666  currentNetflow.lastUpdatedAt != 0 */\n      iszero\n      iszero\n        /* \"contracts/BitcoinNetflowContract.sol\":1605:1666  hasPreviousNetflowAmount || currentNetflow.lastUpdatedAt != 0 */\n    tag_187:\n        /* \"contracts/BitcoinNetflowContract.sol\":1601:1804  if (hasPreviousNetflowAmount || currentNetflow.lastUpdatedAt != 0) {... */\n      iszero\n      tag_188\n      jumpi\n        /* \"contracts/BitcoinNetflowContract.sol\":1707:1721  currentNetflow */\n      0x01\n        /* \"contracts/BitcoinNetflowContract.sol\":1707:1728  currentNetflow.amount */\n      sload\n        /* \"contracts/BitcoinNetflowContract.sol\":1683:1704  previousNetflowAmount */\n      0x03\n        /* \"contracts/BitcoinNetflowContract.sol\":1683:1728  previousNetflowAmount = currentNetflow.amount */\n      sstore\n        /* \"contracts/BitcoinNetflowContract.sol\":1601:1804  if (hasPreviousNetflowAmount || currentNetflow.lastUpdatedAt != 0) {... */\n      jump(tag_189)\n    tag_188:\n        /* \"contracts/BitcoinNetflowContract.sol\":1761:1782  previousNetflowAmount */\n      0x03\n        /* \"contracts/BitcoinNetflowContract.sol\":1761:1792  previousNetflowAmount = _amount */\n      dup2\n      swap1\n      sstore\n        /* \"contracts/BitcoinNetflowContract.sol\":1601:1804  if (hasPreviousNetflowAmount || currentNetflow.lastUpdatedAt != 0) {... */\n    tag_189:\n        /* \"contracts/BitcoinNetflowContract.sol\":1814:1838  hasPreviousNetflowAmount */\n      0x04\n        /* \"contracts/BitcoinNetflowContract.sol\":1814:1845  hasPreviousNetflowAmount = true */\n      dup1\n      sload\n      not(0xff)\n      and\n        /* \"contracts/BitcoinNetflowContract.sol\":1841:1845  true */\n      0x01\n        /* \"contracts/BitcoinNetflowContract.sol\":1814:1845  hasPreviousNetflowAmount = true */\n      swap1\n      dup2\n      or\n      swap1\n      swap2\n      sstore\n        /* \"contracts/BitcoinNetflowContract.sol\":1858:1889  currentNetflow.amount = _amount */\n      dup2\n      swap1\n      sstore\n        /* \"contracts/BitcoinNetflowContract.sol\":1931:1946  block.timestamp */\n      timestamp\n        /* \"contracts/BitcoinNetflowContract.sol\":1900:1928  currentNetflow.lastUpdatedAt */\n      0x02\n        /* \"contracts/BitcoinNetflowContract.sol\":1900:1946  currentNetflow.lastUpdatedAt = block.timestamp */\n      dup2\n      swap1\n      sstore\n        /* \"contracts/BitcoinNetflowContract.sol\":1962:1992  NetflowUpdated(currentNetflow) */\n      0x40\n      dup1\n      mload\n        /* \"#utility.yul\":11450:11482   */\n      dup4\n      dup2\n      mstore\n        /* \"#utility.yul\":11513:11517   */\n      0x20\n        /* \"#utility.yul\":11498:11518   */\n      dup2\n      add\n        /* \"#utility.yul\":11491:11545   */\n      swap3\n      swap1\n      swap3\n      mstore\n        /* \"contracts/BitcoinNetflowContract.sol\":1962:1992  NetflowUpdated(currentNetflow) */\n      0x6aa923a6c9209a2e21ae6e280a4db9b9ee735a6365236e562b53a25d23c1ef56\n      swap2\n        /* \"#utility.yul\":11423:11441   */\n      add\n        /* \"contracts/BitcoinNetflowContract.sol\":1962:1992  NetflowUpdated(currentNetflow) */\n      mload(0x40)\n      dup1\n      swap2\n      sub\n      swap1\n      log1\n        /* \"contracts/BitcoinNetflowContract.sol\":2017:2034  dashboardNotifier */\n      and(sub(shl(0xa0, 0x01), 0x01), sload(0x0d))\n        /* \"contracts/BitcoinNetflowContract.sol\":2009:2049  address(dashboardNotifier) != address(0) */\n      iszero\n        /* \"contracts/BitcoinNetflowContract.sol\":2005:2131  if (address(dashboardNotifier) != address(0)) {... */\n      tag_192\n      jumpi\n        /* \"contracts/BitcoinNetflowContract.sol\":2066:2083  dashboardNotifier */\n      sload(0x0d)\n        /* \"contracts/BitcoinNetflowContract.sol\":2066:2119  dashboardNotifier.notifyNetflowUpdate(currentNetflow) */\n      mload(0x40)\n      shl(0xe2, 0x2a57f87b)\n      dup2\n      mstore\n        /* \"contracts/BitcoinNetflowContract.sol\":2066:2083  dashboardNotifier */\n      0x01\n        /* \"#utility.yul\":11468:11481   */\n      sload\n        /* \"contracts/BitcoinNetflowContract.sol\":2066:2119  dashboardNotifier.notifyNetflowUpdate(currentNetflow) */\n      0x04\n      dup3\n      add\n        /* \"#utility.yul\":11450:11482   */\n      mstore\n        /* \"#utility.yul\":11526:11543   */\n      0x02\n        /* \"#utility.yul\":11520:11544   */\n      sload\n        /* \"#utility.yul\":11498:11518   */\n      0x24\n      dup3\n      add\n        /* \"#utility.yul\":11491:11545   */\n      mstore\n      sub(shl(0xa0, 0x01), 0x01)\n        /* \"contracts/BitcoinNetflowContract.sol\":2066:2083  dashboardNotifier */\n      swap1\n      swap2\n      and\n      swap1\n        /* \"contracts/BitcoinNetflowContract.sol\":2066:2103  dashboardNotifier.notifyNetflowUpdate */\n      0xa95fe1ec\n      swap1\n        /* \"#utility.yul\":11423:11441   */\n      0x44\n      add\n        /* \"contracts/BitcoinNetflowContract.sol\":2066:2119  dashboardNotifier.notifyNetflowUpdate(currentNetflow) */\n      0x00\n      mload(0x40)\n      dup1\n      dup4\n      sub\n      dup2\n      0x00\n      dup8\n      dup1\n      extcodesize\n      iszero\n      dup1\n      iszero\n      tag_194\n      jumpi\n      revert(0x00, 0x00)\n    tag_194:\n      pop\n      gas\n      call\n      iszero\n      dup1\n      iszero\n      tag_196\n      jumpi\n      returndatacopy(0x00, 0x00, returndatasize)\n      revert(0x00, returndatasize)\n    tag_196:\n      pop\n      pop\n      pop\n      pop\n        /* \"contracts/BitcoinNetflowContract.sol\":2005:2131  if (address(dashboardNotifier) != address(0)) {... */\n    tag_192:\n        /* \"contracts/BitcoinNetflowContract.sol\":2164:2178  currentNetflow */\n      0x01\n        /* \"contracts/BitcoinNetflowContract.sol\":2164:2185  currentNetflow.amount */\n      sload\n        /* \"contracts/BitcoinNetflowContract.sol\":2187:2208  previousNetflowAmount */\n      sload(0x03)\n        /* \"contracts/BitcoinNetflowContract.sol\":2210:2234  hasPreviousNetflowAmount */\n      sload(0x04)\n        /* \"contracts/BitcoinNetflowContract.sol\":2143:2235  checkAndTriggerAlert(currentNetflow.amount, previousNetflowAmount, hasPreviousNetflowAmount) */\n      tag_197\n      swap3\n        /* \"contracts/BitcoinNetflowContract.sol\":2164:2185  currentNetflow.amount */\n      swap2\n        /* \"contracts/BitcoinNetflowContract.sol\":2187:2208  previousNetflowAmount */\n      swap1\n        /* \"contracts/BitcoinNetflowContract.sol\":2210:2234  hasPreviousNetflowAmount */\n      0xff\n      and\n        /* \"contracts/BitcoinNetflowContract.sol\":2143:2163  checkAndTriggerAlert */\n      tag_198\n        /* \"contracts/BitcoinNetflowContract.sol\":2143:2235  checkAndTriggerAlert(currentNetflow.amount, previousNetflowAmount, hasPreviousNetflowAmount) */\n      jump\t// in\n    tag_197:\n        /* \"contracts/BitcoinNetflowContract.sol\":1532:2243  function updateNetflow(int256 _amount) external onlyOwner {... */\n      pop\n      jump\t// out\n        /* \"contracts/BitcoinNetflowContract.sol\":1356:1524  function setDashboardNotifier(address _dashboardNotifierAddress) external onlyOwner {... */\n    tag_55:\n        /* \"@openzeppelin/contracts/access/Ownable.sol\":1531:1544  _checkOwner() */\n      tag_201\n        /* \"@openzeppelin/contracts/access/Ownable.sol\":1531:1542  _checkOwner */\n      tag_79\n        /* \"@openzeppelin/contracts/access/Ownable.sol\":1531:1544  _checkOwner() */\n      jump\t// in\n    tag_201:\n        /* \"contracts/BitcoinNetflowContract.sol\":1451:1468  dashboardNotifier */\n      0x0d\n        /* \"contracts/BitcoinNetflowContract.sol\":1451:1516  dashboardNotifier = IDashboardNotifier(_dashboardNotifierAddress) */\n      dup1\n      sload\n      not(sub(shl(0xa0, 0x01), 0x01))\n      and\n      sub(shl(0xa0, 0x01), 0x01)\n      swap3\n      swap1\n      swap3\n      and\n      swap2\n      swap1\n      swap2\n      or\n      swap1\n      sstore\n        /* \"contracts/BitcoinNetflowContract.sol\":1356:1524  function setDashboardNotifier(address _dashboardNotifierAddress) external onlyOwner {... */\n      jump\t// out\n        /* \"contracts/BitcoinNetflowContract.sol\":8388:8607  function turnOffAlert() external onlyOwner {... */\n    tag_61:\n        /* \"@openzeppelin/contracts/access/Ownable.sol\":1531:1544  _checkOwner() */\n      tag_204\n        /* \"@openzeppelin/contracts/access/Ownable.sol\":1531:1542  _checkOwner */\n      tag_79\n        /* \"@openzeppelin/contracts/access/Ownable.sol\":1531:1544  _checkOwner() */\n      jump\t// in\n    tag_204:\n        /* \"contracts/BitcoinNetflowContract.sol\":8445:8457  netflowAlert */\n      0x05\n        /* \"contracts/BitcoinNetflowContract.sol\":8445:8460  netflowAlert.id */\n      sload\n        /* \"contracts/BitcoinNetflowContract.sol\":8445:8465  netflowAlert.id != 0 */\n      iszero\n      dup1\n      iszero\n      swap1\n        /* \"contracts/BitcoinNetflowContract.sol\":8445:8490  netflowAlert.id != 0 && netflowAlert.isActive */\n      tag_206\n      jumpi\n      pop\n        /* \"contracts/BitcoinNetflowContract.sol\":8469:8490  netflowAlert.isActive */\n      and(0xff, sload(0x09))\n        /* \"contracts/BitcoinNetflowContract.sol\":8445:8490  netflowAlert.id != 0 && netflowAlert.isActive */\n    tag_206:\n        /* \"contracts/BitcoinNetflowContract.sol\":8442:8600  if(netflowAlert.id != 0 && netflowAlert.isActive){... */\n      iszero\n      tag_82\n      jumpi\n        /* \"contracts/BitcoinNetflowContract.sol\":8506:8527  netflowAlert.isActive */\n      0x09\n        /* \"contracts/BitcoinNetflowContract.sol\":8506:8535  netflowAlert.isActive = false */\n      dup1\n      sload\n      not(0xff)\n      and\n      swap1\n      sstore\n        /* \"contracts/BitcoinNetflowContract.sol\":8506:8518  netflowAlert */\n      0x05\n        /* \"contracts/BitcoinNetflowContract.sol\":8572:8587  netflowAlert.id */\n      sload\n        /* \"contracts/BitcoinNetflowContract.sol\":8555:8588  AlertDeactivated(netflowAlert.id) */\n      mload(0x40)\n      0xd7d997a7d5bb0e259c4bcbf9213b950fc2d302d3d30540c7671b3c2e6d33088d\n      swap1\n        /* \"contracts/BitcoinNetflowContract.sol\":8530:8535  false */\n      0x00\n      swap1\n        /* \"contracts/BitcoinNetflowContract.sol\":8555:8588  AlertDeactivated(netflowAlert.id) */\n      log2\n        /* \"contracts/BitcoinNetflowContract.sol\":8388:8607  function turnOffAlert() external onlyOwner {... */\n      jump\t// out\n        /* \"@openzeppelin/contracts/access/Ownable.sol\":2543:2758  function transferOwnership(address newOwner) public virtual onlyOwner {... */\n    tag_68:\n        /* \"@openzeppelin/contracts/access/Ownable.sol\":1531:1544  _checkOwner() */\n      tag_209\n        /* \"@openzeppelin/contracts/access/Ownable.sol\":1531:1542  _checkOwner */\n      tag_79\n        /* \"@openzeppelin/contracts/access/Ownable.sol\":1531:1544  _checkOwner() */\n      jump\t// in\n    tag_209:\n      sub(shl(0xa0, 0x01), 0x01)\n        /* \"@openzeppelin/contracts/access/Ownable.sol\":2627:2649  newOwner == address(0) */\n      dup2\n      and\n        /* \"@openzeppelin/contracts/access/Ownable.sol\":2623:2714  if (newOwner == address(0)) {... */\n      tag_211\n      jumpi\n        /* \"@openzeppelin/contracts/access/Ownable.sol\":2672:2703  OwnableInvalidOwner(address(0)) */\n      mload(0x40)\n      shl(0xe0, 0x1e4fbdf7)\n      dup2\n      mstore\n        /* \"@openzeppelin/contracts/access/Ownable.sol\":2700:2701  0 */\n      0x00\n        /* \"@openzeppelin/contracts/access/Ownable.sol\":2672:2703  OwnableInvalidOwner(address(0)) */\n      0x04\n      dup3\n      add\n        /* \"#utility.yul\":2269:2320   */\n      mstore\n        /* \"#utility.yul\":2242:2260   */\n      0x24\n      add\n        /* \"@openzeppelin/contracts/access/Ownable.sol\":2672:2703  OwnableInvalidOwner(address(0)) */\n      tag_127\n        /* \"#utility.yul\":2096:2326   */\n      jump\n        /* \"@openzeppelin/contracts/access/Ownable.sol\":2623:2714  if (newOwner == address(0)) {... */\n    tag_211:\n        /* \"@openzeppelin/contracts/access/Ownable.sol\":2723:2751  _transferOwnership(newOwner) */\n      tag_197\n        /* \"@openzeppelin/contracts/access/Ownable.sol\":2742:2750  newOwner */\n      dup2\n        /* \"@openzeppelin/contracts/access/Ownable.sol\":2723:2741  _transferOwnership */\n      tag_183\n        /* \"@openzeppelin/contracts/access/Ownable.sol\":2723:2751  _transferOwnership(newOwner) */\n      jump\t// in\n        /* \"contracts/BitcoinNetflowContract.sol\":489:530  DataTypes.AlertConfig public netflowAlert */\n    tag_74:\n      0x05\n      dup1\n      sload\n      sload(0x06)\n      sload(0x07)\n      sload(0x08)\n      sload(0x09)\n      sload(0x0a)\n      0x0b\n      dup1\n      sload\n      swap7\n      swap8\n      sub(shl(0xa0, 0x01), 0x01)\n      dup8\n      and\n      swap8\n      0xff\n      shl(0xa0, 0x01)\n      swap1\n      swap9\n      div\n      dup9\n      and\n      swap8\n      dup6\n      dup2\n      and\n      swap6\n      0x0100\n      swap1\n      div\n      and\n      swap4\n      swap3\n      swap1\n      tag_217\n      swap1\n      tag_218\n      jump\t// in\n    tag_217:\n      dup1\n      0x1f\n      add\n      0x20\n      dup1\n      swap2\n      div\n      mul\n      0x20\n      add\n      mload(0x40)\n      swap1\n      dup2\n      add\n      0x40\n      mstore\n      dup1\n      swap3\n      swap2\n      swap1\n      dup2\n      dup2\n      mstore\n      0x20\n      add\n      dup3\n      dup1\n      sload\n      tag_219\n      swap1\n      tag_218\n      jump\t// in\n    tag_219:\n      dup1\n      iszero\n      tag_220\n      jumpi\n      dup1\n      0x1f\n      lt\n      tag_221\n      jumpi\n      0x0100\n      dup1\n      dup4\n      sload\n      div\n      mul\n      dup4\n      mstore\n      swap2\n      0x20\n      add\n      swap2\n      jump(tag_220)\n    tag_221:\n      dup3\n      add\n      swap2\n      swap1\n      0x00\n      mstore\n      keccak256(0x00, 0x20)\n      swap1\n    tag_222:\n      dup2\n      sload\n      dup2\n      mstore\n      swap1\n      0x01\n      add\n      swap1\n      0x20\n      add\n      dup1\n      dup4\n      gt\n      tag_222\n      jumpi\n      dup3\n      swap1\n      sub\n      0x1f\n      and\n      dup3\n      add\n      swap2\n    tag_220:\n      pop\n      pop\n      pop\n      pop\n      pop\n      swap1\n      pop\n      dup10\n      jump\t// out\n        /* \"@openzeppelin/contracts/access/Ownable.sol\":1796:1958  function _checkOwner() internal view virtual {... */\n    tag_79:\n        /* \"@openzeppelin/contracts/access/Ownable.sol\":1684:1691  address */\n      0x00\n        /* \"@openzeppelin/contracts/access/Ownable.sol\":1710:1716  _owner */\n      sload\n      sub(shl(0xa0, 0x01), 0x01)\n      and\n        /* \"@openzeppelin/contracts/utils/Context.sol\":735:745  msg.sender */\n      caller\n        /* \"@openzeppelin/contracts/access/Ownable.sol\":1855:1878  owner() != _msgSender() */\n      eq\n        /* \"@openzeppelin/contracts/access/Ownable.sol\":1851:1952  if (owner() != _msgSender()) {... */\n      tag_82\n      jumpi\n        /* \"@openzeppelin/contracts/access/Ownable.sol\":1901:1941  OwnableUnauthorizedAccount(_msgSender()) */\n      mload(0x40)\n      shl(0xe0, 0x118cdaa7)\n      dup2\n      mstore\n        /* \"@openzeppelin/contracts/utils/Context.sol\":735:745  msg.sender */\n      caller\n        /* \"@openzeppelin/contracts/access/Ownable.sol\":1901:1941  OwnableUnauthorizedAccount(_msgSender()) */\n      0x04\n      dup3\n      add\n        /* \"#utility.yul\":2269:2320   */\n      mstore\n        /* \"#utility.yul\":2242:2260   */\n      0x24\n      add\n        /* \"@openzeppelin/contracts/access/Ownable.sol\":1901:1941  OwnableUnauthorizedAccount(_msgSender()) */\n      tag_127\n        /* \"#utility.yul\":2096:2326   */\n      jump\n        /* \"@openzeppelin/contracts/access/Ownable.sol\":2912:3099  function _transferOwnership(address newOwner) internal virtual {... */\n    tag_183:\n        /* \"@openzeppelin/contracts/access/Ownable.sol\":2985:3001  address oldOwner */\n      0x00\n        /* \"@openzeppelin/contracts/access/Ownable.sol\":3004:3010  _owner */\n      dup1\n      sload\n      sub(shl(0xa0, 0x01), 0x01)\n        /* \"@openzeppelin/contracts/access/Ownable.sol\":3020:3037  _owner = newOwner */\n      dup4\n      dup2\n      and\n      not(sub(shl(0xa0, 0x01), 0x01))\n      dup4\n      and\n      dup2\n      or\n      dup5\n      sstore\n        /* \"@openzeppelin/contracts/access/Ownable.sol\":3052:3092  OwnershipTransferred(oldOwner, newOwner) */\n      mload(0x40)\n        /* \"@openzeppelin/contracts/access/Ownable.sol\":3004:3010  _owner */\n      swap2\n      swap1\n      swap3\n      and\n      swap3\n      dup4\n      swap2\n        /* \"@openzeppelin/contracts/access/Ownable.sol\":3052:3092  OwnershipTransferred(oldOwner, newOwner) */\n      0x8be0079c531659141344cd1fd0a4f28419497f9722a3daafe3b4186f6b6457e0\n      swap2\n        /* \"@openzeppelin/contracts/access/Ownable.sol\":2985:3001  address oldOwner */\n      swap1\n        /* \"@openzeppelin/contracts/access/Ownable.sol\":3052:3092  OwnershipTransferred(oldOwner, newOwner) */\n      log3\n        /* \"@openzeppelin/contracts/access/Ownable.sol\":2975:3099  {... */\n      pop\n        /* \"@openzeppelin/contracts/access/Ownable.sol\":2912:3099  function _transferOwnership(address newOwner) internal virtual {... */\n      pop\n      jump\t// out\n        /* \"contracts/BitcoinNetflowContract.sol\":4923:8380  function checkAndTriggerAlert(int256 _currentValue, int256 _previousValue, bool _hasPreviousValue) internal {... */\n    tag_198:\n        /* \"contracts/BitcoinNetflowContract.sol\":5047:5068  netflowAlert.isActive */\n      and(0xff, sload(0x09))\n        /* \"contracts/BitcoinNetflowContract.sol\":5046:5068  !netflowAlert.isActive */\n      iszero\n      dup1\n        /* \"contracts/BitcoinNetflowContract.sol\":5046:5096  !netflowAlert.isActive || netflowAlert.isTriggered */\n      tag_232\n      jumpi\n      pop\n        /* \"contracts/BitcoinNetflowContract.sol\":5072:5096  netflowAlert.isTriggered */\n      sload(0x09)\n      0x0100\n      swap1\n      div\n      0xff\n      and\n        /* \"contracts/BitcoinNetflowContract.sol\":5046:5096  !netflowAlert.isActive || netflowAlert.isTriggered */\n    tag_232:\n        /* \"contracts/BitcoinNetflowContract.sol\":5046:5120  !netflowAlert.isActive || netflowAlert.isTriggered || netflowAlert.id == 0 */\n      dup1\n      tag_233\n      jumpi\n      pop\n        /* \"contracts/BitcoinNetflowContract.sol\":5100:5112  netflowAlert */\n      0x05\n        /* \"contracts/BitcoinNetflowContract.sol\":5100:5115  netflowAlert.id */\n      sload\n        /* \"contracts/BitcoinNetflowContract.sol\":5100:5120  netflowAlert.id == 0 */\n      iszero\n        /* \"contracts/BitcoinNetflowContract.sol\":5046:5120  !netflowAlert.isActive || netflowAlert.isTriggered || netflowAlert.id == 0 */\n    tag_233:\n        /* \"contracts/BitcoinNetflowContract.sol\":5042:5129  if (!netflowAlert.isActive || netflowAlert.isTriggered || netflowAlert.id == 0) return; */\n      iszero\n      tag_234\n      jumpi\n        /* \"contracts/BitcoinNetflowContract.sol\":4923:8380  function checkAndTriggerAlert(int256 _currentValue, int256 _previousValue, bool _hasPreviousValue) internal {... */\n      pop\n      pop\n      pop\n      jump\t// out\n        /* \"contracts/BitcoinNetflowContract.sol\":5042:5129  if (!netflowAlert.isActive || netflowAlert.isTriggered || netflowAlert.id == 0) return; */\n    tag_234:\n        /* \"contracts/BitcoinNetflowContract.sol\":5211:5233  netflowAlert.condition */\n      sload(0x06)\n        /* \"contracts/BitcoinNetflowContract.sol\":5264:5287  netflowAlert.threshold1 */\n      sload(0x07)\n        /* \"contracts/BitcoinNetflowContract.sol\":5386:5409  netflowAlert.threshold2 */\n      sload(0x08)\n        /* \"contracts/BitcoinNetflowContract.sol\":5141:5155  bool triggered */\n      0x00\n      swap3\n      shl(0xa0, 0x01)\n        /* \"contracts/BitcoinNetflowContract.sol\":5211:5233  netflowAlert.condition */\n      swap1\n      div\n      0xff\n      and\n      swap2\n        /* \"contracts/BitcoinNetflowContract.sol\":5264:5287  netflowAlert.threshold1 */\n      swap1\n      dup2\n      swap1\n        /* \"contracts/BitcoinNetflowContract.sol\":5211:5233  netflowAlert.condition */\n      0x01\n        /* \"contracts/BitcoinNetflowContract.sol\":5426:5435  condition */\n      dup5\n        /* \"contracts/BitcoinNetflowContract.sol\":5426:5476  condition == DataTypes.AlertCondition.GREATER_THAN */\n      0x0c\n      dup2\n      gt\n      iszero\n      tag_238\n      jumpi\n      tag_238\n      tag_88\n      jump\t// in\n    tag_238:\n      sub\n        /* \"contracts/BitcoinNetflowContract.sol\":5422:7948  if (condition == DataTypes.AlertCondition.GREATER_THAN) {... */\n      tag_239\n      jumpi\n        /* \"contracts/BitcoinNetflowContract.sol\":5513:5523  threshold1 */\n      dup3\n        /* \"contracts/BitcoinNetflowContract.sol\":5497:5510  _currentValue */\n      dup9\n        /* \"contracts/BitcoinNetflowContract.sol\":5497:5523  _currentValue > threshold1 */\n      sgt\n        /* \"contracts/BitcoinNetflowContract.sol\":5493:5541  if (_currentValue > threshold1) triggered = true */\n      iszero\n      tag_240\n      jumpi\n        /* \"contracts/BitcoinNetflowContract.sol\":5537:5541  true */\n      0x01\n        /* \"contracts/BitcoinNetflowContract.sol\":5525:5541  triggered = true */\n      swap5\n      pop\n        /* \"contracts/BitcoinNetflowContract.sol\":5493:5541  if (_currentValue > threshold1) triggered = true */\n    tag_240:\n        /* \"contracts/BitcoinNetflowContract.sol\":5422:7948  if (condition == DataTypes.AlertCondition.GREATER_THAN) {... */\n      jump(tag_331)\n    tag_239:\n        /* \"contracts/BitcoinNetflowContract.sol\":5576:5610  DataTypes.AlertCondition.LESS_THAN */\n      0x02\n        /* \"contracts/BitcoinNetflowContract.sol\":5563:5572  condition */\n      dup5\n        /* \"contracts/BitcoinNetflowContract.sol\":5563:5610  condition == DataTypes.AlertCondition.LESS_THAN */\n      0x0c\n      dup2\n      gt\n      iszero\n      tag_245\n      jumpi\n      tag_245\n      tag_88\n      jump\t// in\n    tag_245:\n      sub\n        /* \"contracts/BitcoinNetflowContract.sol\":5559:7948  if (condition == DataTypes.AlertCondition.LESS_THAN) {... */\n      tag_246\n      jumpi\n        /* \"contracts/BitcoinNetflowContract.sol\":5647:5657  threshold1 */\n      dup3\n        /* \"contracts/BitcoinNetflowContract.sol\":5631:5644  _currentValue */\n      dup9\n        /* \"contracts/BitcoinNetflowContract.sol\":5631:5657  _currentValue < threshold1 */\n      slt\n        /* \"contracts/BitcoinNetflowContract.sol\":5627:5675  if (_currentValue < threshold1) triggered = true */\n      iszero\n      tag_240\n      jumpi\n        /* \"contracts/BitcoinNetflowContract.sol\":5671:5675  true */\n      0x01\n        /* \"contracts/BitcoinNetflowContract.sol\":5659:5675  triggered = true */\n      swap5\n      pop\n        /* \"contracts/BitcoinNetflowContract.sol\":5559:7948  if (condition == DataTypes.AlertCondition.LESS_THAN) {... */\n      jump(tag_331)\n    tag_246:\n        /* \"contracts/BitcoinNetflowContract.sol\":5710:5743  DataTypes.AlertCondition.EQUAL_TO */\n      0x03\n        /* \"contracts/BitcoinNetflowContract.sol\":5697:5706  condition */\n      dup5\n        /* \"contracts/BitcoinNetflowContract.sol\":5697:5743  condition == DataTypes.AlertCondition.EQUAL_TO */\n      0x0c\n      dup2\n      gt\n      iszero\n      tag_252\n      jumpi\n      tag_252\n      tag_88\n      jump\t// in\n    tag_252:\n      sub\n        /* \"contracts/BitcoinNetflowContract.sol\":5693:7948  if (condition == DataTypes.AlertCondition.EQUAL_TO) {... */\n      tag_253\n      jumpi\n        /* \"contracts/BitcoinNetflowContract.sol\":5781:5791  threshold1 */\n      dup3\n        /* \"contracts/BitcoinNetflowContract.sol\":5764:5777  _currentValue */\n      dup9\n        /* \"contracts/BitcoinNetflowContract.sol\":5764:5791  _currentValue == threshold1 */\n      sub\n        /* \"contracts/BitcoinNetflowContract.sol\":5760:5809  if (_currentValue == threshold1) triggered = true */\n      tag_240\n      jumpi\n        /* \"contracts/BitcoinNetflowContract.sol\":5805:5809  true */\n      0x01\n        /* \"contracts/BitcoinNetflowContract.sol\":5793:5809  triggered = true */\n      swap5\n      pop\n        /* \"contracts/BitcoinNetflowContract.sol\":5693:7948  if (condition == DataTypes.AlertCondition.EQUAL_TO) {... */\n      jump(tag_331)\n    tag_253:\n        /* \"contracts/BitcoinNetflowContract.sol\":5831:5848  _hasPreviousValue */\n      dup6\n        /* \"contracts/BitcoinNetflowContract.sol\":5827:7948  if (_hasPreviousValue) {... */\n      iszero\n      tag_331\n      jumpi\n        /* \"contracts/BitcoinNetflowContract.sol\":5882:5915  DataTypes.AlertCondition.CROSSING */\n      0x04\n        /* \"contracts/BitcoinNetflowContract.sol\":5869:5878  condition */\n      dup5\n        /* \"contracts/BitcoinNetflowContract.sol\":5869:5915  condition == DataTypes.AlertCondition.CROSSING */\n      0x0c\n      dup2\n      gt\n      iszero\n      tag_260\n      jumpi\n      tag_260\n      tag_88\n      jump\t// in\n    tag_260:\n      sub\n        /* \"contracts/BitcoinNetflowContract.sol\":5865:7937  if (condition == DataTypes.AlertCondition.CROSSING) {... */\n      tag_261\n      jumpi\n        /* \"contracts/BitcoinNetflowContract.sol\":5958:5968  threshold1 */\n      dup3\n        /* \"contracts/BitcoinNetflowContract.sol\":5941:5955  _previousValue */\n      dup8\n        /* \"contracts/BitcoinNetflowContract.sol\":5941:5968  _previousValue < threshold1 */\n      slt\n        /* \"contracts/BitcoinNetflowContract.sol\":5941:5999  _previousValue < threshold1 && _currentValue >= threshold1 */\n      dup1\n      iszero\n      tag_262\n      jumpi\n      pop\n        /* \"contracts/BitcoinNetflowContract.sol\":5989:5999  threshold1 */\n      dup3\n        /* \"contracts/BitcoinNetflowContract.sol\":5972:5985  _currentValue */\n      dup9\n        /* \"contracts/BitcoinNetflowContract.sol\":5972:5999  _currentValue >= threshold1 */\n      slt\n      iszero\n        /* \"contracts/BitcoinNetflowContract.sol\":5941:5999  _previousValue < threshold1 && _currentValue >= threshold1 */\n    tag_262:\n        /* \"contracts/BitcoinNetflowContract.sol\":5940:6085  (_previousValue < threshold1 && _currentValue >= threshold1) ||... */\n      dup1\n      tag_264\n      jumpi\n      pop\n        /* \"contracts/BitcoinNetflowContract.sol\":6043:6053  threshold1 */\n      dup3\n        /* \"contracts/BitcoinNetflowContract.sol\":6026:6040  _previousValue */\n      dup8\n        /* \"contracts/BitcoinNetflowContract.sol\":6026:6053  _previousValue > threshold1 */\n      sgt\n        /* \"contracts/BitcoinNetflowContract.sol\":6026:6084  _previousValue > threshold1 && _currentValue <= threshold1 */\n      dup1\n      iszero\n      tag_264\n      jumpi\n      pop\n        /* \"contracts/BitcoinNetflowContract.sol\":6074:6084  threshold1 */\n      dup3\n        /* \"contracts/BitcoinNetflowContract.sol\":6057:6070  _currentValue */\n      dup9\n        /* \"contracts/BitcoinNetflowContract.sol\":6057:6084  _currentValue <= threshold1 */\n      sgt\n      iszero\n        /* \"contracts/BitcoinNetflowContract.sol\":6026:6084  _previousValue > threshold1 && _currentValue <= threshold1 */\n    tag_264:\n        /* \"contracts/BitcoinNetflowContract.sol\":5936:6103  if ((_previousValue < threshold1 && _currentValue >= threshold1) ||... */\n      iszero\n      tag_240\n      jumpi\n        /* \"contracts/BitcoinNetflowContract.sol\":6099:6103  true */\n      0x01\n        /* \"contracts/BitcoinNetflowContract.sol\":6087:6103  triggered = true */\n      swap5\n      pop\n        /* \"contracts/BitcoinNetflowContract.sol\":5865:7937  if (condition == DataTypes.AlertCondition.CROSSING) {... */\n      jump(tag_331)\n    tag_261:\n        /* \"contracts/BitcoinNetflowContract.sol\":6142:6178  DataTypes.AlertCondition.CROSSING_UP */\n      0x05\n        /* \"contracts/BitcoinNetflowContract.sol\":6129:6138  condition */\n      dup5\n        /* \"contracts/BitcoinNetflowContract.sol\":6129:6178  condition == DataTypes.AlertCondition.CROSSING_UP */\n      0x0c\n      dup2\n      gt\n      iszero\n      tag_270\n      jumpi\n      tag_270\n      tag_88\n      jump\t// in\n    tag_270:\n      sub\n        /* \"contracts/BitcoinNetflowContract.sol\":6125:7937  if (condition == DataTypes.AlertCondition.CROSSING_UP) {... */\n      tag_271\n      jumpi\n        /* \"contracts/BitcoinNetflowContract.sol\":6220:6230  threshold1 */\n      dup3\n        /* \"contracts/BitcoinNetflowContract.sol\":6203:6217  _previousValue */\n      dup8\n        /* \"contracts/BitcoinNetflowContract.sol\":6203:6230  _previousValue < threshold1 */\n      slt\n        /* \"contracts/BitcoinNetflowContract.sol\":6203:6261  _previousValue < threshold1 && _currentValue >= threshold1 */\n      dup1\n      iszero\n      tag_264\n      jumpi\n      pop\n        /* \"contracts/BitcoinNetflowContract.sol\":6251:6261  threshold1 */\n      dup3\n        /* \"contracts/BitcoinNetflowContract.sol\":6234:6247  _currentValue */\n      dup9\n        /* \"contracts/BitcoinNetflowContract.sol\":6234:6261  _currentValue >= threshold1 */\n      slt\n        /* \"contracts/BitcoinNetflowContract.sol\":6199:6279  if (_previousValue < threshold1 && _currentValue >= threshold1) triggered = true */\n      tag_240\n      jumpi\n        /* \"contracts/BitcoinNetflowContract.sol\":6275:6279  true */\n      0x01\n        /* \"contracts/BitcoinNetflowContract.sol\":6263:6279  triggered = true */\n      swap5\n      pop\n        /* \"contracts/BitcoinNetflowContract.sol\":6125:7937  if (condition == DataTypes.AlertCondition.CROSSING_UP) {... */\n      jump(tag_331)\n    tag_271:\n        /* \"contracts/BitcoinNetflowContract.sol\":6318:6356  DataTypes.AlertCondition.CROSSING_DOWN */\n      0x06\n        /* \"contracts/BitcoinNetflowContract.sol\":6305:6314  condition */\n      dup5\n        /* \"contracts/BitcoinNetflowContract.sol\":6305:6356  condition == DataTypes.AlertCondition.CROSSING_DOWN */\n      0x0c\n      dup2\n      gt\n      iszero\n      tag_278\n      jumpi\n      tag_278\n      tag_88\n      jump\t// in\n    tag_278:\n      sub\n        /* \"contracts/BitcoinNetflowContract.sol\":6301:7937  if (condition == DataTypes.AlertCondition.CROSSING_DOWN) {... */\n      tag_279\n      jumpi\n        /* \"contracts/BitcoinNetflowContract.sol\":6398:6408  threshold1 */\n      dup3\n        /* \"contracts/BitcoinNetflowContract.sol\":6381:6395  _previousValue */\n      dup8\n        /* \"contracts/BitcoinNetflowContract.sol\":6381:6408  _previousValue > threshold1 */\n      sgt\n        /* \"contracts/BitcoinNetflowContract.sol\":6381:6439  _previousValue > threshold1 && _currentValue <= threshold1 */\n      dup1\n      iszero\n      tag_264\n      jumpi\n      pop\n        /* \"contracts/BitcoinNetflowContract.sol\":6429:6439  threshold1 */\n      dup3\n        /* \"contracts/BitcoinNetflowContract.sol\":6412:6425  _currentValue */\n      dup9\n        /* \"contracts/BitcoinNetflowContract.sol\":6412:6439  _currentValue <= threshold1 */\n      sgt\n        /* \"contracts/BitcoinNetflowContract.sol\":6377:6457  if (_previousValue > threshold1 && _currentValue <= threshold1) triggered = true */\n      tag_240\n      jumpi\n        /* \"contracts/BitcoinNetflowContract.sol\":6453:6457  true */\n      0x01\n        /* \"contracts/BitcoinNetflowContract.sol\":6441:6457  triggered = true */\n      swap5\n      pop\n        /* \"contracts/BitcoinNetflowContract.sol\":6301:7937  if (condition == DataTypes.AlertCondition.CROSSING_DOWN) {... */\n      jump(tag_331)\n    tag_279:\n        /* \"contracts/BitcoinNetflowContract.sol\":6496:6537  DataTypes.AlertCondition.ENTERING_CHANNEL */\n      0x07\n        /* \"contracts/BitcoinNetflowContract.sol\":6483:6492  condition */\n      dup5\n        /* \"contracts/BitcoinNetflowContract.sol\":6483:6537  condition == DataTypes.AlertCondition.ENTERING_CHANNEL */\n      0x0c\n      dup2\n      gt\n      iszero\n      tag_286\n      jumpi\n      tag_286\n      tag_88\n      jump\t// in\n    tag_286:\n      sub\n        /* \"contracts/BitcoinNetflowContract.sol\":6479:7937  if (condition == DataTypes.AlertCondition.ENTERING_CHANNEL) {... */\n      tag_287\n      jumpi\n        /* \"contracts/BitcoinNetflowContract.sol\":6558:6580  bool previouslyOutside */\n      0x00\n        /* \"contracts/BitcoinNetflowContract.sol\":6601:6618  lowerChannelBound */\n      dup3\n        /* \"contracts/BitcoinNetflowContract.sol\":6584:6598  _previousValue */\n      dup9\n        /* \"contracts/BitcoinNetflowContract.sol\":6584:6618  _previousValue < lowerChannelBound */\n      slt\n        /* \"contracts/BitcoinNetflowContract.sol\":6584:6656  _previousValue < lowerChannelBound || _previousValue > upperChannelBound */\n      dup1\n      tag_288\n      jumpi\n      pop\n        /* \"contracts/BitcoinNetflowContract.sol\":6639:6656  upperChannelBound */\n      dup2\n        /* \"contracts/BitcoinNetflowContract.sol\":6622:6636  _previousValue */\n      dup9\n        /* \"contracts/BitcoinNetflowContract.sol\":6622:6656  _previousValue > upperChannelBound */\n      sgt\n        /* \"contracts/BitcoinNetflowContract.sol\":6584:6656  _previousValue < lowerChannelBound || _previousValue > upperChannelBound */\n    tag_288:\n        /* \"contracts/BitcoinNetflowContract.sol\":6558:6657  bool previouslyOutside = (_previousValue < lowerChannelBound || _previousValue > upperChannelBound) */\n      swap1\n      pop\n        /* \"contracts/BitcoinNetflowContract.sol\":6676:6696  bool currentlyInside */\n      0x00\n        /* \"contracts/BitcoinNetflowContract.sol\":6717:6734  lowerChannelBound */\n      dup4\n        /* \"contracts/BitcoinNetflowContract.sol\":6700:6713  _currentValue */\n      dup11\n        /* \"contracts/BitcoinNetflowContract.sol\":6700:6734  _currentValue >= lowerChannelBound */\n      slt\n      iszero\n        /* \"contracts/BitcoinNetflowContract.sol\":6700:6772  _currentValue >= lowerChannelBound && _currentValue <= upperChannelBound */\n      dup1\n      iszero\n      tag_289\n      jumpi\n      pop\n        /* \"contracts/BitcoinNetflowContract.sol\":6755:6772  upperChannelBound */\n      dup3\n        /* \"contracts/BitcoinNetflowContract.sol\":6738:6751  _currentValue */\n      dup11\n        /* \"contracts/BitcoinNetflowContract.sol\":6738:6772  _currentValue <= upperChannelBound */\n      sgt\n      iszero\n        /* \"contracts/BitcoinNetflowContract.sol\":6700:6772  _currentValue >= lowerChannelBound && _currentValue <= upperChannelBound */\n    tag_289:\n        /* \"contracts/BitcoinNetflowContract.sol\":6676:6773  bool currentlyInside = (_currentValue >= lowerChannelBound && _currentValue <= upperChannelBound) */\n      swap1\n      pop\n        /* \"contracts/BitcoinNetflowContract.sol\":6796:6813  previouslyOutside */\n      dup2\n        /* \"contracts/BitcoinNetflowContract.sol\":6796:6832  previouslyOutside && currentlyInside */\n      dup1\n      iszero\n      tag_290\n      jumpi\n      pop\n        /* \"contracts/BitcoinNetflowContract.sol\":6817:6832  currentlyInside */\n      dup1\n        /* \"contracts/BitcoinNetflowContract.sol\":6796:6832  previouslyOutside && currentlyInside */\n    tag_290:\n        /* \"contracts/BitcoinNetflowContract.sol\":6792:6850  if (previouslyOutside && currentlyInside) triggered = true */\n      iszero\n      tag_291\n      jumpi\n        /* \"contracts/BitcoinNetflowContract.sol\":6846:6850  true */\n      0x01\n        /* \"contracts/BitcoinNetflowContract.sol\":6834:6850  triggered = true */\n      swap7\n      pop\n        /* \"contracts/BitcoinNetflowContract.sol\":6792:6850  if (previouslyOutside && currentlyInside) triggered = true */\n    tag_291:\n        /* \"contracts/BitcoinNetflowContract.sol\":6539:6866  {... */\n      pop\n      pop\n        /* \"contracts/BitcoinNetflowContract.sol\":6479:7937  if (condition == DataTypes.AlertCondition.ENTERING_CHANNEL) {... */\n      jump(tag_331)\n    tag_287:\n        /* \"contracts/BitcoinNetflowContract.sol\":6889:6929  DataTypes.AlertCondition.EXITING_CHANNEL */\n      0x08\n        /* \"contracts/BitcoinNetflowContract.sol\":6876:6885  condition */\n      dup5\n        /* \"contracts/BitcoinNetflowContract.sol\":6876:6929  condition == DataTypes.AlertCondition.EXITING_CHANNEL */\n      0x0c\n      dup2\n      gt\n      iszero\n      tag_296\n      jumpi\n      tag_296\n      tag_88\n      jump\t// in\n    tag_296:\n      sub\n        /* \"contracts/BitcoinNetflowContract.sol\":6872:7937  if (condition == DataTypes.AlertCondition.EXITING_CHANNEL) {... */\n      tag_297\n      jumpi\n        /* \"contracts/BitcoinNetflowContract.sol\":6950:6971  bool previouslyInside */\n      0x00\n        /* \"contracts/BitcoinNetflowContract.sol\":6993:7010  lowerChannelBound */\n      dup3\n        /* \"contracts/BitcoinNetflowContract.sol\":6975:6989  _previousValue */\n      dup9\n        /* \"contracts/BitcoinNetflowContract.sol\":6975:7010  _previousValue >= lowerChannelBound */\n      slt\n      iszero\n        /* \"contracts/BitcoinNetflowContract.sol\":6975:7049  _previousValue >= lowerChannelBound && _previousValue <= upperChannelBound */\n      dup1\n      iszero\n      tag_298\n      jumpi\n      pop\n        /* \"contracts/BitcoinNetflowContract.sol\":7032:7049  upperChannelBound */\n      dup2\n        /* \"contracts/BitcoinNetflowContract.sol\":7014:7028  _previousValue */\n      dup9\n        /* \"contracts/BitcoinNetflowContract.sol\":7014:7049  _previousValue <= upperChannelBound */\n      sgt\n      iszero\n        /* \"contracts/BitcoinNetflowContract.sol\":6975:7049  _previousValue >= lowerChannelBound && _previousValue <= upperChannelBound */\n    tag_298:\n        /* \"contracts/BitcoinNetflowContract.sol\":6950:7050  bool previouslyInside = (_previousValue >= lowerChannelBound && _previousValue <= upperChannelBound) */\n      swap1\n      pop\n        /* \"contracts/BitcoinNetflowContract.sol\":7069:7090  bool currentlyOutside */\n      0x00\n        /* \"contracts/BitcoinNetflowContract.sol\":7110:7127  lowerChannelBound */\n      dup4\n        /* \"contracts/BitcoinNetflowContract.sol\":7094:7107  _currentValue */\n      dup11\n        /* \"contracts/BitcoinNetflowContract.sol\":7094:7127  _currentValue < lowerChannelBound */\n      slt\n        /* \"contracts/BitcoinNetflowContract.sol\":7094:7164  _currentValue < lowerChannelBound || _currentValue > upperChannelBound */\n      dup1\n      tag_289\n      jumpi\n      pop\n      pop\n        /* \"contracts/BitcoinNetflowContract.sol\":7131:7164  _currentValue > upperChannelBound */\n      dup2\n      dup10\n      sgt\n        /* \"contracts/BitcoinNetflowContract.sol\":7188:7204  previouslyInside */\n      dup2\n        /* \"contracts/BitcoinNetflowContract.sol\":7188:7224  previouslyInside && currentlyOutside */\n      dup1\n      iszero\n      tag_290\n      jumpi\n      pop\n        /* \"contracts/BitcoinNetflowContract.sol\":7208:7224  currentlyOutside */\n      dup1\n        /* \"contracts/BitcoinNetflowContract.sol\":7184:7242  if (previouslyInside && currentlyOutside) triggered = true */\n      iszero\n      tag_291\n      jumpi\n        /* \"contracts/BitcoinNetflowContract.sol\":7238:7242  true */\n      0x01\n        /* \"contracts/BitcoinNetflowContract.sol\":7226:7242  triggered = true */\n      swap7\n      pop\n        /* \"contracts/BitcoinNetflowContract.sol\":6931:7258  {... */\n      pop\n      pop\n        /* \"contracts/BitcoinNetflowContract.sol\":6872:7937  if (condition == DataTypes.AlertCondition.EXITING_CHANNEL) {... */\n      jump(tag_331)\n    tag_297:\n        /* \"contracts/BitcoinNetflowContract.sol\":7281:7320  DataTypes.AlertCondition.INSIDE_CHANNEL */\n      0x09\n        /* \"contracts/BitcoinNetflowContract.sol\":7268:7277  condition */\n      dup5\n        /* \"contracts/BitcoinNetflowContract.sol\":7268:7320  condition == DataTypes.AlertCondition.INSIDE_CHANNEL */\n      0x0c\n      dup2\n      gt\n      iszero\n      tag_306\n      jumpi\n      tag_306\n      tag_88\n      jump\t// in\n    tag_306:\n      sub\n        /* \"contracts/BitcoinNetflowContract.sol\":7264:7937  if (condition == DataTypes.AlertCondition.INSIDE_CHANNEL) {... */\n      tag_307\n      jumpi\n        /* \"contracts/BitcoinNetflowContract.sol\":7362:7379  lowerChannelBound */\n      dup2\n        /* \"contracts/BitcoinNetflowContract.sol\":7345:7358  _currentValue */\n      dup9\n        /* \"contracts/BitcoinNetflowContract.sol\":7345:7379  _currentValue >= lowerChannelBound */\n      slt\n      iszero\n        /* \"contracts/BitcoinNetflowContract.sol\":7345:7417  _currentValue >= lowerChannelBound && _currentValue <= upperChannelBound */\n      dup1\n      iszero\n      tag_264\n      jumpi\n      pop\n        /* \"contracts/BitcoinNetflowContract.sol\":7400:7417  upperChannelBound */\n      dup1\n        /* \"contracts/BitcoinNetflowContract.sol\":7383:7396  _currentValue */\n      dup9\n        /* \"contracts/BitcoinNetflowContract.sol\":7383:7417  _currentValue <= upperChannelBound */\n      sgt\n        /* \"contracts/BitcoinNetflowContract.sol\":7341:7435  if (_currentValue >= lowerChannelBound && _currentValue <= upperChannelBound) triggered = true */\n      tag_240\n      jumpi\n        /* \"contracts/BitcoinNetflowContract.sol\":7431:7435  true */\n      0x01\n        /* \"contracts/BitcoinNetflowContract.sol\":7419:7435  triggered = true */\n      swap5\n      pop\n        /* \"contracts/BitcoinNetflowContract.sol\":7264:7937  if (condition == DataTypes.AlertCondition.INSIDE_CHANNEL) {... */\n      jump(tag_331)\n    tag_307:\n        /* \"contracts/BitcoinNetflowContract.sol\":7474:7514  DataTypes.AlertCondition.OUTSIDE_CHANNEL */\n      0x0a\n        /* \"contracts/BitcoinNetflowContract.sol\":7461:7470  condition */\n      dup5\n        /* \"contracts/BitcoinNetflowContract.sol\":7461:7514  condition == DataTypes.AlertCondition.OUTSIDE_CHANNEL */\n      0x0c\n      dup2\n      gt\n      iszero\n      tag_314\n      jumpi\n      tag_314\n      tag_88\n      jump\t// in\n    tag_314:\n      sub\n        /* \"contracts/BitcoinNetflowContract.sol\":7457:7937  if (condition == DataTypes.AlertCondition.OUTSIDE_CHANNEL) {... */\n      tag_315\n      jumpi\n        /* \"contracts/BitcoinNetflowContract.sol\":7555:7572  lowerChannelBound */\n      dup2\n        /* \"contracts/BitcoinNetflowContract.sol\":7539:7552  _currentValue */\n      dup9\n        /* \"contracts/BitcoinNetflowContract.sol\":7539:7572  _currentValue < lowerChannelBound */\n      slt\n        /* \"contracts/BitcoinNetflowContract.sol\":7539:7609  _currentValue < lowerChannelBound || _currentValue > upperChannelBound */\n      dup1\n      tag_264\n      jumpi\n      pop\n        /* \"contracts/BitcoinNetflowContract.sol\":7592:7609  upperChannelBound */\n      dup1\n        /* \"contracts/BitcoinNetflowContract.sol\":7576:7589  _currentValue */\n      dup9\n        /* \"contracts/BitcoinNetflowContract.sol\":7576:7609  _currentValue > upperChannelBound */\n      sgt\n        /* \"contracts/BitcoinNetflowContract.sol\":7535:7627  if (_currentValue < lowerChannelBound || _currentValue > upperChannelBound) triggered = true */\n      iszero\n      tag_240\n      jumpi\n        /* \"contracts/BitcoinNetflowContract.sol\":7623:7627  true */\n      0x01\n        /* \"contracts/BitcoinNetflowContract.sol\":7611:7627  triggered = true */\n      swap5\n      pop\n        /* \"contracts/BitcoinNetflowContract.sol\":7457:7937  if (condition == DataTypes.AlertCondition.OUTSIDE_CHANNEL) {... */\n      jump(tag_331)\n    tag_315:\n        /* \"contracts/BitcoinNetflowContract.sol\":7666:7700  DataTypes.AlertCondition.MOVING_UP */\n      0x0b\n        /* \"contracts/BitcoinNetflowContract.sol\":7653:7662  condition */\n      dup5\n        /* \"contracts/BitcoinNetflowContract.sol\":7653:7700  condition == DataTypes.AlertCondition.MOVING_UP */\n      0x0c\n      dup2\n      gt\n      iszero\n      tag_322\n      jumpi\n      tag_322\n      tag_88\n      jump\t// in\n    tag_322:\n      sub\n        /* \"contracts/BitcoinNetflowContract.sol\":7649:7937  if (condition == DataTypes.AlertCondition.MOVING_UP) {... */\n      tag_323\n      jumpi\n        /* \"contracts/BitcoinNetflowContract.sol\":7741:7755  _previousValue */\n      dup7\n        /* \"contracts/BitcoinNetflowContract.sol\":7725:7738  _currentValue */\n      dup9\n        /* \"contracts/BitcoinNetflowContract.sol\":7725:7755  _currentValue > _previousValue */\n      sgt\n        /* \"contracts/BitcoinNetflowContract.sol\":7721:7773  if (_currentValue > _previousValue) triggered = true */\n      iszero\n      tag_240\n      jumpi\n        /* \"contracts/BitcoinNetflowContract.sol\":7769:7773  true */\n      0x01\n        /* \"contracts/BitcoinNetflowContract.sol\":7757:7773  triggered = true */\n      swap5\n      pop\n        /* \"contracts/BitcoinNetflowContract.sol\":7649:7937  if (condition == DataTypes.AlertCondition.MOVING_UP) {... */\n      jump(tag_331)\n    tag_323:\n        /* \"contracts/BitcoinNetflowContract.sol\":7812:7848  DataTypes.AlertCondition.MOVING_DOWN */\n      0x0c\n        /* \"contracts/BitcoinNetflowContract.sol\":7799:7808  condition */\n      dup5\n        /* \"contracts/BitcoinNetflowContract.sol\":7799:7848  condition == DataTypes.AlertCondition.MOVING_DOWN */\n      0x0c\n      dup2\n      gt\n      iszero\n      tag_329\n      jumpi\n      tag_329\n      tag_88\n      jump\t// in\n    tag_329:\n      sub\n        /* \"contracts/BitcoinNetflowContract.sol\":7795:7937  if (condition == DataTypes.AlertCondition.MOVING_DOWN) {... */\n      tag_331\n      jumpi\n        /* \"contracts/BitcoinNetflowContract.sol\":7889:7903  _previousValue */\n      dup7\n        /* \"contracts/BitcoinNetflowContract.sol\":7873:7886  _currentValue */\n      dup9\n        /* \"contracts/BitcoinNetflowContract.sol\":7873:7903  _currentValue < _previousValue */\n      slt\n        /* \"contracts/BitcoinNetflowContract.sol\":7869:7921  if (_currentValue < _previousValue) triggered = true */\n      iszero\n      tag_331\n      jumpi\n        /* \"contracts/BitcoinNetflowContract.sol\":7917:7921  true */\n      0x01\n        /* \"contracts/BitcoinNetflowContract.sol\":7905:7921  triggered = true */\n      swap5\n      pop\n        /* \"contracts/BitcoinNetflowContract.sol\":7869:7921  if (_currentValue < _previousValue) triggered = true */\n    tag_331:\n        /* \"contracts/BitcoinNetflowContract.sol\":7964:7973  triggered */\n      dup5\n        /* \"contracts/BitcoinNetflowContract.sol\":7960:8373  if (triggered) {... */\n      iszero\n      tag_335\n      jumpi\n        /* \"contracts/BitcoinNetflowContract.sol\":7990:8014  netflowAlert.isTriggered */\n      0x09\n        /* \"contracts/BitcoinNetflowContract.sol\":7990:8021  netflowAlert.isTriggered = true */\n      dup1\n      sload\n      not(0xff00)\n      and\n      0x0100\n      or\n      swap1\n      sstore\n        /* \"contracts/BitcoinNetflowContract.sol\":8067:8082  block.timestamp */\n      timestamp\n        /* \"contracts/BitcoinNetflowContract.sol\":8036:8064  netflowAlert.lastTriggeredAt */\n      0x0a\n        /* \"contracts/BitcoinNetflowContract.sol\":8036:8082  netflowAlert.lastTriggeredAt = block.timestamp */\n      sstore\n        /* \"contracts/BitcoinNetflowContract.sol\":7990:8002  netflowAlert */\n      0x05\n        /* \"contracts/BitcoinNetflowContract.sol\":8117:8132  netflowAlert.id */\n      sload\n        /* \"contracts/BitcoinNetflowContract.sol\":8102:8170  AlertTriggered(netflowAlert.id, _currentValue, netflowAlert.message) */\n      mload(0x40)\n      0xfd1237999c3a51192c69c42973f8afdb29066bcacb8f3b3569f68f8711272809\n      swap1\n      tag_333\n      swap1\n        /* \"contracts/BitcoinNetflowContract.sol\":8134:8147  _currentValue */\n      dup12\n      swap1\n        /* \"contracts/BitcoinNetflowContract.sol\":8149:8169  netflowAlert.message */\n      0x0b\n      swap1\n        /* \"contracts/BitcoinNetflowContract.sol\":8102:8170  AlertTriggered(netflowAlert.id, _currentValue, netflowAlert.message) */\n      tag_334\n      jump\t// in\n    tag_333:\n      mload(0x40)\n      dup1\n      swap2\n      sub\n      swap1\n      log2\n        /* \"contracts/BitcoinNetflowContract.sol\":8197:8214  dashboardNotifier */\n      and(sub(shl(0xa0, 0x01), 0x01), sload(0x0d))\n        /* \"contracts/BitcoinNetflowContract.sol\":8189:8229  address(dashboardNotifier) != address(0) */\n      iszero\n        /* \"contracts/BitcoinNetflowContract.sol\":8185:8362  if (address(dashboardNotifier) != address(0)) {... */\n      tag_335\n      jumpi\n        /* \"contracts/BitcoinNetflowContract.sol\":8250:8267  dashboardNotifier */\n      sload(0x0d)\n        /* \"contracts/BitcoinNetflowContract.sol\":8289:8301  netflowAlert */\n      0x05\n        /* \"contracts/BitcoinNetflowContract.sol\":8289:8304  netflowAlert.id */\n      sload\n        /* \"contracts/BitcoinNetflowContract.sol\":8306:8323  netflowAlert.user */\n      sload(0x06)\n        /* \"contracts/BitcoinNetflowContract.sol\":8250:8346  dashboardNotifier.notifyAlertTriggered(netflowAlert.id, netflowAlert.user, netflowAlert.message) */\n      mload(0x40)\n      shl(0xe0, 0xfbe93de3)\n      dup2\n      mstore\n      sub(shl(0xa0, 0x01), 0x01)\n        /* \"contracts/BitcoinNetflowContract.sol\":8250:8267  dashboardNotifier */\n      swap4\n      dup5\n      and\n      swap4\n        /* \"contracts/BitcoinNetflowContract.sol\":8250:8288  dashboardNotifier.notifyAlertTriggered */\n      0xfbe93de3\n      swap4\n        /* \"contracts/BitcoinNetflowContract.sol\":8250:8346  dashboardNotifier.notifyAlertTriggered(netflowAlert.id, netflowAlert.user, netflowAlert.message) */\n      tag_336\n      swap4\n        /* \"contracts/BitcoinNetflowContract.sol\":8289:8304  netflowAlert.id */\n      swap1\n      swap3\n        /* \"contracts/BitcoinNetflowContract.sol\":8306:8323  netflowAlert.user */\n      swap2\n      and\n      swap1\n        /* \"contracts/BitcoinNetflowContract.sol\":8325:8345  netflowAlert.message */\n      0x0b\n      swap1\n        /* \"contracts/BitcoinNetflowContract.sol\":8250:8346  dashboardNotifier.notifyAlertTriggered(netflowAlert.id, netflowAlert.user, netflowAlert.message) */\n      0x04\n      add\n      tag_337\n      jump\t// in\n    tag_336:\n      0x00\n      mload(0x40)\n      dup1\n      dup4\n      sub\n      dup2\n      0x00\n      dup8\n      dup1\n      extcodesize\n      iszero\n      dup1\n      iszero\n      tag_338\n      jumpi\n      revert(0x00, 0x00)\n    tag_338:\n      pop\n      gas\n      call\n      iszero\n      dup1\n      iszero\n      tag_340\n      jumpi\n      returndatacopy(0x00, 0x00, returndatasize)\n      revert(0x00, returndatasize)\n    tag_340:\n      pop\n      pop\n      pop\n      pop\n        /* \"contracts/BitcoinNetflowContract.sol\":8185:8362  if (address(dashboardNotifier) != address(0)) {... */\n    tag_335:\n        /* \"contracts/BitcoinNetflowContract.sol\":5031:8380  {... */\n      pop\n      pop\n      pop\n      pop\n      pop\n        /* \"contracts/BitcoinNetflowContract.sol\":4923:8380  function checkAndTriggerAlert(int256 _currentValue, int256 _previousValue, bool _hasPreviousValue) internal {... */\n      pop\n      pop\n      pop\n      jump\t// out\n        /* \"#utility.yul\":14:170   */\n    tag_342:\n        /* \"#utility.yul\":94:114   */\n      dup1\n      calldataload\n        /* \"#utility.yul\":143:145   */\n      0x0d\n        /* \"#utility.yul\":133:146   */\n      dup2\n      lt\n        /* \"#utility.yul\":123:164   */\n      tag_354\n      jumpi\n        /* \"#utility.yul\":160:161   */\n      0x00\n        /* \"#utility.yul\":157:158   */\n      0x00\n        /* \"#utility.yul\":150:162   */\n      revert\n        /* \"#utility.yul\":123:164   */\n    tag_354:\n        /* \"#utility.yul\":14:170   */\n      swap2\n      swap1\n      pop\n      jump\t// out\n        /* \"#utility.yul\":175:523   */\n    tag_343:\n        /* \"#utility.yul\":227:235   */\n      0x00\n        /* \"#utility.yul\":237:243   */\n      0x00\n        /* \"#utility.yul\":291:294   */\n      dup4\n        /* \"#utility.yul\":284:288   */\n      0x1f\n        /* \"#utility.yul\":276:282   */\n      dup5\n        /* \"#utility.yul\":272:289   */\n      add\n        /* \"#utility.yul\":268:295   */\n      slt\n        /* \"#utility.yul\":258:313   */\n      tag_356\n      jumpi\n        /* \"#utility.yul\":309:310   */\n      0x00\n        /* \"#utility.yul\":306:307   */\n      0x00\n        /* \"#utility.yul\":299:311   */\n      revert\n        /* \"#utility.yul\":258:313   */\n    tag_356:\n      pop\n        /* \"#utility.yul\":332:352   */\n      dup2\n      calldataload\n        /* \"#utility.yul\":375:393   */\n      0xffffffffffffffff\n        /* \"#utility.yul\":364:394   */\n      dup2\n      gt\n        /* \"#utility.yul\":361:411   */\n      iszero\n      tag_357\n      jumpi\n        /* \"#utility.yul\":407:408   */\n      0x00\n        /* \"#utility.yul\":404:405   */\n      0x00\n        /* \"#utility.yul\":397:409   */\n      revert\n        /* \"#utility.yul\":361:411   */\n    tag_357:\n        /* \"#utility.yul\":444:448   */\n      0x20\n        /* \"#utility.yul\":436:442   */\n      dup4\n        /* \"#utility.yul\":432:449   */\n      add\n        /* \"#utility.yul\":420:449   */\n      swap2\n      pop\n        /* \"#utility.yul\":496:499   */\n      dup4\n        /* \"#utility.yul\":489:493   */\n      0x20\n        /* \"#utility.yul\":480:486   */\n      dup3\n        /* \"#utility.yul\":472:478   */\n      dup6\n        /* \"#utility.yul\":468:487   */\n      add\n        /* \"#utility.yul\":464:494   */\n      add\n        /* \"#utility.yul\":461:500   */\n      gt\n        /* \"#utility.yul\":458:517   */\n      iszero\n      tag_358\n      jumpi\n        /* \"#utility.yul\":513:514   */\n      0x00\n        /* \"#utility.yul\":510:511   */\n      0x00\n        /* \"#utility.yul\":503:515   */\n      revert\n        /* \"#utility.yul\":458:517   */\n    tag_358:\n        /* \"#utility.yul\":175:523   */\n      swap3\n      pop\n      swap3\n      swap1\n      pop\n      jump\t// out\n        /* \"#utility.yul\":528:1157   */\n    tag_26:\n        /* \"#utility.yul\":635:641   */\n      0x00\n        /* \"#utility.yul\":643:649   */\n      0x00\n        /* \"#utility.yul\":651:657   */\n      0x00\n        /* \"#utility.yul\":659:665   */\n      0x00\n        /* \"#utility.yul\":712:714   */\n      0x60\n        /* \"#utility.yul\":700:709   */\n      dup6\n        /* \"#utility.yul\":691:698   */\n      dup8\n        /* \"#utility.yul\":687:710   */\n      sub\n        /* \"#utility.yul\":683:715   */\n      slt\n        /* \"#utility.yul\":680:732   */\n      iszero\n      tag_360\n      jumpi\n        /* \"#utility.yul\":728:729   */\n      0x00\n        /* \"#utility.yul\":725:726   */\n      0x00\n        /* \"#utility.yul\":718:730   */\n      revert\n        /* \"#utility.yul\":680:732   */\n    tag_360:\n        /* \"#utility.yul\":751:792   */\n      tag_361\n        /* \"#utility.yul\":782:791   */\n      dup6\n        /* \"#utility.yul\":751:792   */\n      tag_342\n      jump\t// in\n    tag_361:\n        /* \"#utility.yul\":741:792   */\n      swap4\n      pop\n        /* \"#utility.yul\":861:863   */\n      0x20\n        /* \"#utility.yul\":846:864   */\n      dup6\n      add\n        /* \"#utility.yul\":833:865   */\n      calldataload\n      swap3\n      pop\n        /* \"#utility.yul\":940:942   */\n      0x40\n        /* \"#utility.yul\":925:943   */\n      dup6\n      add\n        /* \"#utility.yul\":912:944   */\n      calldataload\n        /* \"#utility.yul\":967:985   */\n      0xffffffffffffffff\n        /* \"#utility.yul\":956:986   */\n      dup2\n      gt\n        /* \"#utility.yul\":953:1003   */\n      iszero\n      tag_362\n      jumpi\n        /* \"#utility.yul\":999:1000   */\n      0x00\n        /* \"#utility.yul\":996:997   */\n      0x00\n        /* \"#utility.yul\":989:1001   */\n      revert\n        /* \"#utility.yul\":953:1003   */\n    tag_362:\n        /* \"#utility.yul\":1038:1097   */\n      tag_363\n        /* \"#utility.yul\":1089:1096   */\n      dup8\n        /* \"#utility.yul\":1080:1086   */\n      dup3\n        /* \"#utility.yul\":1069:1078   */\n      dup9\n        /* \"#utility.yul\":1065:1087   */\n      add\n        /* \"#utility.yul\":1038:1097   */\n      tag_343\n      jump\t// in\n    tag_363:\n        /* \"#utility.yul\":528:1157   */\n      swap6\n      swap9\n      swap5\n      swap8\n      pop\n        /* \"#utility.yul\":1116:1124   */\n      swap6\n      pop\n      pop\n      pop\n      pop\n        /* \"#utility.yul\":528:1157   */\n      jump\t// out\n        /* \"#utility.yul\":1162:1911   */\n    tag_32:\n        /* \"#utility.yul\":1277:1283   */\n      0x00\n        /* \"#utility.yul\":1285:1291   */\n      0x00\n        /* \"#utility.yul\":1293:1299   */\n      0x00\n        /* \"#utility.yul\":1301:1307   */\n      0x00\n        /* \"#utility.yul\":1309:1315   */\n      0x00\n        /* \"#utility.yul\":1362:1365   */\n      0x80\n        /* \"#utility.yul\":1350:1359   */\n      dup7\n        /* \"#utility.yul\":1341:1348   */\n      dup9\n        /* \"#utility.yul\":1337:1360   */\n      sub\n        /* \"#utility.yul\":1333:1366   */\n      slt\n        /* \"#utility.yul\":1330:1383   */\n      iszero\n      tag_365\n      jumpi\n        /* \"#utility.yul\":1379:1380   */\n      0x00\n        /* \"#utility.yul\":1376:1377   */\n      0x00\n        /* \"#utility.yul\":1369:1381   */\n      revert\n        /* \"#utility.yul\":1330:1383   */\n    tag_365:\n        /* \"#utility.yul\":1402:1443   */\n      tag_366\n        /* \"#utility.yul\":1433:1442   */\n      dup7\n        /* \"#utility.yul\":1402:1443   */\n      tag_342\n      jump\t// in\n    tag_366:\n        /* \"#utility.yul\":1392:1443   */\n      swap5\n      pop\n        /* \"#utility.yul\":1512:1514   */\n      0x20\n        /* \"#utility.yul\":1497:1515   */\n      dup7\n      add\n        /* \"#utility.yul\":1484:1516   */\n      calldataload\n      swap4\n      pop\n        /* \"#utility.yul\":1613:1615   */\n      0x40\n        /* \"#utility.yul\":1598:1616   */\n      dup7\n      add\n        /* \"#utility.yul\":1585:1617   */\n      calldataload\n      swap3\n      pop\n        /* \"#utility.yul\":1694:1696   */\n      0x60\n        /* \"#utility.yul\":1679:1697   */\n      dup7\n      add\n        /* \"#utility.yul\":1666:1698   */\n      calldataload\n        /* \"#utility.yul\":1721:1739   */\n      0xffffffffffffffff\n        /* \"#utility.yul\":1710:1740   */\n      dup2\n      gt\n        /* \"#utility.yul\":1707:1757   */\n      iszero\n      tag_367\n      jumpi\n        /* \"#utility.yul\":1753:1754   */\n      0x00\n        /* \"#utility.yul\":1750:1751   */\n      0x00\n        /* \"#utility.yul\":1743:1755   */\n      revert\n        /* \"#utility.yul\":1707:1757   */\n    tag_367:\n        /* \"#utility.yul\":1792:1851   */\n      tag_368\n        /* \"#utility.yul\":1843:1850   */\n      dup9\n        /* \"#utility.yul\":1834:1840   */\n      dup3\n        /* \"#utility.yul\":1823:1832   */\n      dup10\n        /* \"#utility.yul\":1819:1841   */\n      add\n        /* \"#utility.yul\":1792:1851   */\n      tag_343\n      jump\t// in\n    tag_368:\n        /* \"#utility.yul\":1162:1911   */\n      swap7\n      swap10\n      swap6\n      swap9\n      pop\n      swap4\n      swap7\n      pop\n        /* \"#utility.yul\":1870:1878   */\n      swap3\n      swap5\n        /* \"#utility.yul\":1766:1851   */\n      swap4\n        /* \"#utility.yul\":1162:1911   */\n      swap3\n      pop\n      pop\n      pop\n      jump\t// out\n        /* \"#utility.yul\":2331:2556   */\n    tag_46:\n        /* \"#utility.yul\":2389:2395   */\n      0x00\n        /* \"#utility.yul\":2442:2444   */\n      0x20\n        /* \"#utility.yul\":2430:2439   */\n      dup3\n        /* \"#utility.yul\":2421:2428   */\n      dup5\n        /* \"#utility.yul\":2417:2440   */\n      sub\n        /* \"#utility.yul\":2413:2445   */\n      slt\n        /* \"#utility.yul\":2410:2462   */\n      iszero\n      tag_372\n      jumpi\n        /* \"#utility.yul\":2458:2459   */\n      0x00\n        /* \"#utility.yul\":2455:2456   */\n      0x00\n        /* \"#utility.yul\":2448:2460   */\n      revert\n        /* \"#utility.yul\":2410:2462   */\n    tag_372:\n      pop\n        /* \"#utility.yul\":2503:2526   */\n      calldataload\n      swap2\n        /* \"#utility.yul\":2331:2556   */\n      swap1\n      pop\n      jump\t// out\n        /* \"#utility.yul\":2878:3164   */\n    tag_54:\n        /* \"#utility.yul\":2937:2943   */\n      0x00\n        /* \"#utility.yul\":2990:2992   */\n      0x20\n        /* \"#utility.yul\":2978:2987   */\n      dup3\n        /* \"#utility.yul\":2969:2976   */\n      dup5\n        /* \"#utility.yul\":2965:2988   */\n      sub\n        /* \"#utility.yul\":2961:2993   */\n      slt\n        /* \"#utility.yul\":2958:3010   */\n      iszero\n      tag_376\n      jumpi\n        /* \"#utility.yul\":3006:3007   */\n      0x00\n        /* \"#utility.yul\":3003:3004   */\n      0x00\n        /* \"#utility.yul\":2996:3008   */\n      revert\n        /* \"#utility.yul\":2958:3010   */\n    tag_376:\n        /* \"#utility.yul\":3032:3055   */\n      dup2\n      calldataload\n      sub(shl(0xa0, 0x01), 0x01)\n        /* \"#utility.yul\":3084:3115   */\n      dup2\n      and\n        /* \"#utility.yul\":3074:3116   */\n      dup2\n      eq\n        /* \"#utility.yul\":3064:3134   */\n      tag_377\n      jumpi\n        /* \"#utility.yul\":3130:3131   */\n      0x00\n        /* \"#utility.yul\":3127:3128   */\n      0x00\n        /* \"#utility.yul\":3120:3132   */\n      revert\n        /* \"#utility.yul\":3064:3134   */\n    tag_377:\n        /* \"#utility.yul\":3153:3158   */\n      swap4\n        /* \"#utility.yul\":2878:3164   */\n      swap3\n      pop\n      pop\n      pop\n      jump\t// out\n        /* \"#utility.yul\":4018:4145   */\n    tag_88:\n        /* \"#utility.yul\":4079:4089   */\n      0x4e487b71\n        /* \"#utility.yul\":4074:4077   */\n      0xe0\n        /* \"#utility.yul\":4070:4090   */\n      shl\n        /* \"#utility.yul\":4067:4068   */\n      0x00\n        /* \"#utility.yul\":4060:4091   */\n      mstore\n        /* \"#utility.yul\":4110:4114   */\n      0x21\n        /* \"#utility.yul\":4107:4108   */\n      0x04\n        /* \"#utility.yul\":4100:4115   */\n      mstore\n        /* \"#utility.yul\":4134:4138   */\n      0x24\n        /* \"#utility.yul\":4131:4132   */\n      0x00\n        /* \"#utility.yul\":4124:4139   */\n      revert\n        /* \"#utility.yul\":4150:4393   */\n    tag_346:\n        /* \"#utility.yul\":4236:4238   */\n      0x0d\n        /* \"#utility.yul\":4229:4234   */\n      dup2\n        /* \"#utility.yul\":4226:4239   */\n      lt\n        /* \"#utility.yul\":4216:4360   */\n      tag_384\n      jumpi\n        /* \"#utility.yul\":4282:4292   */\n      0x4e487b71\n        /* \"#utility.yul\":4277:4280   */\n      0xe0\n        /* \"#utility.yul\":4273:4293   */\n      shl\n        /* \"#utility.yul\":4270:4271   */\n      0x00\n        /* \"#utility.yul\":4263:4294   */\n      mstore\n        /* \"#utility.yul\":4317:4321   */\n      0x21\n        /* \"#utility.yul\":4314:4315   */\n      0x04\n        /* \"#utility.yul\":4307:4322   */\n      mstore\n        /* \"#utility.yul\":4345:4349   */\n      0x24\n        /* \"#utility.yul\":4342:4343   */\n      0x00\n        /* \"#utility.yul\":4335:4350   */\n      revert\n        /* \"#utility.yul\":4216:4360   */\n    tag_384:\n        /* \"#utility.yul\":4369:4387   */\n      swap1\n      mstore\n        /* \"#utility.yul\":4150:4393   */\n      jump\t// out\n        /* \"#utility.yul\":4398:5477   */\n    tag_76:\n        /* \"#utility.yul\":4754:4779   */\n      dup10\n      dup2\n      mstore\n      sub(shl(0xa0, 0x01), 0x01)\n        /* \"#utility.yul\":4815:4847   */\n      dup10\n      and\n        /* \"#utility.yul\":4810:4812   */\n      0x20\n        /* \"#utility.yul\":4795:4813   */\n      dup3\n      add\n        /* \"#utility.yul\":4788:4848   */\n      mstore\n        /* \"#utility.yul\":4857:4915   */\n      tag_386\n        /* \"#utility.yul\":4911:4913   */\n      0x40\n        /* \"#utility.yul\":4896:4914   */\n      dup3\n      add\n        /* \"#utility.yul\":4888:4894   */\n      dup10\n        /* \"#utility.yul\":4857:4915   */\n      tag_346\n      jump\t// in\n    tag_386:\n        /* \"#utility.yul\":4951:4957   */\n      dup7\n        /* \"#utility.yul\":4946:4948   */\n      0x60\n        /* \"#utility.yul\":4935:4944   */\n      dup3\n        /* \"#utility.yul\":4931:4949   */\n      add\n        /* \"#utility.yul\":4924:4958   */\n      mstore\n        /* \"#utility.yul\":4995:5001   */\n      dup6\n        /* \"#utility.yul\":4989:4992   */\n      0x80\n        /* \"#utility.yul\":4978:4987   */\n      dup3\n        /* \"#utility.yul\":4974:4993   */\n      add\n        /* \"#utility.yul\":4967:5002   */\n      mstore\n        /* \"#utility.yul\":5053:5059   */\n      dup5\n        /* \"#utility.yul\":5046:5060   */\n      iszero\n        /* \"#utility.yul\":5039:5061   */\n      iszero\n        /* \"#utility.yul\":5033:5036   */\n      0xa0\n        /* \"#utility.yul\":5022:5031   */\n      dup3\n        /* \"#utility.yul\":5018:5037   */\n      add\n        /* \"#utility.yul\":5011:5062   */\n      mstore\n        /* \"#utility.yul\":5113:5119   */\n      dup4\n        /* \"#utility.yul\":5106:5120   */\n      iszero\n        /* \"#utility.yul\":5099:5121   */\n      iszero\n        /* \"#utility.yul\":5093:5096   */\n      0xc0\n        /* \"#utility.yul\":5082:5091   */\n      dup3\n        /* \"#utility.yul\":5078:5097   */\n      add\n        /* \"#utility.yul\":5071:5122   */\n      mstore\n        /* \"#utility.yul\":5159:5165   */\n      dup3\n        /* \"#utility.yul\":5153:5156   */\n      0xe0\n        /* \"#utility.yul\":5142:5151   */\n      dup3\n        /* \"#utility.yul\":5138:5157   */\n      add\n        /* \"#utility.yul\":5131:5166   */\n      mstore\n        /* \"#utility.yul\":5203:5206   */\n      0x0120\n        /* \"#utility.yul\":5197:5200   */\n      0x0100\n        /* \"#utility.yul\":5186:5195   */\n      dup3\n        /* \"#utility.yul\":5182:5201   */\n      add\n        /* \"#utility.yul\":5175:5207   */\n      mstore\n        /* \"#utility.yul\":4735:4739   */\n      0x00\n        /* \"#utility.yul\":5236:5242   */\n      dup3\n        /* \"#utility.yul\":5230:5243   */\n      mload\n        /* \"#utility.yul\":5280:5286   */\n      dup1\n        /* \"#utility.yul\":5274:5277   */\n      0x0120\n        /* \"#utility.yul\":5263:5272   */\n      dup5\n        /* \"#utility.yul\":5259:5278   */\n      add\n        /* \"#utility.yul\":5252:5287   */\n      mstore\n        /* \"#utility.yul\":5340:5346   */\n      dup1\n        /* \"#utility.yul\":5335:5337   */\n      0x20\n        /* \"#utility.yul\":5327:5333   */\n      dup6\n        /* \"#utility.yul\":5323:5338   */\n      add\n        /* \"#utility.yul\":5317:5320   */\n      0x0140\n        /* \"#utility.yul\":5306:5315   */\n      dup6\n        /* \"#utility.yul\":5302:5321   */\n      add\n        /* \"#utility.yul\":5296:5347   */\n      mcopy\n        /* \"#utility.yul\":5397:5398   */\n      0x00\n        /* \"#utility.yul\":5391:5394   */\n      0x0140\n        /* \"#utility.yul\":5382:5388   */\n      dup3\n        /* \"#utility.yul\":5371:5380   */\n      dup6\n        /* \"#utility.yul\":5367:5389   */\n      add\n        /* \"#utility.yul\":5363:5395   */\n      add\n        /* \"#utility.yul\":5356:5399   */\n      mstore\n        /* \"#utility.yul\":5467:5470   */\n      0x0140\n        /* \"#utility.yul\":5460:5462   */\n      0x1f\n        /* \"#utility.yul\":5456:5463   */\n      not\n        /* \"#utility.yul\":5451:5453   */\n      0x1f\n        /* \"#utility.yul\":5443:5449   */\n      dup4\n        /* \"#utility.yul\":5439:5454   */\n      add\n        /* \"#utility.yul\":5435:5464   */\n      and\n        /* \"#utility.yul\":5424:5433   */\n      dup5\n        /* \"#utility.yul\":5420:5465   */\n      add\n        /* \"#utility.yul\":5416:5471   */\n      add\n        /* \"#utility.yul\":5408:5471   */\n      swap2\n      pop\n      pop\n        /* \"#utility.yul\":4398:5477   */\n      swap11\n      swap10\n      pop\n      pop\n      pop\n      pop\n      pop\n      pop\n      pop\n      pop\n      pop\n      pop\n      jump\t// out\n        /* \"#utility.yul\":5905:6137   */\n    tag_131:\n        /* \"#utility.yul\":5944:5947   */\n      0x00\n        /* \"#utility.yul\":5965:5982   */\n      0x01\n      dup3\n      add\n        /* \"#utility.yul\":5962:6102   */\n      tag_389\n      jumpi\n        /* \"#utility.yul\":6024:6034   */\n      0x4e487b71\n        /* \"#utility.yul\":6019:6022   */\n      0xe0\n        /* \"#utility.yul\":6015:6035   */\n      shl\n        /* \"#utility.yul\":6012:6013   */\n      0x00\n        /* \"#utility.yul\":6005:6036   */\n      mstore\n        /* \"#utility.yul\":6059:6063   */\n      0x11\n        /* \"#utility.yul\":6056:6057   */\n      0x04\n        /* \"#utility.yul\":6049:6064   */\n      mstore\n        /* \"#utility.yul\":6087:6091   */\n      0x24\n        /* \"#utility.yul\":6084:6085   */\n      0x00\n        /* \"#utility.yul\":6077:6092   */\n      revert\n        /* \"#utility.yul\":5962:6102   */\n    tag_389:\n      pop\n        /* \"#utility.yul\":6129:6130   */\n      0x01\n        /* \"#utility.yul\":6118:6131   */\n      add\n      swap1\n        /* \"#utility.yul\":5905:6137   */\n      jump\t// out\n        /* \"#utility.yul\":6142:6269   */\n    tag_347:\n        /* \"#utility.yul\":6203:6213   */\n      0x4e487b71\n        /* \"#utility.yul\":6198:6201   */\n      0xe0\n        /* \"#utility.yul\":6194:6214   */\n      shl\n        /* \"#utility.yul\":6191:6192   */\n      0x00\n        /* \"#utility.yul\":6184:6215   */\n      mstore\n        /* \"#utility.yul\":6234:6238   */\n      0x41\n        /* \"#utility.yul\":6231:6232   */\n      0x04\n        /* \"#utility.yul\":6224:6239   */\n      mstore\n        /* \"#utility.yul\":6258:6262   */\n      0x24\n        /* \"#utility.yul\":6255:6256   */\n      0x00\n        /* \"#utility.yul\":6248:6263   */\n      revert\n        /* \"#utility.yul\":6274:6654   */\n    tag_218:\n        /* \"#utility.yul\":6353:6354   */\n      0x01\n        /* \"#utility.yul\":6349:6361   */\n      dup2\n      dup2\n      shr\n      swap1\n        /* \"#utility.yul\":6396:6408   */\n      dup3\n      and\n      dup1\n        /* \"#utility.yul\":6417:6478   */\n      tag_392\n      jumpi\n        /* \"#utility.yul\":6471:6475   */\n      0x7f\n        /* \"#utility.yul\":6463:6469   */\n      dup3\n        /* \"#utility.yul\":6459:6476   */\n      and\n        /* \"#utility.yul\":6449:6476   */\n      swap2\n      pop\n        /* \"#utility.yul\":6417:6478   */\n    tag_392:\n        /* \"#utility.yul\":6524:6526   */\n      0x20\n        /* \"#utility.yul\":6516:6522   */\n      dup3\n        /* \"#utility.yul\":6513:6527   */\n      lt\n        /* \"#utility.yul\":6493:6511   */\n      dup2\n        /* \"#utility.yul\":6490:6528   */\n      sub\n        /* \"#utility.yul\":6487:6648   */\n      tag_393\n      jumpi\n        /* \"#utility.yul\":6570:6580   */\n      0x4e487b71\n        /* \"#utility.yul\":6565:6568   */\n      0xe0\n        /* \"#utility.yul\":6561:6581   */\n      shl\n        /* \"#utility.yul\":6558:6559   */\n      0x00\n        /* \"#utility.yul\":6551:6582   */\n      mstore\n        /* \"#utility.yul\":6605:6609   */\n      0x22\n        /* \"#utility.yul\":6602:6603   */\n      0x04\n        /* \"#utility.yul\":6595:6610   */\n      mstore\n        /* \"#utility.yul\":6633:6637   */\n      0x24\n        /* \"#utility.yul\":6630:6631   */\n      0x00\n        /* \"#utility.yul\":6623:6638   */\n      revert\n        /* \"#utility.yul\":6487:6648   */\n    tag_393:\n      pop\n        /* \"#utility.yul\":6274:6654   */\n      swap2\n      swap1\n      pop\n      jump\t// out\n        /* \"#utility.yul\":6785:7303   */\n    tag_349:\n        /* \"#utility.yul\":6887:6889   */\n      0x1f\n        /* \"#utility.yul\":6882:6885   */\n      dup3\n        /* \"#utility.yul\":6879:6890   */\n      gt\n        /* \"#utility.yul\":6876:7297   */\n      iszero\n      tag_396\n      jumpi\n        /* \"#utility.yul\":6923:6928   */\n      dup1\n        /* \"#utility.yul\":6920:6921   */\n      0x00\n        /* \"#utility.yul\":6913:6929   */\n      mstore\n        /* \"#utility.yul\":6967:6971   */\n      0x20\n        /* \"#utility.yul\":6964:6965   */\n      0x00\n        /* \"#utility.yul\":6954:6972   */\n      keccak256\n        /* \"#utility.yul\":7037:7039   */\n      0x1f\n        /* \"#utility.yul\":7025:7035   */\n      dup5\n        /* \"#utility.yul\":7021:7040   */\n      add\n        /* \"#utility.yul\":7018:7019   */\n      0x05\n        /* \"#utility.yul\":7014:7041   */\n      shr\n        /* \"#utility.yul\":7008:7012   */\n      dup2\n        /* \"#utility.yul\":7004:7042   */\n      add\n        /* \"#utility.yul\":7073:7077   */\n      0x20\n        /* \"#utility.yul\":7061:7071   */\n      dup6\n        /* \"#utility.yul\":7058:7078   */\n      lt\n        /* \"#utility.yul\":7055:7102   */\n      iszero\n      tag_397\n      jumpi\n      pop\n        /* \"#utility.yul\":7096:7100   */\n      dup1\n        /* \"#utility.yul\":7055:7102   */\n    tag_397:\n        /* \"#utility.yul\":7151:7153   */\n      0x1f\n        /* \"#utility.yul\":7146:7149   */\n      dup5\n        /* \"#utility.yul\":7142:7154   */\n      add\n        /* \"#utility.yul\":7139:7140   */\n      0x05\n        /* \"#utility.yul\":7135:7155   */\n      shr\n        /* \"#utility.yul\":7129:7133   */\n      dup3\n        /* \"#utility.yul\":7125:7156   */\n      add\n        /* \"#utility.yul\":7115:7156   */\n      swap2\n      pop\n        /* \"#utility.yul\":7206:7287   */\n    tag_398:\n        /* \"#utility.yul\":7224:7226   */\n      dup2\n        /* \"#utility.yul\":7217:7222   */\n      dup2\n        /* \"#utility.yul\":7214:7227   */\n      lt\n        /* \"#utility.yul\":7206:7287   */\n      iszero\n      tag_400\n      jumpi\n        /* \"#utility.yul\":7283:7284   */\n      0x00\n        /* \"#utility.yul\":7269:7285   */\n      dup2\n      sstore\n        /* \"#utility.yul\":7250:7251   */\n      0x01\n        /* \"#utility.yul\":7239:7252   */\n      add\n        /* \"#utility.yul\":7206:7287   */\n      jump(tag_398)\n    tag_400:\n        /* \"#utility.yul\":7210:7213   */\n      pop\n      pop\n        /* \"#utility.yul\":6876:7297   */\n    tag_396:\n        /* \"#utility.yul\":6785:7303   */\n      pop\n      pop\n      pop\n      jump\t// out\n        /* \"#utility.yul\":7479:8677   */\n    tag_135:\n        /* \"#utility.yul\":7603:7621   */\n      0xffffffffffffffff\n        /* \"#utility.yul\":7598:7601   */\n      dup4\n        /* \"#utility.yul\":7595:7622   */\n      gt\n        /* \"#utility.yul\":7592:7645   */\n      iszero\n      tag_404\n      jumpi\n        /* \"#utility.yul\":7625:7643   */\n      tag_404\n      tag_347\n      jump\t// in\n    tag_404:\n        /* \"#utility.yul\":7654:7748   */\n      tag_405\n        /* \"#utility.yul\":7744:7747   */\n      dup4\n        /* \"#utility.yul\":7704:7742   */\n      tag_406\n        /* \"#utility.yul\":7736:7740   */\n      dup4\n        /* \"#utility.yul\":7730:7741   */\n      sload\n        /* \"#utility.yul\":7704:7742   */\n      tag_218\n      jump\t// in\n    tag_406:\n        /* \"#utility.yul\":7698:7702   */\n      dup4\n        /* \"#utility.yul\":7654:7748   */\n      tag_349\n      jump\t// in\n    tag_405:\n        /* \"#utility.yul\":7774:7775   */\n      0x00\n        /* \"#utility.yul\":7799:7801   */\n      0x1f\n        /* \"#utility.yul\":7794:7797   */\n      dup5\n        /* \"#utility.yul\":7791:7802   */\n      gt\n        /* \"#utility.yul\":7816:7817   */\n      0x01\n        /* \"#utility.yul\":7811:8419   */\n      dup2\n      eq\n      tag_408\n      jumpi\n        /* \"#utility.yul\":8463:8464   */\n      0x00\n        /* \"#utility.yul\":8480:8483   */\n      dup6\n        /* \"#utility.yul\":8477:8570   */\n      iszero\n      tag_409\n      jumpi\n      pop\n        /* \"#utility.yul\":8536:8555   */\n      dup4\n      dup3\n      add\n        /* \"#utility.yul\":8523:8556   */\n      calldataload\n        /* \"#utility.yul\":8477:8570   */\n    tag_409:\n      not(0x00)\n        /* \"#utility.yul\":7436:7437   */\n      0x03\n        /* \"#utility.yul\":7432:7443   */\n      dup8\n      swap1\n      shl\n        /* \"#utility.yul\":7428:7452   */\n      shr\n        /* \"#utility.yul\":7424:7453   */\n      not\n        /* \"#utility.yul\":7414:7454   */\n      and\n        /* \"#utility.yul\":7460:7461   */\n      0x01\n        /* \"#utility.yul\":7456:7467   */\n      dup7\n      swap1\n      shl\n        /* \"#utility.yul\":7411:7468   */\n      or\n        /* \"#utility.yul\":8583:8661   */\n      dup4\n      sstore\n        /* \"#utility.yul\":7784:8671   */\n      jump(tag_400)\n        /* \"#utility.yul\":7811:8419   */\n    tag_408:\n        /* \"#utility.yul\":6732:6733   */\n      0x00\n        /* \"#utility.yul\":6725:6739   */\n      dup4\n      dup2\n      mstore\n        /* \"#utility.yul\":6769:6773   */\n      0x20\n        /* \"#utility.yul\":6756:6774   */\n      dup2\n      keccak256\n      not(0x1f)\n        /* \"#utility.yul\":7847:7864   */\n      dup8\n      and\n      swap2\n        /* \"#utility.yul\":7962:8191   */\n    tag_412:\n        /* \"#utility.yul\":7976:7983   */\n      dup3\n        /* \"#utility.yul\":7973:7974   */\n      dup2\n        /* \"#utility.yul\":7970:7984   */\n      lt\n        /* \"#utility.yul\":7962:8191   */\n      iszero\n      tag_414\n      jumpi\n        /* \"#utility.yul\":8065:8084   */\n      dup7\n      dup6\n      add\n        /* \"#utility.yul\":8052:8085   */\n      calldataload\n        /* \"#utility.yul\":8037:8086   */\n      dup3\n      sstore\n        /* \"#utility.yul\":8172:8176   */\n      0x20\n        /* \"#utility.yul\":8157:8177   */\n      swap5\n      dup6\n      add\n      swap5\n        /* \"#utility.yul\":8125:8126   */\n      0x01\n        /* \"#utility.yul\":8113:8127   */\n      swap1\n      swap3\n      add\n      swap2\n        /* \"#utility.yul\":7992:8004   */\n      add\n        /* \"#utility.yul\":7962:8191   */\n      jump(tag_412)\n    tag_414:\n        /* \"#utility.yul\":7966:7969   */\n      pop\n        /* \"#utility.yul\":8219:8222   */\n      dup7\n        /* \"#utility.yul\":8210:8217   */\n      dup3\n        /* \"#utility.yul\":8207:8223   */\n      lt\n        /* \"#utility.yul\":8204:8363   */\n      iszero\n      tag_415\n      jumpi\n        /* \"#utility.yul\":8343:8344   */\n      0x00\n        /* \"#utility.yul\":8339:8345   */\n      not\n        /* \"#utility.yul\":8333:8336   */\n      0xf8\n        /* \"#utility.yul\":8327:8330   */\n      dup9\n        /* \"#utility.yul\":8324:8325   */\n      0x03\n        /* \"#utility.yul\":8320:8331   */\n      shl\n        /* \"#utility.yul\":8316:8337   */\n      and\n        /* \"#utility.yul\":8312:8346   */\n      shr\n        /* \"#utility.yul\":8308:8347   */\n      not\n        /* \"#utility.yul\":8295:8304   */\n      dup5\n        /* \"#utility.yul\":8290:8293   */\n      dup8\n        /* \"#utility.yul\":8286:8305   */\n      add\n        /* \"#utility.yul\":8273:8306   */\n      calldataload\n        /* \"#utility.yul\":8269:8348   */\n      and\n        /* \"#utility.yul\":8261:8267   */\n      dup2\n        /* \"#utility.yul\":8254:8349   */\n      sstore\n        /* \"#utility.yul\":8204:8363   */\n    tag_415:\n      pop\n      pop\n        /* \"#utility.yul\":8406:8407   */\n      0x01\n        /* \"#utility.yul\":8400:8403   */\n      dup6\n        /* \"#utility.yul\":8397:8398   */\n      0x01\n        /* \"#utility.yul\":8393:8404   */\n      shl\n        /* \"#utility.yul\":8389:8408   */\n      add\n        /* \"#utility.yul\":8383:8387   */\n      dup4\n        /* \"#utility.yul\":8376:8409   */\n      sstore\n        /* \"#utility.yul\":7784:8671   */\n      pop\n      pop\n        /* \"#utility.yul\":7479:8677   */\n      pop\n      pop\n      pop\n      jump\t// out\n        /* \"#utility.yul\":8682:9421   */\n    tag_351:\n        /* \"#utility.yul\":8732:8735   */\n      0x00\n        /* \"#utility.yul\":8773:8778   */\n      dup2\n        /* \"#utility.yul\":8767:8779   */\n      sload\n        /* \"#utility.yul\":8802:8838   */\n      tag_417\n        /* \"#utility.yul\":8828:8837   */\n      dup2\n        /* \"#utility.yul\":8802:8838   */\n      tag_218\n      jump\t// in\n    tag_417:\n        /* \"#utility.yul\":8847:8866   */\n      dup1\n      dup6\n      mstore\n        /* \"#utility.yul\":8897:8898   */\n      0x01\n        /* \"#utility.yul\":8882:8899   */\n      dup3\n      and\n        /* \"#utility.yul\":8908:9058   */\n      dup1\n      iszero\n      tag_419\n      jumpi\n        /* \"#utility.yul\":9072:9073   */\n      0x01\n        /* \"#utility.yul\":9067:9415   */\n      dup2\n      eq\n      tag_420\n      jumpi\n        /* \"#utility.yul\":8875:9415   */\n      jump(tag_418)\n        /* \"#utility.yul\":8908:9058   */\n    tag_419:\n        /* \"#utility.yul\":8971:8974   */\n      0xff\n        /* \"#utility.yul\":8967:8975   */\n      not\n        /* \"#utility.yul\":8956:8965   */\n      dup4\n        /* \"#utility.yul\":8952:8976   */\n      and\n        /* \"#utility.yul\":8945:8949   */\n      0x20\n        /* \"#utility.yul\":8940:8943   */\n      dup8\n        /* \"#utility.yul\":8936:8950   */\n      add\n        /* \"#utility.yul\":8929:8977   */\n      mstore\n        /* \"#utility.yul\":9043:9047   */\n      0x20\n        /* \"#utility.yul\":9031:9037   */\n      dup3\n        /* \"#utility.yul\":9024:9038   */\n      iszero\n        /* \"#utility.yul\":9017:9039   */\n      iszero\n        /* \"#utility.yul\":9014:9015   */\n      0x05\n        /* \"#utility.yul\":9010:9040   */\n      shl\n        /* \"#utility.yul\":9005:9008   */\n      dup8\n        /* \"#utility.yul\":9001:9041   */\n      add\n        /* \"#utility.yul\":8997:9048   */\n      add\n        /* \"#utility.yul\":8990:9048   */\n      swap4\n      pop\n        /* \"#utility.yul\":8908:9058   */\n      jump(tag_418)\n        /* \"#utility.yul\":9067:9415   */\n    tag_420:\n        /* \"#utility.yul\":9098:9103   */\n      dup5\n        /* \"#utility.yul\":9095:9096   */\n      0x00\n        /* \"#utility.yul\":9088:9104   */\n      mstore\n        /* \"#utility.yul\":9145:9149   */\n      0x20\n        /* \"#utility.yul\":9142:9143   */\n      0x00\n        /* \"#utility.yul\":9132:9150   */\n      keccak256\n        /* \"#utility.yul\":9172:9173   */\n      0x00\n        /* \"#utility.yul\":9186:9363   */\n    tag_421:\n        /* \"#utility.yul\":9200:9206   */\n      dup4\n        /* \"#utility.yul\":9197:9198   */\n      dup2\n        /* \"#utility.yul\":9194:9207   */\n      lt\n        /* \"#utility.yul\":9186:9363   */\n      iszero\n      tag_423\n      jumpi\n        /* \"#utility.yul\":9297:9304   */\n      dup2\n        /* \"#utility.yul\":9291:9305   */\n      sload\n        /* \"#utility.yul\":9284:9288   */\n      0x20\n        /* \"#utility.yul\":9280:9281   */\n      dup3\n        /* \"#utility.yul\":9275:9278   */\n      dup11\n        /* \"#utility.yul\":9271:9282   */\n      add\n        /* \"#utility.yul\":9267:9289   */\n      add\n        /* \"#utility.yul\":9260:9306   */\n      mstore\n        /* \"#utility.yul\":9347:9348   */\n      0x01\n        /* \"#utility.yul\":9338:9345   */\n      dup3\n        /* \"#utility.yul\":9334:9349   */\n      add\n        /* \"#utility.yul\":9323:9349   */\n      swap2\n      pop\n        /* \"#utility.yul\":9222:9226   */\n      0x20\n        /* \"#utility.yul\":9219:9220   */\n      dup2\n        /* \"#utility.yul\":9215:9227   */\n      add\n        /* \"#utility.yul\":9210:9227   */\n      swap1\n      pop\n        /* \"#utility.yul\":9186:9363   */\n      jump(tag_421)\n    tag_423:\n        /* \"#utility.yul\":9387:9398   */\n      dup8\n      add\n        /* \"#utility.yul\":9400:9404   */\n      0x20\n        /* \"#utility.yul\":9383:9405   */\n      add\n      swap5\n      pop\n      pop\n        /* \"#utility.yul\":8875:9415   */\n    tag_418:\n      pop\n      pop\n      pop\n        /* \"#utility.yul\":8682:9421   */\n      swap3\n      swap2\n      pop\n      pop\n      jump\t// out\n        /* \"#utility.yul\":9426:10407   */\n    tag_137:\n        /* \"#utility.yul\":9610:9612   */\n      0x20\n        /* \"#utility.yul\":9592:9613   */\n      dup1\n      dup3\n      mstore\n        /* \"#utility.yul\":9649:9662   */\n      dup3\n      sload\n        /* \"#utility.yul\":9629:9647   */\n      swap1\n      dup3\n      add\n        /* \"#utility.yul\":9622:9663   */\n      mstore\n        /* \"#utility.yul\":9707:9711   */\n      0x01\n        /* \"#utility.yul\":9695:9712   */\n      dup3\n      add\n        /* \"#utility.yul\":9689:9713   */\n      sload\n      sub(shl(0xa0, 0x01), 0x01)\n        /* \"#utility.yul\":9741:9776   */\n      dup2\n      and\n        /* \"#utility.yul\":9793:9795   */\n      0x40\n        /* \"#utility.yul\":9778:9796   */\n      dup4\n      add\n        /* \"#utility.yul\":2615:2659   */\n      mstore\n      0x00\n      swap1\n        /* \"#utility.yul\":9806:9888   */\n      tag_426\n        /* \"#utility.yul\":9884:9886   */\n      0x60\n        /* \"#utility.yul\":9873:9882   */\n      dup5\n        /* \"#utility.yul\":9869:9887   */\n      add\n        /* \"#utility.yul\":9862:9866   */\n      0xff\n        /* \"#utility.yul\":9850:9859   */\n      dup4\n        /* \"#utility.yul\":9845:9848   */\n      0xa0\n        /* \"#utility.yul\":9841:9860   */\n      shr\n        /* \"#utility.yul\":9837:9867   */\n      and\n        /* \"#utility.yul\":9806:9888   */\n      tag_346\n      jump\t// in\n    tag_426:\n      pop\n        /* \"#utility.yul\":9943:9947   */\n      0x02\n        /* \"#utility.yul\":9931:9948   */\n      dup4\n      add\n        /* \"#utility.yul\":9925:9949   */\n      sload\n        /* \"#utility.yul\":9919:9922   */\n      0x80\n        /* \"#utility.yul\":9904:9923   */\n      dup4\n      add\n        /* \"#utility.yul\":9897:9950   */\n      mstore\n        /* \"#utility.yul\":10005:10009   */\n      0x03\n        /* \"#utility.yul\":9993:10010   */\n      dup4\n      add\n        /* \"#utility.yul\":9987:10011   */\n      sload\n        /* \"#utility.yul\":9981:9984   */\n      0xa0\n        /* \"#utility.yul\":9966:9985   */\n      dup4\n      add\n        /* \"#utility.yul\":9959:10012   */\n      mstore\n        /* \"#utility.yul\":10058:10062   */\n      0x04\n        /* \"#utility.yul\":10046:10063   */\n      dup4\n      add\n        /* \"#utility.yul\":10040:10064   */\n      sload\n        /* \"#utility.yul\":10106:10110   */\n      0xff\n        /* \"#utility.yul\":10089:10111   */\n      dup2\n      and\n        /* \"#utility.yul\":3239:3252   */\n      iszero\n        /* \"#utility.yul\":3232:3253   */\n      iszero\n        /* \"#utility.yul\":10128:10131   */\n      0xc0\n        /* \"#utility.yul\":10113:10132   */\n      dup5\n      add\n        /* \"#utility.yul\":3220:3254   */\n      mstore\n        /* \"#utility.yul\":10142:10210   */\n      tag_428\n        /* \"#utility.yul\":10205:10208   */\n      0xe0\n        /* \"#utility.yul\":10194:10203   */\n      dup5\n        /* \"#utility.yul\":10190:10209   */\n      add\n        /* \"#utility.yul\":10183:10187   */\n      0xff\n        /* \"#utility.yul\":10169:10180   */\n      dup4\n        /* \"#utility.yul\":10166:10167   */\n      0x08\n        /* \"#utility.yul\":10162:10181   */\n      shr\n        /* \"#utility.yul\":10158:10188   */\n      and\n        /* \"#utility.yul\":3239:3252   */\n      iszero\n        /* \"#utility.yul\":3232:3253   */\n      iszero\n        /* \"#utility.yul\":3220:3254   */\n      swap1\n      mstore\n        /* \"#utility.yul\":3169:3260   */\n      jump\n        /* \"#utility.yul\":10142:10210   */\n    tag_428:\n      pop\n        /* \"#utility.yul\":10265:10269   */\n      0x05\n        /* \"#utility.yul\":10257:10263   */\n      dup4\n        /* \"#utility.yul\":10253:10270   */\n      add\n        /* \"#utility.yul\":10247:10271   */\n      sload\n        /* \"#utility.yul\":10241:10244   */\n      0x0100\n        /* \"#utility.yul\":10230:10239   */\n      dup4\n        /* \"#utility.yul\":10226:10245   */\n      add\n        /* \"#utility.yul\":10219:10272   */\n      mstore\n        /* \"#utility.yul\":10312:10318   */\n      0x0120\n        /* \"#utility.yul\":10303:10309   */\n      dup1\n        /* \"#utility.yul\":10292:10301   */\n      dup4\n        /* \"#utility.yul\":10288:10310   */\n      add\n        /* \"#utility.yul\":10281:10319   */\n      mstore\n        /* \"#utility.yul\":10336:10401   */\n      tag_377\n        /* \"#utility.yul\":10396:10399   */\n      0x0140\n        /* \"#utility.yul\":10385:10394   */\n      dup4\n        /* \"#utility.yul\":10381:10400   */\n      add\n        /* \"#utility.yul\":10374:10378   */\n      0x06\n        /* \"#utility.yul\":10366:10372   */\n      dup6\n        /* \"#utility.yul\":10362:10379   */\n      add\n        /* \"#utility.yul\":10336:10401   */\n      tag_351\n      jump\t// in\n        /* \"#utility.yul\":11556:11850   */\n    tag_334:\n        /* \"#utility.yul\":11728:11734   */\n      dup3\n        /* \"#utility.yul\":11717:11726   */\n      dup2\n        /* \"#utility.yul\":11710:11735   */\n      mstore\n        /* \"#utility.yul\":11771:11773   */\n      0x40\n        /* \"#utility.yul\":11766:11768   */\n      0x20\n        /* \"#utility.yul\":11755:11764   */\n      dup3\n        /* \"#utility.yul\":11751:11769   */\n      add\n        /* \"#utility.yul\":11744:11774   */\n      mstore\n        /* \"#utility.yul\":11691:11695   */\n      0x00\n        /* \"#utility.yul\":11791:11844   */\n      tag_434\n        /* \"#utility.yul\":11840:11842   */\n      0x40\n        /* \"#utility.yul\":11829:11838   */\n      dup4\n        /* \"#utility.yul\":11825:11843   */\n      add\n        /* \"#utility.yul\":11817:11823   */\n      dup5\n        /* \"#utility.yul\":11791:11844   */\n      tag_351\n      jump\t// in\n    tag_434:\n        /* \"#utility.yul\":11783:11844   */\n      swap5\n        /* \"#utility.yul\":11556:11850   */\n      swap4\n      pop\n      pop\n      pop\n      pop\n      jump\t// out\n        /* \"#utility.yul\":11855:12248   */\n    tag_337:\n        /* \"#utility.yul\":12039:12064   */\n      dup4\n      dup2\n      mstore\n      sub(shl(0xa0, 0x01), 0x01)\n        /* \"#utility.yul\":12100:12132   */\n      dup4\n      and\n        /* \"#utility.yul\":12095:12097   */\n      0x20\n        /* \"#utility.yul\":12080:12098   */\n      dup3\n      add\n        /* \"#utility.yul\":12073:12133   */\n      mstore\n        /* \"#utility.yul\":12169:12171   */\n      0x60\n        /* \"#utility.yul\":12164:12166   */\n      0x40\n        /* \"#utility.yul\":12149:12167   */\n      dup3\n      add\n        /* \"#utility.yul\":12142:12172   */\n      dup2\n      swap1\n      mstore\n      0x00\n      swap1\n        /* \"#utility.yul\":12189:12242   */\n      tag_436\n      swap1\n        /* \"#utility.yul\":12223:12241   */\n      dup4\n      add\n        /* \"#utility.yul\":12215:12221   */\n      dup5\n        /* \"#utility.yul\":12189:12242   */\n      tag_351\n      jump\t// in\n    tag_436:\n        /* \"#utility.yul\":12181:12242   */\n      swap6\n        /* \"#utility.yul\":11855:12248   */\n      swap5\n      pop\n      pop\n      pop\n      pop\n      pop\n      jump\t// out\n\n    auxdata: 0xa2646970667358221220ddaef68a37ef1b07eabcedae2ae51a5ec117e43ea979585732946c66f2e5927d64736f6c634300081e0033\n}\n",
				"bytecode": {
					"linkReferences": {},
					"object": "60806040526004805460ff191690556001600c5534801561001e575f5ffd5b506040516114d13803806114d183398101604081905261003d9161011f565b816001600160a01b03811661006b57604051631e4fbdf760e01b81525f600482015260240160405180910390fd5b610074816100b5565b506001600160a01b038116156100a057600d80546001600160a01b0319166001600160a01b0383161790555b50506009805460ff191690555f600555610150565b5f80546001600160a01b038381166001600160a01b0319831681178455604051919092169283917f8be0079c531659141344cd1fd0a4f28419497f9722a3daafe3b4186f6b6457e09190a35050565b80516001600160a01b038116811461011a575f5ffd5b919050565b5f5f60408385031215610130575f5ffd5b61013983610104565b915061014760208401610104565b90509250929050565b6113748061015d5f395ff3fe608060405234801561000f575f5ffd5b50600436106100fb575f3560e01c80638da5cb5b11610093578063bf25c80c11610063578063bf25c80c146101e1578063f2fde38b14610204578063f608a36014610217578063f68baac114610254575f5ffd5b80638da5cb5b146101995780639d2ed12b146101a9578063a82b9060146101bc578063ac57e64e146101d9575f5ffd5b8063715018a6116100ce578063715018a6146101375780637aad40611461013f57806380b3880c1461015b5780638804d1b314610186575f5ffd5b80632f66b011146100ff578063311e431914610109578063440c1ec91461011c578063651a96af14610124575b5f5ffd5b610107610271565b005b610107610117366004610eae565b6102ce565b6101076104f2565b610107610132366004610f04565b61054f565b61010761077d565b61014860035481565b6040519081526020015b60405180910390f35b600d5461016e906001600160a01b031681565b6040516001600160a01b039091168152602001610152565b610107610194366004610f67565b61078e565b5f546001600160a01b031661016e565b6101076101b7366004610f7e565b61089f565b6004546101c99060ff1681565b6040519015158152602001610152565b6101076108c9565b6001546002546101ef919082565b60408051928352602083019190915201610152565b610107610212366004610f7e565b610920565b6040805180820182525f80825260209182015281518083018352600154808252600254918301918252835190815290519181019190915201610152565b61025c61095a565b60405161015299989796959493929190610fdf565b610279610a22565b6005541580159061028d575060095460ff16155b156102cc576009805461ffff191660011790556005546040517f5b2a724a870cf7fe2c83bd903795d3ba6163ee1091a97587edf93ff866e22965905f90a25b565b6102d6610a22565b600184600c8111156102ea576102ea610fab565b14806103075750600284600c81111561030557610305610fab565b145b806103235750600384600c81111561032157610321610fab565b145b8061033f5750600484600c81111561033d5761033d610fab565b145b8061035b5750600584600c81111561035957610359610fab565b145b806103775750600684600c81111561037557610375610fab565b145b806103935750600b84600c81111561039157610391610fab565b145b806103af5750600c84600c8111156103ad576103ad610fab565b145b61041f5760405162461bcd60e51b815260206004820152603660248201527f426974636f696e4e6574666c6f773a20496e76616c696420636f6e646974696f6044820152751b88199bdc881cda5b99db19481d1a1c995cda1bdb1960521b60648201526084015b60405180910390fd5b6005545f0361043f57600c8054905f61043783611066565b909155506005555b60068054336001600160a01b03198216811783558692916001600160a81b03191660ff60a01b1990911617600160a01b83600c81111561048157610481610fab565b021790555060078390555f600855600b61049c828483611122565b506009805461ffff191660011790555f600a556005805460405190917f3440945fea32b95db84a1da2429e3b2489a75ede5070a7e82bf894273c544032916104e4919061125b565b60405180910390a250505050565b6104fa610a22565b600554158015906105125750600954610100900460ff165b156102cc576009805461ff00191690556005546040517fc26f9c3201044d3757e27488cd192595aaf8b176842b2175ef47a4cdf1a53952905f90a2565b610557610a22565b600785600c81111561056b5761056b610fab565b14806105885750600885600c81111561058657610586610fab565b145b806105a45750600985600c8111156105a2576105a2610fab565b145b806105c05750600a85600c8111156105be576105be610fab565b145b6106285760405162461bcd60e51b815260206004820152603360248201527f426974636f696e4e6574666c6f773a20496e76616c696420636f6e646974696f6044820152721b88199bdc8818da185b9b995b08185b195c9d606a1b6064820152608401610416565b8284036106905760405162461bcd60e51b815260206004820152603060248201527f426974636f696e4e6574666c6f773a204368616e6e656c20626f756e6473206d60448201526f1d5cdd08189948191a5999995c995b9d60821b6064820152608401610416565b6005545f036106b057600c8054905f6106a883611066565b909155506005555b60068054336001600160a01b03198216811783558792916001600160a81b03191660ff60a01b1990911617600160a01b83600c8111156106f2576106f2610fab565b02179055508284121561070e5760078490556008839055610719565b600783905560088490555b600b610726828483611122565b506009805461ffff191660011790555f600a556005805460405190917f3440945fea32b95db84a1da2429e3b2489a75ede5070a7e82bf894273c5440329161076e919061125b565b60405180910390a25050505050565b610785610a22565b6102cc5f610a4e565b610796610a22565b60045460ff16806107a8575060025415155b156107b8576001546003556107be565b60038190555b6004805460ff191660019081179091558190554260028190556040805183815260208101929092527f6aa923a6c9209a2e21ae6e280a4db9b9ee735a6365236e562b53a25d23c1ef56910160405180910390a1600d546001600160a01b03161561088557600d54604051632a57f87b60e21b8152600154600482015260025460248201526001600160a01b039091169063a95fe1ec906044015f604051808303815f87803b15801561086e575f5ffd5b505af1158015610880573d5f5f3e3d5ffd5b505050505b60015460035460045461089c92919060ff16610a9d565b50565b6108a7610a22565b600d80546001600160a01b0319166001600160a01b0392909216919091179055565b6108d1610a22565b600554158015906108e4575060095460ff165b156102cc576009805460ff191690556005546040517fd7d997a7d5bb0e259c4bcbf9213b950fc2d302d3d30540c7671b3c2e6d33088d905f90a2565b610928610a22565b6001600160a01b03811661095157604051631e4fbdf760e01b81525f6004820152602401610416565b61089c81610a4e565b60058054600654600754600854600954600a54600b805496976001600160a01b0387169760ff600160a01b909804881697858116956101009004169392906109a19061109e565b80601f01602080910402602001604051908101604052809291908181526020018280546109cd9061109e565b8015610a185780601f106109ef57610100808354040283529160200191610a18565b820191905f5260205f20905b8154815290600101906020018083116109fb57829003601f168201915b5050505050905089565b5f546001600160a01b031633146102cc5760405163118cdaa760e01b8152336004820152602401610416565b5f80546001600160a01b038381166001600160a01b0319831681178455604051919092169283917f8be0079c531659141344cd1fd0a4f28419497f9722a3daafe3b4186f6b6457e09190a35050565b60095460ff161580610ab65750600954610100900460ff165b80610ac15750600554155b15610acb57505050565b6006546007546008545f92600160a01b900460ff1691908190600184600c811115610af857610af8610fab565b03610b0f5782881315610b0a57600194505b610d7a565b600284600c811115610b2357610b23610fab565b03610b395782881215610b0a5760019450610d7a565b600384600c811115610b4d57610b4d610fab565b03610b6257828803610b0a5760019450610d7a565b8515610d7a57600484600c811115610b7c57610b7c610fab565b03610bb3578287128015610b905750828812155b80610ba557508287138015610ba55750828813155b15610b0a5760019450610d7a565b600584600c811115610bc757610bc7610fab565b03610be6578287128015610ba55750828812610b0a5760019450610d7a565b600684600c811115610bfa57610bfa610fab565b03610c19578287138015610ba55750828813610b0a5760019450610d7a565b600784600c811115610c2d57610c2d610fab565b03610c70575f82881280610c4057508188135b90505f838a12158015610c535750828a13155b9050818015610c5f5750805b15610c6957600196505b5050610d7a565b600884600c811115610c8457610c84610fab565b03610cc3575f828812158015610c9a5750818813155b90505f838a1280610c53575050818913818015610c5f57508015610c6957600196505050610d7a565b600984600c811115610cd757610cd7610fab565b03610cf757818812158015610ba55750808813610b0a5760019450610d7a565b600a84600c811115610d0b57610d0b610fab565b03610d2a5781881280610ba5575080881315610b0a5760019450610d7a565b600b84600c811115610d3e57610d3e610fab565b03610d545786881315610b0a5760019450610d7a565b600c84600c811115610d6857610d68610fab565b03610d7a5786881215610d7a57600194505b8415610e4c576009805461ff00191661010017905542600a556005546040517ffd1237999c3a51192c69c42973f8afdb29066bcacb8f3b3569f68f871127280990610dc9908b90600b906112ec565b60405180910390a2600d546001600160a01b031615610e4c57600d5460055460065460405163fbe93de360e01b81526001600160a01b039384169363fbe93de393610e1e939092911690600b9060040161130c565b5f604051808303815f87803b158015610e35575f5ffd5b505af1158015610e47573d5f5f3e3d5ffd5b505050505b5050505050505050565b8035600d8110610e64575f5ffd5b919050565b5f5f83601f840112610e79575f5ffd5b50813567ffffffffffffffff811115610e90575f5ffd5b602083019150836020828501011115610ea7575f5ffd5b9250929050565b5f5f5f5f60608587031215610ec1575f5ffd5b610eca85610e56565b935060208501359250604085013567ffffffffffffffff811115610eec575f5ffd5b610ef887828801610e69565b95989497509550505050565b5f5f5f5f5f60808688031215610f18575f5ffd5b610f2186610e56565b94506020860135935060408601359250606086013567ffffffffffffffff811115610f4a575f5ffd5b610f5688828901610e69565b969995985093965092949392505050565b5f60208284031215610f77575f5ffd5b5035919050565b5f60208284031215610f8e575f5ffd5b81356001600160a01b0381168114610fa4575f5ffd5b9392505050565b634e487b7160e01b5f52602160045260245ffd5b600d8110610fdb57634e487b7160e01b5f52602160045260245ffd5b9052565b8981526001600160a01b0389166020820152610ffe6040820189610fbf565b86606082015285608082015284151560a082015283151560c08201528260e08201526101206101008201525f825180610120840152806020850161014085015e5f6101408285010152610140601f19601f8301168401019150509a9950505050505050505050565b5f6001820161108357634e487b7160e01b5f52601160045260245ffd5b5060010190565b634e487b7160e01b5f52604160045260245ffd5b600181811c908216806110b257607f821691505b6020821081036110d057634e487b7160e01b5f52602260045260245ffd5b50919050565b601f82111561111d57805f5260205f20601f840160051c810160208510156110fb5750805b601f840160051c820191505b8181101561111a575f8155600101611107565b50505b505050565b67ffffffffffffffff83111561113a5761113a61108a565b61114e83611148835461109e565b836110d6565b5f601f84116001811461117f575f85156111685750838201355b5f19600387901b1c1916600186901b17835561111a565b5f83815260208120601f198716915b828110156111ae578685013582556020948501946001909201910161118e565b50868210156111ca575f1960f88860031b161c19848701351681555b505060018560011b0183555050505050565b5f81546111e88161109e565b808552600182168015611202576001811461121e57611252565b60ff1983166020870152602082151560051b8701019350611252565b845f5260205f205f5b838110156112495781546020828a010152600182019150602081019050611227565b87016020019450505b50505092915050565b602080825282549082015260018201546001600160a01b03811660408301525f9061128f6060840160ff8360a01c16610fbf565b5060028301546080830152600383015460a0830152600483015460ff8116151560c08401526112c860e0840160ff8360081c1615159052565b50600583015461010083015261012080830152610fa46101408301600685016111dc565b828152604060208201525f61130460408301846111dc565b949350505050565b8381526001600160a01b03831660208201526060604082018190525f90611335908301846111dc565b9594505050505056fea2646970667358221220ddaef68a37ef1b07eabcedae2ae51a5ec117e43ea979585732946c66f2e5927d64736f6c634300081e0033",
					"opcodes": "PUSH1 0x80 PUSH1 0x40 MSTORE PUSH1 0x4 DUP1 SLOAD PUSH1 0xFF NOT AND SWAP1 SSTORE PUSH1 0x1 PUSH1 0xC SSTORE CALLVALUE DUP1 ISZERO PUSH2 0x1E JUMPI PUSH0 PUSH0 REVERT JUMPDEST POP PUSH1 0x40 MLOAD PUSH2 0x14D1 CODESIZE SUB DUP1 PUSH2 0x14D1 DUP4 CODECOPY DUP2 ADD PUSH1 0x40 DUP2 SWAP1 MSTORE PUSH2 0x3D SWAP2 PUSH2 0x11F JUMP JUMPDEST DUP2 PUSH1 0x1 PUSH1 0x1 PUSH1 0xA0 SHL SUB DUP2 AND PUSH2 0x6B JUMPI PUSH1 0x40 MLOAD PUSH4 0x1E4FBDF7 PUSH1 0xE0 SHL DUP2 MSTORE PUSH0 PUSH1 0x4 DUP3 ADD MSTORE PUSH1 0x24 ADD PUSH1 0x40 MLOAD DUP1 SWAP2 SUB SWAP1 REVERT JUMPDEST PUSH2 0x74 DUP2 PUSH2 0xB5 JUMP JUMPDEST POP PUSH1 0x1 PUSH1 0x1 PUSH1 0xA0 SHL SUB DUP2 AND ISZERO PUSH2 0xA0 JUMPI PUSH1 0xD DUP1 SLOAD PUSH1 0x1 PUSH1 0x1 PUSH1 0xA0 SHL SUB NOT AND PUSH1 0x1 PUSH1 0x1 PUSH1 0xA0 SHL SUB DUP4 AND OR SWAP1 SSTORE JUMPDEST POP POP PUSH1 0x9 DUP1 SLOAD PUSH1 0xFF NOT AND SWAP1 SSTORE PUSH0 PUSH1 0x5 SSTORE PUSH2 0x150 JUMP JUMPDEST PUSH0 DUP1 SLOAD PUSH1 0x1 PUSH1 0x1 PUSH1 0xA0 SHL SUB DUP4 DUP2 AND PUSH1 0x1 PUSH1 0x1 PUSH1 0xA0 SHL SUB NOT DUP4 AND DUP2 OR DUP5 SSTORE PUSH1 0x40 MLOAD SWAP2 SWAP1 SWAP3 AND SWAP3 DUP4 SWAP2 PUSH32 0x8BE0079C531659141344CD1FD0A4F28419497F9722A3DAAFE3B4186F6B6457E0 SWAP2 SWAP1 LOG3 POP POP JUMP JUMPDEST DUP1 MLOAD PUSH1 0x1 PUSH1 0x1 PUSH1 0xA0 SHL SUB DUP2 AND DUP2 EQ PUSH2 0x11A JUMPI PUSH0 PUSH0 REVERT JUMPDEST SWAP2 SWAP1 POP JUMP JUMPDEST PUSH0 PUSH0 PUSH1 0x40 DUP4 DUP6 SUB SLT ISZERO PUSH2 0x130 JUMPI PUSH0 PUSH0 REVERT JUMPDEST PUSH2 0x139 DUP4 PUSH2 0x104 JUMP JUMPDEST SWAP2 POP PUSH2 0x147 PUSH1 0x20 DUP5 ADD PUSH2 0x104 JUMP JUMPDEST SWAP1 POP SWAP3 POP SWAP3 SWAP1 POP JUMP JUMPDEST PUSH2 0x1374 DUP1 PUSH2 0x15D PUSH0 CODECOPY PUSH0 RETURN INVALID PUSH1 0x80 PUSH1 0x40 MSTORE CALLVALUE DUP1 ISZERO PUSH2 0xF JUMPI PUSH0 PUSH0 REVERT JUMPDEST POP PUSH1 0x4 CALLDATASIZE LT PUSH2 0xFB JUMPI PUSH0 CALLDATALOAD PUSH1 0xE0 SHR DUP1 PUSH4 0x8DA5CB5B GT PUSH2 0x93 JUMPI DUP1 PUSH4 0xBF25C80C GT PUSH2 0x63 JUMPI DUP1 PUSH4 0xBF25C80C EQ PUSH2 0x1E1 JUMPI DUP1 PUSH4 0xF2FDE38B EQ PUSH2 0x204 JUMPI DUP1 PUSH4 0xF608A360 EQ PUSH2 0x217 JUMPI DUP1 PUSH4 0xF68BAAC1 EQ PUSH2 0x254 JUMPI PUSH0 PUSH0 REVERT JUMPDEST DUP1 PUSH4 0x8DA5CB5B EQ PUSH2 0x199 JUMPI DUP1 PUSH4 0x9D2ED12B EQ PUSH2 0x1A9 JUMPI DUP1 PUSH4 0xA82B9060 EQ PUSH2 0x1BC JUMPI DUP1 PUSH4 0xAC57E64E EQ PUSH2 0x1D9 JUMPI PUSH0 PUSH0 REVERT JUMPDEST DUP1 PUSH4 0x715018A6 GT PUSH2 0xCE JUMPI DUP1 PUSH4 0x715018A6 EQ PUSH2 0x137 JUMPI DUP1 PUSH4 0x7AAD4061 EQ PUSH2 0x13F JUMPI DUP1 PUSH4 0x80B3880C EQ PUSH2 0x15B JUMPI DUP1 PUSH4 0x8804D1B3 EQ PUSH2 0x186 JUMPI PUSH0 PUSH0 REVERT JUMPDEST DUP1 PUSH4 0x2F66B011 EQ PUSH2 0xFF JUMPI DUP1 PUSH4 0x311E4319 EQ PUSH2 0x109 JUMPI DUP1 PUSH4 0x440C1EC9 EQ PUSH2 0x11C JUMPI DUP1 PUSH4 0x651A96AF EQ PUSH2 0x124 JUMPI JUMPDEST PUSH0 PUSH0 REVERT JUMPDEST PUSH2 0x107 PUSH2 0x271 JUMP JUMPDEST STOP JUMPDEST PUSH2 0x107 PUSH2 0x117 CALLDATASIZE PUSH1 0x4 PUSH2 0xEAE JUMP JUMPDEST PUSH2 0x2CE JUMP JUMPDEST PUSH2 0x107 PUSH2 0x4F2 JUMP JUMPDEST PUSH2 0x107 PUSH2 0x132 CALLDATASIZE PUSH1 0x4 PUSH2 0xF04 JUMP JUMPDEST PUSH2 0x54F JUMP JUMPDEST PUSH2 0x107 PUSH2 0x77D JUMP JUMPDEST PUSH2 0x148 PUSH1 0x3 SLOAD DUP2 JUMP JUMPDEST PUSH1 0x40 MLOAD SWAP1 DUP2 MSTORE PUSH1 0x20 ADD JUMPDEST PUSH1 0x40 MLOAD DUP1 SWAP2 SUB SWAP1 RETURN JUMPDEST PUSH1 0xD SLOAD PUSH2 0x16E SWAP1 PUSH1 0x1 PUSH1 0x1 PUSH1 0xA0 SHL SUB AND DUP2 JUMP JUMPDEST PUSH1 0x40 MLOAD PUSH1 0x1 PUSH1 0x1 PUSH1 0xA0 SHL SUB SWAP1 SWAP2 AND DUP2 MSTORE PUSH1 0x20 ADD PUSH2 0x152 JUMP JUMPDEST PUSH2 0x107 PUSH2 0x194 CALLDATASIZE PUSH1 0x4 PUSH2 0xF67 JUMP JUMPDEST PUSH2 0x78E JUMP JUMPDEST PUSH0 SLOAD PUSH1 0x1 PUSH1 0x1 PUSH1 0xA0 SHL SUB AND PUSH2 0x16E JUMP JUMPDEST PUSH2 0x107 PUSH2 0x1B7 CALLDATASIZE PUSH1 0x4 PUSH2 0xF7E JUMP JUMPDEST PUSH2 0x89F JUMP JUMPDEST PUSH1 0x4 SLOAD PUSH2 0x1C9 SWAP1 PUSH1 0xFF AND DUP2 JUMP JUMPDEST PUSH1 0x40 MLOAD SWAP1 ISZERO ISZERO DUP2 MSTORE PUSH1 0x20 ADD PUSH2 0x152 JUMP JUMPDEST PUSH2 0x107 PUSH2 0x8C9 JUMP JUMPDEST PUSH1 0x1 SLOAD PUSH1 0x2 SLOAD PUSH2 0x1EF SWAP2 SWAP1 DUP3 JUMP JUMPDEST PUSH1 0x40 DUP1 MLOAD SWAP3 DUP4 MSTORE PUSH1 0x20 DUP4 ADD SWAP2 SWAP1 SWAP2 MSTORE ADD PUSH2 0x152 JUMP JUMPDEST PUSH2 0x107 PUSH2 0x212 CALLDATASIZE PUSH1 0x4 PUSH2 0xF7E JUMP JUMPDEST PUSH2 0x920 JUMP JUMPDEST PUSH1 0x40 DUP1 MLOAD DUP1 DUP3 ADD DUP3 MSTORE PUSH0 DUP1 DUP3 MSTORE PUSH1 0x20 SWAP2 DUP3 ADD MSTORE DUP2 MLOAD DUP1 DUP4 ADD DUP4 MSTORE PUSH1 0x1 SLOAD DUP1 DUP3 MSTORE PUSH1 0x2 SLOAD SWAP2 DUP4 ADD SWAP2 DUP3 MSTORE DUP4 MLOAD SWAP1 DUP2 MSTORE SWAP1 MLOAD SWAP2 DUP2 ADD SWAP2 SWAP1 SWAP2 MSTORE ADD PUSH2 0x152 JUMP JUMPDEST PUSH2 0x25C PUSH2 0x95A JUMP JUMPDEST PUSH1 0x40 MLOAD PUSH2 0x152 SWAP10 SWAP9 SWAP8 SWAP7 SWAP6 SWAP5 SWAP4 SWAP3 SWAP2 SWAP1 PUSH2 0xFDF JUMP JUMPDEST PUSH2 0x279 PUSH2 0xA22 JUMP JUMPDEST PUSH1 0x5 SLOAD ISZERO DUP1 ISZERO SWAP1 PUSH2 0x28D JUMPI POP PUSH1 0x9 SLOAD PUSH1 0xFF AND ISZERO JUMPDEST ISZERO PUSH2 0x2CC JUMPI PUSH1 0x9 DUP1 SLOAD PUSH2 0xFFFF NOT AND PUSH1 0x1 OR SWAP1 SSTORE PUSH1 0x5 SLOAD PUSH1 0x40 MLOAD PUSH32 0x5B2A724A870CF7FE2C83BD903795D3BA6163EE1091A97587EDF93FF866E22965 SWAP1 PUSH0 SWAP1 LOG2 JUMPDEST JUMP JUMPDEST PUSH2 0x2D6 PUSH2 0xA22 JUMP JUMPDEST PUSH1 0x1 DUP5 PUSH1 0xC DUP2 GT ISZERO PUSH2 0x2EA JUMPI PUSH2 0x2EA PUSH2 0xFAB JUMP JUMPDEST EQ DUP1 PUSH2 0x307 JUMPI POP PUSH1 0x2 DUP5 PUSH1 0xC DUP2 GT ISZERO PUSH2 0x305 JUMPI PUSH2 0x305 PUSH2 0xFAB JUMP JUMPDEST EQ JUMPDEST DUP1 PUSH2 0x323 JUMPI POP PUSH1 0x3 DUP5 PUSH1 0xC DUP2 GT ISZERO PUSH2 0x321 JUMPI PUSH2 0x321 PUSH2 0xFAB JUMP JUMPDEST EQ JUMPDEST DUP1 PUSH2 0x33F JUMPI POP PUSH1 0x4 DUP5 PUSH1 0xC DUP2 GT ISZERO PUSH2 0x33D JUMPI PUSH2 0x33D PUSH2 0xFAB JUMP JUMPDEST EQ JUMPDEST DUP1 PUSH2 0x35B JUMPI POP PUSH1 0x5 DUP5 PUSH1 0xC DUP2 GT ISZERO PUSH2 0x359 JUMPI PUSH2 0x359 PUSH2 0xFAB JUMP JUMPDEST EQ JUMPDEST DUP1 PUSH2 0x377 JUMPI POP PUSH1 0x6 DUP5 PUSH1 0xC DUP2 GT ISZERO PUSH2 0x375 JUMPI PUSH2 0x375 PUSH2 0xFAB JUMP JUMPDEST EQ JUMPDEST DUP1 PUSH2 0x393 JUMPI POP PUSH1 0xB DUP5 PUSH1 0xC DUP2 GT ISZERO PUSH2 0x391 JUMPI PUSH2 0x391 PUSH2 0xFAB JUMP JUMPDEST EQ JUMPDEST DUP1 PUSH2 0x3AF JUMPI POP PUSH1 0xC DUP5 PUSH1 0xC DUP2 GT ISZERO PUSH2 0x3AD JUMPI PUSH2 0x3AD PUSH2 0xFAB JUMP JUMPDEST EQ JUMPDEST PUSH2 0x41F JUMPI PUSH1 0x40 MLOAD PUSH3 0x461BCD PUSH1 0xE5 SHL DUP2 MSTORE PUSH1 0x20 PUSH1 0x4 DUP3 ADD MSTORE PUSH1 0x36 PUSH1 0x24 DUP3 ADD MSTORE PUSH32 0x426974636F696E4E6574666C6F773A20496E76616C696420636F6E646974696F PUSH1 0x44 DUP3 ADD MSTORE PUSH22 0x1B88199BDC881CDA5B99DB19481D1A1C995CDA1BDB19 PUSH1 0x52 SHL PUSH1 0x64 DUP3 ADD MSTORE PUSH1 0x84 ADD JUMPDEST PUSH1 0x40 MLOAD DUP1 SWAP2 SUB SWAP1 REVERT JUMPDEST PUSH1 0x5 SLOAD PUSH0 SUB PUSH2 0x43F JUMPI PUSH1 0xC DUP1 SLOAD SWAP1 PUSH0 PUSH2 0x437 DUP4 PUSH2 0x1066 JUMP JUMPDEST SWAP1 SWAP2 SSTORE POP PUSH1 0x5 SSTORE JUMPDEST PUSH1 0x6 DUP1 SLOAD CALLER PUSH1 0x1 PUSH1 0x1 PUSH1 0xA0 SHL SUB NOT DUP3 AND DUP2 OR DUP4 SSTORE DUP7 SWAP3 SWAP2 PUSH1 0x1 PUSH1 0x1 PUSH1 0xA8 SHL SUB NOT AND PUSH1 0xFF PUSH1 0xA0 SHL NOT SWAP1 SWAP2 AND OR PUSH1 0x1 PUSH1 0xA0 SHL DUP4 PUSH1 0xC DUP2 GT ISZERO PUSH2 0x481 JUMPI PUSH2 0x481 PUSH2 0xFAB JUMP JUMPDEST MUL OR SWAP1 SSTORE POP PUSH1 0x7 DUP4 SWAP1 SSTORE PUSH0 PUSH1 0x8 SSTORE PUSH1 0xB PUSH2 0x49C DUP3 DUP5 DUP4 PUSH2 0x1122 JUMP JUMPDEST POP PUSH1 0x9 DUP1 SLOAD PUSH2 0xFFFF NOT AND PUSH1 0x1 OR SWAP1 SSTORE PUSH0 PUSH1 0xA SSTORE PUSH1 0x5 DUP1 SLOAD PUSH1 0x40 MLOAD SWAP1 SWAP2 PUSH32 0x3440945FEA32B95DB84A1DA2429E3B2489A75EDE5070A7E82BF894273C544032 SWAP2 PUSH2 0x4E4 SWAP2 SWAP1 PUSH2 0x125B JUMP JUMPDEST PUSH1 0x40 MLOAD DUP1 SWAP2 SUB SWAP1 LOG2 POP POP POP POP JUMP JUMPDEST PUSH2 0x4FA PUSH2 0xA22 JUMP JUMPDEST PUSH1 0x5 SLOAD ISZERO DUP1 ISZERO SWAP1 PUSH2 0x512 JUMPI POP PUSH1 0x9 SLOAD PUSH2 0x100 SWAP1 DIV PUSH1 0xFF AND JUMPDEST ISZERO PUSH2 0x2CC JUMPI PUSH1 0x9 DUP1 SLOAD PUSH2 0xFF00 NOT AND SWAP1 SSTORE PUSH1 0x5 SLOAD PUSH1 0x40 MLOAD PUSH32 0xC26F9C3201044D3757E27488CD192595AAF8B176842B2175EF47A4CDF1A53952 SWAP1 PUSH0 SWAP1 LOG2 JUMP JUMPDEST PUSH2 0x557 PUSH2 0xA22 JUMP JUMPDEST PUSH1 0x7 DUP6 PUSH1 0xC DUP2 GT ISZERO PUSH2 0x56B JUMPI PUSH2 0x56B PUSH2 0xFAB JUMP JUMPDEST EQ DUP1 PUSH2 0x588 JUMPI POP PUSH1 0x8 DUP6 PUSH1 0xC DUP2 GT ISZERO PUSH2 0x586 JUMPI PUSH2 0x586 PUSH2 0xFAB JUMP JUMPDEST EQ JUMPDEST DUP1 PUSH2 0x5A4 JUMPI POP PUSH1 0x9 DUP6 PUSH1 0xC DUP2 GT ISZERO PUSH2 0x5A2 JUMPI PUSH2 0x5A2 PUSH2 0xFAB JUMP JUMPDEST EQ JUMPDEST DUP1 PUSH2 0x5C0 JUMPI POP PUSH1 0xA DUP6 PUSH1 0xC DUP2 GT ISZERO PUSH2 0x5BE JUMPI PUSH2 0x5BE PUSH2 0xFAB JUMP JUMPDEST EQ JUMPDEST PUSH2 0x628 JUMPI PUSH1 0x40 MLOAD PUSH3 0x461BCD PUSH1 0xE5 SHL DUP2 MSTORE PUSH1 0x20 PUSH1 0x4 DUP3 ADD MSTORE PUSH1 0x33 PUSH1 0x24 DUP3 ADD MSTORE PUSH32 0x426974636F696E4E6574666C6F773A20496E76616C696420636F6E646974696F PUSH1 0x44 DUP3 ADD MSTORE PUSH19 0x1B88199BDC8818DA185B9B995B08185B195C9D PUSH1 0x6A SHL PUSH1 0x64 DUP3 ADD MSTORE PUSH1 0x84 ADD PUSH2 0x416 JUMP JUMPDEST DUP3 DUP5 SUB PUSH2 0x690 JUMPI PUSH1 0x40 MLOAD PUSH3 0x461BCD PUSH1 0xE5 SHL DUP2 MSTORE PUSH1 0x20 PUSH1 0x4 DUP3 ADD MSTORE PUSH1 0x30 PUSH1 0x24 DUP3 ADD MSTORE PUSH32 0x426974636F696E4E6574666C6F773A204368616E6E656C20626F756E6473206D PUSH1 0x44 DUP3 ADD MSTORE PUSH16 0x1D5CDD08189948191A5999995C995B9D PUSH1 0x82 SHL PUSH1 0x64 DUP3 ADD MSTORE PUSH1 0x84 ADD PUSH2 0x416 JUMP JUMPDEST PUSH1 0x5 SLOAD PUSH0 SUB PUSH2 0x6B0 JUMPI PUSH1 0xC DUP1 SLOAD SWAP1 PUSH0 PUSH2 0x6A8 DUP4 PUSH2 0x1066 JUMP JUMPDEST SWAP1 SWAP2 SSTORE POP PUSH1 0x5 SSTORE JUMPDEST PUSH1 0x6 DUP1 SLOAD CALLER PUSH1 0x1 PUSH1 0x1 PUSH1 0xA0 SHL SUB NOT DUP3 AND DUP2 OR DUP4 SSTORE DUP8 SWAP3 SWAP2 PUSH1 0x1 PUSH1 0x1 PUSH1 0xA8 SHL SUB NOT AND PUSH1 0xFF PUSH1 0xA0 SHL NOT SWAP1 SWAP2 AND OR PUSH1 0x1 PUSH1 0xA0 SHL DUP4 PUSH1 0xC DUP2 GT ISZERO PUSH2 0x6F2 JUMPI PUSH2 0x6F2 PUSH2 0xFAB JUMP JUMPDEST MUL OR SWAP1 SSTORE POP DUP3 DUP5 SLT ISZERO PUSH2 0x70E JUMPI PUSH1 0x7 DUP5 SWAP1 SSTORE PUSH1 0x8 DUP4 SWAP1 SSTORE PUSH2 0x719 JUMP JUMPDEST PUSH1 0x7 DUP4 SWAP1 SSTORE PUSH1 0x8 DUP5 SWAP1 SSTORE JUMPDEST PUSH1 0xB PUSH2 0x726 DUP3 DUP5 DUP4 PUSH2 0x1122 JUMP JUMPDEST POP PUSH1 0x9 DUP1 SLOAD PUSH2 0xFFFF NOT AND PUSH1 0x1 OR SWAP1 SSTORE PUSH0 PUSH1 0xA SSTORE PUSH1 0x5 DUP1 SLOAD PUSH1 0x40 MLOAD SWAP1 SWAP2 PUSH32 0x3440945FEA32B95DB84A1DA2429E3B2489A75EDE5070A7E82BF894273C544032 SWAP2 PUSH2 0x76E SWAP2 SWAP1 PUSH2 0x125B JUMP JUMPDEST PUSH1 0x40 MLOAD DUP1 SWAP2 SUB SWAP1 LOG2 POP POP POP POP POP JUMP JUMPDEST PUSH2 0x785 PUSH2 0xA22 JUMP JUMPDEST PUSH2 0x2CC PUSH0 PUSH2 0xA4E JUMP JUMPDEST PUSH2 0x796 PUSH2 0xA22 JUMP JUMPDEST PUSH1 0x4 SLOAD PUSH1 0xFF AND DUP1 PUSH2 0x7A8 JUMPI POP PUSH1 0x2 SLOAD ISZERO ISZERO JUMPDEST ISZERO PUSH2 0x7B8 JUMPI PUSH1 0x1 SLOAD PUSH1 0x3 SSTORE PUSH2 0x7BE JUMP JUMPDEST PUSH1 0x3 DUP2 SWAP1 SSTORE JUMPDEST PUSH1 0x4 DUP1 SLOAD PUSH1 0xFF NOT AND PUSH1 0x1 SWAP1 DUP2 OR SWAP1 SWAP2 SSTORE DUP2 SWAP1 SSTORE TIMESTAMP PUSH1 0x2 DUP2 SWAP1 SSTORE PUSH1 0x40 DUP1 MLOAD DUP4 DUP2 MSTORE PUSH1 0x20 DUP2 ADD SWAP3 SWAP1 SWAP3 MSTORE PUSH32 0x6AA923A6C9209A2E21AE6E280A4DB9B9EE735A6365236E562B53A25D23C1EF56 SWAP2 ADD PUSH1 0x40 MLOAD DUP1 SWAP2 SUB SWAP1 LOG1 PUSH1 0xD SLOAD PUSH1 0x1 PUSH1 0x1 PUSH1 0xA0 SHL SUB AND ISZERO PUSH2 0x885 JUMPI PUSH1 0xD SLOAD PUSH1 0x40 MLOAD PUSH4 0x2A57F87B PUSH1 0xE2 SHL DUP2 MSTORE PUSH1 0x1 SLOAD PUSH1 0x4 DUP3 ADD MSTORE PUSH1 0x2 SLOAD PUSH1 0x24 DUP3 ADD MSTORE PUSH1 0x1 PUSH1 0x1 PUSH1 0xA0 SHL SUB SWAP1 SWAP2 AND SWAP1 PUSH4 0xA95FE1EC SWAP1 PUSH1 0x44 ADD PUSH0 PUSH1 0x40 MLOAD DUP1 DUP4 SUB DUP2 PUSH0 DUP8 DUP1 EXTCODESIZE ISZERO DUP1 ISZERO PUSH2 0x86E JUMPI PUSH0 PUSH0 REVERT JUMPDEST POP GAS CALL ISZERO DUP1 ISZERO PUSH2 0x880 JUMPI RETURNDATASIZE PUSH0 PUSH0 RETURNDATACOPY RETURNDATASIZE PUSH0 REVERT JUMPDEST POP POP POP POP JUMPDEST PUSH1 0x1 SLOAD PUSH1 0x3 SLOAD PUSH1 0x4 SLOAD PUSH2 0x89C SWAP3 SWAP2 SWAP1 PUSH1 0xFF AND PUSH2 0xA9D JUMP JUMPDEST POP JUMP JUMPDEST PUSH2 0x8A7 PUSH2 0xA22 JUMP JUMPDEST PUSH1 0xD DUP1 SLOAD PUSH1 0x1 PUSH1 0x1 PUSH1 0xA0 SHL SUB NOT AND PUSH1 0x1 PUSH1 0x1 PUSH1 0xA0 SHL SUB SWAP3 SWAP1 SWAP3 AND SWAP2 SWAP1 SWAP2 OR SWAP1 SSTORE JUMP JUMPDEST PUSH2 0x8D1 PUSH2 0xA22 JUMP JUMPDEST PUSH1 0x5 SLOAD ISZERO DUP1 ISZERO SWAP1 PUSH2 0x8E4 JUMPI POP PUSH1 0x9 SLOAD PUSH1 0xFF AND JUMPDEST ISZERO PUSH2 0x2CC JUMPI PUSH1 0x9 DUP1 SLOAD PUSH1 0xFF NOT AND SWAP1 SSTORE PUSH1 0x5 SLOAD PUSH1 0x40 MLOAD PUSH32 0xD7D997A7D5BB0E259C4BCBF9213B950FC2D302D3D30540C7671B3C2E6D33088D SWAP1 PUSH0 SWAP1 LOG2 JUMP JUMPDEST PUSH2 0x928 PUSH2 0xA22 JUMP JUMPDEST PUSH1 0x1 PUSH1 0x1 PUSH1 0xA0 SHL SUB DUP2 AND PUSH2 0x951 JUMPI PUSH1 0x40 MLOAD PUSH4 0x1E4FBDF7 PUSH1 0xE0 SHL DUP2 MSTORE PUSH0 PUSH1 0x4 DUP3 ADD MSTORE PUSH1 0x24 ADD PUSH2 0x416 JUMP JUMPDEST PUSH2 0x89C DUP2 PUSH2 0xA4E JUMP JUMPDEST PUSH1 0x5 DUP1 SLOAD PUSH1 0x6 SLOAD PUSH1 0x7 SLOAD PUSH1 0x8 SLOAD PUSH1 0x9 SLOAD PUSH1 0xA SLOAD PUSH1 0xB DUP1 SLOAD SWAP7 SWAP8 PUSH1 0x1 PUSH1 0x1 PUSH1 0xA0 SHL SUB DUP8 AND SWAP8 PUSH1 0xFF PUSH1 0x1 PUSH1 0xA0 SHL SWAP1 SWAP9 DIV DUP9 AND SWAP8 DUP6 DUP2 AND SWAP6 PUSH2 0x100 SWAP1 DIV AND SWAP4 SWAP3 SWAP1 PUSH2 0x9A1 SWAP1 PUSH2 0x109E JUMP JUMPDEST DUP1 PUSH1 0x1F ADD PUSH1 0x20 DUP1 SWAP2 DIV MUL PUSH1 0x20 ADD PUSH1 0x40 MLOAD SWAP1 DUP2 ADD PUSH1 0x40 MSTORE DUP1 SWAP3 SWAP2 SWAP1 DUP2 DUP2 MSTORE PUSH1 0x20 ADD DUP3 DUP1 SLOAD PUSH2 0x9CD SWAP1 PUSH2 0x109E JUMP JUMPDEST DUP1 ISZERO PUSH2 0xA18 JUMPI DUP1 PUSH1 0x1F LT PUSH2 0x9EF JUMPI PUSH2 0x100 DUP1 DUP4 SLOAD DIV MUL DUP4 MSTORE SWAP2 PUSH1 0x20 ADD SWAP2 PUSH2 0xA18 JUMP JUMPDEST DUP3 ADD SWAP2 SWAP1 PUSH0 MSTORE PUSH1 0x20 PUSH0 KECCAK256 SWAP1 JUMPDEST DUP2 SLOAD DUP2 MSTORE SWAP1 PUSH1 0x1 ADD SWAP1 PUSH1 0x20 ADD DUP1 DUP4 GT PUSH2 0x9FB JUMPI DUP3 SWAP1 SUB PUSH1 0x1F AND DUP3 ADD SWAP2 JUMPDEST POP POP POP POP POP SWAP1 POP DUP10 JUMP JUMPDEST PUSH0 SLOAD PUSH1 0x1 PUSH1 0x1 PUSH1 0xA0 SHL SUB AND CALLER EQ PUSH2 0x2CC JUMPI PUSH1 0x40 MLOAD PUSH4 0x118CDAA7 PUSH1 0xE0 SHL DUP2 MSTORE CALLER PUSH1 0x4 DUP3 ADD MSTORE PUSH1 0x24 ADD PUSH2 0x416 JUMP JUMPDEST PUSH0 DUP1 SLOAD PUSH1 0x1 PUSH1 0x1 PUSH1 0xA0 SHL SUB DUP4 DUP2 AND PUSH1 0x1 PUSH1 0x1 PUSH1 0xA0 SHL SUB NOT DUP4 AND DUP2 OR DUP5 SSTORE PUSH1 0x40 MLOAD SWAP2 SWAP1 SWAP3 AND SWAP3 DUP4 SWAP2 PUSH32 0x8BE0079C531659141344CD1FD0A4F28419497F9722A3DAAFE3B4186F6B6457E0 SWAP2 SWAP1 LOG3 POP POP JUMP JUMPDEST PUSH1 0x9 SLOAD PUSH1 0xFF AND ISZERO DUP1 PUSH2 0xAB6 JUMPI POP PUSH1 0x9 SLOAD PUSH2 0x100 SWAP1 DIV PUSH1 0xFF AND JUMPDEST DUP1 PUSH2 0xAC1 JUMPI POP PUSH1 0x5 SLOAD ISZERO JUMPDEST ISZERO PUSH2 0xACB JUMPI POP POP POP JUMP JUMPDEST PUSH1 0x6 SLOAD PUSH1 0x7 SLOAD PUSH1 0x8 SLOAD PUSH0 SWAP3 PUSH1 0x1 PUSH1 0xA0 SHL SWAP1 DIV PUSH1 0xFF AND SWAP2 SWAP1 DUP2 SWAP1 PUSH1 0x1 DUP5 PUSH1 0xC DUP2 GT ISZERO PUSH2 0xAF8 JUMPI PUSH2 0xAF8 PUSH2 0xFAB JUMP JUMPDEST SUB PUSH2 0xB0F JUMPI DUP3 DUP9 SGT ISZERO PUSH2 0xB0A JUMPI PUSH1 0x1 SWAP5 POP JUMPDEST PUSH2 0xD7A JUMP JUMPDEST PUSH1 0x2 DUP5 PUSH1 0xC DUP2 GT ISZERO PUSH2 0xB23 JUMPI PUSH2 0xB23 PUSH2 0xFAB JUMP JUMPDEST SUB PUSH2 0xB39 JUMPI DUP3 DUP9 SLT ISZERO PUSH2 0xB0A JUMPI PUSH1 0x1 SWAP5 POP PUSH2 0xD7A JUMP JUMPDEST PUSH1 0x3 DUP5 PUSH1 0xC DUP2 GT ISZERO PUSH2 0xB4D JUMPI PUSH2 0xB4D PUSH2 0xFAB JUMP JUMPDEST SUB PUSH2 0xB62 JUMPI DUP3 DUP9 SUB PUSH2 0xB0A JUMPI PUSH1 0x1 SWAP5 POP PUSH2 0xD7A JUMP JUMPDEST DUP6 ISZERO PUSH2 0xD7A JUMPI PUSH1 0x4 DUP5 PUSH1 0xC DUP2 GT ISZERO PUSH2 0xB7C JUMPI PUSH2 0xB7C PUSH2 0xFAB JUMP JUMPDEST SUB PUSH2 0xBB3 JUMPI DUP3 DUP8 SLT DUP1 ISZERO PUSH2 0xB90 JUMPI POP DUP3 DUP9 SLT ISZERO JUMPDEST DUP1 PUSH2 0xBA5 JUMPI POP DUP3 DUP8 SGT DUP1 ISZERO PUSH2 0xBA5 JUMPI POP DUP3 DUP9 SGT ISZERO JUMPDEST ISZERO PUSH2 0xB0A JUMPI PUSH1 0x1 SWAP5 POP PUSH2 0xD7A JUMP JUMPDEST PUSH1 0x5 DUP5 PUSH1 0xC DUP2 GT ISZERO PUSH2 0xBC7 JUMPI PUSH2 0xBC7 PUSH2 0xFAB JUMP JUMPDEST SUB PUSH2 0xBE6 JUMPI DUP3 DUP8 SLT DUP1 ISZERO PUSH2 0xBA5 JUMPI POP DUP3 DUP9 SLT PUSH2 0xB0A JUMPI PUSH1 0x1 SWAP5 POP PUSH2 0xD7A JUMP JUMPDEST PUSH1 0x6 DUP5 PUSH1 0xC DUP2 GT ISZERO PUSH2 0xBFA JUMPI PUSH2 0xBFA PUSH2 0xFAB JUMP JUMPDEST SUB PUSH2 0xC19 JUMPI DUP3 DUP8 SGT DUP1 ISZERO PUSH2 0xBA5 JUMPI POP DUP3 DUP9 SGT PUSH2 0xB0A JUMPI PUSH1 0x1 SWAP5 POP PUSH2 0xD7A JUMP JUMPDEST PUSH1 0x7 DUP5 PUSH1 0xC DUP2 GT ISZERO PUSH2 0xC2D JUMPI PUSH2 0xC2D PUSH2 0xFAB JUMP JUMPDEST SUB PUSH2 0xC70 JUMPI PUSH0 DUP3 DUP9 SLT DUP1 PUSH2 0xC40 JUMPI POP DUP2 DUP9 SGT JUMPDEST SWAP1 POP PUSH0 DUP4 DUP11 SLT ISZERO DUP1 ISZERO PUSH2 0xC53 JUMPI POP DUP3 DUP11 SGT ISZERO JUMPDEST SWAP1 POP DUP2 DUP1 ISZERO PUSH2 0xC5F JUMPI POP DUP1 JUMPDEST ISZERO PUSH2 0xC69 JUMPI PUSH1 0x1 SWAP7 POP JUMPDEST POP POP PUSH2 0xD7A JUMP JUMPDEST PUSH1 0x8 DUP5 PUSH1 0xC DUP2 GT ISZERO PUSH2 0xC84 JUMPI PUSH2 0xC84 PUSH2 0xFAB JUMP JUMPDEST SUB PUSH2 0xCC3 JUMPI PUSH0 DUP3 DUP9 SLT ISZERO DUP1 ISZERO PUSH2 0xC9A JUMPI POP DUP2 DUP9 SGT ISZERO JUMPDEST SWAP1 POP PUSH0 DUP4 DUP11 SLT DUP1 PUSH2 0xC53 JUMPI POP POP DUP2 DUP10 SGT DUP2 DUP1 ISZERO PUSH2 0xC5F JUMPI POP DUP1 ISZERO PUSH2 0xC69 JUMPI PUSH1 0x1 SWAP7 POP POP POP PUSH2 0xD7A JUMP JUMPDEST PUSH1 0x9 DUP5 PUSH1 0xC DUP2 GT ISZERO PUSH2 0xCD7 JUMPI PUSH2 0xCD7 PUSH2 0xFAB JUMP JUMPDEST SUB PUSH2 0xCF7 JUMPI DUP2 DUP9 SLT ISZERO DUP1 ISZERO PUSH2 0xBA5 JUMPI POP DUP1 DUP9 SGT PUSH2 0xB0A JUMPI PUSH1 0x1 SWAP5 POP PUSH2 0xD7A JUMP JUMPDEST PUSH1 0xA DUP5 PUSH1 0xC DUP2 GT ISZERO PUSH2 0xD0B JUMPI PUSH2 0xD0B PUSH2 0xFAB JUMP JUMPDEST SUB PUSH2 0xD2A JUMPI DUP2 DUP9 SLT DUP1 PUSH2 0xBA5 JUMPI POP DUP1 DUP9 SGT ISZERO PUSH2 0xB0A JUMPI PUSH1 0x1 SWAP5 POP PUSH2 0xD7A JUMP JUMPDEST PUSH1 0xB DUP5 PUSH1 0xC DUP2 GT ISZERO PUSH2 0xD3E JUMPI PUSH2 0xD3E PUSH2 0xFAB JUMP JUMPDEST SUB PUSH2 0xD54 JUMPI DUP7 DUP9 SGT ISZERO PUSH2 0xB0A JUMPI PUSH1 0x1 SWAP5 POP PUSH2 0xD7A JUMP JUMPDEST PUSH1 0xC DUP5 PUSH1 0xC DUP2 GT ISZERO PUSH2 0xD68 JUMPI PUSH2 0xD68 PUSH2 0xFAB JUMP JUMPDEST SUB PUSH2 0xD7A JUMPI DUP7 DUP9 SLT ISZERO PUSH2 0xD7A JUMPI PUSH1 0x1 SWAP5 POP JUMPDEST DUP5 ISZERO PUSH2 0xE4C JUMPI PUSH1 0x9 DUP1 SLOAD PUSH2 0xFF00 NOT AND PUSH2 0x100 OR SWAP1 SSTORE TIMESTAMP PUSH1 0xA SSTORE PUSH1 0x5 SLOAD PUSH1 0x40 MLOAD PUSH32 0xFD1237999C3A51192C69C42973F8AFDB29066BCACB8F3B3569F68F8711272809 SWAP1 PUSH2 0xDC9 SWAP1 DUP12 SWAP1 PUSH1 0xB SWAP1 PUSH2 0x12EC JUMP JUMPDEST PUSH1 0x40 MLOAD DUP1 SWAP2 SUB SWAP1 LOG2 PUSH1 0xD SLOAD PUSH1 0x1 PUSH1 0x1 PUSH1 0xA0 SHL SUB AND ISZERO PUSH2 0xE4C JUMPI PUSH1 0xD SLOAD PUSH1 0x5 SLOAD PUSH1 0x6 SLOAD PUSH1 0x40 MLOAD PUSH4 0xFBE93DE3 PUSH1 0xE0 SHL DUP2 MSTORE PUSH1 0x1 PUSH1 0x1 PUSH1 0xA0 SHL SUB SWAP4 DUP5 AND SWAP4 PUSH4 0xFBE93DE3 SWAP4 PUSH2 0xE1E SWAP4 SWAP1 SWAP3 SWAP2 AND SWAP1 PUSH1 0xB SWAP1 PUSH1 0x4 ADD PUSH2 0x130C JUMP JUMPDEST PUSH0 PUSH1 0x40 MLOAD DUP1 DUP4 SUB DUP2 PUSH0 DUP8 DUP1 EXTCODESIZE ISZERO DUP1 ISZERO PUSH2 0xE35 JUMPI PUSH0 PUSH0 REVERT JUMPDEST POP GAS CALL ISZERO DUP1 ISZERO PUSH2 0xE47 JUMPI RETURNDATASIZE PUSH0 PUSH0 RETURNDATACOPY RETURNDATASIZE PUSH0 REVERT JUMPDEST POP POP POP POP JUMPDEST POP POP POP POP POP POP POP POP JUMP JUMPDEST DUP1 CALLDATALOAD PUSH1 0xD DUP2 LT PUSH2 0xE64 JUMPI PUSH0 PUSH0 REVERT JUMPDEST SWAP2 SWAP1 POP JUMP JUMPDEST PUSH0 PUSH0 DUP4 PUSH1 0x1F DUP5 ADD SLT PUSH2 0xE79 JUMPI PUSH0 PUSH0 REVERT JUMPDEST POP DUP2 CALLDATALOAD PUSH8 0xFFFFFFFFFFFFFFFF DUP2 GT ISZERO PUSH2 0xE90 JUMPI PUSH0 PUSH0 REVERT JUMPDEST PUSH1 0x20 DUP4 ADD SWAP2 POP DUP4 PUSH1 0x20 DUP3 DUP6 ADD ADD GT ISZERO PUSH2 0xEA7 JUMPI PUSH0 PUSH0 REVERT JUMPDEST SWAP3 POP SWAP3 SWAP1 POP JUMP JUMPDEST PUSH0 PUSH0 PUSH0 PUSH0 PUSH1 0x60 DUP6 DUP8 SUB SLT ISZERO PUSH2 0xEC1 JUMPI PUSH0 PUSH0 REVERT JUMPDEST PUSH2 0xECA DUP6 PUSH2 0xE56 JUMP JUMPDEST SWAP4 POP PUSH1 0x20 DUP6 ADD CALLDATALOAD SWAP3 POP PUSH1 0x40 DUP6 ADD CALLDATALOAD PUSH8 0xFFFFFFFFFFFFFFFF DUP2 GT ISZERO PUSH2 0xEEC JUMPI PUSH0 PUSH0 REVERT JUMPDEST PUSH2 0xEF8 DUP8 DUP3 DUP9 ADD PUSH2 0xE69 JUMP JUMPDEST SWAP6 SWAP9 SWAP5 SWAP8 POP SWAP6 POP POP POP POP JUMP JUMPDEST PUSH0 PUSH0 PUSH0 PUSH0 PUSH0 PUSH1 0x80 DUP7 DUP9 SUB SLT ISZERO PUSH2 0xF18 JUMPI PUSH0 PUSH0 REVERT JUMPDEST PUSH2 0xF21 DUP7 PUSH2 0xE56 JUMP JUMPDEST SWAP5 POP PUSH1 0x20 DUP7 ADD CALLDATALOAD SWAP4 POP PUSH1 0x40 DUP7 ADD CALLDATALOAD SWAP3 POP PUSH1 0x60 DUP7 ADD CALLDATALOAD PUSH8 0xFFFFFFFFFFFFFFFF DUP2 GT ISZERO PUSH2 0xF4A JUMPI PUSH0 PUSH0 REVERT JUMPDEST PUSH2 0xF56 DUP9 DUP3 DUP10 ADD PUSH2 0xE69 JUMP JUMPDEST SWAP7 SWAP10 SWAP6 SWAP9 POP SWAP4 SWAP7 POP SWAP3 SWAP5 SWAP4 SWAP3 POP POP POP JUMP JUMPDEST PUSH0 PUSH1 0x20 DUP3 DUP5 SUB SLT ISZERO PUSH2 0xF77 JUMPI PUSH0 PUSH0 REVERT JUMPDEST POP CALLDATALOAD SWAP2 SWAP1 POP JUMP JUMPDEST PUSH0 PUSH1 0x20 DUP3 DUP5 SUB SLT ISZERO PUSH2 0xF8E JUMPI PUSH0 PUSH0 REVERT JUMPDEST DUP2 CALLDATALOAD PUSH1 0x1 PUSH1 0x1 PUSH1 0xA0 SHL SUB DUP2 AND DUP2 EQ PUSH2 0xFA4 JUMPI PUSH0 PUSH0 REVERT JUMPDEST SWAP4 SWAP3 POP POP POP JUMP JUMPDEST PUSH4 0x4E487B71 PUSH1 0xE0 SHL PUSH0 MSTORE PUSH1 0x21 PUSH1 0x4 MSTORE PUSH1 0x24 PUSH0 REVERT JUMPDEST PUSH1 0xD DUP2 LT PUSH2 0xFDB JUMPI PUSH4 0x4E487B71 PUSH1 0xE0 SHL PUSH0 MSTORE PUSH1 0x21 PUSH1 0x4 MSTORE PUSH1 0x24 PUSH0 REVERT JUMPDEST SWAP1 MSTORE JUMP JUMPDEST DUP10 DUP2 MSTORE PUSH1 0x1 PUSH1 0x1 PUSH1 0xA0 SHL SUB DUP10 AND PUSH1 0x20 DUP3 ADD MSTORE PUSH2 0xFFE PUSH1 0x40 DUP3 ADD DUP10 PUSH2 0xFBF JUMP JUMPDEST DUP7 PUSH1 0x60 DUP3 ADD MSTORE DUP6 PUSH1 0x80 DUP3 ADD MSTORE DUP5 ISZERO ISZERO PUSH1 0xA0 DUP3 ADD MSTORE DUP4 ISZERO ISZERO PUSH1 0xC0 DUP3 ADD MSTORE DUP3 PUSH1 0xE0 DUP3 ADD MSTORE PUSH2 0x120 PUSH2 0x100 DUP3 ADD MSTORE PUSH0 DUP3 MLOAD DUP1 PUSH2 0x120 DUP5 ADD MSTORE DUP1 PUSH1 0x20 DUP6 ADD PUSH2 0x140 DUP6 ADD MCOPY PUSH0 PUSH2 0x140 DUP3 DUP6 ADD ADD MSTORE PUSH2 0x140 PUSH1 0x1F NOT PUSH1 0x1F DUP4 ADD AND DUP5 ADD ADD SWAP2 POP POP SWAP11 SWAP10 POP POP POP POP POP POP POP POP POP POP JUMP JUMPDEST PUSH0 PUSH1 0x1 DUP3 ADD PUSH2 0x1083 JUMPI PUSH4 0x4E487B71 PUSH1 0xE0 SHL PUSH0 MSTORE PUSH1 0x11 PUSH1 0x4 MSTORE PUSH1 0x24 PUSH0 REVERT JUMPDEST POP PUSH1 0x1 ADD SWAP1 JUMP JUMPDEST PUSH4 0x4E487B71 PUSH1 0xE0 SHL PUSH0 MSTORE PUSH1 0x41 PUSH1 0x4 MSTORE PUSH1 0x24 PUSH0 REVERT JUMPDEST PUSH1 0x1 DUP2 DUP2 SHR SWAP1 DUP3 AND DUP1 PUSH2 0x10B2 JUMPI PUSH1 0x7F DUP3 AND SWAP2 POP JUMPDEST PUSH1 0x20 DUP3 LT DUP2 SUB PUSH2 0x10D0 JUMPI PUSH4 0x4E487B71 PUSH1 0xE0 SHL PUSH0 MSTORE PUSH1 0x22 PUSH1 0x4 MSTORE PUSH1 0x24 PUSH0 REVERT JUMPDEST POP SWAP2 SWAP1 POP JUMP JUMPDEST PUSH1 0x1F DUP3 GT ISZERO PUSH2 0x111D JUMPI DUP1 PUSH0 MSTORE PUSH1 0x20 PUSH0 KECCAK256 PUSH1 0x1F DUP5 ADD PUSH1 0x5 SHR DUP2 ADD PUSH1 0x20 DUP6 LT ISZERO PUSH2 0x10FB JUMPI POP DUP1 JUMPDEST PUSH1 0x1F DUP5 ADD PUSH1 0x5 SHR DUP3 ADD SWAP2 POP JUMPDEST DUP2 DUP2 LT ISZERO PUSH2 0x111A JUMPI PUSH0 DUP2 SSTORE PUSH1 0x1 ADD PUSH2 0x1107 JUMP JUMPDEST POP POP JUMPDEST POP POP POP JUMP JUMPDEST PUSH8 0xFFFFFFFFFFFFFFFF DUP4 GT ISZERO PUSH2 0x113A JUMPI PUSH2 0x113A PUSH2 0x108A JUMP JUMPDEST PUSH2 0x114E DUP4 PUSH2 0x1148 DUP4 SLOAD PUSH2 0x109E JUMP JUMPDEST DUP4 PUSH2 0x10D6 JUMP JUMPDEST PUSH0 PUSH1 0x1F DUP5 GT PUSH1 0x1 DUP2 EQ PUSH2 0x117F JUMPI PUSH0 DUP6 ISZERO PUSH2 0x1168 JUMPI POP DUP4 DUP3 ADD CALLDATALOAD JUMPDEST PUSH0 NOT PUSH1 0x3 DUP8 SWAP1 SHL SHR NOT AND PUSH1 0x1 DUP7 SWAP1 SHL OR DUP4 SSTORE PUSH2 0x111A JUMP JUMPDEST PUSH0 DUP4 DUP2 MSTORE PUSH1 0x20 DUP2 KECCAK256 PUSH1 0x1F NOT DUP8 AND SWAP2 JUMPDEST DUP3 DUP2 LT ISZERO PUSH2 0x11AE JUMPI DUP7 DUP6 ADD CALLDATALOAD DUP3 SSTORE PUSH1 0x20 SWAP5 DUP6 ADD SWAP5 PUSH1 0x1 SWAP1 SWAP3 ADD SWAP2 ADD PUSH2 0x118E JUMP JUMPDEST POP DUP7 DUP3 LT ISZERO PUSH2 0x11CA JUMPI PUSH0 NOT PUSH1 0xF8 DUP9 PUSH1 0x3 SHL AND SHR NOT DUP5 DUP8 ADD CALLDATALOAD AND DUP2 SSTORE JUMPDEST POP POP PUSH1 0x1 DUP6 PUSH1 0x1 SHL ADD DUP4 SSTORE POP POP POP POP POP JUMP JUMPDEST PUSH0 DUP2 SLOAD PUSH2 0x11E8 DUP2 PUSH2 0x109E JUMP JUMPDEST DUP1 DUP6 MSTORE PUSH1 0x1 DUP3 AND DUP1 ISZERO PUSH2 0x1202 JUMPI PUSH1 0x1 DUP2 EQ PUSH2 0x121E JUMPI PUSH2 0x1252 JUMP JUMPDEST PUSH1 0xFF NOT DUP4 AND PUSH1 0x20 DUP8 ADD MSTORE PUSH1 0x20 DUP3 ISZERO ISZERO PUSH1 0x5 SHL DUP8 ADD ADD SWAP4 POP PUSH2 0x1252 JUMP JUMPDEST DUP5 PUSH0 MSTORE PUSH1 0x20 PUSH0 KECCAK256 PUSH0 JUMPDEST DUP4 DUP2 LT ISZERO PUSH2 0x1249 JUMPI DUP2 SLOAD PUSH1 0x20 DUP3 DUP11 ADD ADD MSTORE PUSH1 0x1 DUP3 ADD SWAP2 POP PUSH1 0x20 DUP2 ADD SWAP1 POP PUSH2 0x1227 JUMP JUMPDEST DUP8 ADD PUSH1 0x20 ADD SWAP5 POP POP JUMPDEST POP POP POP SWAP3 SWAP2 POP POP JUMP JUMPDEST PUSH1 0x20 DUP1 DUP3 MSTORE DUP3 SLOAD SWAP1 DUP3 ADD MSTORE PUSH1 0x1 DUP3 ADD SLOAD PUSH1 0x1 PUSH1 0x1 PUSH1 0xA0 SHL SUB DUP2 AND PUSH1 0x40 DUP4 ADD MSTORE PUSH0 SWAP1 PUSH2 0x128F PUSH1 0x60 DUP5 ADD PUSH1 0xFF DUP4 PUSH1 0xA0 SHR AND PUSH2 0xFBF JUMP JUMPDEST POP PUSH1 0x2 DUP4 ADD SLOAD PUSH1 0x80 DUP4 ADD MSTORE PUSH1 0x3 DUP4 ADD SLOAD PUSH1 0xA0 DUP4 ADD MSTORE PUSH1 0x4 DUP4 ADD SLOAD PUSH1 0xFF DUP2 AND ISZERO ISZERO PUSH1 0xC0 DUP5 ADD MSTORE PUSH2 0x12C8 PUSH1 0xE0 DUP5 ADD PUSH1 0xFF DUP4 PUSH1 0x8 SHR AND ISZERO ISZERO SWAP1 MSTORE JUMP JUMPDEST POP PUSH1 0x5 DUP4 ADD SLOAD PUSH2 0x100 DUP4 ADD MSTORE PUSH2 0x120 DUP1 DUP4 ADD MSTORE PUSH2 0xFA4 PUSH2 0x140 DUP4 ADD PUSH1 0x6 DUP6 ADD PUSH2 0x11DC JUMP JUMPDEST DUP3 DUP2 MSTORE PUSH1 0x40 PUSH1 0x20 DUP3 ADD MSTORE PUSH0 PUSH2 0x1304 PUSH1 0x40 DUP4 ADD DUP5 PUSH2 0x11DC JUMP JUMPDEST SWAP5 SWAP4 POP POP POP POP JUMP JUMPDEST DUP4 DUP2 MSTORE PUSH1 0x1 PUSH1 0x1 PUSH1 0xA0 SHL SUB DUP4 AND PUSH1 0x20 DUP3 ADD MSTORE PUSH1 0x60 PUSH1 0x40 DUP3 ADD DUP2 SWAP1 MSTORE PUSH0 SWAP1 PUSH2 0x1335 SWAP1 DUP4 ADD DUP5 PUSH2 0x11DC JUMP JUMPDEST SWAP6 SWAP5 POP POP POP POP POP JUMP INVALID LOG2 PUSH5 0x6970667358 0x22 SLT KECCAK256 0xDD 0xAE 0xF6 DUP11 CALLDATACOPY 0xEF SHL SMOD 0xEA 0xBC 0xED 0xAE 0x2A JUMPF 0x1A5E 0xC1 OR RETF RETURNDATACOPY 0xA9 PUSH26 0x585732946C66F2E5927D64736F6C634300081E00330000000000 "
				},
				"gasEstimates": {
					"creation": {
						"codeDepositCost": "996000",
						"executionCost": "infinite",
						"totalCost": "infinite"
					},
					"external": {
						"activateAlert()": "infinite",
						"configureChannelAlert(uint8,int256,int256,string)": "infinite",
						"configureSingleThresholdAlert(uint8,int256,string)": "infinite",
						"currentNetflow()": "4449",
						"dashboardNotifier()": "2403",
						"getCurrentNetflow()": "4585",
						"hasPreviousNetflowAmount()": "2376",
						"netflowAlert()": "infinite",
						"owner()": "2352",
						"previousNetflowAmount()": "2328",
						"renounceOwnership()": "infinite",
						"resetAlertTriggerState()": "infinite",
						"setDashboardNotifier(address)": "26742",
						"transferOwnership(address)": "28338",
						"turnOffAlert()": "infinite",
						"updateNetflow(int256)": "infinite"
					},
					"internal": {
						"checkAndTriggerAlert(int256,int256,bool)": "infinite"
					}
				},
				"methodIdentifiers": {
					"activateAlert()": "2f66b011",
					"configureChannelAlert(uint8,int256,int256,string)": "651a96af",
					"configureSingleThresholdAlert(uint8,int256,string)": "311e4319",
					"currentNetflow()": "bf25c80c",
					"dashboardNotifier()": "80b3880c",
					"getCurrentNetflow()": "f608a360",
					"hasPreviousNetflowAmount()": "a82b9060",
					"netflowAlert()": "f68baac1",
					"owner()": "8da5cb5b",
					"previousNetflowAmount()": "7aad4061",
					"renounceOwnership()": "715018a6",
					"resetAlertTriggerState()": "440c1ec9",
					"setDashboardNotifier(address)": "9d2ed12b",
					"transferOwnership(address)": "f2fde38b",
					"turnOffAlert()": "ac57e64e",
					"updateNetflow(int256)": "8804d1b3"
				}
			},
			"storageLayout": {
				"storage": [
					{
						"astId": 8,
						"contract": "contracts/BitcoinNetflowContract.sol:BitcoinNetflowContract",
						"label": "_owner",
						"offset": 0,
						"slot": "0",
						"type": "t_address"
					},
					{
						"astId": 195,
						"contract": "contracts/BitcoinNetflowContract.sol:BitcoinNetflowContract",
						"label": "currentNetflow",
						"offset": 0,
						"slot": "1",
						"type": "t_struct(NetflowInfo)1267_storage"
					},
					{
						"astId": 197,
						"contract": "contracts/BitcoinNetflowContract.sol:BitcoinNetflowContract",
						"label": "previousNetflowAmount",
						"offset": 0,
						"slot": "3",
						"type": "t_int256"
					},
					{
						"astId": 200,
						"contract": "contracts/BitcoinNetflowContract.sol:BitcoinNetflowContract",
						"label": "hasPreviousNetflowAmount",
						"offset": 0,
						"slot": "4",
						"type": "t_bool"
					},
					{
						"astId": 203,
						"contract": "contracts/BitcoinNetflowContract.sol:BitcoinNetflowContract",
						"label": "netflowAlert",
						"offset": 0,
						"slot": "5",
						"type": "t_struct(AlertConfig)1330_storage"
					},
					{
						"astId": 206,
						"contract": "contracts/BitcoinNetflowContract.sol:BitcoinNetflowContract",
						"label": "nextAlertIdInternal",
						"offset": 0,
						"slot": "12",
						"type": "t_uint256"
					},
					{
						"astId": 209,
						"contract": "contracts/BitcoinNetflowContract.sol:BitcoinNetflowContract",
						"label": "dashboardNotifier",
						"offset": 0,
						"slot": "13",
						"type": "t_contract(IDashboardNotifier)1240"
					}
				],
				"types": {
					"t_address": {
						"encoding": "inplace",
						"label": "address",
						"numberOfBytes": "20"
					},
					"t_bool": {
						"encoding": "inplace",
						"label": "bool",
						"numberOfBytes": "1"
					},
					"t_contract(IDashboardNotifier)1240": {
						"encoding": "inplace",
						"label": "contract IDashboardNotifier",
						"numberOfBytes": "20"
					},
					"t_enum(AlertCondition)1310": {
						"encoding": "inplace",
						"label": "enum DataTypes.AlertCondition",
						"numberOfBytes": "1"
					},
					"t_int256": {
						"encoding": "inplace",
						"label": "int256",
						"numberOfBytes": "32"
					},
					"t_string_storage": {
						"encoding": "bytes",
						"label": "string",
						"numberOfBytes": "32"
					},
					"t_struct(AlertConfig)1330_storage": {
						"encoding": "inplace",
						"label": "struct DataTypes.AlertConfig",
						"members": [
							{
								"astId": 1312,
								"contract": "contracts/BitcoinNetflowContract.sol:BitcoinNetflowContract",
								"label": "id",
								"offset": 0,
								"slot": "0",
								"type": "t_uint256"
							},
							{
								"astId": 1314,
								"contract": "contracts/BitcoinNetflowContract.sol:BitcoinNetflowContract",
								"label": "user",
								"offset": 0,
								"slot": "1",
								"type": "t_address"
							},
							{
								"astId": 1317,
								"contract": "contracts/BitcoinNetflowContract.sol:BitcoinNetflowContract",
								"label": "condition",
								"offset": 20,
								"slot": "1",
								"type": "t_enum(AlertCondition)1310"
							},
							{
								"astId": 1319,
								"contract": "contracts/BitcoinNetflowContract.sol:BitcoinNetflowContract",
								"label": "threshold1",
								"offset": 0,
								"slot": "2",
								"type": "t_int256"
							},
							{
								"astId": 1321,
								"contract": "contracts/BitcoinNetflowContract.sol:BitcoinNetflowContract",
								"label": "threshold2",
								"offset": 0,
								"slot": "3",
								"type": "t_int256"
							},
							{
								"astId": 1323,
								"contract": "contracts/BitcoinNetflowContract.sol:BitcoinNetflowContract",
								"label": "isActive",
								"offset": 0,
								"slot": "4",
								"type": "t_bool"
							},
							{
								"astId": 1325,
								"contract": "contracts/BitcoinNetflowContract.sol:BitcoinNetflowContract",
								"label": "isTriggered",
								"offset": 1,
								"slot": "4",
								"type": "t_bool"
							},
							{
								"astId": 1327,
								"contract": "contracts/BitcoinNetflowContract.sol:BitcoinNetflowContract",
								"label": "lastTriggeredAt",
								"offset": 0,
								"slot": "5",
								"type": "t_uint256"
							},
							{
								"astId": 1329,
								"contract": "contracts/BitcoinNetflowContract.sol:BitcoinNetflowContract",
								"label": "message",
								"offset": 0,
								"slot": "6",
								"type": "t_string_storage"
							}
						],
						"numberOfBytes": "224"
					},
					"t_struct(NetflowInfo)1267_storage": {
						"encoding": "inplace",
						"label": "struct DataTypes.NetflowInfo",
						"members": [
							{
								"astId": 1264,
								"contract": "contracts/BitcoinNetflowContract.sol:BitcoinNetflowContract",
								"label": "amount",
								"offset": 0,
								"slot": "0",
								"type": "t_int256"
							},
							{
								"astId": 1266,
								"contract": "contracts/BitcoinNetflowContract.sol:BitcoinNetflowContract",
								"label": "lastUpdatedAt",
								"offset": 0,
								"slot": "1",
								"type": "t_uint256"
							}
						],
						"numberOfBytes": "64"
					},
					"t_uint256": {
						"encoding": "inplace",
						"label": "uint256",
						"numberOfBytes": "32"
					}
				}
			},
			"userdoc": {
				"kind": "user",
				"methods": {},
				"version": 1
			}
		}
	}
}