{
	"contracts/DashBoard.sol": {
		"Dashboard": {
			"abi": [
				{
					"inputs": [],
					"stateMutability": "nonpayable",
					"type": "constructor"
				},
				{
					"inputs": [
						{
							"internalType": "address",
							"name": "owner",
							"type": "address"
						}
					],
					"name": "OwnableInvalidOwner",
					"type": "error"
				},
				{
					"inputs": [
						{
							"internalType": "address",
							"name": "account",
							"type": "address"
						}
					],
					"name": "OwnableUnauthorizedAccount",
					"type": "error"
				},
				{
					"anonymous": false,
					"inputs": [
						{
							"indexed": true,
							"internalType": "uint256",
							"name": "alertId",
							"type": "uint256"
						}
					],
					"name": "AlertActivated",
					"type": "event"
				},
				{
					"anonymous": false,
					"inputs": [
						{
							"indexed": true,
							"internalType": "uint256",
							"name": "alertId",
							"type": "uint256"
						},
						{
							"indexed": true,
							"internalType": "address",
							"name": "user",
							"type": "address"
						},
						{
							"indexed": false,
							"internalType": "enum Dashboard.AlertCondition",
							"name": "condition",
							"type": "uint8"
						},
						{
							"indexed": false,
							"internalType": "int256",
							"name": "threshold1",
							"type": "int256"
						},
						{
							"indexed": false,
							"internalType": "int256",
							"name": "threshold2",
							"type": "int256"
						},
						{
							"indexed": false,
							"internalType": "string",
							"name": "message",
							"type": "string"
						}
					],
					"name": "AlertConfigured",
					"type": "event"
				},
				{
					"anonymous": false,
					"inputs": [
						{
							"indexed": true,
							"internalType": "uint256",
							"name": "alertId",
							"type": "uint256"
						}
					],
					"name": "AlertDeactivated",
					"type": "event"
				},
				{
					"anonymous": false,
					"inputs": [
						{
							"indexed": true,
							"internalType": "uint256",
							"name": "alertId",
							"type": "uint256"
						}
					],
					"name": "AlertTriggerReset",
					"type": "event"
				},
				{
					"anonymous": false,
					"inputs": [
						{
							"indexed": true,
							"internalType": "uint256",
							"name": "alertId",
							"type": "uint256"
						},
						{
							"indexed": true,
							"internalType": "address",
							"name": "user",
							"type": "address"
						},
						{
							"indexed": false,
							"internalType": "int256",
							"name": "currentValue",
							"type": "int256"
						},
						{
							"indexed": false,
							"internalType": "string",
							"name": "message",
							"type": "string"
						}
					],
					"name": "AlertTriggered",
					"type": "event"
				},
				{
					"anonymous": false,
					"inputs": [
						{
							"indexed": false,
							"internalType": "int256",
							"name": "marketAverage",
							"type": "int256"
						},
						{
							"indexed": false,
							"internalType": "uint256",
							"name": "timestamp",
							"type": "uint256"
						}
					],
					"name": "MarketPerformersUpdated",
					"type": "event"
				},
				{
					"anonymous": false,
					"inputs": [
						{
							"indexed": true,
							"internalType": "string",
							"name": "narrativeName",
							"type": "string"
						}
					],
					"name": "NarrativeKeyAdded",
					"type": "event"
				},
				{
					"anonymous": false,
					"inputs": [
						{
							"indexed": true,
							"internalType": "string",
							"name": "narrativeName",
							"type": "string"
						}
					],
					"name": "NarrativeKeyRemoved",
					"type": "event"
				},
				{
					"anonymous": false,
					"inputs": [
						{
							"indexed": true,
							"internalType": "string",
							"name": "narrativeName",
							"type": "string"
						},
						{
							"indexed": false,
							"internalType": "int256",
							"name": "performancePercent",
							"type": "int256"
						},
						{
							"indexed": false,
							"internalType": "uint256",
							"name": "timestamp",
							"type": "uint256"
						}
					],
					"name": "NarrativePerformanceUpdated",
					"type": "event"
				},
				{
					"anonymous": false,
					"inputs": [
						{
							"indexed": true,
							"internalType": "string",
							"name": "narrativeName",
							"type": "string"
						},
						{
							"indexed": false,
							"internalType": "string",
							"name": "tokenSymbol",
							"type": "string"
						},
						{
							"indexed": false,
							"internalType": "int256",
							"name": "relativePerformance",
							"type": "int256"
						},
						{
							"indexed": false,
							"internalType": "uint256",
							"name": "timestamp",
							"type": "uint256"
						}
					],
					"name": "NarrativeTopTokenUpdated",
					"type": "event"
				},
				{
					"anonymous": false,
					"inputs": [
						{
							"indexed": false,
							"internalType": "int256",
							"name": "amount",
							"type": "int256"
						},
						{
							"indexed": false,
							"internalType": "uint256",
							"name": "timestamp",
							"type": "uint256"
						}
					],
					"name": "NetflowUpdated",
					"type": "event"
				},
				{
					"anonymous": false,
					"inputs": [
						{
							"indexed": true,
							"internalType": "address",
							"name": "previousOwner",
							"type": "address"
						},
						{
							"indexed": true,
							"internalType": "address",
							"name": "newOwner",
							"type": "address"
						}
					],
					"name": "OwnershipTransferred",
					"type": "event"
				},
				{
					"anonymous": false,
					"inputs": [
						{
							"indexed": false,
							"internalType": "int256",
							"name": "daily",
							"type": "int256"
						},
						{
							"indexed": false,
							"internalType": "int256",
							"name": "weekly",
							"type": "int256"
						},
						{
							"indexed": false,
							"internalType": "int256",
							"name": "monthly",
							"type": "int256"
						},
						{
							"indexed": false,
							"internalType": "int256",
							"name": "marketCapChange",
							"type": "int256"
						},
						{
							"indexed": false,
							"internalType": "uint256",
							"name": "timestamp",
							"type": "uint256"
						}
					],
					"name": "StablecoinOverallNetflowUpdated",
					"type": "event"
				},
				{
					"inputs": [
						{
							"internalType": "enum Dashboard.AlertCondition",
							"name": "_condition",
							"type": "uint8"
						},
						{
							"internalType": "int256",
							"name": "_channelBound1",
							"type": "int256"
						},
						{
							"internalType": "int256",
							"name": "_channelBound2",
							"type": "int256"
						},
						{
							"internalType": "string",
							"name": "_message",
							"type": "string"
						}
					],
					"name": "DoubleNetflowAlert",
					"outputs": [],
					"stateMutability": "nonpayable",
					"type": "function"
				},
				{
					"inputs": [
						{
							"internalType": "enum Dashboard.AlertCondition",
							"name": "_condition",
							"type": "uint8"
						},
						{
							"internalType": "int256",
							"name": "_threshold1",
							"type": "int256"
						},
						{
							"internalType": "string",
							"name": "_message",
							"type": "string"
						}
					],
					"name": "SingleThresholdNetflowAlert",
					"outputs": [],
					"stateMutability": "nonpayable",
					"type": "function"
				},
				{
					"inputs": [],
					"name": "activateAlert",
					"outputs": [],
					"stateMutability": "nonpayable",
					"type": "function"
				},
				{
					"inputs": [
						{
							"internalType": "string",
							"name": "_narrativeName",
							"type": "string"
						},
						{
							"internalType": "int256",
							"name": "_performancePercent",
							"type": "int256"
						}
					],
					"name": "addOrUpdateNarrativePerformance",
					"outputs": [],
					"stateMutability": "nonpayable",
					"type": "function"
				},
				{
					"inputs": [
						{
							"components": [
								{
									"internalType": "string",
									"name": "name",
									"type": "string"
								},
								{
									"internalType": "int256",
									"name": "performancePercent24h",
									"type": "int256"
								},
								{
									"internalType": "uint256",
									"name": "lastUpdatedAt",
									"type": "uint256"
								}
							],
							"internalType": "struct types.NarrativePerformanceInfo[]",
							"name": "_performances",
							"type": "tuple[]"
						}
					],
					"name": "batchUpdateNarrativePerformances",
					"outputs": [],
					"stateMutability": "nonpayable",
					"type": "function"
				},
				{
					"inputs": [],
					"name": "exchangeNetflow",
					"outputs": [
						{
							"internalType": "int256",
							"name": "amount",
							"type": "int256"
						},
						{
							"internalType": "uint256",
							"name": "lastUpdatedAt",
							"type": "uint256"
						}
					],
					"stateMutability": "view",
					"type": "function"
				},
				{
					"inputs": [],
					"name": "getAllNarrativeKeys",
					"outputs": [
						{
							"internalType": "string[]",
							"name": "",
							"type": "string[]"
						}
					],
					"stateMutability": "view",
					"type": "function"
				},
				{
					"inputs": [
						{
							"internalType": "string",
							"name": "_narrativeName",
							"type": "string"
						}
					],
					"name": "getNarrativePerformance",
					"outputs": [
						{
							"components": [
								{
									"internalType": "string",
									"name": "name",
									"type": "string"
								},
								{
									"internalType": "int256",
									"name": "performancePercent24h",
									"type": "int256"
								},
								{
									"internalType": "uint256",
									"name": "lastUpdatedAt",
									"type": "uint256"
								}
							],
							"internalType": "struct types.NarrativePerformanceInfo",
							"name": "",
							"type": "tuple"
						}
					],
					"stateMutability": "view",
					"type": "function"
				},
				{
					"inputs": [
						{
							"internalType": "string",
							"name": "_narrativeName",
							"type": "string"
						}
					],
					"name": "getNarrativeTopPerformer",
					"outputs": [
						{
							"components": [
								{
									"internalType": "string",
									"name": "narrativeName",
									"type": "string"
								},
								{
									"internalType": "string",
									"name": "tokenSymbol",
									"type": "string"
								},
								{
									"internalType": "int256",
									"name": "relativePerformancePercent",
									"type": "int256"
								},
								{
									"internalType": "uint256",
									"name": "lastUpdatedAt",
									"type": "uint256"
								}
							],
							"internalType": "struct types.NarrativeTopTokenInfo",
							"name": "",
							"type": "tuple"
						}
					],
					"stateMutability": "view",
					"type": "function"
				},
				{
					"inputs": [],
					"name": "getTopOutperformingAssets",
					"outputs": [
						{
							"components": [
								{
									"internalType": "string",
									"name": "tokenSymbol",
									"type": "string"
								},
								{
									"internalType": "address",
									"name": "tokenAddress",
									"type": "address"
								},
								{
									"internalType": "int256",
									"name": "performancePercent24h",
									"type": "int256"
								},
								{
									"internalType": "int256",
									"name": "performanceVsMarketPercent",
									"type": "int256"
								},
								{
									"internalType": "uint256",
									"name": "lastUpdatedAt",
									"type": "uint256"
								}
							],
							"internalType": "struct types.AssetPerformanceInfo[]",
							"name": "",
							"type": "tuple[]"
						}
					],
					"stateMutability": "view",
					"type": "function"
				},
				{
					"inputs": [],
					"name": "getTopUnderperformingAssets",
					"outputs": [
						{
							"components": [
								{
									"internalType": "string",
									"name": "tokenSymbol",
									"type": "string"
								},
								{
									"internalType": "address",
									"name": "tokenAddress",
									"type": "address"
								},
								{
									"internalType": "int256",
									"name": "performancePercent24h",
									"type": "int256"
								},
								{
									"internalType": "int256",
									"name": "performanceVsMarketPercent",
									"type": "int256"
								},
								{
									"internalType": "uint256",
									"name": "lastUpdatedAt",
									"type": "uint256"
								}
							],
							"internalType": "struct types.AssetPerformanceInfo[]",
							"name": "",
							"type": "tuple[]"
						}
					],
					"stateMutability": "view",
					"type": "function"
				},
				{
					"inputs": [],
					"name": "hasPreviousExchangeNetflowAmount",
					"outputs": [
						{
							"internalType": "bool",
							"name": "",
							"type": "bool"
						}
					],
					"stateMutability": "view",
					"type": "function"
				},
				{
					"inputs": [],
					"name": "marketAverageMovementPercent24h",
					"outputs": [
						{
							"internalType": "int256",
							"name": "",
							"type": "int256"
						}
					],
					"stateMutability": "view",
					"type": "function"
				},
				{
					"inputs": [],
					"name": "marketPerformanceLastUpdatedAt",
					"outputs": [
						{
							"internalType": "uint256",
							"name": "",
							"type": "uint256"
						}
					],
					"stateMutability": "view",
					"type": "function"
				},
				{
					"inputs": [
						{
							"internalType": "uint256",
							"name": "",
							"type": "uint256"
						}
					],
					"name": "narrativeKeys",
					"outputs": [
						{
							"internalType": "string",
							"name": "",
							"type": "string"
						}
					],
					"stateMutability": "view",
					"type": "function"
				},
				{
					"inputs": [
						{
							"internalType": "string",
							"name": "",
							"type": "string"
						}
					],
					"name": "narrativePerformances",
					"outputs": [
						{
							"internalType": "string",
							"name": "name",
							"type": "string"
						},
						{
							"internalType": "int256",
							"name": "performancePercent24h",
							"type": "int256"
						},
						{
							"internalType": "uint256",
							"name": "lastUpdatedAt",
							"type": "uint256"
						}
					],
					"stateMutability": "view",
					"type": "function"
				},
				{
					"inputs": [
						{
							"internalType": "string",
							"name": "",
							"type": "string"
						}
					],
					"name": "narrativeTopPerformers",
					"outputs": [
						{
							"internalType": "string",
							"name": "narrativeName",
							"type": "string"
						},
						{
							"internalType": "string",
							"name": "tokenSymbol",
							"type": "string"
						},
						{
							"internalType": "int256",
							"name": "relativePerformancePercent",
							"type": "int256"
						},
						{
							"internalType": "uint256",
							"name": "lastUpdatedAt",
							"type": "uint256"
						}
					],
					"stateMutability": "view",
					"type": "function"
				},
				{
					"inputs": [],
					"name": "owner",
					"outputs": [
						{
							"internalType": "address",
							"name": "",
							"type": "address"
						}
					],
					"stateMutability": "view",
					"type": "function"
				},
				{
					"inputs": [],
					"name": "previousExchangeNetflowAmount",
					"outputs": [
						{
							"internalType": "int256",
							"name": "",
							"type": "int256"
						}
					],
					"stateMutability": "view",
					"type": "function"
				},
				{
					"inputs": [
						{
							"internalType": "string",
							"name": "_narrativeName",
							"type": "string"
						}
					],
					"name": "removeNarrativeKey",
					"outputs": [],
					"stateMutability": "nonpayable",
					"type": "function"
				},
				{
					"inputs": [],
					"name": "renounceOwnership",
					"outputs": [],
					"stateMutability": "nonpayable",
					"type": "function"
				},
				{
					"inputs": [],
					"name": "resetAlertTriggerState",
					"outputs": [],
					"stateMutability": "nonpayable",
					"type": "function"
				},
				{
					"inputs": [],
					"name": "stablecoinExchangeOverallNetflow",
					"outputs": [
						{
							"internalType": "int256",
							"name": "dailyNetflowSum",
							"type": "int256"
						},
						{
							"internalType": "int256",
							"name": "weeklyNetflowSum",
							"type": "int256"
						},
						{
							"internalType": "int256",
							"name": "monthlyNetflowSum",
							"type": "int256"
						},
						{
							"internalType": "int256",
							"name": "marketCapChangePercent",
							"type": "int256"
						},
						{
							"internalType": "uint256",
							"name": "lastUpdatedAt",
							"type": "uint256"
						}
					],
					"stateMutability": "view",
					"type": "function"
				},
				{
					"inputs": [
						{
							"internalType": "uint256",
							"name": "",
							"type": "uint256"
						}
					],
					"name": "topOutperformingAssets",
					"outputs": [
						{
							"internalType": "string",
							"name": "tokenSymbol",
							"type": "string"
						},
						{
							"internalType": "address",
							"name": "tokenAddress",
							"type": "address"
						},
						{
							"internalType": "int256",
							"name": "performancePercent24h",
							"type": "int256"
						},
						{
							"internalType": "int256",
							"name": "performanceVsMarketPercent",
							"type": "int256"
						},
						{
							"internalType": "uint256",
							"name": "lastUpdatedAt",
							"type": "uint256"
						}
					],
					"stateMutability": "view",
					"type": "function"
				},
				{
					"inputs": [
						{
							"internalType": "uint256",
							"name": "",
							"type": "uint256"
						}
					],
					"name": "topUnderperformingAssets",
					"outputs": [
						{
							"internalType": "string",
							"name": "tokenSymbol",
							"type": "string"
						},
						{
							"internalType": "address",
							"name": "tokenAddress",
							"type": "address"
						},
						{
							"internalType": "int256",
							"name": "performancePercent24h",
							"type": "int256"
						},
						{
							"internalType": "int256",
							"name": "performanceVsMarketPercent",
							"type": "int256"
						},
						{
							"internalType": "uint256",
							"name": "lastUpdatedAt",
							"type": "uint256"
						}
					],
					"stateMutability": "view",
					"type": "function"
				},
				{
					"inputs": [
						{
							"internalType": "address",
							"name": "newOwner",
							"type": "address"
						}
					],
					"name": "transferOwnership",
					"outputs": [],
					"stateMutability": "nonpayable",
					"type": "function"
				},
				{
					"inputs": [],
					"name": "turnOffAlert",
					"outputs": [],
					"stateMutability": "nonpayable",
					"type": "function"
				},
				{
					"inputs": [
						{
							"internalType": "int256",
							"name": "_amount",
							"type": "int256"
						}
					],
					"name": "updateExchangeNetflow",
					"outputs": [],
					"stateMutability": "nonpayable",
					"type": "function"
				},
				{
					"inputs": [
						{
							"components": [
								{
									"internalType": "string",
									"name": "tokenSymbol",
									"type": "string"
								},
								{
									"internalType": "address",
									"name": "tokenAddress",
									"type": "address"
								},
								{
									"internalType": "int256",
									"name": "performancePercent24h",
									"type": "int256"
								},
								{
									"internalType": "int256",
									"name": "performanceVsMarketPercent",
									"type": "int256"
								},
								{
									"internalType": "uint256",
									"name": "lastUpdatedAt",
									"type": "uint256"
								}
							],
							"internalType": "struct types.AssetPerformanceInfo[]",
							"name": "_topOutperformers",
							"type": "tuple[]"
						},
						{
							"components": [
								{
									"internalType": "string",
									"name": "tokenSymbol",
									"type": "string"
								},
								{
									"internalType": "address",
									"name": "tokenAddress",
									"type": "address"
								},
								{
									"internalType": "int256",
									"name": "performancePercent24h",
									"type": "int256"
								},
								{
									"internalType": "int256",
									"name": "performanceVsMarketPercent",
									"type": "int256"
								},
								{
									"internalType": "uint256",
									"name": "lastUpdatedAt",
									"type": "uint256"
								}
							],
							"internalType": "struct types.AssetPerformanceInfo[]",
							"name": "_topUnderperformers",
							"type": "tuple[]"
						},
						{
							"internalType": "int256",
							"name": "_marketAvgMove24h",
							"type": "int256"
						}
					],
					"name": "updateMarketPerformance",
					"outputs": [],
					"stateMutability": "nonpayable",
					"type": "function"
				},
				{
					"inputs": [
						{
							"internalType": "string",
							"name": "_narrativeName",
							"type": "string"
						},
						{
							"internalType": "string",
							"name": "_tokenSymbol",
							"type": "string"
						},
						{
							"internalType": "int256",
							"name": "_relativePerformancePercent",
							"type": "int256"
						}
					],
					"name": "updateNarrativeTopPerformer",
					"outputs": [],
					"stateMutability": "nonpayable",
					"type": "function"
				},
				{
					"inputs": [
						{
							"internalType": "int256",
							"name": "_dailyNetflow",
							"type": "int256"
						},
						{
							"internalType": "int256",
							"name": "_weeklyNetflow",
							"type": "int256"
						},
						{
							"internalType": "int256",
							"name": "_monthlyNetflow",
							"type": "int256"
						},
						{
							"internalType": "int256",
							"name": "_marketCapChangePercent",
							"type": "int256"
						}
					],
					"name": "updateStablecoinOverallNetflow",
					"outputs": [],
					"stateMutability": "nonpayable",
					"type": "function"
				},
				{
					"inputs": [],
					"name": "userNetflowAlert",
					"outputs": [
						{
							"internalType": "uint256",
							"name": "id",
							"type": "uint256"
						},
						{
							"internalType": "address",
							"name": "user",
							"type": "address"
						},
						{
							"internalType": "enum Dashboard.AlertCondition",
							"name": "condition",
							"type": "uint8"
						},
						{
							"internalType": "int256",
							"name": "threshold1",
							"type": "int256"
						},
						{
							"internalType": "int256",
							"name": "threshold2",
							"type": "int256"
						},
						{
							"internalType": "bool",
							"name": "isActive",
							"type": "bool"
						},
						{
							"internalType": "bool",
							"name": "isTriggered",
							"type": "bool"
						},
						{
							"internalType": "uint256",
							"name": "lastTriggeredAt",
							"type": "uint256"
						},
						{
							"internalType": "string",
							"name": "message",
							"type": "string"
						}
					],
					"stateMutability": "view",
					"type": "function"
				}
			],
			"devdoc": {
				"errors": {
					"OwnableInvalidOwner(address)": [
						{
							"details": "The owner is not a valid owner account. (eg. `address(0)`)"
						}
					],
					"OwnableUnauthorizedAccount(address)": [
						{
							"details": "The caller account is not authorized to perform an operation."
						}
					]
				},
				"kind": "dev",
				"methods": {
					"owner()": {
						"details": "Returns the address of the current owner."
					},
					"renounceOwnership()": {
						"details": "Leaves the contract without owner. It will not be possible to call `onlyOwner` functions. Can only be called by the current owner. NOTE: Renouncing ownership will leave the contract without an owner, thereby disabling any functionality that is only available to the owner."
					},
					"transferOwnership(address)": {
						"details": "Transfers ownership of the contract to a new account (`newOwner`). Can only be called by the current owner."
					}
				},
				"version": 1
			},
			"evm": {
				"assembly": "    /* \"contracts/DashBoard.sol\":152:17384  contract Dashboard is Ownable, types {... */\n  mstore(0x40, 0x80)\n    /* \"contracts/DashBoard.sol\":327:379  bool public hasPreviousExchangeNetflowAmount = false */\n  0x04\n  dup1\n  sload\n  not(0xff)\n  and\n  swap1\n  sstore\n  0x01\n    /* \"contracts/DashBoard.sol\":1579:1610  uint256 private nextAlertId = 1 */\n  0x18\n  sstore\n    /* \"contracts/DashBoard.sol\":2902:3022  constructor() Ownable(msg.sender) {... */\n  callvalue\n  dup1\n  iszero\n  tag_1\n  jumpi\n  revert(0x00, 0x00)\ntag_1:\n  pop\n    /* \"contracts/DashBoard.sol\":2924:2934  msg.sender */\n  caller\n  dup1\n    /* \"@openzeppelin/contracts/access/Ownable.sol\":1269:1364  if (initialOwner == address(0)) {... */\n  tag_5\n  jumpi\n    /* \"@openzeppelin/contracts/access/Ownable.sol\":1322:1353  OwnableInvalidOwner(address(0)) */\n  mload(0x40)\n  shl(0xe0, 0x1e4fbdf7)\n  dup2\n  mstore\n    /* \"@openzeppelin/contracts/access/Ownable.sol\":1350:1351  0 */\n  0x00\n    /* \"@openzeppelin/contracts/access/Ownable.sol\":1322:1353  OwnableInvalidOwner(address(0)) */\n  0x04\n  dup3\n  add\n    /* \"#utility.yul\":160:211   */\n  mstore\n    /* \"#utility.yul\":133:151   */\n  0x24\n  add\n    /* \"@openzeppelin/contracts/access/Ownable.sol\":1322:1353  OwnableInvalidOwner(address(0)) */\n  mload(0x40)\n  dup1\n  swap2\n  sub\n  swap1\n  revert\n    /* \"@openzeppelin/contracts/access/Ownable.sol\":1269:1364  if (initialOwner == address(0)) {... */\ntag_5:\n    /* \"@openzeppelin/contracts/access/Ownable.sol\":1373:1405  _transferOwnership(initialOwner) */\n  tag_8\n    /* \"@openzeppelin/contracts/access/Ownable.sol\":1392:1404  initialOwner */\n  dup2\n    /* \"@openzeppelin/contracts/access/Ownable.sol\":1373:1391  _transferOwnership */\n  tag_9\n    /* \"@openzeppelin/contracts/access/Ownable.sol\":1373:1405  _transferOwnership(initialOwner) */\n  jump\t// in\ntag_8:\n  pop\n    /* \"contracts/DashBoard.sol\":2947:2972  userNetflowAlert.isActive */\n  0x15\n    /* \"contracts/DashBoard.sol\":2947:2980  userNetflowAlert.isActive = false */\n  dup1\n  sload\n  not(0xff)\n  and\n  swap1\n  sstore\n    /* \"contracts/DashBoard.sol\":2975:2980  false */\n  0x00\n    /* \"contracts/DashBoard.sol\":2947:2963  userNetflowAlert */\n  0x11\n    /* \"contracts/DashBoard.sol\":2991:3014  userNetflowAlert.id = 0 */\n  sstore\n    /* \"contracts/DashBoard.sol\":152:17384  contract Dashboard is Ownable, types {... */\n  jump(tag_13)\n    /* \"@openzeppelin/contracts/access/Ownable.sol\":2912:3099  function _transferOwnership(address newOwner) internal virtual {... */\ntag_9:\n    /* \"@openzeppelin/contracts/access/Ownable.sol\":2985:3001  address oldOwner */\n  0x00\n    /* \"@openzeppelin/contracts/access/Ownable.sol\":3004:3010  _owner */\n  dup1\n  sload\n  sub(shl(0xa0, 0x01), 0x01)\n    /* \"@openzeppelin/contracts/access/Ownable.sol\":3020:3037  _owner = newOwner */\n  dup4\n  dup2\n  and\n  not(sub(shl(0xa0, 0x01), 0x01))\n  dup4\n  and\n  dup2\n  or\n  dup5\n  sstore\n    /* \"@openzeppelin/contracts/access/Ownable.sol\":3052:3092  OwnershipTransferred(oldOwner, newOwner) */\n  mload(0x40)\n    /* \"@openzeppelin/contracts/access/Ownable.sol\":3004:3010  _owner */\n  swap2\n  swap1\n  swap3\n  and\n  swap3\n  dup4\n  swap2\n    /* \"@openzeppelin/contracts/access/Ownable.sol\":3052:3092  OwnershipTransferred(oldOwner, newOwner) */\n  0x8be0079c531659141344cd1fd0a4f28419497f9722a3daafe3b4186f6b6457e0\n  swap2\n    /* \"@openzeppelin/contracts/access/Ownable.sol\":2985:3001  address oldOwner */\n  swap1\n    /* \"@openzeppelin/contracts/access/Ownable.sol\":3052:3092  OwnershipTransferred(oldOwner, newOwner) */\n  log3\n    /* \"@openzeppelin/contracts/access/Ownable.sol\":2975:3099  {... */\n  pop\n    /* \"@openzeppelin/contracts/access/Ownable.sol\":2912:3099  function _transferOwnership(address newOwner) internal virtual {... */\n  pop\n  jump\t// out\n    /* \"#utility.yul\":14:217   */\ntag_13:\n    /* \"contracts/DashBoard.sol\":152:17384  contract Dashboard is Ownable, types {... */\n  dataSize(sub_0)\n  dup1\n  dataOffset(sub_0)\n  0x00\n  codecopy\n  0x00\n  return\nstop\n\nsub_0: assembly {\n        /* \"contracts/DashBoard.sol\":152:17384  contract Dashboard is Ownable, types {... */\n      mstore(0x40, 0x80)\n      callvalue\n      dup1\n      iszero\n      tag_1\n      jumpi\n      revert(0x00, 0x00)\n    tag_1:\n      pop\n      jumpi(tag_2, lt(calldatasize, 0x04))\n      shr(0xe0, calldataload(0x00))\n      dup1\n      0x8da5cb5b\n      gt\n      tag_35\n      jumpi\n      dup1\n      0xe642566f\n      gt\n      tag_36\n      jumpi\n      dup1\n      0xf2fde38b\n      gt\n      tag_37\n      jumpi\n      dup1\n      0xf2fde38b\n      eq\n      tag_31\n      jumpi\n      dup1\n      0xf42191de\n      eq\n      tag_32\n      jumpi\n      dup1\n      0xf44f031a\n      eq\n      tag_33\n      jumpi\n      dup1\n      0xfec53907\n      eq\n      tag_34\n      jumpi\n      revert(0x00, 0x00)\n    tag_37:\n      dup1\n      0xe642566f\n      eq\n      tag_27\n      jumpi\n      dup1\n      0xea7fbd64\n      eq\n      tag_28\n      jumpi\n      dup1\n      0xf1e52d1d\n      eq\n      tag_29\n      jumpi\n      dup1\n      0xf25ab9c9\n      eq\n      tag_30\n      jumpi\n      revert(0x00, 0x00)\n    tag_36:\n      dup1\n      0xb1950a37\n      gt\n      tag_38\n      jumpi\n      dup1\n      0xb1950a37\n      eq\n      tag_23\n      jumpi\n      dup1\n      0xb2cec9ef\n      eq\n      tag_24\n      jumpi\n      dup1\n      0xca848e6a\n      eq\n      tag_25\n      jumpi\n      dup1\n      0xe337d7cf\n      eq\n      tag_26\n      jumpi\n      revert(0x00, 0x00)\n    tag_38:\n      dup1\n      0x8da5cb5b\n      eq\n      tag_19\n      jumpi\n      dup1\n      0x977ddf37\n      eq\n      tag_20\n      jumpi\n      dup1\n      0x99670fea\n      eq\n      tag_21\n      jumpi\n      dup1\n      0xac57e64e\n      eq\n      tag_22\n      jumpi\n      revert(0x00, 0x00)\n    tag_35:\n      dup1\n      0x3afa9a2e\n      gt\n      tag_39\n      jumpi\n      dup1\n      0x740fb0d2\n      gt\n      tag_40\n      jumpi\n      dup1\n      0x740fb0d2\n      eq\n      tag_15\n      jumpi\n      dup1\n      0x7e3fb6ca\n      eq\n      tag_16\n      jumpi\n      dup1\n      0x7e767e14\n      eq\n      tag_17\n      jumpi\n      dup1\n      0x86b28718\n      eq\n      tag_18\n      jumpi\n      revert(0x00, 0x00)\n    tag_40:\n      dup1\n      0x3afa9a2e\n      eq\n      tag_11\n      jumpi\n      dup1\n      0x3fab3dd6\n      eq\n      tag_12\n      jumpi\n      dup1\n      0x440c1ec9\n      eq\n      tag_13\n      jumpi\n      dup1\n      0x715018a6\n      eq\n      tag_14\n      jumpi\n      revert(0x00, 0x00)\n    tag_39:\n      dup1\n      0x2e4d0321\n      gt\n      tag_41\n      jumpi\n      dup1\n      0x2e4d0321\n      eq\n      tag_7\n      jumpi\n      dup1\n      0x2f66b011\n      eq\n      tag_8\n      jumpi\n      dup1\n      0x2f85909b\n      eq\n      tag_9\n      jumpi\n      dup1\n      0x30400a3a\n      eq\n      tag_10\n      jumpi\n      revert(0x00, 0x00)\n    tag_41:\n      dup1\n      0x0acd704e\n      eq\n      tag_3\n      jumpi\n      dup1\n      0x0f549423\n      eq\n      tag_4\n      jumpi\n      dup1\n      0x2243e326\n      eq\n      tag_5\n      jumpi\n      dup1\n      0x298fc805\n      eq\n      tag_6\n      jumpi\n    tag_2:\n      revert(0x00, 0x00)\n        /* \"contracts/DashBoard.sol\":457:529  mapping(string => NarrativePerformanceInfo) public narrativePerformances */\n    tag_3:\n      tag_42\n      tag_43\n      calldatasize\n      0x04\n      tag_44\n      jump\t// in\n    tag_43:\n      tag_45\n      jump\t// in\n    tag_42:\n      mload(0x40)\n      tag_46\n      swap4\n      swap3\n      swap2\n      swap1\n      tag_47\n      jump\t// in\n    tag_46:\n      mload(0x40)\n      dup1\n      swap2\n      sub\n      swap1\n      return\n        /* \"contracts/DashBoard.sol\":327:379  bool public hasPreviousExchangeNetflowAmount = false */\n    tag_4:\n      sload(0x04)\n      tag_48\n      swap1\n      0xff\n      and\n      dup2\n      jump\n    tag_48:\n      mload(0x40)\n        /* \"#utility.yul\":1920:1934   */\n      swap1\n      iszero\n        /* \"#utility.yul\":1913:1935   */\n      iszero\n        /* \"#utility.yul\":1895:1936   */\n      dup2\n      mstore\n        /* \"#utility.yul\":1883:1885   */\n      0x20\n        /* \"#utility.yul\":1868:1886   */\n      add\n        /* \"contracts/DashBoard.sol\":327:379  bool public hasPreviousExchangeNetflowAmount = false */\n      tag_46\n        /* \"#utility.yul\":1755:1942   */\n      jump\n        /* \"contracts/DashBoard.sol\":536:565  string[] public narrativeKeys */\n    tag_5:\n      tag_52\n      tag_53\n      calldatasize\n      0x04\n      tag_54\n      jump\t// in\n    tag_53:\n      tag_55\n      jump\t// in\n    tag_52:\n      mload(0x40)\n      tag_46\n      swap2\n      swap1\n      tag_57\n      jump\t// in\n        /* \"contracts/DashBoard.sol\":276:319  int256 public previousExchangeNetflowAmount */\n    tag_6:\n      tag_58\n      sload(0x03)\n      dup2\n      jump\n    tag_58:\n      mload(0x40)\n        /* \"#utility.yul\":2501:2526   */\n      swap1\n      dup2\n      mstore\n        /* \"#utility.yul\":2489:2491   */\n      0x20\n        /* \"#utility.yul\":2474:2492   */\n      add\n        /* \"contracts/DashBoard.sol\":276:319  int256 public previousExchangeNetflowAmount */\n      tag_46\n        /* \"#utility.yul\":2357:2532   */\n      jump\n        /* \"contracts/DashBoard.sol\":8002:9429  function SingleThresholdNetflowAlert( // Đổi tên cho rõ ràng... */\n    tag_7:\n      tag_62\n      tag_63\n      calldatasize\n      0x04\n      tag_64\n      jump\t// in\n    tag_63:\n      tag_65\n      jump\t// in\n    tag_62:\n      stop\n        /* \"contracts/DashBoard.sol\":15034:15374  function activateAlert() external onlyOwner {... */\n    tag_8:\n      tag_62\n      tag_67\n      jump\t// in\n        /* \"contracts/DashBoard.sol\":15684:15794  function getAllNarrativeKeys() external view returns (string[] memory) {... */\n    tag_9:\n      tag_68\n      tag_69\n      jump\t// in\n    tag_68:\n      mload(0x40)\n      tag_46\n      swap2\n      swap1\n      tag_71\n      jump\t// in\n        /* \"contracts/DashBoard.sol\":649:701  AssetPerformanceInfo[] public topOutperformingAssets */\n    tag_10:\n      tag_72\n      tag_73\n      calldatasize\n      0x04\n      tag_54\n      jump\t// in\n    tag_73:\n      tag_74\n      jump\t// in\n    tag_72:\n      mload(0x40)\n      tag_46\n      swap6\n      swap5\n      swap4\n      swap3\n      swap2\n      swap1\n      tag_76\n      jump\t// in\n        /* \"contracts/DashBoard.sol\":3869:4588  function updateStablecoinOverallNetflow(... */\n    tag_11:\n      tag_62\n      tag_78\n      calldatasize\n      0x04\n      tag_79\n      jump\t// in\n    tag_78:\n      tag_80\n      jump\t// in\n        /* \"contracts/DashBoard.sol\":4596:5490  function addOrUpdateNarrativePerformance(string calldata _narrativeName, int256 _performancePercent) external onlyOwner {... */\n    tag_12:\n      tag_62\n      tag_82\n      calldatasize\n      0x04\n      tag_83\n      jump\t// in\n    tag_82:\n      tag_84\n      jump\t// in\n        /* \"contracts/DashBoard.sol\":15382:15635  function resetAlertTriggerState() external onlyOwner {... */\n    tag_13:\n      tag_62\n      tag_86\n      jump\t// in\n        /* \"@openzeppelin/contracts/access/Ownable.sol\":2293:2394  function renounceOwnership() public virtual onlyOwner {... */\n    tag_14:\n      tag_62\n      tag_88\n      jump\t// in\n        /* \"contracts/DashBoard.sol\":572:642  mapping(string => NarrativeTopTokenInfo) public narrativeTopPerformers */\n    tag_15:\n      tag_89\n      tag_90\n      calldatasize\n      0x04\n      tag_44\n      jump\t// in\n    tag_90:\n      tag_91\n      jump\t// in\n    tag_89:\n      mload(0x40)\n      tag_46\n      swap5\n      swap4\n      swap3\n      swap2\n      swap1\n      tag_93\n      jump\t// in\n        /* \"contracts/DashBoard.sol\":16324:16467  function getTopUnderperformingAssets() external view returns (AssetPerformanceInfo[] memory) {... */\n    tag_16:\n      tag_94\n      tag_95\n      jump\t// in\n    tag_94:\n      mload(0x40)\n      tag_46\n      swap2\n      swap1\n      tag_97\n      jump\t// in\n        /* \"contracts/DashBoard.sol\":15990:16173  function getNarrativeTopPerformer(string calldata _narrativeName) external view returns (NarrativeTopTokenInfo memory) {... */\n    tag_17:\n      tag_98\n      tag_99\n      calldatasize\n      0x04\n      tag_100\n      jump\t// in\n    tag_99:\n      tag_101\n      jump\t// in\n    tag_98:\n      mload(0x40)\n      tag_46\n      swap2\n      swap1\n      tag_103\n      jump\t// in\n        /* \"contracts/DashBoard.sol\":769:814  int256 public marketAverageMovementPercent24h */\n    tag_18:\n      tag_58\n      sload(0x0f)\n      dup2\n      jump\n        /* \"@openzeppelin/contracts/access/Ownable.sol\":1638:1723  function owner() public view virtual returns (address) {... */\n    tag_19:\n        /* \"@openzeppelin/contracts/access/Ownable.sol\":1684:1691  address */\n      0x00\n        /* \"@openzeppelin/contracts/access/Ownable.sol\":1710:1716  _owner */\n      sload\n        /* \"@openzeppelin/contracts/access/Ownable.sol\":1638:1723  function owner() public view virtual returns (address) {... */\n      mload(0x40)\n      sub(shl(0xa0, 0x01), 0x01)\n        /* \"@openzeppelin/contracts/access/Ownable.sol\":1710:1716  _owner */\n      swap1\n      swap2\n      and\n        /* \"#utility.yul\":9181:9232   */\n      dup2\n      mstore\n        /* \"#utility.yul\":9169:9171   */\n      0x20\n        /* \"#utility.yul\":9154:9172   */\n      add\n        /* \"@openzeppelin/contracts/access/Ownable.sol\":1638:1723  function owner() public view virtual returns (address) {... */\n      tag_46\n        /* \"#utility.yul\":9035:9238   */\n      jump\n        /* \"contracts/DashBoard.sol\":821:866  uint256 public marketPerformanceLastUpdatedAt */\n    tag_20:\n      tag_58\n      sload(0x10)\n      dup2\n      jump\n        /* \"contracts/DashBoard.sol\":389:450  StablecoinOverallInfo public stablecoinExchangeOverallNetflow */\n    tag_21:\n      sload(0x05)\n      sload(0x06)\n      sload(0x07)\n      sload(0x08)\n      sload(0x09)\n      tag_115\n      swap5\n      swap4\n      swap3\n      swap2\n      swap1\n      dup6\n      jump\n    tag_115:\n      0x40\n      dup1\n      mload\n        /* \"#utility.yul\":9676:9701   */\n      swap6\n      dup7\n      mstore\n        /* \"#utility.yul\":9732:9734   */\n      0x20\n        /* \"#utility.yul\":9717:9735   */\n      dup7\n      add\n        /* \"#utility.yul\":9710:9744   */\n      swap5\n      swap1\n      swap5\n      mstore\n        /* \"#utility.yul\":9760:9778   */\n      swap3\n      dup5\n      add\n        /* \"#utility.yul\":9753:9787   */\n      swap2\n      swap1\n      swap2\n      mstore\n        /* \"#utility.yul\":9818:9820   */\n      0x60\n        /* \"#utility.yul\":9803:9821   */\n      dup4\n      add\n        /* \"#utility.yul\":9796:9830   */\n      mstore\n        /* \"#utility.yul\":9861:9864   */\n      0x80\n        /* \"#utility.yul\":9846:9865   */\n      dup3\n      add\n        /* \"#utility.yul\":9839:9874   */\n      mstore\n        /* \"#utility.yul\":9663:9666   */\n      0xa0\n        /* \"#utility.yul\":9648:9667   */\n      add\n        /* \"contracts/DashBoard.sol\":389:450  StablecoinOverallInfo public stablecoinExchangeOverallNetflow */\n      tag_46\n        /* \"#utility.yul\":9425:9880   */\n      jump\n        /* \"contracts/DashBoard.sol\":14791:15026  function turnOffAlert() external onlyOwner {... */\n    tag_22:\n      tag_62\n      tag_120\n      jump\t// in\n        /* \"contracts/DashBoard.sol\":6425:7869  function updateMarketPerformance(... */\n    tag_23:\n      tag_62\n      tag_122\n      calldatasize\n      0x04\n      tag_123\n      jump\t// in\n    tag_122:\n      tag_124\n      jump\t// in\n        /* \"contracts/DashBoard.sol\":3071:3735  function updateExchangeNetflow(int256 _amount) external onlyOwner {... */\n    tag_24:\n      tag_62\n      tag_126\n      calldatasize\n      0x04\n      tag_54\n      jump\t// in\n    tag_126:\n      tag_128\n      jump\t// in\n        /* \"contracts/DashBoard.sol\":16516:17381  function removeNarrativeKey(string calldata _narrativeName) external onlyOwner {... */\n    tag_25:\n      tag_62\n      tag_130\n      calldatasize\n      0x04\n      tag_100\n      jump\t// in\n    tag_130:\n      tag_131\n      jump\t// in\n        /* \"contracts/DashBoard.sol\":5498:5802  function batchUpdateNarrativePerformances(NarrativePerformanceInfo[] calldata _performances) external onlyOwner {... */\n    tag_26:\n      tag_62\n      tag_133\n      calldatasize\n      0x04\n      tag_134\n      jump\t// in\n    tag_133:\n      tag_135\n      jump\t// in\n        /* \"contracts/DashBoard.sol\":1506:1542  NetflowAlert public userNetflowAlert */\n    tag_27:\n      tag_136\n      tag_137\n      jump\t// in\n    tag_136:\n      mload(0x40)\n      tag_46\n      swap10\n      swap9\n      swap8\n      swap7\n      swap6\n      swap5\n      swap4\n      swap3\n      swap2\n      swap1\n      tag_139\n      jump\t// in\n        /* \"contracts/DashBoard.sol\":5810:6417  function updateNarrativeTopPerformer(... */\n    tag_28:\n      tag_62\n      tag_141\n      calldatasize\n      0x04\n      tag_142\n      jump\t// in\n    tag_141:\n      tag_143\n      jump\t// in\n        /* \"contracts/DashBoard.sol\":16179:16318  function getTopOutperformingAssets() external view returns (AssetPerformanceInfo[] memory) {... */\n    tag_29:\n      tag_94\n      tag_145\n      jump\t// in\n        /* \"contracts/DashBoard.sol\":9502:11096  function DoubleNetflowAlert( // Đổi tên cho rõ ràng... */\n    tag_30:\n      tag_62\n      tag_148\n      calldatasize\n      0x04\n      tag_149\n      jump\t// in\n    tag_148:\n      tag_150\n      jump\t// in\n        /* \"@openzeppelin/contracts/access/Ownable.sol\":2543:2758  function transferOwnership(address newOwner) public virtual onlyOwner {... */\n    tag_31:\n      tag_62\n      tag_152\n      calldatasize\n      0x04\n      tag_153\n      jump\t// in\n    tag_152:\n      tag_154\n      jump\t// in\n        /* \"contracts/DashBoard.sol\":15800:15984  function getNarrativePerformance(string calldata _narrativeName) external view returns (NarrativePerformanceInfo memory) {... */\n    tag_32:\n      tag_155\n      tag_156\n      calldatasize\n      0x04\n      tag_100\n      jump\t// in\n    tag_156:\n      tag_157\n      jump\t// in\n    tag_155:\n      mload(0x40)\n      tag_46\n      swap2\n      swap1\n      tag_159\n      jump\t// in\n        /* \"contracts/DashBoard.sol\":708:762  AssetPerformanceInfo[] public topUnderperformingAssets */\n    tag_33:\n      tag_72\n      tag_161\n      calldatasize\n      0x04\n      tag_54\n      jump\t// in\n    tag_161:\n      tag_162\n      jump\t// in\n        /* \"contracts/DashBoard.sol\":234:268  NetflowInfo public exchangeNetflow */\n    tag_34:\n      sload(0x01)\n      sload(0x02)\n      tag_164\n      swap2\n      swap1\n      dup3\n      jump\n    tag_164:\n      0x40\n      dup1\n      mload\n        /* \"#utility.yul\":15895:15920   */\n      swap3\n      dup4\n      mstore\n        /* \"#utility.yul\":15951:15953   */\n      0x20\n        /* \"#utility.yul\":15936:15954   */\n      dup4\n      add\n        /* \"#utility.yul\":15929:15963   */\n      swap2\n      swap1\n      swap2\n      mstore\n        /* \"#utility.yul\":15868:15886   */\n      add\n        /* \"contracts/DashBoard.sol\":234:268  NetflowInfo public exchangeNetflow */\n      tag_46\n        /* \"#utility.yul\":15723:15969   */\n      jump\n        /* \"contracts/DashBoard.sol\":457:529  mapping(string => NarrativePerformanceInfo) public narrativePerformances */\n    tag_45:\n      dup1\n      mload\n      0x20\n      dup2\n      dup4\n      add\n      dup2\n      add\n      dup1\n      mload\n      0x0a\n      dup3\n      mstore\n      swap3\n      dup3\n      add\n      swap2\n      swap1\n      swap4\n      add\n      keccak256\n      swap2\n      mstore\n      dup1\n      sload\n      dup2\n      swap1\n      tag_168\n      swap1\n      tag_169\n      jump\t// in\n    tag_168:\n      dup1\n      0x1f\n      add\n      0x20\n      dup1\n      swap2\n      div\n      mul\n      0x20\n      add\n      mload(0x40)\n      swap1\n      dup2\n      add\n      0x40\n      mstore\n      dup1\n      swap3\n      swap2\n      swap1\n      dup2\n      dup2\n      mstore\n      0x20\n      add\n      dup3\n      dup1\n      sload\n      tag_170\n      swap1\n      tag_169\n      jump\t// in\n    tag_170:\n      dup1\n      iszero\n      tag_171\n      jumpi\n      dup1\n      0x1f\n      lt\n      tag_172\n      jumpi\n      0x0100\n      dup1\n      dup4\n      sload\n      div\n      mul\n      dup4\n      mstore\n      swap2\n      0x20\n      add\n      swap2\n      jump(tag_171)\n    tag_172:\n      dup3\n      add\n      swap2\n      swap1\n      0x00\n      mstore\n      keccak256(0x00, 0x20)\n      swap1\n    tag_173:\n      dup2\n      sload\n      dup2\n      mstore\n      swap1\n      0x01\n      add\n      swap1\n      0x20\n      add\n      dup1\n      dup4\n      gt\n      tag_173\n      jumpi\n      dup3\n      swap1\n      sub\n      0x1f\n      and\n      dup3\n      add\n      swap2\n    tag_171:\n      pop\n      pop\n      pop\n      pop\n      pop\n      swap1\n      dup1\n      0x01\n      add\n      sload\n      swap1\n      dup1\n      0x02\n      add\n      sload\n      swap1\n      pop\n      dup4\n      jump\t// out\n        /* \"contracts/DashBoard.sol\":536:565  string[] public narrativeKeys */\n    tag_55:\n      0x0b\n      dup2\n      dup2\n      sload\n      dup2\n      lt\n      tag_174\n      jumpi\n      0x00\n      dup1\n      revert\n    tag_174:\n      swap1\n      0x00\n      mstore\n      keccak256(0x00, 0x20)\n      add\n      0x00\n      swap2\n      pop\n      swap1\n      pop\n      dup1\n      sload\n      tag_176\n      swap1\n      tag_169\n      jump\t// in\n    tag_176:\n      dup1\n      0x1f\n      add\n      0x20\n      dup1\n      swap2\n      div\n      mul\n      0x20\n      add\n      mload(0x40)\n      swap1\n      dup2\n      add\n      0x40\n      mstore\n      dup1\n      swap3\n      swap2\n      swap1\n      dup2\n      dup2\n      mstore\n      0x20\n      add\n      dup3\n      dup1\n      sload\n      tag_177\n      swap1\n      tag_169\n      jump\t// in\n    tag_177:\n      dup1\n      iszero\n      tag_178\n      jumpi\n      dup1\n      0x1f\n      lt\n      tag_179\n      jumpi\n      0x0100\n      dup1\n      dup4\n      sload\n      div\n      mul\n      dup4\n      mstore\n      swap2\n      0x20\n      add\n      swap2\n      jump(tag_178)\n    tag_179:\n      dup3\n      add\n      swap2\n      swap1\n      0x00\n      mstore\n      keccak256(0x00, 0x20)\n      swap1\n    tag_180:\n      dup2\n      sload\n      dup2\n      mstore\n      swap1\n      0x01\n      add\n      swap1\n      0x20\n      add\n      dup1\n      dup4\n      gt\n      tag_180\n      jumpi\n      dup3\n      swap1\n      sub\n      0x1f\n      and\n      dup3\n      add\n      swap2\n    tag_178:\n      pop\n      pop\n      pop\n      pop\n      pop\n      dup2\n      jump\t// out\n        /* \"contracts/DashBoard.sol\":8002:9429  function SingleThresholdNetflowAlert( // Đổi tên cho rõ ràng... */\n    tag_65:\n        /* \"@openzeppelin/contracts/access/Ownable.sol\":1531:1544  _checkOwner() */\n      tag_182\n        /* \"@openzeppelin/contracts/access/Ownable.sol\":1531:1542  _checkOwner */\n      tag_183\n        /* \"@openzeppelin/contracts/access/Ownable.sol\":1531:1544  _checkOwner() */\n      jump\t// in\n    tag_182:\n        /* \"contracts/DashBoard.sol\":8241:8268  AlertCondition.GREATER_THAN */\n      0x01\n        /* \"contracts/DashBoard.sol\":8227:8237  _condition */\n      dup5\n        /* \"contracts/DashBoard.sol\":8227:8268  _condition == AlertCondition.GREATER_THAN */\n      0x0c\n      dup2\n      gt\n      iszero\n      tag_189\n      jumpi\n      tag_189\n      tag_187\n      jump\t// in\n    tag_189:\n      eq\n        /* \"contracts/DashBoard.sol\":8227:8323  _condition == AlertCondition.GREATER_THAN ||... */\n      dup1\n      tag_190\n      jumpi\n      pop\n        /* \"contracts/DashBoard.sol\":8299:8323  AlertCondition.LESS_THAN */\n      0x02\n        /* \"contracts/DashBoard.sol\":8285:8295  _condition */\n      dup5\n        /* \"contracts/DashBoard.sol\":8285:8323  _condition == AlertCondition.LESS_THAN */\n      0x0c\n      dup2\n      gt\n      iszero\n      tag_194\n      jumpi\n      tag_194\n      tag_187\n      jump\t// in\n    tag_194:\n      eq\n        /* \"contracts/DashBoard.sol\":8227:8323  _condition == AlertCondition.GREATER_THAN ||... */\n    tag_190:\n        /* \"contracts/DashBoard.sol\":8227:8377  _condition == AlertCondition.GREATER_THAN ||... */\n      dup1\n      tag_195\n      jumpi\n      pop\n        /* \"contracts/DashBoard.sol\":8354:8377  AlertCondition.EQUAL_TO */\n      0x03\n        /* \"contracts/DashBoard.sol\":8340:8350  _condition */\n      dup5\n        /* \"contracts/DashBoard.sol\":8340:8377  _condition == AlertCondition.EQUAL_TO */\n      0x0c\n      dup2\n      gt\n      iszero\n      tag_199\n      jumpi\n      tag_199\n      tag_187\n      jump\t// in\n    tag_199:\n      eq\n        /* \"contracts/DashBoard.sol\":8227:8377  _condition == AlertCondition.GREATER_THAN ||... */\n    tag_195:\n        /* \"contracts/DashBoard.sol\":8227:8431  _condition == AlertCondition.GREATER_THAN ||... */\n      dup1\n      tag_200\n      jumpi\n      pop\n        /* \"contracts/DashBoard.sol\":8408:8431  AlertCondition.CROSSING */\n      0x04\n        /* \"contracts/DashBoard.sol\":8394:8404  _condition */\n      dup5\n        /* \"contracts/DashBoard.sol\":8394:8431  _condition == AlertCondition.CROSSING */\n      0x0c\n      dup2\n      gt\n      iszero\n      tag_204\n      jumpi\n      tag_204\n      tag_187\n      jump\t// in\n    tag_204:\n      eq\n        /* \"contracts/DashBoard.sol\":8227:8431  _condition == AlertCondition.GREATER_THAN ||... */\n    tag_200:\n        /* \"contracts/DashBoard.sol\":8227:8488  _condition == AlertCondition.GREATER_THAN ||... */\n      dup1\n      tag_205\n      jumpi\n      pop\n        /* \"contracts/DashBoard.sol\":8462:8488  AlertCondition.CROSSING_UP */\n      0x05\n        /* \"contracts/DashBoard.sol\":8448:8458  _condition */\n      dup5\n        /* \"contracts/DashBoard.sol\":8448:8488  _condition == AlertCondition.CROSSING_UP */\n      0x0c\n      dup2\n      gt\n      iszero\n      tag_209\n      jumpi\n      tag_209\n      tag_187\n      jump\t// in\n    tag_209:\n      eq\n        /* \"contracts/DashBoard.sol\":8227:8488  _condition == AlertCondition.GREATER_THAN ||... */\n    tag_205:\n        /* \"contracts/DashBoard.sol\":8227:8547  _condition == AlertCondition.GREATER_THAN ||... */\n      dup1\n      tag_210\n      jumpi\n      pop\n        /* \"contracts/DashBoard.sol\":8519:8547  AlertCondition.CROSSING_DOWN */\n      0x06\n        /* \"contracts/DashBoard.sol\":8505:8515  _condition */\n      dup5\n        /* \"contracts/DashBoard.sol\":8505:8547  _condition == AlertCondition.CROSSING_DOWN */\n      0x0c\n      dup2\n      gt\n      iszero\n      tag_214\n      jumpi\n      tag_214\n      tag_187\n      jump\t// in\n    tag_214:\n      eq\n        /* \"contracts/DashBoard.sol\":8227:8547  _condition == AlertCondition.GREATER_THAN ||... */\n    tag_210:\n        /* \"contracts/DashBoard.sol\":8227:8602  _condition == AlertCondition.GREATER_THAN ||... */\n      dup1\n      tag_215\n      jumpi\n      pop\n        /* \"contracts/DashBoard.sol\":8578:8602  AlertCondition.MOVING_UP */\n      0x0b\n        /* \"contracts/DashBoard.sol\":8564:8574  _condition */\n      dup5\n        /* \"contracts/DashBoard.sol\":8564:8602  _condition == AlertCondition.MOVING_UP */\n      0x0c\n      dup2\n      gt\n      iszero\n      tag_219\n      jumpi\n      tag_219\n      tag_187\n      jump\t// in\n    tag_219:\n      eq\n        /* \"contracts/DashBoard.sol\":8227:8602  _condition == AlertCondition.GREATER_THAN ||... */\n    tag_215:\n        /* \"contracts/DashBoard.sol\":8227:8659  _condition == AlertCondition.GREATER_THAN ||... */\n      dup1\n      tag_220\n      jumpi\n      pop\n        /* \"contracts/DashBoard.sol\":8633:8659  AlertCondition.MOVING_DOWN */\n      0x0c\n        /* \"contracts/DashBoard.sol\":8619:8629  _condition */\n      dup5\n        /* \"contracts/DashBoard.sol\":8619:8659  _condition == AlertCondition.MOVING_DOWN */\n      0x0c\n      dup2\n      gt\n      iszero\n      tag_224\n      jumpi\n      tag_224\n      tag_187\n      jump\t// in\n    tag_224:\n      eq\n        /* \"contracts/DashBoard.sol\":8227:8659  _condition == AlertCondition.GREATER_THAN ||... */\n    tag_220:\n        /* \"contracts/DashBoard.sol\":8205:8742  require(... */\n      tag_225\n      jumpi\n      mload(0x40)\n      shl(0xe5, 0x461bcd)\n      dup2\n      mstore\n        /* \"#utility.yul\":16561:16563   */\n      0x20\n        /* \"contracts/DashBoard.sol\":8205:8742  require(... */\n      0x04\n      dup3\n      add\n        /* \"#utility.yul\":16543:16564   */\n      mstore\n        /* \"#utility.yul\":16600:16602   */\n      0x37\n        /* \"#utility.yul\":16580:16598   */\n      0x24\n      dup3\n      add\n        /* \"#utility.yul\":16573:16603   */\n      mstore\n        /* \"#utility.yul\":16639:16673   */\n      0x44617368626f6172643a20496e76616c696420636f6e646974696f6e20666f72\n        /* \"#utility.yul\":16619:16637   */\n      0x44\n      dup3\n      add\n        /* \"#utility.yul\":16612:16674   */\n      mstore\n        /* \"#utility.yul\":16710:16735   */\n      0x2073696e676c65207468726573686f6c6420616c657274000000000000000000\n        /* \"#utility.yul\":16690:16708   */\n      0x64\n      dup3\n      add\n        /* \"#utility.yul\":16683:16736   */\n      mstore\n        /* \"#utility.yul\":16753:16772   */\n      0x84\n      add\n        /* \"contracts/DashBoard.sol\":8205:8742  require(... */\n    tag_226:\n      mload(0x40)\n      dup1\n      swap2\n      sub\n      swap1\n      revert\n    tag_225:\n        /* \"contracts/DashBoard.sol\":8759:8775  userNetflowAlert */\n      0x11\n        /* \"contracts/DashBoard.sol\":8759:8778  userNetflowAlert.id */\n      sload\n      0x00\n        /* \"contracts/DashBoard.sol\":8759:8783  userNetflowAlert.id == 0 */\n      sub\n        /* \"contracts/DashBoard.sol\":8755:8848  if (userNetflowAlert.id == 0) {... */\n      tag_228\n      jumpi\n        /* \"contracts/DashBoard.sol\":8823:8834  nextAlertId */\n      0x18\n        /* \"contracts/DashBoard.sol\":8823:8836  nextAlertId++ */\n      dup1\n      sload\n      swap1\n        /* \"contracts/DashBoard.sol\":8823:8834  nextAlertId */\n      0x00\n        /* \"contracts/DashBoard.sol\":8823:8836  nextAlertId++ */\n      tag_229\n      dup4\n      tag_230\n      jump\t// in\n    tag_229:\n      swap1\n      swap2\n      sstore\n      pop\n        /* \"contracts/DashBoard.sol\":8801:8817  userNetflowAlert */\n      0x11\n        /* \"contracts/DashBoard.sol\":8801:8836  userNetflowAlert.id = nextAlertId++ */\n      sstore\n        /* \"contracts/DashBoard.sol\":8755:8848  if (userNetflowAlert.id == 0) {... */\n    tag_228:\n        /* \"contracts/DashBoard.sol\":8858:8879  userNetflowAlert.user */\n      0x12\n        /* \"contracts/DashBoard.sol\":8858:8892  userNetflowAlert.user = msg.sender */\n      dup1\n      sload\n        /* \"contracts/DashBoard.sol\":8882:8892  msg.sender */\n      caller\n      not(sub(shl(0xa0, 0x01), 0x01))\n        /* \"contracts/DashBoard.sol\":8858:8892  userNetflowAlert.user = msg.sender */\n      dup3\n      and\n      dup2\n      or\n      dup4\n      sstore\n        /* \"contracts/DashBoard.sol\":8982:8992  _condition */\n      dup7\n      swap3\n        /* \"contracts/DashBoard.sol\":8858:8879  userNetflowAlert.user */\n      swap2\n      not(sub(shl(0xa8, 0x01), 0x01))\n        /* \"contracts/DashBoard.sol\":8953:8992  userNetflowAlert.condition = _condition */\n      and\n      not(shl(0xa0, 0xff))\n      swap1\n      swap2\n      and\n      or\n      shl(0xa0, 0x01)\n        /* \"contracts/DashBoard.sol\":8982:8992  _condition */\n      dup4\n        /* \"contracts/DashBoard.sol\":8953:8992  userNetflowAlert.condition = _condition */\n      0x0c\n      dup2\n      gt\n      iszero\n      tag_232\n      jumpi\n      tag_232\n      tag_187\n      jump\t// in\n    tag_232:\n      mul\n      or\n      swap1\n      sstore\n      pop\n        /* \"contracts/DashBoard.sol\":9003:9030  userNetflowAlert.threshold1 */\n      0x13\n        /* \"contracts/DashBoard.sol\":9003:9044  userNetflowAlert.threshold1 = _threshold1 */\n      dup4\n      swap1\n      sstore\n        /* \"contracts/DashBoard.sol\":9085:9086  0 */\n      0x00\n        /* \"contracts/DashBoard.sol\":9055:9082  userNetflowAlert.threshold2 */\n      0x14\n        /* \"contracts/DashBoard.sol\":9055:9086  userNetflowAlert.threshold2 = 0 */\n      sstore\n        /* \"contracts/DashBoard.sol\":9145:9169  userNetflowAlert.message */\n      0x17\n        /* \"contracts/DashBoard.sol\":9145:9180  userNetflowAlert.message = _message */\n      tag_233\n        /* \"contracts/DashBoard.sol\":9172:9180  _message */\n      dup3\n      dup5\n        /* \"contracts/DashBoard.sol\":9145:9169  userNetflowAlert.message */\n      dup4\n        /* \"contracts/DashBoard.sol\":9145:9180  userNetflowAlert.message = _message */\n      tag_234\n      jump\t// in\n    tag_233:\n      pop\n        /* \"contracts/DashBoard.sol\":9191:9216  userNetflowAlert.isActive */\n      0x15\n        /* \"contracts/DashBoard.sol\":9191:9223  userNetflowAlert.isActive = true */\n      dup1\n      sload\n      not(0xffff)\n        /* \"contracts/DashBoard.sol\":9234:9270  userNetflowAlert.isTriggered = false */\n      and\n        /* \"contracts/DashBoard.sol\":9219:9223  true */\n      0x01\n        /* \"contracts/DashBoard.sol\":9234:9270  userNetflowAlert.isTriggered = false */\n      or\n      swap1\n      sstore\n        /* \"contracts/DashBoard.sol\":9191:9216  userNetflowAlert.isActive */\n      0x00\n        /* \"contracts/DashBoard.sol\":9281:9313  userNetflowAlert.lastTriggeredAt */\n      0x16\n        /* \"contracts/DashBoard.sol\":9281:9317  userNetflowAlert.lastTriggeredAt = 0 */\n      dup2\n      swap1\n      sstore\n        /* \"contracts/DashBoard.sol\":9191:9207  userNetflowAlert */\n      0x11\n        /* \"contracts/DashBoard.sol\":9351:9370  userNetflowAlert.id */\n      sload\n        /* \"contracts/DashBoard.sol\":9335:9421  AlertConfigured(userNetflowAlert.id, msg.sender, _condition, _threshold1, 0, _message) */\n      mload(0x40)\n        /* \"contracts/DashBoard.sol\":9372:9382  msg.sender */\n      caller\n      swap3\n        /* \"contracts/DashBoard.sol\":9335:9421  AlertConfigured(userNetflowAlert.id, msg.sender, _condition, _threshold1, 0, _message) */\n      0x778334af3114ade8967680fbf1e80e8e34dbe95416246aaef26907ae22cdd358\n      swap2\n      tag_235\n      swap2\n        /* \"contracts/DashBoard.sol\":9384:9394  _condition */\n      dup10\n      swap2\n        /* \"contracts/DashBoard.sol\":9396:9407  _threshold1 */\n      dup10\n      swap2\n        /* \"contracts/DashBoard.sol\":9191:9216  userNetflowAlert.isActive */\n      swap1\n        /* \"contracts/DashBoard.sol\":9412:9420  _message */\n      dup10\n      swap1\n      dup10\n      swap1\n        /* \"contracts/DashBoard.sol\":9335:9421  AlertConfigured(userNetflowAlert.id, msg.sender, _condition, _threshold1, 0, _message) */\n      tag_236\n      jump\t// in\n    tag_235:\n      mload(0x40)\n      dup1\n      swap2\n      sub\n      swap1\n      log3\n        /* \"contracts/DashBoard.sol\":8002:9429  function SingleThresholdNetflowAlert( // Đổi tên cho rõ ràng... */\n      pop\n      pop\n      pop\n      pop\n      jump\t// out\n        /* \"contracts/DashBoard.sol\":15034:15374  function activateAlert() external onlyOwner {... */\n    tag_67:\n        /* \"@openzeppelin/contracts/access/Ownable.sol\":1531:1544  _checkOwner() */\n      tag_238\n        /* \"@openzeppelin/contracts/access/Ownable.sol\":1531:1542  _checkOwner */\n      tag_183\n        /* \"@openzeppelin/contracts/access/Ownable.sol\":1531:1544  _checkOwner() */\n      jump\t// in\n    tag_238:\n        /* \"contracts/DashBoard.sol\":15093:15109  userNetflowAlert */\n      0x11\n        /* \"contracts/DashBoard.sol\":15093:15112  userNetflowAlert.id */\n      sload\n        /* \"contracts/DashBoard.sol\":15093:15117  userNetflowAlert.id != 0 */\n      iszero\n      dup1\n      iszero\n      swap1\n        /* \"contracts/DashBoard.sol\":15093:15147  userNetflowAlert.id != 0 && !userNetflowAlert.isActive */\n      tag_240\n      jumpi\n      pop\n        /* \"contracts/DashBoard.sol\":15122:15147  userNetflowAlert.isActive */\n      and(0xff, sload(0x15))\n        /* \"contracts/DashBoard.sol\":15121:15147  !userNetflowAlert.isActive */\n      iszero\n        /* \"contracts/DashBoard.sol\":15093:15147  userNetflowAlert.id != 0 && !userNetflowAlert.isActive */\n    tag_240:\n        /* \"contracts/DashBoard.sol\":15090:15367  if(userNetflowAlert.id != 0 && !userNetflowAlert.isActive){... */\n      iszero\n      tag_241\n      jumpi\n        /* \"contracts/DashBoard.sol\":15163:15188  userNetflowAlert.isActive */\n      0x15\n        /* \"contracts/DashBoard.sol\":15163:15195  userNetflowAlert.isActive = true */\n      dup1\n      sload\n      not(0xffff)\n        /* \"contracts/DashBoard.sol\":15210:15246  userNetflowAlert.isTriggered = false */\n      and\n        /* \"contracts/DashBoard.sol\":15191:15195  true */\n      0x01\n        /* \"contracts/DashBoard.sol\":15210:15246  userNetflowAlert.isTriggered = false */\n      or\n      swap1\n      sstore\n        /* \"contracts/DashBoard.sol\":15163:15179  userNetflowAlert */\n      0x11\n        /* \"contracts/DashBoard.sol\":15335:15354  userNetflowAlert.id */\n      sload\n        /* \"contracts/DashBoard.sol\":15320:15355  AlertActivated(userNetflowAlert.id) */\n      mload(0x40)\n      0x5b2a724a870cf7fe2c83bd903795d3ba6163ee1091a97587edf93ff866e22965\n      swap1\n        /* \"contracts/DashBoard.sol\":15163:15188  userNetflowAlert.isActive */\n      0x00\n      swap1\n        /* \"contracts/DashBoard.sol\":15320:15355  AlertActivated(userNetflowAlert.id) */\n      log2\n        /* \"contracts/DashBoard.sol\":15090:15367  if(userNetflowAlert.id != 0 && !userNetflowAlert.isActive){... */\n    tag_241:\n        /* \"contracts/DashBoard.sol\":15034:15374  function activateAlert() external onlyOwner {... */\n      jump\t// out\n        /* \"contracts/DashBoard.sol\":15684:15794  function getAllNarrativeKeys() external view returns (string[] memory) {... */\n    tag_69:\n        /* \"contracts/DashBoard.sol\":15738:15753  string[] memory */\n      0x60\n        /* \"contracts/DashBoard.sol\":15773:15786  narrativeKeys */\n      0x0b\n        /* \"contracts/DashBoard.sol\":15766:15786  return narrativeKeys */\n      dup1\n      sload\n      dup1\n      0x20\n      mul\n      0x20\n      add\n      mload(0x40)\n      swap1\n      dup2\n      add\n      0x40\n      mstore\n      dup1\n      swap3\n      swap2\n      swap1\n      dup2\n      dup2\n      mstore\n      0x20\n      add\n      0x00\n      swap1\n    tag_243:\n      dup3\n      dup3\n      lt\n      iszero\n      tag_244\n      jumpi\n      dup4\n      dup3\n      swap1\n      0x00\n      mstore\n      keccak256(0x00, 0x20)\n      add\n      dup1\n      sload\n      tag_246\n      swap1\n      tag_169\n      jump\t// in\n    tag_246:\n      dup1\n      0x1f\n      add\n      0x20\n      dup1\n      swap2\n      div\n      mul\n      0x20\n      add\n      mload(0x40)\n      swap1\n      dup2\n      add\n      0x40\n      mstore\n      dup1\n      swap3\n      swap2\n      swap1\n      dup2\n      dup2\n      mstore\n      0x20\n      add\n      dup3\n      dup1\n      sload\n      tag_247\n      swap1\n      tag_169\n      jump\t// in\n    tag_247:\n      dup1\n      iszero\n      tag_248\n      jumpi\n      dup1\n      0x1f\n      lt\n      tag_249\n      jumpi\n      0x0100\n      dup1\n      dup4\n      sload\n      div\n      mul\n      dup4\n      mstore\n      swap2\n      0x20\n      add\n      swap2\n      jump(tag_248)\n    tag_249:\n      dup3\n      add\n      swap2\n      swap1\n      0x00\n      mstore\n      keccak256(0x00, 0x20)\n      swap1\n    tag_250:\n      dup2\n      sload\n      dup2\n      mstore\n      swap1\n      0x01\n      add\n      swap1\n      0x20\n      add\n      dup1\n      dup4\n      gt\n      tag_250\n      jumpi\n      dup3\n      swap1\n      sub\n      0x1f\n      and\n      dup3\n      add\n      swap2\n    tag_248:\n      pop\n      pop\n      pop\n      pop\n      pop\n      dup2\n      mstore\n      0x20\n      add\n      swap1\n      0x01\n      add\n      swap1\n      jump(tag_243)\n    tag_244:\n      pop\n      pop\n      pop\n      pop\n      swap1\n      pop\n        /* \"contracts/DashBoard.sol\":15684:15794  function getAllNarrativeKeys() external view returns (string[] memory) {... */\n      swap1\n      jump\t// out\n        /* \"contracts/DashBoard.sol\":649:701  AssetPerformanceInfo[] public topOutperformingAssets */\n    tag_74:\n      0x0d\n      dup2\n      dup2\n      sload\n      dup2\n      lt\n      tag_251\n      jumpi\n      0x00\n      dup1\n      revert\n    tag_251:\n      swap1\n      0x00\n      mstore\n      keccak256(0x00, 0x20)\n      swap1\n      0x05\n      mul\n      add\n      0x00\n      swap2\n      pop\n      swap1\n      pop\n      dup1\n      0x00\n      add\n      dup1\n      sload\n      tag_253\n      swap1\n      tag_169\n      jump\t// in\n    tag_253:\n      dup1\n      0x1f\n      add\n      0x20\n      dup1\n      swap2\n      div\n      mul\n      0x20\n      add\n      mload(0x40)\n      swap1\n      dup2\n      add\n      0x40\n      mstore\n      dup1\n      swap3\n      swap2\n      swap1\n      dup2\n      dup2\n      mstore\n      0x20\n      add\n      dup3\n      dup1\n      sload\n      tag_254\n      swap1\n      tag_169\n      jump\t// in\n    tag_254:\n      dup1\n      iszero\n      tag_255\n      jumpi\n      dup1\n      0x1f\n      lt\n      tag_256\n      jumpi\n      0x0100\n      dup1\n      dup4\n      sload\n      div\n      mul\n      dup4\n      mstore\n      swap2\n      0x20\n      add\n      swap2\n      jump(tag_255)\n    tag_256:\n      dup3\n      add\n      swap2\n      swap1\n      0x00\n      mstore\n      keccak256(0x00, 0x20)\n      swap1\n    tag_257:\n      dup2\n      sload\n      dup2\n      mstore\n      swap1\n      0x01\n      add\n      swap1\n      0x20\n      add\n      dup1\n      dup4\n      gt\n      tag_257\n      jumpi\n      dup3\n      swap1\n      sub\n      0x1f\n      and\n      dup3\n      add\n      swap2\n    tag_255:\n      pop\n      pop\n      pop\n      pop\n      0x01\n      dup4\n      add\n      sload\n      0x02\n      dup5\n      add\n      sload\n      0x03\n      dup6\n      add\n      sload\n      0x04\n      swap1\n      swap6\n      add\n      sload\n      swap4\n      swap5\n      sub(shl(0xa0, 0x01), 0x01)\n      swap1\n      swap3\n      and\n      swap4\n      swap1\n      swap3\n      pop\n      dup6\n      jump\t// out\n        /* \"contracts/DashBoard.sol\":3869:4588  function updateStablecoinOverallNetflow(... */\n    tag_80:\n        /* \"@openzeppelin/contracts/access/Ownable.sol\":1531:1544  _checkOwner() */\n      tag_259\n        /* \"@openzeppelin/contracts/access/Ownable.sol\":1531:1542  _checkOwner */\n      tag_183\n        /* \"@openzeppelin/contracts/access/Ownable.sol\":1531:1544  _checkOwner() */\n      jump\t// in\n    tag_259:\n        /* \"contracts/DashBoard.sol\":4056:4088  stablecoinExchangeOverallNetflow */\n      0x05\n        /* \"contracts/DashBoard.sol\":4056:4120  stablecoinExchangeOverallNetflow.dailyNetflowSum = _dailyNetflow */\n      dup5\n      swap1\n      sstore\n        /* \"contracts/DashBoard.sol\":4131:4180  stablecoinExchangeOverallNetflow.weeklyNetflowSum */\n      0x06\n        /* \"contracts/DashBoard.sol\":4131:4197  stablecoinExchangeOverallNetflow.weeklyNetflowSum = _weeklyNetflow */\n      dup4\n      swap1\n      sstore\n        /* \"contracts/DashBoard.sol\":4208:4258  stablecoinExchangeOverallNetflow.monthlyNetflowSum */\n      0x07\n        /* \"contracts/DashBoard.sol\":4208:4276  stablecoinExchangeOverallNetflow.monthlyNetflowSum = _monthlyNetflow */\n      dup3\n      swap1\n      sstore\n        /* \"contracts/DashBoard.sol\":4287:4342  stablecoinExchangeOverallNetflow.marketCapChangePercent */\n      0x08\n        /* \"contracts/DashBoard.sol\":4287:4368  stablecoinExchangeOverallNetflow.marketCapChangePercent = _marketCapChangePercent */\n      dup2\n      swap1\n      sstore\n        /* \"contracts/DashBoard.sol\":4428:4443  block.timestamp */\n      timestamp\n        /* \"contracts/DashBoard.sol\":4379:4425  stablecoinExchangeOverallNetflow.lastUpdatedAt */\n      0x09\n        /* \"contracts/DashBoard.sol\":4379:4443  stablecoinExchangeOverallNetflow.lastUpdatedAt = block.timestamp */\n      dup2\n      swap1\n      sstore\n        /* \"contracts/DashBoard.sol\":4459:4580  StablecoinOverallNetflowUpdated(_dailyNetflow, _weeklyNetflow, _monthlyNetflow, _marketCapChangePercent, block.timestamp) */\n      0x40\n      dup1\n      mload\n        /* \"#utility.yul\":9676:9701   */\n      dup7\n      dup2\n      mstore\n        /* \"#utility.yul\":9732:9734   */\n      0x20\n        /* \"#utility.yul\":9717:9735   */\n      dup2\n      add\n        /* \"#utility.yul\":9710:9744   */\n      dup7\n      swap1\n      mstore\n        /* \"#utility.yul\":9760:9778   */\n      dup1\n      dup3\n      add\n        /* \"#utility.yul\":9753:9787   */\n      dup6\n      swap1\n      mstore\n        /* \"#utility.yul\":9818:9820   */\n      0x60\n        /* \"#utility.yul\":9803:9821   */\n      dup2\n      add\n        /* \"#utility.yul\":9796:9830   */\n      dup5\n      swap1\n      mstore\n        /* \"#utility.yul\":9861:9864   */\n      0x80\n        /* \"#utility.yul\":9846:9865   */\n      dup2\n      add\n        /* \"#utility.yul\":9839:9874   */\n      swap3\n      swap1\n      swap3\n      mstore\n        /* \"contracts/DashBoard.sol\":4459:4580  StablecoinOverallNetflowUpdated(_dailyNetflow, _weeklyNetflow, _monthlyNetflow, _marketCapChangePercent, block.timestamp) */\n      mload\n      0x08ecd0c5f0d0f300fe6241546a3cc8c4f4dc6f4573ed292c6ffbd86a83353035\n      swap2\n      dup2\n      swap1\n      sub\n        /* \"#utility.yul\":9663:9666   */\n      0xa0\n        /* \"contracts/DashBoard.sol\":4459:4580  StablecoinOverallNetflowUpdated(_dailyNetflow, _weeklyNetflow, _monthlyNetflow, _marketCapChangePercent, block.timestamp) */\n      add\n      swap1\n      log1\n        /* \"contracts/DashBoard.sol\":3869:4588  function updateStablecoinOverallNetflow(... */\n      pop\n      pop\n      pop\n      pop\n      jump\t// out\n        /* \"contracts/DashBoard.sol\":4596:5490  function addOrUpdateNarrativePerformance(string calldata _narrativeName, int256 _performancePercent) external onlyOwner {... */\n    tag_84:\n        /* \"@openzeppelin/contracts/access/Ownable.sol\":1531:1544  _checkOwner() */\n      tag_263\n        /* \"@openzeppelin/contracts/access/Ownable.sol\":1531:1542  _checkOwner */\n      tag_183\n        /* \"@openzeppelin/contracts/access/Ownable.sol\":1531:1544  _checkOwner() */\n      jump\t// in\n    tag_263:\n        /* \"contracts/DashBoard.sol\":4727:4769  NarrativePerformanceInfo storage narrative */\n      0x00\n        /* \"contracts/DashBoard.sol\":4772:4793  narrativePerformances */\n      0x0a\n        /* \"contracts/DashBoard.sol\":4794:4808  _narrativeName */\n      dup5\n      dup5\n        /* \"contracts/DashBoard.sol\":4772:4809  narrativePerformances[_narrativeName] */\n      mload(0x40)\n      tag_265\n      swap3\n      swap2\n      swap1\n      tag_266\n      jump\t// in\n    tag_265:\n      swap1\n      dup2\n      mstore\n      mload(0x40)\n      swap1\n      dup2\n      swap1\n      sub\n      0x20\n      add\n      swap1\n      keccak256\n      swap1\n      pop\n        /* \"contracts/DashBoard.sol\":4820:4830  bool found */\n      0x00\n      dup1\n        /* \"contracts/DashBoard.sol\":4849:5092  for (uint i = 0; i < narrativeKeys.length; i++) {... */\n    tag_267:\n        /* \"contracts/DashBoard.sol\":4870:4883  narrativeKeys */\n      0x0b\n        /* \"contracts/DashBoard.sol\":4870:4890  narrativeKeys.length */\n      sload\n        /* \"contracts/DashBoard.sol\":4866:4890  i < narrativeKeys.length */\n      dup2\n      lt\n        /* \"contracts/DashBoard.sol\":4849:5092  for (uint i = 0; i < narrativeKeys.length; i++) {... */\n      iszero\n      tag_268\n      jumpi\n        /* \"contracts/DashBoard.sol\":4992:5006  _narrativeName */\n      dup6\n      dup6\n        /* \"contracts/DashBoard.sol\":4975:5007  abi.encodePacked(_narrativeName) */\n      add(0x20, mload(0x40))\n      tag_270\n      swap3\n      swap2\n      swap1\n      tag_266\n      jump\t// in\n    tag_270:\n      mload(0x40)\n      0x20\n      dup2\n      dup4\n      sub\n      sub\n      dup2\n      mstore\n      swap1\n      0x40\n      mstore\n        /* \"contracts/DashBoard.sol\":4965:5008  keccak256(abi.encodePacked(_narrativeName)) */\n      dup1\n      mload\n      swap1\n      0x20\n      add\n      keccak256\n        /* \"contracts/DashBoard.sol\":4943:4956  narrativeKeys */\n      0x0b\n        /* \"contracts/DashBoard.sol\":4957:4958  i */\n      dup3\n        /* \"contracts/DashBoard.sol\":4943:4959  narrativeKeys[i] */\n      dup2\n      sload\n      dup2\n      lt\n      tag_272\n      jumpi\n      tag_272\n      tag_273\n      jump\t// in\n    tag_272:\n      swap1\n      0x00\n      mstore\n      keccak256(0x00, 0x20)\n      add\n        /* \"contracts/DashBoard.sol\":4926:4960  abi.encodePacked(narrativeKeys[i]) */\n      add(0x20, mload(0x40))\n      tag_275\n      swap2\n      swap1\n      tag_276\n      jump\t// in\n    tag_275:\n      mload(0x40)\n      0x20\n      dup2\n      dup4\n      sub\n      sub\n      dup2\n      mstore\n      swap1\n      0x40\n      mstore\n        /* \"contracts/DashBoard.sol\":4916:4961  keccak256(abi.encodePacked(narrativeKeys[i])) */\n      dup1\n      mload\n      swap1\n      0x20\n      add\n      keccak256\n        /* \"contracts/DashBoard.sol\":4916:5008  keccak256(abi.encodePacked(narrativeKeys[i])) == keccak256(abi.encodePacked(_narrativeName)) */\n      sub\n        /* \"contracts/DashBoard.sol\":4912:5081  if (keccak256(abi.encodePacked(narrativeKeys[i])) == keccak256(abi.encodePacked(_narrativeName))) {... */\n      tag_277\n      jumpi\n        /* \"contracts/DashBoard.sol\":5037:5041  true */\n      0x01\n        /* \"contracts/DashBoard.sol\":5029:5041  found = true */\n      swap2\n      pop\n        /* \"contracts/DashBoard.sol\":5060:5065  break */\n      jump(tag_268)\n        /* \"contracts/DashBoard.sol\":4912:5081  if (keccak256(abi.encodePacked(narrativeKeys[i])) == keccak256(abi.encodePacked(_narrativeName))) {... */\n    tag_277:\n        /* \"contracts/DashBoard.sol\":4892:4895  i++ */\n      0x01\n      add\n        /* \"contracts/DashBoard.sol\":4849:5092  for (uint i = 0; i < narrativeKeys.length; i++) {... */\n      jump(tag_267)\n    tag_268:\n      pop\n        /* \"contracts/DashBoard.sol\":5107:5112  found */\n      dup1\n        /* \"contracts/DashBoard.sol\":5102:5228  if (!found) {... */\n      tag_278\n      jumpi\n        /* \"contracts/DashBoard.sol\":5129:5142  narrativeKeys */\n      0x0b\n        /* \"contracts/DashBoard.sol\":5129:5163  narrativeKeys.push(_narrativeName) */\n      dup1\n      sload\n      0x01\n      dup2\n      add\n      dup3\n      sstore\n      0x00\n      swap2\n      swap1\n      swap2\n      mstore\n      0x0175b7a638427703f0dbe7bb9bbf987a2551717b34e79f33b5b1008d1fa01db9\n      add\n      tag_280\n        /* \"contracts/DashBoard.sol\":5148:5162  _narrativeName */\n      dup6\n      dup8\n        /* \"contracts/DashBoard.sol\":5129:5163  narrativeKeys.push(_narrativeName) */\n      dup4\n      tag_234\n      jump\t// in\n    tag_280:\n      pop\n        /* \"contracts/DashBoard.sol\":5201:5215  _narrativeName */\n      dup5\n      dup5\n        /* \"contracts/DashBoard.sol\":5183:5216  NarrativeKeyAdded(_narrativeName) */\n      mload(0x40)\n      tag_281\n      swap3\n      swap2\n      swap1\n      tag_266\n      jump\t// in\n    tag_281:\n      mload(0x40)\n      swap1\n      dup2\n      swap1\n      sub\n      dup2\n      keccak256\n      swap1\n      0x81c6dad8fc2e53ed05f364a56d3df0f0836727eeca7d52c4c25f995362a02744\n      swap1\n      0x00\n      swap1\n      log2\n        /* \"contracts/DashBoard.sol\":5102:5228  if (!found) {... */\n    tag_278:\n        /* \"contracts/DashBoard.sol\":5238:5247  narrative */\n      dup2\n        /* \"contracts/DashBoard.sol\":5238:5269  narrative.name = _narrativeName */\n      tag_282\n        /* \"contracts/DashBoard.sol\":5255:5269  _narrativeName */\n      dup6\n      dup8\n        /* \"contracts/DashBoard.sol\":5238:5247  narrative */\n      dup4\n        /* \"contracts/DashBoard.sol\":5238:5269  narrative.name = _narrativeName */\n      tag_234\n      jump\t// in\n    tag_282:\n      pop\n        /* \"contracts/DashBoard.sol\":5280:5311  narrative.performancePercent24h */\n      0x01\n      dup3\n      add\n        /* \"contracts/DashBoard.sol\":5280:5333  narrative.performancePercent24h = _performancePercent */\n      dup4\n      swap1\n      sstore\n        /* \"contracts/DashBoard.sol\":5370:5385  block.timestamp */\n      timestamp\n        /* \"contracts/DashBoard.sol\":5344:5367  narrative.lastUpdatedAt */\n      0x02\n      dup4\n      add\n        /* \"contracts/DashBoard.sol\":5344:5385  narrative.lastUpdatedAt = block.timestamp */\n      sstore\n        /* \"contracts/DashBoard.sol\":5401:5482  NarrativePerformanceUpdated(_narrativeName, _performancePercent, block.timestamp) */\n      mload(0x40)\n      tag_283\n      swap1\n        /* \"contracts/DashBoard.sol\":5429:5443  _narrativeName */\n      dup7\n      swap1\n      dup7\n      swap1\n        /* \"contracts/DashBoard.sol\":5401:5482  NarrativePerformanceUpdated(_narrativeName, _performancePercent, block.timestamp) */\n      tag_266\n      jump\t// in\n    tag_283:\n      0x40\n      dup1\n      mload\n      swap2\n      dup3\n      swap1\n      sub\n      dup3\n      keccak256\n        /* \"#utility.yul\":15895:15920   */\n      dup6\n      dup4\n      mstore\n        /* \"contracts/DashBoard.sol\":5466:5481  block.timestamp */\n      timestamp\n        /* \"#utility.yul\":15951:15953   */\n      0x20\n        /* \"#utility.yul\":15936:15954   */\n      dup5\n      add\n        /* \"#utility.yul\":15929:15963   */\n      mstore\n        /* \"contracts/DashBoard.sol\":5401:5482  NarrativePerformanceUpdated(_narrativeName, _performancePercent, block.timestamp) */\n      swap2\n      0x30167b93764fad9e40ce98169f9156f222d6ca60145c01b3509119b8d413ed6f\n      swap2\n        /* \"#utility.yul\":15868:15886   */\n      add\n        /* \"contracts/DashBoard.sol\":5401:5482  NarrativePerformanceUpdated(_narrativeName, _performancePercent, block.timestamp) */\n      mload(0x40)\n      dup1\n      swap2\n      sub\n      swap1\n      log2\n        /* \"contracts/DashBoard.sol\":4716:5490  {... */\n      pop\n      pop\n        /* \"contracts/DashBoard.sol\":4596:5490  function addOrUpdateNarrativePerformance(string calldata _narrativeName, int256 _performancePercent) external onlyOwner {... */\n      pop\n      pop\n      pop\n      jump\t// out\n        /* \"contracts/DashBoard.sol\":15382:15635  function resetAlertTriggerState() external onlyOwner {... */\n    tag_86:\n        /* \"@openzeppelin/contracts/access/Ownable.sol\":1531:1544  _checkOwner() */\n      tag_286\n        /* \"@openzeppelin/contracts/access/Ownable.sol\":1531:1542  _checkOwner */\n      tag_183\n        /* \"@openzeppelin/contracts/access/Ownable.sol\":1531:1544  _checkOwner() */\n      jump\t// in\n    tag_286:\n        /* \"contracts/DashBoard.sol\":15449:15465  userNetflowAlert */\n      0x11\n        /* \"contracts/DashBoard.sol\":15449:15468  userNetflowAlert.id */\n      sload\n        /* \"contracts/DashBoard.sol\":15449:15473  userNetflowAlert.id != 0 */\n      iszero\n      dup1\n      iszero\n      swap1\n        /* \"contracts/DashBoard.sol\":15449:15505  userNetflowAlert.id != 0 && userNetflowAlert.isTriggered */\n      tag_288\n      jumpi\n      pop\n        /* \"contracts/DashBoard.sol\":15477:15505  userNetflowAlert.isTriggered */\n      sload(0x15)\n      0x0100\n      swap1\n      div\n      0xff\n      and\n        /* \"contracts/DashBoard.sol\":15449:15505  userNetflowAlert.id != 0 && userNetflowAlert.isTriggered */\n    tag_288:\n        /* \"contracts/DashBoard.sol\":15446:15628  if(userNetflowAlert.id != 0 && userNetflowAlert.isTriggered) {... */\n      iszero\n      tag_241\n      jumpi\n        /* \"contracts/DashBoard.sol\":15522:15550  userNetflowAlert.isTriggered */\n      0x15\n        /* \"contracts/DashBoard.sol\":15522:15558  userNetflowAlert.isTriggered = false */\n      dup1\n      sload\n      not(0xff00)\n      and\n      swap1\n      sstore\n        /* \"contracts/DashBoard.sol\":15522:15538  userNetflowAlert */\n      0x11\n        /* \"contracts/DashBoard.sol\":15596:15615  userNetflowAlert.id */\n      sload\n        /* \"contracts/DashBoard.sol\":15578:15616  AlertTriggerReset(userNetflowAlert.id) */\n      mload(0x40)\n      0xc26f9c3201044d3757e27488cd192595aaf8b176842b2175ef47a4cdf1a53952\n      swap1\n        /* \"contracts/DashBoard.sol\":15553:15558  false */\n      0x00\n      swap1\n        /* \"contracts/DashBoard.sol\":15578:15616  AlertTriggerReset(userNetflowAlert.id) */\n      log2\n        /* \"contracts/DashBoard.sol\":15382:15635  function resetAlertTriggerState() external onlyOwner {... */\n      jump\t// out\n        /* \"@openzeppelin/contracts/access/Ownable.sol\":2293:2394  function renounceOwnership() public virtual onlyOwner {... */\n    tag_88:\n        /* \"@openzeppelin/contracts/access/Ownable.sol\":1531:1544  _checkOwner() */\n      tag_291\n        /* \"@openzeppelin/contracts/access/Ownable.sol\":1531:1542  _checkOwner */\n      tag_183\n        /* \"@openzeppelin/contracts/access/Ownable.sol\":1531:1544  _checkOwner() */\n      jump\t// in\n    tag_291:\n        /* \"@openzeppelin/contracts/access/Ownable.sol\":2357:2387  _transferOwnership(address(0)) */\n      tag_241\n        /* \"@openzeppelin/contracts/access/Ownable.sol\":2384:2385  0 */\n      0x00\n        /* \"@openzeppelin/contracts/access/Ownable.sol\":2357:2375  _transferOwnership */\n      tag_294\n        /* \"@openzeppelin/contracts/access/Ownable.sol\":2357:2387  _transferOwnership(address(0)) */\n      jump\t// in\n        /* \"contracts/DashBoard.sol\":572:642  mapping(string => NarrativeTopTokenInfo) public narrativeTopPerformers */\n    tag_91:\n      dup1\n      mload\n      0x20\n      dup2\n      dup4\n      add\n      dup2\n      add\n      dup1\n      mload\n      0x0c\n      dup3\n      mstore\n      swap3\n      dup3\n      add\n      swap2\n      swap1\n      swap4\n      add\n      keccak256\n      swap2\n      mstore\n      dup1\n      sload\n      dup2\n      swap1\n      tag_295\n      swap1\n      tag_169\n      jump\t// in\n    tag_295:\n      dup1\n      0x1f\n      add\n      0x20\n      dup1\n      swap2\n      div\n      mul\n      0x20\n      add\n      mload(0x40)\n      swap1\n      dup2\n      add\n      0x40\n      mstore\n      dup1\n      swap3\n      swap2\n      swap1\n      dup2\n      dup2\n      mstore\n      0x20\n      add\n      dup3\n      dup1\n      sload\n      tag_296\n      swap1\n      tag_169\n      jump\t// in\n    tag_296:\n      dup1\n      iszero\n      tag_297\n      jumpi\n      dup1\n      0x1f\n      lt\n      tag_298\n      jumpi\n      0x0100\n      dup1\n      dup4\n      sload\n      div\n      mul\n      dup4\n      mstore\n      swap2\n      0x20\n      add\n      swap2\n      jump(tag_297)\n    tag_298:\n      dup3\n      add\n      swap2\n      swap1\n      0x00\n      mstore\n      keccak256(0x00, 0x20)\n      swap1\n    tag_299:\n      dup2\n      sload\n      dup2\n      mstore\n      swap1\n      0x01\n      add\n      swap1\n      0x20\n      add\n      dup1\n      dup4\n      gt\n      tag_299\n      jumpi\n      dup3\n      swap1\n      sub\n      0x1f\n      and\n      dup3\n      add\n      swap2\n    tag_297:\n      pop\n      pop\n      pop\n      pop\n      pop\n      swap1\n      dup1\n      0x01\n      add\n      dup1\n      sload\n      tag_300\n      swap1\n      tag_169\n      jump\t// in\n    tag_300:\n      dup1\n      0x1f\n      add\n      0x20\n      dup1\n      swap2\n      div\n      mul\n      0x20\n      add\n      mload(0x40)\n      swap1\n      dup2\n      add\n      0x40\n      mstore\n      dup1\n      swap3\n      swap2\n      swap1\n      dup2\n      dup2\n      mstore\n      0x20\n      add\n      dup3\n      dup1\n      sload\n      tag_301\n      swap1\n      tag_169\n      jump\t// in\n    tag_301:\n      dup1\n      iszero\n      tag_302\n      jumpi\n      dup1\n      0x1f\n      lt\n      tag_303\n      jumpi\n      0x0100\n      dup1\n      dup4\n      sload\n      div\n      mul\n      dup4\n      mstore\n      swap2\n      0x20\n      add\n      swap2\n      jump(tag_302)\n    tag_303:\n      dup3\n      add\n      swap2\n      swap1\n      0x00\n      mstore\n      keccak256(0x00, 0x20)\n      swap1\n    tag_304:\n      dup2\n      sload\n      dup2\n      mstore\n      swap1\n      0x01\n      add\n      swap1\n      0x20\n      add\n      dup1\n      dup4\n      gt\n      tag_304\n      jumpi\n      dup3\n      swap1\n      sub\n      0x1f\n      and\n      dup3\n      add\n      swap2\n    tag_302:\n      pop\n      pop\n      pop\n      pop\n      pop\n      swap1\n      dup1\n      0x02\n      add\n      sload\n      swap1\n      dup1\n      0x03\n      add\n      sload\n      swap1\n      pop\n      dup5\n      jump\t// out\n        /* \"contracts/DashBoard.sol\":16324:16467  function getTopUnderperformingAssets() external view returns (AssetPerformanceInfo[] memory) {... */\n    tag_95:\n        /* \"contracts/DashBoard.sol\":16386:16415  AssetPerformanceInfo[] memory */\n      0x60\n        /* \"contracts/DashBoard.sol\":16435:16459  topUnderperformingAssets */\n      0x0e\n        /* \"contracts/DashBoard.sol\":16428:16459  return topUnderperformingAssets */\n      dup1\n      sload\n      dup1\n      0x20\n      mul\n      0x20\n      add\n      mload(0x40)\n      swap1\n      dup2\n      add\n      0x40\n      mstore\n      dup1\n      swap3\n      swap2\n      swap1\n      dup2\n      dup2\n      mstore\n      0x20\n      add\n      0x00\n      swap1\n    tag_306:\n      dup3\n      dup3\n      lt\n      iszero\n      tag_244\n      jumpi\n      dup4\n      dup3\n      swap1\n      0x00\n      mstore\n      keccak256(0x00, 0x20)\n      swap1\n      0x05\n      mul\n      add\n      mload(0x40)\n      dup1\n      0xa0\n      add\n      0x40\n      mstore\n      swap1\n      dup2\n      0x00\n      dup3\n      add\n      dup1\n      sload\n      tag_309\n      swap1\n      tag_169\n      jump\t// in\n    tag_309:\n      dup1\n      0x1f\n      add\n      0x20\n      dup1\n      swap2\n      div\n      mul\n      0x20\n      add\n      mload(0x40)\n      swap1\n      dup2\n      add\n      0x40\n      mstore\n      dup1\n      swap3\n      swap2\n      swap1\n      dup2\n      dup2\n      mstore\n      0x20\n      add\n      dup3\n      dup1\n      sload\n      tag_310\n      swap1\n      tag_169\n      jump\t// in\n    tag_310:\n      dup1\n      iszero\n      tag_311\n      jumpi\n      dup1\n      0x1f\n      lt\n      tag_312\n      jumpi\n      0x0100\n      dup1\n      dup4\n      sload\n      div\n      mul\n      dup4\n      mstore\n      swap2\n      0x20\n      add\n      swap2\n      jump(tag_311)\n    tag_312:\n      dup3\n      add\n      swap2\n      swap1\n      0x00\n      mstore\n      keccak256(0x00, 0x20)\n      swap1\n    tag_313:\n      dup2\n      sload\n      dup2\n      mstore\n      swap1\n      0x01\n      add\n      swap1\n      0x20\n      add\n      dup1\n      dup4\n      gt\n      tag_313\n      jumpi\n      dup3\n      swap1\n      sub\n      0x1f\n      and\n      dup3\n      add\n      swap2\n    tag_311:\n      pop\n      pop\n      pop\n      swap2\n      dup4\n      mstore\n      pop\n      pop\n      0x01\n      dup3\n      dup2\n      add\n      sload\n      sub(shl(0xa0, 0x01), 0x01)\n      and\n      0x20\n      dup1\n      dup5\n      add\n      swap2\n      swap1\n      swap2\n      mstore\n      0x02\n      dup5\n      add\n      sload\n      0x40\n      dup5\n      add\n      mstore\n      0x03\n      dup5\n      add\n      sload\n      0x60\n      dup5\n      add\n      mstore\n      0x04\n      swap1\n      swap4\n      add\n      sload\n      0x80\n      swap1\n      swap3\n      add\n      swap2\n      swap1\n      swap2\n      mstore\n      swap2\n      dup4\n      mstore\n      swap3\n      add\n      swap2\n      add\n      jump(tag_306)\n        /* \"contracts/DashBoard.sol\":15990:16173  function getNarrativeTopPerformer(string calldata _narrativeName) external view returns (NarrativeTopTokenInfo memory) {... */\n    tag_101:\n        /* \"contracts/DashBoard.sol\":16079:16107  NarrativeTopTokenInfo memory */\n      tag_314\n      mload(0x40)\n      dup1\n      0x80\n      add\n      0x40\n      mstore\n      dup1\n      0x60\n      dup2\n      mstore\n      0x20\n      add\n      0x60\n      dup2\n      mstore\n      0x20\n      add\n      0x00\n      dup2\n      mstore\n      0x20\n      add\n      0x00\n      dup2\n      mstore\n      pop\n      swap1\n      jump\n    tag_314:\n        /* \"contracts/DashBoard.sol\":16127:16149  narrativeTopPerformers */\n      0x0c\n        /* \"contracts/DashBoard.sol\":16150:16164  _narrativeName */\n      dup4\n      dup4\n        /* \"contracts/DashBoard.sol\":16127:16165  narrativeTopPerformers[_narrativeName] */\n      mload(0x40)\n      tag_317\n      swap3\n      swap2\n      swap1\n      tag_266\n      jump\t// in\n    tag_317:\n      swap1\n      dup2\n      mstore\n      0x20\n      add\n      mload(0x40)\n      dup1\n      swap2\n      sub\n      swap1\n      keccak256\n        /* \"contracts/DashBoard.sol\":16120:16165  return narrativeTopPerformers[_narrativeName] */\n      mload(0x40)\n      dup1\n      0x80\n      add\n      0x40\n      mstore\n      swap1\n      dup2\n      0x00\n      dup3\n      add\n      dup1\n      sload\n      tag_318\n      swap1\n      tag_169\n      jump\t// in\n    tag_318:\n      dup1\n      0x1f\n      add\n      0x20\n      dup1\n      swap2\n      div\n      mul\n      0x20\n      add\n      mload(0x40)\n      swap1\n      dup2\n      add\n      0x40\n      mstore\n      dup1\n      swap3\n      swap2\n      swap1\n      dup2\n      dup2\n      mstore\n      0x20\n      add\n      dup3\n      dup1\n      sload\n      tag_319\n      swap1\n      tag_169\n      jump\t// in\n    tag_319:\n      dup1\n      iszero\n      tag_320\n      jumpi\n      dup1\n      0x1f\n      lt\n      tag_321\n      jumpi\n      0x0100\n      dup1\n      dup4\n      sload\n      div\n      mul\n      dup4\n      mstore\n      swap2\n      0x20\n      add\n      swap2\n      jump(tag_320)\n    tag_321:\n      dup3\n      add\n      swap2\n      swap1\n      0x00\n      mstore\n      keccak256(0x00, 0x20)\n      swap1\n    tag_322:\n      dup2\n      sload\n      dup2\n      mstore\n      swap1\n      0x01\n      add\n      swap1\n      0x20\n      add\n      dup1\n      dup4\n      gt\n      tag_322\n      jumpi\n      dup3\n      swap1\n      sub\n      0x1f\n      and\n      dup3\n      add\n      swap2\n    tag_320:\n      pop\n      pop\n      pop\n      pop\n      pop\n      dup2\n      mstore\n      0x20\n      add\n      0x01\n      dup3\n      add\n      dup1\n      sload\n      tag_323\n      swap1\n      tag_169\n      jump\t// in\n    tag_323:\n      dup1\n      0x1f\n      add\n      0x20\n      dup1\n      swap2\n      div\n      mul\n      0x20\n      add\n      mload(0x40)\n      swap1\n      dup2\n      add\n      0x40\n      mstore\n      dup1\n      swap3\n      swap2\n      swap1\n      dup2\n      dup2\n      mstore\n      0x20\n      add\n      dup3\n      dup1\n      sload\n      tag_324\n      swap1\n      tag_169\n      jump\t// in\n    tag_324:\n      dup1\n      iszero\n      tag_325\n      jumpi\n      dup1\n      0x1f\n      lt\n      tag_326\n      jumpi\n      0x0100\n      dup1\n      dup4\n      sload\n      div\n      mul\n      dup4\n      mstore\n      swap2\n      0x20\n      add\n      swap2\n      jump(tag_325)\n    tag_326:\n      dup3\n      add\n      swap2\n      swap1\n      0x00\n      mstore\n      keccak256(0x00, 0x20)\n      swap1\n    tag_327:\n      dup2\n      sload\n      dup2\n      mstore\n      swap1\n      0x01\n      add\n      swap1\n      0x20\n      add\n      dup1\n      dup4\n      gt\n      tag_327\n      jumpi\n      dup3\n      swap1\n      sub\n      0x1f\n      and\n      dup3\n      add\n      swap2\n    tag_325:\n      pop\n      pop\n      pop\n      pop\n      pop\n      dup2\n      mstore\n      0x20\n      add\n      0x02\n      dup3\n      add\n      sload\n      dup2\n      mstore\n      0x20\n      add\n      0x03\n      dup3\n      add\n      sload\n      dup2\n      mstore\n      pop\n      pop\n      swap1\n      pop\n        /* \"contracts/DashBoard.sol\":15990:16173  function getNarrativeTopPerformer(string calldata _narrativeName) external view returns (NarrativeTopTokenInfo memory) {... */\n    tag_316:\n      swap3\n      swap2\n      pop\n      pop\n      jump\t// out\n        /* \"contracts/DashBoard.sol\":14791:15026  function turnOffAlert() external onlyOwner {... */\n    tag_120:\n        /* \"@openzeppelin/contracts/access/Ownable.sol\":1531:1544  _checkOwner() */\n      tag_330\n        /* \"@openzeppelin/contracts/access/Ownable.sol\":1531:1542  _checkOwner */\n      tag_183\n        /* \"@openzeppelin/contracts/access/Ownable.sol\":1531:1544  _checkOwner() */\n      jump\t// in\n    tag_330:\n        /* \"contracts/DashBoard.sol\":14848:14864  userNetflowAlert */\n      0x11\n        /* \"contracts/DashBoard.sol\":14848:14867  userNetflowAlert.id */\n      sload\n        /* \"contracts/DashBoard.sol\":14848:14872  userNetflowAlert.id != 0 */\n      iszero\n      dup1\n      iszero\n      swap1\n        /* \"contracts/DashBoard.sol\":14848:14901  userNetflowAlert.id != 0 && userNetflowAlert.isActive */\n      tag_332\n      jumpi\n      pop\n        /* \"contracts/DashBoard.sol\":14876:14901  userNetflowAlert.isActive */\n      and(0xff, sload(0x15))\n        /* \"contracts/DashBoard.sol\":14848:14901  userNetflowAlert.id != 0 && userNetflowAlert.isActive */\n    tag_332:\n        /* \"contracts/DashBoard.sol\":14845:15019  if(userNetflowAlert.id != 0 && userNetflowAlert.isActive){... */\n      iszero\n      tag_241\n      jumpi\n        /* \"contracts/DashBoard.sol\":14917:14942  userNetflowAlert.isActive */\n      0x15\n        /* \"contracts/DashBoard.sol\":14917:14950  userNetflowAlert.isActive = false */\n      dup1\n      sload\n      not(0xff)\n      and\n      swap1\n      sstore\n        /* \"contracts/DashBoard.sol\":14917:14933  userNetflowAlert */\n      0x11\n        /* \"contracts/DashBoard.sol\":14987:15006  userNetflowAlert.id */\n      sload\n        /* \"contracts/DashBoard.sol\":14970:15007  AlertDeactivated(userNetflowAlert.id) */\n      mload(0x40)\n      0xd7d997a7d5bb0e259c4bcbf9213b950fc2d302d3d30540c7671b3c2e6d33088d\n      swap1\n        /* \"contracts/DashBoard.sol\":14945:14950  false */\n      0x00\n      swap1\n        /* \"contracts/DashBoard.sol\":14970:15007  AlertDeactivated(userNetflowAlert.id) */\n      log2\n        /* \"contracts/DashBoard.sol\":14791:15026  function turnOffAlert() external onlyOwner {... */\n      jump\t// out\n        /* \"contracts/DashBoard.sol\":6425:7869  function updateMarketPerformance(... */\n    tag_124:\n        /* \"@openzeppelin/contracts/access/Ownable.sol\":1531:1544  _checkOwner() */\n      tag_335\n        /* \"@openzeppelin/contracts/access/Ownable.sol\":1531:1542  _checkOwner */\n      tag_183\n        /* \"@openzeppelin/contracts/access/Ownable.sol\":1531:1544  _checkOwner() */\n      jump\t// in\n    tag_335:\n        /* \"contracts/DashBoard.sol\":6634:6663  delete topOutperformingAssets */\n      tag_337\n        /* \"contracts/DashBoard.sol\":6641:6663  topOutperformingAssets */\n      0x0d\n      0x00\n        /* \"contracts/DashBoard.sol\":6634:6663  delete topOutperformingAssets */\n      tag_338\n      jump\t// in\n    tag_337:\n        /* \"contracts/DashBoard.sol\":6678:6684  uint i */\n      0x00\n        /* \"contracts/DashBoard.sol\":6674:7138  for(uint i=0; i < _topOutperformers.length; i++){... */\n    tag_339:\n        /* \"contracts/DashBoard.sol\":6688:6716  i < _topOutperformers.length */\n      dup5\n      dup2\n      lt\n        /* \"contracts/DashBoard.sol\":6674:7138  for(uint i=0; i < _topOutperformers.length; i++){... */\n      iszero\n      tag_340\n      jumpi\n        /* \"contracts/DashBoard.sol\":6737:6759  topOutperformingAssets */\n      0x0d\n        /* \"contracts/DashBoard.sol\":6765:7125  AssetPerformanceInfo({... */\n      mload(0x40)\n      dup1\n      0xa0\n      add\n      0x40\n      mstore\n      dup1\n        /* \"contracts/DashBoard.sol\":6818:6835  _topOutperformers */\n      dup9\n      dup9\n        /* \"contracts/DashBoard.sol\":6836:6837  i */\n      dup6\n        /* \"contracts/DashBoard.sol\":6818:6838  _topOutperformers[i] */\n      dup2\n      dup2\n      lt\n      tag_343\n      jumpi\n      tag_343\n      tag_273\n      jump\t// in\n    tag_343:\n      swap1\n      pop\n      0x20\n      mul\n      dup2\n      add\n      swap1\n      tag_344\n      swap2\n      swap1\n      tag_345\n      jump\t// in\n    tag_344:\n        /* \"contracts/DashBoard.sol\":6818:6850  _topOutperformers[i].tokenSymbol */\n      tag_346\n      swap1\n      dup1\n      tag_347\n      jump\t// in\n    tag_346:\n        /* \"contracts/DashBoard.sol\":6765:7125  AssetPerformanceInfo({... */\n      dup1\n      dup1\n      0x1f\n      add\n      0x20\n      dup1\n      swap2\n      div\n      mul\n      0x20\n      add\n      mload(0x40)\n      swap1\n      dup2\n      add\n      0x40\n      mstore\n      dup1\n      swap4\n      swap3\n      swap2\n      swap1\n      dup2\n      dup2\n      mstore\n      0x20\n      add\n      dup4\n      dup4\n      dup1\n      dup3\n      dup5\n      calldatacopy\n      0x00\n      swap3\n      add\n      swap2\n      swap1\n      swap2\n      mstore\n      pop\n      pop\n      pop\n      swap1\n      dup3\n      mstore\n      pop\n      0x20\n      add\n        /* \"contracts/DashBoard.sol\":6866:6883  _topOutperformers */\n      dup9\n      dup9\n        /* \"contracts/DashBoard.sol\":6884:6885  i */\n      dup6\n        /* \"contracts/DashBoard.sol\":6866:6886  _topOutperformers[i] */\n      dup2\n      dup2\n      lt\n      tag_349\n      jumpi\n      tag_349\n      tag_273\n      jump\t// in\n    tag_349:\n      swap1\n      pop\n      0x20\n      mul\n      dup2\n      add\n      swap1\n      tag_350\n      swap2\n      swap1\n      tag_345\n      jump\t// in\n    tag_350:\n        /* \"contracts/DashBoard.sol\":6866:6899  _topOutperformers[i].tokenAddress */\n      tag_351\n      swap1\n      0x40\n      dup2\n      add\n      swap1\n      0x20\n      add\n      tag_153\n      jump\t// in\n    tag_351:\n      sub(shl(0xa0, 0x01), 0x01)\n        /* \"contracts/DashBoard.sol\":6765:7125  AssetPerformanceInfo({... */\n      and\n      dup2\n      mstore\n      0x20\n      add\n        /* \"contracts/DashBoard.sol\":6941:6958  _topOutperformers */\n      dup9\n      dup9\n        /* \"contracts/DashBoard.sol\":6959:6960  i */\n      dup6\n        /* \"contracts/DashBoard.sol\":6941:6961  _topOutperformers[i] */\n      dup2\n      dup2\n      lt\n      tag_353\n      jumpi\n      tag_353\n      tag_273\n      jump\t// in\n    tag_353:\n      swap1\n      pop\n      0x20\n      mul\n      dup2\n      add\n      swap1\n      tag_354\n      swap2\n      swap1\n      tag_345\n      jump\t// in\n    tag_354:\n        /* \"contracts/DashBoard.sol\":6941:6983  _topOutperformers[i].performancePercent24h */\n      0x40\n      add\n      calldataload\n        /* \"contracts/DashBoard.sol\":6765:7125  AssetPerformanceInfo({... */\n      dup2\n      mstore\n      0x20\n      add\n        /* \"contracts/DashBoard.sol\":7013:7030  _topOutperformers */\n      dup9\n      dup9\n        /* \"contracts/DashBoard.sol\":7031:7032  i */\n      dup6\n        /* \"contracts/DashBoard.sol\":7013:7033  _topOutperformers[i] */\n      dup2\n      dup2\n      lt\n      tag_356\n      jumpi\n      tag_356\n      tag_273\n      jump\t// in\n    tag_356:\n      swap1\n      pop\n      0x20\n      mul\n      dup2\n      add\n      swap1\n      tag_357\n      swap2\n      swap1\n      tag_345\n      jump\t// in\n    tag_357:\n        /* \"contracts/DashBoard.sol\":7013:7060  _topOutperformers[i].performanceVsMarketPercent */\n      0x60\n      add\n      calldataload\n        /* \"contracts/DashBoard.sol\":6765:7125  AssetPerformanceInfo({... */\n      dup2\n      mstore\n        /* \"contracts/DashBoard.sol\":7094:7109  block.timestamp */\n      timestamp\n        /* \"contracts/DashBoard.sol\":6765:7125  AssetPerformanceInfo({... */\n      0x20\n      swap2\n      dup3\n      add\n      mstore\n        /* \"contracts/DashBoard.sol\":6737:7126  topOutperformingAssets.push(AssetPerformanceInfo({... */\n      dup3\n      sload\n      0x01\n      dup2\n      add\n      dup5\n      sstore\n      0x00\n      swap4\n      dup5\n      mstore\n      swap3\n      keccak256\n      dup2\n      mload\n      swap2\n      swap3\n      0x05\n      mul\n      add\n      swap1\n      dup2\n      swap1\n      tag_359\n      swap1\n      dup3\n      tag_360\n      jump\t// in\n    tag_359:\n      pop\n      0x20\n      dup3\n      add\n      mload\n      0x01\n      dup3\n      dup2\n      add\n      dup1\n      sload\n      not(sub(shl(0xa0, 0x01), 0x01))\n      and\n      sub(shl(0xa0, 0x01), 0x01)\n      swap1\n      swap4\n      and\n      swap3\n      swap1\n      swap3\n      or\n      swap1\n      swap2\n      sstore\n      0x40\n      dup4\n      add\n      mload\n      0x02\n      dup4\n      add\n      sstore\n      0x60\n      dup4\n      add\n      mload\n      0x03\n      dup4\n      add\n      sstore\n      0x80\n      swap1\n      swap3\n      add\n      mload\n      0x04\n      swap1\n      swap2\n      add\n      sstore\n        /* \"contracts/DashBoard.sol\":6718:6721  i++ */\n      add\n        /* \"contracts/DashBoard.sol\":6674:7138  for(uint i=0; i < _topOutperformers.length; i++){... */\n      jump(tag_339)\n    tag_340:\n      pop\n        /* \"contracts/DashBoard.sol\":7148:7179  delete topUnderperformingAssets */\n      tag_361\n        /* \"contracts/DashBoard.sol\":7155:7179  topUnderperformingAssets */\n      0x0e\n      0x00\n        /* \"contracts/DashBoard.sol\":7148:7179  delete topUnderperformingAssets */\n      tag_338\n      jump\t// in\n    tag_361:\n        /* \"contracts/DashBoard.sol\":7194:7200  uint i */\n      0x00\n        /* \"contracts/DashBoard.sol\":7190:7666  for(uint i=0; i < _topUnderperformers.length; i++){... */\n    tag_362:\n        /* \"contracts/DashBoard.sol\":7204:7234  i < _topUnderperformers.length */\n      dup3\n      dup2\n      lt\n        /* \"contracts/DashBoard.sol\":7190:7666  for(uint i=0; i < _topUnderperformers.length; i++){... */\n      iszero\n      tag_363\n      jumpi\n        /* \"contracts/DashBoard.sol\":7255:7279  topUnderperformingAssets */\n      0x0e\n        /* \"contracts/DashBoard.sol\":7285:7653  AssetPerformanceInfo({... */\n      mload(0x40)\n      dup1\n      0xa0\n      add\n      0x40\n      mstore\n      dup1\n        /* \"contracts/DashBoard.sol\":7338:7357  _topUnderperformers */\n      dup7\n      dup7\n        /* \"contracts/DashBoard.sol\":7358:7359  i */\n      dup6\n        /* \"contracts/DashBoard.sol\":7338:7360  _topUnderperformers[i] */\n      dup2\n      dup2\n      lt\n      tag_366\n      jumpi\n      tag_366\n      tag_273\n      jump\t// in\n    tag_366:\n      swap1\n      pop\n      0x20\n      mul\n      dup2\n      add\n      swap1\n      tag_367\n      swap2\n      swap1\n      tag_345\n      jump\t// in\n    tag_367:\n        /* \"contracts/DashBoard.sol\":7338:7372  _topUnderperformers[i].tokenSymbol */\n      tag_368\n      swap1\n      dup1\n      tag_347\n      jump\t// in\n    tag_368:\n        /* \"contracts/DashBoard.sol\":7285:7653  AssetPerformanceInfo({... */\n      dup1\n      dup1\n      0x1f\n      add\n      0x20\n      dup1\n      swap2\n      div\n      mul\n      0x20\n      add\n      mload(0x40)\n      swap1\n      dup2\n      add\n      0x40\n      mstore\n      dup1\n      swap4\n      swap3\n      swap2\n      swap1\n      dup2\n      dup2\n      mstore\n      0x20\n      add\n      dup4\n      dup4\n      dup1\n      dup3\n      dup5\n      calldatacopy\n      0x00\n      swap3\n      add\n      swap2\n      swap1\n      swap2\n      mstore\n      pop\n      pop\n      pop\n      swap1\n      dup3\n      mstore\n      pop\n      0x20\n      add\n        /* \"contracts/DashBoard.sol\":7388:7407  _topUnderperformers */\n      dup7\n      dup7\n        /* \"contracts/DashBoard.sol\":7408:7409  i */\n      dup6\n        /* \"contracts/DashBoard.sol\":7388:7410  _topUnderperformers[i] */\n      dup2\n      dup2\n      lt\n      tag_370\n      jumpi\n      tag_370\n      tag_273\n      jump\t// in\n    tag_370:\n      swap1\n      pop\n      0x20\n      mul\n      dup2\n      add\n      swap1\n      tag_371\n      swap2\n      swap1\n      tag_345\n      jump\t// in\n    tag_371:\n        /* \"contracts/DashBoard.sol\":7388:7423  _topUnderperformers[i].tokenAddress */\n      tag_372\n      swap1\n      0x40\n      dup2\n      add\n      swap1\n      0x20\n      add\n      tag_153\n      jump\t// in\n    tag_372:\n      sub(shl(0xa0, 0x01), 0x01)\n        /* \"contracts/DashBoard.sol\":7285:7653  AssetPerformanceInfo({... */\n      and\n      dup2\n      mstore\n      0x20\n      add\n        /* \"contracts/DashBoard.sol\":7465:7484  _topUnderperformers */\n      dup7\n      dup7\n        /* \"contracts/DashBoard.sol\":7485:7486  i */\n      dup6\n        /* \"contracts/DashBoard.sol\":7465:7487  _topUnderperformers[i] */\n      dup2\n      dup2\n      lt\n      tag_374\n      jumpi\n      tag_374\n      tag_273\n      jump\t// in\n    tag_374:\n      swap1\n      pop\n      0x20\n      mul\n      dup2\n      add\n      swap1\n      tag_375\n      swap2\n      swap1\n      tag_345\n      jump\t// in\n    tag_375:\n        /* \"contracts/DashBoard.sol\":7465:7509  _topUnderperformers[i].performancePercent24h */\n      0x40\n      add\n      calldataload\n        /* \"contracts/DashBoard.sol\":7285:7653  AssetPerformanceInfo({... */\n      dup2\n      mstore\n      0x20\n      add\n        /* \"contracts/DashBoard.sol\":7539:7558  _topUnderperformers */\n      dup7\n      dup7\n        /* \"contracts/DashBoard.sol\":7559:7560  i */\n      dup6\n        /* \"contracts/DashBoard.sol\":7539:7561  _topUnderperformers[i] */\n      dup2\n      dup2\n      lt\n      tag_377\n      jumpi\n      tag_377\n      tag_273\n      jump\t// in\n    tag_377:\n      swap1\n      pop\n      0x20\n      mul\n      dup2\n      add\n      swap1\n      tag_378\n      swap2\n      swap1\n      tag_345\n      jump\t// in\n    tag_378:\n        /* \"contracts/DashBoard.sol\":7539:7588  _topUnderperformers[i].performanceVsMarketPercent */\n      0x60\n      add\n      calldataload\n        /* \"contracts/DashBoard.sol\":7285:7653  AssetPerformanceInfo({... */\n      dup2\n      mstore\n        /* \"contracts/DashBoard.sol\":7622:7637  block.timestamp */\n      timestamp\n        /* \"contracts/DashBoard.sol\":7285:7653  AssetPerformanceInfo({... */\n      0x20\n      swap2\n      dup3\n      add\n      mstore\n        /* \"contracts/DashBoard.sol\":7255:7654  topUnderperformingAssets.push(AssetPerformanceInfo({... */\n      dup3\n      sload\n      0x01\n      dup2\n      add\n      dup5\n      sstore\n      0x00\n      swap4\n      dup5\n      mstore\n      swap3\n      keccak256\n      dup2\n      mload\n      swap2\n      swap3\n      0x05\n      mul\n      add\n      swap1\n      dup2\n      swap1\n      tag_380\n      swap1\n      dup3\n      tag_360\n      jump\t// in\n    tag_380:\n      pop\n      0x20\n      dup3\n      add\n      mload\n      0x01\n      dup3\n      dup2\n      add\n      dup1\n      sload\n      not(sub(shl(0xa0, 0x01), 0x01))\n      and\n      sub(shl(0xa0, 0x01), 0x01)\n      swap1\n      swap4\n      and\n      swap3\n      swap1\n      swap3\n      or\n      swap1\n      swap2\n      sstore\n      0x40\n      dup4\n      add\n      mload\n      0x02\n      dup4\n      add\n      sstore\n      0x60\n      dup4\n      add\n      mload\n      0x03\n      dup4\n      add\n      sstore\n      0x80\n      swap1\n      swap3\n      add\n      mload\n      0x04\n      swap1\n      swap2\n      add\n      sstore\n        /* \"contracts/DashBoard.sol\":7236:7239  i++ */\n      add\n        /* \"contracts/DashBoard.sol\":7190:7666  for(uint i=0; i < _topUnderperformers.length; i++){... */\n      jump(tag_362)\n    tag_363:\n      pop\n        /* \"contracts/DashBoard.sol\":7676:7707  marketAverageMovementPercent24h */\n      0x0f\n        /* \"contracts/DashBoard.sol\":7676:7727  marketAverageMovementPercent24h = _marketAvgMove24h */\n      dup2\n      swap1\n      sstore\n        /* \"contracts/DashBoard.sol\":7771:7786  block.timestamp */\n      timestamp\n        /* \"contracts/DashBoard.sol\":7738:7768  marketPerformanceLastUpdatedAt */\n      0x10\n        /* \"contracts/DashBoard.sol\":7738:7786  marketPerformanceLastUpdatedAt = block.timestamp */\n      dup2\n      swap1\n      sstore\n        /* \"contracts/DashBoard.sol\":7802:7861  MarketPerformersUpdated(_marketAvgMove24h, block.timestamp) */\n      0x40\n      dup1\n      mload\n        /* \"#utility.yul\":15895:15920   */\n      dup4\n      dup2\n      mstore\n        /* \"#utility.yul\":15951:15953   */\n      0x20\n        /* \"#utility.yul\":15936:15954   */\n      dup2\n      add\n        /* \"#utility.yul\":15929:15963   */\n      swap3\n      swap1\n      swap3\n      mstore\n        /* \"contracts/DashBoard.sol\":7802:7861  MarketPerformersUpdated(_marketAvgMove24h, block.timestamp) */\n      0xadf8225e8e3a7ce8aaabd2d8357177b1a9937694639e8488214b2f12c18146ee\n      swap2\n        /* \"#utility.yul\":15868:15886   */\n      add\n        /* \"contracts/DashBoard.sol\":7802:7861  MarketPerformersUpdated(_marketAvgMove24h, block.timestamp) */\n      mload(0x40)\n      dup1\n      swap2\n      sub\n      swap1\n      log1\n        /* \"contracts/DashBoard.sol\":6425:7869  function updateMarketPerformance(... */\n      pop\n      pop\n      pop\n      pop\n      pop\n      jump\t// out\n        /* \"contracts/DashBoard.sol\":3071:3735  function updateExchangeNetflow(int256 _amount) external onlyOwner {... */\n    tag_128:\n        /* \"@openzeppelin/contracts/access/Ownable.sol\":1531:1544  _checkOwner() */\n      tag_383\n        /* \"@openzeppelin/contracts/access/Ownable.sol\":1531:1542  _checkOwner */\n      tag_183\n        /* \"@openzeppelin/contracts/access/Ownable.sol\":1531:1544  _checkOwner() */\n      jump\t// in\n    tag_383:\n        /* \"contracts/DashBoard.sol\":3152:3184  hasPreviousExchangeNetflowAmount */\n      and(0xff, sload(0x04))\n      dup1\n        /* \"contracts/DashBoard.sol\":3152:3222  hasPreviousExchangeNetflowAmount || exchangeNetflow.lastUpdatedAt != 0 */\n      tag_385\n      jumpi\n      pop\n        /* \"contracts/DashBoard.sol\":3188:3217  exchangeNetflow.lastUpdatedAt */\n      sload(0x02)\n        /* \"contracts/DashBoard.sol\":3188:3222  exchangeNetflow.lastUpdatedAt != 0 */\n      iszero\n      iszero\n        /* \"contracts/DashBoard.sol\":3152:3222  hasPreviousExchangeNetflowAmount || exchangeNetflow.lastUpdatedAt != 0 */\n    tag_385:\n        /* \"contracts/DashBoard.sol\":3148:3397  if (hasPreviousExchangeNetflowAmount || exchangeNetflow.lastUpdatedAt != 0) {... */\n      iszero\n      tag_386\n      jumpi\n        /* \"contracts/DashBoard.sol\":3271:3286  exchangeNetflow */\n      0x01\n        /* \"contracts/DashBoard.sol\":3271:3293  exchangeNetflow.amount */\n      sload\n        /* \"contracts/DashBoard.sol\":3239:3268  previousExchangeNetflowAmount */\n      0x03\n        /* \"contracts/DashBoard.sol\":3239:3293  previousExchangeNetflowAmount = exchangeNetflow.amount */\n      sstore\n        /* \"contracts/DashBoard.sol\":3148:3397  if (hasPreviousExchangeNetflowAmount || exchangeNetflow.lastUpdatedAt != 0) {... */\n      jump(tag_387)\n    tag_386:\n        /* \"contracts/DashBoard.sol\":3326:3355  previousExchangeNetflowAmount */\n      0x03\n        /* \"contracts/DashBoard.sol\":3326:3365  previousExchangeNetflowAmount = _amount */\n      dup2\n      swap1\n      sstore\n        /* \"contracts/DashBoard.sol\":3148:3397  if (hasPreviousExchangeNetflowAmount || exchangeNetflow.lastUpdatedAt != 0) {... */\n    tag_387:\n        /* \"contracts/DashBoard.sol\":3407:3439  hasPreviousExchangeNetflowAmount */\n      0x04\n        /* \"contracts/DashBoard.sol\":3407:3446  hasPreviousExchangeNetflowAmount = true */\n      dup1\n      sload\n      not(0xff)\n      and\n        /* \"contracts/DashBoard.sol\":3442:3446  true */\n      0x01\n        /* \"contracts/DashBoard.sol\":3407:3446  hasPreviousExchangeNetflowAmount = true */\n      swap1\n      dup2\n      or\n      swap1\n      swap2\n      sstore\n        /* \"contracts/DashBoard.sol\":3459:3491  exchangeNetflow.amount = _amount */\n      dup2\n      swap1\n      sstore\n        /* \"contracts/DashBoard.sol\":3534:3549  block.timestamp */\n      timestamp\n        /* \"contracts/DashBoard.sol\":3502:3531  exchangeNetflow.lastUpdatedAt */\n      0x02\n        /* \"contracts/DashBoard.sol\":3502:3549  exchangeNetflow.lastUpdatedAt = block.timestamp */\n      dup2\n      swap1\n      sstore\n        /* \"contracts/DashBoard.sol\":3565:3605  NetflowUpdated(_amount, block.timestamp) */\n      0x40\n      dup1\n      mload\n        /* \"#utility.yul\":15895:15920   */\n      dup4\n      dup2\n      mstore\n        /* \"#utility.yul\":15951:15953   */\n      0x20\n        /* \"#utility.yul\":15936:15954   */\n      dup2\n      add\n        /* \"#utility.yul\":15929:15963   */\n      swap3\n      swap1\n      swap3\n      mstore\n        /* \"contracts/DashBoard.sol\":3565:3605  NetflowUpdated(_amount, block.timestamp) */\n      0x475cae5b1b67b8f03aba6a9d0442b263224ee619fa6fb913c08d9edf37904b8c\n      swap2\n        /* \"#utility.yul\":15868:15886   */\n      add\n        /* \"contracts/DashBoard.sol\":3565:3605  NetflowUpdated(_amount, block.timestamp) */\n      mload(0x40)\n      dup1\n      swap2\n      sub\n      swap1\n      log1\n        /* \"contracts/DashBoard.sol\":3639:3654  exchangeNetflow */\n      0x01\n        /* \"contracts/DashBoard.sol\":3639:3661  exchangeNetflow.amount */\n      sload\n        /* \"contracts/DashBoard.sol\":3663:3692  previousExchangeNetflowAmount */\n      sload(0x03)\n        /* \"contracts/DashBoard.sol\":3694:3726  hasPreviousExchangeNetflowAmount */\n      sload(0x04)\n        /* \"contracts/DashBoard.sol\":3618:3727  checkAndTriggerAlert(exchangeNetflow.amount, previousExchangeNetflowAmount, hasPreviousExchangeNetflowAmount) */\n      tag_389\n      swap3\n        /* \"contracts/DashBoard.sol\":3639:3661  exchangeNetflow.amount */\n      swap2\n        /* \"contracts/DashBoard.sol\":3663:3692  previousExchangeNetflowAmount */\n      swap1\n        /* \"contracts/DashBoard.sol\":3694:3726  hasPreviousExchangeNetflowAmount */\n      0xff\n      and\n        /* \"contracts/DashBoard.sol\":3618:3638  checkAndTriggerAlert */\n      tag_390\n        /* \"contracts/DashBoard.sol\":3618:3727  checkAndTriggerAlert(exchangeNetflow.amount, previousExchangeNetflowAmount, hasPreviousExchangeNetflowAmount) */\n      jump\t// in\n    tag_389:\n        /* \"contracts/DashBoard.sol\":3071:3735  function updateExchangeNetflow(int256 _amount) external onlyOwner {... */\n      pop\n      jump\t// out\n        /* \"contracts/DashBoard.sol\":16516:17381  function removeNarrativeKey(string calldata _narrativeName) external onlyOwner {... */\n    tag_131:\n        /* \"@openzeppelin/contracts/access/Ownable.sol\":1531:1544  _checkOwner() */\n      tag_392\n        /* \"@openzeppelin/contracts/access/Ownable.sol\":1531:1542  _checkOwner */\n      tag_183\n        /* \"@openzeppelin/contracts/access/Ownable.sol\":1531:1544  _checkOwner() */\n      jump\t// in\n    tag_392:\n        /* \"contracts/DashBoard.sol\":16606:16616  bool found */\n      0x00\n      dup1\n      dup1\n        /* \"contracts/DashBoard.sol\":16668:16947  for (uint i = 0; i < narrativeKeys.length; i++) {... */\n    tag_394:\n        /* \"contracts/DashBoard.sol\":16689:16702  narrativeKeys */\n      0x0b\n        /* \"contracts/DashBoard.sol\":16689:16709  narrativeKeys.length */\n      sload\n        /* \"contracts/DashBoard.sol\":16685:16709  i < narrativeKeys.length */\n      dup2\n      lt\n        /* \"contracts/DashBoard.sol\":16668:16947  for (uint i = 0; i < narrativeKeys.length; i++) {... */\n      iszero\n      tag_395\n      jumpi\n        /* \"contracts/DashBoard.sol\":16811:16825  _narrativeName */\n      dup5\n      dup5\n        /* \"contracts/DashBoard.sol\":16794:16826  abi.encodePacked(_narrativeName) */\n      add(0x20, mload(0x40))\n      tag_397\n      swap3\n      swap2\n      swap1\n      tag_266\n      jump\t// in\n    tag_397:\n      mload(0x40)\n      0x20\n      dup2\n      dup4\n      sub\n      sub\n      dup2\n      mstore\n      swap1\n      0x40\n      mstore\n        /* \"contracts/DashBoard.sol\":16784:16827  keccak256(abi.encodePacked(_narrativeName)) */\n      dup1\n      mload\n      swap1\n      0x20\n      add\n      keccak256\n        /* \"contracts/DashBoard.sol\":16762:16775  narrativeKeys */\n      0x0b\n        /* \"contracts/DashBoard.sol\":16776:16777  i */\n      dup3\n        /* \"contracts/DashBoard.sol\":16762:16778  narrativeKeys[i] */\n      dup2\n      sload\n      dup2\n      lt\n      tag_399\n      jumpi\n      tag_399\n      tag_273\n      jump\t// in\n    tag_399:\n      swap1\n      0x00\n      mstore\n      keccak256(0x00, 0x20)\n      add\n        /* \"contracts/DashBoard.sol\":16745:16779  abi.encodePacked(narrativeKeys[i]) */\n      add(0x20, mload(0x40))\n      tag_401\n      swap2\n      swap1\n      tag_276\n      jump\t// in\n    tag_401:\n      mload(0x40)\n      0x20\n      dup2\n      dup4\n      sub\n      sub\n      dup2\n      mstore\n      swap1\n      0x40\n      mstore\n        /* \"contracts/DashBoard.sol\":16735:16780  keccak256(abi.encodePacked(narrativeKeys[i])) */\n      dup1\n      mload\n      swap1\n      0x20\n      add\n      keccak256\n        /* \"contracts/DashBoard.sol\":16735:16827  keccak256(abi.encodePacked(narrativeKeys[i])) == keccak256(abi.encodePacked(_narrativeName)) */\n      sub\n        /* \"contracts/DashBoard.sol\":16731:16936  if (keccak256(abi.encodePacked(narrativeKeys[i])) == keccak256(abi.encodePacked(_narrativeName))) {... */\n      tag_402\n      jumpi\n        /* \"contracts/DashBoard.sol\":16856:16860  true */\n      0x01\n        /* \"contracts/DashBoard.sol\":16848:16860  found = true */\n      swap3\n      pop\n        /* \"contracts/DashBoard.sol\":16895:16896  i */\n      dup1\n        /* \"contracts/DashBoard.sol\":16879:16896  indexToRemove = i */\n      swap2\n      pop\n        /* \"contracts/DashBoard.sol\":16915:16920  break */\n      jump(tag_395)\n        /* \"contracts/DashBoard.sol\":16731:16936  if (keccak256(abi.encodePacked(narrativeKeys[i])) == keccak256(abi.encodePacked(_narrativeName))) {... */\n    tag_402:\n        /* \"contracts/DashBoard.sol\":16711:16714  i++ */\n      0x01\n      add\n        /* \"contracts/DashBoard.sol\":16668:16947  for (uint i = 0; i < narrativeKeys.length; i++) {... */\n      jump(tag_394)\n    tag_395:\n      pop\n        /* \"contracts/DashBoard.sol\":16961:16966  found */\n      dup2\n        /* \"contracts/DashBoard.sol\":16957:17374  if (found) {... */\n      iszero\n      tag_408\n      jumpi\n        /* \"contracts/DashBoard.sol\":16990:17011  narrativePerformances */\n      0x0a\n        /* \"contracts/DashBoard.sol\":17012:17026  _narrativeName */\n      dup5\n      dup5\n        /* \"contracts/DashBoard.sol\":16990:17027  narrativePerformances[_narrativeName] */\n      mload(0x40)\n      tag_404\n      swap3\n      swap2\n      swap1\n      tag_266\n      jump\t// in\n    tag_404:\n      swap1\n      dup2\n      mstore\n      mload(0x40)\n      swap1\n      dup2\n      swap1\n      sub\n      0x20\n      add\n      swap1\n      keccak256\n      0x00\n        /* \"contracts/DashBoard.sol\":16983:17027  delete narrativePerformances[_narrativeName] */\n      tag_405\n        /* \"contracts/DashBoard.sol\":16990:17027  narrativePerformances[_narrativeName] */\n      dup3\n      dup3\n        /* \"contracts/DashBoard.sol\":16983:17027  delete narrativePerformances[_narrativeName] */\n      tag_406\n      jump\t// in\n    tag_405:\n      pop\n      0x00\n      0x01\n      dup3\n      add\n      dup2\n      swap1\n      sstore\n      0x02\n      swap1\n      swap2\n      add\n      sstore\n        /* \"contracts/DashBoard.sol\":17068:17081  narrativeKeys */\n      0x0b\n        /* \"contracts/DashBoard.sol\":17068:17088  narrativeKeys.length */\n      sload\n        /* \"contracts/DashBoard.sol\":17068:17092  narrativeKeys.length > 0 */\n      iszero\n      dup1\n      iszero\n      swap1\n        /* \"contracts/DashBoard.sol\":17068:17132  narrativeKeys.length > 0 && indexToRemove < narrativeKeys.length */\n      tag_407\n      jumpi\n      pop\n        /* \"contracts/DashBoard.sol\":17112:17125  narrativeKeys */\n      0x0b\n        /* \"contracts/DashBoard.sol\":17112:17132  narrativeKeys.length */\n      sload\n        /* \"contracts/DashBoard.sol\":17096:17132  indexToRemove < narrativeKeys.length */\n      dup2\n      lt\n        /* \"contracts/DashBoard.sol\":17068:17132  narrativeKeys.length > 0 && indexToRemove < narrativeKeys.length */\n    tag_407:\n        /* \"contracts/DashBoard.sol\":17064:17363  if (narrativeKeys.length > 0 && indexToRemove < narrativeKeys.length) { // Xóa khỏi mảng keys... */\n      iszero\n      tag_408\n      jumpi\n        /* \"contracts/DashBoard.sol\":17211:17224  narrativeKeys */\n      0x0b\n        /* \"contracts/DashBoard.sol\":17225:17245  narrativeKeys.length */\n      dup1\n      sload\n        /* \"contracts/DashBoard.sol\":17225:17249  narrativeKeys.length - 1 */\n      tag_409\n      swap1\n        /* \"contracts/DashBoard.sol\":17248:17249  1 */\n      0x01\n      swap1\n        /* \"contracts/DashBoard.sol\":17225:17249  narrativeKeys.length - 1 */\n      tag_410\n      jump\t// in\n    tag_409:\n        /* \"contracts/DashBoard.sol\":17211:17250  narrativeKeys[narrativeKeys.length - 1] */\n      dup2\n      sload\n      dup2\n      lt\n      tag_412\n      jumpi\n      tag_412\n      tag_273\n      jump\t// in\n    tag_412:\n      swap1\n      0x00\n      mstore\n      keccak256(0x00, 0x20)\n      add\n        /* \"contracts/DashBoard.sol\":17180:17193  narrativeKeys */\n      0x0b\n        /* \"contracts/DashBoard.sol\":17194:17207  indexToRemove */\n      dup3\n        /* \"contracts/DashBoard.sol\":17180:17208  narrativeKeys[indexToRemove] */\n      dup2\n      sload\n      dup2\n      lt\n      tag_415\n      jumpi\n      tag_415\n      tag_273\n      jump\t// in\n    tag_415:\n      swap1\n      0x00\n      mstore\n      keccak256(0x00, 0x20)\n      add\n        /* \"contracts/DashBoard.sol\":17180:17250  narrativeKeys[indexToRemove] = narrativeKeys[narrativeKeys.length - 1] */\n      swap1\n      dup2\n      tag_417\n      swap2\n      swap1\n      tag_418\n      jump\t// in\n    tag_417:\n      pop\n        /* \"contracts/DashBoard.sol\":17269:17282  narrativeKeys */\n      0x0b\n        /* \"contracts/DashBoard.sol\":17269:17288  narrativeKeys.pop() */\n      dup1\n      sload\n      dup1\n      tag_420\n      jumpi\n      tag_420\n      tag_421\n      jump\t// in\n    tag_420:\n      0x01\n      swap1\n      sub\n      dup2\n      dup2\n      swap1\n      0x00\n      mstore\n      keccak256(0x00, 0x20)\n      add\n      0x00\n      tag_423\n      swap2\n      swap1\n      tag_406\n      jump\t// in\n    tag_423:\n      swap1\n      sstore\n        /* \"contracts/DashBoard.sol\":17332:17346  _narrativeName */\n      dup4\n      dup4\n        /* \"contracts/DashBoard.sol\":17312:17347  NarrativeKeyRemoved(_narrativeName) */\n      mload(0x40)\n      tag_424\n      swap3\n      swap2\n      swap1\n      tag_266\n      jump\t// in\n    tag_424:\n      mload(0x40)\n      swap1\n      dup2\n      swap1\n      sub\n      dup2\n      keccak256\n      swap1\n      0x39c9d1bc62fedff5608e7e91b88c9e3f6b7f4e9e9b184216521d36d88162fba4\n      swap1\n      0x00\n      swap1\n      log2\n        /* \"contracts/DashBoard.sol\":17064:17363  if (narrativeKeys.length > 0 && indexToRemove < narrativeKeys.length) { // Xóa khỏi mảng keys... */\n    tag_408:\n        /* \"contracts/DashBoard.sol\":16595:17381  {... */\n      pop\n      pop\n        /* \"contracts/DashBoard.sol\":16516:17381  function removeNarrativeKey(string calldata _narrativeName) external onlyOwner {... */\n      pop\n      pop\n      jump\t// out\n        /* \"contracts/DashBoard.sol\":5498:5802  function batchUpdateNarrativePerformances(NarrativePerformanceInfo[] calldata _performances) external onlyOwner {... */\n    tag_135:\n        /* \"@openzeppelin/contracts/access/Ownable.sol\":1531:1544  _checkOwner() */\n      tag_426\n        /* \"@openzeppelin/contracts/access/Ownable.sol\":1531:1542  _checkOwner */\n      tag_183\n        /* \"@openzeppelin/contracts/access/Ownable.sol\":1531:1544  _checkOwner() */\n      jump\t// in\n    tag_426:\n        /* \"contracts/DashBoard.sol\":5626:5632  uint i */\n      0x00\n        /* \"contracts/DashBoard.sol\":5621:5795  for (uint i = 0; i < _performances.length; i++) {... */\n    tag_428:\n        /* \"contracts/DashBoard.sol\":5638:5662  i < _performances.length */\n      dup2\n      dup2\n      lt\n        /* \"contracts/DashBoard.sol\":5621:5795  for (uint i = 0; i < _performances.length; i++) {... */\n      iszero\n      tag_429\n      jumpi\n        /* \"contracts/DashBoard.sol\":5684:5688  this */\n      address\n        /* \"contracts/DashBoard.sol\":5684:5720  this.addOrUpdateNarrativePerformance */\n      0x3fab3dd6\n        /* \"contracts/DashBoard.sol\":5721:5734  _performances */\n      dup5\n      dup5\n        /* \"contracts/DashBoard.sol\":5735:5736  i */\n      dup5\n        /* \"contracts/DashBoard.sol\":5721:5737  _performances[i] */\n      dup2\n      dup2\n      lt\n      tag_432\n      jumpi\n      tag_432\n      tag_273\n      jump\t// in\n    tag_432:\n      swap1\n      pop\n      0x20\n      mul\n      dup2\n      add\n      swap1\n      tag_433\n      swap2\n      swap1\n      tag_434\n      jump\t// in\n    tag_433:\n        /* \"contracts/DashBoard.sol\":5721:5742  _performances[i].name */\n      tag_435\n      swap1\n      dup1\n      tag_347\n      jump\t// in\n    tag_435:\n        /* \"contracts/DashBoard.sol\":5744:5757  _performances */\n      dup7\n      dup7\n        /* \"contracts/DashBoard.sol\":5758:5759  i */\n      dup7\n        /* \"contracts/DashBoard.sol\":5744:5760  _performances[i] */\n      dup2\n      dup2\n      lt\n      tag_437\n      jumpi\n      tag_437\n      tag_273\n      jump\t// in\n    tag_437:\n      swap1\n      pop\n      0x20\n      mul\n      dup2\n      add\n      swap1\n      tag_438\n      swap2\n      swap1\n      tag_434\n      jump\t// in\n    tag_438:\n        /* \"contracts/DashBoard.sol\":5744:5782  _performances[i].performancePercent24h */\n      0x20\n      add\n      calldataload\n        /* \"contracts/DashBoard.sol\":5684:5783  this.addOrUpdateNarrativePerformance(_performances[i].name, _performances[i].performancePercent24h) */\n      mload(0x40)\n      dup5\n      0xffffffff\n      and\n      0xe0\n      shl\n      dup2\n      mstore\n      0x04\n      add\n      tag_439\n      swap4\n      swap3\n      swap2\n      swap1\n      tag_440\n      jump\t// in\n    tag_439:\n      0x00\n      mload(0x40)\n      dup1\n      dup4\n      sub\n      dup2\n      0x00\n      dup8\n      dup1\n      extcodesize\n      iszero\n      dup1\n      iszero\n      tag_441\n      jumpi\n      revert(0x00, 0x00)\n    tag_441:\n      pop\n      gas\n      call\n      iszero\n      dup1\n      iszero\n      tag_443\n      jumpi\n      returndatacopy(0x00, 0x00, returndatasize)\n      revert(0x00, returndatasize)\n    tag_443:\n      pop\n      pop\n        /* \"contracts/DashBoard.sol\":5664:5667  i++ */\n      0x01\n      swap1\n      swap3\n      add\n      swap2\n      pop\n        /* \"contracts/DashBoard.sol\":5621:5795  for (uint i = 0; i < _performances.length; i++) {... */\n      tag_428\n      swap1\n      pop\n      jump\n    tag_429:\n      pop\n        /* \"contracts/DashBoard.sol\":5498:5802  function batchUpdateNarrativePerformances(NarrativePerformanceInfo[] calldata _performances) external onlyOwner {... */\n      pop\n      pop\n      jump\t// out\n        /* \"contracts/DashBoard.sol\":1506:1542  NetflowAlert public userNetflowAlert */\n    tag_137:\n      0x11\n      dup1\n      sload\n      sload(0x12)\n      sload(0x13)\n      sload(0x14)\n      sload(0x15)\n      sload(0x16)\n      0x17\n      dup1\n      sload\n      swap7\n      swap8\n      sub(shl(0xa0, 0x01), 0x01)\n      dup8\n      and\n      swap8\n      0xff\n      shl(0xa0, 0x01)\n      swap1\n      swap9\n      div\n      dup9\n      and\n      swap8\n      dup6\n      dup2\n      and\n      swap6\n      0x0100\n      swap1\n      div\n      and\n      swap4\n      swap3\n      swap1\n      tag_444\n      swap1\n      tag_169\n      jump\t// in\n    tag_444:\n      dup1\n      0x1f\n      add\n      0x20\n      dup1\n      swap2\n      div\n      mul\n      0x20\n      add\n      mload(0x40)\n      swap1\n      dup2\n      add\n      0x40\n      mstore\n      dup1\n      swap3\n      swap2\n      swap1\n      dup2\n      dup2\n      mstore\n      0x20\n      add\n      dup3\n      dup1\n      sload\n      tag_445\n      swap1\n      tag_169\n      jump\t// in\n    tag_445:\n      dup1\n      iszero\n      tag_446\n      jumpi\n      dup1\n      0x1f\n      lt\n      tag_447\n      jumpi\n      0x0100\n      dup1\n      dup4\n      sload\n      div\n      mul\n      dup4\n      mstore\n      swap2\n      0x20\n      add\n      swap2\n      jump(tag_446)\n    tag_447:\n      dup3\n      add\n      swap2\n      swap1\n      0x00\n      mstore\n      keccak256(0x00, 0x20)\n      swap1\n    tag_448:\n      dup2\n      sload\n      dup2\n      mstore\n      swap1\n      0x01\n      add\n      swap1\n      0x20\n      add\n      dup1\n      dup4\n      gt\n      tag_448\n      jumpi\n      dup3\n      swap1\n      sub\n      0x1f\n      and\n      dup3\n      add\n      swap2\n    tag_446:\n      pop\n      pop\n      pop\n      pop\n      pop\n      swap1\n      pop\n      dup10\n      jump\t// out\n        /* \"contracts/DashBoard.sol\":5810:6417  function updateNarrativeTopPerformer(... */\n    tag_143:\n        /* \"@openzeppelin/contracts/access/Ownable.sol\":1531:1544  _checkOwner() */\n      tag_450\n        /* \"@openzeppelin/contracts/access/Ownable.sol\":1531:1542  _checkOwner */\n      tag_183\n        /* \"@openzeppelin/contracts/access/Ownable.sol\":1531:1544  _checkOwner() */\n      jump\t// in\n    tag_450:\n        /* \"contracts/DashBoard.sol\":5991:6029  NarrativeTopTokenInfo storage topToken */\n      0x00\n        /* \"contracts/DashBoard.sol\":6032:6054  narrativeTopPerformers */\n      0x0c\n        /* \"contracts/DashBoard.sol\":6055:6069  _narrativeName */\n      dup7\n      dup7\n        /* \"contracts/DashBoard.sol\":6032:6070  narrativeTopPerformers[_narrativeName] */\n      mload(0x40)\n      tag_452\n      swap3\n      swap2\n      swap1\n      tag_266\n      jump\t// in\n    tag_452:\n      swap1\n      dup2\n      mstore\n      mload(0x40)\n      swap1\n      dup2\n      swap1\n      sub\n      0x20\n      add\n      swap1\n      keccak256\n      swap1\n      pop\n      dup1\n        /* \"contracts/DashBoard.sol\":6081:6120  topToken.narrativeName = _narrativeName */\n      tag_453\n        /* \"contracts/DashBoard.sol\":6106:6120  _narrativeName */\n      dup7\n      dup9\n        /* \"contracts/DashBoard.sol\":6032:6070  narrativeTopPerformers[_narrativeName] */\n      dup4\n        /* \"contracts/DashBoard.sol\":6081:6120  topToken.narrativeName = _narrativeName */\n      tag_234\n      jump\t// in\n    tag_453:\n      pop\n        /* \"contracts/DashBoard.sol\":6131:6151  topToken.tokenSymbol */\n      0x01\n      dup2\n      add\n        /* \"contracts/DashBoard.sol\":6131:6166  topToken.tokenSymbol = _tokenSymbol */\n      tag_454\n        /* \"contracts/DashBoard.sol\":6154:6166  _tokenSymbol */\n      dup5\n      dup7\n        /* \"contracts/DashBoard.sol\":6131:6151  topToken.tokenSymbol */\n      dup4\n        /* \"contracts/DashBoard.sol\":6131:6166  topToken.tokenSymbol = _tokenSymbol */\n      tag_234\n      jump\t// in\n    tag_454:\n      pop\n        /* \"contracts/DashBoard.sol\":6177:6212  topToken.relativePerformancePercent */\n      0x02\n      dup2\n      add\n        /* \"contracts/DashBoard.sol\":6177:6242  topToken.relativePerformancePercent = _relativePerformancePercent */\n      dup3\n      swap1\n      sstore\n        /* \"contracts/DashBoard.sol\":6278:6293  block.timestamp */\n      timestamp\n        /* \"contracts/DashBoard.sol\":6253:6275  topToken.lastUpdatedAt */\n      0x03\n      dup3\n      add\n        /* \"contracts/DashBoard.sol\":6253:6293  topToken.lastUpdatedAt = block.timestamp */\n      sstore\n        /* \"contracts/DashBoard.sol\":6309:6409  NarrativeTopTokenUpdated(_narrativeName, _tokenSymbol, _relativePerformancePercent, block.timestamp) */\n      mload(0x40)\n      tag_455\n      swap1\n        /* \"contracts/DashBoard.sol\":6334:6348  _narrativeName */\n      dup8\n      swap1\n      dup8\n      swap1\n        /* \"contracts/DashBoard.sol\":6309:6409  NarrativeTopTokenUpdated(_narrativeName, _tokenSymbol, _relativePerformancePercent, block.timestamp) */\n      tag_266\n      jump\t// in\n    tag_455:\n      mload(0x40)\n      dup1\n      swap2\n      sub\n      swap1\n      keccak256\n      0x6980cc14623a9e2e782881dd8347e20ebd89e558191566e01e8cc11e9066f068\n        /* \"contracts/DashBoard.sol\":6350:6362  _tokenSymbol */\n      dup6\n      dup6\n        /* \"contracts/DashBoard.sol\":6364:6391  _relativePerformancePercent */\n      dup6\n        /* \"contracts/DashBoard.sol\":6393:6408  block.timestamp */\n      timestamp\n        /* \"contracts/DashBoard.sol\":6309:6409  NarrativeTopTokenUpdated(_narrativeName, _tokenSymbol, _relativePerformancePercent, block.timestamp) */\n      mload(0x40)\n      tag_456\n      swap5\n      swap4\n      swap3\n      swap2\n      swap1\n      tag_457\n      jump\t// in\n    tag_456:\n      mload(0x40)\n      dup1\n      swap2\n      sub\n      swap1\n      log2\n        /* \"contracts/DashBoard.sol\":5980:6417  {... */\n      pop\n        /* \"contracts/DashBoard.sol\":5810:6417  function updateNarrativeTopPerformer(... */\n      pop\n      pop\n      pop\n      pop\n      pop\n      jump\t// out\n        /* \"contracts/DashBoard.sol\":16179:16318  function getTopOutperformingAssets() external view returns (AssetPerformanceInfo[] memory) {... */\n    tag_145:\n        /* \"contracts/DashBoard.sol\":16239:16268  AssetPerformanceInfo[] memory */\n      0x60\n        /* \"contracts/DashBoard.sol\":16288:16310  topOutperformingAssets */\n      0x0d\n        /* \"contracts/DashBoard.sol\":16281:16310  return topOutperformingAssets */\n      dup1\n      sload\n      dup1\n      0x20\n      mul\n      0x20\n      add\n      mload(0x40)\n      swap1\n      dup2\n      add\n      0x40\n      mstore\n      dup1\n      swap3\n      swap2\n      swap1\n      dup2\n      dup2\n      mstore\n      0x20\n      add\n      0x00\n      swap1\n    tag_459:\n      dup3\n      dup3\n      lt\n      iszero\n      tag_244\n      jumpi\n      dup4\n      dup3\n      swap1\n      0x00\n      mstore\n      keccak256(0x00, 0x20)\n      swap1\n      0x05\n      mul\n      add\n      mload(0x40)\n      dup1\n      0xa0\n      add\n      0x40\n      mstore\n      swap1\n      dup2\n      0x00\n      dup3\n      add\n      dup1\n      sload\n      tag_462\n      swap1\n      tag_169\n      jump\t// in\n    tag_462:\n      dup1\n      0x1f\n      add\n      0x20\n      dup1\n      swap2\n      div\n      mul\n      0x20\n      add\n      mload(0x40)\n      swap1\n      dup2\n      add\n      0x40\n      mstore\n      dup1\n      swap3\n      swap2\n      swap1\n      dup2\n      dup2\n      mstore\n      0x20\n      add\n      dup3\n      dup1\n      sload\n      tag_463\n      swap1\n      tag_169\n      jump\t// in\n    tag_463:\n      dup1\n      iszero\n      tag_464\n      jumpi\n      dup1\n      0x1f\n      lt\n      tag_465\n      jumpi\n      0x0100\n      dup1\n      dup4\n      sload\n      div\n      mul\n      dup4\n      mstore\n      swap2\n      0x20\n      add\n      swap2\n      jump(tag_464)\n    tag_465:\n      dup3\n      add\n      swap2\n      swap1\n      0x00\n      mstore\n      keccak256(0x00, 0x20)\n      swap1\n    tag_466:\n      dup2\n      sload\n      dup2\n      mstore\n      swap1\n      0x01\n      add\n      swap1\n      0x20\n      add\n      dup1\n      dup4\n      gt\n      tag_466\n      jumpi\n      dup3\n      swap1\n      sub\n      0x1f\n      and\n      dup3\n      add\n      swap2\n    tag_464:\n      pop\n      pop\n      pop\n      swap2\n      dup4\n      mstore\n      pop\n      pop\n      0x01\n      dup3\n      dup2\n      add\n      sload\n      sub(shl(0xa0, 0x01), 0x01)\n      and\n      0x20\n      dup1\n      dup5\n      add\n      swap2\n      swap1\n      swap2\n      mstore\n      0x02\n      dup5\n      add\n      sload\n      0x40\n      dup5\n      add\n      mstore\n      0x03\n      dup5\n      add\n      sload\n      0x60\n      dup5\n      add\n      mstore\n      0x04\n      swap1\n      swap4\n      add\n      sload\n      0x80\n      swap1\n      swap3\n      add\n      swap2\n      swap1\n      swap2\n      mstore\n      swap2\n      dup4\n      mstore\n      swap3\n      add\n      swap2\n      add\n      jump(tag_459)\n        /* \"contracts/DashBoard.sol\":9502:11096  function DoubleNetflowAlert( // Đổi tên cho rõ ràng... */\n    tag_150:\n        /* \"@openzeppelin/contracts/access/Ownable.sol\":1531:1544  _checkOwner() */\n      tag_468\n        /* \"@openzeppelin/contracts/access/Ownable.sol\":1531:1542  _checkOwner */\n      tag_183\n        /* \"@openzeppelin/contracts/access/Ownable.sol\":1531:1544  _checkOwner() */\n      jump\t// in\n    tag_468:\n        /* \"contracts/DashBoard.sol\":9767:9798  AlertCondition.ENTERING_CHANNEL */\n      0x07\n        /* \"contracts/DashBoard.sol\":9753:9763  _condition */\n      dup6\n        /* \"contracts/DashBoard.sol\":9753:9798  _condition == AlertCondition.ENTERING_CHANNEL */\n      0x0c\n      dup2\n      gt\n      iszero\n      tag_473\n      jumpi\n      tag_473\n      tag_187\n      jump\t// in\n    tag_473:\n      eq\n        /* \"contracts/DashBoard.sol\":9753:9859  _condition == AlertCondition.ENTERING_CHANNEL ||... */\n      dup1\n      tag_474\n      jumpi\n      pop\n        /* \"contracts/DashBoard.sol\":9829:9859  AlertCondition.EXITING_CHANNEL */\n      0x08\n        /* \"contracts/DashBoard.sol\":9815:9825  _condition */\n      dup6\n        /* \"contracts/DashBoard.sol\":9815:9859  _condition == AlertCondition.EXITING_CHANNEL */\n      0x0c\n      dup2\n      gt\n      iszero\n      tag_478\n      jumpi\n      tag_478\n      tag_187\n      jump\t// in\n    tag_478:\n      eq\n        /* \"contracts/DashBoard.sol\":9753:9859  _condition == AlertCondition.ENTERING_CHANNEL ||... */\n    tag_474:\n        /* \"contracts/DashBoard.sol\":9753:9919  _condition == AlertCondition.ENTERING_CHANNEL ||... */\n      dup1\n      tag_479\n      jumpi\n      pop\n        /* \"contracts/DashBoard.sol\":9890:9919  AlertCondition.INSIDE_CHANNEL */\n      0x09\n        /* \"contracts/DashBoard.sol\":9876:9886  _condition */\n      dup6\n        /* \"contracts/DashBoard.sol\":9876:9919  _condition == AlertCondition.INSIDE_CHANNEL */\n      0x0c\n      dup2\n      gt\n      iszero\n      tag_483\n      jumpi\n      tag_483\n      tag_187\n      jump\t// in\n    tag_483:\n      eq\n        /* \"contracts/DashBoard.sol\":9753:9919  _condition == AlertCondition.ENTERING_CHANNEL ||... */\n    tag_479:\n        /* \"contracts/DashBoard.sol\":9753:9980  _condition == AlertCondition.ENTERING_CHANNEL ||... */\n      dup1\n      tag_484\n      jumpi\n      pop\n        /* \"contracts/DashBoard.sol\":9950:9980  AlertCondition.OUTSIDE_CHANNEL */\n      0x0a\n        /* \"contracts/DashBoard.sol\":9936:9946  _condition */\n      dup6\n        /* \"contracts/DashBoard.sol\":9936:9980  _condition == AlertCondition.OUTSIDE_CHANNEL */\n      0x0c\n      dup2\n      gt\n      iszero\n      tag_488\n      jumpi\n      tag_488\n      tag_187\n      jump\t// in\n    tag_488:\n      eq\n        /* \"contracts/DashBoard.sol\":9753:9980  _condition == AlertCondition.ENTERING_CHANNEL ||... */\n    tag_484:\n        /* \"contracts/DashBoard.sol\":9731:10054  require(... */\n      tag_489\n      jumpi\n      mload(0x40)\n      shl(0xe5, 0x461bcd)\n      dup2\n      mstore\n        /* \"#utility.yul\":26176:26178   */\n      0x20\n        /* \"contracts/DashBoard.sol\":9731:10054  require(... */\n      0x04\n      dup3\n      add\n        /* \"#utility.yul\":26158:26179   */\n      mstore\n        /* \"#utility.yul\":26215:26217   */\n      0x2e\n        /* \"#utility.yul\":26195:26213   */\n      0x24\n      dup3\n      add\n        /* \"#utility.yul\":26188:26218   */\n      mstore\n        /* \"#utility.yul\":26254:26288   */\n      0x44617368626f6172643a20496e76616c696420636f6e646974696f6e20666f72\n        /* \"#utility.yul\":26234:26252   */\n      0x44\n      dup3\n      add\n        /* \"#utility.yul\":26227:26289   */\n      mstore\n      shl(0x92, 0x0818da185b9b995b08185b195c9d)\n        /* \"#utility.yul\":26305:26323   */\n      0x64\n      dup3\n      add\n        /* \"#utility.yul\":26298:26342   */\n      mstore\n        /* \"#utility.yul\":26359:26378   */\n      0x84\n      add\n        /* \"contracts/DashBoard.sol\":9731:10054  require(... */\n      tag_226\n        /* \"#utility.yul\":25974:26384   */\n      jump\n        /* \"contracts/DashBoard.sol\":9731:10054  require(... */\n    tag_489:\n        /* \"contracts/DashBoard.sol\":10091:10105  _channelBound2 */\n      dup3\n        /* \"contracts/DashBoard.sol\":10073:10087  _channelBound1 */\n      dup5\n        /* \"contracts/DashBoard.sol\":10073:10105  _channelBound1 != _channelBound2 */\n      sub\n        /* \"contracts/DashBoard.sol\":10065:10153  require(_channelBound1 != _channelBound2, \"Dashboard: Channel bounds must be different\") */\n      tag_492\n      jumpi\n      mload(0x40)\n      shl(0xe5, 0x461bcd)\n      dup2\n      mstore\n        /* \"#utility.yul\":26591:26593   */\n      0x20\n        /* \"contracts/DashBoard.sol\":10065:10153  require(_channelBound1 != _channelBound2, \"Dashboard: Channel bounds must be different\") */\n      0x04\n      dup3\n      add\n        /* \"#utility.yul\":26573:26594   */\n      mstore\n        /* \"#utility.yul\":26630:26632   */\n      0x2b\n        /* \"#utility.yul\":26610:26628   */\n      0x24\n      dup3\n      add\n        /* \"#utility.yul\":26603:26633   */\n      mstore\n        /* \"#utility.yul\":26669:26703   */\n      0x44617368626f6172643a204368616e6e656c20626f756e6473206d7573742062\n        /* \"#utility.yul\":26649:26667   */\n      0x44\n      dup3\n      add\n        /* \"#utility.yul\":26642:26704   */\n      mstore\n      shl(0xaa, 0x1948191a5999995c995b9d)\n        /* \"#utility.yul\":26720:26738   */\n      0x64\n      dup3\n      add\n        /* \"#utility.yul\":26713:26754   */\n      mstore\n        /* \"#utility.yul\":26771:26790   */\n      0x84\n      add\n        /* \"contracts/DashBoard.sol\":10065:10153  require(_channelBound1 != _channelBound2, \"Dashboard: Channel bounds must be different\") */\n      tag_226\n        /* \"#utility.yul\":26389:26796   */\n      jump\n        /* \"contracts/DashBoard.sol\":10065:10153  require(_channelBound1 != _channelBound2, \"Dashboard: Channel bounds must be different\") */\n    tag_492:\n        /* \"contracts/DashBoard.sol\":10170:10186  userNetflowAlert */\n      0x11\n        /* \"contracts/DashBoard.sol\":10170:10189  userNetflowAlert.id */\n      sload\n      0x00\n        /* \"contracts/DashBoard.sol\":10170:10194  userNetflowAlert.id == 0 */\n      sub\n        /* \"contracts/DashBoard.sol\":10166:10259  if (userNetflowAlert.id == 0) {... */\n      tag_495\n      jumpi\n        /* \"contracts/DashBoard.sol\":10234:10245  nextAlertId */\n      0x18\n        /* \"contracts/DashBoard.sol\":10234:10247  nextAlertId++ */\n      dup1\n      sload\n      swap1\n        /* \"contracts/DashBoard.sol\":10234:10245  nextAlertId */\n      0x00\n        /* \"contracts/DashBoard.sol\":10234:10247  nextAlertId++ */\n      tag_496\n      dup4\n      tag_230\n      jump\t// in\n    tag_496:\n      swap1\n      swap2\n      sstore\n      pop\n        /* \"contracts/DashBoard.sol\":10212:10228  userNetflowAlert */\n      0x11\n        /* \"contracts/DashBoard.sol\":10212:10247  userNetflowAlert.id = nextAlertId++ */\n      sstore\n        /* \"contracts/DashBoard.sol\":10166:10259  if (userNetflowAlert.id == 0) {... */\n    tag_495:\n        /* \"contracts/DashBoard.sol\":10269:10290  userNetflowAlert.user */\n      0x12\n        /* \"contracts/DashBoard.sol\":10269:10303  userNetflowAlert.user = msg.sender */\n      dup1\n      sload\n        /* \"contracts/DashBoard.sol\":10293:10303  msg.sender */\n      caller\n      not(sub(shl(0xa0, 0x01), 0x01))\n        /* \"contracts/DashBoard.sol\":10269:10303  userNetflowAlert.user = msg.sender */\n      dup3\n      and\n      dup2\n      or\n      dup4\n      sstore\n        /* \"contracts/DashBoard.sol\":10343:10353  _condition */\n      dup8\n      swap3\n        /* \"contracts/DashBoard.sol\":10269:10290  userNetflowAlert.user */\n      swap2\n      not(sub(shl(0xa8, 0x01), 0x01))\n        /* \"contracts/DashBoard.sol\":10314:10353  userNetflowAlert.condition = _condition */\n      and\n      not(shl(0xa0, 0xff))\n      swap1\n      swap2\n      and\n      or\n      shl(0xa0, 0x01)\n        /* \"contracts/DashBoard.sol\":10343:10353  _condition */\n      dup4\n        /* \"contracts/DashBoard.sol\":10314:10353  userNetflowAlert.condition = _condition */\n      0x0c\n      dup2\n      gt\n      iszero\n      tag_498\n      jumpi\n      tag_498\n      tag_187\n      jump\t// in\n    tag_498:\n      mul\n      or\n      swap1\n      sstore\n      pop\n        /* \"contracts/DashBoard.sol\":10478:10492  _channelBound2 */\n      dup3\n        /* \"contracts/DashBoard.sol\":10461:10475  _channelBound1 */\n      dup5\n        /* \"contracts/DashBoard.sol\":10461:10492  _channelBound1 < _channelBound2 */\n      slt\n        /* \"contracts/DashBoard.sol\":10457:10760  if (_channelBound1 < _channelBound2) {... */\n      iszero\n      tag_499\n      jumpi\n        /* \"contracts/DashBoard.sol\":10509:10536  userNetflowAlert.threshold1 */\n      0x13\n        /* \"contracts/DashBoard.sol\":10509:10553  userNetflowAlert.threshold1 = _channelBound1 */\n      dup5\n      swap1\n      sstore\n        /* \"contracts/DashBoard.sol\":10568:10595  userNetflowAlert.threshold2 */\n      0x14\n        /* \"contracts/DashBoard.sol\":10568:10612  userNetflowAlert.threshold2 = _channelBound2 */\n      dup4\n      swap1\n      sstore\n        /* \"contracts/DashBoard.sol\":10457:10760  if (_channelBound1 < _channelBound2) {... */\n      jump(tag_500)\n    tag_499:\n        /* \"contracts/DashBoard.sol\":10645:10672  userNetflowAlert.threshold1 */\n      0x13\n        /* \"contracts/DashBoard.sol\":10645:10689  userNetflowAlert.threshold1 = _channelBound2 */\n      dup4\n      swap1\n      sstore\n        /* \"contracts/DashBoard.sol\":10704:10731  userNetflowAlert.threshold2 */\n      0x14\n        /* \"contracts/DashBoard.sol\":10704:10748  userNetflowAlert.threshold2 = _channelBound1 */\n      dup5\n      swap1\n      sstore\n        /* \"contracts/DashBoard.sol\":10457:10760  if (_channelBound1 < _channelBound2) {... */\n    tag_500:\n        /* \"contracts/DashBoard.sol\":10770:10794  userNetflowAlert.message */\n      0x17\n        /* \"contracts/DashBoard.sol\":10770:10805  userNetflowAlert.message = _message */\n      tag_501\n        /* \"contracts/DashBoard.sol\":10797:10805  _message */\n      dup3\n      dup5\n        /* \"contracts/DashBoard.sol\":10770:10794  userNetflowAlert.message */\n      dup4\n        /* \"contracts/DashBoard.sol\":10770:10805  userNetflowAlert.message = _message */\n      tag_234\n      jump\t// in\n    tag_501:\n      pop\n        /* \"contracts/DashBoard.sol\":10816:10841  userNetflowAlert.isActive */\n      0x15\n        /* \"contracts/DashBoard.sol\":10816:10848  userNetflowAlert.isActive = true */\n      dup1\n      sload\n      not(0xffff)\n        /* \"contracts/DashBoard.sol\":10859:10895  userNetflowAlert.isTriggered = false */\n      and\n        /* \"contracts/DashBoard.sol\":10844:10848  true */\n      0x01\n        /* \"contracts/DashBoard.sol\":10859:10895  userNetflowAlert.isTriggered = false */\n      or\n      swap1\n      sstore\n        /* \"contracts/DashBoard.sol\":10816:10841  userNetflowAlert.isActive */\n      0x00\n        /* \"contracts/DashBoard.sol\":10906:10938  userNetflowAlert.lastTriggeredAt */\n      0x16\n        /* \"contracts/DashBoard.sol\":10906:10942  userNetflowAlert.lastTriggeredAt = 0 */\n      sstore\n        /* \"contracts/DashBoard.sol\":10816:10832  userNetflowAlert */\n      0x11\n        /* \"contracts/DashBoard.sol\":10976:10995  userNetflowAlert.id */\n      sload\n        /* \"contracts/DashBoard.sol\":11021:11048  userNetflowAlert.threshold1 */\n      sload(0x13)\n        /* \"contracts/DashBoard.sol\":11050:11077  userNetflowAlert.threshold2 */\n      sload(0x14)\n        /* \"contracts/DashBoard.sol\":10960:11088  AlertConfigured(userNetflowAlert.id, msg.sender, _condition, userNetflowAlert.threshold1, userNetflowAlert.threshold2, _message) */\n      mload(0x40)\n        /* \"contracts/DashBoard.sol\":10997:11007  msg.sender */\n      caller\n      swap4\n        /* \"contracts/DashBoard.sol\":10976:10995  userNetflowAlert.id */\n      swap3\n        /* \"contracts/DashBoard.sol\":10960:11088  AlertConfigured(userNetflowAlert.id, msg.sender, _condition, userNetflowAlert.threshold1, userNetflowAlert.threshold2, _message) */\n      0x778334af3114ade8967680fbf1e80e8e34dbe95416246aaef26907ae22cdd358\n      swap3\n      tag_502\n      swap3\n        /* \"contracts/DashBoard.sol\":11009:11019  _condition */\n      dup12\n      swap3\n        /* \"contracts/DashBoard.sol\":11021:11048  userNetflowAlert.threshold1 */\n      swap2\n        /* \"contracts/DashBoard.sol\":11050:11077  userNetflowAlert.threshold2 */\n      swap1\n        /* \"contracts/DashBoard.sol\":11079:11087  _message */\n      dup10\n      swap1\n      dup10\n      swap1\n        /* \"contracts/DashBoard.sol\":10960:11088  AlertConfigured(userNetflowAlert.id, msg.sender, _condition, userNetflowAlert.threshold1, userNetflowAlert.threshold2, _message) */\n      tag_236\n      jump\t// in\n    tag_502:\n      mload(0x40)\n      dup1\n      swap2\n      sub\n      swap1\n      log3\n        /* \"contracts/DashBoard.sol\":9502:11096  function DoubleNetflowAlert( // Đổi tên cho rõ ràng... */\n      pop\n      pop\n      pop\n      pop\n      pop\n      jump\t// out\n        /* \"@openzeppelin/contracts/access/Ownable.sol\":2543:2758  function transferOwnership(address newOwner) public virtual onlyOwner {... */\n    tag_154:\n        /* \"@openzeppelin/contracts/access/Ownable.sol\":1531:1544  _checkOwner() */\n      tag_505\n        /* \"@openzeppelin/contracts/access/Ownable.sol\":1531:1542  _checkOwner */\n      tag_183\n        /* \"@openzeppelin/contracts/access/Ownable.sol\":1531:1544  _checkOwner() */\n      jump\t// in\n    tag_505:\n      sub(shl(0xa0, 0x01), 0x01)\n        /* \"@openzeppelin/contracts/access/Ownable.sol\":2627:2649  newOwner == address(0) */\n      dup2\n      and\n        /* \"@openzeppelin/contracts/access/Ownable.sol\":2623:2714  if (newOwner == address(0)) {... */\n      tag_507\n      jumpi\n        /* \"@openzeppelin/contracts/access/Ownable.sol\":2672:2703  OwnableInvalidOwner(address(0)) */\n      mload(0x40)\n      shl(0xe0, 0x1e4fbdf7)\n      dup2\n      mstore\n        /* \"@openzeppelin/contracts/access/Ownable.sol\":2700:2701  0 */\n      0x00\n        /* \"@openzeppelin/contracts/access/Ownable.sol\":2672:2703  OwnableInvalidOwner(address(0)) */\n      0x04\n      dup3\n      add\n        /* \"#utility.yul\":9181:9232   */\n      mstore\n        /* \"#utility.yul\":9154:9172   */\n      0x24\n      add\n        /* \"@openzeppelin/contracts/access/Ownable.sol\":2672:2703  OwnableInvalidOwner(address(0)) */\n      tag_226\n        /* \"#utility.yul\":9035:9238   */\n      jump\n        /* \"@openzeppelin/contracts/access/Ownable.sol\":2623:2714  if (newOwner == address(0)) {... */\n    tag_507:\n        /* \"@openzeppelin/contracts/access/Ownable.sol\":2723:2751  _transferOwnership(newOwner) */\n      tag_389\n        /* \"@openzeppelin/contracts/access/Ownable.sol\":2742:2750  newOwner */\n      dup2\n        /* \"@openzeppelin/contracts/access/Ownable.sol\":2723:2741  _transferOwnership */\n      tag_294\n        /* \"@openzeppelin/contracts/access/Ownable.sol\":2723:2751  _transferOwnership(newOwner) */\n      jump\t// in\n        /* \"contracts/DashBoard.sol\":15800:15984  function getNarrativePerformance(string calldata _narrativeName) external view returns (NarrativePerformanceInfo memory) {... */\n    tag_157:\n        /* \"contracts/DashBoard.sol\":15888:15919  NarrativePerformanceInfo memory */\n      tag_510\n      mload(0x40)\n      dup1\n      0x60\n      add\n      0x40\n      mstore\n      dup1\n      0x60\n      dup2\n      mstore\n      0x20\n      add\n      0x00\n      dup2\n      mstore\n      0x20\n      add\n      0x00\n      dup2\n      mstore\n      pop\n      swap1\n      jump\n    tag_510:\n        /* \"contracts/DashBoard.sol\":15939:15960  narrativePerformances */\n      0x0a\n        /* \"contracts/DashBoard.sol\":15961:15975  _narrativeName */\n      dup4\n      dup4\n        /* \"contracts/DashBoard.sol\":15939:15976  narrativePerformances[_narrativeName] */\n      mload(0x40)\n      tag_513\n      swap3\n      swap2\n      swap1\n      tag_266\n      jump\t// in\n    tag_513:\n      swap1\n      dup2\n      mstore\n      0x20\n      add\n      mload(0x40)\n      dup1\n      swap2\n      sub\n      swap1\n      keccak256\n        /* \"contracts/DashBoard.sol\":15932:15976  return narrativePerformances[_narrativeName] */\n      mload(0x40)\n      dup1\n      0x60\n      add\n      0x40\n      mstore\n      swap1\n      dup2\n      0x00\n      dup3\n      add\n      dup1\n      sload\n      tag_514\n      swap1\n      tag_169\n      jump\t// in\n    tag_514:\n      dup1\n      0x1f\n      add\n      0x20\n      dup1\n      swap2\n      div\n      mul\n      0x20\n      add\n      mload(0x40)\n      swap1\n      dup2\n      add\n      0x40\n      mstore\n      dup1\n      swap3\n      swap2\n      swap1\n      dup2\n      dup2\n      mstore\n      0x20\n      add\n      dup3\n      dup1\n      sload\n      tag_515\n      swap1\n      tag_169\n      jump\t// in\n    tag_515:\n      dup1\n      iszero\n      tag_516\n      jumpi\n      dup1\n      0x1f\n      lt\n      tag_517\n      jumpi\n      0x0100\n      dup1\n      dup4\n      sload\n      div\n      mul\n      dup4\n      mstore\n      swap2\n      0x20\n      add\n      swap2\n      jump(tag_516)\n    tag_517:\n      dup3\n      add\n      swap2\n      swap1\n      0x00\n      mstore\n      keccak256(0x00, 0x20)\n      swap1\n    tag_518:\n      dup2\n      sload\n      dup2\n      mstore\n      swap1\n      0x01\n      add\n      swap1\n      0x20\n      add\n      dup1\n      dup4\n      gt\n      tag_518\n      jumpi\n      dup3\n      swap1\n      sub\n      0x1f\n      and\n      dup3\n      add\n      swap2\n    tag_516:\n      pop\n      pop\n      pop\n      pop\n      pop\n      dup2\n      mstore\n      0x20\n      add\n      0x01\n      dup3\n      add\n      sload\n      dup2\n      mstore\n      0x20\n      add\n      0x02\n      dup3\n      add\n      sload\n      dup2\n      mstore\n      pop\n      pop\n      swap1\n      pop\n        /* \"contracts/DashBoard.sol\":15800:15984  function getNarrativePerformance(string calldata _narrativeName) external view returns (NarrativePerformanceInfo memory) {... */\n      swap3\n      swap2\n      pop\n      pop\n      jump\t// out\n        /* \"contracts/DashBoard.sol\":708:762  AssetPerformanceInfo[] public topUnderperformingAssets */\n    tag_162:\n      0x0e\n      dup2\n      dup2\n      sload\n      dup2\n      lt\n      tag_251\n      jumpi\n      0x00\n      dup1\n      revert\n        /* \"@openzeppelin/contracts/access/Ownable.sol\":1796:1958  function _checkOwner() internal view virtual {... */\n    tag_183:\n        /* \"@openzeppelin/contracts/access/Ownable.sol\":1684:1691  address */\n      0x00\n        /* \"@openzeppelin/contracts/access/Ownable.sol\":1710:1716  _owner */\n      sload\n      sub(shl(0xa0, 0x01), 0x01)\n      and\n        /* \"@openzeppelin/contracts/utils/Context.sol\":735:745  msg.sender */\n      caller\n        /* \"@openzeppelin/contracts/access/Ownable.sol\":1855:1878  owner() != _msgSender() */\n      eq\n        /* \"@openzeppelin/contracts/access/Ownable.sol\":1851:1952  if (owner() != _msgSender()) {... */\n      tag_241\n      jumpi\n        /* \"@openzeppelin/contracts/access/Ownable.sol\":1901:1941  OwnableUnauthorizedAccount(_msgSender()) */\n      mload(0x40)\n      shl(0xe0, 0x118cdaa7)\n      dup2\n      mstore\n        /* \"@openzeppelin/contracts/utils/Context.sol\":735:745  msg.sender */\n      caller\n        /* \"@openzeppelin/contracts/access/Ownable.sol\":1901:1941  OwnableUnauthorizedAccount(_msgSender()) */\n      0x04\n      dup3\n      add\n        /* \"#utility.yul\":9181:9232   */\n      mstore\n        /* \"#utility.yul\":9154:9172   */\n      0x24\n      add\n        /* \"@openzeppelin/contracts/access/Ownable.sol\":1901:1941  OwnableUnauthorizedAccount(_msgSender()) */\n      tag_226\n        /* \"#utility.yul\":9035:9238   */\n      jump\n        /* \"@openzeppelin/contracts/access/Ownable.sol\":2912:3099  function _transferOwnership(address newOwner) internal virtual {... */\n    tag_294:\n        /* \"@openzeppelin/contracts/access/Ownable.sol\":2985:3001  address oldOwner */\n      0x00\n        /* \"@openzeppelin/contracts/access/Ownable.sol\":3004:3010  _owner */\n      dup1\n      sload\n      sub(shl(0xa0, 0x01), 0x01)\n        /* \"@openzeppelin/contracts/access/Ownable.sol\":3020:3037  _owner = newOwner */\n      dup4\n      dup2\n      and\n      not(sub(shl(0xa0, 0x01), 0x01))\n      dup4\n      and\n      dup2\n      or\n      dup5\n      sstore\n        /* \"@openzeppelin/contracts/access/Ownable.sol\":3052:3092  OwnershipTransferred(oldOwner, newOwner) */\n      mload(0x40)\n        /* \"@openzeppelin/contracts/access/Ownable.sol\":3004:3010  _owner */\n      swap2\n      swap1\n      swap3\n      and\n      swap3\n      dup4\n      swap2\n        /* \"@openzeppelin/contracts/access/Ownable.sol\":3052:3092  OwnershipTransferred(oldOwner, newOwner) */\n      0x8be0079c531659141344cd1fd0a4f28419497f9722a3daafe3b4186f6b6457e0\n      swap2\n        /* \"@openzeppelin/contracts/access/Ownable.sol\":2985:3001  address oldOwner */\n      swap1\n        /* \"@openzeppelin/contracts/access/Ownable.sol\":3052:3092  OwnershipTransferred(oldOwner, newOwner) */\n      log3\n        /* \"@openzeppelin/contracts/access/Ownable.sol\":2975:3099  {... */\n      pop\n        /* \"@openzeppelin/contracts/access/Ownable.sol\":2912:3099  function _transferOwnership(address newOwner) internal virtual {... */\n      pop\n      jump\t// out\n        /* \"contracts/DashBoard.sol\":11148:14732  function checkAndTriggerAlert(... */\n    tag_390:\n        /* \"contracts/DashBoard.sol\":11288:11313  userNetflowAlert.isActive */\n      and(0xff, sload(0x15))\n        /* \"contracts/DashBoard.sol\":11287:11313  !userNetflowAlert.isActive */\n      iszero\n      dup1\n        /* \"contracts/DashBoard.sol\":11287:11345  !userNetflowAlert.isActive || userNetflowAlert.isTriggered */\n      tag_535\n      jumpi\n      pop\n        /* \"contracts/DashBoard.sol\":11317:11345  userNetflowAlert.isTriggered */\n      sload(0x15)\n      0x0100\n      swap1\n      div\n      0xff\n      and\n        /* \"contracts/DashBoard.sol\":11287:11345  !userNetflowAlert.isActive || userNetflowAlert.isTriggered */\n    tag_535:\n        /* \"contracts/DashBoard.sol\":11287:11373  !userNetflowAlert.isActive || userNetflowAlert.isTriggered || userNetflowAlert.id == 0 */\n      dup1\n      tag_536\n      jumpi\n      pop\n        /* \"contracts/DashBoard.sol\":11349:11365  userNetflowAlert */\n      0x11\n        /* \"contracts/DashBoard.sol\":11349:11368  userNetflowAlert.id */\n      sload\n        /* \"contracts/DashBoard.sol\":11349:11373  userNetflowAlert.id == 0 */\n      iszero\n        /* \"contracts/DashBoard.sol\":11287:11373  !userNetflowAlert.isActive || userNetflowAlert.isTriggered || userNetflowAlert.id == 0 */\n    tag_536:\n        /* \"contracts/DashBoard.sol\":11283:11408  if (!userNetflowAlert.isActive || userNetflowAlert.isTriggered || userNetflowAlert.id == 0) {... */\n      iszero\n      tag_537\n      jumpi\n        /* \"contracts/DashBoard.sol\":11148:14732  function checkAndTriggerAlert(... */\n      pop\n      pop\n      pop\n      jump\t// out\n        /* \"contracts/DashBoard.sol\":11283:11408  if (!userNetflowAlert.isActive || userNetflowAlert.isTriggered || userNetflowAlert.id == 0) {... */\n    tag_537:\n        /* \"contracts/DashBoard.sol\":11478:11504  userNetflowAlert.condition */\n      sload(0x12)\n        /* \"contracts/DashBoard.sol\":11535:11562  userNetflowAlert.threshold1 */\n      sload(0x13)\n        /* \"contracts/DashBoard.sol\":11478:11504  userNetflowAlert.condition */\n      0x14\n        /* \"contracts/DashBoard.sol\":11913:11940  userNetflowAlert.threshold2 */\n      sload\n        /* \"contracts/DashBoard.sol\":11418:11432  bool triggered */\n      0x00\n      swap3\n      shl(0xa0, 0x01)\n        /* \"contracts/DashBoard.sol\":11478:11504  userNetflowAlert.condition */\n      swap1\n      div\n      0xff\n      and\n      swap2\n        /* \"contracts/DashBoard.sol\":11535:11562  userNetflowAlert.threshold1 */\n      swap1\n      dup2\n      swap1\n        /* \"contracts/DashBoard.sol\":11478:11504  userNetflowAlert.condition */\n      0x01\n        /* \"contracts/DashBoard.sol\":12002:12011  condition */\n      dup5\n        /* \"contracts/DashBoard.sol\":12002:12042  condition == AlertCondition.GREATER_THAN */\n      0x0c\n      dup2\n      gt\n      iszero\n      tag_541\n      jumpi\n      tag_541\n      tag_187\n      jump\t// in\n    tag_541:\n      sub\n        /* \"contracts/DashBoard.sol\":11998:14452  if (condition == AlertCondition.GREATER_THAN) {... */\n      tag_542\n      jumpi\n        /* \"contracts/DashBoard.sol\":12079:12089  threshold1 */\n      dup3\n        /* \"contracts/DashBoard.sol\":12063:12076  _currentValue */\n      dup9\n        /* \"contracts/DashBoard.sol\":12063:12089  _currentValue > threshold1 */\n      sgt\n        /* \"contracts/DashBoard.sol\":12059:12107  if (_currentValue > threshold1) triggered = true */\n      iszero\n      tag_543\n      jumpi\n        /* \"contracts/DashBoard.sol\":12103:12107  true */\n      0x01\n        /* \"contracts/DashBoard.sol\":12091:12107  triggered = true */\n      swap5\n      pop\n        /* \"contracts/DashBoard.sol\":12059:12107  if (_currentValue > threshold1) triggered = true */\n    tag_543:\n        /* \"contracts/DashBoard.sol\":11998:14452  if (condition == AlertCondition.GREATER_THAN) {... */\n      jump(tag_634)\n    tag_542:\n        /* \"contracts/DashBoard.sol\":12142:12166  AlertCondition.LESS_THAN */\n      0x02\n        /* \"contracts/DashBoard.sol\":12129:12138  condition */\n      dup5\n        /* \"contracts/DashBoard.sol\":12129:12166  condition == AlertCondition.LESS_THAN */\n      0x0c\n      dup2\n      gt\n      iszero\n      tag_548\n      jumpi\n      tag_548\n      tag_187\n      jump\t// in\n    tag_548:\n      sub\n        /* \"contracts/DashBoard.sol\":12125:14452  if (condition == AlertCondition.LESS_THAN) {... */\n      tag_549\n      jumpi\n        /* \"contracts/DashBoard.sol\":12203:12213  threshold1 */\n      dup3\n        /* \"contracts/DashBoard.sol\":12187:12200  _currentValue */\n      dup9\n        /* \"contracts/DashBoard.sol\":12187:12213  _currentValue < threshold1 */\n      slt\n        /* \"contracts/DashBoard.sol\":12183:12231  if (_currentValue < threshold1) triggered = true */\n      iszero\n      tag_543\n      jumpi\n        /* \"contracts/DashBoard.sol\":12227:12231  true */\n      0x01\n        /* \"contracts/DashBoard.sol\":12215:12231  triggered = true */\n      swap5\n      pop\n        /* \"contracts/DashBoard.sol\":12125:14452  if (condition == AlertCondition.LESS_THAN) {... */\n      jump(tag_634)\n    tag_549:\n        /* \"contracts/DashBoard.sol\":12266:12289  AlertCondition.EQUAL_TO */\n      0x03\n        /* \"contracts/DashBoard.sol\":12253:12262  condition */\n      dup5\n        /* \"contracts/DashBoard.sol\":12253:12289  condition == AlertCondition.EQUAL_TO */\n      0x0c\n      dup2\n      gt\n      iszero\n      tag_555\n      jumpi\n      tag_555\n      tag_187\n      jump\t// in\n    tag_555:\n      sub\n        /* \"contracts/DashBoard.sol\":12249:14452  if (condition == AlertCondition.EQUAL_TO) {... */\n      tag_556\n      jumpi\n        /* \"contracts/DashBoard.sol\":12327:12337  threshold1 */\n      dup3\n        /* \"contracts/DashBoard.sol\":12310:12323  _currentValue */\n      dup9\n        /* \"contracts/DashBoard.sol\":12310:12337  _currentValue == threshold1 */\n      sub\n        /* \"contracts/DashBoard.sol\":12306:12355  if (_currentValue == threshold1) triggered = true */\n      tag_543\n      jumpi\n        /* \"contracts/DashBoard.sol\":12351:12355  true */\n      0x01\n        /* \"contracts/DashBoard.sol\":12339:12355  triggered = true */\n      swap5\n      pop\n        /* \"contracts/DashBoard.sol\":12249:14452  if (condition == AlertCondition.EQUAL_TO) {... */\n      jump(tag_634)\n    tag_556:\n        /* \"contracts/DashBoard.sol\":12377:12394  _hasPreviousValue */\n      dup6\n        /* \"contracts/DashBoard.sol\":12373:14452  if (_hasPreviousValue) { // Các điều kiện sau cần _previousValue... */\n      iszero\n      tag_634\n      jumpi\n        /* \"contracts/DashBoard.sol\":12476:12499  AlertCondition.CROSSING */\n      0x04\n        /* \"contracts/DashBoard.sol\":12463:12472  condition */\n      dup5\n        /* \"contracts/DashBoard.sol\":12463:12499  condition == AlertCondition.CROSSING */\n      0x0c\n      dup2\n      gt\n      iszero\n      tag_563\n      jumpi\n      tag_563\n      tag_187\n      jump\t// in\n    tag_563:\n      sub\n        /* \"contracts/DashBoard.sol\":12459:14441  if (condition == AlertCondition.CROSSING) {... */\n      tag_564\n      jumpi\n        /* \"contracts/DashBoard.sol\":12542:12552  threshold1 */\n      dup3\n        /* \"contracts/DashBoard.sol\":12525:12539  _previousValue */\n      dup8\n        /* \"contracts/DashBoard.sol\":12525:12552  _previousValue < threshold1 */\n      slt\n        /* \"contracts/DashBoard.sol\":12525:12583  _previousValue < threshold1 && _currentValue >= threshold1 */\n      dup1\n      iszero\n      tag_565\n      jumpi\n      pop\n        /* \"contracts/DashBoard.sol\":12573:12583  threshold1 */\n      dup3\n        /* \"contracts/DashBoard.sol\":12556:12569  _currentValue */\n      dup9\n        /* \"contracts/DashBoard.sol\":12556:12583  _currentValue >= threshold1 */\n      slt\n      iszero\n        /* \"contracts/DashBoard.sol\":12525:12583  _previousValue < threshold1 && _currentValue >= threshold1 */\n    tag_565:\n        /* \"contracts/DashBoard.sol\":12524:12669  (_previousValue < threshold1 && _currentValue >= threshold1) ||... */\n      dup1\n      tag_567\n      jumpi\n      pop\n        /* \"contracts/DashBoard.sol\":12627:12637  threshold1 */\n      dup3\n        /* \"contracts/DashBoard.sol\":12610:12624  _previousValue */\n      dup8\n        /* \"contracts/DashBoard.sol\":12610:12637  _previousValue > threshold1 */\n      sgt\n        /* \"contracts/DashBoard.sol\":12610:12668  _previousValue > threshold1 && _currentValue <= threshold1 */\n      dup1\n      iszero\n      tag_567\n      jumpi\n      pop\n        /* \"contracts/DashBoard.sol\":12658:12668  threshold1 */\n      dup3\n        /* \"contracts/DashBoard.sol\":12641:12654  _currentValue */\n      dup9\n        /* \"contracts/DashBoard.sol\":12641:12668  _currentValue <= threshold1 */\n      sgt\n      iszero\n        /* \"contracts/DashBoard.sol\":12610:12668  _previousValue > threshold1 && _currentValue <= threshold1 */\n    tag_567:\n        /* \"contracts/DashBoard.sol\":12520:12687  if ((_previousValue < threshold1 && _currentValue >= threshold1) ||... */\n      iszero\n      tag_543\n      jumpi\n        /* \"contracts/DashBoard.sol\":12683:12687  true */\n      0x01\n        /* \"contracts/DashBoard.sol\":12671:12687  triggered = true */\n      swap5\n      pop\n        /* \"contracts/DashBoard.sol\":12459:14441  if (condition == AlertCondition.CROSSING) {... */\n      jump(tag_634)\n    tag_564:\n        /* \"contracts/DashBoard.sol\":12726:12752  AlertCondition.CROSSING_UP */\n      0x05\n        /* \"contracts/DashBoard.sol\":12713:12722  condition */\n      dup5\n        /* \"contracts/DashBoard.sol\":12713:12752  condition == AlertCondition.CROSSING_UP */\n      0x0c\n      dup2\n      gt\n      iszero\n      tag_573\n      jumpi\n      tag_573\n      tag_187\n      jump\t// in\n    tag_573:\n      sub\n        /* \"contracts/DashBoard.sol\":12709:14441  if (condition == AlertCondition.CROSSING_UP) {... */\n      tag_574\n      jumpi\n        /* \"contracts/DashBoard.sol\":12794:12804  threshold1 */\n      dup3\n        /* \"contracts/DashBoard.sol\":12777:12791  _previousValue */\n      dup8\n        /* \"contracts/DashBoard.sol\":12777:12804  _previousValue < threshold1 */\n      slt\n        /* \"contracts/DashBoard.sol\":12777:12835  _previousValue < threshold1 && _currentValue >= threshold1 */\n      dup1\n      iszero\n      tag_567\n      jumpi\n      pop\n        /* \"contracts/DashBoard.sol\":12825:12835  threshold1 */\n      dup3\n        /* \"contracts/DashBoard.sol\":12808:12821  _currentValue */\n      dup9\n        /* \"contracts/DashBoard.sol\":12808:12835  _currentValue >= threshold1 */\n      slt\n        /* \"contracts/DashBoard.sol\":12773:12853  if (_previousValue < threshold1 && _currentValue >= threshold1) triggered = true */\n      tag_543\n      jumpi\n        /* \"contracts/DashBoard.sol\":12849:12853  true */\n      0x01\n        /* \"contracts/DashBoard.sol\":12837:12853  triggered = true */\n      swap5\n      pop\n        /* \"contracts/DashBoard.sol\":12709:14441  if (condition == AlertCondition.CROSSING_UP) {... */\n      jump(tag_634)\n    tag_574:\n        /* \"contracts/DashBoard.sol\":12892:12920  AlertCondition.CROSSING_DOWN */\n      0x06\n        /* \"contracts/DashBoard.sol\":12879:12888  condition */\n      dup5\n        /* \"contracts/DashBoard.sol\":12879:12920  condition == AlertCondition.CROSSING_DOWN */\n      0x0c\n      dup2\n      gt\n      iszero\n      tag_581\n      jumpi\n      tag_581\n      tag_187\n      jump\t// in\n    tag_581:\n      sub\n        /* \"contracts/DashBoard.sol\":12875:14441  if (condition == AlertCondition.CROSSING_DOWN) {... */\n      tag_582\n      jumpi\n        /* \"contracts/DashBoard.sol\":12962:12972  threshold1 */\n      dup3\n        /* \"contracts/DashBoard.sol\":12945:12959  _previousValue */\n      dup8\n        /* \"contracts/DashBoard.sol\":12945:12972  _previousValue > threshold1 */\n      sgt\n        /* \"contracts/DashBoard.sol\":12945:13003  _previousValue > threshold1 && _currentValue <= threshold1 */\n      dup1\n      iszero\n      tag_567\n      jumpi\n      pop\n        /* \"contracts/DashBoard.sol\":12993:13003  threshold1 */\n      dup3\n        /* \"contracts/DashBoard.sol\":12976:12989  _currentValue */\n      dup9\n        /* \"contracts/DashBoard.sol\":12976:13003  _currentValue <= threshold1 */\n      sgt\n        /* \"contracts/DashBoard.sol\":12941:13021  if (_previousValue > threshold1 && _currentValue <= threshold1) triggered = true */\n      tag_543\n      jumpi\n        /* \"contracts/DashBoard.sol\":13017:13021  true */\n      0x01\n        /* \"contracts/DashBoard.sol\":13005:13021  triggered = true */\n      swap5\n      pop\n        /* \"contracts/DashBoard.sol\":12875:14441  if (condition == AlertCondition.CROSSING_DOWN) {... */\n      jump(tag_634)\n    tag_582:\n        /* \"contracts/DashBoard.sol\":13060:13091  AlertCondition.ENTERING_CHANNEL */\n      0x07\n        /* \"contracts/DashBoard.sol\":13047:13056  condition */\n      dup5\n        /* \"contracts/DashBoard.sol\":13047:13091  condition == AlertCondition.ENTERING_CHANNEL */\n      0x0c\n      dup2\n      gt\n      iszero\n      tag_589\n      jumpi\n      tag_589\n      tag_187\n      jump\t// in\n    tag_589:\n      sub\n        /* \"contracts/DashBoard.sol\":13043:14441  if (condition == AlertCondition.ENTERING_CHANNEL) {... */\n      tag_590\n      jumpi\n        /* \"contracts/DashBoard.sol\":13112:13134  bool previouslyOutside */\n      0x00\n        /* \"contracts/DashBoard.sol\":13155:13172  lowerChannelBound */\n      dup3\n        /* \"contracts/DashBoard.sol\":13138:13152  _previousValue */\n      dup9\n        /* \"contracts/DashBoard.sol\":13138:13172  _previousValue < lowerChannelBound */\n      slt\n        /* \"contracts/DashBoard.sol\":13138:13210  _previousValue < lowerChannelBound || _previousValue > upperChannelBound */\n      dup1\n      tag_591\n      jumpi\n      pop\n        /* \"contracts/DashBoard.sol\":13193:13210  upperChannelBound */\n      dup2\n        /* \"contracts/DashBoard.sol\":13176:13190  _previousValue */\n      dup9\n        /* \"contracts/DashBoard.sol\":13176:13210  _previousValue > upperChannelBound */\n      sgt\n        /* \"contracts/DashBoard.sol\":13138:13210  _previousValue < lowerChannelBound || _previousValue > upperChannelBound */\n    tag_591:\n        /* \"contracts/DashBoard.sol\":13112:13211  bool previouslyOutside = (_previousValue < lowerChannelBound || _previousValue > upperChannelBound) */\n      swap1\n      pop\n        /* \"contracts/DashBoard.sol\":13230:13250  bool currentlyInside */\n      0x00\n        /* \"contracts/DashBoard.sol\":13271:13288  lowerChannelBound */\n      dup4\n        /* \"contracts/DashBoard.sol\":13254:13267  _currentValue */\n      dup11\n        /* \"contracts/DashBoard.sol\":13254:13288  _currentValue >= lowerChannelBound */\n      slt\n      iszero\n        /* \"contracts/DashBoard.sol\":13254:13326  _currentValue >= lowerChannelBound && _currentValue <= upperChannelBound */\n      dup1\n      iszero\n      tag_592\n      jumpi\n      pop\n        /* \"contracts/DashBoard.sol\":13309:13326  upperChannelBound */\n      dup3\n        /* \"contracts/DashBoard.sol\":13292:13305  _currentValue */\n      dup11\n        /* \"contracts/DashBoard.sol\":13292:13326  _currentValue <= upperChannelBound */\n      sgt\n      iszero\n        /* \"contracts/DashBoard.sol\":13254:13326  _currentValue >= lowerChannelBound && _currentValue <= upperChannelBound */\n    tag_592:\n        /* \"contracts/DashBoard.sol\":13230:13327  bool currentlyInside = (_currentValue >= lowerChannelBound && _currentValue <= upperChannelBound) */\n      swap1\n      pop\n        /* \"contracts/DashBoard.sol\":13350:13367  previouslyOutside */\n      dup2\n        /* \"contracts/DashBoard.sol\":13350:13386  previouslyOutside && currentlyInside */\n      dup1\n      iszero\n      tag_593\n      jumpi\n      pop\n        /* \"contracts/DashBoard.sol\":13371:13386  currentlyInside */\n      dup1\n        /* \"contracts/DashBoard.sol\":13350:13386  previouslyOutside && currentlyInside */\n    tag_593:\n        /* \"contracts/DashBoard.sol\":13346:13404  if (previouslyOutside && currentlyInside) triggered = true */\n      iszero\n      tag_594\n      jumpi\n        /* \"contracts/DashBoard.sol\":13400:13404  true */\n      0x01\n        /* \"contracts/DashBoard.sol\":13388:13404  triggered = true */\n      swap7\n      pop\n        /* \"contracts/DashBoard.sol\":13346:13404  if (previouslyOutside && currentlyInside) triggered = true */\n    tag_594:\n        /* \"contracts/DashBoard.sol\":13093:13420  {... */\n      pop\n      pop\n        /* \"contracts/DashBoard.sol\":13043:14441  if (condition == AlertCondition.ENTERING_CHANNEL) {... */\n      jump(tag_634)\n    tag_590:\n        /* \"contracts/DashBoard.sol\":13443:13473  AlertCondition.EXITING_CHANNEL */\n      0x08\n        /* \"contracts/DashBoard.sol\":13430:13439  condition */\n      dup5\n        /* \"contracts/DashBoard.sol\":13430:13473  condition == AlertCondition.EXITING_CHANNEL */\n      0x0c\n      dup2\n      gt\n      iszero\n      tag_599\n      jumpi\n      tag_599\n      tag_187\n      jump\t// in\n    tag_599:\n      sub\n        /* \"contracts/DashBoard.sol\":13426:14441  if (condition == AlertCondition.EXITING_CHANNEL) {... */\n      tag_600\n      jumpi\n        /* \"contracts/DashBoard.sol\":13494:13515  bool previouslyInside */\n      0x00\n        /* \"contracts/DashBoard.sol\":13537:13554  lowerChannelBound */\n      dup3\n        /* \"contracts/DashBoard.sol\":13519:13533  _previousValue */\n      dup9\n        /* \"contracts/DashBoard.sol\":13519:13554  _previousValue >= lowerChannelBound */\n      slt\n      iszero\n        /* \"contracts/DashBoard.sol\":13519:13593  _previousValue >= lowerChannelBound && _previousValue <= upperChannelBound */\n      dup1\n      iszero\n      tag_601\n      jumpi\n      pop\n        /* \"contracts/DashBoard.sol\":13576:13593  upperChannelBound */\n      dup2\n        /* \"contracts/DashBoard.sol\":13558:13572  _previousValue */\n      dup9\n        /* \"contracts/DashBoard.sol\":13558:13593  _previousValue <= upperChannelBound */\n      sgt\n      iszero\n        /* \"contracts/DashBoard.sol\":13519:13593  _previousValue >= lowerChannelBound && _previousValue <= upperChannelBound */\n    tag_601:\n        /* \"contracts/DashBoard.sol\":13494:13594  bool previouslyInside = (_previousValue >= lowerChannelBound && _previousValue <= upperChannelBound) */\n      swap1\n      pop\n        /* \"contracts/DashBoard.sol\":13613:13634  bool currentlyOutside */\n      0x00\n        /* \"contracts/DashBoard.sol\":13654:13671  lowerChannelBound */\n      dup4\n        /* \"contracts/DashBoard.sol\":13638:13651  _currentValue */\n      dup11\n        /* \"contracts/DashBoard.sol\":13638:13671  _currentValue < lowerChannelBound */\n      slt\n        /* \"contracts/DashBoard.sol\":13638:13708  _currentValue < lowerChannelBound || _currentValue > upperChannelBound */\n      dup1\n      tag_592\n      jumpi\n      pop\n      pop\n        /* \"contracts/DashBoard.sol\":13675:13708  _currentValue > upperChannelBound */\n      dup2\n      dup10\n      sgt\n        /* \"contracts/DashBoard.sol\":13732:13748  previouslyInside */\n      dup2\n        /* \"contracts/DashBoard.sol\":13732:13768  previouslyInside && currentlyOutside */\n      dup1\n      iszero\n      tag_593\n      jumpi\n      pop\n        /* \"contracts/DashBoard.sol\":13752:13768  currentlyOutside */\n      dup1\n        /* \"contracts/DashBoard.sol\":13728:13786  if (previouslyInside && currentlyOutside) triggered = true */\n      iszero\n      tag_594\n      jumpi\n        /* \"contracts/DashBoard.sol\":13782:13786  true */\n      0x01\n        /* \"contracts/DashBoard.sol\":13770:13786  triggered = true */\n      swap7\n      pop\n        /* \"contracts/DashBoard.sol\":13475:13802  {... */\n      pop\n      pop\n        /* \"contracts/DashBoard.sol\":13426:14441  if (condition == AlertCondition.EXITING_CHANNEL) {... */\n      jump(tag_634)\n    tag_600:\n        /* \"contracts/DashBoard.sol\":13825:13854  AlertCondition.INSIDE_CHANNEL */\n      0x09\n        /* \"contracts/DashBoard.sol\":13812:13821  condition */\n      dup5\n        /* \"contracts/DashBoard.sol\":13812:13854  condition == AlertCondition.INSIDE_CHANNEL */\n      0x0c\n      dup2\n      gt\n      iszero\n      tag_609\n      jumpi\n      tag_609\n      tag_187\n      jump\t// in\n    tag_609:\n      sub\n        /* \"contracts/DashBoard.sol\":13808:14441  if (condition == AlertCondition.INSIDE_CHANNEL) {... */\n      tag_610\n      jumpi\n        /* \"contracts/DashBoard.sol\":13896:13913  lowerChannelBound */\n      dup2\n        /* \"contracts/DashBoard.sol\":13879:13892  _currentValue */\n      dup9\n        /* \"contracts/DashBoard.sol\":13879:13913  _currentValue >= lowerChannelBound */\n      slt\n      iszero\n        /* \"contracts/DashBoard.sol\":13879:13951  _currentValue >= lowerChannelBound && _currentValue <= upperChannelBound */\n      dup1\n      iszero\n      tag_567\n      jumpi\n      pop\n        /* \"contracts/DashBoard.sol\":13934:13951  upperChannelBound */\n      dup1\n        /* \"contracts/DashBoard.sol\":13917:13930  _currentValue */\n      dup9\n        /* \"contracts/DashBoard.sol\":13917:13951  _currentValue <= upperChannelBound */\n      sgt\n        /* \"contracts/DashBoard.sol\":13875:13969  if (_currentValue >= lowerChannelBound && _currentValue <= upperChannelBound) triggered = true */\n      tag_543\n      jumpi\n        /* \"contracts/DashBoard.sol\":13965:13969  true */\n      0x01\n        /* \"contracts/DashBoard.sol\":13953:13969  triggered = true */\n      swap5\n      pop\n        /* \"contracts/DashBoard.sol\":13808:14441  if (condition == AlertCondition.INSIDE_CHANNEL) {... */\n      jump(tag_634)\n    tag_610:\n        /* \"contracts/DashBoard.sol\":14008:14038  AlertCondition.OUTSIDE_CHANNEL */\n      0x0a\n        /* \"contracts/DashBoard.sol\":13995:14004  condition */\n      dup5\n        /* \"contracts/DashBoard.sol\":13995:14038  condition == AlertCondition.OUTSIDE_CHANNEL */\n      0x0c\n      dup2\n      gt\n      iszero\n      tag_617\n      jumpi\n      tag_617\n      tag_187\n      jump\t// in\n    tag_617:\n      sub\n        /* \"contracts/DashBoard.sol\":13991:14441  if (condition == AlertCondition.OUTSIDE_CHANNEL) {... */\n      tag_618\n      jumpi\n        /* \"contracts/DashBoard.sol\":14079:14096  lowerChannelBound */\n      dup2\n        /* \"contracts/DashBoard.sol\":14063:14076  _currentValue */\n      dup9\n        /* \"contracts/DashBoard.sol\":14063:14096  _currentValue < lowerChannelBound */\n      slt\n        /* \"contracts/DashBoard.sol\":14063:14133  _currentValue < lowerChannelBound || _currentValue > upperChannelBound */\n      dup1\n      tag_567\n      jumpi\n      pop\n        /* \"contracts/DashBoard.sol\":14116:14133  upperChannelBound */\n      dup1\n        /* \"contracts/DashBoard.sol\":14100:14113  _currentValue */\n      dup9\n        /* \"contracts/DashBoard.sol\":14100:14133  _currentValue > upperChannelBound */\n      sgt\n        /* \"contracts/DashBoard.sol\":14059:14151  if (_currentValue < lowerChannelBound || _currentValue > upperChannelBound) triggered = true */\n      iszero\n      tag_543\n      jumpi\n        /* \"contracts/DashBoard.sol\":14147:14151  true */\n      0x01\n        /* \"contracts/DashBoard.sol\":14135:14151  triggered = true */\n      swap5\n      pop\n        /* \"contracts/DashBoard.sol\":13991:14441  if (condition == AlertCondition.OUTSIDE_CHANNEL) {... */\n      jump(tag_634)\n    tag_618:\n        /* \"contracts/DashBoard.sol\":14190:14214  AlertCondition.MOVING_UP */\n      0x0b\n        /* \"contracts/DashBoard.sol\":14177:14186  condition */\n      dup5\n        /* \"contracts/DashBoard.sol\":14177:14214  condition == AlertCondition.MOVING_UP */\n      0x0c\n      dup2\n      gt\n      iszero\n      tag_625\n      jumpi\n      tag_625\n      tag_187\n      jump\t// in\n    tag_625:\n      sub\n        /* \"contracts/DashBoard.sol\":14173:14441  if (condition == AlertCondition.MOVING_UP) {... */\n      tag_626\n      jumpi\n        /* \"contracts/DashBoard.sol\":14255:14269  _previousValue */\n      dup7\n        /* \"contracts/DashBoard.sol\":14239:14252  _currentValue */\n      dup9\n        /* \"contracts/DashBoard.sol\":14239:14269  _currentValue > _previousValue */\n      sgt\n        /* \"contracts/DashBoard.sol\":14235:14287  if (_currentValue > _previousValue) triggered = true */\n      iszero\n      tag_543\n      jumpi\n        /* \"contracts/DashBoard.sol\":14283:14287  true */\n      0x01\n        /* \"contracts/DashBoard.sol\":14271:14287  triggered = true */\n      swap5\n      pop\n        /* \"contracts/DashBoard.sol\":14173:14441  if (condition == AlertCondition.MOVING_UP) {... */\n      jump(tag_634)\n    tag_626:\n        /* \"contracts/DashBoard.sol\":14326:14352  AlertCondition.MOVING_DOWN */\n      0x0c\n        /* \"contracts/DashBoard.sol\":14313:14322  condition */\n      dup5\n        /* \"contracts/DashBoard.sol\":14313:14352  condition == AlertCondition.MOVING_DOWN */\n      0x0c\n      dup2\n      gt\n      iszero\n      tag_632\n      jumpi\n      tag_632\n      tag_187\n      jump\t// in\n    tag_632:\n      sub\n        /* \"contracts/DashBoard.sol\":14309:14441  if (condition == AlertCondition.MOVING_DOWN) {... */\n      tag_634\n      jumpi\n        /* \"contracts/DashBoard.sol\":14393:14407  _previousValue */\n      dup7\n        /* \"contracts/DashBoard.sol\":14377:14390  _currentValue */\n      dup9\n        /* \"contracts/DashBoard.sol\":14377:14407  _currentValue < _previousValue */\n      slt\n        /* \"contracts/DashBoard.sol\":14373:14425  if (_currentValue < _previousValue) triggered = true */\n      iszero\n      tag_634\n      jumpi\n        /* \"contracts/DashBoard.sol\":14421:14425  true */\n      0x01\n        /* \"contracts/DashBoard.sol\":14409:14425  triggered = true */\n      swap5\n      pop\n        /* \"contracts/DashBoard.sol\":14373:14425  if (_currentValue < _previousValue) triggered = true */\n    tag_634:\n        /* \"contracts/DashBoard.sol\":14468:14477  triggered */\n      dup5\n        /* \"contracts/DashBoard.sol\":14464:14725  if (triggered) {... */\n      iszero\n      tag_635\n      jumpi\n        /* \"contracts/DashBoard.sol\":14494:14522  userNetflowAlert.isTriggered */\n      0x15\n        /* \"contracts/DashBoard.sol\":14494:14529  userNetflowAlert.isTriggered = true */\n      dup1\n      sload\n      not(0xff00)\n      and\n      0x0100\n      or\n      swap1\n      sstore\n        /* \"contracts/DashBoard.sol\":14579:14594  block.timestamp */\n      timestamp\n        /* \"contracts/DashBoard.sol\":14544:14576  userNetflowAlert.lastTriggeredAt */\n      0x16\n        /* \"contracts/DashBoard.sol\":14544:14594  userNetflowAlert.lastTriggeredAt = block.timestamp */\n      sstore\n        /* \"contracts/DashBoard.sol\":14650:14671  userNetflowAlert.user */\n      sload(0x12)\n        /* \"contracts/DashBoard.sol\":14494:14510  userNetflowAlert */\n      0x11\n        /* \"contracts/DashBoard.sol\":14629:14648  userNetflowAlert.id */\n      sload\n        /* \"contracts/DashBoard.sol\":14614:14713  AlertTriggered(userNetflowAlert.id, userNetflowAlert.user, _currentValue, userNetflowAlert.message) */\n      mload(0x40)\n      sub(shl(0xa0, 0x01), 0x01)\n        /* \"contracts/DashBoard.sol\":14650:14671  userNetflowAlert.user */\n      swap1\n      swap3\n      and\n      swap2\n        /* \"contracts/DashBoard.sol\":14614:14713  AlertTriggered(userNetflowAlert.id, userNetflowAlert.user, _currentValue, userNetflowAlert.message) */\n      0x601cdb1cd0f27fc0f4bad78847fbd1402a286180590e1019934014e93e922a0f\n      swap1\n      tag_636\n      swap1\n        /* \"contracts/DashBoard.sol\":14673:14686  _currentValue */\n      dup13\n      swap1\n        /* \"contracts/DashBoard.sol\":14688:14712  userNetflowAlert.message */\n      0x17\n      swap1\n        /* \"contracts/DashBoard.sol\":14614:14713  AlertTriggered(userNetflowAlert.id, userNetflowAlert.user, _currentValue, userNetflowAlert.message) */\n      tag_637\n      jump\t// in\n    tag_636:\n      mload(0x40)\n      dup1\n      swap2\n      sub\n      swap1\n      log3\n        /* \"contracts/DashBoard.sol\":14464:14725  if (triggered) {... */\n    tag_635:\n        /* \"contracts/DashBoard.sol\":11272:14732  {... */\n      pop\n      pop\n      pop\n      pop\n      pop\n        /* \"contracts/DashBoard.sol\":11148:14732  function checkAndTriggerAlert(... */\n      pop\n      pop\n      pop\n      jump\t// out\n    tag_338:\n      pop\n      dup1\n      sload\n      0x00\n      dup3\n      sstore\n      0x05\n      mul\n      swap1\n      0x00\n      mstore\n      keccak256(0x00, 0x20)\n      swap1\n      dup2\n      add\n      swap1\n      tag_389\n      swap2\n      swap1\n      tag_641\n      jump\t// in\n    tag_406:\n      pop\n      dup1\n      sload\n      tag_642\n      swap1\n      tag_169\n      jump\t// in\n    tag_642:\n      0x00\n      dup3\n      sstore\n      dup1\n      0x1f\n      lt\n      tag_644\n      jumpi\n      pop\n      pop\n      jump\t// out\n    tag_644:\n      0x1f\n      add\n      0x20\n      swap1\n      div\n      swap1\n      0x00\n      mstore\n      keccak256(0x00, 0x20)\n      swap1\n      dup2\n      add\n      swap1\n      tag_389\n      swap2\n      swap1\n      tag_646\n      jump\t// in\n    tag_641:\n      dup1\n      dup3\n      gt\n      iszero\n      tag_648\n      jumpi\n      0x00\n      tag_649\n      dup3\n      dup3\n      tag_406\n      jump\t// in\n    tag_649:\n      pop\n      0x01\n      dup2\n      add\n      dup1\n      sload\n      not(sub(shl(0xa0, 0x01), 0x01))\n      and\n      swap1\n      sstore\n      0x00\n      0x02\n      dup3\n      add\n      dup2\n      swap1\n      sstore\n      0x03\n      dup3\n      add\n      dup2\n      swap1\n      sstore\n      0x04\n      dup3\n      add\n      sstore\n      0x05\n      add\n      jump(tag_641)\n    tag_648:\n      pop\n      swap1\n      jump\t// out\n    tag_646:\n    tag_650:\n      dup1\n      dup3\n      gt\n      iszero\n      tag_648\n      jumpi\n      0x00\n      dup2\n      sstore\n      0x01\n      add\n      jump(tag_650)\n        /* \"#utility.yul\":14:141   */\n    tag_652:\n        /* \"#utility.yul\":75:85   */\n      0x4e487b71\n        /* \"#utility.yul\":70:73   */\n      0xe0\n        /* \"#utility.yul\":66:86   */\n      shl\n        /* \"#utility.yul\":63:64   */\n      0x00\n        /* \"#utility.yul\":56:87   */\n      mstore\n        /* \"#utility.yul\":106:110   */\n      0x41\n        /* \"#utility.yul\":103:104   */\n      0x04\n        /* \"#utility.yul\":96:111   */\n      mstore\n        /* \"#utility.yul\":130:134   */\n      0x24\n        /* \"#utility.yul\":127:128   */\n      0x00\n        /* \"#utility.yul\":120:135   */\n      revert\n        /* \"#utility.yul\":146:1091   */\n    tag_44:\n        /* \"#utility.yul\":215:221   */\n      0x00\n        /* \"#utility.yul\":268:270   */\n      0x20\n        /* \"#utility.yul\":256:265   */\n      dup3\n        /* \"#utility.yul\":247:254   */\n      dup5\n        /* \"#utility.yul\":243:266   */\n      sub\n        /* \"#utility.yul\":239:271   */\n      slt\n        /* \"#utility.yul\":236:288   */\n      iszero\n      tag_666\n      jumpi\n        /* \"#utility.yul\":284:285   */\n      0x00\n        /* \"#utility.yul\":281:282   */\n      0x00\n        /* \"#utility.yul\":274:286   */\n      revert\n        /* \"#utility.yul\":236:288   */\n    tag_666:\n        /* \"#utility.yul\":324:333   */\n      dup2\n        /* \"#utility.yul\":311:334   */\n      calldataload\n      sub(shl(0x40, 0x01), 0x01)\n        /* \"#utility.yul\":349:355   */\n      dup2\n        /* \"#utility.yul\":346:376   */\n      gt\n        /* \"#utility.yul\":343:393   */\n      iszero\n      tag_667\n      jumpi\n        /* \"#utility.yul\":389:390   */\n      0x00\n        /* \"#utility.yul\":386:387   */\n      0x00\n        /* \"#utility.yul\":379:391   */\n      revert\n        /* \"#utility.yul\":343:393   */\n    tag_667:\n        /* \"#utility.yul\":412:434   */\n      dup3\n      add\n        /* \"#utility.yul\":465:469   */\n      0x1f\n        /* \"#utility.yul\":457:470   */\n      dup2\n      add\n        /* \"#utility.yul\":453:480   */\n      dup5\n      sgt\n        /* \"#utility.yul\":443:498   */\n      tag_668\n      jumpi\n        /* \"#utility.yul\":494:495   */\n      0x00\n        /* \"#utility.yul\":491:492   */\n      0x00\n        /* \"#utility.yul\":484:496   */\n      revert\n        /* \"#utility.yul\":443:498   */\n    tag_668:\n        /* \"#utility.yul\":534:536   */\n      dup1\n        /* \"#utility.yul\":521:537   */\n      calldataload\n      sub(shl(0x40, 0x01), 0x01)\n        /* \"#utility.yul\":552:558   */\n      dup2\n        /* \"#utility.yul\":549:579   */\n      gt\n        /* \"#utility.yul\":546:602   */\n      iszero\n      tag_670\n      jumpi\n        /* \"#utility.yul\":582:600   */\n      tag_670\n      tag_652\n      jump\t// in\n    tag_670:\n        /* \"#utility.yul\":631:633   */\n      0x40\n        /* \"#utility.yul\":625:634   */\n      mload\n        /* \"#utility.yul\":723:725   */\n      0x1f\n        /* \"#utility.yul\":685:702   */\n      dup3\n      add\n      not(0x1f)\n        /* \"#utility.yul\":681:712   */\n      swap1\n      dup2\n      and\n        /* \"#utility.yul\":714:716   */\n      0x3f\n        /* \"#utility.yul\":677:717   */\n      add\n        /* \"#utility.yul\":673:727   */\n      and\n        /* \"#utility.yul\":661:728   */\n      dup2\n      add\n      sub(shl(0x40, 0x01), 0x01)\n        /* \"#utility.yul\":743:777   */\n      dup2\n      gt\n        /* \"#utility.yul\":779:801   */\n      dup3\n      dup3\n      lt\n        /* \"#utility.yul\":740:802   */\n      or\n        /* \"#utility.yul\":737:825   */\n      iszero\n      tag_672\n      jumpi\n        /* \"#utility.yul\":805:823   */\n      tag_672\n      tag_652\n      jump\t// in\n    tag_672:\n        /* \"#utility.yul\":841:843   */\n      0x40\n        /* \"#utility.yul\":834:856   */\n      mstore\n        /* \"#utility.yul\":865:887   */\n      dup2\n      dup2\n      mstore\n        /* \"#utility.yul\":906:921   */\n      dup3\n      dup3\n      add\n        /* \"#utility.yul\":923:925   */\n      0x20\n        /* \"#utility.yul\":902:926   */\n      add\n        /* \"#utility.yul\":899:936   */\n      dup7\n      lt\n        /* \"#utility.yul\":896:953   */\n      iszero\n      tag_673\n      jumpi\n        /* \"#utility.yul\":949:950   */\n      0x00\n        /* \"#utility.yul\":946:947   */\n      0x00\n        /* \"#utility.yul\":939:951   */\n      revert\n        /* \"#utility.yul\":896:953   */\n    tag_673:\n        /* \"#utility.yul\":1005:1011   */\n      dup2\n        /* \"#utility.yul\":1000:1002   */\n      0x20\n        /* \"#utility.yul\":996:998   */\n      dup5\n        /* \"#utility.yul\":992:1003   */\n      add\n        /* \"#utility.yul\":987:989   */\n      0x20\n        /* \"#utility.yul\":979:985   */\n      dup4\n        /* \"#utility.yul\":975:990   */\n      add\n        /* \"#utility.yul\":962:1012   */\n      calldatacopy\n        /* \"#utility.yul\":1058:1059   */\n      0x00\n        /* \"#utility.yul\":1032:1051   */\n      swap2\n      dup2\n      add\n        /* \"#utility.yul\":1053:1055   */\n      0x20\n        /* \"#utility.yul\":1028:1056   */\n      add\n        /* \"#utility.yul\":1021:1060   */\n      swap2\n      swap1\n      swap2\n      mstore\n        /* \"#utility.yul\":1036:1042   */\n      swap5\n        /* \"#utility.yul\":146:1091   */\n      swap4\n      pop\n      pop\n      pop\n      pop\n      jump\t// out\n        /* \"#utility.yul\":1096:1385   */\n    tag_653:\n        /* \"#utility.yul\":1138:1141   */\n      0x00\n        /* \"#utility.yul\":1176:1181   */\n      dup2\n        /* \"#utility.yul\":1170:1182   */\n      mload\n        /* \"#utility.yul\":1203:1209   */\n      dup1\n        /* \"#utility.yul\":1198:1201   */\n      dup5\n        /* \"#utility.yul\":1191:1210   */\n      mstore\n        /* \"#utility.yul\":1259:1265   */\n      dup1\n        /* \"#utility.yul\":1252:1256   */\n      0x20\n        /* \"#utility.yul\":1245:1250   */\n      dup5\n        /* \"#utility.yul\":1241:1257   */\n      add\n        /* \"#utility.yul\":1234:1238   */\n      0x20\n        /* \"#utility.yul\":1229:1232   */\n      dup7\n        /* \"#utility.yul\":1225:1239   */\n      add\n        /* \"#utility.yul\":1219:1266   */\n      mcopy\n        /* \"#utility.yul\":1311:1312   */\n      0x00\n        /* \"#utility.yul\":1304:1308   */\n      0x20\n        /* \"#utility.yul\":1295:1301   */\n      dup3\n        /* \"#utility.yul\":1290:1293   */\n      dup7\n        /* \"#utility.yul\":1286:1302   */\n      add\n        /* \"#utility.yul\":1282:1309   */\n      add\n        /* \"#utility.yul\":1275:1313   */\n      mstore\n        /* \"#utility.yul\":1374:1378   */\n      0x20\n        /* \"#utility.yul\":1367:1369   */\n      0x1f\n        /* \"#utility.yul\":1363:1370   */\n      not\n        /* \"#utility.yul\":1358:1360   */\n      0x1f\n        /* \"#utility.yul\":1350:1356   */\n      dup4\n        /* \"#utility.yul\":1346:1361   */\n      add\n        /* \"#utility.yul\":1342:1371   */\n      and\n        /* \"#utility.yul\":1337:1340   */\n      dup6\n        /* \"#utility.yul\":1333:1372   */\n      add\n        /* \"#utility.yul\":1329:1379   */\n      add\n        /* \"#utility.yul\":1322:1379   */\n      swap2\n      pop\n      pop\n        /* \"#utility.yul\":1096:1385   */\n      swap3\n      swap2\n      pop\n      pop\n      jump\t// out\n        /* \"#utility.yul\":1390:1750   */\n    tag_47:\n        /* \"#utility.yul\":1593:1595   */\n      0x60\n        /* \"#utility.yul\":1582:1591   */\n      dup2\n        /* \"#utility.yul\":1575:1596   */\n      mstore\n        /* \"#utility.yul\":1556:1560   */\n      0x00\n        /* \"#utility.yul\":1613:1658   */\n      tag_676\n        /* \"#utility.yul\":1654:1656   */\n      0x60\n        /* \"#utility.yul\":1643:1652   */\n      dup4\n        /* \"#utility.yul\":1639:1657   */\n      add\n        /* \"#utility.yul\":1631:1637   */\n      dup7\n        /* \"#utility.yul\":1613:1658   */\n      tag_653\n      jump\t// in\n    tag_676:\n        /* \"#utility.yul\":1689:1691   */\n      0x20\n        /* \"#utility.yul\":1674:1692   */\n      dup4\n      add\n        /* \"#utility.yul\":1667:1701   */\n      swap5\n      swap1\n      swap5\n      mstore\n      pop\n        /* \"#utility.yul\":1732:1734   */\n      0x40\n        /* \"#utility.yul\":1717:1735   */\n      add\n        /* \"#utility.yul\":1710:1744   */\n      mstore\n        /* \"#utility.yul\":1605:1658   */\n      swap2\n        /* \"#utility.yul\":1390:1750   */\n      swap1\n      pop\n      jump\t// out\n        /* \"#utility.yul\":1947:2127   */\n    tag_54:\n        /* \"#utility.yul\":2006:2012   */\n      0x00\n        /* \"#utility.yul\":2059:2061   */\n      0x20\n        /* \"#utility.yul\":2047:2056   */\n      dup3\n        /* \"#utility.yul\":2038:2045   */\n      dup5\n        /* \"#utility.yul\":2034:2057   */\n      sub\n        /* \"#utility.yul\":2030:2062   */\n      slt\n        /* \"#utility.yul\":2027:2079   */\n      iszero\n      tag_679\n      jumpi\n        /* \"#utility.yul\":2075:2076   */\n      0x00\n        /* \"#utility.yul\":2072:2073   */\n      0x00\n        /* \"#utility.yul\":2065:2077   */\n      revert\n        /* \"#utility.yul\":2027:2079   */\n    tag_679:\n      pop\n        /* \"#utility.yul\":2098:2121   */\n      calldataload\n      swap2\n        /* \"#utility.yul\":1947:2127   */\n      swap1\n      pop\n      jump\t// out\n        /* \"#utility.yul\":2132:2352   */\n    tag_57:\n        /* \"#utility.yul\":2281:2283   */\n      0x20\n        /* \"#utility.yul\":2270:2279   */\n      dup2\n        /* \"#utility.yul\":2263:2284   */\n      mstore\n        /* \"#utility.yul\":2244:2248   */\n      0x00\n        /* \"#utility.yul\":2301:2346   */\n      tag_681\n        /* \"#utility.yul\":2342:2344   */\n      0x20\n        /* \"#utility.yul\":2331:2340   */\n      dup4\n        /* \"#utility.yul\":2327:2345   */\n      add\n        /* \"#utility.yul\":2319:2325   */\n      dup5\n        /* \"#utility.yul\":2301:2346   */\n      tag_653\n      jump\t// in\n    tag_681:\n        /* \"#utility.yul\":2293:2346   */\n      swap4\n        /* \"#utility.yul\":2132:2352   */\n      swap3\n      pop\n      pop\n      pop\n      jump\t// out\n        /* \"#utility.yul\":2537:2693   */\n    tag_654:\n        /* \"#utility.yul\":2617:2637   */\n      dup1\n      calldataload\n        /* \"#utility.yul\":2666:2668   */\n      0x0d\n        /* \"#utility.yul\":2656:2669   */\n      dup2\n      lt\n        /* \"#utility.yul\":2646:2687   */\n      tag_684\n      jumpi\n        /* \"#utility.yul\":2683:2684   */\n      0x00\n        /* \"#utility.yul\":2680:2681   */\n      0x00\n        /* \"#utility.yul\":2673:2685   */\n      revert\n        /* \"#utility.yul\":2646:2687   */\n    tag_684:\n        /* \"#utility.yul\":2537:2693   */\n      swap2\n      swap1\n      pop\n      jump\t// out\n        /* \"#utility.yul\":2698:3046   */\n    tag_655:\n        /* \"#utility.yul\":2750:2758   */\n      0x00\n        /* \"#utility.yul\":2760:2766   */\n      0x00\n        /* \"#utility.yul\":2814:2817   */\n      dup4\n        /* \"#utility.yul\":2807:2811   */\n      0x1f\n        /* \"#utility.yul\":2799:2805   */\n      dup5\n        /* \"#utility.yul\":2795:2812   */\n      add\n        /* \"#utility.yul\":2791:2818   */\n      slt\n        /* \"#utility.yul\":2781:2836   */\n      tag_686\n      jumpi\n        /* \"#utility.yul\":2832:2833   */\n      0x00\n        /* \"#utility.yul\":2829:2830   */\n      0x00\n        /* \"#utility.yul\":2822:2834   */\n      revert\n        /* \"#utility.yul\":2781:2836   */\n    tag_686:\n      pop\n        /* \"#utility.yul\":2855:2875   */\n      dup2\n      calldataload\n      sub(shl(0x40, 0x01), 0x01)\n        /* \"#utility.yul\":2887:2917   */\n      dup2\n      gt\n        /* \"#utility.yul\":2884:2934   */\n      iszero\n      tag_687\n      jumpi\n        /* \"#utility.yul\":2930:2931   */\n      0x00\n        /* \"#utility.yul\":2927:2928   */\n      0x00\n        /* \"#utility.yul\":2920:2932   */\n      revert\n        /* \"#utility.yul\":2884:2934   */\n    tag_687:\n        /* \"#utility.yul\":2967:2971   */\n      0x20\n        /* \"#utility.yul\":2959:2965   */\n      dup4\n        /* \"#utility.yul\":2955:2972   */\n      add\n        /* \"#utility.yul\":2943:2972   */\n      swap2\n      pop\n        /* \"#utility.yul\":3019:3022   */\n      dup4\n        /* \"#utility.yul\":3012:3016   */\n      0x20\n        /* \"#utility.yul\":3003:3009   */\n      dup3\n        /* \"#utility.yul\":2995:3001   */\n      dup6\n        /* \"#utility.yul\":2991:3010   */\n      add\n        /* \"#utility.yul\":2987:3017   */\n      add\n        /* \"#utility.yul\":2984:3023   */\n      gt\n        /* \"#utility.yul\":2981:3040   */\n      iszero\n      tag_688\n      jumpi\n        /* \"#utility.yul\":3036:3037   */\n      0x00\n        /* \"#utility.yul\":3033:3034   */\n      0x00\n        /* \"#utility.yul\":3026:3038   */\n      revert\n        /* \"#utility.yul\":2981:3040   */\n    tag_688:\n        /* \"#utility.yul\":2698:3046   */\n      swap3\n      pop\n      swap3\n      swap1\n      pop\n      jump\t// out\n        /* \"#utility.yul\":3051:3679   */\n    tag_64:\n        /* \"#utility.yul\":3157:3163   */\n      0x00\n        /* \"#utility.yul\":3165:3171   */\n      0x00\n        /* \"#utility.yul\":3173:3179   */\n      0x00\n        /* \"#utility.yul\":3181:3187   */\n      0x00\n        /* \"#utility.yul\":3234:3236   */\n      0x60\n        /* \"#utility.yul\":3222:3231   */\n      dup6\n        /* \"#utility.yul\":3213:3220   */\n      dup8\n        /* \"#utility.yul\":3209:3232   */\n      sub\n        /* \"#utility.yul\":3205:3237   */\n      slt\n        /* \"#utility.yul\":3202:3254   */\n      iszero\n      tag_690\n      jumpi\n        /* \"#utility.yul\":3250:3251   */\n      0x00\n        /* \"#utility.yul\":3247:3248   */\n      0x00\n        /* \"#utility.yul\":3240:3252   */\n      revert\n        /* \"#utility.yul\":3202:3254   */\n    tag_690:\n        /* \"#utility.yul\":3273:3314   */\n      tag_691\n        /* \"#utility.yul\":3304:3313   */\n      dup6\n        /* \"#utility.yul\":3273:3314   */\n      tag_654\n      jump\t// in\n    tag_691:\n        /* \"#utility.yul\":3263:3314   */\n      swap4\n      pop\n        /* \"#utility.yul\":3383:3385   */\n      0x20\n        /* \"#utility.yul\":3368:3386   */\n      dup6\n      add\n        /* \"#utility.yul\":3355:3387   */\n      calldataload\n      swap3\n      pop\n        /* \"#utility.yul\":3462:3464   */\n      0x40\n        /* \"#utility.yul\":3447:3465   */\n      dup6\n      add\n        /* \"#utility.yul\":3434:3466   */\n      calldataload\n      sub(shl(0x40, 0x01), 0x01)\n        /* \"#utility.yul\":3478:3508   */\n      dup2\n      gt\n        /* \"#utility.yul\":3475:3525   */\n      iszero\n      tag_692\n      jumpi\n        /* \"#utility.yul\":3521:3522   */\n      0x00\n        /* \"#utility.yul\":3518:3519   */\n      0x00\n        /* \"#utility.yul\":3511:3523   */\n      revert\n        /* \"#utility.yul\":3475:3525   */\n    tag_692:\n        /* \"#utility.yul\":3560:3619   */\n      tag_693\n        /* \"#utility.yul\":3611:3618   */\n      dup8\n        /* \"#utility.yul\":3602:3608   */\n      dup3\n        /* \"#utility.yul\":3591:3600   */\n      dup9\n        /* \"#utility.yul\":3587:3609   */\n      add\n        /* \"#utility.yul\":3560:3619   */\n      tag_655\n      jump\t// in\n    tag_693:\n        /* \"#utility.yul\":3051:3679   */\n      swap6\n      swap9\n      swap5\n      swap8\n      pop\n        /* \"#utility.yul\":3638:3646   */\n      swap6\n      pop\n      pop\n      pop\n      pop\n        /* \"#utility.yul\":3051:3679   */\n      jump\t// out\n        /* \"#utility.yul\":3684:4466   */\n    tag_71:\n        /* \"#utility.yul\":3846:3850   */\n      0x00\n        /* \"#utility.yul\":3894:3896   */\n      0x20\n        /* \"#utility.yul\":3883:3892   */\n      dup3\n        /* \"#utility.yul\":3879:3897   */\n      add\n        /* \"#utility.yul\":3924:3926   */\n      0x20\n        /* \"#utility.yul\":3913:3922   */\n      dup4\n        /* \"#utility.yul\":3906:3927   */\n      mstore\n        /* \"#utility.yul\":3947:3953   */\n      dup1\n        /* \"#utility.yul\":3982:3988   */\n      dup5\n        /* \"#utility.yul\":3976:3989   */\n      mload\n        /* \"#utility.yul\":4013:4019   */\n      dup1\n        /* \"#utility.yul\":4005:4011   */\n      dup4\n        /* \"#utility.yul\":3998:4020   */\n      mstore\n        /* \"#utility.yul\":4051:4053   */\n      0x40\n        /* \"#utility.yul\":4040:4049   */\n      dup6\n        /* \"#utility.yul\":4036:4054   */\n      add\n        /* \"#utility.yul\":4029:4054   */\n      swap2\n      pop\n        /* \"#utility.yul\":4113:4115   */\n      0x40\n        /* \"#utility.yul\":4103:4109   */\n      dup2\n        /* \"#utility.yul\":4100:4101   */\n      0x05\n        /* \"#utility.yul\":4096:4110   */\n      shl\n        /* \"#utility.yul\":4085:4094   */\n      dup7\n        /* \"#utility.yul\":4081:4111   */\n      add\n        /* \"#utility.yul\":4077:4116   */\n      add\n        /* \"#utility.yul\":4063:4116   */\n      swap3\n      pop\n        /* \"#utility.yul\":4151:4153   */\n      0x20\n        /* \"#utility.yul\":4143:4149   */\n      dup7\n        /* \"#utility.yul\":4139:4154   */\n      add\n        /* \"#utility.yul\":4172:4173   */\n      0x00\n        /* \"#utility.yul\":4182:4437   */\n    tag_695:\n        /* \"#utility.yul\":4196:4202   */\n      dup3\n        /* \"#utility.yul\":4193:4194   */\n      dup2\n        /* \"#utility.yul\":4190:4203   */\n      lt\n        /* \"#utility.yul\":4182:4437   */\n      iszero\n      tag_697\n      jumpi\n        /* \"#utility.yul\":4289:4291   */\n      0x3f\n        /* \"#utility.yul\":4285:4292   */\n      not\n        /* \"#utility.yul\":4273:4282   */\n      dup8\n        /* \"#utility.yul\":4265:4271   */\n      dup7\n        /* \"#utility.yul\":4261:4283   */\n      sub\n        /* \"#utility.yul\":4257:4293   */\n      add\n        /* \"#utility.yul\":4252:4255   */\n      dup5\n        /* \"#utility.yul\":4245:4294   */\n      mstore\n        /* \"#utility.yul\":4317:4357   */\n      tag_698\n        /* \"#utility.yul\":4350:4356   */\n      dup6\n        /* \"#utility.yul\":4341:4347   */\n      dup4\n        /* \"#utility.yul\":4335:4348   */\n      mload\n        /* \"#utility.yul\":4317:4357   */\n      tag_653\n      jump\t// in\n    tag_698:\n        /* \"#utility.yul\":4307:4357   */\n      swap5\n      pop\n        /* \"#utility.yul\":4392:4394   */\n      0x20\n        /* \"#utility.yul\":4415:4427   */\n      swap4\n      dup5\n      add\n      swap4\n        /* \"#utility.yul\":4380:4395   */\n      swap2\n      swap1\n      swap2\n      add\n      swap1\n        /* \"#utility.yul\":4218:4219   */\n      0x01\n        /* \"#utility.yul\":4211:4220   */\n      add\n        /* \"#utility.yul\":4182:4437   */\n      jump(tag_695)\n    tag_697:\n      pop\n        /* \"#utility.yul\":4454:4460   */\n      swap3\n      swap7\n        /* \"#utility.yul\":3684:4466   */\n      swap6\n      pop\n      pop\n      pop\n      pop\n      pop\n      pop\n      jump\t// out\n        /* \"#utility.yul\":4471:5000   */\n    tag_76:\n        /* \"#utility.yul\":4728:4731   */\n      0xa0\n        /* \"#utility.yul\":4717:4726   */\n      dup2\n        /* \"#utility.yul\":4710:4732   */\n      mstore\n        /* \"#utility.yul\":4691:4695   */\n      0x00\n        /* \"#utility.yul\":4749:4795   */\n      tag_700\n        /* \"#utility.yul\":4790:4793   */\n      0xa0\n        /* \"#utility.yul\":4779:4788   */\n      dup4\n        /* \"#utility.yul\":4775:4794   */\n      add\n        /* \"#utility.yul\":4767:4773   */\n      dup9\n        /* \"#utility.yul\":4749:4795   */\n      tag_653\n      jump\t// in\n    tag_700:\n      sub(shl(0xa0, 0x01), 0x01)\n        /* \"#utility.yul\":4831:4863   */\n      swap7\n      swap1\n      swap7\n      and\n        /* \"#utility.yul\":4826:4828   */\n      0x20\n        /* \"#utility.yul\":4811:4829   */\n      dup4\n      add\n        /* \"#utility.yul\":4804:4864   */\n      mstore\n      pop\n        /* \"#utility.yul\":4895:4897   */\n      0x40\n        /* \"#utility.yul\":4880:4898   */\n      dup2\n      add\n        /* \"#utility.yul\":4873:4907   */\n      swap4\n      swap1\n      swap4\n      mstore\n        /* \"#utility.yul\":4938:4940   */\n      0x60\n        /* \"#utility.yul\":4923:4941   */\n      dup4\n      add\n        /* \"#utility.yul\":4916:4950   */\n      swap2\n      swap1\n      swap2\n      mstore\n        /* \"#utility.yul\":4981:4984   */\n      0x80\n        /* \"#utility.yul\":4966:4985   */\n      swap1\n      swap2\n      add\n        /* \"#utility.yul\":4959:4994   */\n      mstore\n        /* \"#utility.yul\":4741:4795   */\n      swap2\n        /* \"#utility.yul\":4471:5000   */\n      swap1\n      pop\n      jump\t// out\n        /* \"#utility.yul\":5005:5588   */\n    tag_79:\n        /* \"#utility.yul\":5087:5093   */\n      0x00\n        /* \"#utility.yul\":5095:5101   */\n      0x00\n        /* \"#utility.yul\":5103:5109   */\n      0x00\n        /* \"#utility.yul\":5111:5117   */\n      0x00\n        /* \"#utility.yul\":5164:5167   */\n      0x80\n        /* \"#utility.yul\":5152:5161   */\n      dup6\n        /* \"#utility.yul\":5143:5150   */\n      dup8\n        /* \"#utility.yul\":5139:5162   */\n      sub\n        /* \"#utility.yul\":5135:5168   */\n      slt\n        /* \"#utility.yul\":5132:5185   */\n      iszero\n      tag_702\n      jumpi\n        /* \"#utility.yul\":5181:5182   */\n      0x00\n        /* \"#utility.yul\":5178:5179   */\n      0x00\n        /* \"#utility.yul\":5171:5183   */\n      revert\n        /* \"#utility.yul\":5132:5185   */\n    tag_702:\n      pop\n      pop\n        /* \"#utility.yul\":5226:5249   */\n      dup3\n      calldataload\n      swap5\n        /* \"#utility.yul\":5346:5348   */\n      0x20\n        /* \"#utility.yul\":5331:5349   */\n      dup5\n      add\n        /* \"#utility.yul\":5318:5350   */\n      calldataload\n      swap5\n      pop\n        /* \"#utility.yul\":5449:5451   */\n      0x40\n        /* \"#utility.yul\":5434:5452   */\n      dup5\n      add\n        /* \"#utility.yul\":5421:5453   */\n      calldataload\n      swap4\n        /* \"#utility.yul\":5552:5554   */\n      0x60\n        /* \"#utility.yul\":5537:5555   */\n      add\n        /* \"#utility.yul\":5524:5556   */\n      calldataload\n      swap3\n      pop\n        /* \"#utility.yul\":5005:5588   */\n      swap1\n      pop\n      jump\t// out\n        /* \"#utility.yul\":5593:6117   */\n    tag_83:\n        /* \"#utility.yul\":5672:5678   */\n      0x00\n        /* \"#utility.yul\":5680:5686   */\n      0x00\n        /* \"#utility.yul\":5688:5694   */\n      0x00\n        /* \"#utility.yul\":5741:5743   */\n      0x40\n        /* \"#utility.yul\":5729:5738   */\n      dup5\n        /* \"#utility.yul\":5720:5727   */\n      dup7\n        /* \"#utility.yul\":5716:5739   */\n      sub\n        /* \"#utility.yul\":5712:5744   */\n      slt\n        /* \"#utility.yul\":5709:5761   */\n      iszero\n      tag_704\n      jumpi\n        /* \"#utility.yul\":5757:5758   */\n      0x00\n        /* \"#utility.yul\":5754:5755   */\n      0x00\n        /* \"#utility.yul\":5747:5759   */\n      revert\n        /* \"#utility.yul\":5709:5761   */\n    tag_704:\n        /* \"#utility.yul\":5797:5806   */\n      dup4\n        /* \"#utility.yul\":5784:5807   */\n      calldataload\n      sub(shl(0x40, 0x01), 0x01)\n        /* \"#utility.yul\":5822:5828   */\n      dup2\n        /* \"#utility.yul\":5819:5849   */\n      gt\n        /* \"#utility.yul\":5816:5866   */\n      iszero\n      tag_705\n      jumpi\n        /* \"#utility.yul\":5862:5863   */\n      0x00\n        /* \"#utility.yul\":5859:5860   */\n      0x00\n        /* \"#utility.yul\":5852:5864   */\n      revert\n        /* \"#utility.yul\":5816:5866   */\n    tag_705:\n        /* \"#utility.yul\":5901:5960   */\n      tag_706\n        /* \"#utility.yul\":5952:5959   */\n      dup7\n        /* \"#utility.yul\":5943:5949   */\n      dup3\n        /* \"#utility.yul\":5932:5941   */\n      dup8\n        /* \"#utility.yul\":5928:5950   */\n      add\n        /* \"#utility.yul\":5901:5960   */\n      tag_655\n      jump\t// in\n    tag_706:\n        /* \"#utility.yul\":5979:5987   */\n      swap1\n      swap8\n        /* \"#utility.yul\":5875:5960   */\n      swap1\n      swap7\n      pop\n        /* \"#utility.yul\":6083:6085   */\n      0x20\n        /* \"#utility.yul\":6068:6086   */\n      swap6\n      swap1\n      swap6\n      add\n        /* \"#utility.yul\":6055:6087   */\n      calldataload\n      swap5\n        /* \"#utility.yul\":5593:6117   */\n      swap4\n      pop\n      pop\n      pop\n      pop\n      jump\t// out\n        /* \"#utility.yul\":6122:6647   */\n    tag_93:\n        /* \"#utility.yul\":6373:6376   */\n      0x80\n        /* \"#utility.yul\":6362:6371   */\n      dup2\n        /* \"#utility.yul\":6355:6377   */\n      mstore\n        /* \"#utility.yul\":6336:6340   */\n      0x00\n        /* \"#utility.yul\":6400:6446   */\n      tag_708\n        /* \"#utility.yul\":6441:6444   */\n      0x80\n        /* \"#utility.yul\":6430:6439   */\n      dup4\n        /* \"#utility.yul\":6426:6445   */\n      add\n        /* \"#utility.yul\":6418:6424   */\n      dup8\n        /* \"#utility.yul\":6400:6446   */\n      tag_653\n      jump\t// in\n    tag_708:\n        /* \"#utility.yul\":6494:6503   */\n      dup3\n        /* \"#utility.yul\":6486:6492   */\n      dup2\n        /* \"#utility.yul\":6482:6504   */\n      sub\n        /* \"#utility.yul\":6477:6479   */\n      0x20\n        /* \"#utility.yul\":6466:6475   */\n      dup5\n        /* \"#utility.yul\":6462:6480   */\n      add\n        /* \"#utility.yul\":6455:6505   */\n      mstore\n        /* \"#utility.yul\":6522:6555   */\n      tag_709\n        /* \"#utility.yul\":6548:6554   */\n      dup2\n        /* \"#utility.yul\":6540:6546   */\n      dup8\n        /* \"#utility.yul\":6522:6555   */\n      tag_653\n      jump\t// in\n    tag_709:\n        /* \"#utility.yul\":6586:6588   */\n      0x40\n        /* \"#utility.yul\":6571:6589   */\n      dup5\n      add\n        /* \"#utility.yul\":6564:6598   */\n      swap6\n      swap1\n      swap6\n      mstore\n      pop\n      pop\n        /* \"#utility.yul\":6629:6631   */\n      0x60\n        /* \"#utility.yul\":6614:6632   */\n      add\n        /* \"#utility.yul\":6607:6641   */\n      mstore\n        /* \"#utility.yul\":6514:6555   */\n      swap3\n        /* \"#utility.yul\":6122:6647   */\n      swap2\n      pop\n      pop\n      jump\t// out\n        /* \"#utility.yul\":6652:7902   */\n    tag_97:\n        /* \"#utility.yul\":6870:6874   */\n      0x00\n        /* \"#utility.yul\":6918:6920   */\n      0x20\n        /* \"#utility.yul\":6907:6916   */\n      dup3\n        /* \"#utility.yul\":6903:6921   */\n      add\n        /* \"#utility.yul\":6948:6950   */\n      0x20\n        /* \"#utility.yul\":6937:6946   */\n      dup4\n        /* \"#utility.yul\":6930:6951   */\n      mstore\n        /* \"#utility.yul\":6971:6977   */\n      dup1\n        /* \"#utility.yul\":7006:7012   */\n      dup5\n        /* \"#utility.yul\":7000:7013   */\n      mload\n        /* \"#utility.yul\":7037:7043   */\n      dup1\n        /* \"#utility.yul\":7029:7035   */\n      dup4\n        /* \"#utility.yul\":7022:7044   */\n      mstore\n        /* \"#utility.yul\":7075:7077   */\n      0x40\n        /* \"#utility.yul\":7064:7073   */\n      dup6\n        /* \"#utility.yul\":7060:7078   */\n      add\n        /* \"#utility.yul\":7053:7078   */\n      swap2\n      pop\n        /* \"#utility.yul\":7137:7139   */\n      0x40\n        /* \"#utility.yul\":7127:7133   */\n      dup2\n        /* \"#utility.yul\":7124:7125   */\n      0x05\n        /* \"#utility.yul\":7120:7134   */\n      shl\n        /* \"#utility.yul\":7109:7118   */\n      dup7\n        /* \"#utility.yul\":7105:7135   */\n      add\n        /* \"#utility.yul\":7101:7140   */\n      add\n        /* \"#utility.yul\":7087:7140   */\n      swap3\n      pop\n        /* \"#utility.yul\":7175:7177   */\n      0x20\n        /* \"#utility.yul\":7167:7173   */\n      dup7\n        /* \"#utility.yul\":7163:7178   */\n      add\n        /* \"#utility.yul\":7196:7197   */\n      0x00\n        /* \"#utility.yul\":7206:7873   */\n    tag_711:\n        /* \"#utility.yul\":7220:7226   */\n      dup3\n        /* \"#utility.yul\":7217:7218   */\n      dup2\n        /* \"#utility.yul\":7214:7227   */\n      lt\n        /* \"#utility.yul\":7206:7873   */\n      iszero\n      tag_697\n      jumpi\n        /* \"#utility.yul\":7313:7315   */\n      0x3f\n        /* \"#utility.yul\":7309:7316   */\n      not\n        /* \"#utility.yul\":7297:7306   */\n      dup8\n        /* \"#utility.yul\":7289:7295   */\n      dup7\n        /* \"#utility.yul\":7285:7307   */\n      sub\n        /* \"#utility.yul\":7281:7317   */\n      add\n        /* \"#utility.yul\":7276:7279   */\n      dup5\n        /* \"#utility.yul\":7269:7318   */\n      mstore\n        /* \"#utility.yul\":7347:7353   */\n      dup2\n        /* \"#utility.yul\":7341:7354   */\n      mload\n        /* \"#utility.yul\":7393:7395   */\n      dup1\n        /* \"#utility.yul\":7387:7396   */\n      mload\n        /* \"#utility.yul\":7424:7428   */\n      0xa0\n        /* \"#utility.yul\":7416:7422   */\n      dup8\n        /* \"#utility.yul\":7409:7429   */\n      mstore\n        /* \"#utility.yul\":7456:7506   */\n      tag_714\n        /* \"#utility.yul\":7500:7504   */\n      0xa0\n        /* \"#utility.yul\":7492:7498   */\n      dup9\n        /* \"#utility.yul\":7488:7505   */\n      add\n        /* \"#utility.yul\":7474:7486   */\n      dup3\n        /* \"#utility.yul\":7456:7506   */\n      tag_653\n      jump\t// in\n    tag_714:\n        /* \"#utility.yul\":7561:7563   */\n      0x20\n        /* \"#utility.yul\":7553:7564   */\n      dup4\n      dup2\n      add\n        /* \"#utility.yul\":7547:7565   */\n      mload\n      sub(shl(0xa0, 0x01), 0x01)\n        /* \"#utility.yul\":7543:7587   */\n      and\n        /* \"#utility.yul\":7526:7541   */\n      dup10\n      dup3\n      add\n        /* \"#utility.yul\":7519:7588   */\n      mstore\n        /* \"#utility.yul\":7639:7641   */\n      0x40\n        /* \"#utility.yul\":7631:7642   */\n      dup1\n      dup6\n      add\n        /* \"#utility.yul\":7625:7643   */\n      mload\n        /* \"#utility.yul\":7608:7623   */\n      swap1\n      dup11\n      add\n        /* \"#utility.yul\":7601:7644   */\n      mstore\n        /* \"#utility.yul\":7697:7701   */\n      0x60\n        /* \"#utility.yul\":7689:7702   */\n      dup1\n      dup6\n      add\n        /* \"#utility.yul\":7683:7703   */\n      mload\n        /* \"#utility.yul\":7664:7681   */\n      swap1\n      dup11\n      add\n        /* \"#utility.yul\":7657:7704   */\n      mstore\n        /* \"#utility.yul\":7757:7761   */\n      0x80\n        /* \"#utility.yul\":7749:7762   */\n      swap4\n      dup5\n      add\n        /* \"#utility.yul\":7743:7763   */\n      mload\n        /* \"#utility.yul\":7724:7741   */\n      swap4\n      swap1\n      swap9\n      add\n        /* \"#utility.yul\":7717:7764   */\n      swap3\n      swap1\n      swap3\n      mstore\n      pop\n        /* \"#utility.yul\":7442:7506   */\n      swap5\n        /* \"#utility.yul\":7851:7863   */\n      swap4\n      dup5\n      add\n      swap4\n        /* \"#utility.yul\":7816:7831   */\n      swap2\n      swap1\n      swap2\n      add\n      swap1\n        /* \"#utility.yul\":7584:7585   */\n      0x01\n        /* \"#utility.yul\":7235:7244   */\n      add\n        /* \"#utility.yul\":7206:7873   */\n      jump(tag_711)\n        /* \"#utility.yul\":7907:8318   */\n    tag_100:\n        /* \"#utility.yul\":7978:7984   */\n      0x00\n        /* \"#utility.yul\":7986:7992   */\n      0x00\n        /* \"#utility.yul\":8039:8041   */\n      0x20\n        /* \"#utility.yul\":8027:8036   */\n      dup4\n        /* \"#utility.yul\":8018:8025   */\n      dup6\n        /* \"#utility.yul\":8014:8037   */\n      sub\n        /* \"#utility.yul\":8010:8042   */\n      slt\n        /* \"#utility.yul\":8007:8059   */\n      iszero\n      tag_716\n      jumpi\n        /* \"#utility.yul\":8055:8056   */\n      0x00\n        /* \"#utility.yul\":8052:8053   */\n      0x00\n        /* \"#utility.yul\":8045:8057   */\n      revert\n        /* \"#utility.yul\":8007:8059   */\n    tag_716:\n        /* \"#utility.yul\":8095:8104   */\n      dup3\n        /* \"#utility.yul\":8082:8105   */\n      calldataload\n      sub(shl(0x40, 0x01), 0x01)\n        /* \"#utility.yul\":8120:8126   */\n      dup2\n        /* \"#utility.yul\":8117:8147   */\n      gt\n        /* \"#utility.yul\":8114:8164   */\n      iszero\n      tag_717\n      jumpi\n        /* \"#utility.yul\":8160:8161   */\n      0x00\n        /* \"#utility.yul\":8157:8158   */\n      0x00\n        /* \"#utility.yul\":8150:8162   */\n      revert\n        /* \"#utility.yul\":8114:8164   */\n    tag_717:\n        /* \"#utility.yul\":8199:8258   */\n      tag_718\n        /* \"#utility.yul\":8250:8257   */\n      dup6\n        /* \"#utility.yul\":8241:8247   */\n      dup3\n        /* \"#utility.yul\":8230:8239   */\n      dup7\n        /* \"#utility.yul\":8226:8248   */\n      add\n        /* \"#utility.yul\":8199:8258   */\n      tag_655\n      jump\t// in\n    tag_718:\n        /* \"#utility.yul\":8277:8285   */\n      swap1\n      swap7\n        /* \"#utility.yul\":8173:8258   */\n      swap1\n      swap6\n      pop\n        /* \"#utility.yul\":7907:8318   */\n      swap4\n      pop\n      pop\n      pop\n      pop\n      jump\t// out\n        /* \"#utility.yul\":8323:9030   */\n    tag_103:\n        /* \"#utility.yul\":8530:8532   */\n      0x20\n        /* \"#utility.yul\":8519:8528   */\n      dup2\n        /* \"#utility.yul\":8512:8533   */\n      mstore\n        /* \"#utility.yul\":8493:8497   */\n      0x00\n        /* \"#utility.yul\":8568:8574   */\n      dup3\n        /* \"#utility.yul\":8562:8575   */\n      mload\n        /* \"#utility.yul\":8611:8615   */\n      0x80\n        /* \"#utility.yul\":8606:8608   */\n      0x20\n        /* \"#utility.yul\":8595:8604   */\n      dup5\n        /* \"#utility.yul\":8591:8609   */\n      add\n        /* \"#utility.yul\":8584:8616   */\n      mstore\n        /* \"#utility.yul\":8639:8691   */\n      tag_720\n        /* \"#utility.yul\":8686:8689   */\n      0xa0\n        /* \"#utility.yul\":8675:8684   */\n      dup5\n        /* \"#utility.yul\":8671:8690   */\n      add\n        /* \"#utility.yul\":8657:8669   */\n      dup3\n        /* \"#utility.yul\":8639:8691   */\n      tag_653\n      jump\t// in\n    tag_720:\n        /* \"#utility.yul\":8625:8691   */\n      swap1\n      pop\n        /* \"#utility.yul\":8740:8742   */\n      0x20\n        /* \"#utility.yul\":8732:8738   */\n      dup5\n        /* \"#utility.yul\":8728:8743   */\n      add\n        /* \"#utility.yul\":8722:8744   */\n      mload\n        /* \"#utility.yul\":8812:8814   */\n      0x1f\n        /* \"#utility.yul\":8808:8815   */\n      not\n        /* \"#utility.yul\":8796:8805   */\n      dup5\n        /* \"#utility.yul\":8788:8794   */\n      dup4\n        /* \"#utility.yul\":8784:8806   */\n      sub\n        /* \"#utility.yul\":8780:8816   */\n      add\n        /* \"#utility.yul\":8775:8777   */\n      0x40\n        /* \"#utility.yul\":8764:8773   */\n      dup6\n        /* \"#utility.yul\":8760:8778   */\n      add\n        /* \"#utility.yul\":8753:8817   */\n      mstore\n        /* \"#utility.yul\":8840:8881   */\n      tag_721\n        /* \"#utility.yul\":8874:8880   */\n      dup3\n        /* \"#utility.yul\":8858:8872   */\n      dup3\n        /* \"#utility.yul\":8840:8881   */\n      tag_653\n      jump\t// in\n    tag_721:\n        /* \"#utility.yul\":8826:8881   */\n      swap2\n      pop\n      pop\n        /* \"#utility.yul\":8935:8937   */\n      0x40\n        /* \"#utility.yul\":8927:8933   */\n      dup5\n        /* \"#utility.yul\":8923:8938   */\n      add\n        /* \"#utility.yul\":8917:8939   */\n      mload\n        /* \"#utility.yul\":8912:8914   */\n      0x60\n        /* \"#utility.yul\":8901:8910   */\n      dup5\n        /* \"#utility.yul\":8897:8915   */\n      add\n        /* \"#utility.yul\":8890:8940   */\n      mstore\n        /* \"#utility.yul\":8996:8998   */\n      0x60\n        /* \"#utility.yul\":8988:8994   */\n      dup5\n        /* \"#utility.yul\":8984:8999   */\n      add\n        /* \"#utility.yul\":8978:9000   */\n      mload\n        /* \"#utility.yul\":8971:8975   */\n      0x80\n        /* \"#utility.yul\":8960:8969   */\n      dup5\n        /* \"#utility.yul\":8956:8976   */\n      add\n        /* \"#utility.yul\":8949:9001   */\n      mstore\n        /* \"#utility.yul\":9018:9024   */\n      dup1\n        /* \"#utility.yul\":9010:9024   */\n      swap2\n      pop\n      pop\n        /* \"#utility.yul\":8323:9030   */\n      swap3\n      swap2\n      pop\n      pop\n      jump\t// out\n        /* \"#utility.yul\":9885:10281   */\n    tag_656:\n        /* \"#utility.yul\":9977:9985   */\n      0x00\n        /* \"#utility.yul\":9987:9993   */\n      0x00\n        /* \"#utility.yul\":10041:10044   */\n      dup4\n        /* \"#utility.yul\":10034:10038   */\n      0x1f\n        /* \"#utility.yul\":10026:10032   */\n      dup5\n        /* \"#utility.yul\":10022:10039   */\n      add\n        /* \"#utility.yul\":10018:10045   */\n      slt\n        /* \"#utility.yul\":10008:10063   */\n      tag_726\n      jumpi\n        /* \"#utility.yul\":10059:10060   */\n      0x00\n        /* \"#utility.yul\":10056:10057   */\n      0x00\n        /* \"#utility.yul\":10049:10061   */\n      revert\n        /* \"#utility.yul\":10008:10063   */\n    tag_726:\n      pop\n        /* \"#utility.yul\":10082:10102   */\n      dup2\n      calldataload\n      sub(shl(0x40, 0x01), 0x01)\n        /* \"#utility.yul\":10114:10144   */\n      dup2\n      gt\n        /* \"#utility.yul\":10111:10161   */\n      iszero\n      tag_727\n      jumpi\n        /* \"#utility.yul\":10157:10158   */\n      0x00\n        /* \"#utility.yul\":10154:10155   */\n      0x00\n        /* \"#utility.yul\":10147:10159   */\n      revert\n        /* \"#utility.yul\":10111:10161   */\n    tag_727:\n        /* \"#utility.yul\":10194:10198   */\n      0x20\n        /* \"#utility.yul\":10186:10192   */\n      dup4\n        /* \"#utility.yul\":10182:10199   */\n      add\n        /* \"#utility.yul\":10170:10199   */\n      swap2\n      pop\n        /* \"#utility.yul\":10254:10257   */\n      dup4\n        /* \"#utility.yul\":10247:10251   */\n      0x20\n        /* \"#utility.yul\":10237:10243   */\n      dup3\n        /* \"#utility.yul\":10234:10235   */\n      0x05\n        /* \"#utility.yul\":10230:10244   */\n      shl\n        /* \"#utility.yul\":10222:10228   */\n      dup6\n        /* \"#utility.yul\":10218:10245   */\n      add\n        /* \"#utility.yul\":10214:10252   */\n      add\n        /* \"#utility.yul\":10211:10258   */\n      gt\n        /* \"#utility.yul\":10208:10275   */\n      iszero\n      tag_688\n      jumpi\n        /* \"#utility.yul\":10271:10272   */\n      0x00\n        /* \"#utility.yul\":10268:10269   */\n      0x00\n        /* \"#utility.yul\":10261:10273   */\n      revert\n        /* \"#utility.yul\":10286:11305   */\n    tag_123:\n        /* \"#utility.yul\":10496:10502   */\n      0x00\n        /* \"#utility.yul\":10504:10510   */\n      0x00\n        /* \"#utility.yul\":10512:10518   */\n      0x00\n        /* \"#utility.yul\":10520:10526   */\n      0x00\n        /* \"#utility.yul\":10528:10534   */\n      0x00\n        /* \"#utility.yul\":10581:10583   */\n      0x60\n        /* \"#utility.yul\":10569:10578   */\n      dup7\n        /* \"#utility.yul\":10560:10567   */\n      dup9\n        /* \"#utility.yul\":10556:10579   */\n      sub\n        /* \"#utility.yul\":10552:10584   */\n      slt\n        /* \"#utility.yul\":10549:10601   */\n      iszero\n      tag_730\n      jumpi\n        /* \"#utility.yul\":10597:10598   */\n      0x00\n        /* \"#utility.yul\":10594:10595   */\n      0x00\n        /* \"#utility.yul\":10587:10599   */\n      revert\n        /* \"#utility.yul\":10549:10601   */\n    tag_730:\n        /* \"#utility.yul\":10637:10646   */\n      dup6\n        /* \"#utility.yul\":10624:10647   */\n      calldataload\n      sub(shl(0x40, 0x01), 0x01)\n        /* \"#utility.yul\":10662:10668   */\n      dup2\n        /* \"#utility.yul\":10659:10689   */\n      gt\n        /* \"#utility.yul\":10656:10706   */\n      iszero\n      tag_731\n      jumpi\n        /* \"#utility.yul\":10702:10703   */\n      0x00\n        /* \"#utility.yul\":10699:10700   */\n      0x00\n        /* \"#utility.yul\":10692:10704   */\n      revert\n        /* \"#utility.yul\":10656:10706   */\n    tag_731:\n        /* \"#utility.yul\":10741:10840   */\n      tag_732\n        /* \"#utility.yul\":10832:10839   */\n      dup9\n        /* \"#utility.yul\":10823:10829   */\n      dup3\n        /* \"#utility.yul\":10812:10821   */\n      dup10\n        /* \"#utility.yul\":10808:10830   */\n      add\n        /* \"#utility.yul\":10741:10840   */\n      tag_656\n      jump\t// in\n    tag_732:\n        /* \"#utility.yul\":10859:10867   */\n      swap1\n      swap7\n      pop\n        /* \"#utility.yul\":10715:10840   */\n      swap5\n      pop\n      pop\n        /* \"#utility.yul\":10947:10949   */\n      0x20\n        /* \"#utility.yul\":10932:10950   */\n      dup7\n      add\n        /* \"#utility.yul\":10919:10951   */\n      calldataload\n      sub(shl(0x40, 0x01), 0x01)\n        /* \"#utility.yul\":10963:10995   */\n      dup2\n      gt\n        /* \"#utility.yul\":10960:11012   */\n      iszero\n      tag_733\n      jumpi\n        /* \"#utility.yul\":11008:11009   */\n      0x00\n        /* \"#utility.yul\":11005:11006   */\n      0x00\n        /* \"#utility.yul\":10998:11010   */\n      revert\n        /* \"#utility.yul\":10960:11012   */\n    tag_733:\n        /* \"#utility.yul\":11047:11148   */\n      tag_734\n        /* \"#utility.yul\":11140:11147   */\n      dup9\n        /* \"#utility.yul\":11129:11137   */\n      dup3\n        /* \"#utility.yul\":11118:11127   */\n      dup10\n        /* \"#utility.yul\":11114:11138   */\n      add\n        /* \"#utility.yul\":11047:11148   */\n      tag_656\n      jump\t// in\n    tag_734:\n        /* \"#utility.yul\":10286:11305   */\n      swap7\n      swap10\n      swap6\n      swap9\n      pop\n        /* \"#utility.yul\":11167:11175   */\n      swap7\n        /* \"#utility.yul\":11271:11273   */\n      0x40\n        /* \"#utility.yul\":11256:11274   */\n      add\n        /* \"#utility.yul\":11243:11275   */\n      calldataload\n      swap5\n        /* \"#utility.yul\":10286:11305   */\n      swap4\n      pop\n      pop\n      pop\n      pop\n      jump\t// out\n        /* \"#utility.yul\":11540:12050   */\n    tag_134:\n        /* \"#utility.yul\":11670:11676   */\n      0x00\n        /* \"#utility.yul\":11678:11684   */\n      0x00\n        /* \"#utility.yul\":11731:11733   */\n      0x20\n        /* \"#utility.yul\":11719:11728   */\n      dup4\n        /* \"#utility.yul\":11710:11717   */\n      dup6\n        /* \"#utility.yul\":11706:11729   */\n      sub\n        /* \"#utility.yul\":11702:11734   */\n      slt\n        /* \"#utility.yul\":11699:11751   */\n      iszero\n      tag_738\n      jumpi\n        /* \"#utility.yul\":11747:11748   */\n      0x00\n        /* \"#utility.yul\":11744:11745   */\n      0x00\n        /* \"#utility.yul\":11737:11749   */\n      revert\n        /* \"#utility.yul\":11699:11751   */\n    tag_738:\n        /* \"#utility.yul\":11787:11796   */\n      dup3\n        /* \"#utility.yul\":11774:11797   */\n      calldataload\n      sub(shl(0x40, 0x01), 0x01)\n        /* \"#utility.yul\":11812:11818   */\n      dup2\n        /* \"#utility.yul\":11809:11839   */\n      gt\n        /* \"#utility.yul\":11806:11856   */\n      iszero\n      tag_739\n      jumpi\n        /* \"#utility.yul\":11852:11853   */\n      0x00\n        /* \"#utility.yul\":11849:11850   */\n      0x00\n        /* \"#utility.yul\":11842:11854   */\n      revert\n        /* \"#utility.yul\":11806:11856   */\n    tag_739:\n        /* \"#utility.yul\":11891:11990   */\n      tag_718\n        /* \"#utility.yul\":11982:11989   */\n      dup6\n        /* \"#utility.yul\":11973:11979   */\n      dup3\n        /* \"#utility.yul\":11962:11971   */\n      dup7\n        /* \"#utility.yul\":11958:11980   */\n      add\n        /* \"#utility.yul\":11891:11990   */\n      tag_656\n      jump\t// in\n        /* \"#utility.yul\":12055:12182   */\n    tag_187:\n        /* \"#utility.yul\":12116:12126   */\n      0x4e487b71\n        /* \"#utility.yul\":12111:12114   */\n      0xe0\n        /* \"#utility.yul\":12107:12127   */\n      shl\n        /* \"#utility.yul\":12104:12105   */\n      0x00\n        /* \"#utility.yul\":12097:12128   */\n      mstore\n        /* \"#utility.yul\":12147:12151   */\n      0x21\n        /* \"#utility.yul\":12144:12145   */\n      0x04\n        /* \"#utility.yul\":12137:12152   */\n      mstore\n        /* \"#utility.yul\":12171:12175   */\n      0x24\n        /* \"#utility.yul\":12168:12169   */\n      0x00\n        /* \"#utility.yul\":12161:12176   */\n      revert\n        /* \"#utility.yul\":12187:12430   */\n    tag_657:\n        /* \"#utility.yul\":12273:12275   */\n      0x0d\n        /* \"#utility.yul\":12266:12271   */\n      dup2\n        /* \"#utility.yul\":12263:12276   */\n      lt\n        /* \"#utility.yul\":12253:12397   */\n      tag_743\n      jumpi\n        /* \"#utility.yul\":12319:12329   */\n      0x4e487b71\n        /* \"#utility.yul\":12314:12317   */\n      0xe0\n        /* \"#utility.yul\":12310:12330   */\n      shl\n        /* \"#utility.yul\":12307:12308   */\n      0x00\n        /* \"#utility.yul\":12300:12331   */\n      mstore\n        /* \"#utility.yul\":12354:12358   */\n      0x21\n        /* \"#utility.yul\":12351:12352   */\n      0x04\n        /* \"#utility.yul\":12344:12359   */\n      mstore\n        /* \"#utility.yul\":12382:12386   */\n      0x24\n        /* \"#utility.yul\":12379:12380   */\n      0x00\n        /* \"#utility.yul\":12372:12387   */\n      revert\n        /* \"#utility.yul\":12253:12397   */\n    tag_743:\n        /* \"#utility.yul\":12406:12424   */\n      swap1\n      mstore\n        /* \"#utility.yul\":12187:12430   */\n      jump\t// out\n        /* \"#utility.yul\":12435:13312   */\n    tag_139:\n        /* \"#utility.yul\":12790:12815   */\n      dup10\n      dup2\n      mstore\n      sub(shl(0xa0, 0x01), 0x01)\n        /* \"#utility.yul\":12851:12883   */\n      dup10\n      and\n        /* \"#utility.yul\":12846:12848   */\n      0x20\n        /* \"#utility.yul\":12831:12849   */\n      dup3\n      add\n        /* \"#utility.yul\":12824:12884   */\n      mstore\n        /* \"#utility.yul\":12893:12951   */\n      tag_745\n        /* \"#utility.yul\":12947:12949   */\n      0x40\n        /* \"#utility.yul\":12932:12950   */\n      dup3\n      add\n        /* \"#utility.yul\":12924:12930   */\n      dup10\n        /* \"#utility.yul\":12893:12951   */\n      tag_657\n      jump\t// in\n    tag_745:\n        /* \"#utility.yul\":12987:12993   */\n      dup7\n        /* \"#utility.yul\":12982:12984   */\n      0x60\n        /* \"#utility.yul\":12971:12980   */\n      dup3\n        /* \"#utility.yul\":12967:12985   */\n      add\n        /* \"#utility.yul\":12960:12994   */\n      mstore\n        /* \"#utility.yul\":13031:13037   */\n      dup6\n        /* \"#utility.yul\":13025:13028   */\n      0x80\n        /* \"#utility.yul\":13014:13023   */\n      dup3\n        /* \"#utility.yul\":13010:13029   */\n      add\n        /* \"#utility.yul\":13003:13038   */\n      mstore\n        /* \"#utility.yul\":13089:13095   */\n      dup5\n        /* \"#utility.yul\":13082:13096   */\n      iszero\n        /* \"#utility.yul\":13075:13097   */\n      iszero\n        /* \"#utility.yul\":13069:13072   */\n      0xa0\n        /* \"#utility.yul\":13058:13067   */\n      dup3\n        /* \"#utility.yul\":13054:13073   */\n      add\n        /* \"#utility.yul\":13047:13098   */\n      mstore\n        /* \"#utility.yul\":13149:13155   */\n      dup4\n        /* \"#utility.yul\":13142:13156   */\n      iszero\n        /* \"#utility.yul\":13135:13157   */\n      iszero\n        /* \"#utility.yul\":13129:13132   */\n      0xc0\n        /* \"#utility.yul\":13118:13127   */\n      dup3\n        /* \"#utility.yul\":13114:13133   */\n      add\n        /* \"#utility.yul\":13107:13158   */\n      mstore\n        /* \"#utility.yul\":13195:13201   */\n      dup3\n        /* \"#utility.yul\":13189:13192   */\n      0xe0\n        /* \"#utility.yul\":13178:13187   */\n      dup3\n        /* \"#utility.yul\":13174:13193   */\n      add\n        /* \"#utility.yul\":13167:13202   */\n      mstore\n        /* \"#utility.yul\":13239:13242   */\n      0x0120\n        /* \"#utility.yul\":13233:13236   */\n      0x0100\n        /* \"#utility.yul\":13222:13231   */\n      dup3\n        /* \"#utility.yul\":13218:13237   */\n      add\n        /* \"#utility.yul\":13211:13243   */\n      mstore\n        /* \"#utility.yul\":12771:12775   */\n      0x00\n        /* \"#utility.yul\":13260:13306   */\n      tag_746\n        /* \"#utility.yul\":13301:13304   */\n      0x0120\n        /* \"#utility.yul\":13290:13299   */\n      dup4\n        /* \"#utility.yul\":13286:13305   */\n      add\n        /* \"#utility.yul\":13278:13284   */\n      dup5\n        /* \"#utility.yul\":13260:13306   */\n      tag_653\n      jump\t// in\n    tag_746:\n        /* \"#utility.yul\":13252:13306   */\n      swap12\n        /* \"#utility.yul\":12435:13312   */\n      swap11\n      pop\n      pop\n      pop\n      pop\n      pop\n      pop\n      pop\n      pop\n      pop\n      pop\n      pop\n      jump\t// out\n        /* \"#utility.yul\":13317:14146   */\n    tag_142:\n        /* \"#utility.yul\":13417:13423   */\n      0x00\n        /* \"#utility.yul\":13425:13431   */\n      0x00\n        /* \"#utility.yul\":13433:13439   */\n      0x00\n        /* \"#utility.yul\":13441:13447   */\n      0x00\n        /* \"#utility.yul\":13449:13455   */\n      0x00\n        /* \"#utility.yul\":13502:13504   */\n      0x60\n        /* \"#utility.yul\":13490:13499   */\n      dup7\n        /* \"#utility.yul\":13481:13488   */\n      dup9\n        /* \"#utility.yul\":13477:13500   */\n      sub\n        /* \"#utility.yul\":13473:13505   */\n      slt\n        /* \"#utility.yul\":13470:13522   */\n      iszero\n      tag_748\n      jumpi\n        /* \"#utility.yul\":13518:13519   */\n      0x00\n        /* \"#utility.yul\":13515:13516   */\n      0x00\n        /* \"#utility.yul\":13508:13520   */\n      revert\n        /* \"#utility.yul\":13470:13522   */\n    tag_748:\n        /* \"#utility.yul\":13558:13567   */\n      dup6\n        /* \"#utility.yul\":13545:13568   */\n      calldataload\n      sub(shl(0x40, 0x01), 0x01)\n        /* \"#utility.yul\":13583:13589   */\n      dup2\n        /* \"#utility.yul\":13580:13610   */\n      gt\n        /* \"#utility.yul\":13577:13627   */\n      iszero\n      tag_749\n      jumpi\n        /* \"#utility.yul\":13623:13624   */\n      0x00\n        /* \"#utility.yul\":13620:13621   */\n      0x00\n        /* \"#utility.yul\":13613:13625   */\n      revert\n        /* \"#utility.yul\":13577:13627   */\n    tag_749:\n        /* \"#utility.yul\":13662:13721   */\n      tag_750\n        /* \"#utility.yul\":13713:13720   */\n      dup9\n        /* \"#utility.yul\":13704:13710   */\n      dup3\n        /* \"#utility.yul\":13693:13702   */\n      dup10\n        /* \"#utility.yul\":13689:13711   */\n      add\n        /* \"#utility.yul\":13662:13721   */\n      tag_655\n      jump\t// in\n    tag_750:\n        /* \"#utility.yul\":13740:13748   */\n      swap1\n      swap7\n      pop\n        /* \"#utility.yul\":13636:13721   */\n      swap5\n      pop\n      pop\n        /* \"#utility.yul\":13828:13830   */\n      0x20\n        /* \"#utility.yul\":13813:13831   */\n      dup7\n      add\n        /* \"#utility.yul\":13800:13832   */\n      calldataload\n      sub(shl(0x40, 0x01), 0x01)\n        /* \"#utility.yul\":13844:13876   */\n      dup2\n      gt\n        /* \"#utility.yul\":13841:13893   */\n      iszero\n      tag_751\n      jumpi\n        /* \"#utility.yul\":13889:13890   */\n      0x00\n        /* \"#utility.yul\":13886:13887   */\n      0x00\n        /* \"#utility.yul\":13879:13891   */\n      revert\n        /* \"#utility.yul\":13841:13893   */\n    tag_751:\n        /* \"#utility.yul\":13928:13989   */\n      tag_734\n        /* \"#utility.yul\":13981:13988   */\n      dup9\n        /* \"#utility.yul\":13970:13978   */\n      dup3\n        /* \"#utility.yul\":13959:13968   */\n      dup10\n        /* \"#utility.yul\":13955:13979   */\n      add\n        /* \"#utility.yul\":13928:13989   */\n      tag_655\n      jump\t// in\n        /* \"#utility.yul\":14151:14899   */\n    tag_149:\n        /* \"#utility.yul\":14265:14271   */\n      0x00\n        /* \"#utility.yul\":14273:14279   */\n      0x00\n        /* \"#utility.yul\":14281:14287   */\n      0x00\n        /* \"#utility.yul\":14289:14295   */\n      0x00\n        /* \"#utility.yul\":14297:14303   */\n      0x00\n        /* \"#utility.yul\":14350:14353   */\n      0x80\n        /* \"#utility.yul\":14338:14347   */\n      dup7\n        /* \"#utility.yul\":14329:14336   */\n      dup9\n        /* \"#utility.yul\":14325:14348   */\n      sub\n        /* \"#utility.yul\":14321:14354   */\n      slt\n        /* \"#utility.yul\":14318:14371   */\n      iszero\n      tag_754\n      jumpi\n        /* \"#utility.yul\":14367:14368   */\n      0x00\n        /* \"#utility.yul\":14364:14365   */\n      0x00\n        /* \"#utility.yul\":14357:14369   */\n      revert\n        /* \"#utility.yul\":14318:14371   */\n    tag_754:\n        /* \"#utility.yul\":14390:14431   */\n      tag_755\n        /* \"#utility.yul\":14421:14430   */\n      dup7\n        /* \"#utility.yul\":14390:14431   */\n      tag_654\n      jump\t// in\n    tag_755:\n        /* \"#utility.yul\":14380:14431   */\n      swap5\n      pop\n        /* \"#utility.yul\":14500:14502   */\n      0x20\n        /* \"#utility.yul\":14485:14503   */\n      dup7\n      add\n        /* \"#utility.yul\":14472:14504   */\n      calldataload\n      swap4\n      pop\n        /* \"#utility.yul\":14601:14603   */\n      0x40\n        /* \"#utility.yul\":14586:14604   */\n      dup7\n      add\n        /* \"#utility.yul\":14573:14605   */\n      calldataload\n      swap3\n      pop\n        /* \"#utility.yul\":14682:14684   */\n      0x60\n        /* \"#utility.yul\":14667:14685   */\n      dup7\n      add\n        /* \"#utility.yul\":14654:14686   */\n      calldataload\n      sub(shl(0x40, 0x01), 0x01)\n        /* \"#utility.yul\":14698:14728   */\n      dup2\n      gt\n        /* \"#utility.yul\":14695:14745   */\n      iszero\n      tag_756\n      jumpi\n        /* \"#utility.yul\":14741:14742   */\n      0x00\n        /* \"#utility.yul\":14738:14739   */\n      0x00\n        /* \"#utility.yul\":14731:14743   */\n      revert\n        /* \"#utility.yul\":14695:14745   */\n    tag_756:\n        /* \"#utility.yul\":14780:14839   */\n      tag_757\n        /* \"#utility.yul\":14831:14838   */\n      dup9\n        /* \"#utility.yul\":14822:14828   */\n      dup3\n        /* \"#utility.yul\":14811:14820   */\n      dup10\n        /* \"#utility.yul\":14807:14829   */\n      add\n        /* \"#utility.yul\":14780:14839   */\n      tag_655\n      jump\t// in\n    tag_757:\n        /* \"#utility.yul\":14151:14899   */\n      swap7\n      swap10\n      swap6\n      swap9\n      pop\n      swap4\n      swap7\n      pop\n        /* \"#utility.yul\":14858:14866   */\n      swap3\n      swap5\n        /* \"#utility.yul\":14754:14839   */\n      swap4\n        /* \"#utility.yul\":14151:14899   */\n      swap3\n      pop\n      pop\n      pop\n      jump\t// out\n        /* \"#utility.yul\":14904:15190   */\n    tag_153:\n        /* \"#utility.yul\":14963:14969   */\n      0x00\n        /* \"#utility.yul\":15016:15018   */\n      0x20\n        /* \"#utility.yul\":15004:15013   */\n      dup3\n        /* \"#utility.yul\":14995:15002   */\n      dup5\n        /* \"#utility.yul\":14991:15014   */\n      sub\n        /* \"#utility.yul\":14987:15019   */\n      slt\n        /* \"#utility.yul\":14984:15036   */\n      iszero\n      tag_759\n      jumpi\n        /* \"#utility.yul\":15032:15033   */\n      0x00\n        /* \"#utility.yul\":15029:15030   */\n      0x00\n        /* \"#utility.yul\":15022:15034   */\n      revert\n        /* \"#utility.yul\":14984:15036   */\n    tag_759:\n        /* \"#utility.yul\":15058:15081   */\n      dup2\n      calldataload\n      sub(shl(0xa0, 0x01), 0x01)\n        /* \"#utility.yul\":15110:15141   */\n      dup2\n      and\n        /* \"#utility.yul\":15100:15142   */\n      dup2\n      eq\n        /* \"#utility.yul\":15090:15160   */\n      tag_681\n      jumpi\n        /* \"#utility.yul\":15156:15157   */\n      0x00\n        /* \"#utility.yul\":15153:15154   */\n      0x00\n        /* \"#utility.yul\":15146:15158   */\n      revert\n        /* \"#utility.yul\":15195:15718   */\n    tag_159:\n        /* \"#utility.yul\":15408:15410   */\n      0x20\n        /* \"#utility.yul\":15397:15406   */\n      dup2\n        /* \"#utility.yul\":15390:15411   */\n      mstore\n        /* \"#utility.yul\":15371:15375   */\n      0x00\n        /* \"#utility.yul\":15446:15452   */\n      dup3\n        /* \"#utility.yul\":15440:15453   */\n      mload\n        /* \"#utility.yul\":15489:15493   */\n      0x60\n        /* \"#utility.yul\":15484:15486   */\n      0x20\n        /* \"#utility.yul\":15473:15482   */\n      dup5\n        /* \"#utility.yul\":15469:15487   */\n      add\n        /* \"#utility.yul\":15462:15494   */\n      mstore\n        /* \"#utility.yul\":15517:15569   */\n      tag_762\n        /* \"#utility.yul\":15564:15567   */\n      0x80\n        /* \"#utility.yul\":15553:15562   */\n      dup5\n        /* \"#utility.yul\":15549:15568   */\n      add\n        /* \"#utility.yul\":15535:15547   */\n      dup3\n        /* \"#utility.yul\":15517:15569   */\n      tag_653\n      jump\t// in\n    tag_762:\n        /* \"#utility.yul\":15503:15569   */\n      swap1\n      pop\n        /* \"#utility.yul\":15623:15625   */\n      0x20\n        /* \"#utility.yul\":15615:15621   */\n      dup5\n        /* \"#utility.yul\":15611:15626   */\n      add\n        /* \"#utility.yul\":15605:15627   */\n      mload\n        /* \"#utility.yul\":15600:15602   */\n      0x40\n        /* \"#utility.yul\":15589:15598   */\n      dup5\n        /* \"#utility.yul\":15585:15603   */\n      add\n        /* \"#utility.yul\":15578:15628   */\n      mstore\n        /* \"#utility.yul\":15684:15686   */\n      0x40\n        /* \"#utility.yul\":15676:15682   */\n      dup5\n        /* \"#utility.yul\":15672:15687   */\n      add\n        /* \"#utility.yul\":15666:15688   */\n      mload\n        /* \"#utility.yul\":15659:15663   */\n      0x60\n        /* \"#utility.yul\":15648:15657   */\n      dup5\n        /* \"#utility.yul\":15644:15664   */\n      add\n        /* \"#utility.yul\":15637:15689   */\n      mstore\n        /* \"#utility.yul\":15706:15712   */\n      dup1\n        /* \"#utility.yul\":15698:15712   */\n      swap2\n      pop\n      pop\n        /* \"#utility.yul\":15195:15718   */\n      swap3\n      swap2\n      pop\n      pop\n      jump\t// out\n        /* \"#utility.yul\":15974:16354   */\n    tag_169:\n        /* \"#utility.yul\":16053:16054   */\n      0x01\n        /* \"#utility.yul\":16049:16061   */\n      dup2\n      dup2\n      shr\n      swap1\n        /* \"#utility.yul\":16096:16108   */\n      dup3\n      and\n      dup1\n        /* \"#utility.yul\":16117:16178   */\n      tag_765\n      jumpi\n        /* \"#utility.yul\":16171:16175   */\n      0x7f\n        /* \"#utility.yul\":16163:16169   */\n      dup3\n        /* \"#utility.yul\":16159:16176   */\n      and\n        /* \"#utility.yul\":16149:16176   */\n      swap2\n      pop\n        /* \"#utility.yul\":16117:16178   */\n    tag_765:\n        /* \"#utility.yul\":16224:16226   */\n      0x20\n        /* \"#utility.yul\":16216:16222   */\n      dup3\n        /* \"#utility.yul\":16213:16227   */\n      lt\n        /* \"#utility.yul\":16193:16211   */\n      dup2\n        /* \"#utility.yul\":16190:16228   */\n      sub\n        /* \"#utility.yul\":16187:16348   */\n      tag_766\n      jumpi\n        /* \"#utility.yul\":16270:16280   */\n      0x4e487b71\n        /* \"#utility.yul\":16265:16268   */\n      0xe0\n        /* \"#utility.yul\":16261:16281   */\n      shl\n        /* \"#utility.yul\":16258:16259   */\n      0x00\n        /* \"#utility.yul\":16251:16282   */\n      mstore\n        /* \"#utility.yul\":16305:16309   */\n      0x22\n        /* \"#utility.yul\":16302:16303   */\n      0x04\n        /* \"#utility.yul\":16295:16310   */\n      mstore\n        /* \"#utility.yul\":16333:16337   */\n      0x24\n        /* \"#utility.yul\":16330:16331   */\n      0x00\n        /* \"#utility.yul\":16323:16338   */\n      revert\n        /* \"#utility.yul\":16187:16348   */\n    tag_766:\n      pop\n        /* \"#utility.yul\":15974:16354   */\n      swap2\n      swap1\n      pop\n      jump\t// out\n        /* \"#utility.yul\":16783:16910   */\n    tag_658:\n        /* \"#utility.yul\":16844:16854   */\n      0x4e487b71\n        /* \"#utility.yul\":16839:16842   */\n      0xe0\n        /* \"#utility.yul\":16835:16855   */\n      shl\n        /* \"#utility.yul\":16832:16833   */\n      0x00\n        /* \"#utility.yul\":16825:16856   */\n      mstore\n        /* \"#utility.yul\":16875:16879   */\n      0x11\n        /* \"#utility.yul\":16872:16873   */\n      0x04\n        /* \"#utility.yul\":16865:16880   */\n      mstore\n        /* \"#utility.yul\":16899:16903   */\n      0x24\n        /* \"#utility.yul\":16896:16897   */\n      0x00\n        /* \"#utility.yul\":16889:16904   */\n      revert\n        /* \"#utility.yul\":16915:17050   */\n    tag_230:\n        /* \"#utility.yul\":16954:16957   */\n      0x00\n        /* \"#utility.yul\":16975:16992   */\n      0x01\n      dup3\n      add\n        /* \"#utility.yul\":16972:17015   */\n      tag_771\n      jumpi\n        /* \"#utility.yul\":16995:17013   */\n      tag_771\n      tag_658\n      jump\t// in\n    tag_771:\n      pop\n        /* \"#utility.yul\":17042:17043   */\n      0x01\n        /* \"#utility.yul\":17031:17044   */\n      add\n      swap1\n        /* \"#utility.yul\":16915:17050   */\n      jump\t// out\n        /* \"#utility.yul\":17181:17699   */\n    tag_660:\n        /* \"#utility.yul\":17283:17285   */\n      0x1f\n        /* \"#utility.yul\":17278:17281   */\n      dup3\n        /* \"#utility.yul\":17275:17286   */\n      gt\n        /* \"#utility.yul\":17272:17693   */\n      iszero\n      tag_429\n      jumpi\n        /* \"#utility.yul\":17319:17324   */\n      dup1\n        /* \"#utility.yul\":17316:17317   */\n      0x00\n        /* \"#utility.yul\":17309:17325   */\n      mstore\n        /* \"#utility.yul\":17363:17367   */\n      0x20\n        /* \"#utility.yul\":17360:17361   */\n      0x00\n        /* \"#utility.yul\":17350:17368   */\n      keccak256\n        /* \"#utility.yul\":17433:17435   */\n      0x1f\n        /* \"#utility.yul\":17421:17431   */\n      dup5\n        /* \"#utility.yul\":17417:17436   */\n      add\n        /* \"#utility.yul\":17414:17415   */\n      0x05\n        /* \"#utility.yul\":17410:17437   */\n      shr\n        /* \"#utility.yul\":17404:17408   */\n      dup2\n        /* \"#utility.yul\":17400:17438   */\n      add\n        /* \"#utility.yul\":17469:17473   */\n      0x20\n        /* \"#utility.yul\":17457:17467   */\n      dup6\n        /* \"#utility.yul\":17454:17474   */\n      lt\n        /* \"#utility.yul\":17451:17498   */\n      iszero\n      tag_775\n      jumpi\n      pop\n        /* \"#utility.yul\":17492:17496   */\n      dup1\n        /* \"#utility.yul\":17451:17498   */\n    tag_775:\n        /* \"#utility.yul\":17547:17549   */\n      0x1f\n        /* \"#utility.yul\":17542:17545   */\n      dup5\n        /* \"#utility.yul\":17538:17550   */\n      add\n        /* \"#utility.yul\":17535:17536   */\n      0x05\n        /* \"#utility.yul\":17531:17551   */\n      shr\n        /* \"#utility.yul\":17525:17529   */\n      dup3\n        /* \"#utility.yul\":17521:17552   */\n      add\n        /* \"#utility.yul\":17511:17552   */\n      swap2\n      pop\n        /* \"#utility.yul\":17602:17683   */\n    tag_776:\n        /* \"#utility.yul\":17620:17622   */\n      dup2\n        /* \"#utility.yul\":17613:17618   */\n      dup2\n        /* \"#utility.yul\":17610:17623   */\n      lt\n        /* \"#utility.yul\":17602:17683   */\n      iszero\n      tag_778\n      jumpi\n        /* \"#utility.yul\":17679:17680   */\n      0x00\n        /* \"#utility.yul\":17665:17681   */\n      dup2\n      sstore\n        /* \"#utility.yul\":17646:17647   */\n      0x01\n        /* \"#utility.yul\":17635:17648   */\n      add\n        /* \"#utility.yul\":17602:17683   */\n      jump(tag_776)\n    tag_778:\n        /* \"#utility.yul\":17606:17609   */\n      pop\n      pop\n        /* \"#utility.yul\":17181:17699   */\n      pop\n      pop\n      pop\n      jump\t// out\n        /* \"#utility.yul\":17704:17870   */\n    tag_661:\n      not(0x00)\n        /* \"#utility.yul\":17832:17833   */\n      0x03\n        /* \"#utility.yul\":17828:17839   */\n      dup4\n      swap1\n      shl\n        /* \"#utility.yul\":17824:17848   */\n      shr\n        /* \"#utility.yul\":17820:17849   */\n      not\n        /* \"#utility.yul\":17810:17850   */\n      and\n        /* \"#utility.yul\":17856:17857   */\n      0x01\n        /* \"#utility.yul\":17852:17863   */\n      swap2\n      swap1\n      swap2\n      shl\n        /* \"#utility.yul\":17807:17864   */\n      or\n      swap1\n        /* \"#utility.yul\":17704:17870   */\n      jump\t// out\n        /* \"#utility.yul\":17875:19073   */\n    tag_234:\n      sub(shl(0x40, 0x01), 0x01)\n        /* \"#utility.yul\":17994:17997   */\n      dup4\n        /* \"#utility.yul\":17991:18018   */\n      gt\n        /* \"#utility.yul\":17988:18041   */\n      iszero\n      tag_782\n      jumpi\n        /* \"#utility.yul\":18021:18039   */\n      tag_782\n      tag_652\n      jump\t// in\n    tag_782:\n        /* \"#utility.yul\":18050:18144   */\n      tag_783\n        /* \"#utility.yul\":18140:18143   */\n      dup4\n        /* \"#utility.yul\":18100:18138   */\n      tag_784\n        /* \"#utility.yul\":18132:18136   */\n      dup4\n        /* \"#utility.yul\":18126:18137   */\n      sload\n        /* \"#utility.yul\":18100:18138   */\n      tag_169\n      jump\t// in\n    tag_784:\n        /* \"#utility.yul\":18094:18098   */\n      dup4\n        /* \"#utility.yul\":18050:18144   */\n      tag_660\n      jump\t// in\n    tag_783:\n        /* \"#utility.yul\":18170:18171   */\n      0x00\n        /* \"#utility.yul\":18195:18197   */\n      0x1f\n        /* \"#utility.yul\":18190:18193   */\n      dup5\n        /* \"#utility.yul\":18187:18198   */\n      gt\n        /* \"#utility.yul\":18212:18213   */\n      0x01\n        /* \"#utility.yul\":18207:18815   */\n      dup2\n      eq\n      tag_786\n      jumpi\n        /* \"#utility.yul\":18859:18860   */\n      0x00\n        /* \"#utility.yul\":18876:18879   */\n      dup6\n        /* \"#utility.yul\":18873:18966   */\n      iszero\n      tag_787\n      jumpi\n      pop\n        /* \"#utility.yul\":18932:18951   */\n      dup4\n      dup3\n      add\n        /* \"#utility.yul\":18919:18952   */\n      calldataload\n        /* \"#utility.yul\":18873:18966   */\n    tag_787:\n        /* \"#utility.yul\":18992:19056   */\n      tag_788\n        /* \"#utility.yul\":19052:19055   */\n      dup7\n        /* \"#utility.yul\":19045:19050   */\n      dup3\n        /* \"#utility.yul\":18992:19056   */\n      tag_661\n      jump\t// in\n    tag_788:\n        /* \"#utility.yul\":18986:18990   */\n      dup5\n        /* \"#utility.yul\":18979:19057   */\n      sstore\n      pop\n        /* \"#utility.yul\":18180:19067   */\n      jump(tag_778)\n        /* \"#utility.yul\":18207:18815   */\n    tag_786:\n        /* \"#utility.yul\":17128:17129   */\n      0x00\n        /* \"#utility.yul\":17121:17135   */\n      dup4\n      dup2\n      mstore\n        /* \"#utility.yul\":17165:17169   */\n      0x20\n        /* \"#utility.yul\":17152:17170   */\n      dup2\n      keccak256\n      not(0x1f)\n        /* \"#utility.yul\":18243:18260   */\n      dup8\n      and\n      swap2\n        /* \"#utility.yul\":18358:18587   */\n    tag_790:\n        /* \"#utility.yul\":18372:18379   */\n      dup3\n        /* \"#utility.yul\":18369:18370   */\n      dup2\n        /* \"#utility.yul\":18366:18380   */\n      lt\n        /* \"#utility.yul\":18358:18587   */\n      iszero\n      tag_792\n      jumpi\n        /* \"#utility.yul\":18461:18480   */\n      dup7\n      dup6\n      add\n        /* \"#utility.yul\":18448:18481   */\n      calldataload\n        /* \"#utility.yul\":18433:18482   */\n      dup3\n      sstore\n        /* \"#utility.yul\":18568:18572   */\n      0x20\n        /* \"#utility.yul\":18553:18573   */\n      swap5\n      dup6\n      add\n      swap5\n        /* \"#utility.yul\":18521:18522   */\n      0x01\n        /* \"#utility.yul\":18509:18523   */\n      swap1\n      swap3\n      add\n      swap2\n        /* \"#utility.yul\":18388:18400   */\n      add\n        /* \"#utility.yul\":18358:18587   */\n      jump(tag_790)\n    tag_792:\n        /* \"#utility.yul\":18362:18365   */\n      pop\n        /* \"#utility.yul\":18615:18618   */\n      dup7\n        /* \"#utility.yul\":18606:18613   */\n      dup3\n        /* \"#utility.yul\":18603:18619   */\n      lt\n        /* \"#utility.yul\":18600:18759   */\n      iszero\n      tag_793\n      jumpi\n        /* \"#utility.yul\":18739:18740   */\n      0x00\n        /* \"#utility.yul\":18735:18741   */\n      not\n        /* \"#utility.yul\":18729:18732   */\n      0xf8\n        /* \"#utility.yul\":18723:18726   */\n      dup9\n        /* \"#utility.yul\":18720:18721   */\n      0x03\n        /* \"#utility.yul\":18716:18727   */\n      shl\n        /* \"#utility.yul\":18712:18733   */\n      and\n        /* \"#utility.yul\":18708:18742   */\n      shr\n        /* \"#utility.yul\":18704:18743   */\n      not\n        /* \"#utility.yul\":18691:18700   */\n      dup5\n        /* \"#utility.yul\":18686:18689   */\n      dup8\n        /* \"#utility.yul\":18682:18701   */\n      add\n        /* \"#utility.yul\":18669:18702   */\n      calldataload\n        /* \"#utility.yul\":18665:18744   */\n      and\n        /* \"#utility.yul\":18657:18663   */\n      dup2\n        /* \"#utility.yul\":18650:18745   */\n      sstore\n        /* \"#utility.yul\":18600:18759   */\n    tag_793:\n      pop\n      pop\n        /* \"#utility.yul\":18802:18803   */\n      0x01\n        /* \"#utility.yul\":18796:18799   */\n      dup6\n        /* \"#utility.yul\":18793:18794   */\n      0x01\n        /* \"#utility.yul\":18789:18800   */\n      shl\n        /* \"#utility.yul\":18785:18804   */\n      add\n        /* \"#utility.yul\":18779:18783   */\n      dup4\n        /* \"#utility.yul\":18772:18805   */\n      sstore\n        /* \"#utility.yul\":18180:19067   */\n      pop\n      pop\n        /* \"#utility.yul\":17875:19073   */\n      pop\n      pop\n      pop\n      jump\t// out\n        /* \"#utility.yul\":19078:19345   */\n    tag_662:\n        /* \"#utility.yul\":19167:19173   */\n      dup2\n        /* \"#utility.yul\":19162:19165   */\n      dup4\n        /* \"#utility.yul\":19155:19174   */\n      mstore\n        /* \"#utility.yul\":19219:19225   */\n      dup2\n        /* \"#utility.yul\":19212:19217   */\n      dup2\n        /* \"#utility.yul\":19205:19209   */\n      0x20\n        /* \"#utility.yul\":19200:19203   */\n      dup6\n        /* \"#utility.yul\":19196:19210   */\n      add\n        /* \"#utility.yul\":19183:19226   */\n      calldatacopy\n      pop\n        /* \"#utility.yul\":19271:19272   */\n      0x00\n        /* \"#utility.yul\":19246:19262   */\n      dup3\n      dup3\n      add\n        /* \"#utility.yul\":19264:19268   */\n      0x20\n        /* \"#utility.yul\":19242:19269   */\n      swap1\n      dup2\n      add\n        /* \"#utility.yul\":19235:19273   */\n      swap2\n      swap1\n      swap2\n      mstore\n        /* \"#utility.yul\":19327:19329   */\n      0x1f\n        /* \"#utility.yul\":19306:19321   */\n      swap1\n      swap2\n      add\n      not(0x1f)\n        /* \"#utility.yul\":19302:19331   */\n      and\n        /* \"#utility.yul\":19293:19332   */\n      swap1\n      swap2\n      add\n        /* \"#utility.yul\":19289:19339   */\n      add\n      swap1\n        /* \"#utility.yul\":19078:19345   */\n      jump\t// out\n        /* \"#utility.yul\":19350:19857   */\n    tag_236:\n        /* \"#utility.yul\":19596:19645   */\n      tag_796\n        /* \"#utility.yul\":19635:19644   */\n      dup2\n        /* \"#utility.yul\":19627:19633   */\n      dup8\n        /* \"#utility.yul\":19596:19645   */\n      tag_657\n      jump\t// in\n    tag_796:\n        /* \"#utility.yul\":19681:19687   */\n      dup5\n        /* \"#utility.yul\":19676:19678   */\n      0x20\n        /* \"#utility.yul\":19665:19674   */\n      dup3\n        /* \"#utility.yul\":19661:19679   */\n      add\n        /* \"#utility.yul\":19654:19688   */\n      mstore\n        /* \"#utility.yul\":19724:19730   */\n      dup4\n        /* \"#utility.yul\":19719:19721   */\n      0x40\n        /* \"#utility.yul\":19708:19717   */\n      dup3\n        /* \"#utility.yul\":19704:19722   */\n      add\n        /* \"#utility.yul\":19697:19731   */\n      mstore\n        /* \"#utility.yul\":19767:19770   */\n      0x80\n        /* \"#utility.yul\":19762:19764   */\n      0x60\n        /* \"#utility.yul\":19751:19760   */\n      dup3\n        /* \"#utility.yul\":19747:19765   */\n      add\n        /* \"#utility.yul\":19740:19771   */\n      mstore\n        /* \"#utility.yul\":19577:19581   */\n      0x00\n        /* \"#utility.yul\":19788:19851   */\n      tag_797\n        /* \"#utility.yul\":19846:19849   */\n      0x80\n        /* \"#utility.yul\":19835:19844   */\n      dup4\n        /* \"#utility.yul\":19831:19850   */\n      add\n        /* \"#utility.yul\":19823:19829   */\n      dup5\n        /* \"#utility.yul\":19815:19821   */\n      dup7\n        /* \"#utility.yul\":19788:19851   */\n      tag_662\n      jump\t// in\n    tag_797:\n        /* \"#utility.yul\":19780:19851   */\n      swap8\n        /* \"#utility.yul\":19350:19857   */\n      swap7\n      pop\n      pop\n      pop\n      pop\n      pop\n      pop\n      pop\n      jump\t// out\n        /* \"#utility.yul\":19862:20135   */\n    tag_266:\n        /* \"#utility.yul\":20047:20053   */\n      dup2\n        /* \"#utility.yul\":20039:20045   */\n      dup4\n        /* \"#utility.yul\":20034:20037   */\n      dup3\n        /* \"#utility.yul\":20021:20054   */\n      calldatacopy\n        /* \"#utility.yul\":20003:20006   */\n      0x00\n        /* \"#utility.yul\":20073:20089   */\n      swap2\n      add\n        /* \"#utility.yul\":20098:20111   */\n      swap1\n      dup2\n      mstore\n        /* \"#utility.yul\":20073:20089   */\n      swap2\n        /* \"#utility.yul\":19862:20135   */\n      swap1\n      pop\n      jump\t// out\n        /* \"#utility.yul\":20140:20267   */\n    tag_273:\n        /* \"#utility.yul\":20201:20211   */\n      0x4e487b71\n        /* \"#utility.yul\":20196:20199   */\n      0xe0\n        /* \"#utility.yul\":20192:20212   */\n      shl\n        /* \"#utility.yul\":20189:20190   */\n      0x00\n        /* \"#utility.yul\":20182:20213   */\n      mstore\n        /* \"#utility.yul\":20232:20236   */\n      0x32\n        /* \"#utility.yul\":20229:20230   */\n      0x04\n        /* \"#utility.yul\":20222:20237   */\n      mstore\n        /* \"#utility.yul\":20256:20260   */\n      0x24\n        /* \"#utility.yul\":20253:20254   */\n      0x00\n        /* \"#utility.yul\":20246:20261   */\n      revert\n        /* \"#utility.yul\":20272:21069   */\n    tag_276:\n        /* \"#utility.yul\":20400:20403   */\n      0x00\n        /* \"#utility.yul\":20429:20430   */\n      0x00\n        /* \"#utility.yul\":20462:20468   */\n      dup4\n        /* \"#utility.yul\":20456:20469   */\n      sload\n        /* \"#utility.yul\":20492:20528   */\n      tag_801\n        /* \"#utility.yul\":20518:20527   */\n      dup2\n        /* \"#utility.yul\":20492:20528   */\n      tag_169\n      jump\t// in\n    tag_801:\n        /* \"#utility.yul\":20559:20560   */\n      0x01\n        /* \"#utility.yul\":20544:20561   */\n      dup3\n      and\n        /* \"#utility.yul\":20570:20703   */\n      dup1\n      iszero\n      tag_803\n      jumpi\n        /* \"#utility.yul\":20717:20718   */\n      0x01\n        /* \"#utility.yul\":20712:21044   */\n      dup2\n      eq\n      tag_804\n      jumpi\n        /* \"#utility.yul\":20537:21044   */\n      jump(tag_802)\n        /* \"#utility.yul\":20570:20703   */\n    tag_803:\n      not(0xff)\n        /* \"#utility.yul\":20603:20627   */\n      dup4\n      and\n        /* \"#utility.yul\":20591:20628   */\n      dup7\n      mstore\n        /* \"#utility.yul\":20676:20690   */\n      dup2\n      iszero\n        /* \"#utility.yul\":20669:20691   */\n      iszero\n        /* \"#utility.yul\":20657:20692   */\n      dup3\n      mul\n        /* \"#utility.yul\":20648:20693   */\n      dup7\n      add\n      swap4\n      pop\n        /* \"#utility.yul\":20570:20703   */\n      jump(tag_802)\n        /* \"#utility.yul\":20712:21044   */\n    tag_804:\n        /* \"#utility.yul\":20743:20749   */\n      dup7\n        /* \"#utility.yul\":20740:20741   */\n      0x00\n        /* \"#utility.yul\":20733:20750   */\n      mstore\n        /* \"#utility.yul\":20791:20795   */\n      0x20\n        /* \"#utility.yul\":20788:20789   */\n      0x00\n        /* \"#utility.yul\":20778:20796   */\n      keccak256\n        /* \"#utility.yul\":20818:20819   */\n      0x00\n        /* \"#utility.yul\":20832:20998   */\n    tag_805:\n        /* \"#utility.yul\":20846:20852   */\n      dup4\n        /* \"#utility.yul\":20843:20844   */\n      dup2\n        /* \"#utility.yul\":20840:20853   */\n      lt\n        /* \"#utility.yul\":20832:20998   */\n      iszero\n      tag_807\n      jumpi\n        /* \"#utility.yul\":20926:20940   */\n      dup2\n      sload\n        /* \"#utility.yul\":20913:20924   */\n      dup9\n      dup3\n      add\n        /* \"#utility.yul\":20906:20941   */\n      mstore\n        /* \"#utility.yul\":20982:20983   */\n      0x01\n        /* \"#utility.yul\":20969:20984   */\n      swap1\n      swap2\n      add\n      swap1\n        /* \"#utility.yul\":20868:20872   */\n      0x20\n        /* \"#utility.yul\":20861:20873   */\n      add\n        /* \"#utility.yul\":20832:20998   */\n      jump(tag_805)\n    tag_807:\n        /* \"#utility.yul\":20836:20839   */\n      pop\n      pop\n        /* \"#utility.yul\":21027:21033   */\n      dup2\n        /* \"#utility.yul\":21022:21025   */\n      dup7\n        /* \"#utility.yul\":21018:21034   */\n      add\n        /* \"#utility.yul\":21011:21034   */\n      swap4\n      pop\n        /* \"#utility.yul\":20537:21044   */\n    tag_802:\n      pop\n        /* \"#utility.yul\":21060:21063   */\n      swap2\n      swap6\n        /* \"#utility.yul\":20272:21069   */\n      swap5\n      pop\n      pop\n      pop\n      pop\n      pop\n      jump\t// out\n        /* \"#utility.yul\":21074:21412   */\n    tag_345:\n        /* \"#utility.yul\":21180:21184   */\n      0x00\n        /* \"#utility.yul\":21238:21249   */\n      dup3\n        /* \"#utility.yul\":21225:21250   */\n      calldataload\n        /* \"#utility.yul\":21332:21335   */\n      0x9e\n        /* \"#utility.yul\":21328:21336   */\n      not\n        /* \"#utility.yul\":21317:21325   */\n      dup4\n        /* \"#utility.yul\":21301:21315   */\n      calldatasize\n        /* \"#utility.yul\":21297:21326   */\n      sub\n        /* \"#utility.yul\":21293:21337   */\n      add\n        /* \"#utility.yul\":21273:21291   */\n      dup2\n        /* \"#utility.yul\":21269:21338   */\n      slt\n        /* \"#utility.yul\":21259:21356   */\n      tag_809\n      jumpi\n        /* \"#utility.yul\":21352:21353   */\n      0x00\n        /* \"#utility.yul\":21349:21350   */\n      0x00\n        /* \"#utility.yul\":21342:21354   */\n      revert\n        /* \"#utility.yul\":21259:21356   */\n    tag_809:\n        /* \"#utility.yul\":21373:21406   */\n      swap2\n      swap1\n      swap2\n      add\n      swap3\n        /* \"#utility.yul\":21074:21412   */\n      swap2\n      pop\n      pop\n      jump\t// out\n        /* \"#utility.yul\":21417:21939   */\n    tag_347:\n        /* \"#utility.yul\":21495:21499   */\n      0x00\n        /* \"#utility.yul\":21501:21507   */\n      0x00\n        /* \"#utility.yul\":21561:21572   */\n      dup4\n        /* \"#utility.yul\":21548:21573   */\n      calldataload\n        /* \"#utility.yul\":21655:21657   */\n      0x1e\n        /* \"#utility.yul\":21651:21658   */\n      not\n        /* \"#utility.yul\":21640:21648   */\n      dup5\n        /* \"#utility.yul\":21624:21638   */\n      calldatasize\n        /* \"#utility.yul\":21620:21649   */\n      sub\n        /* \"#utility.yul\":21616:21659   */\n      add\n        /* \"#utility.yul\":21596:21614   */\n      dup2\n        /* \"#utility.yul\":21592:21660   */\n      slt\n        /* \"#utility.yul\":21582:21678   */\n      tag_811\n      jumpi\n        /* \"#utility.yul\":21674:21675   */\n      0x00\n        /* \"#utility.yul\":21671:21672   */\n      0x00\n        /* \"#utility.yul\":21664:21676   */\n      revert\n        /* \"#utility.yul\":21582:21678   */\n    tag_811:\n        /* \"#utility.yul\":21701:21734   */\n      dup4\n      add\n        /* \"#utility.yul\":21753:21773   */\n      dup1\n      calldataload\n      swap2\n      pop\n      sub(shl(0x40, 0x01), 0x01)\n        /* \"#utility.yul\":21785:21815   */\n      dup3\n      gt\n        /* \"#utility.yul\":21782:21832   */\n      iszero\n      tag_812\n      jumpi\n        /* \"#utility.yul\":21828:21829   */\n      0x00\n        /* \"#utility.yul\":21825:21826   */\n      0x00\n        /* \"#utility.yul\":21818:21830   */\n      revert\n        /* \"#utility.yul\":21782:21832   */\n    tag_812:\n        /* \"#utility.yul\":21861:21865   */\n      0x20\n        /* \"#utility.yul\":21849:21866   */\n      add\n      swap2\n      pop\n        /* \"#utility.yul\":21892:21906   */\n      calldatasize\n        /* \"#utility.yul\":21888:21915   */\n      dup2\n      swap1\n      sub\n        /* \"#utility.yul\":21878:21916   */\n      dup3\n      sgt\n        /* \"#utility.yul\":21875:21933   */\n      iszero\n      tag_688\n      jumpi\n        /* \"#utility.yul\":21929:21930   */\n      0x00\n        /* \"#utility.yul\":21926:21927   */\n      0x00\n        /* \"#utility.yul\":21919:21931   */\n      revert\n        /* \"#utility.yul\":21944:23243   */\n    tag_360:\n        /* \"#utility.yul\":22070:22073   */\n      dup2\n        /* \"#utility.yul\":22064:22074   */\n      mload\n      sub(shl(0x40, 0x01), 0x01)\n        /* \"#utility.yul\":22089:22095   */\n      dup2\n        /* \"#utility.yul\":22086:22116   */\n      gt\n        /* \"#utility.yul\":22083:22139   */\n      iszero\n      tag_816\n      jumpi\n        /* \"#utility.yul\":22119:22137   */\n      tag_816\n      tag_652\n      jump\t// in\n    tag_816:\n        /* \"#utility.yul\":22148:22245   */\n      tag_817\n        /* \"#utility.yul\":22238:22244   */\n      dup2\n        /* \"#utility.yul\":22198:22236   */\n      tag_818\n        /* \"#utility.yul\":22230:22234   */\n      dup5\n        /* \"#utility.yul\":22224:22235   */\n      sload\n        /* \"#utility.yul\":22198:22236   */\n      tag_169\n      jump\t// in\n    tag_818:\n        /* \"#utility.yul\":22192:22196   */\n      dup5\n        /* \"#utility.yul\":22148:22245   */\n      tag_660\n      jump\t// in\n    tag_817:\n        /* \"#utility.yul\":22294:22298   */\n      0x20\n        /* \"#utility.yul\":22325:22327   */\n      0x1f\n        /* \"#utility.yul\":22314:22328   */\n      dup3\n      gt\n        /* \"#utility.yul\":22342:22343   */\n      0x01\n        /* \"#utility.yul\":22337:22986   */\n      dup2\n      eq\n      tag_820\n      jumpi\n        /* \"#utility.yul\":23030:23031   */\n      0x00\n        /* \"#utility.yul\":23047:23053   */\n      dup4\n        /* \"#utility.yul\":23044:23133   */\n      iszero\n      tag_821\n      jumpi\n      pop\n        /* \"#utility.yul\":23099:23118   */\n      dup5\n      dup3\n      add\n        /* \"#utility.yul\":23093:23119   */\n      mload\n        /* \"#utility.yul\":23044:23133   */\n    tag_821:\n        /* \"#utility.yul\":23159:23226   */\n      tag_822\n        /* \"#utility.yul\":23219:23225   */\n      dup5\n        /* \"#utility.yul\":23212:23217   */\n      dup3\n        /* \"#utility.yul\":23159:23226   */\n      tag_661\n      jump\t// in\n    tag_822:\n        /* \"#utility.yul\":23153:23157   */\n      dup6\n        /* \"#utility.yul\":23146:23227   */\n      sstore\n      pop\n        /* \"#utility.yul\":22307:23237   */\n      jump(tag_778)\n        /* \"#utility.yul\":22337:22986   */\n    tag_820:\n        /* \"#utility.yul\":17128:17129   */\n      0x00\n        /* \"#utility.yul\":17121:17135   */\n      dup5\n      dup2\n      mstore\n        /* \"#utility.yul\":17165:17169   */\n      0x20\n        /* \"#utility.yul\":17152:17170   */\n      dup2\n      keccak256\n      not(0x1f)\n        /* \"#utility.yul\":22373:22393   */\n      dup6\n      and\n      swap2\n        /* \"#utility.yul\":22491:22713   */\n    tag_824:\n        /* \"#utility.yul\":22505:22512   */\n      dup3\n        /* \"#utility.yul\":22502:22503   */\n      dup2\n        /* \"#utility.yul\":22499:22513   */\n      lt\n        /* \"#utility.yul\":22491:22713   */\n      iszero\n      tag_826\n      jumpi\n        /* \"#utility.yul\":22587:22606   */\n      dup8\n      dup6\n      add\n        /* \"#utility.yul\":22581:22607   */\n      mload\n        /* \"#utility.yul\":22566:22608   */\n      dup3\n      sstore\n        /* \"#utility.yul\":22694:22698   */\n      0x20\n        /* \"#utility.yul\":22679:22699   */\n      swap5\n      dup6\n      add\n      swap5\n        /* \"#utility.yul\":22647:22648   */\n      0x01\n        /* \"#utility.yul\":22635:22649   */\n      swap1\n      swap3\n      add\n      swap2\n        /* \"#utility.yul\":22521:22533   */\n      add\n        /* \"#utility.yul\":22491:22713   */\n      jump(tag_824)\n    tag_826:\n        /* \"#utility.yul\":22495:22498   */\n      pop\n        /* \"#utility.yul\":22741:22747   */\n      dup5\n        /* \"#utility.yul\":22732:22739   */\n      dup3\n        /* \"#utility.yul\":22729:22748   */\n      lt\n        /* \"#utility.yul\":22726:22927   */\n      iszero\n      tag_827\n      jumpi\n        /* \"#utility.yul\":22802:22821   */\n      dup7\n      dup5\n      add\n        /* \"#utility.yul\":22796:22822   */\n      mload\n      not(0x00)\n        /* \"#utility.yul\":22885:22886   */\n      0x03\n        /* \"#utility.yul\":22881:22895   */\n      dup8\n      swap1\n      shl\n        /* \"#utility.yul\":22897:22900   */\n      0xf8\n        /* \"#utility.yul\":22877:22901   */\n      and\n        /* \"#utility.yul\":22873:22910   */\n      shr\n        /* \"#utility.yul\":22869:22911   */\n      not\n        /* \"#utility.yul\":22854:22912   */\n      and\n        /* \"#utility.yul\":22839:22913   */\n      dup2\n      sstore\n        /* \"#utility.yul\":22726:22927   */\n    tag_827:\n      pop\n      pop\n      pop\n      pop\n        /* \"#utility.yul\":22973:22974   */\n      0x01\n        /* \"#utility.yul\":22957:22971   */\n      swap1\n      dup2\n      shl\n        /* \"#utility.yul\":22953:22975   */\n      add\n        /* \"#utility.yul\":22940:22976   */\n      swap1\n      sstore\n      pop\n        /* \"#utility.yul\":21944:23243   */\n      jump\t// out\n        /* \"#utility.yul\":23248:23376   */\n    tag_410:\n        /* \"#utility.yul\":23315:23324   */\n      dup2\n      dup2\n      sub\n        /* \"#utility.yul\":23336:23347   */\n      dup2\n      dup2\n      gt\n        /* \"#utility.yul\":23333:23370   */\n      iszero\n      tag_316\n      jumpi\n        /* \"#utility.yul\":23350:23368   */\n      tag_316\n      tag_658\n      jump\t// in\n        /* \"#utility.yul\":23381:24778   */\n    tag_418:\n        /* \"#utility.yul\":23500:23503   */\n      dup2\n        /* \"#utility.yul\":23494:23498   */\n      dup2\n        /* \"#utility.yul\":23491:23504   */\n      sub\n        /* \"#utility.yul\":23488:23514   */\n      tag_832\n      jumpi\n        /* \"#utility.yul\":23507:23512   */\n      pop\n      pop\n        /* \"#utility.yul\":23381:24778   */\n      jump\t// out\n        /* \"#utility.yul\":23488:23514   */\n    tag_832:\n        /* \"#utility.yul\":23537:23574   */\n      tag_833\n        /* \"#utility.yul\":23569:23572   */\n      dup3\n        /* \"#utility.yul\":23563:23573   */\n      sload\n        /* \"#utility.yul\":23537:23574   */\n      tag_169\n      jump\t// in\n    tag_833:\n      sub(shl(0x40, 0x01), 0x01)\n        /* \"#utility.yul\":23589:23595   */\n      dup2\n        /* \"#utility.yul\":23586:23616   */\n      gt\n        /* \"#utility.yul\":23583:23639   */\n      iszero\n      tag_835\n      jumpi\n        /* \"#utility.yul\":23619:23637   */\n      tag_835\n      tag_652\n      jump\t// in\n    tag_835:\n        /* \"#utility.yul\":23648:23745   */\n      tag_836\n        /* \"#utility.yul\":23738:23744   */\n      dup2\n        /* \"#utility.yul\":23698:23736   */\n      tag_818\n        /* \"#utility.yul\":23730:23734   */\n      dup5\n        /* \"#utility.yul\":23724:23735   */\n      sload\n        /* \"#utility.yul\":23698:23736   */\n      tag_169\n      jump\t// in\n        /* \"#utility.yul\":23648:23745   */\n    tag_836:\n        /* \"#utility.yul\":23771:23772   */\n      0x00\n        /* \"#utility.yul\":23799:23801   */\n      0x1f\n        /* \"#utility.yul\":23791:23797   */\n      dup3\n        /* \"#utility.yul\":23788:23802   */\n      gt\n        /* \"#utility.yul\":23816:23817   */\n      0x01\n        /* \"#utility.yul\":23811:24521   */\n      dup2\n      eq\n      tag_839\n      jumpi\n        /* \"#utility.yul\":24565:24566   */\n      0x00\n        /* \"#utility.yul\":24582:24588   */\n      dup4\n        /* \"#utility.yul\":24579:24668   */\n      iszero\n      tag_821\n      jumpi\n      pop\n        /* \"#utility.yul\":24634:24653   */\n      dup5\n      dup3\n      add\n        /* \"#utility.yul\":24628:24654   */\n      sload\n        /* \"#utility.yul\":24694:24761   */\n      tag_822\n        /* \"#utility.yul\":24754:24760   */\n      dup5\n        /* \"#utility.yul\":24747:24752   */\n      dup3\n        /* \"#utility.yul\":24694:24761   */\n      tag_661\n      jump\t// in\n        /* \"#utility.yul\":23811:24521   */\n    tag_839:\n        /* \"#utility.yul\":17128:17129   */\n      0x00\n        /* \"#utility.yul\":17121:17135   */\n      dup6\n      dup2\n      mstore\n        /* \"#utility.yul\":17165:17169   */\n      0x20\n        /* \"#utility.yul\":17152:17170   */\n      dup1\n      dup3\n      keccak256\n        /* \"#utility.yul\":17121:17135   */\n      dup7\n      dup4\n      mstore\n        /* \"#utility.yul\":17152:17170   */\n      swap1\n      dup3\n      keccak256\n      not(0x1f)\n        /* \"#utility.yul\":23847:23867   */\n      dup7\n      and\n      swap3\n        /* \"#utility.yul\":24025:24246   */\n    tag_844:\n        /* \"#utility.yul\":24039:24046   */\n      dup4\n        /* \"#utility.yul\":24036:24037   */\n      dup2\n        /* \"#utility.yul\":24033:24047   */\n      lt\n        /* \"#utility.yul\":24025:24246   */\n      iszero\n      tag_846\n      jumpi\n        /* \"#utility.yul\":24121:24142   */\n      dup3\n      dup7\n      add\n        /* \"#utility.yul\":24115:24143   */\n      sload\n        /* \"#utility.yul\":24100:24144   */\n      dup3\n      sstore\n        /* \"#utility.yul\":24183:24184   */\n      0x01\n        /* \"#utility.yul\":24215:24232   */\n      swap6\n      dup7\n      add\n      swap6\n        /* \"#utility.yul\":24171:24185   */\n      swap1\n      swap2\n      add\n      swap1\n        /* \"#utility.yul\":24062:24066   */\n      0x20\n        /* \"#utility.yul\":24055:24067   */\n      add\n        /* \"#utility.yul\":24025:24246   */\n      jump(tag_844)\n    tag_846:\n        /* \"#utility.yul\":24029:24032   */\n      pop\n        /* \"#utility.yul\":24274:24280   */\n      dup6\n        /* \"#utility.yul\":24265:24272   */\n      dup4\n        /* \"#utility.yul\":24262:24281   */\n      lt\n        /* \"#utility.yul\":24259:24462   */\n      iszero\n      tag_847\n      jumpi\n        /* \"#utility.yul\":24335:24356   */\n      dup2\n      dup6\n      add\n        /* \"#utility.yul\":24329:24357   */\n      sload\n      not(0x00)\n        /* \"#utility.yul\":24420:24421   */\n      0x03\n        /* \"#utility.yul\":24416:24430   */\n      dup9\n      swap1\n      shl\n        /* \"#utility.yul\":24432:24435   */\n      0xf8\n        /* \"#utility.yul\":24412:24436   */\n      and\n        /* \"#utility.yul\":24408:24445   */\n      shr\n        /* \"#utility.yul\":24404:24446   */\n      not\n        /* \"#utility.yul\":24389:24447   */\n      and\n        /* \"#utility.yul\":24374:24448   */\n      dup2\n      sstore\n        /* \"#utility.yul\":24259:24462   */\n    tag_847:\n      pop\n      pop\n      pop\n      pop\n      pop\n        /* \"#utility.yul\":24508:24509   */\n      0x01\n        /* \"#utility.yul\":24492:24506   */\n      swap1\n      dup2\n      shl\n        /* \"#utility.yul\":24488:24510   */\n      add\n        /* \"#utility.yul\":24475:24511   */\n      swap1\n      sstore\n      pop\n        /* \"#utility.yul\":23381:24778   */\n      jump\t// out\n        /* \"#utility.yul\":24783:24910   */\n    tag_421:\n        /* \"#utility.yul\":24844:24854   */\n      0x4e487b71\n        /* \"#utility.yul\":24839:24842   */\n      0xe0\n        /* \"#utility.yul\":24835:24855   */\n      shl\n        /* \"#utility.yul\":24832:24833   */\n      0x00\n        /* \"#utility.yul\":24825:24856   */\n      mstore\n        /* \"#utility.yul\":24875:24879   */\n      0x31\n        /* \"#utility.yul\":24872:24873   */\n      0x04\n        /* \"#utility.yul\":24865:24880   */\n      mstore\n        /* \"#utility.yul\":24899:24903   */\n      0x24\n        /* \"#utility.yul\":24896:24897   */\n      0x00\n        /* \"#utility.yul\":24889:24904   */\n      revert\n        /* \"#utility.yul\":24915:25256   */\n    tag_434:\n        /* \"#utility.yul\":25025:25029   */\n      0x00\n        /* \"#utility.yul\":25083:25094   */\n      dup3\n        /* \"#utility.yul\":25070:25095   */\n      calldataload\n        /* \"#utility.yul\":25177:25179   */\n      0x5e\n        /* \"#utility.yul\":25173:25180   */\n      not\n        /* \"#utility.yul\":25162:25170   */\n      dup4\n        /* \"#utility.yul\":25146:25160   */\n      calldatasize\n        /* \"#utility.yul\":25142:25171   */\n      sub\n        /* \"#utility.yul\":25138:25181   */\n      add\n        /* \"#utility.yul\":25118:25136   */\n      dup2\n        /* \"#utility.yul\":25114:25182   */\n      slt\n        /* \"#utility.yul\":25104:25200   */\n      tag_809\n      jumpi\n        /* \"#utility.yul\":25196:25197   */\n      0x00\n        /* \"#utility.yul\":25193:25194   */\n      0x00\n        /* \"#utility.yul\":25186:25198   */\n      revert\n        /* \"#utility.yul\":25261:25577   */\n    tag_440:\n        /* \"#utility.yul\":25446:25448   */\n      0x40\n        /* \"#utility.yul\":25435:25444   */\n      dup2\n        /* \"#utility.yul\":25428:25449   */\n      mstore\n        /* \"#utility.yul\":25409:25413   */\n      0x00\n        /* \"#utility.yul\":25466:25528   */\n      tag_852\n        /* \"#utility.yul\":25524:25526   */\n      0x40\n        /* \"#utility.yul\":25513:25522   */\n      dup4\n        /* \"#utility.yul\":25509:25527   */\n      add\n        /* \"#utility.yul\":25501:25507   */\n      dup6\n        /* \"#utility.yul\":25493:25499   */\n      dup8\n        /* \"#utility.yul\":25466:25528   */\n      tag_662\n      jump\t// in\n    tag_852:\n        /* \"#utility.yul\":25458:25528   */\n      swap1\n      pop\n        /* \"#utility.yul\":25564:25570   */\n      dup3\n        /* \"#utility.yul\":25559:25561   */\n      0x20\n        /* \"#utility.yul\":25548:25557   */\n      dup4\n        /* \"#utility.yul\":25544:25562   */\n      add\n        /* \"#utility.yul\":25537:25571   */\n      mstore\n        /* \"#utility.yul\":25261:25577   */\n      swap5\n      swap4\n      pop\n      pop\n      pop\n      pop\n      jump\t// out\n        /* \"#utility.yul\":25582:25969   */\n    tag_457:\n        /* \"#utility.yul\":25795:25797   */\n      0x60\n        /* \"#utility.yul\":25784:25793   */\n      dup2\n        /* \"#utility.yul\":25777:25798   */\n      mstore\n        /* \"#utility.yul\":25758:25762   */\n      0x00\n        /* \"#utility.yul\":25815:25877   */\n      tag_854\n        /* \"#utility.yul\":25873:25875   */\n      0x60\n        /* \"#utility.yul\":25862:25871   */\n      dup4\n        /* \"#utility.yul\":25858:25876   */\n      add\n        /* \"#utility.yul\":25850:25856   */\n      dup7\n        /* \"#utility.yul\":25842:25848   */\n      dup9\n        /* \"#utility.yul\":25815:25877   */\n      tag_662\n      jump\t// in\n    tag_854:\n        /* \"#utility.yul\":25908:25910   */\n      0x20\n        /* \"#utility.yul\":25893:25911   */\n      dup4\n      add\n        /* \"#utility.yul\":25886:25920   */\n      swap5\n      swap1\n      swap5\n      mstore\n      pop\n        /* \"#utility.yul\":25951:25953   */\n      0x40\n        /* \"#utility.yul\":25936:25954   */\n      add\n        /* \"#utility.yul\":25929:25963   */\n      mstore\n        /* \"#utility.yul\":25807:25877   */\n      swap3\n        /* \"#utility.yul\":25582:25969   */\n      swap2\n      pop\n      pop\n      jump\t// out\n        /* \"#utility.yul\":27304:28272   */\n    tag_637:\n        /* \"#utility.yul\":27476:27482   */\n      dup3\n        /* \"#utility.yul\":27465:27474   */\n      dup2\n        /* \"#utility.yul\":27458:27483   */\n      mstore\n        /* \"#utility.yul\":27519:27521   */\n      0x40\n        /* \"#utility.yul\":27514:27516   */\n      0x20\n        /* \"#utility.yul\":27503:27512   */\n      dup3\n        /* \"#utility.yul\":27499:27517   */\n      add\n        /* \"#utility.yul\":27492:27522   */\n      mstore\n        /* \"#utility.yul\":27439:27443   */\n      0x00\n        /* \"#utility.yul\":27542:27543   */\n      0x00\n        /* \"#utility.yul\":27575:27581   */\n      dup4\n        /* \"#utility.yul\":27569:27582   */\n      sload\n        /* \"#utility.yul\":27605:27641   */\n      tag_861\n        /* \"#utility.yul\":27631:27640   */\n      dup2\n        /* \"#utility.yul\":27605:27641   */\n      tag_169\n      jump\t// in\n    tag_861:\n        /* \"#utility.yul\":27677:27683   */\n      dup1\n        /* \"#utility.yul\":27672:27674   */\n      0x40\n        /* \"#utility.yul\":27661:27670   */\n      dup7\n        /* \"#utility.yul\":27657:27675   */\n      add\n        /* \"#utility.yul\":27650:27684   */\n      mstore\n        /* \"#utility.yul\":27715:27716   */\n      0x01\n        /* \"#utility.yul\":27704:27713   */\n      dup3\n        /* \"#utility.yul\":27700:27717   */\n      and\n        /* \"#utility.yul\":27731:27732   */\n      0x00\n        /* \"#utility.yul\":27726:27884   */\n      dup2\n      eq\n      tag_863\n      jumpi\n        /* \"#utility.yul\":27898:27899   */\n      0x01\n        /* \"#utility.yul\":27893:28246   */\n      dup2\n      eq\n      tag_864\n      jumpi\n        /* \"#utility.yul\":27693:28246   */\n      jump(tag_862)\n        /* \"#utility.yul\":27726:27884   */\n    tag_863:\n        /* \"#utility.yul\":27793:27796   */\n      0xff\n        /* \"#utility.yul\":27789:27797   */\n      not\n        /* \"#utility.yul\":27778:27787   */\n      dup4\n        /* \"#utility.yul\":27774:27798   */\n      and\n        /* \"#utility.yul\":27769:27771   */\n      0x60\n        /* \"#utility.yul\":27758:27767   */\n      dup8\n        /* \"#utility.yul\":27754:27772   */\n      add\n        /* \"#utility.yul\":27747:27799   */\n      mstore\n        /* \"#utility.yul\":27871:27873   */\n      0x60\n        /* \"#utility.yul\":27859:27865   */\n      dup3\n        /* \"#utility.yul\":27852:27866   */\n      iszero\n        /* \"#utility.yul\":27845:27867   */\n      iszero\n        /* \"#utility.yul\":27842:27843   */\n      0x05\n        /* \"#utility.yul\":27838:27868   */\n      shl\n        /* \"#utility.yul\":27827:27836   */\n      dup8\n        /* \"#utility.yul\":27823:27869   */\n      add\n        /* \"#utility.yul\":27819:27874   */\n      add\n        /* \"#utility.yul\":27812:27874   */\n      swap4\n      pop\n        /* \"#utility.yul\":27726:27884   */\n      jump(tag_862)\n        /* \"#utility.yul\":27893:28246   */\n    tag_864:\n        /* \"#utility.yul\":27924:27930   */\n      dup7\n        /* \"#utility.yul\":27921:27922   */\n      0x00\n        /* \"#utility.yul\":27914:27931   */\n      mstore\n        /* \"#utility.yul\":27972:27974   */\n      0x20\n        /* \"#utility.yul\":27969:27970   */\n      0x00\n        /* \"#utility.yul\":27959:27975   */\n      keccak256\n        /* \"#utility.yul\":27997:27998   */\n      0x00\n        /* \"#utility.yul\":28011:28190   */\n    tag_865:\n        /* \"#utility.yul\":28025:28031   */\n      dup4\n        /* \"#utility.yul\":28022:28023   */\n      dup2\n        /* \"#utility.yul\":28019:28032   */\n      lt\n        /* \"#utility.yul\":28011:28190   */\n      iszero\n      tag_867\n      jumpi\n        /* \"#utility.yul\":28118:28132   */\n      dup2\n      sload\n        /* \"#utility.yul\":28094:28111   */\n      dup9\n      dup3\n      add\n        /* \"#utility.yul\":28113:28115   */\n      0x60\n        /* \"#utility.yul\":28090:28116   */\n      add\n        /* \"#utility.yul\":28083:28133   */\n      mstore\n        /* \"#utility.yul\":28174:28175   */\n      0x01\n        /* \"#utility.yul\":28161:28176   */\n      swap1\n      swap2\n      add\n      swap1\n        /* \"#utility.yul\":28047:28049   */\n      0x20\n        /* \"#utility.yul\":28040:28050   */\n      add\n        /* \"#utility.yul\":28011:28190   */\n      jump(tag_865)\n    tag_867:\n        /* \"#utility.yul\":28214:28231   */\n      dup8\n      add\n        /* \"#utility.yul\":28233:28235   */\n      0x60\n        /* \"#utility.yul\":28210:28236   */\n      add\n      swap5\n      pop\n      pop\n        /* \"#utility.yul\":27693:28246   */\n    tag_862:\n      pop\n        /* \"#utility.yul\":28263:28266   */\n      swap2\n      swap7\n        /* \"#utility.yul\":27304:28272   */\n      swap6\n      pop\n      pop\n      pop\n      pop\n      pop\n      pop\n      jump\t// out\n\n    auxdata: 0xa264697066735822122037e30618bdbbdc6a92f1fbee79ef4e69beba5fbf0cd326aaf34bc457120b05ea64736f6c634300081e0033\n}\n",
				"bytecode": {
					"linkReferences": {},
					"object": "60806040526004805460ff191690556001601855348015601d575f5ffd5b503380604257604051631e4fbdf760e01b81525f600482015260240160405180910390fd5b604981605c565b506015805460ff191690555f60115560ab565b5f80546001600160a01b038381166001600160a01b0319831681178455604051919092169283917f8be0079c531659141344cd1fd0a4f28419497f9722a3daafe3b4186f6b6457e09190a35050565b612edf806100b85f395ff3fe608060405234801561000f575f5ffd5b50600436106101e7575f3560e01c80638da5cb5b11610109578063e642566f1161009e578063f2fde38b1161006e578063f2fde38b1461045b578063f42191de1461046e578063f44f031a1461048e578063fec53907146104a1575f5ffd5b8063e642566f14610410578063ea7fbd641461042d578063f1e52d1d14610440578063f25ab9c914610448575f5ffd5b8063b1950a37116100d9578063b1950a37146103c4578063b2cec9ef146103d7578063ca848e6a146103ea578063e337d7cf146103fd575f5ffd5b80638da5cb5b14610357578063977ddf371461037157806399670fea1461037a578063ac57e64e146103bc575f5ffd5b80633afa9a2e1161017f578063740fb0d21161014f578063740fb0d2146102f65780637e3fb6ca146103195780637e767e141461032e57806386b287181461034e575f5ffd5b80633afa9a2e146102c05780633fab3dd6146102d3578063440c1ec9146102e6578063715018a6146102ee575f5ffd5b80632e4d0321116101ba5780632e4d03211461026a5780632f66b0111461027f5780632f85909b1461028757806330400a3a1461029c575f5ffd5b80630acd704e146101eb5780630f549423146102165780632243e32614610233578063298fc80514610253575b5f5ffd5b6101fe6101f936600461225e565b6104c4565b60405161020d9392919061233c565b60405180910390f35b6004546102239060ff1681565b604051901515815260200161020d565b610246610241366004612360565b610577565b60405161020d9190612377565b61025c60035481565b60405190815260200161020d565b61027d6102783660046123e7565b61061d565b005b61027d610851565b61028f6108ae565b60405161020d919061243c565b6102af6102aa366004612360565b610982565b60405161020d95949392919061249f565b61027d6102ce3660046124de565b610a54565b61027d6102e136600461250d565b610aca565b61027d610c76565b61027d610cd3565b61030961030436600461225e565b610ce4565b60405161020d9493929190612554565b610321610e23565b60405161020d919061258c565b61034161033c366004612620565b610f3c565b60405161020d919061265e565b61025c600f5481565b5f546040516001600160a01b03909116815260200161020d565b61025c60105481565b600554600654600754600854600954610394949392919085565b604080519586526020860194909452928401919091526060830152608082015260a00161020d565b61027d6110cc565b61027d6103d23660046126f7565b611123565b61027d6103e5366004612360565b6114b1565b61027d6103f8366004612620565b61154e565b61027d61040b366004612768565b611702565b6104186117cc565b60405161020d999897969594939291906127ce565b61027d61043b366004612836565b611894565b610321611947565b61027d610456366004612895565b611a60565b61027d6104693660046128f7565b611c91565b61048161047c366004612620565b611ccb565b60405161020d919061291d565b6102af61049c366004612360565b611dc3565b6001546002546104af919082565b6040805192835260208301919091520161020d565b8051602081830181018051600a825292820191909301209152805481906104ea90612958565b80601f016020809104026020016040519081016040528092919081815260200182805461051690612958565b80156105615780601f1061053857610100808354040283529160200191610561565b820191905f5260205f20905b81548152906001019060200180831161054457829003601f168201915b5050505050908060010154908060020154905083565b600b8181548110610586575f80fd5b905f5260205f20015f91509050805461059e90612958565b80601f01602080910402602001604051908101604052809291908181526020018280546105ca90612958565b80156106155780601f106105ec57610100808354040283529160200191610615565b820191905f5260205f20905b8154815290600101906020018083116105f857829003601f168201915b505050505081565b610625611dd2565b600184600c8111156106395761063961279a565b14806106565750600284600c8111156106545761065461279a565b145b806106725750600384600c8111156106705761067061279a565b145b8061068e5750600484600c81111561068c5761068c61279a565b145b806106aa5750600584600c8111156106a8576106a861279a565b145b806106c65750600684600c8111156106c4576106c461279a565b145b806106e25750600b84600c8111156106e0576106e061279a565b145b806106fe5750600c84600c8111156106fc576106fc61279a565b145b6107755760405162461bcd60e51b815260206004820152603760248201527f44617368626f6172643a20496e76616c696420636f6e646974696f6e20666f7260448201527f2073696e676c65207468726573686f6c6420616c65727400000000000000000060648201526084015b60405180910390fd5b6011545f036107955760188054905f61078d836129a4565b909155506011555b60128054336001600160a01b03198216811783558692916001600160a81b03191660ff60a01b1990911617600160a01b83600c8111156107d7576107d761279a565b021790555060138390555f60145560176107f2828483612a1b565b506015805461ffff191660011790555f601681905560115460405133927f778334af3114ade8967680fbf1e80e8e34dbe95416246aaef26907ae22cdd3589161084391899189919089908990612af7565b60405180910390a350505050565b610859611dd2565b6011541580159061086d575060155460ff16155b156108ac576015805461ffff191660011790556011546040517f5b2a724a870cf7fe2c83bd903795d3ba6163ee1091a97587edf93ff866e22965905f90a25b565b6060600b805480602002602001604051908101604052809291908181526020015f905b82821015610979578382905f5260205f200180546108ee90612958565b80601f016020809104026020016040519081016040528092919081815260200182805461091a90612958565b80156109655780601f1061093c57610100808354040283529160200191610965565b820191905f5260205f20905b81548152906001019060200180831161094857829003601f168201915b5050505050815260200190600101906108d1565b50505050905090565b600d8181548110610991575f80fd5b905f5260205f2090600502015f91509050805f0180546109b090612958565b80601f01602080910402602001604051908101604052809291908181526020018280546109dc90612958565b8015610a275780601f106109fe57610100808354040283529160200191610a27565b820191905f5260205f20905b815481529060010190602001808311610a0a57829003601f168201915b5050505060018301546002840154600385015460049095015493946001600160a01b039092169390925085565b610a5c611dd2565b60058490556006839055600782905560088190554260098190556040805186815260208101869052808201859052606081018490526080810192909252517f08ecd0c5f0d0f300fe6241546a3cc8c4f4dc6f4573ed292c6ffbd86a833530359181900360a00190a150505050565b610ad2611dd2565b5f600a8484604051610ae5929190612b2e565b90815260405190819003602001902090505f805b600b54811015610b83578585604051602001610b16929190612b2e565b60405160208183030381529060405280519060200120600b8281548110610b3f57610b3f612b3d565b905f5260205f2001604051602001610b579190612b51565b6040516020818303038152906040528051906020012003610b7b5760019150610b83565b600101610af9565b5080610c0657600b80546001810182555f919091527f0175b7a638427703f0dbe7bb9bbf987a2551717b34e79f33b5b1008d1fa01db901610bc5858783612a1b565b508484604051610bd6929190612b2e565b604051908190038120907f81c6dad8fc2e53ed05f364a56d3df0f0836727eeca7d52c4c25f995362a02744905f90a25b81610c12858783612a1b565b5060018201839055426002830155604051610c309086908690612b2e565b60408051918290038220858352426020840152917f30167b93764fad9e40ce98169f9156f222d6ca60145c01b3509119b8d413ed6f910160405180910390a25050505050565b610c7e611dd2565b60115415801590610c965750601554610100900460ff165b156108ac576015805461ff00191690556011546040517fc26f9c3201044d3757e27488cd192595aaf8b176842b2175ef47a4cdf1a53952905f90a2565b610cdb611dd2565b6108ac5f611dfe565b8051602081830181018051600c82529282019190930120915280548190610d0a90612958565b80601f0160208091040260200160405190810160405280929190818152602001828054610d3690612958565b8015610d815780601f10610d5857610100808354040283529160200191610d81565b820191905f5260205f20905b815481529060010190602001808311610d6457829003601f168201915b505050505090806001018054610d9690612958565b80601f0160208091040260200160405190810160405280929190818152602001828054610dc290612958565b8015610e0d5780601f10610de457610100808354040283529160200191610e0d565b820191905f5260205f20905b815481529060010190602001808311610df057829003601f168201915b5050505050908060020154908060030154905084565b6060600e805480602002602001604051908101604052809291908181526020015f905b82821015610979578382905f5260205f2090600502016040518060a00160405290815f82018054610e7690612958565b80601f0160208091040260200160405190810160405280929190818152602001828054610ea290612958565b8015610eed5780601f10610ec457610100808354040283529160200191610eed565b820191905f5260205f20905b815481529060010190602001808311610ed057829003601f168201915b50505091835250506001828101546001600160a01b0316602080840191909152600284015460408401526003840154606084015260049093015460809092019190915291835292019101610e46565b610f65604051806080016040528060608152602001606081526020015f81526020015f81525090565b600c8383604051610f77929190612b2e565b90815260200160405180910390206040518060800160405290815f82018054610f9f90612958565b80601f0160208091040260200160405190810160405280929190818152602001828054610fcb90612958565b80156110165780601f10610fed57610100808354040283529160200191611016565b820191905f5260205f20905b815481529060010190602001808311610ff957829003601f168201915b5050505050815260200160018201805461102f90612958565b80601f016020809104026020016040519081016040528092919081815260200182805461105b90612958565b80156110a65780601f1061107d576101008083540402835291602001916110a6565b820191905f5260205f20905b81548152906001019060200180831161108957829003601f168201915b505050505081526020016002820154815260200160038201548152505090505b92915050565b6110d4611dd2565b601154158015906110e7575060155460ff165b156108ac576015805460ff191690556011546040517fd7d997a7d5bb0e259c4bcbf9213b950fc2d302d3d30540c7671b3c2e6d33088d905f90a2565b61112b611dd2565b611136600d5f61219b565b5f5b848110156112c757600d6040518060a0016040528088888581811061115f5761115f612b3d565b90506020028101906111719190612bc2565b61117b9080612be0565b8080601f0160208091040260200160405190810160405280939291908181526020018383808284375f920191909152505050908252506020018888858181106111c6576111c6612b3d565b90506020028101906111d89190612bc2565b6111e99060408101906020016128f7565b6001600160a01b0316815260200188888581811061120957611209612b3d565b905060200281019061121b9190612bc2565b60400135815260200188888581811061123657611236612b3d565b90506020028101906112489190612bc2565b6060013581524260209182015282546001810184555f938452922081519192600502019081906112789082612c22565b506020820151600182810180546001600160a01b0319166001600160a01b0390931692909217909155604083015160028301556060830151600383015560809092015160049091015501611138565b506112d3600e5f61219b565b5f5b8281101561146457600e6040518060a001604052808686858181106112fc576112fc612b3d565b905060200281019061130e9190612bc2565b6113189080612be0565b8080601f0160208091040260200160405190810160405280939291908181526020018383808284375f9201919091525050509082525060200186868581811061136357611363612b3d565b90506020028101906113759190612bc2565b6113869060408101906020016128f7565b6001600160a01b031681526020018686858181106113a6576113a6612b3d565b90506020028101906113b89190612bc2565b6040013581526020018686858181106113d3576113d3612b3d565b90506020028101906113e59190612bc2565b6060013581524260209182015282546001810184555f938452922081519192600502019081906114159082612c22565b506020820151600182810180546001600160a01b0319166001600160a01b03909316929092179091556040830151600283015560608301516003830155608090920151600490910155016112d5565b50600f8190554260108190556040805183815260208101929092527fadf8225e8e3a7ce8aaabd2d8357177b1a9937694639e8488214b2f12c18146ee910160405180910390a15050505050565b6114b9611dd2565b60045460ff16806114cb575060025415155b156114db576001546003556114e1565b60038190555b6004805460ff191660019081179091558190554260028190556040805183815260208101929092527f475cae5b1b67b8f03aba6a9d0442b263224ee619fa6fb913c08d9edf37904b8c910160405180910390a160015460035460045461154b92919060ff16611e4d565b50565b611556611dd2565b5f80805b600b548110156115e7578484604051602001611577929190612b2e565b60405160208183030381529060405280519060200120600b82815481106115a0576115a0612b3d565b905f5260205f20016040516020016115b89190612b51565b60405160208183030381529060405280519060200120036115df57600192508091506115e7565b60010161155a565b5081156116fc57600a8484604051611600929190612b2e565b9081526040519081900360200190205f61161a82826121b9565b505f60018201819055600290910155600b541580159061163b5750600b5481105b156116fc57600b805461165090600190612cd7565b8154811061166057611660612b3d565b905f5260205f2001600b828154811061167b5761167b612b3d565b905f5260205f2001908161168f9190612cea565b50600b8054806116a1576116a1612daa565b600190038181905f5260205f20015f6116ba91906121b9565b905583836040516116cc929190612b2e565b604051908190038120907f39c9d1bc62fedff5608e7e91b88c9e3f6b7f4e9e9b184216521d36d88162fba4905f90a25b50505050565b61170a611dd2565b5f5b818110156117c75730633fab3dd684848481811061172c5761172c612b3d565b905060200281019061173e9190612dbe565b6117489080612be0565b86868681811061175a5761175a612b3d565b905060200281019061176c9190612dbe565b602001356040518463ffffffff1660e01b815260040161178e93929190612dd2565b5f604051808303815f87803b1580156117a5575f5ffd5b505af11580156117b7573d5f5f3e3d5ffd5b50506001909201915061170c9050565b505050565b601180546012546013546014546015546016546017805496976001600160a01b0387169760ff600160a01b9098048816978581169561010090041693929061181390612958565b80601f016020809104026020016040519081016040528092919081815260200182805461183f90612958565b801561188a5780601f106118615761010080835404028352916020019161188a565b820191905f5260205f20905b81548152906001019060200180831161186d57829003601f168201915b5050505050905089565b61189c611dd2565b5f600c86866040516118af929190612b2e565b9081526040519081900360200190209050806118cc868883612a1b565b50600181016118dc848683612a1b565b50600281018290554260038201556040516118fa9087908790612b2e565b60405180910390207f6980cc14623a9e2e782881dd8347e20ebd89e558191566e01e8cc11e9066f068858585426040516119379493929190612df5565b60405180910390a2505050505050565b6060600d805480602002602001604051908101604052809291908181526020015f905b82821015610979578382905f5260205f2090600502016040518060a00160405290815f8201805461199a90612958565b80601f01602080910402602001604051908101604052809291908181526020018280546119c690612958565b8015611a115780601f106119e857610100808354040283529160200191611a11565b820191905f5260205f20905b8154815290600101906020018083116119f457829003601f168201915b50505091835250506001828101546001600160a01b031660208084019190915260028401546040840152600384015460608401526004909301546080909201919091529183529201910161196a565b611a68611dd2565b600785600c811115611a7c57611a7c61279a565b1480611a995750600885600c811115611a9757611a9761279a565b145b80611ab55750600985600c811115611ab357611ab361279a565b145b80611ad15750600a85600c811115611acf57611acf61279a565b145b611b345760405162461bcd60e51b815260206004820152602e60248201527f44617368626f6172643a20496e76616c696420636f6e646974696f6e20666f7260448201526d0818da185b9b995b08185b195c9d60921b606482015260840161076c565b828403611b975760405162461bcd60e51b815260206004820152602b60248201527f44617368626f6172643a204368616e6e656c20626f756e6473206d757374206260448201526a1948191a5999995c995b9d60aa1b606482015260840161076c565b6011545f03611bb75760188054905f611baf836129a4565b909155506011555b60128054336001600160a01b03198216811783558792916001600160a81b03191660ff60a01b1990911617600160a01b83600c811115611bf957611bf961279a565b021790555082841215611c155760138490556014839055611c20565b601383905560148490555b6017611c2d828483612a1b565b506015805461ffff191660011790555f6016556011546013546014546040513393927f778334af3114ade8967680fbf1e80e8e34dbe95416246aaef26907ae22cdd35892611c82928b92919089908990612af7565b60405180910390a35050505050565b611c99611dd2565b6001600160a01b038116611cc257604051631e4fbdf760e01b81525f600482015260240161076c565b61154b81611dfe565b611ced6040518060600160405280606081526020015f81526020015f81525090565b600a8383604051611cff929190612b2e565b90815260200160405180910390206040518060600160405290815f82018054611d2790612958565b80601f0160208091040260200160405190810160405280929190818152602001828054611d5390612958565b8015611d9e5780601f10611d7557610100808354040283529160200191611d9e565b820191905f5260205f20905b815481529060010190602001808311611d8157829003601f168201915b5050505050815260200160018201548152602001600282015481525050905092915050565b600e8181548110610991575f80fd5b5f546001600160a01b031633146108ac5760405163118cdaa760e01b815233600482015260240161076c565b5f80546001600160a01b038381166001600160a01b0319831681178455604051919092169283917f8be0079c531659141344cd1fd0a4f28419497f9722a3daafe3b4186f6b6457e09190a35050565b60155460ff161580611e665750601554610100900460ff165b80611e715750601154155b15611e7b57505050565b6012546013546014545f92600160a01b900460ff1691908190600184600c811115611ea857611ea861279a565b03611ebf5782881315611eba57600194505b61212a565b600284600c811115611ed357611ed361279a565b03611ee95782881215611eba576001945061212a565b600384600c811115611efd57611efd61279a565b03611f1257828803611eba576001945061212a565b851561212a57600484600c811115611f2c57611f2c61279a565b03611f63578287128015611f405750828812155b80611f5557508287138015611f555750828813155b15611eba576001945061212a565b600584600c811115611f7757611f7761279a565b03611f96578287128015611f555750828812611eba576001945061212a565b600684600c811115611faa57611faa61279a565b03611fc9578287138015611f555750828813611eba576001945061212a565b600784600c811115611fdd57611fdd61279a565b03612020575f82881280611ff057508188135b90505f838a121580156120035750828a13155b905081801561200f5750805b1561201957600196505b505061212a565b600884600c8111156120345761203461279a565b03612073575f82881215801561204a5750818813155b90505f838a128061200357505081891381801561200f575080156120195760019650505061212a565b600984600c8111156120875761208761279a565b036120a757818812158015611f555750808813611eba576001945061212a565b600a84600c8111156120bb576120bb61279a565b036120da5781881280611f55575080881315611eba576001945061212a565b600b84600c8111156120ee576120ee61279a565b036121045786881315611eba576001945061212a565b600c84600c8111156121185761211861279a565b0361212a578688121561212a57600194505b8415612191576015805461ff001916610100179055426016556012546011546040516001600160a01b03909216917f601cdb1cd0f27fc0f4bad78847fbd1402a286180590e1019934014e93e922a0f90612188908c90601790612e1b565b60405180910390a35b5050505050505050565b5080545f8255600502905f5260205f209081019061154b91906121f0565b5080546121c590612958565b5f825580601f106121d4575050565b601f0160209004905f5260205f209081019061154b9190612236565b80821115612232575f61220382826121b9565b506001810180546001600160a01b03191690555f600282018190556003820181905560048201556005016121f0565b5090565b5b80821115612232575f8155600101612237565b634e487b7160e01b5f52604160045260245ffd5b5f6020828403121561226e575f5ffd5b81356001600160401b03811115612283575f5ffd5b8201601f81018413612293575f5ffd5b80356001600160401b038111156122ac576122ac61224a565b604051601f8201601f19908116603f011681016001600160401b03811182821017156122da576122da61224a565b6040528181528282016020018610156122f1575f5ffd5b816020840160208301375f91810160200191909152949350505050565b5f81518084528060208401602086015e5f602082860101526020601f19601f83011685010191505092915050565b606081525f61234e606083018661230e565b60208301949094525060400152919050565b5f60208284031215612370575f5ffd5b5035919050565b602081525f612389602083018461230e565b9392505050565b8035600d811061239e575f5ffd5b919050565b5f5f83601f8401126123b3575f5ffd5b5081356001600160401b038111156123c9575f5ffd5b6020830191508360208285010111156123e0575f5ffd5b9250929050565b5f5f5f5f606085870312156123fa575f5ffd5b61240385612390565b93506020850135925060408501356001600160401b03811115612424575f5ffd5b612430878288016123a3565b95989497509550505050565b5f602082016020835280845180835260408501915060408160051b8601019250602086015f5b8281101561249357603f1987860301845261247e85835161230e565b94506020938401939190910190600101612462565b50929695505050505050565b60a081525f6124b160a083018861230e565b6001600160a01b039690961660208301525060408101939093526060830191909152608090910152919050565b5f5f5f5f608085870312156124f1575f5ffd5b5050823594602084013594506040840135936060013592509050565b5f5f5f6040848603121561251f575f5ffd5b83356001600160401b03811115612534575f5ffd5b612540868287016123a3565b909790965060209590950135949350505050565b608081525f612566608083018761230e565b8281036020840152612578818761230e565b604084019590955250506060015292915050565b5f602082016020835280845180835260408501915060408160051b8601019250602086015f5b8281101561249357603f198786030184528151805160a087526125d860a088018261230e565b6020838101516001600160a01b031689820152604080850151908a0152606080850151908a0152608093840151939098019290925250949384019391909101906001016125b2565b5f5f60208385031215612631575f5ffd5b82356001600160401b03811115612646575f5ffd5b612652858286016123a3565b90969095509350505050565b602081525f82516080602084015261267960a084018261230e565b90506020840151601f19848303016040850152612696828261230e565b91505060408401516060840152606084015160808401528091505092915050565b5f5f83601f8401126126c7575f5ffd5b5081356001600160401b038111156126dd575f5ffd5b6020830191508360208260051b85010111156123e0575f5ffd5b5f5f5f5f5f6060868803121561270b575f5ffd5b85356001600160401b03811115612720575f5ffd5b61272c888289016126b7565b90965094505060208601356001600160401b0381111561274a575f5ffd5b612756888289016126b7565b96999598509660400135949350505050565b5f5f60208385031215612779575f5ffd5b82356001600160401b0381111561278e575f5ffd5b612652858286016126b7565b634e487b7160e01b5f52602160045260245ffd5b600d81106127ca57634e487b7160e01b5f52602160045260245ffd5b9052565b8981526001600160a01b03891660208201526127ed60408201896127ae565b86606082015285608082015284151560a082015283151560c08201528260e08201526101206101008201525f61282761012083018461230e565b9b9a5050505050505050505050565b5f5f5f5f5f6060868803121561284a575f5ffd5b85356001600160401b0381111561285f575f5ffd5b61286b888289016123a3565b90965094505060208601356001600160401b03811115612889575f5ffd5b612756888289016123a3565b5f5f5f5f5f608086880312156128a9575f5ffd5b6128b286612390565b9450602086013593506040860135925060608601356001600160401b038111156128da575f5ffd5b6128e6888289016123a3565b969995985093965092949392505050565b5f60208284031215612907575f5ffd5b81356001600160a01b0381168114612389575f5ffd5b602081525f825160606020840152612938608084018261230e565b905060208401516040840152604084015160608401528091505092915050565b600181811c9082168061296c57607f821691505b60208210810361298a57634e487b7160e01b5f52602260045260245ffd5b50919050565b634e487b7160e01b5f52601160045260245ffd5b5f600182016129b5576129b5612990565b5060010190565b601f8211156117c757805f5260205f20601f840160051c810160208510156129e15750805b601f840160051c820191505b81811015612a00575f81556001016129ed565b5050505050565b5f19600383901b1c191660019190911b1790565b6001600160401b03831115612a3257612a3261224a565b612a4683612a408354612958565b836129bc565b5f601f841160018114612a72575f8515612a605750838201355b612a6a8682612a07565b845550612a00565b5f83815260208120601f198716915b82811015612aa15786850135825560209485019460019092019101612a81565b5086821015612abd575f1960f88860031b161c19848701351681555b505060018560011b0183555050505050565b81835281816020850137505f828201602090810191909152601f909101601f19169091010190565b612b0181876127ae565b846020820152836040820152608060608201525f612b23608083018486612acf565b979650505050505050565b818382375f9101908152919050565b634e487b7160e01b5f52603260045260245ffd5b5f5f8354612b5e81612958565b600182168015612b755760018114612b8a57612bb7565b60ff1983168652811515820286019350612bb7565b865f5260205f205f5b83811015612baf57815488820152600190910190602001612b93565b505081860193505b509195945050505050565b5f8235609e19833603018112612bd6575f5ffd5b9190910192915050565b5f5f8335601e19843603018112612bf5575f5ffd5b8301803591506001600160401b03821115612c0e575f5ffd5b6020019150368190038213156123e0575f5ffd5b81516001600160401b03811115612c3b57612c3b61224a565b612c4f81612c498454612958565b846129bc565b6020601f821160018114612c7c575f8315612c6a5750848201515b612c748482612a07565b855550612a00565b5f84815260208120601f198516915b82811015612cab5787850151825560209485019460019092019101612c8b565b5084821015612cc857868401515f19600387901b60f8161c191681555b50505050600190811b01905550565b818103818111156110c6576110c6612990565b818103612cf5575050565b612cff8254612958565b6001600160401b03811115612d1657612d1661224a565b612d2481612c498454612958565b5f601f821160018114612d47575f8315612c6a575084820154612c748482612a07565b5f8581526020808220868352908220601f198616925b83811015612d7d5782860154825560019586019590910190602001612d5d565b5085831015612d9a57818501545f19600388901b60f8161c191681555b5050505050600190811b01905550565b634e487b7160e01b5f52603160045260245ffd5b5f8235605e19833603018112612bd6575f5ffd5b604081525f612de5604083018587612acf565b9050826020830152949350505050565b606081525f612e08606083018688612acf565b6020830194909452506040015292915050565b828152604060208201525f5f8354612e3281612958565b806040860152600182165f8114612e505760018114612e6c57612e9d565b60ff1983166060870152606082151560051b8701019350612e9d565b865f5260205f205f5b83811015612e9457815488820160600152600190910190602001612e75565b87016060019450505b5091969550505050505056fea264697066735822122037e30618bdbbdc6a92f1fbee79ef4e69beba5fbf0cd326aaf34bc457120b05ea64736f6c634300081e0033",
					"opcodes": "PUSH1 0x80 PUSH1 0x40 MSTORE PUSH1 0x4 DUP1 SLOAD PUSH1 0xFF NOT AND SWAP1 SSTORE PUSH1 0x1 PUSH1 0x18 SSTORE CALLVALUE DUP1 ISZERO PUSH1 0x1D JUMPI PUSH0 PUSH0 REVERT JUMPDEST POP CALLER DUP1 PUSH1 0x42 JUMPI PUSH1 0x40 MLOAD PUSH4 0x1E4FBDF7 PUSH1 0xE0 SHL DUP2 MSTORE PUSH0 PUSH1 0x4 DUP3 ADD MSTORE PUSH1 0x24 ADD PUSH1 0x40 MLOAD DUP1 SWAP2 SUB SWAP1 REVERT JUMPDEST PUSH1 0x49 DUP2 PUSH1 0x5C JUMP JUMPDEST POP PUSH1 0x15 DUP1 SLOAD PUSH1 0xFF NOT AND SWAP1 SSTORE PUSH0 PUSH1 0x11 SSTORE PUSH1 0xAB JUMP JUMPDEST PUSH0 DUP1 SLOAD PUSH1 0x1 PUSH1 0x1 PUSH1 0xA0 SHL SUB DUP4 DUP2 AND PUSH1 0x1 PUSH1 0x1 PUSH1 0xA0 SHL SUB NOT DUP4 AND DUP2 OR DUP5 SSTORE PUSH1 0x40 MLOAD SWAP2 SWAP1 SWAP3 AND SWAP3 DUP4 SWAP2 PUSH32 0x8BE0079C531659141344CD1FD0A4F28419497F9722A3DAAFE3B4186F6B6457E0 SWAP2 SWAP1 LOG3 POP POP JUMP JUMPDEST PUSH2 0x2EDF DUP1 PUSH2 0xB8 PUSH0 CODECOPY PUSH0 RETURN INVALID PUSH1 0x80 PUSH1 0x40 MSTORE CALLVALUE DUP1 ISZERO PUSH2 0xF JUMPI PUSH0 PUSH0 REVERT JUMPDEST POP PUSH1 0x4 CALLDATASIZE LT PUSH2 0x1E7 JUMPI PUSH0 CALLDATALOAD PUSH1 0xE0 SHR DUP1 PUSH4 0x8DA5CB5B GT PUSH2 0x109 JUMPI DUP1 PUSH4 0xE642566F GT PUSH2 0x9E JUMPI DUP1 PUSH4 0xF2FDE38B GT PUSH2 0x6E JUMPI DUP1 PUSH4 0xF2FDE38B EQ PUSH2 0x45B JUMPI DUP1 PUSH4 0xF42191DE EQ PUSH2 0x46E JUMPI DUP1 PUSH4 0xF44F031A EQ PUSH2 0x48E JUMPI DUP1 PUSH4 0xFEC53907 EQ PUSH2 0x4A1 JUMPI PUSH0 PUSH0 REVERT JUMPDEST DUP1 PUSH4 0xE642566F EQ PUSH2 0x410 JUMPI DUP1 PUSH4 0xEA7FBD64 EQ PUSH2 0x42D JUMPI DUP1 PUSH4 0xF1E52D1D EQ PUSH2 0x440 JUMPI DUP1 PUSH4 0xF25AB9C9 EQ PUSH2 0x448 JUMPI PUSH0 PUSH0 REVERT JUMPDEST DUP1 PUSH4 0xB1950A37 GT PUSH2 0xD9 JUMPI DUP1 PUSH4 0xB1950A37 EQ PUSH2 0x3C4 JUMPI DUP1 PUSH4 0xB2CEC9EF EQ PUSH2 0x3D7 JUMPI DUP1 PUSH4 0xCA848E6A EQ PUSH2 0x3EA JUMPI DUP1 PUSH4 0xE337D7CF EQ PUSH2 0x3FD JUMPI PUSH0 PUSH0 REVERT JUMPDEST DUP1 PUSH4 0x8DA5CB5B EQ PUSH2 0x357 JUMPI DUP1 PUSH4 0x977DDF37 EQ PUSH2 0x371 JUMPI DUP1 PUSH4 0x99670FEA EQ PUSH2 0x37A JUMPI DUP1 PUSH4 0xAC57E64E EQ PUSH2 0x3BC JUMPI PUSH0 PUSH0 REVERT JUMPDEST DUP1 PUSH4 0x3AFA9A2E GT PUSH2 0x17F JUMPI DUP1 PUSH4 0x740FB0D2 GT PUSH2 0x14F JUMPI DUP1 PUSH4 0x740FB0D2 EQ PUSH2 0x2F6 JUMPI DUP1 PUSH4 0x7E3FB6CA EQ PUSH2 0x319 JUMPI DUP1 PUSH4 0x7E767E14 EQ PUSH2 0x32E JUMPI DUP1 PUSH4 0x86B28718 EQ PUSH2 0x34E JUMPI PUSH0 PUSH0 REVERT JUMPDEST DUP1 PUSH4 0x3AFA9A2E EQ PUSH2 0x2C0 JUMPI DUP1 PUSH4 0x3FAB3DD6 EQ PUSH2 0x2D3 JUMPI DUP1 PUSH4 0x440C1EC9 EQ PUSH2 0x2E6 JUMPI DUP1 PUSH4 0x715018A6 EQ PUSH2 0x2EE JUMPI PUSH0 PUSH0 REVERT JUMPDEST DUP1 PUSH4 0x2E4D0321 GT PUSH2 0x1BA JUMPI DUP1 PUSH4 0x2E4D0321 EQ PUSH2 0x26A JUMPI DUP1 PUSH4 0x2F66B011 EQ PUSH2 0x27F JUMPI DUP1 PUSH4 0x2F85909B EQ PUSH2 0x287 JUMPI DUP1 PUSH4 0x30400A3A EQ PUSH2 0x29C JUMPI PUSH0 PUSH0 REVERT JUMPDEST DUP1 PUSH4 0xACD704E EQ PUSH2 0x1EB JUMPI DUP1 PUSH4 0xF549423 EQ PUSH2 0x216 JUMPI DUP1 PUSH4 0x2243E326 EQ PUSH2 0x233 JUMPI DUP1 PUSH4 0x298FC805 EQ PUSH2 0x253 JUMPI JUMPDEST PUSH0 PUSH0 REVERT JUMPDEST PUSH2 0x1FE PUSH2 0x1F9 CALLDATASIZE PUSH1 0x4 PUSH2 0x225E JUMP JUMPDEST PUSH2 0x4C4 JUMP JUMPDEST PUSH1 0x40 MLOAD PUSH2 0x20D SWAP4 SWAP3 SWAP2 SWAP1 PUSH2 0x233C JUMP JUMPDEST PUSH1 0x40 MLOAD DUP1 SWAP2 SUB SWAP1 RETURN JUMPDEST PUSH1 0x4 SLOAD PUSH2 0x223 SWAP1 PUSH1 0xFF AND DUP2 JUMP JUMPDEST PUSH1 0x40 MLOAD SWAP1 ISZERO ISZERO DUP2 MSTORE PUSH1 0x20 ADD PUSH2 0x20D JUMP JUMPDEST PUSH2 0x246 PUSH2 0x241 CALLDATASIZE PUSH1 0x4 PUSH2 0x2360 JUMP JUMPDEST PUSH2 0x577 JUMP JUMPDEST PUSH1 0x40 MLOAD PUSH2 0x20D SWAP2 SWAP1 PUSH2 0x2377 JUMP JUMPDEST PUSH2 0x25C PUSH1 0x3 SLOAD DUP2 JUMP JUMPDEST PUSH1 0x40 MLOAD SWAP1 DUP2 MSTORE PUSH1 0x20 ADD PUSH2 0x20D JUMP JUMPDEST PUSH2 0x27D PUSH2 0x278 CALLDATASIZE PUSH1 0x4 PUSH2 0x23E7 JUMP JUMPDEST PUSH2 0x61D JUMP JUMPDEST STOP JUMPDEST PUSH2 0x27D PUSH2 0x851 JUMP JUMPDEST PUSH2 0x28F PUSH2 0x8AE JUMP JUMPDEST PUSH1 0x40 MLOAD PUSH2 0x20D SWAP2 SWAP1 PUSH2 0x243C JUMP JUMPDEST PUSH2 0x2AF PUSH2 0x2AA CALLDATASIZE PUSH1 0x4 PUSH2 0x2360 JUMP JUMPDEST PUSH2 0x982 JUMP JUMPDEST PUSH1 0x40 MLOAD PUSH2 0x20D SWAP6 SWAP5 SWAP4 SWAP3 SWAP2 SWAP1 PUSH2 0x249F JUMP JUMPDEST PUSH2 0x27D PUSH2 0x2CE CALLDATASIZE PUSH1 0x4 PUSH2 0x24DE JUMP JUMPDEST PUSH2 0xA54 JUMP JUMPDEST PUSH2 0x27D PUSH2 0x2E1 CALLDATASIZE PUSH1 0x4 PUSH2 0x250D JUMP JUMPDEST PUSH2 0xACA JUMP JUMPDEST PUSH2 0x27D PUSH2 0xC76 JUMP JUMPDEST PUSH2 0x27D PUSH2 0xCD3 JUMP JUMPDEST PUSH2 0x309 PUSH2 0x304 CALLDATASIZE PUSH1 0x4 PUSH2 0x225E JUMP JUMPDEST PUSH2 0xCE4 JUMP JUMPDEST PUSH1 0x40 MLOAD PUSH2 0x20D SWAP5 SWAP4 SWAP3 SWAP2 SWAP1 PUSH2 0x2554 JUMP JUMPDEST PUSH2 0x321 PUSH2 0xE23 JUMP JUMPDEST PUSH1 0x40 MLOAD PUSH2 0x20D SWAP2 SWAP1 PUSH2 0x258C JUMP JUMPDEST PUSH2 0x341 PUSH2 0x33C CALLDATASIZE PUSH1 0x4 PUSH2 0x2620 JUMP JUMPDEST PUSH2 0xF3C JUMP JUMPDEST PUSH1 0x40 MLOAD PUSH2 0x20D SWAP2 SWAP1 PUSH2 0x265E JUMP JUMPDEST PUSH2 0x25C PUSH1 0xF SLOAD DUP2 JUMP JUMPDEST PUSH0 SLOAD PUSH1 0x40 MLOAD PUSH1 0x1 PUSH1 0x1 PUSH1 0xA0 SHL SUB SWAP1 SWAP2 AND DUP2 MSTORE PUSH1 0x20 ADD PUSH2 0x20D JUMP JUMPDEST PUSH2 0x25C PUSH1 0x10 SLOAD DUP2 JUMP JUMPDEST PUSH1 0x5 SLOAD PUSH1 0x6 SLOAD PUSH1 0x7 SLOAD PUSH1 0x8 SLOAD PUSH1 0x9 SLOAD PUSH2 0x394 SWAP5 SWAP4 SWAP3 SWAP2 SWAP1 DUP6 JUMP JUMPDEST PUSH1 0x40 DUP1 MLOAD SWAP6 DUP7 MSTORE PUSH1 0x20 DUP7 ADD SWAP5 SWAP1 SWAP5 MSTORE SWAP3 DUP5 ADD SWAP2 SWAP1 SWAP2 MSTORE PUSH1 0x60 DUP4 ADD MSTORE PUSH1 0x80 DUP3 ADD MSTORE PUSH1 0xA0 ADD PUSH2 0x20D JUMP JUMPDEST PUSH2 0x27D PUSH2 0x10CC JUMP JUMPDEST PUSH2 0x27D PUSH2 0x3D2 CALLDATASIZE PUSH1 0x4 PUSH2 0x26F7 JUMP JUMPDEST PUSH2 0x1123 JUMP JUMPDEST PUSH2 0x27D PUSH2 0x3E5 CALLDATASIZE PUSH1 0x4 PUSH2 0x2360 JUMP JUMPDEST PUSH2 0x14B1 JUMP JUMPDEST PUSH2 0x27D PUSH2 0x3F8 CALLDATASIZE PUSH1 0x4 PUSH2 0x2620 JUMP JUMPDEST PUSH2 0x154E JUMP JUMPDEST PUSH2 0x27D PUSH2 0x40B CALLDATASIZE PUSH1 0x4 PUSH2 0x2768 JUMP JUMPDEST PUSH2 0x1702 JUMP JUMPDEST PUSH2 0x418 PUSH2 0x17CC JUMP JUMPDEST PUSH1 0x40 MLOAD PUSH2 0x20D SWAP10 SWAP9 SWAP8 SWAP7 SWAP6 SWAP5 SWAP4 SWAP3 SWAP2 SWAP1 PUSH2 0x27CE JUMP JUMPDEST PUSH2 0x27D PUSH2 0x43B CALLDATASIZE PUSH1 0x4 PUSH2 0x2836 JUMP JUMPDEST PUSH2 0x1894 JUMP JUMPDEST PUSH2 0x321 PUSH2 0x1947 JUMP JUMPDEST PUSH2 0x27D PUSH2 0x456 CALLDATASIZE PUSH1 0x4 PUSH2 0x2895 JUMP JUMPDEST PUSH2 0x1A60 JUMP JUMPDEST PUSH2 0x27D PUSH2 0x469 CALLDATASIZE PUSH1 0x4 PUSH2 0x28F7 JUMP JUMPDEST PUSH2 0x1C91 JUMP JUMPDEST PUSH2 0x481 PUSH2 0x47C CALLDATASIZE PUSH1 0x4 PUSH2 0x2620 JUMP JUMPDEST PUSH2 0x1CCB JUMP JUMPDEST PUSH1 0x40 MLOAD PUSH2 0x20D SWAP2 SWAP1 PUSH2 0x291D JUMP JUMPDEST PUSH2 0x2AF PUSH2 0x49C CALLDATASIZE PUSH1 0x4 PUSH2 0x2360 JUMP JUMPDEST PUSH2 0x1DC3 JUMP JUMPDEST PUSH1 0x1 SLOAD PUSH1 0x2 SLOAD PUSH2 0x4AF SWAP2 SWAP1 DUP3 JUMP JUMPDEST PUSH1 0x40 DUP1 MLOAD SWAP3 DUP4 MSTORE PUSH1 0x20 DUP4 ADD SWAP2 SWAP1 SWAP2 MSTORE ADD PUSH2 0x20D JUMP JUMPDEST DUP1 MLOAD PUSH1 0x20 DUP2 DUP4 ADD DUP2 ADD DUP1 MLOAD PUSH1 0xA DUP3 MSTORE SWAP3 DUP3 ADD SWAP2 SWAP1 SWAP4 ADD KECCAK256 SWAP2 MSTORE DUP1 SLOAD DUP2 SWAP1 PUSH2 0x4EA SWAP1 PUSH2 0x2958 JUMP JUMPDEST DUP1 PUSH1 0x1F ADD PUSH1 0x20 DUP1 SWAP2 DIV MUL PUSH1 0x20 ADD PUSH1 0x40 MLOAD SWAP1 DUP2 ADD PUSH1 0x40 MSTORE DUP1 SWAP3 SWAP2 SWAP1 DUP2 DUP2 MSTORE PUSH1 0x20 ADD DUP3 DUP1 SLOAD PUSH2 0x516 SWAP1 PUSH2 0x2958 JUMP JUMPDEST DUP1 ISZERO PUSH2 0x561 JUMPI DUP1 PUSH1 0x1F LT PUSH2 0x538 JUMPI PUSH2 0x100 DUP1 DUP4 SLOAD DIV MUL DUP4 MSTORE SWAP2 PUSH1 0x20 ADD SWAP2 PUSH2 0x561 JUMP JUMPDEST DUP3 ADD SWAP2 SWAP1 PUSH0 MSTORE PUSH1 0x20 PUSH0 KECCAK256 SWAP1 JUMPDEST DUP2 SLOAD DUP2 MSTORE SWAP1 PUSH1 0x1 ADD SWAP1 PUSH1 0x20 ADD DUP1 DUP4 GT PUSH2 0x544 JUMPI DUP3 SWAP1 SUB PUSH1 0x1F AND DUP3 ADD SWAP2 JUMPDEST POP POP POP POP POP SWAP1 DUP1 PUSH1 0x1 ADD SLOAD SWAP1 DUP1 PUSH1 0x2 ADD SLOAD SWAP1 POP DUP4 JUMP JUMPDEST PUSH1 0xB DUP2 DUP2 SLOAD DUP2 LT PUSH2 0x586 JUMPI PUSH0 DUP1 REVERT JUMPDEST SWAP1 PUSH0 MSTORE PUSH1 0x20 PUSH0 KECCAK256 ADD PUSH0 SWAP2 POP SWAP1 POP DUP1 SLOAD PUSH2 0x59E SWAP1 PUSH2 0x2958 JUMP JUMPDEST DUP1 PUSH1 0x1F ADD PUSH1 0x20 DUP1 SWAP2 DIV MUL PUSH1 0x20 ADD PUSH1 0x40 MLOAD SWAP1 DUP2 ADD PUSH1 0x40 MSTORE DUP1 SWAP3 SWAP2 SWAP1 DUP2 DUP2 MSTORE PUSH1 0x20 ADD DUP3 DUP1 SLOAD PUSH2 0x5CA SWAP1 PUSH2 0x2958 JUMP JUMPDEST DUP1 ISZERO PUSH2 0x615 JUMPI DUP1 PUSH1 0x1F LT PUSH2 0x5EC JUMPI PUSH2 0x100 DUP1 DUP4 SLOAD DIV MUL DUP4 MSTORE SWAP2 PUSH1 0x20 ADD SWAP2 PUSH2 0x615 JUMP JUMPDEST DUP3 ADD SWAP2 SWAP1 PUSH0 MSTORE PUSH1 0x20 PUSH0 KECCAK256 SWAP1 JUMPDEST DUP2 SLOAD DUP2 MSTORE SWAP1 PUSH1 0x1 ADD SWAP1 PUSH1 0x20 ADD DUP1 DUP4 GT PUSH2 0x5F8 JUMPI DUP3 SWAP1 SUB PUSH1 0x1F AND DUP3 ADD SWAP2 JUMPDEST POP POP POP POP POP DUP2 JUMP JUMPDEST PUSH2 0x625 PUSH2 0x1DD2 JUMP JUMPDEST PUSH1 0x1 DUP5 PUSH1 0xC DUP2 GT ISZERO PUSH2 0x639 JUMPI PUSH2 0x639 PUSH2 0x279A JUMP JUMPDEST EQ DUP1 PUSH2 0x656 JUMPI POP PUSH1 0x2 DUP5 PUSH1 0xC DUP2 GT ISZERO PUSH2 0x654 JUMPI PUSH2 0x654 PUSH2 0x279A JUMP JUMPDEST EQ JUMPDEST DUP1 PUSH2 0x672 JUMPI POP PUSH1 0x3 DUP5 PUSH1 0xC DUP2 GT ISZERO PUSH2 0x670 JUMPI PUSH2 0x670 PUSH2 0x279A JUMP JUMPDEST EQ JUMPDEST DUP1 PUSH2 0x68E JUMPI POP PUSH1 0x4 DUP5 PUSH1 0xC DUP2 GT ISZERO PUSH2 0x68C JUMPI PUSH2 0x68C PUSH2 0x279A JUMP JUMPDEST EQ JUMPDEST DUP1 PUSH2 0x6AA JUMPI POP PUSH1 0x5 DUP5 PUSH1 0xC DUP2 GT ISZERO PUSH2 0x6A8 JUMPI PUSH2 0x6A8 PUSH2 0x279A JUMP JUMPDEST EQ JUMPDEST DUP1 PUSH2 0x6C6 JUMPI POP PUSH1 0x6 DUP5 PUSH1 0xC DUP2 GT ISZERO PUSH2 0x6C4 JUMPI PUSH2 0x6C4 PUSH2 0x279A JUMP JUMPDEST EQ JUMPDEST DUP1 PUSH2 0x6E2 JUMPI POP PUSH1 0xB DUP5 PUSH1 0xC DUP2 GT ISZERO PUSH2 0x6E0 JUMPI PUSH2 0x6E0 PUSH2 0x279A JUMP JUMPDEST EQ JUMPDEST DUP1 PUSH2 0x6FE JUMPI POP PUSH1 0xC DUP5 PUSH1 0xC DUP2 GT ISZERO PUSH2 0x6FC JUMPI PUSH2 0x6FC PUSH2 0x279A JUMP JUMPDEST EQ JUMPDEST PUSH2 0x775 JUMPI PUSH1 0x40 MLOAD PUSH3 0x461BCD PUSH1 0xE5 SHL DUP2 MSTORE PUSH1 0x20 PUSH1 0x4 DUP3 ADD MSTORE PUSH1 0x37 PUSH1 0x24 DUP3 ADD MSTORE PUSH32 0x44617368626F6172643A20496E76616C696420636F6E646974696F6E20666F72 PUSH1 0x44 DUP3 ADD MSTORE PUSH32 0x2073696E676C65207468726573686F6C6420616C657274000000000000000000 PUSH1 0x64 DUP3 ADD MSTORE PUSH1 0x84 ADD JUMPDEST PUSH1 0x40 MLOAD DUP1 SWAP2 SUB SWAP1 REVERT JUMPDEST PUSH1 0x11 SLOAD PUSH0 SUB PUSH2 0x795 JUMPI PUSH1 0x18 DUP1 SLOAD SWAP1 PUSH0 PUSH2 0x78D DUP4 PUSH2 0x29A4 JUMP JUMPDEST SWAP1 SWAP2 SSTORE POP PUSH1 0x11 SSTORE JUMPDEST PUSH1 0x12 DUP1 SLOAD CALLER PUSH1 0x1 PUSH1 0x1 PUSH1 0xA0 SHL SUB NOT DUP3 AND DUP2 OR DUP4 SSTORE DUP7 SWAP3 SWAP2 PUSH1 0x1 PUSH1 0x1 PUSH1 0xA8 SHL SUB NOT AND PUSH1 0xFF PUSH1 0xA0 SHL NOT SWAP1 SWAP2 AND OR PUSH1 0x1 PUSH1 0xA0 SHL DUP4 PUSH1 0xC DUP2 GT ISZERO PUSH2 0x7D7 JUMPI PUSH2 0x7D7 PUSH2 0x279A JUMP JUMPDEST MUL OR SWAP1 SSTORE POP PUSH1 0x13 DUP4 SWAP1 SSTORE PUSH0 PUSH1 0x14 SSTORE PUSH1 0x17 PUSH2 0x7F2 DUP3 DUP5 DUP4 PUSH2 0x2A1B JUMP JUMPDEST POP PUSH1 0x15 DUP1 SLOAD PUSH2 0xFFFF NOT AND PUSH1 0x1 OR SWAP1 SSTORE PUSH0 PUSH1 0x16 DUP2 SWAP1 SSTORE PUSH1 0x11 SLOAD PUSH1 0x40 MLOAD CALLER SWAP3 PUSH32 0x778334AF3114ADE8967680FBF1E80E8E34DBE95416246AAEF26907AE22CDD358 SWAP2 PUSH2 0x843 SWAP2 DUP10 SWAP2 DUP10 SWAP2 SWAP1 DUP10 SWAP1 DUP10 SWAP1 PUSH2 0x2AF7 JUMP JUMPDEST PUSH1 0x40 MLOAD DUP1 SWAP2 SUB SWAP1 LOG3 POP POP POP POP JUMP JUMPDEST PUSH2 0x859 PUSH2 0x1DD2 JUMP JUMPDEST PUSH1 0x11 SLOAD ISZERO DUP1 ISZERO SWAP1 PUSH2 0x86D JUMPI POP PUSH1 0x15 SLOAD PUSH1 0xFF AND ISZERO JUMPDEST ISZERO PUSH2 0x8AC JUMPI PUSH1 0x15 DUP1 SLOAD PUSH2 0xFFFF NOT AND PUSH1 0x1 OR SWAP1 SSTORE PUSH1 0x11 SLOAD PUSH1 0x40 MLOAD PUSH32 0x5B2A724A870CF7FE2C83BD903795D3BA6163EE1091A97587EDF93FF866E22965 SWAP1 PUSH0 SWAP1 LOG2 JUMPDEST JUMP JUMPDEST PUSH1 0x60 PUSH1 0xB DUP1 SLOAD DUP1 PUSH1 0x20 MUL PUSH1 0x20 ADD PUSH1 0x40 MLOAD SWAP1 DUP2 ADD PUSH1 0x40 MSTORE DUP1 SWAP3 SWAP2 SWAP1 DUP2 DUP2 MSTORE PUSH1 0x20 ADD PUSH0 SWAP1 JUMPDEST DUP3 DUP3 LT ISZERO PUSH2 0x979 JUMPI DUP4 DUP3 SWAP1 PUSH0 MSTORE PUSH1 0x20 PUSH0 KECCAK256 ADD DUP1 SLOAD PUSH2 0x8EE SWAP1 PUSH2 0x2958 JUMP JUMPDEST DUP1 PUSH1 0x1F ADD PUSH1 0x20 DUP1 SWAP2 DIV MUL PUSH1 0x20 ADD PUSH1 0x40 MLOAD SWAP1 DUP2 ADD PUSH1 0x40 MSTORE DUP1 SWAP3 SWAP2 SWAP1 DUP2 DUP2 MSTORE PUSH1 0x20 ADD DUP3 DUP1 SLOAD PUSH2 0x91A SWAP1 PUSH2 0x2958 JUMP JUMPDEST DUP1 ISZERO PUSH2 0x965 JUMPI DUP1 PUSH1 0x1F LT PUSH2 0x93C JUMPI PUSH2 0x100 DUP1 DUP4 SLOAD DIV MUL DUP4 MSTORE SWAP2 PUSH1 0x20 ADD SWAP2 PUSH2 0x965 JUMP JUMPDEST DUP3 ADD SWAP2 SWAP1 PUSH0 MSTORE PUSH1 0x20 PUSH0 KECCAK256 SWAP1 JUMPDEST DUP2 SLOAD DUP2 MSTORE SWAP1 PUSH1 0x1 ADD SWAP1 PUSH1 0x20 ADD DUP1 DUP4 GT PUSH2 0x948 JUMPI DUP3 SWAP1 SUB PUSH1 0x1F AND DUP3 ADD SWAP2 JUMPDEST POP POP POP POP POP DUP2 MSTORE PUSH1 0x20 ADD SWAP1 PUSH1 0x1 ADD SWAP1 PUSH2 0x8D1 JUMP JUMPDEST POP POP POP POP SWAP1 POP SWAP1 JUMP JUMPDEST PUSH1 0xD DUP2 DUP2 SLOAD DUP2 LT PUSH2 0x991 JUMPI PUSH0 DUP1 REVERT JUMPDEST SWAP1 PUSH0 MSTORE PUSH1 0x20 PUSH0 KECCAK256 SWAP1 PUSH1 0x5 MUL ADD PUSH0 SWAP2 POP SWAP1 POP DUP1 PUSH0 ADD DUP1 SLOAD PUSH2 0x9B0 SWAP1 PUSH2 0x2958 JUMP JUMPDEST DUP1 PUSH1 0x1F ADD PUSH1 0x20 DUP1 SWAP2 DIV MUL PUSH1 0x20 ADD PUSH1 0x40 MLOAD SWAP1 DUP2 ADD PUSH1 0x40 MSTORE DUP1 SWAP3 SWAP2 SWAP1 DUP2 DUP2 MSTORE PUSH1 0x20 ADD DUP3 DUP1 SLOAD PUSH2 0x9DC SWAP1 PUSH2 0x2958 JUMP JUMPDEST DUP1 ISZERO PUSH2 0xA27 JUMPI DUP1 PUSH1 0x1F LT PUSH2 0x9FE JUMPI PUSH2 0x100 DUP1 DUP4 SLOAD DIV MUL DUP4 MSTORE SWAP2 PUSH1 0x20 ADD SWAP2 PUSH2 0xA27 JUMP JUMPDEST DUP3 ADD SWAP2 SWAP1 PUSH0 MSTORE PUSH1 0x20 PUSH0 KECCAK256 SWAP1 JUMPDEST DUP2 SLOAD DUP2 MSTORE SWAP1 PUSH1 0x1 ADD SWAP1 PUSH1 0x20 ADD DUP1 DUP4 GT PUSH2 0xA0A JUMPI DUP3 SWAP1 SUB PUSH1 0x1F AND DUP3 ADD SWAP2 JUMPDEST POP POP POP POP PUSH1 0x1 DUP4 ADD SLOAD PUSH1 0x2 DUP5 ADD SLOAD PUSH1 0x3 DUP6 ADD SLOAD PUSH1 0x4 SWAP1 SWAP6 ADD SLOAD SWAP4 SWAP5 PUSH1 0x1 PUSH1 0x1 PUSH1 0xA0 SHL SUB SWAP1 SWAP3 AND SWAP4 SWAP1 SWAP3 POP DUP6 JUMP JUMPDEST PUSH2 0xA5C PUSH2 0x1DD2 JUMP JUMPDEST PUSH1 0x5 DUP5 SWAP1 SSTORE PUSH1 0x6 DUP4 SWAP1 SSTORE PUSH1 0x7 DUP3 SWAP1 SSTORE PUSH1 0x8 DUP2 SWAP1 SSTORE TIMESTAMP PUSH1 0x9 DUP2 SWAP1 SSTORE PUSH1 0x40 DUP1 MLOAD DUP7 DUP2 MSTORE PUSH1 0x20 DUP2 ADD DUP7 SWAP1 MSTORE DUP1 DUP3 ADD DUP6 SWAP1 MSTORE PUSH1 0x60 DUP2 ADD DUP5 SWAP1 MSTORE PUSH1 0x80 DUP2 ADD SWAP3 SWAP1 SWAP3 MSTORE MLOAD PUSH32 0x8ECD0C5F0D0F300FE6241546A3CC8C4F4DC6F4573ED292C6FFBD86A83353035 SWAP2 DUP2 SWAP1 SUB PUSH1 0xA0 ADD SWAP1 LOG1 POP POP POP POP JUMP JUMPDEST PUSH2 0xAD2 PUSH2 0x1DD2 JUMP JUMPDEST PUSH0 PUSH1 0xA DUP5 DUP5 PUSH1 0x40 MLOAD PUSH2 0xAE5 SWAP3 SWAP2 SWAP1 PUSH2 0x2B2E JUMP JUMPDEST SWAP1 DUP2 MSTORE PUSH1 0x40 MLOAD SWAP1 DUP2 SWAP1 SUB PUSH1 0x20 ADD SWAP1 KECCAK256 SWAP1 POP PUSH0 DUP1 JUMPDEST PUSH1 0xB SLOAD DUP2 LT ISZERO PUSH2 0xB83 JUMPI DUP6 DUP6 PUSH1 0x40 MLOAD PUSH1 0x20 ADD PUSH2 0xB16 SWAP3 SWAP2 SWAP1 PUSH2 0x2B2E JUMP JUMPDEST PUSH1 0x40 MLOAD PUSH1 0x20 DUP2 DUP4 SUB SUB DUP2 MSTORE SWAP1 PUSH1 0x40 MSTORE DUP1 MLOAD SWAP1 PUSH1 0x20 ADD KECCAK256 PUSH1 0xB DUP3 DUP2 SLOAD DUP2 LT PUSH2 0xB3F JUMPI PUSH2 0xB3F PUSH2 0x2B3D JUMP JUMPDEST SWAP1 PUSH0 MSTORE PUSH1 0x20 PUSH0 KECCAK256 ADD PUSH1 0x40 MLOAD PUSH1 0x20 ADD PUSH2 0xB57 SWAP2 SWAP1 PUSH2 0x2B51 JUMP JUMPDEST PUSH1 0x40 MLOAD PUSH1 0x20 DUP2 DUP4 SUB SUB DUP2 MSTORE SWAP1 PUSH1 0x40 MSTORE DUP1 MLOAD SWAP1 PUSH1 0x20 ADD KECCAK256 SUB PUSH2 0xB7B JUMPI PUSH1 0x1 SWAP2 POP PUSH2 0xB83 JUMP JUMPDEST PUSH1 0x1 ADD PUSH2 0xAF9 JUMP JUMPDEST POP DUP1 PUSH2 0xC06 JUMPI PUSH1 0xB DUP1 SLOAD PUSH1 0x1 DUP2 ADD DUP3 SSTORE PUSH0 SWAP2 SWAP1 SWAP2 MSTORE PUSH32 0x175B7A638427703F0DBE7BB9BBF987A2551717B34E79F33B5B1008D1FA01DB9 ADD PUSH2 0xBC5 DUP6 DUP8 DUP4 PUSH2 0x2A1B JUMP JUMPDEST POP DUP5 DUP5 PUSH1 0x40 MLOAD PUSH2 0xBD6 SWAP3 SWAP2 SWAP1 PUSH2 0x2B2E JUMP JUMPDEST PUSH1 0x40 MLOAD SWAP1 DUP2 SWAP1 SUB DUP2 KECCAK256 SWAP1 PUSH32 0x81C6DAD8FC2E53ED05F364A56D3DF0F0836727EECA7D52C4C25F995362A02744 SWAP1 PUSH0 SWAP1 LOG2 JUMPDEST DUP2 PUSH2 0xC12 DUP6 DUP8 DUP4 PUSH2 0x2A1B JUMP JUMPDEST POP PUSH1 0x1 DUP3 ADD DUP4 SWAP1 SSTORE TIMESTAMP PUSH1 0x2 DUP4 ADD SSTORE PUSH1 0x40 MLOAD PUSH2 0xC30 SWAP1 DUP7 SWAP1 DUP7 SWAP1 PUSH2 0x2B2E JUMP JUMPDEST PUSH1 0x40 DUP1 MLOAD SWAP2 DUP3 SWAP1 SUB DUP3 KECCAK256 DUP6 DUP4 MSTORE TIMESTAMP PUSH1 0x20 DUP5 ADD MSTORE SWAP2 PUSH32 0x30167B93764FAD9E40CE98169F9156F222D6CA60145C01B3509119B8D413ED6F SWAP2 ADD PUSH1 0x40 MLOAD DUP1 SWAP2 SUB SWAP1 LOG2 POP POP POP POP POP JUMP JUMPDEST PUSH2 0xC7E PUSH2 0x1DD2 JUMP JUMPDEST PUSH1 0x11 SLOAD ISZERO DUP1 ISZERO SWAP1 PUSH2 0xC96 JUMPI POP PUSH1 0x15 SLOAD PUSH2 0x100 SWAP1 DIV PUSH1 0xFF AND JUMPDEST ISZERO PUSH2 0x8AC JUMPI PUSH1 0x15 DUP1 SLOAD PUSH2 0xFF00 NOT AND SWAP1 SSTORE PUSH1 0x11 SLOAD PUSH1 0x40 MLOAD PUSH32 0xC26F9C3201044D3757E27488CD192595AAF8B176842B2175EF47A4CDF1A53952 SWAP1 PUSH0 SWAP1 LOG2 JUMP JUMPDEST PUSH2 0xCDB PUSH2 0x1DD2 JUMP JUMPDEST PUSH2 0x8AC PUSH0 PUSH2 0x1DFE JUMP JUMPDEST DUP1 MLOAD PUSH1 0x20 DUP2 DUP4 ADD DUP2 ADD DUP1 MLOAD PUSH1 0xC DUP3 MSTORE SWAP3 DUP3 ADD SWAP2 SWAP1 SWAP4 ADD KECCAK256 SWAP2 MSTORE DUP1 SLOAD DUP2 SWAP1 PUSH2 0xD0A SWAP1 PUSH2 0x2958 JUMP JUMPDEST DUP1 PUSH1 0x1F ADD PUSH1 0x20 DUP1 SWAP2 DIV MUL PUSH1 0x20 ADD PUSH1 0x40 MLOAD SWAP1 DUP2 ADD PUSH1 0x40 MSTORE DUP1 SWAP3 SWAP2 SWAP1 DUP2 DUP2 MSTORE PUSH1 0x20 ADD DUP3 DUP1 SLOAD PUSH2 0xD36 SWAP1 PUSH2 0x2958 JUMP JUMPDEST DUP1 ISZERO PUSH2 0xD81 JUMPI DUP1 PUSH1 0x1F LT PUSH2 0xD58 JUMPI PUSH2 0x100 DUP1 DUP4 SLOAD DIV MUL DUP4 MSTORE SWAP2 PUSH1 0x20 ADD SWAP2 PUSH2 0xD81 JUMP JUMPDEST DUP3 ADD SWAP2 SWAP1 PUSH0 MSTORE PUSH1 0x20 PUSH0 KECCAK256 SWAP1 JUMPDEST DUP2 SLOAD DUP2 MSTORE SWAP1 PUSH1 0x1 ADD SWAP1 PUSH1 0x20 ADD DUP1 DUP4 GT PUSH2 0xD64 JUMPI DUP3 SWAP1 SUB PUSH1 0x1F AND DUP3 ADD SWAP2 JUMPDEST POP POP POP POP POP SWAP1 DUP1 PUSH1 0x1 ADD DUP1 SLOAD PUSH2 0xD96 SWAP1 PUSH2 0x2958 JUMP JUMPDEST DUP1 PUSH1 0x1F ADD PUSH1 0x20 DUP1 SWAP2 DIV MUL PUSH1 0x20 ADD PUSH1 0x40 MLOAD SWAP1 DUP2 ADD PUSH1 0x40 MSTORE DUP1 SWAP3 SWAP2 SWAP1 DUP2 DUP2 MSTORE PUSH1 0x20 ADD DUP3 DUP1 SLOAD PUSH2 0xDC2 SWAP1 PUSH2 0x2958 JUMP JUMPDEST DUP1 ISZERO PUSH2 0xE0D JUMPI DUP1 PUSH1 0x1F LT PUSH2 0xDE4 JUMPI PUSH2 0x100 DUP1 DUP4 SLOAD DIV MUL DUP4 MSTORE SWAP2 PUSH1 0x20 ADD SWAP2 PUSH2 0xE0D JUMP JUMPDEST DUP3 ADD SWAP2 SWAP1 PUSH0 MSTORE PUSH1 0x20 PUSH0 KECCAK256 SWAP1 JUMPDEST DUP2 SLOAD DUP2 MSTORE SWAP1 PUSH1 0x1 ADD SWAP1 PUSH1 0x20 ADD DUP1 DUP4 GT PUSH2 0xDF0 JUMPI DUP3 SWAP1 SUB PUSH1 0x1F AND DUP3 ADD SWAP2 JUMPDEST POP POP POP POP POP SWAP1 DUP1 PUSH1 0x2 ADD SLOAD SWAP1 DUP1 PUSH1 0x3 ADD SLOAD SWAP1 POP DUP5 JUMP JUMPDEST PUSH1 0x60 PUSH1 0xE DUP1 SLOAD DUP1 PUSH1 0x20 MUL PUSH1 0x20 ADD PUSH1 0x40 MLOAD SWAP1 DUP2 ADD PUSH1 0x40 MSTORE DUP1 SWAP3 SWAP2 SWAP1 DUP2 DUP2 MSTORE PUSH1 0x20 ADD PUSH0 SWAP1 JUMPDEST DUP3 DUP3 LT ISZERO PUSH2 0x979 JUMPI DUP4 DUP3 SWAP1 PUSH0 MSTORE PUSH1 0x20 PUSH0 KECCAK256 SWAP1 PUSH1 0x5 MUL ADD PUSH1 0x40 MLOAD DUP1 PUSH1 0xA0 ADD PUSH1 0x40 MSTORE SWAP1 DUP2 PUSH0 DUP3 ADD DUP1 SLOAD PUSH2 0xE76 SWAP1 PUSH2 0x2958 JUMP JUMPDEST DUP1 PUSH1 0x1F ADD PUSH1 0x20 DUP1 SWAP2 DIV MUL PUSH1 0x20 ADD PUSH1 0x40 MLOAD SWAP1 DUP2 ADD PUSH1 0x40 MSTORE DUP1 SWAP3 SWAP2 SWAP1 DUP2 DUP2 MSTORE PUSH1 0x20 ADD DUP3 DUP1 SLOAD PUSH2 0xEA2 SWAP1 PUSH2 0x2958 JUMP JUMPDEST DUP1 ISZERO PUSH2 0xEED JUMPI DUP1 PUSH1 0x1F LT PUSH2 0xEC4 JUMPI PUSH2 0x100 DUP1 DUP4 SLOAD DIV MUL DUP4 MSTORE SWAP2 PUSH1 0x20 ADD SWAP2 PUSH2 0xEED JUMP JUMPDEST DUP3 ADD SWAP2 SWAP1 PUSH0 MSTORE PUSH1 0x20 PUSH0 KECCAK256 SWAP1 JUMPDEST DUP2 SLOAD DUP2 MSTORE SWAP1 PUSH1 0x1 ADD SWAP1 PUSH1 0x20 ADD DUP1 DUP4 GT PUSH2 0xED0 JUMPI DUP3 SWAP1 SUB PUSH1 0x1F AND DUP3 ADD SWAP2 JUMPDEST POP POP POP SWAP2 DUP4 MSTORE POP POP PUSH1 0x1 DUP3 DUP2 ADD SLOAD PUSH1 0x1 PUSH1 0x1 PUSH1 0xA0 SHL SUB AND PUSH1 0x20 DUP1 DUP5 ADD SWAP2 SWAP1 SWAP2 MSTORE PUSH1 0x2 DUP5 ADD SLOAD PUSH1 0x40 DUP5 ADD MSTORE PUSH1 0x3 DUP5 ADD SLOAD PUSH1 0x60 DUP5 ADD MSTORE PUSH1 0x4 SWAP1 SWAP4 ADD SLOAD PUSH1 0x80 SWAP1 SWAP3 ADD SWAP2 SWAP1 SWAP2 MSTORE SWAP2 DUP4 MSTORE SWAP3 ADD SWAP2 ADD PUSH2 0xE46 JUMP JUMPDEST PUSH2 0xF65 PUSH1 0x40 MLOAD DUP1 PUSH1 0x80 ADD PUSH1 0x40 MSTORE DUP1 PUSH1 0x60 DUP2 MSTORE PUSH1 0x20 ADD PUSH1 0x60 DUP2 MSTORE PUSH1 0x20 ADD PUSH0 DUP2 MSTORE PUSH1 0x20 ADD PUSH0 DUP2 MSTORE POP SWAP1 JUMP JUMPDEST PUSH1 0xC DUP4 DUP4 PUSH1 0x40 MLOAD PUSH2 0xF77 SWAP3 SWAP2 SWAP1 PUSH2 0x2B2E JUMP JUMPDEST SWAP1 DUP2 MSTORE PUSH1 0x20 ADD PUSH1 0x40 MLOAD DUP1 SWAP2 SUB SWAP1 KECCAK256 PUSH1 0x40 MLOAD DUP1 PUSH1 0x80 ADD PUSH1 0x40 MSTORE SWAP1 DUP2 PUSH0 DUP3 ADD DUP1 SLOAD PUSH2 0xF9F SWAP1 PUSH2 0x2958 JUMP JUMPDEST DUP1 PUSH1 0x1F ADD PUSH1 0x20 DUP1 SWAP2 DIV MUL PUSH1 0x20 ADD PUSH1 0x40 MLOAD SWAP1 DUP2 ADD PUSH1 0x40 MSTORE DUP1 SWAP3 SWAP2 SWAP1 DUP2 DUP2 MSTORE PUSH1 0x20 ADD DUP3 DUP1 SLOAD PUSH2 0xFCB SWAP1 PUSH2 0x2958 JUMP JUMPDEST DUP1 ISZERO PUSH2 0x1016 JUMPI DUP1 PUSH1 0x1F LT PUSH2 0xFED JUMPI PUSH2 0x100 DUP1 DUP4 SLOAD DIV MUL DUP4 MSTORE SWAP2 PUSH1 0x20 ADD SWAP2 PUSH2 0x1016 JUMP JUMPDEST DUP3 ADD SWAP2 SWAP1 PUSH0 MSTORE PUSH1 0x20 PUSH0 KECCAK256 SWAP1 JUMPDEST DUP2 SLOAD DUP2 MSTORE SWAP1 PUSH1 0x1 ADD SWAP1 PUSH1 0x20 ADD DUP1 DUP4 GT PUSH2 0xFF9 JUMPI DUP3 SWAP1 SUB PUSH1 0x1F AND DUP3 ADD SWAP2 JUMPDEST POP POP POP POP POP DUP2 MSTORE PUSH1 0x20 ADD PUSH1 0x1 DUP3 ADD DUP1 SLOAD PUSH2 0x102F SWAP1 PUSH2 0x2958 JUMP JUMPDEST DUP1 PUSH1 0x1F ADD PUSH1 0x20 DUP1 SWAP2 DIV MUL PUSH1 0x20 ADD PUSH1 0x40 MLOAD SWAP1 DUP2 ADD PUSH1 0x40 MSTORE DUP1 SWAP3 SWAP2 SWAP1 DUP2 DUP2 MSTORE PUSH1 0x20 ADD DUP3 DUP1 SLOAD PUSH2 0x105B SWAP1 PUSH2 0x2958 JUMP JUMPDEST DUP1 ISZERO PUSH2 0x10A6 JUMPI DUP1 PUSH1 0x1F LT PUSH2 0x107D JUMPI PUSH2 0x100 DUP1 DUP4 SLOAD DIV MUL DUP4 MSTORE SWAP2 PUSH1 0x20 ADD SWAP2 PUSH2 0x10A6 JUMP JUMPDEST DUP3 ADD SWAP2 SWAP1 PUSH0 MSTORE PUSH1 0x20 PUSH0 KECCAK256 SWAP1 JUMPDEST DUP2 SLOAD DUP2 MSTORE SWAP1 PUSH1 0x1 ADD SWAP1 PUSH1 0x20 ADD DUP1 DUP4 GT PUSH2 0x1089 JUMPI DUP3 SWAP1 SUB PUSH1 0x1F AND DUP3 ADD SWAP2 JUMPDEST POP POP POP POP POP DUP2 MSTORE PUSH1 0x20 ADD PUSH1 0x2 DUP3 ADD SLOAD DUP2 MSTORE PUSH1 0x20 ADD PUSH1 0x3 DUP3 ADD SLOAD DUP2 MSTORE POP POP SWAP1 POP JUMPDEST SWAP3 SWAP2 POP POP JUMP JUMPDEST PUSH2 0x10D4 PUSH2 0x1DD2 JUMP JUMPDEST PUSH1 0x11 SLOAD ISZERO DUP1 ISZERO SWAP1 PUSH2 0x10E7 JUMPI POP PUSH1 0x15 SLOAD PUSH1 0xFF AND JUMPDEST ISZERO PUSH2 0x8AC JUMPI PUSH1 0x15 DUP1 SLOAD PUSH1 0xFF NOT AND SWAP1 SSTORE PUSH1 0x11 SLOAD PUSH1 0x40 MLOAD PUSH32 0xD7D997A7D5BB0E259C4BCBF9213B950FC2D302D3D30540C7671B3C2E6D33088D SWAP1 PUSH0 SWAP1 LOG2 JUMP JUMPDEST PUSH2 0x112B PUSH2 0x1DD2 JUMP JUMPDEST PUSH2 0x1136 PUSH1 0xD PUSH0 PUSH2 0x219B JUMP JUMPDEST PUSH0 JUMPDEST DUP5 DUP2 LT ISZERO PUSH2 0x12C7 JUMPI PUSH1 0xD PUSH1 0x40 MLOAD DUP1 PUSH1 0xA0 ADD PUSH1 0x40 MSTORE DUP1 DUP9 DUP9 DUP6 DUP2 DUP2 LT PUSH2 0x115F JUMPI PUSH2 0x115F PUSH2 0x2B3D JUMP JUMPDEST SWAP1 POP PUSH1 0x20 MUL DUP2 ADD SWAP1 PUSH2 0x1171 SWAP2 SWAP1 PUSH2 0x2BC2 JUMP JUMPDEST PUSH2 0x117B SWAP1 DUP1 PUSH2 0x2BE0 JUMP JUMPDEST DUP1 DUP1 PUSH1 0x1F ADD PUSH1 0x20 DUP1 SWAP2 DIV MUL PUSH1 0x20 ADD PUSH1 0x40 MLOAD SWAP1 DUP2 ADD PUSH1 0x40 MSTORE DUP1 SWAP4 SWAP3 SWAP2 SWAP1 DUP2 DUP2 MSTORE PUSH1 0x20 ADD DUP4 DUP4 DUP1 DUP3 DUP5 CALLDATACOPY PUSH0 SWAP3 ADD SWAP2 SWAP1 SWAP2 MSTORE POP POP POP SWAP1 DUP3 MSTORE POP PUSH1 0x20 ADD DUP9 DUP9 DUP6 DUP2 DUP2 LT PUSH2 0x11C6 JUMPI PUSH2 0x11C6 PUSH2 0x2B3D JUMP JUMPDEST SWAP1 POP PUSH1 0x20 MUL DUP2 ADD SWAP1 PUSH2 0x11D8 SWAP2 SWAP1 PUSH2 0x2BC2 JUMP JUMPDEST PUSH2 0x11E9 SWAP1 PUSH1 0x40 DUP2 ADD SWAP1 PUSH1 0x20 ADD PUSH2 0x28F7 JUMP JUMPDEST PUSH1 0x1 PUSH1 0x1 PUSH1 0xA0 SHL SUB AND DUP2 MSTORE PUSH1 0x20 ADD DUP9 DUP9 DUP6 DUP2 DUP2 LT PUSH2 0x1209 JUMPI PUSH2 0x1209 PUSH2 0x2B3D JUMP JUMPDEST SWAP1 POP PUSH1 0x20 MUL DUP2 ADD SWAP1 PUSH2 0x121B SWAP2 SWAP1 PUSH2 0x2BC2 JUMP JUMPDEST PUSH1 0x40 ADD CALLDATALOAD DUP2 MSTORE PUSH1 0x20 ADD DUP9 DUP9 DUP6 DUP2 DUP2 LT PUSH2 0x1236 JUMPI PUSH2 0x1236 PUSH2 0x2B3D JUMP JUMPDEST SWAP1 POP PUSH1 0x20 MUL DUP2 ADD SWAP1 PUSH2 0x1248 SWAP2 SWAP1 PUSH2 0x2BC2 JUMP JUMPDEST PUSH1 0x60 ADD CALLDATALOAD DUP2 MSTORE TIMESTAMP PUSH1 0x20 SWAP2 DUP3 ADD MSTORE DUP3 SLOAD PUSH1 0x1 DUP2 ADD DUP5 SSTORE PUSH0 SWAP4 DUP5 MSTORE SWAP3 KECCAK256 DUP2 MLOAD SWAP2 SWAP3 PUSH1 0x5 MUL ADD SWAP1 DUP2 SWAP1 PUSH2 0x1278 SWAP1 DUP3 PUSH2 0x2C22 JUMP JUMPDEST POP PUSH1 0x20 DUP3 ADD MLOAD PUSH1 0x1 DUP3 DUP2 ADD DUP1 SLOAD PUSH1 0x1 PUSH1 0x1 PUSH1 0xA0 SHL SUB NOT AND PUSH1 0x1 PUSH1 0x1 PUSH1 0xA0 SHL SUB SWAP1 SWAP4 AND SWAP3 SWAP1 SWAP3 OR SWAP1 SWAP2 SSTORE PUSH1 0x40 DUP4 ADD MLOAD PUSH1 0x2 DUP4 ADD SSTORE PUSH1 0x60 DUP4 ADD MLOAD PUSH1 0x3 DUP4 ADD SSTORE PUSH1 0x80 SWAP1 SWAP3 ADD MLOAD PUSH1 0x4 SWAP1 SWAP2 ADD SSTORE ADD PUSH2 0x1138 JUMP JUMPDEST POP PUSH2 0x12D3 PUSH1 0xE PUSH0 PUSH2 0x219B JUMP JUMPDEST PUSH0 JUMPDEST DUP3 DUP2 LT ISZERO PUSH2 0x1464 JUMPI PUSH1 0xE PUSH1 0x40 MLOAD DUP1 PUSH1 0xA0 ADD PUSH1 0x40 MSTORE DUP1 DUP7 DUP7 DUP6 DUP2 DUP2 LT PUSH2 0x12FC JUMPI PUSH2 0x12FC PUSH2 0x2B3D JUMP JUMPDEST SWAP1 POP PUSH1 0x20 MUL DUP2 ADD SWAP1 PUSH2 0x130E SWAP2 SWAP1 PUSH2 0x2BC2 JUMP JUMPDEST PUSH2 0x1318 SWAP1 DUP1 PUSH2 0x2BE0 JUMP JUMPDEST DUP1 DUP1 PUSH1 0x1F ADD PUSH1 0x20 DUP1 SWAP2 DIV MUL PUSH1 0x20 ADD PUSH1 0x40 MLOAD SWAP1 DUP2 ADD PUSH1 0x40 MSTORE DUP1 SWAP4 SWAP3 SWAP2 SWAP1 DUP2 DUP2 MSTORE PUSH1 0x20 ADD DUP4 DUP4 DUP1 DUP3 DUP5 CALLDATACOPY PUSH0 SWAP3 ADD SWAP2 SWAP1 SWAP2 MSTORE POP POP POP SWAP1 DUP3 MSTORE POP PUSH1 0x20 ADD DUP7 DUP7 DUP6 DUP2 DUP2 LT PUSH2 0x1363 JUMPI PUSH2 0x1363 PUSH2 0x2B3D JUMP JUMPDEST SWAP1 POP PUSH1 0x20 MUL DUP2 ADD SWAP1 PUSH2 0x1375 SWAP2 SWAP1 PUSH2 0x2BC2 JUMP JUMPDEST PUSH2 0x1386 SWAP1 PUSH1 0x40 DUP2 ADD SWAP1 PUSH1 0x20 ADD PUSH2 0x28F7 JUMP JUMPDEST PUSH1 0x1 PUSH1 0x1 PUSH1 0xA0 SHL SUB AND DUP2 MSTORE PUSH1 0x20 ADD DUP7 DUP7 DUP6 DUP2 DUP2 LT PUSH2 0x13A6 JUMPI PUSH2 0x13A6 PUSH2 0x2B3D JUMP JUMPDEST SWAP1 POP PUSH1 0x20 MUL DUP2 ADD SWAP1 PUSH2 0x13B8 SWAP2 SWAP1 PUSH2 0x2BC2 JUMP JUMPDEST PUSH1 0x40 ADD CALLDATALOAD DUP2 MSTORE PUSH1 0x20 ADD DUP7 DUP7 DUP6 DUP2 DUP2 LT PUSH2 0x13D3 JUMPI PUSH2 0x13D3 PUSH2 0x2B3D JUMP JUMPDEST SWAP1 POP PUSH1 0x20 MUL DUP2 ADD SWAP1 PUSH2 0x13E5 SWAP2 SWAP1 PUSH2 0x2BC2 JUMP JUMPDEST PUSH1 0x60 ADD CALLDATALOAD DUP2 MSTORE TIMESTAMP PUSH1 0x20 SWAP2 DUP3 ADD MSTORE DUP3 SLOAD PUSH1 0x1 DUP2 ADD DUP5 SSTORE PUSH0 SWAP4 DUP5 MSTORE SWAP3 KECCAK256 DUP2 MLOAD SWAP2 SWAP3 PUSH1 0x5 MUL ADD SWAP1 DUP2 SWAP1 PUSH2 0x1415 SWAP1 DUP3 PUSH2 0x2C22 JUMP JUMPDEST POP PUSH1 0x20 DUP3 ADD MLOAD PUSH1 0x1 DUP3 DUP2 ADD DUP1 SLOAD PUSH1 0x1 PUSH1 0x1 PUSH1 0xA0 SHL SUB NOT AND PUSH1 0x1 PUSH1 0x1 PUSH1 0xA0 SHL SUB SWAP1 SWAP4 AND SWAP3 SWAP1 SWAP3 OR SWAP1 SWAP2 SSTORE PUSH1 0x40 DUP4 ADD MLOAD PUSH1 0x2 DUP4 ADD SSTORE PUSH1 0x60 DUP4 ADD MLOAD PUSH1 0x3 DUP4 ADD SSTORE PUSH1 0x80 SWAP1 SWAP3 ADD MLOAD PUSH1 0x4 SWAP1 SWAP2 ADD SSTORE ADD PUSH2 0x12D5 JUMP JUMPDEST POP PUSH1 0xF DUP2 SWAP1 SSTORE TIMESTAMP PUSH1 0x10 DUP2 SWAP1 SSTORE PUSH1 0x40 DUP1 MLOAD DUP4 DUP2 MSTORE PUSH1 0x20 DUP2 ADD SWAP3 SWAP1 SWAP3 MSTORE PUSH32 0xADF8225E8E3A7CE8AAABD2D8357177B1A9937694639E8488214B2F12C18146EE SWAP2 ADD PUSH1 0x40 MLOAD DUP1 SWAP2 SUB SWAP1 LOG1 POP POP POP POP POP JUMP JUMPDEST PUSH2 0x14B9 PUSH2 0x1DD2 JUMP JUMPDEST PUSH1 0x4 SLOAD PUSH1 0xFF AND DUP1 PUSH2 0x14CB JUMPI POP PUSH1 0x2 SLOAD ISZERO ISZERO JUMPDEST ISZERO PUSH2 0x14DB JUMPI PUSH1 0x1 SLOAD PUSH1 0x3 SSTORE PUSH2 0x14E1 JUMP JUMPDEST PUSH1 0x3 DUP2 SWAP1 SSTORE JUMPDEST PUSH1 0x4 DUP1 SLOAD PUSH1 0xFF NOT AND PUSH1 0x1 SWAP1 DUP2 OR SWAP1 SWAP2 SSTORE DUP2 SWAP1 SSTORE TIMESTAMP PUSH1 0x2 DUP2 SWAP1 SSTORE PUSH1 0x40 DUP1 MLOAD DUP4 DUP2 MSTORE PUSH1 0x20 DUP2 ADD SWAP3 SWAP1 SWAP3 MSTORE PUSH32 0x475CAE5B1B67B8F03ABA6A9D0442B263224EE619FA6FB913C08D9EDF37904B8C SWAP2 ADD PUSH1 0x40 MLOAD DUP1 SWAP2 SUB SWAP1 LOG1 PUSH1 0x1 SLOAD PUSH1 0x3 SLOAD PUSH1 0x4 SLOAD PUSH2 0x154B SWAP3 SWAP2 SWAP1 PUSH1 0xFF AND PUSH2 0x1E4D JUMP JUMPDEST POP JUMP JUMPDEST PUSH2 0x1556 PUSH2 0x1DD2 JUMP JUMPDEST PUSH0 DUP1 DUP1 JUMPDEST PUSH1 0xB SLOAD DUP2 LT ISZERO PUSH2 0x15E7 JUMPI DUP5 DUP5 PUSH1 0x40 MLOAD PUSH1 0x20 ADD PUSH2 0x1577 SWAP3 SWAP2 SWAP1 PUSH2 0x2B2E JUMP JUMPDEST PUSH1 0x40 MLOAD PUSH1 0x20 DUP2 DUP4 SUB SUB DUP2 MSTORE SWAP1 PUSH1 0x40 MSTORE DUP1 MLOAD SWAP1 PUSH1 0x20 ADD KECCAK256 PUSH1 0xB DUP3 DUP2 SLOAD DUP2 LT PUSH2 0x15A0 JUMPI PUSH2 0x15A0 PUSH2 0x2B3D JUMP JUMPDEST SWAP1 PUSH0 MSTORE PUSH1 0x20 PUSH0 KECCAK256 ADD PUSH1 0x40 MLOAD PUSH1 0x20 ADD PUSH2 0x15B8 SWAP2 SWAP1 PUSH2 0x2B51 JUMP JUMPDEST PUSH1 0x40 MLOAD PUSH1 0x20 DUP2 DUP4 SUB SUB DUP2 MSTORE SWAP1 PUSH1 0x40 MSTORE DUP1 MLOAD SWAP1 PUSH1 0x20 ADD KECCAK256 SUB PUSH2 0x15DF JUMPI PUSH1 0x1 SWAP3 POP DUP1 SWAP2 POP PUSH2 0x15E7 JUMP JUMPDEST PUSH1 0x1 ADD PUSH2 0x155A JUMP JUMPDEST POP DUP2 ISZERO PUSH2 0x16FC JUMPI PUSH1 0xA DUP5 DUP5 PUSH1 0x40 MLOAD PUSH2 0x1600 SWAP3 SWAP2 SWAP1 PUSH2 0x2B2E JUMP JUMPDEST SWAP1 DUP2 MSTORE PUSH1 0x40 MLOAD SWAP1 DUP2 SWAP1 SUB PUSH1 0x20 ADD SWAP1 KECCAK256 PUSH0 PUSH2 0x161A DUP3 DUP3 PUSH2 0x21B9 JUMP JUMPDEST POP PUSH0 PUSH1 0x1 DUP3 ADD DUP2 SWAP1 SSTORE PUSH1 0x2 SWAP1 SWAP2 ADD SSTORE PUSH1 0xB SLOAD ISZERO DUP1 ISZERO SWAP1 PUSH2 0x163B JUMPI POP PUSH1 0xB SLOAD DUP2 LT JUMPDEST ISZERO PUSH2 0x16FC JUMPI PUSH1 0xB DUP1 SLOAD PUSH2 0x1650 SWAP1 PUSH1 0x1 SWAP1 PUSH2 0x2CD7 JUMP JUMPDEST DUP2 SLOAD DUP2 LT PUSH2 0x1660 JUMPI PUSH2 0x1660 PUSH2 0x2B3D JUMP JUMPDEST SWAP1 PUSH0 MSTORE PUSH1 0x20 PUSH0 KECCAK256 ADD PUSH1 0xB DUP3 DUP2 SLOAD DUP2 LT PUSH2 0x167B JUMPI PUSH2 0x167B PUSH2 0x2B3D JUMP JUMPDEST SWAP1 PUSH0 MSTORE PUSH1 0x20 PUSH0 KECCAK256 ADD SWAP1 DUP2 PUSH2 0x168F SWAP2 SWAP1 PUSH2 0x2CEA JUMP JUMPDEST POP PUSH1 0xB DUP1 SLOAD DUP1 PUSH2 0x16A1 JUMPI PUSH2 0x16A1 PUSH2 0x2DAA JUMP JUMPDEST PUSH1 0x1 SWAP1 SUB DUP2 DUP2 SWAP1 PUSH0 MSTORE PUSH1 0x20 PUSH0 KECCAK256 ADD PUSH0 PUSH2 0x16BA SWAP2 SWAP1 PUSH2 0x21B9 JUMP JUMPDEST SWAP1 SSTORE DUP4 DUP4 PUSH1 0x40 MLOAD PUSH2 0x16CC SWAP3 SWAP2 SWAP1 PUSH2 0x2B2E JUMP JUMPDEST PUSH1 0x40 MLOAD SWAP1 DUP2 SWAP1 SUB DUP2 KECCAK256 SWAP1 PUSH32 0x39C9D1BC62FEDFF5608E7E91B88C9E3F6B7F4E9E9B184216521D36D88162FBA4 SWAP1 PUSH0 SWAP1 LOG2 JUMPDEST POP POP POP POP JUMP JUMPDEST PUSH2 0x170A PUSH2 0x1DD2 JUMP JUMPDEST PUSH0 JUMPDEST DUP2 DUP2 LT ISZERO PUSH2 0x17C7 JUMPI ADDRESS PUSH4 0x3FAB3DD6 DUP5 DUP5 DUP5 DUP2 DUP2 LT PUSH2 0x172C JUMPI PUSH2 0x172C PUSH2 0x2B3D JUMP JUMPDEST SWAP1 POP PUSH1 0x20 MUL DUP2 ADD SWAP1 PUSH2 0x173E SWAP2 SWAP1 PUSH2 0x2DBE JUMP JUMPDEST PUSH2 0x1748 SWAP1 DUP1 PUSH2 0x2BE0 JUMP JUMPDEST DUP7 DUP7 DUP7 DUP2 DUP2 LT PUSH2 0x175A JUMPI PUSH2 0x175A PUSH2 0x2B3D JUMP JUMPDEST SWAP1 POP PUSH1 0x20 MUL DUP2 ADD SWAP1 PUSH2 0x176C SWAP2 SWAP1 PUSH2 0x2DBE JUMP JUMPDEST PUSH1 0x20 ADD CALLDATALOAD PUSH1 0x40 MLOAD DUP5 PUSH4 0xFFFFFFFF AND PUSH1 0xE0 SHL DUP2 MSTORE PUSH1 0x4 ADD PUSH2 0x178E SWAP4 SWAP3 SWAP2 SWAP1 PUSH2 0x2DD2 JUMP JUMPDEST PUSH0 PUSH1 0x40 MLOAD DUP1 DUP4 SUB DUP2 PUSH0 DUP8 DUP1 EXTCODESIZE ISZERO DUP1 ISZERO PUSH2 0x17A5 JUMPI PUSH0 PUSH0 REVERT JUMPDEST POP GAS CALL ISZERO DUP1 ISZERO PUSH2 0x17B7 JUMPI RETURNDATASIZE PUSH0 PUSH0 RETURNDATACOPY RETURNDATASIZE PUSH0 REVERT JUMPDEST POP POP PUSH1 0x1 SWAP1 SWAP3 ADD SWAP2 POP PUSH2 0x170C SWAP1 POP JUMP JUMPDEST POP POP POP JUMP JUMPDEST PUSH1 0x11 DUP1 SLOAD PUSH1 0x12 SLOAD PUSH1 0x13 SLOAD PUSH1 0x14 SLOAD PUSH1 0x15 SLOAD PUSH1 0x16 SLOAD PUSH1 0x17 DUP1 SLOAD SWAP7 SWAP8 PUSH1 0x1 PUSH1 0x1 PUSH1 0xA0 SHL SUB DUP8 AND SWAP8 PUSH1 0xFF PUSH1 0x1 PUSH1 0xA0 SHL SWAP1 SWAP9 DIV DUP9 AND SWAP8 DUP6 DUP2 AND SWAP6 PUSH2 0x100 SWAP1 DIV AND SWAP4 SWAP3 SWAP1 PUSH2 0x1813 SWAP1 PUSH2 0x2958 JUMP JUMPDEST DUP1 PUSH1 0x1F ADD PUSH1 0x20 DUP1 SWAP2 DIV MUL PUSH1 0x20 ADD PUSH1 0x40 MLOAD SWAP1 DUP2 ADD PUSH1 0x40 MSTORE DUP1 SWAP3 SWAP2 SWAP1 DUP2 DUP2 MSTORE PUSH1 0x20 ADD DUP3 DUP1 SLOAD PUSH2 0x183F SWAP1 PUSH2 0x2958 JUMP JUMPDEST DUP1 ISZERO PUSH2 0x188A JUMPI DUP1 PUSH1 0x1F LT PUSH2 0x1861 JUMPI PUSH2 0x100 DUP1 DUP4 SLOAD DIV MUL DUP4 MSTORE SWAP2 PUSH1 0x20 ADD SWAP2 PUSH2 0x188A JUMP JUMPDEST DUP3 ADD SWAP2 SWAP1 PUSH0 MSTORE PUSH1 0x20 PUSH0 KECCAK256 SWAP1 JUMPDEST DUP2 SLOAD DUP2 MSTORE SWAP1 PUSH1 0x1 ADD SWAP1 PUSH1 0x20 ADD DUP1 DUP4 GT PUSH2 0x186D JUMPI DUP3 SWAP1 SUB PUSH1 0x1F AND DUP3 ADD SWAP2 JUMPDEST POP POP POP POP POP SWAP1 POP DUP10 JUMP JUMPDEST PUSH2 0x189C PUSH2 0x1DD2 JUMP JUMPDEST PUSH0 PUSH1 0xC DUP7 DUP7 PUSH1 0x40 MLOAD PUSH2 0x18AF SWAP3 SWAP2 SWAP1 PUSH2 0x2B2E JUMP JUMPDEST SWAP1 DUP2 MSTORE PUSH1 0x40 MLOAD SWAP1 DUP2 SWAP1 SUB PUSH1 0x20 ADD SWAP1 KECCAK256 SWAP1 POP DUP1 PUSH2 0x18CC DUP7 DUP9 DUP4 PUSH2 0x2A1B JUMP JUMPDEST POP PUSH1 0x1 DUP2 ADD PUSH2 0x18DC DUP5 DUP7 DUP4 PUSH2 0x2A1B JUMP JUMPDEST POP PUSH1 0x2 DUP2 ADD DUP3 SWAP1 SSTORE TIMESTAMP PUSH1 0x3 DUP3 ADD SSTORE PUSH1 0x40 MLOAD PUSH2 0x18FA SWAP1 DUP8 SWAP1 DUP8 SWAP1 PUSH2 0x2B2E JUMP JUMPDEST PUSH1 0x40 MLOAD DUP1 SWAP2 SUB SWAP1 KECCAK256 PUSH32 0x6980CC14623A9E2E782881DD8347E20EBD89E558191566E01E8CC11E9066F068 DUP6 DUP6 DUP6 TIMESTAMP PUSH1 0x40 MLOAD PUSH2 0x1937 SWAP5 SWAP4 SWAP3 SWAP2 SWAP1 PUSH2 0x2DF5 JUMP JUMPDEST PUSH1 0x40 MLOAD DUP1 SWAP2 SUB SWAP1 LOG2 POP POP POP POP POP POP JUMP JUMPDEST PUSH1 0x60 PUSH1 0xD DUP1 SLOAD DUP1 PUSH1 0x20 MUL PUSH1 0x20 ADD PUSH1 0x40 MLOAD SWAP1 DUP2 ADD PUSH1 0x40 MSTORE DUP1 SWAP3 SWAP2 SWAP1 DUP2 DUP2 MSTORE PUSH1 0x20 ADD PUSH0 SWAP1 JUMPDEST DUP3 DUP3 LT ISZERO PUSH2 0x979 JUMPI DUP4 DUP3 SWAP1 PUSH0 MSTORE PUSH1 0x20 PUSH0 KECCAK256 SWAP1 PUSH1 0x5 MUL ADD PUSH1 0x40 MLOAD DUP1 PUSH1 0xA0 ADD PUSH1 0x40 MSTORE SWAP1 DUP2 PUSH0 DUP3 ADD DUP1 SLOAD PUSH2 0x199A SWAP1 PUSH2 0x2958 JUMP JUMPDEST DUP1 PUSH1 0x1F ADD PUSH1 0x20 DUP1 SWAP2 DIV MUL PUSH1 0x20 ADD PUSH1 0x40 MLOAD SWAP1 DUP2 ADD PUSH1 0x40 MSTORE DUP1 SWAP3 SWAP2 SWAP1 DUP2 DUP2 MSTORE PUSH1 0x20 ADD DUP3 DUP1 SLOAD PUSH2 0x19C6 SWAP1 PUSH2 0x2958 JUMP JUMPDEST DUP1 ISZERO PUSH2 0x1A11 JUMPI DUP1 PUSH1 0x1F LT PUSH2 0x19E8 JUMPI PUSH2 0x100 DUP1 DUP4 SLOAD DIV MUL DUP4 MSTORE SWAP2 PUSH1 0x20 ADD SWAP2 PUSH2 0x1A11 JUMP JUMPDEST DUP3 ADD SWAP2 SWAP1 PUSH0 MSTORE PUSH1 0x20 PUSH0 KECCAK256 SWAP1 JUMPDEST DUP2 SLOAD DUP2 MSTORE SWAP1 PUSH1 0x1 ADD SWAP1 PUSH1 0x20 ADD DUP1 DUP4 GT PUSH2 0x19F4 JUMPI DUP3 SWAP1 SUB PUSH1 0x1F AND DUP3 ADD SWAP2 JUMPDEST POP POP POP SWAP2 DUP4 MSTORE POP POP PUSH1 0x1 DUP3 DUP2 ADD SLOAD PUSH1 0x1 PUSH1 0x1 PUSH1 0xA0 SHL SUB AND PUSH1 0x20 DUP1 DUP5 ADD SWAP2 SWAP1 SWAP2 MSTORE PUSH1 0x2 DUP5 ADD SLOAD PUSH1 0x40 DUP5 ADD MSTORE PUSH1 0x3 DUP5 ADD SLOAD PUSH1 0x60 DUP5 ADD MSTORE PUSH1 0x4 SWAP1 SWAP4 ADD SLOAD PUSH1 0x80 SWAP1 SWAP3 ADD SWAP2 SWAP1 SWAP2 MSTORE SWAP2 DUP4 MSTORE SWAP3 ADD SWAP2 ADD PUSH2 0x196A JUMP JUMPDEST PUSH2 0x1A68 PUSH2 0x1DD2 JUMP JUMPDEST PUSH1 0x7 DUP6 PUSH1 0xC DUP2 GT ISZERO PUSH2 0x1A7C JUMPI PUSH2 0x1A7C PUSH2 0x279A JUMP JUMPDEST EQ DUP1 PUSH2 0x1A99 JUMPI POP PUSH1 0x8 DUP6 PUSH1 0xC DUP2 GT ISZERO PUSH2 0x1A97 JUMPI PUSH2 0x1A97 PUSH2 0x279A JUMP JUMPDEST EQ JUMPDEST DUP1 PUSH2 0x1AB5 JUMPI POP PUSH1 0x9 DUP6 PUSH1 0xC DUP2 GT ISZERO PUSH2 0x1AB3 JUMPI PUSH2 0x1AB3 PUSH2 0x279A JUMP JUMPDEST EQ JUMPDEST DUP1 PUSH2 0x1AD1 JUMPI POP PUSH1 0xA DUP6 PUSH1 0xC DUP2 GT ISZERO PUSH2 0x1ACF JUMPI PUSH2 0x1ACF PUSH2 0x279A JUMP JUMPDEST EQ JUMPDEST PUSH2 0x1B34 JUMPI PUSH1 0x40 MLOAD PUSH3 0x461BCD PUSH1 0xE5 SHL DUP2 MSTORE PUSH1 0x20 PUSH1 0x4 DUP3 ADD MSTORE PUSH1 0x2E PUSH1 0x24 DUP3 ADD MSTORE PUSH32 0x44617368626F6172643A20496E76616C696420636F6E646974696F6E20666F72 PUSH1 0x44 DUP3 ADD MSTORE PUSH14 0x818DA185B9B995B08185B195C9D PUSH1 0x92 SHL PUSH1 0x64 DUP3 ADD MSTORE PUSH1 0x84 ADD PUSH2 0x76C JUMP JUMPDEST DUP3 DUP5 SUB PUSH2 0x1B97 JUMPI PUSH1 0x40 MLOAD PUSH3 0x461BCD PUSH1 0xE5 SHL DUP2 MSTORE PUSH1 0x20 PUSH1 0x4 DUP3 ADD MSTORE PUSH1 0x2B PUSH1 0x24 DUP3 ADD MSTORE PUSH32 0x44617368626F6172643A204368616E6E656C20626F756E6473206D7573742062 PUSH1 0x44 DUP3 ADD MSTORE PUSH11 0x1948191A5999995C995B9D PUSH1 0xAA SHL PUSH1 0x64 DUP3 ADD MSTORE PUSH1 0x84 ADD PUSH2 0x76C JUMP JUMPDEST PUSH1 0x11 SLOAD PUSH0 SUB PUSH2 0x1BB7 JUMPI PUSH1 0x18 DUP1 SLOAD SWAP1 PUSH0 PUSH2 0x1BAF DUP4 PUSH2 0x29A4 JUMP JUMPDEST SWAP1 SWAP2 SSTORE POP PUSH1 0x11 SSTORE JUMPDEST PUSH1 0x12 DUP1 SLOAD CALLER PUSH1 0x1 PUSH1 0x1 PUSH1 0xA0 SHL SUB NOT DUP3 AND DUP2 OR DUP4 SSTORE DUP8 SWAP3 SWAP2 PUSH1 0x1 PUSH1 0x1 PUSH1 0xA8 SHL SUB NOT AND PUSH1 0xFF PUSH1 0xA0 SHL NOT SWAP1 SWAP2 AND OR PUSH1 0x1 PUSH1 0xA0 SHL DUP4 PUSH1 0xC DUP2 GT ISZERO PUSH2 0x1BF9 JUMPI PUSH2 0x1BF9 PUSH2 0x279A JUMP JUMPDEST MUL OR SWAP1 SSTORE POP DUP3 DUP5 SLT ISZERO PUSH2 0x1C15 JUMPI PUSH1 0x13 DUP5 SWAP1 SSTORE PUSH1 0x14 DUP4 SWAP1 SSTORE PUSH2 0x1C20 JUMP JUMPDEST PUSH1 0x13 DUP4 SWAP1 SSTORE PUSH1 0x14 DUP5 SWAP1 SSTORE JUMPDEST PUSH1 0x17 PUSH2 0x1C2D DUP3 DUP5 DUP4 PUSH2 0x2A1B JUMP JUMPDEST POP PUSH1 0x15 DUP1 SLOAD PUSH2 0xFFFF NOT AND PUSH1 0x1 OR SWAP1 SSTORE PUSH0 PUSH1 0x16 SSTORE PUSH1 0x11 SLOAD PUSH1 0x13 SLOAD PUSH1 0x14 SLOAD PUSH1 0x40 MLOAD CALLER SWAP4 SWAP3 PUSH32 0x778334AF3114ADE8967680FBF1E80E8E34DBE95416246AAEF26907AE22CDD358 SWAP3 PUSH2 0x1C82 SWAP3 DUP12 SWAP3 SWAP2 SWAP1 DUP10 SWAP1 DUP10 SWAP1 PUSH2 0x2AF7 JUMP JUMPDEST PUSH1 0x40 MLOAD DUP1 SWAP2 SUB SWAP1 LOG3 POP POP POP POP POP JUMP JUMPDEST PUSH2 0x1C99 PUSH2 0x1DD2 JUMP JUMPDEST PUSH1 0x1 PUSH1 0x1 PUSH1 0xA0 SHL SUB DUP2 AND PUSH2 0x1CC2 JUMPI PUSH1 0x40 MLOAD PUSH4 0x1E4FBDF7 PUSH1 0xE0 SHL DUP2 MSTORE PUSH0 PUSH1 0x4 DUP3 ADD MSTORE PUSH1 0x24 ADD PUSH2 0x76C JUMP JUMPDEST PUSH2 0x154B DUP2 PUSH2 0x1DFE JUMP JUMPDEST PUSH2 0x1CED PUSH1 0x40 MLOAD DUP1 PUSH1 0x60 ADD PUSH1 0x40 MSTORE DUP1 PUSH1 0x60 DUP2 MSTORE PUSH1 0x20 ADD PUSH0 DUP2 MSTORE PUSH1 0x20 ADD PUSH0 DUP2 MSTORE POP SWAP1 JUMP JUMPDEST PUSH1 0xA DUP4 DUP4 PUSH1 0x40 MLOAD PUSH2 0x1CFF SWAP3 SWAP2 SWAP1 PUSH2 0x2B2E JUMP JUMPDEST SWAP1 DUP2 MSTORE PUSH1 0x20 ADD PUSH1 0x40 MLOAD DUP1 SWAP2 SUB SWAP1 KECCAK256 PUSH1 0x40 MLOAD DUP1 PUSH1 0x60 ADD PUSH1 0x40 MSTORE SWAP1 DUP2 PUSH0 DUP3 ADD DUP1 SLOAD PUSH2 0x1D27 SWAP1 PUSH2 0x2958 JUMP JUMPDEST DUP1 PUSH1 0x1F ADD PUSH1 0x20 DUP1 SWAP2 DIV MUL PUSH1 0x20 ADD PUSH1 0x40 MLOAD SWAP1 DUP2 ADD PUSH1 0x40 MSTORE DUP1 SWAP3 SWAP2 SWAP1 DUP2 DUP2 MSTORE PUSH1 0x20 ADD DUP3 DUP1 SLOAD PUSH2 0x1D53 SWAP1 PUSH2 0x2958 JUMP JUMPDEST DUP1 ISZERO PUSH2 0x1D9E JUMPI DUP1 PUSH1 0x1F LT PUSH2 0x1D75 JUMPI PUSH2 0x100 DUP1 DUP4 SLOAD DIV MUL DUP4 MSTORE SWAP2 PUSH1 0x20 ADD SWAP2 PUSH2 0x1D9E JUMP JUMPDEST DUP3 ADD SWAP2 SWAP1 PUSH0 MSTORE PUSH1 0x20 PUSH0 KECCAK256 SWAP1 JUMPDEST DUP2 SLOAD DUP2 MSTORE SWAP1 PUSH1 0x1 ADD SWAP1 PUSH1 0x20 ADD DUP1 DUP4 GT PUSH2 0x1D81 JUMPI DUP3 SWAP1 SUB PUSH1 0x1F AND DUP3 ADD SWAP2 JUMPDEST POP POP POP POP POP DUP2 MSTORE PUSH1 0x20 ADD PUSH1 0x1 DUP3 ADD SLOAD DUP2 MSTORE PUSH1 0x20 ADD PUSH1 0x2 DUP3 ADD SLOAD DUP2 MSTORE POP POP SWAP1 POP SWAP3 SWAP2 POP POP JUMP JUMPDEST PUSH1 0xE DUP2 DUP2 SLOAD DUP2 LT PUSH2 0x991 JUMPI PUSH0 DUP1 REVERT JUMPDEST PUSH0 SLOAD PUSH1 0x1 PUSH1 0x1 PUSH1 0xA0 SHL SUB AND CALLER EQ PUSH2 0x8AC JUMPI PUSH1 0x40 MLOAD PUSH4 0x118CDAA7 PUSH1 0xE0 SHL DUP2 MSTORE CALLER PUSH1 0x4 DUP3 ADD MSTORE PUSH1 0x24 ADD PUSH2 0x76C JUMP JUMPDEST PUSH0 DUP1 SLOAD PUSH1 0x1 PUSH1 0x1 PUSH1 0xA0 SHL SUB DUP4 DUP2 AND PUSH1 0x1 PUSH1 0x1 PUSH1 0xA0 SHL SUB NOT DUP4 AND DUP2 OR DUP5 SSTORE PUSH1 0x40 MLOAD SWAP2 SWAP1 SWAP3 AND SWAP3 DUP4 SWAP2 PUSH32 0x8BE0079C531659141344CD1FD0A4F28419497F9722A3DAAFE3B4186F6B6457E0 SWAP2 SWAP1 LOG3 POP POP JUMP JUMPDEST PUSH1 0x15 SLOAD PUSH1 0xFF AND ISZERO DUP1 PUSH2 0x1E66 JUMPI POP PUSH1 0x15 SLOAD PUSH2 0x100 SWAP1 DIV PUSH1 0xFF AND JUMPDEST DUP1 PUSH2 0x1E71 JUMPI POP PUSH1 0x11 SLOAD ISZERO JUMPDEST ISZERO PUSH2 0x1E7B JUMPI POP POP POP JUMP JUMPDEST PUSH1 0x12 SLOAD PUSH1 0x13 SLOAD PUSH1 0x14 SLOAD PUSH0 SWAP3 PUSH1 0x1 PUSH1 0xA0 SHL SWAP1 DIV PUSH1 0xFF AND SWAP2 SWAP1 DUP2 SWAP1 PUSH1 0x1 DUP5 PUSH1 0xC DUP2 GT ISZERO PUSH2 0x1EA8 JUMPI PUSH2 0x1EA8 PUSH2 0x279A JUMP JUMPDEST SUB PUSH2 0x1EBF JUMPI DUP3 DUP9 SGT ISZERO PUSH2 0x1EBA JUMPI PUSH1 0x1 SWAP5 POP JUMPDEST PUSH2 0x212A JUMP JUMPDEST PUSH1 0x2 DUP5 PUSH1 0xC DUP2 GT ISZERO PUSH2 0x1ED3 JUMPI PUSH2 0x1ED3 PUSH2 0x279A JUMP JUMPDEST SUB PUSH2 0x1EE9 JUMPI DUP3 DUP9 SLT ISZERO PUSH2 0x1EBA JUMPI PUSH1 0x1 SWAP5 POP PUSH2 0x212A JUMP JUMPDEST PUSH1 0x3 DUP5 PUSH1 0xC DUP2 GT ISZERO PUSH2 0x1EFD JUMPI PUSH2 0x1EFD PUSH2 0x279A JUMP JUMPDEST SUB PUSH2 0x1F12 JUMPI DUP3 DUP9 SUB PUSH2 0x1EBA JUMPI PUSH1 0x1 SWAP5 POP PUSH2 0x212A JUMP JUMPDEST DUP6 ISZERO PUSH2 0x212A JUMPI PUSH1 0x4 DUP5 PUSH1 0xC DUP2 GT ISZERO PUSH2 0x1F2C JUMPI PUSH2 0x1F2C PUSH2 0x279A JUMP JUMPDEST SUB PUSH2 0x1F63 JUMPI DUP3 DUP8 SLT DUP1 ISZERO PUSH2 0x1F40 JUMPI POP DUP3 DUP9 SLT ISZERO JUMPDEST DUP1 PUSH2 0x1F55 JUMPI POP DUP3 DUP8 SGT DUP1 ISZERO PUSH2 0x1F55 JUMPI POP DUP3 DUP9 SGT ISZERO JUMPDEST ISZERO PUSH2 0x1EBA JUMPI PUSH1 0x1 SWAP5 POP PUSH2 0x212A JUMP JUMPDEST PUSH1 0x5 DUP5 PUSH1 0xC DUP2 GT ISZERO PUSH2 0x1F77 JUMPI PUSH2 0x1F77 PUSH2 0x279A JUMP JUMPDEST SUB PUSH2 0x1F96 JUMPI DUP3 DUP8 SLT DUP1 ISZERO PUSH2 0x1F55 JUMPI POP DUP3 DUP9 SLT PUSH2 0x1EBA JUMPI PUSH1 0x1 SWAP5 POP PUSH2 0x212A JUMP JUMPDEST PUSH1 0x6 DUP5 PUSH1 0xC DUP2 GT ISZERO PUSH2 0x1FAA JUMPI PUSH2 0x1FAA PUSH2 0x279A JUMP JUMPDEST SUB PUSH2 0x1FC9 JUMPI DUP3 DUP8 SGT DUP1 ISZERO PUSH2 0x1F55 JUMPI POP DUP3 DUP9 SGT PUSH2 0x1EBA JUMPI PUSH1 0x1 SWAP5 POP PUSH2 0x212A JUMP JUMPDEST PUSH1 0x7 DUP5 PUSH1 0xC DUP2 GT ISZERO PUSH2 0x1FDD JUMPI PUSH2 0x1FDD PUSH2 0x279A JUMP JUMPDEST SUB PUSH2 0x2020 JUMPI PUSH0 DUP3 DUP9 SLT DUP1 PUSH2 0x1FF0 JUMPI POP DUP2 DUP9 SGT JUMPDEST SWAP1 POP PUSH0 DUP4 DUP11 SLT ISZERO DUP1 ISZERO PUSH2 0x2003 JUMPI POP DUP3 DUP11 SGT ISZERO JUMPDEST SWAP1 POP DUP2 DUP1 ISZERO PUSH2 0x200F JUMPI POP DUP1 JUMPDEST ISZERO PUSH2 0x2019 JUMPI PUSH1 0x1 SWAP7 POP JUMPDEST POP POP PUSH2 0x212A JUMP JUMPDEST PUSH1 0x8 DUP5 PUSH1 0xC DUP2 GT ISZERO PUSH2 0x2034 JUMPI PUSH2 0x2034 PUSH2 0x279A JUMP JUMPDEST SUB PUSH2 0x2073 JUMPI PUSH0 DUP3 DUP9 SLT ISZERO DUP1 ISZERO PUSH2 0x204A JUMPI POP DUP2 DUP9 SGT ISZERO JUMPDEST SWAP1 POP PUSH0 DUP4 DUP11 SLT DUP1 PUSH2 0x2003 JUMPI POP POP DUP2 DUP10 SGT DUP2 DUP1 ISZERO PUSH2 0x200F JUMPI POP DUP1 ISZERO PUSH2 0x2019 JUMPI PUSH1 0x1 SWAP7 POP POP POP PUSH2 0x212A JUMP JUMPDEST PUSH1 0x9 DUP5 PUSH1 0xC DUP2 GT ISZERO PUSH2 0x2087 JUMPI PUSH2 0x2087 PUSH2 0x279A JUMP JUMPDEST SUB PUSH2 0x20A7 JUMPI DUP2 DUP9 SLT ISZERO DUP1 ISZERO PUSH2 0x1F55 JUMPI POP DUP1 DUP9 SGT PUSH2 0x1EBA JUMPI PUSH1 0x1 SWAP5 POP PUSH2 0x212A JUMP JUMPDEST PUSH1 0xA DUP5 PUSH1 0xC DUP2 GT ISZERO PUSH2 0x20BB JUMPI PUSH2 0x20BB PUSH2 0x279A JUMP JUMPDEST SUB PUSH2 0x20DA JUMPI DUP2 DUP9 SLT DUP1 PUSH2 0x1F55 JUMPI POP DUP1 DUP9 SGT ISZERO PUSH2 0x1EBA JUMPI PUSH1 0x1 SWAP5 POP PUSH2 0x212A JUMP JUMPDEST PUSH1 0xB DUP5 PUSH1 0xC DUP2 GT ISZERO PUSH2 0x20EE JUMPI PUSH2 0x20EE PUSH2 0x279A JUMP JUMPDEST SUB PUSH2 0x2104 JUMPI DUP7 DUP9 SGT ISZERO PUSH2 0x1EBA JUMPI PUSH1 0x1 SWAP5 POP PUSH2 0x212A JUMP JUMPDEST PUSH1 0xC DUP5 PUSH1 0xC DUP2 GT ISZERO PUSH2 0x2118 JUMPI PUSH2 0x2118 PUSH2 0x279A JUMP JUMPDEST SUB PUSH2 0x212A JUMPI DUP7 DUP9 SLT ISZERO PUSH2 0x212A JUMPI PUSH1 0x1 SWAP5 POP JUMPDEST DUP5 ISZERO PUSH2 0x2191 JUMPI PUSH1 0x15 DUP1 SLOAD PUSH2 0xFF00 NOT AND PUSH2 0x100 OR SWAP1 SSTORE TIMESTAMP PUSH1 0x16 SSTORE PUSH1 0x12 SLOAD PUSH1 0x11 SLOAD PUSH1 0x40 MLOAD PUSH1 0x1 PUSH1 0x1 PUSH1 0xA0 SHL SUB SWAP1 SWAP3 AND SWAP2 PUSH32 0x601CDB1CD0F27FC0F4BAD78847FBD1402A286180590E1019934014E93E922A0F SWAP1 PUSH2 0x2188 SWAP1 DUP13 SWAP1 PUSH1 0x17 SWAP1 PUSH2 0x2E1B JUMP JUMPDEST PUSH1 0x40 MLOAD DUP1 SWAP2 SUB SWAP1 LOG3 JUMPDEST POP POP POP POP POP POP POP POP JUMP JUMPDEST POP DUP1 SLOAD PUSH0 DUP3 SSTORE PUSH1 0x5 MUL SWAP1 PUSH0 MSTORE PUSH1 0x20 PUSH0 KECCAK256 SWAP1 DUP2 ADD SWAP1 PUSH2 0x154B SWAP2 SWAP1 PUSH2 0x21F0 JUMP JUMPDEST POP DUP1 SLOAD PUSH2 0x21C5 SWAP1 PUSH2 0x2958 JUMP JUMPDEST PUSH0 DUP3 SSTORE DUP1 PUSH1 0x1F LT PUSH2 0x21D4 JUMPI POP POP JUMP JUMPDEST PUSH1 0x1F ADD PUSH1 0x20 SWAP1 DIV SWAP1 PUSH0 MSTORE PUSH1 0x20 PUSH0 KECCAK256 SWAP1 DUP2 ADD SWAP1 PUSH2 0x154B SWAP2 SWAP1 PUSH2 0x2236 JUMP JUMPDEST DUP1 DUP3 GT ISZERO PUSH2 0x2232 JUMPI PUSH0 PUSH2 0x2203 DUP3 DUP3 PUSH2 0x21B9 JUMP JUMPDEST POP PUSH1 0x1 DUP2 ADD DUP1 SLOAD PUSH1 0x1 PUSH1 0x1 PUSH1 0xA0 SHL SUB NOT AND SWAP1 SSTORE PUSH0 PUSH1 0x2 DUP3 ADD DUP2 SWAP1 SSTORE PUSH1 0x3 DUP3 ADD DUP2 SWAP1 SSTORE PUSH1 0x4 DUP3 ADD SSTORE PUSH1 0x5 ADD PUSH2 0x21F0 JUMP JUMPDEST POP SWAP1 JUMP JUMPDEST JUMPDEST DUP1 DUP3 GT ISZERO PUSH2 0x2232 JUMPI PUSH0 DUP2 SSTORE PUSH1 0x1 ADD PUSH2 0x2237 JUMP JUMPDEST PUSH4 0x4E487B71 PUSH1 0xE0 SHL PUSH0 MSTORE PUSH1 0x41 PUSH1 0x4 MSTORE PUSH1 0x24 PUSH0 REVERT JUMPDEST PUSH0 PUSH1 0x20 DUP3 DUP5 SUB SLT ISZERO PUSH2 0x226E JUMPI PUSH0 PUSH0 REVERT JUMPDEST DUP2 CALLDATALOAD PUSH1 0x1 PUSH1 0x1 PUSH1 0x40 SHL SUB DUP2 GT ISZERO PUSH2 0x2283 JUMPI PUSH0 PUSH0 REVERT JUMPDEST DUP3 ADD PUSH1 0x1F DUP2 ADD DUP5 SGT PUSH2 0x2293 JUMPI PUSH0 PUSH0 REVERT JUMPDEST DUP1 CALLDATALOAD PUSH1 0x1 PUSH1 0x1 PUSH1 0x40 SHL SUB DUP2 GT ISZERO PUSH2 0x22AC JUMPI PUSH2 0x22AC PUSH2 0x224A JUMP JUMPDEST PUSH1 0x40 MLOAD PUSH1 0x1F DUP3 ADD PUSH1 0x1F NOT SWAP1 DUP2 AND PUSH1 0x3F ADD AND DUP2 ADD PUSH1 0x1 PUSH1 0x1 PUSH1 0x40 SHL SUB DUP2 GT DUP3 DUP3 LT OR ISZERO PUSH2 0x22DA JUMPI PUSH2 0x22DA PUSH2 0x224A JUMP JUMPDEST PUSH1 0x40 MSTORE DUP2 DUP2 MSTORE DUP3 DUP3 ADD PUSH1 0x20 ADD DUP7 LT ISZERO PUSH2 0x22F1 JUMPI PUSH0 PUSH0 REVERT JUMPDEST DUP2 PUSH1 0x20 DUP5 ADD PUSH1 0x20 DUP4 ADD CALLDATACOPY PUSH0 SWAP2 DUP2 ADD PUSH1 0x20 ADD SWAP2 SWAP1 SWAP2 MSTORE SWAP5 SWAP4 POP POP POP POP JUMP JUMPDEST PUSH0 DUP2 MLOAD DUP1 DUP5 MSTORE DUP1 PUSH1 0x20 DUP5 ADD PUSH1 0x20 DUP7 ADD MCOPY PUSH0 PUSH1 0x20 DUP3 DUP7 ADD ADD MSTORE PUSH1 0x20 PUSH1 0x1F NOT PUSH1 0x1F DUP4 ADD AND DUP6 ADD ADD SWAP2 POP POP SWAP3 SWAP2 POP POP JUMP JUMPDEST PUSH1 0x60 DUP2 MSTORE PUSH0 PUSH2 0x234E PUSH1 0x60 DUP4 ADD DUP7 PUSH2 0x230E JUMP JUMPDEST PUSH1 0x20 DUP4 ADD SWAP5 SWAP1 SWAP5 MSTORE POP PUSH1 0x40 ADD MSTORE SWAP2 SWAP1 POP JUMP JUMPDEST PUSH0 PUSH1 0x20 DUP3 DUP5 SUB SLT ISZERO PUSH2 0x2370 JUMPI PUSH0 PUSH0 REVERT JUMPDEST POP CALLDATALOAD SWAP2 SWAP1 POP JUMP JUMPDEST PUSH1 0x20 DUP2 MSTORE PUSH0 PUSH2 0x2389 PUSH1 0x20 DUP4 ADD DUP5 PUSH2 0x230E JUMP JUMPDEST SWAP4 SWAP3 POP POP POP JUMP JUMPDEST DUP1 CALLDATALOAD PUSH1 0xD DUP2 LT PUSH2 0x239E JUMPI PUSH0 PUSH0 REVERT JUMPDEST SWAP2 SWAP1 POP JUMP JUMPDEST PUSH0 PUSH0 DUP4 PUSH1 0x1F DUP5 ADD SLT PUSH2 0x23B3 JUMPI PUSH0 PUSH0 REVERT JUMPDEST POP DUP2 CALLDATALOAD PUSH1 0x1 PUSH1 0x1 PUSH1 0x40 SHL SUB DUP2 GT ISZERO PUSH2 0x23C9 JUMPI PUSH0 PUSH0 REVERT JUMPDEST PUSH1 0x20 DUP4 ADD SWAP2 POP DUP4 PUSH1 0x20 DUP3 DUP6 ADD ADD GT ISZERO PUSH2 0x23E0 JUMPI PUSH0 PUSH0 REVERT JUMPDEST SWAP3 POP SWAP3 SWAP1 POP JUMP JUMPDEST PUSH0 PUSH0 PUSH0 PUSH0 PUSH1 0x60 DUP6 DUP8 SUB SLT ISZERO PUSH2 0x23FA JUMPI PUSH0 PUSH0 REVERT JUMPDEST PUSH2 0x2403 DUP6 PUSH2 0x2390 JUMP JUMPDEST SWAP4 POP PUSH1 0x20 DUP6 ADD CALLDATALOAD SWAP3 POP PUSH1 0x40 DUP6 ADD CALLDATALOAD PUSH1 0x1 PUSH1 0x1 PUSH1 0x40 SHL SUB DUP2 GT ISZERO PUSH2 0x2424 JUMPI PUSH0 PUSH0 REVERT JUMPDEST PUSH2 0x2430 DUP8 DUP3 DUP9 ADD PUSH2 0x23A3 JUMP JUMPDEST SWAP6 SWAP9 SWAP5 SWAP8 POP SWAP6 POP POP POP POP JUMP JUMPDEST PUSH0 PUSH1 0x20 DUP3 ADD PUSH1 0x20 DUP4 MSTORE DUP1 DUP5 MLOAD DUP1 DUP4 MSTORE PUSH1 0x40 DUP6 ADD SWAP2 POP PUSH1 0x40 DUP2 PUSH1 0x5 SHL DUP7 ADD ADD SWAP3 POP PUSH1 0x20 DUP7 ADD PUSH0 JUMPDEST DUP3 DUP2 LT ISZERO PUSH2 0x2493 JUMPI PUSH1 0x3F NOT DUP8 DUP7 SUB ADD DUP5 MSTORE PUSH2 0x247E DUP6 DUP4 MLOAD PUSH2 0x230E JUMP JUMPDEST SWAP5 POP PUSH1 0x20 SWAP4 DUP5 ADD SWAP4 SWAP2 SWAP1 SWAP2 ADD SWAP1 PUSH1 0x1 ADD PUSH2 0x2462 JUMP JUMPDEST POP SWAP3 SWAP7 SWAP6 POP POP POP POP POP POP JUMP JUMPDEST PUSH1 0xA0 DUP2 MSTORE PUSH0 PUSH2 0x24B1 PUSH1 0xA0 DUP4 ADD DUP9 PUSH2 0x230E JUMP JUMPDEST PUSH1 0x1 PUSH1 0x1 PUSH1 0xA0 SHL SUB SWAP7 SWAP1 SWAP7 AND PUSH1 0x20 DUP4 ADD MSTORE POP PUSH1 0x40 DUP2 ADD SWAP4 SWAP1 SWAP4 MSTORE PUSH1 0x60 DUP4 ADD SWAP2 SWAP1 SWAP2 MSTORE PUSH1 0x80 SWAP1 SWAP2 ADD MSTORE SWAP2 SWAP1 POP JUMP JUMPDEST PUSH0 PUSH0 PUSH0 PUSH0 PUSH1 0x80 DUP6 DUP8 SUB SLT ISZERO PUSH2 0x24F1 JUMPI PUSH0 PUSH0 REVERT JUMPDEST POP POP DUP3 CALLDATALOAD SWAP5 PUSH1 0x20 DUP5 ADD CALLDATALOAD SWAP5 POP PUSH1 0x40 DUP5 ADD CALLDATALOAD SWAP4 PUSH1 0x60 ADD CALLDATALOAD SWAP3 POP SWAP1 POP JUMP JUMPDEST PUSH0 PUSH0 PUSH0 PUSH1 0x40 DUP5 DUP7 SUB SLT ISZERO PUSH2 0x251F JUMPI PUSH0 PUSH0 REVERT JUMPDEST DUP4 CALLDATALOAD PUSH1 0x1 PUSH1 0x1 PUSH1 0x40 SHL SUB DUP2 GT ISZERO PUSH2 0x2534 JUMPI PUSH0 PUSH0 REVERT JUMPDEST PUSH2 0x2540 DUP7 DUP3 DUP8 ADD PUSH2 0x23A3 JUMP JUMPDEST SWAP1 SWAP8 SWAP1 SWAP7 POP PUSH1 0x20 SWAP6 SWAP1 SWAP6 ADD CALLDATALOAD SWAP5 SWAP4 POP POP POP POP JUMP JUMPDEST PUSH1 0x80 DUP2 MSTORE PUSH0 PUSH2 0x2566 PUSH1 0x80 DUP4 ADD DUP8 PUSH2 0x230E JUMP JUMPDEST DUP3 DUP2 SUB PUSH1 0x20 DUP5 ADD MSTORE PUSH2 0x2578 DUP2 DUP8 PUSH2 0x230E JUMP JUMPDEST PUSH1 0x40 DUP5 ADD SWAP6 SWAP1 SWAP6 MSTORE POP POP PUSH1 0x60 ADD MSTORE SWAP3 SWAP2 POP POP JUMP JUMPDEST PUSH0 PUSH1 0x20 DUP3 ADD PUSH1 0x20 DUP4 MSTORE DUP1 DUP5 MLOAD DUP1 DUP4 MSTORE PUSH1 0x40 DUP6 ADD SWAP2 POP PUSH1 0x40 DUP2 PUSH1 0x5 SHL DUP7 ADD ADD SWAP3 POP PUSH1 0x20 DUP7 ADD PUSH0 JUMPDEST DUP3 DUP2 LT ISZERO PUSH2 0x2493 JUMPI PUSH1 0x3F NOT DUP8 DUP7 SUB ADD DUP5 MSTORE DUP2 MLOAD DUP1 MLOAD PUSH1 0xA0 DUP8 MSTORE PUSH2 0x25D8 PUSH1 0xA0 DUP9 ADD DUP3 PUSH2 0x230E JUMP JUMPDEST PUSH1 0x20 DUP4 DUP2 ADD MLOAD PUSH1 0x1 PUSH1 0x1 PUSH1 0xA0 SHL SUB AND DUP10 DUP3 ADD MSTORE PUSH1 0x40 DUP1 DUP6 ADD MLOAD SWAP1 DUP11 ADD MSTORE PUSH1 0x60 DUP1 DUP6 ADD MLOAD SWAP1 DUP11 ADD MSTORE PUSH1 0x80 SWAP4 DUP5 ADD MLOAD SWAP4 SWAP1 SWAP9 ADD SWAP3 SWAP1 SWAP3 MSTORE POP SWAP5 SWAP4 DUP5 ADD SWAP4 SWAP2 SWAP1 SWAP2 ADD SWAP1 PUSH1 0x1 ADD PUSH2 0x25B2 JUMP JUMPDEST PUSH0 PUSH0 PUSH1 0x20 DUP4 DUP6 SUB SLT ISZERO PUSH2 0x2631 JUMPI PUSH0 PUSH0 REVERT JUMPDEST DUP3 CALLDATALOAD PUSH1 0x1 PUSH1 0x1 PUSH1 0x40 SHL SUB DUP2 GT ISZERO PUSH2 0x2646 JUMPI PUSH0 PUSH0 REVERT JUMPDEST PUSH2 0x2652 DUP6 DUP3 DUP7 ADD PUSH2 0x23A3 JUMP JUMPDEST SWAP1 SWAP7 SWAP1 SWAP6 POP SWAP4 POP POP POP POP JUMP JUMPDEST PUSH1 0x20 DUP2 MSTORE PUSH0 DUP3 MLOAD PUSH1 0x80 PUSH1 0x20 DUP5 ADD MSTORE PUSH2 0x2679 PUSH1 0xA0 DUP5 ADD DUP3 PUSH2 0x230E JUMP JUMPDEST SWAP1 POP PUSH1 0x20 DUP5 ADD MLOAD PUSH1 0x1F NOT DUP5 DUP4 SUB ADD PUSH1 0x40 DUP6 ADD MSTORE PUSH2 0x2696 DUP3 DUP3 PUSH2 0x230E JUMP JUMPDEST SWAP2 POP POP PUSH1 0x40 DUP5 ADD MLOAD PUSH1 0x60 DUP5 ADD MSTORE PUSH1 0x60 DUP5 ADD MLOAD PUSH1 0x80 DUP5 ADD MSTORE DUP1 SWAP2 POP POP SWAP3 SWAP2 POP POP JUMP JUMPDEST PUSH0 PUSH0 DUP4 PUSH1 0x1F DUP5 ADD SLT PUSH2 0x26C7 JUMPI PUSH0 PUSH0 REVERT JUMPDEST POP DUP2 CALLDATALOAD PUSH1 0x1 PUSH1 0x1 PUSH1 0x40 SHL SUB DUP2 GT ISZERO PUSH2 0x26DD JUMPI PUSH0 PUSH0 REVERT JUMPDEST PUSH1 0x20 DUP4 ADD SWAP2 POP DUP4 PUSH1 0x20 DUP3 PUSH1 0x5 SHL DUP6 ADD ADD GT ISZERO PUSH2 0x23E0 JUMPI PUSH0 PUSH0 REVERT JUMPDEST PUSH0 PUSH0 PUSH0 PUSH0 PUSH0 PUSH1 0x60 DUP7 DUP9 SUB SLT ISZERO PUSH2 0x270B JUMPI PUSH0 PUSH0 REVERT JUMPDEST DUP6 CALLDATALOAD PUSH1 0x1 PUSH1 0x1 PUSH1 0x40 SHL SUB DUP2 GT ISZERO PUSH2 0x2720 JUMPI PUSH0 PUSH0 REVERT JUMPDEST PUSH2 0x272C DUP9 DUP3 DUP10 ADD PUSH2 0x26B7 JUMP JUMPDEST SWAP1 SWAP7 POP SWAP5 POP POP PUSH1 0x20 DUP7 ADD CALLDATALOAD PUSH1 0x1 PUSH1 0x1 PUSH1 0x40 SHL SUB DUP2 GT ISZERO PUSH2 0x274A JUMPI PUSH0 PUSH0 REVERT JUMPDEST PUSH2 0x2756 DUP9 DUP3 DUP10 ADD PUSH2 0x26B7 JUMP JUMPDEST SWAP7 SWAP10 SWAP6 SWAP9 POP SWAP7 PUSH1 0x40 ADD CALLDATALOAD SWAP5 SWAP4 POP POP POP POP JUMP JUMPDEST PUSH0 PUSH0 PUSH1 0x20 DUP4 DUP6 SUB SLT ISZERO PUSH2 0x2779 JUMPI PUSH0 PUSH0 REVERT JUMPDEST DUP3 CALLDATALOAD PUSH1 0x1 PUSH1 0x1 PUSH1 0x40 SHL SUB DUP2 GT ISZERO PUSH2 0x278E JUMPI PUSH0 PUSH0 REVERT JUMPDEST PUSH2 0x2652 DUP6 DUP3 DUP7 ADD PUSH2 0x26B7 JUMP JUMPDEST PUSH4 0x4E487B71 PUSH1 0xE0 SHL PUSH0 MSTORE PUSH1 0x21 PUSH1 0x4 MSTORE PUSH1 0x24 PUSH0 REVERT JUMPDEST PUSH1 0xD DUP2 LT PUSH2 0x27CA JUMPI PUSH4 0x4E487B71 PUSH1 0xE0 SHL PUSH0 MSTORE PUSH1 0x21 PUSH1 0x4 MSTORE PUSH1 0x24 PUSH0 REVERT JUMPDEST SWAP1 MSTORE JUMP JUMPDEST DUP10 DUP2 MSTORE PUSH1 0x1 PUSH1 0x1 PUSH1 0xA0 SHL SUB DUP10 AND PUSH1 0x20 DUP3 ADD MSTORE PUSH2 0x27ED PUSH1 0x40 DUP3 ADD DUP10 PUSH2 0x27AE JUMP JUMPDEST DUP7 PUSH1 0x60 DUP3 ADD MSTORE DUP6 PUSH1 0x80 DUP3 ADD MSTORE DUP5 ISZERO ISZERO PUSH1 0xA0 DUP3 ADD MSTORE DUP4 ISZERO ISZERO PUSH1 0xC0 DUP3 ADD MSTORE DUP3 PUSH1 0xE0 DUP3 ADD MSTORE PUSH2 0x120 PUSH2 0x100 DUP3 ADD MSTORE PUSH0 PUSH2 0x2827 PUSH2 0x120 DUP4 ADD DUP5 PUSH2 0x230E JUMP JUMPDEST SWAP12 SWAP11 POP POP POP POP POP POP POP POP POP POP POP JUMP JUMPDEST PUSH0 PUSH0 PUSH0 PUSH0 PUSH0 PUSH1 0x60 DUP7 DUP9 SUB SLT ISZERO PUSH2 0x284A JUMPI PUSH0 PUSH0 REVERT JUMPDEST DUP6 CALLDATALOAD PUSH1 0x1 PUSH1 0x1 PUSH1 0x40 SHL SUB DUP2 GT ISZERO PUSH2 0x285F JUMPI PUSH0 PUSH0 REVERT JUMPDEST PUSH2 0x286B DUP9 DUP3 DUP10 ADD PUSH2 0x23A3 JUMP JUMPDEST SWAP1 SWAP7 POP SWAP5 POP POP PUSH1 0x20 DUP7 ADD CALLDATALOAD PUSH1 0x1 PUSH1 0x1 PUSH1 0x40 SHL SUB DUP2 GT ISZERO PUSH2 0x2889 JUMPI PUSH0 PUSH0 REVERT JUMPDEST PUSH2 0x2756 DUP9 DUP3 DUP10 ADD PUSH2 0x23A3 JUMP JUMPDEST PUSH0 PUSH0 PUSH0 PUSH0 PUSH0 PUSH1 0x80 DUP7 DUP9 SUB SLT ISZERO PUSH2 0x28A9 JUMPI PUSH0 PUSH0 REVERT JUMPDEST PUSH2 0x28B2 DUP7 PUSH2 0x2390 JUMP JUMPDEST SWAP5 POP PUSH1 0x20 DUP7 ADD CALLDATALOAD SWAP4 POP PUSH1 0x40 DUP7 ADD CALLDATALOAD SWAP3 POP PUSH1 0x60 DUP7 ADD CALLDATALOAD PUSH1 0x1 PUSH1 0x1 PUSH1 0x40 SHL SUB DUP2 GT ISZERO PUSH2 0x28DA JUMPI PUSH0 PUSH0 REVERT JUMPDEST PUSH2 0x28E6 DUP9 DUP3 DUP10 ADD PUSH2 0x23A3 JUMP JUMPDEST SWAP7 SWAP10 SWAP6 SWAP9 POP SWAP4 SWAP7 POP SWAP3 SWAP5 SWAP4 SWAP3 POP POP POP JUMP JUMPDEST PUSH0 PUSH1 0x20 DUP3 DUP5 SUB SLT ISZERO PUSH2 0x2907 JUMPI PUSH0 PUSH0 REVERT JUMPDEST DUP2 CALLDATALOAD PUSH1 0x1 PUSH1 0x1 PUSH1 0xA0 SHL SUB DUP2 AND DUP2 EQ PUSH2 0x2389 JUMPI PUSH0 PUSH0 REVERT JUMPDEST PUSH1 0x20 DUP2 MSTORE PUSH0 DUP3 MLOAD PUSH1 0x60 PUSH1 0x20 DUP5 ADD MSTORE PUSH2 0x2938 PUSH1 0x80 DUP5 ADD DUP3 PUSH2 0x230E JUMP JUMPDEST SWAP1 POP PUSH1 0x20 DUP5 ADD MLOAD PUSH1 0x40 DUP5 ADD MSTORE PUSH1 0x40 DUP5 ADD MLOAD PUSH1 0x60 DUP5 ADD MSTORE DUP1 SWAP2 POP POP SWAP3 SWAP2 POP POP JUMP JUMPDEST PUSH1 0x1 DUP2 DUP2 SHR SWAP1 DUP3 AND DUP1 PUSH2 0x296C JUMPI PUSH1 0x7F DUP3 AND SWAP2 POP JUMPDEST PUSH1 0x20 DUP3 LT DUP2 SUB PUSH2 0x298A JUMPI PUSH4 0x4E487B71 PUSH1 0xE0 SHL PUSH0 MSTORE PUSH1 0x22 PUSH1 0x4 MSTORE PUSH1 0x24 PUSH0 REVERT JUMPDEST POP SWAP2 SWAP1 POP JUMP JUMPDEST PUSH4 0x4E487B71 PUSH1 0xE0 SHL PUSH0 MSTORE PUSH1 0x11 PUSH1 0x4 MSTORE PUSH1 0x24 PUSH0 REVERT JUMPDEST PUSH0 PUSH1 0x1 DUP3 ADD PUSH2 0x29B5 JUMPI PUSH2 0x29B5 PUSH2 0x2990 JUMP JUMPDEST POP PUSH1 0x1 ADD SWAP1 JUMP JUMPDEST PUSH1 0x1F DUP3 GT ISZERO PUSH2 0x17C7 JUMPI DUP1 PUSH0 MSTORE PUSH1 0x20 PUSH0 KECCAK256 PUSH1 0x1F DUP5 ADD PUSH1 0x5 SHR DUP2 ADD PUSH1 0x20 DUP6 LT ISZERO PUSH2 0x29E1 JUMPI POP DUP1 JUMPDEST PUSH1 0x1F DUP5 ADD PUSH1 0x5 SHR DUP3 ADD SWAP2 POP JUMPDEST DUP2 DUP2 LT ISZERO PUSH2 0x2A00 JUMPI PUSH0 DUP2 SSTORE PUSH1 0x1 ADD PUSH2 0x29ED JUMP JUMPDEST POP POP POP POP POP JUMP JUMPDEST PUSH0 NOT PUSH1 0x3 DUP4 SWAP1 SHL SHR NOT AND PUSH1 0x1 SWAP2 SWAP1 SWAP2 SHL OR SWAP1 JUMP JUMPDEST PUSH1 0x1 PUSH1 0x1 PUSH1 0x40 SHL SUB DUP4 GT ISZERO PUSH2 0x2A32 JUMPI PUSH2 0x2A32 PUSH2 0x224A JUMP JUMPDEST PUSH2 0x2A46 DUP4 PUSH2 0x2A40 DUP4 SLOAD PUSH2 0x2958 JUMP JUMPDEST DUP4 PUSH2 0x29BC JUMP JUMPDEST PUSH0 PUSH1 0x1F DUP5 GT PUSH1 0x1 DUP2 EQ PUSH2 0x2A72 JUMPI PUSH0 DUP6 ISZERO PUSH2 0x2A60 JUMPI POP DUP4 DUP3 ADD CALLDATALOAD JUMPDEST PUSH2 0x2A6A DUP7 DUP3 PUSH2 0x2A07 JUMP JUMPDEST DUP5 SSTORE POP PUSH2 0x2A00 JUMP JUMPDEST PUSH0 DUP4 DUP2 MSTORE PUSH1 0x20 DUP2 KECCAK256 PUSH1 0x1F NOT DUP8 AND SWAP2 JUMPDEST DUP3 DUP2 LT ISZERO PUSH2 0x2AA1 JUMPI DUP7 DUP6 ADD CALLDATALOAD DUP3 SSTORE PUSH1 0x20 SWAP5 DUP6 ADD SWAP5 PUSH1 0x1 SWAP1 SWAP3 ADD SWAP2 ADD PUSH2 0x2A81 JUMP JUMPDEST POP DUP7 DUP3 LT ISZERO PUSH2 0x2ABD JUMPI PUSH0 NOT PUSH1 0xF8 DUP9 PUSH1 0x3 SHL AND SHR NOT DUP5 DUP8 ADD CALLDATALOAD AND DUP2 SSTORE JUMPDEST POP POP PUSH1 0x1 DUP6 PUSH1 0x1 SHL ADD DUP4 SSTORE POP POP POP POP POP JUMP JUMPDEST DUP2 DUP4 MSTORE DUP2 DUP2 PUSH1 0x20 DUP6 ADD CALLDATACOPY POP PUSH0 DUP3 DUP3 ADD PUSH1 0x20 SWAP1 DUP2 ADD SWAP2 SWAP1 SWAP2 MSTORE PUSH1 0x1F SWAP1 SWAP2 ADD PUSH1 0x1F NOT AND SWAP1 SWAP2 ADD ADD SWAP1 JUMP JUMPDEST PUSH2 0x2B01 DUP2 DUP8 PUSH2 0x27AE JUMP JUMPDEST DUP5 PUSH1 0x20 DUP3 ADD MSTORE DUP4 PUSH1 0x40 DUP3 ADD MSTORE PUSH1 0x80 PUSH1 0x60 DUP3 ADD MSTORE PUSH0 PUSH2 0x2B23 PUSH1 0x80 DUP4 ADD DUP5 DUP7 PUSH2 0x2ACF JUMP JUMPDEST SWAP8 SWAP7 POP POP POP POP POP POP POP JUMP JUMPDEST DUP2 DUP4 DUP3 CALLDATACOPY PUSH0 SWAP2 ADD SWAP1 DUP2 MSTORE SWAP2 SWAP1 POP JUMP JUMPDEST PUSH4 0x4E487B71 PUSH1 0xE0 SHL PUSH0 MSTORE PUSH1 0x32 PUSH1 0x4 MSTORE PUSH1 0x24 PUSH0 REVERT JUMPDEST PUSH0 PUSH0 DUP4 SLOAD PUSH2 0x2B5E DUP2 PUSH2 0x2958 JUMP JUMPDEST PUSH1 0x1 DUP3 AND DUP1 ISZERO PUSH2 0x2B75 JUMPI PUSH1 0x1 DUP2 EQ PUSH2 0x2B8A JUMPI PUSH2 0x2BB7 JUMP JUMPDEST PUSH1 0xFF NOT DUP4 AND DUP7 MSTORE DUP2 ISZERO ISZERO DUP3 MUL DUP7 ADD SWAP4 POP PUSH2 0x2BB7 JUMP JUMPDEST DUP7 PUSH0 MSTORE PUSH1 0x20 PUSH0 KECCAK256 PUSH0 JUMPDEST DUP4 DUP2 LT ISZERO PUSH2 0x2BAF JUMPI DUP2 SLOAD DUP9 DUP3 ADD MSTORE PUSH1 0x1 SWAP1 SWAP2 ADD SWAP1 PUSH1 0x20 ADD PUSH2 0x2B93 JUMP JUMPDEST POP POP DUP2 DUP7 ADD SWAP4 POP JUMPDEST POP SWAP2 SWAP6 SWAP5 POP POP POP POP POP JUMP JUMPDEST PUSH0 DUP3 CALLDATALOAD PUSH1 0x9E NOT DUP4 CALLDATASIZE SUB ADD DUP2 SLT PUSH2 0x2BD6 JUMPI PUSH0 PUSH0 REVERT JUMPDEST SWAP2 SWAP1 SWAP2 ADD SWAP3 SWAP2 POP POP JUMP JUMPDEST PUSH0 PUSH0 DUP4 CALLDATALOAD PUSH1 0x1E NOT DUP5 CALLDATASIZE SUB ADD DUP2 SLT PUSH2 0x2BF5 JUMPI PUSH0 PUSH0 REVERT JUMPDEST DUP4 ADD DUP1 CALLDATALOAD SWAP2 POP PUSH1 0x1 PUSH1 0x1 PUSH1 0x40 SHL SUB DUP3 GT ISZERO PUSH2 0x2C0E JUMPI PUSH0 PUSH0 REVERT JUMPDEST PUSH1 0x20 ADD SWAP2 POP CALLDATASIZE DUP2 SWAP1 SUB DUP3 SGT ISZERO PUSH2 0x23E0 JUMPI PUSH0 PUSH0 REVERT JUMPDEST DUP2 MLOAD PUSH1 0x1 PUSH1 0x1 PUSH1 0x40 SHL SUB DUP2 GT ISZERO PUSH2 0x2C3B JUMPI PUSH2 0x2C3B PUSH2 0x224A JUMP JUMPDEST PUSH2 0x2C4F DUP2 PUSH2 0x2C49 DUP5 SLOAD PUSH2 0x2958 JUMP JUMPDEST DUP5 PUSH2 0x29BC JUMP JUMPDEST PUSH1 0x20 PUSH1 0x1F DUP3 GT PUSH1 0x1 DUP2 EQ PUSH2 0x2C7C JUMPI PUSH0 DUP4 ISZERO PUSH2 0x2C6A JUMPI POP DUP5 DUP3 ADD MLOAD JUMPDEST PUSH2 0x2C74 DUP5 DUP3 PUSH2 0x2A07 JUMP JUMPDEST DUP6 SSTORE POP PUSH2 0x2A00 JUMP JUMPDEST PUSH0 DUP5 DUP2 MSTORE PUSH1 0x20 DUP2 KECCAK256 PUSH1 0x1F NOT DUP6 AND SWAP2 JUMPDEST DUP3 DUP2 LT ISZERO PUSH2 0x2CAB JUMPI DUP8 DUP6 ADD MLOAD DUP3 SSTORE PUSH1 0x20 SWAP5 DUP6 ADD SWAP5 PUSH1 0x1 SWAP1 SWAP3 ADD SWAP2 ADD PUSH2 0x2C8B JUMP JUMPDEST POP DUP5 DUP3 LT ISZERO PUSH2 0x2CC8 JUMPI DUP7 DUP5 ADD MLOAD PUSH0 NOT PUSH1 0x3 DUP8 SWAP1 SHL PUSH1 0xF8 AND SHR NOT AND DUP2 SSTORE JUMPDEST POP POP POP POP PUSH1 0x1 SWAP1 DUP2 SHL ADD SWAP1 SSTORE POP JUMP JUMPDEST DUP2 DUP2 SUB DUP2 DUP2 GT ISZERO PUSH2 0x10C6 JUMPI PUSH2 0x10C6 PUSH2 0x2990 JUMP JUMPDEST DUP2 DUP2 SUB PUSH2 0x2CF5 JUMPI POP POP JUMP JUMPDEST PUSH2 0x2CFF DUP3 SLOAD PUSH2 0x2958 JUMP JUMPDEST PUSH1 0x1 PUSH1 0x1 PUSH1 0x40 SHL SUB DUP2 GT ISZERO PUSH2 0x2D16 JUMPI PUSH2 0x2D16 PUSH2 0x224A JUMP JUMPDEST PUSH2 0x2D24 DUP2 PUSH2 0x2C49 DUP5 SLOAD PUSH2 0x2958 JUMP JUMPDEST PUSH0 PUSH1 0x1F DUP3 GT PUSH1 0x1 DUP2 EQ PUSH2 0x2D47 JUMPI PUSH0 DUP4 ISZERO PUSH2 0x2C6A JUMPI POP DUP5 DUP3 ADD SLOAD PUSH2 0x2C74 DUP5 DUP3 PUSH2 0x2A07 JUMP JUMPDEST PUSH0 DUP6 DUP2 MSTORE PUSH1 0x20 DUP1 DUP3 KECCAK256 DUP7 DUP4 MSTORE SWAP1 DUP3 KECCAK256 PUSH1 0x1F NOT DUP7 AND SWAP3 JUMPDEST DUP4 DUP2 LT ISZERO PUSH2 0x2D7D JUMPI DUP3 DUP7 ADD SLOAD DUP3 SSTORE PUSH1 0x1 SWAP6 DUP7 ADD SWAP6 SWAP1 SWAP2 ADD SWAP1 PUSH1 0x20 ADD PUSH2 0x2D5D JUMP JUMPDEST POP DUP6 DUP4 LT ISZERO PUSH2 0x2D9A JUMPI DUP2 DUP6 ADD SLOAD PUSH0 NOT PUSH1 0x3 DUP9 SWAP1 SHL PUSH1 0xF8 AND SHR NOT AND DUP2 SSTORE JUMPDEST POP POP POP POP POP PUSH1 0x1 SWAP1 DUP2 SHL ADD SWAP1 SSTORE POP JUMP JUMPDEST PUSH4 0x4E487B71 PUSH1 0xE0 SHL PUSH0 MSTORE PUSH1 0x31 PUSH1 0x4 MSTORE PUSH1 0x24 PUSH0 REVERT JUMPDEST PUSH0 DUP3 CALLDATALOAD PUSH1 0x5E NOT DUP4 CALLDATASIZE SUB ADD DUP2 SLT PUSH2 0x2BD6 JUMPI PUSH0 PUSH0 REVERT JUMPDEST PUSH1 0x40 DUP2 MSTORE PUSH0 PUSH2 0x2DE5 PUSH1 0x40 DUP4 ADD DUP6 DUP8 PUSH2 0x2ACF JUMP JUMPDEST SWAP1 POP DUP3 PUSH1 0x20 DUP4 ADD MSTORE SWAP5 SWAP4 POP POP POP POP JUMP JUMPDEST PUSH1 0x60 DUP2 MSTORE PUSH0 PUSH2 0x2E08 PUSH1 0x60 DUP4 ADD DUP7 DUP9 PUSH2 0x2ACF JUMP JUMPDEST PUSH1 0x20 DUP4 ADD SWAP5 SWAP1 SWAP5 MSTORE POP PUSH1 0x40 ADD MSTORE SWAP3 SWAP2 POP POP JUMP JUMPDEST DUP3 DUP2 MSTORE PUSH1 0x40 PUSH1 0x20 DUP3 ADD MSTORE PUSH0 PUSH0 DUP4 SLOAD PUSH2 0x2E32 DUP2 PUSH2 0x2958 JUMP JUMPDEST DUP1 PUSH1 0x40 DUP7 ADD MSTORE PUSH1 0x1 DUP3 AND PUSH0 DUP2 EQ PUSH2 0x2E50 JUMPI PUSH1 0x1 DUP2 EQ PUSH2 0x2E6C JUMPI PUSH2 0x2E9D JUMP JUMPDEST PUSH1 0xFF NOT DUP4 AND PUSH1 0x60 DUP8 ADD MSTORE PUSH1 0x60 DUP3 ISZERO ISZERO PUSH1 0x5 SHL DUP8 ADD ADD SWAP4 POP PUSH2 0x2E9D JUMP JUMPDEST DUP7 PUSH0 MSTORE PUSH1 0x20 PUSH0 KECCAK256 PUSH0 JUMPDEST DUP4 DUP2 LT ISZERO PUSH2 0x2E94 JUMPI DUP2 SLOAD DUP9 DUP3 ADD PUSH1 0x60 ADD MSTORE PUSH1 0x1 SWAP1 SWAP2 ADD SWAP1 PUSH1 0x20 ADD PUSH2 0x2E75 JUMP JUMPDEST DUP8 ADD PUSH1 0x60 ADD SWAP5 POP POP JUMPDEST POP SWAP2 SWAP7 SWAP6 POP POP POP POP POP POP JUMP INVALID LOG2 PUSH5 0x6970667358 0x22 SLT KECCAK256 CALLDATACOPY CALLF 0x618 0xBD 0xBB 0xDC PUSH11 0x92F1FBEE79EF4E69BEBA5F 0xBF 0xC 0xD3 0x26 0xAA RETURN 0x4B 0xC4 JUMPI SLT SIGNEXTEND SDIV 0xEA PUSH5 0x736F6C6343 STOP ADDMOD 0x1E STOP CALLER "
				},
				"gasEstimates": {
					"creation": {
						"codeDepositCost": "2399800",
						"executionCost": "103982",
						"totalCost": "2503782"
					},
					"external": {
						"DoubleNetflowAlert(uint8,int256,int256,string)": "infinite",
						"SingleThresholdNetflowAlert(uint8,int256,string)": "infinite",
						"activateAlert()": "infinite",
						"addOrUpdateNarrativePerformance(string,int256)": "infinite",
						"batchUpdateNarrativePerformances((string,int256,uint256)[])": "infinite",
						"exchangeNetflow()": "4537",
						"getAllNarrativeKeys()": "infinite",
						"getNarrativePerformance(string)": "infinite",
						"getNarrativeTopPerformer(string)": "infinite",
						"getTopOutperformingAssets()": "infinite",
						"getTopUnderperformingAssets()": "infinite",
						"hasPreviousExchangeNetflowAmount()": "2378",
						"marketAverageMovementPercent24h()": "2405",
						"marketPerformanceLastUpdatedAt()": "2362",
						"narrativeKeys(uint256)": "infinite",
						"narrativePerformances(string)": "infinite",
						"narrativeTopPerformers(string)": "infinite",
						"owner()": "2345",
						"previousExchangeNetflowAmount()": "2407",
						"removeNarrativeKey(string)": "infinite",
						"renounceOwnership()": "infinite",
						"resetAlertTriggerState()": "infinite",
						"stablecoinExchangeOverallNetflow()": "10892",
						"topOutperformingAssets(uint256)": "infinite",
						"topUnderperformingAssets(uint256)": "infinite",
						"transferOwnership(address)": "28338",
						"turnOffAlert()": "infinite",
						"updateExchangeNetflow(int256)": "infinite",
						"updateMarketPerformance((string,address,int256,int256,uint256)[],(string,address,int256,int256,uint256)[],int256)": "infinite",
						"updateNarrativeTopPerformer(string,string,int256)": "infinite",
						"updateStablecoinOverallNetflow(int256,int256,int256,int256)": "115208",
						"userNetflowAlert()": "infinite"
					},
					"internal": {
						"checkAndTriggerAlert(int256,int256,bool)": "infinite"
					}
				},
				"methodIdentifiers": {
					"DoubleNetflowAlert(uint8,int256,int256,string)": "f25ab9c9",
					"SingleThresholdNetflowAlert(uint8,int256,string)": "2e4d0321",
					"activateAlert()": "2f66b011",
					"addOrUpdateNarrativePerformance(string,int256)": "3fab3dd6",
					"batchUpdateNarrativePerformances((string,int256,uint256)[])": "e337d7cf",
					"exchangeNetflow()": "fec53907",
					"getAllNarrativeKeys()": "2f85909b",
					"getNarrativePerformance(string)": "f42191de",
					"getNarrativeTopPerformer(string)": "7e767e14",
					"getTopOutperformingAssets()": "f1e52d1d",
					"getTopUnderperformingAssets()": "7e3fb6ca",
					"hasPreviousExchangeNetflowAmount()": "0f549423",
					"marketAverageMovementPercent24h()": "86b28718",
					"marketPerformanceLastUpdatedAt()": "977ddf37",
					"narrativeKeys(uint256)": "2243e326",
					"narrativePerformances(string)": "0acd704e",
					"narrativeTopPerformers(string)": "740fb0d2",
					"owner()": "8da5cb5b",
					"previousExchangeNetflowAmount()": "298fc805",
					"removeNarrativeKey(string)": "ca848e6a",
					"renounceOwnership()": "715018a6",
					"resetAlertTriggerState()": "440c1ec9",
					"stablecoinExchangeOverallNetflow()": "99670fea",
					"topOutperformingAssets(uint256)": "30400a3a",
					"topUnderperformingAssets(uint256)": "f44f031a",
					"transferOwnership(address)": "f2fde38b",
					"turnOffAlert()": "ac57e64e",
					"updateExchangeNetflow(int256)": "b2cec9ef",
					"updateMarketPerformance((string,address,int256,int256,uint256)[],(string,address,int256,int256,uint256)[],int256)": "b1950a37",
					"updateNarrativeTopPerformer(string,string,int256)": "ea7fbd64",
					"updateStablecoinOverallNetflow(int256,int256,int256,int256)": "3afa9a2e",
					"userNetflowAlert()": "e642566f"
				}
			},
			"storageLayout": {
				"storage": [
					{
						"astId": 8,
						"contract": "contracts/DashBoard.sol:Dashboard",
						"label": "_owner",
						"offset": 0,
						"slot": "0",
						"type": "t_address"
					},
					{
						"astId": 188,
						"contract": "contracts/DashBoard.sol:Dashboard",
						"label": "exchangeNetflow",
						"offset": 0,
						"slot": "1",
						"type": "t_struct(NetflowInfo)1604_storage"
					},
					{
						"astId": 190,
						"contract": "contracts/DashBoard.sol:Dashboard",
						"label": "previousExchangeNetflowAmount",
						"offset": 0,
						"slot": "3",
						"type": "t_int256"
					},
					{
						"astId": 193,
						"contract": "contracts/DashBoard.sol:Dashboard",
						"label": "hasPreviousExchangeNetflowAmount",
						"offset": 0,
						"slot": "4",
						"type": "t_bool"
					},
					{
						"astId": 196,
						"contract": "contracts/DashBoard.sol:Dashboard",
						"label": "stablecoinExchangeOverallNetflow",
						"offset": 0,
						"slot": "5",
						"type": "t_struct(StablecoinOverallInfo)1615_storage"
					},
					{
						"astId": 201,
						"contract": "contracts/DashBoard.sol:Dashboard",
						"label": "narrativePerformances",
						"offset": 0,
						"slot": "10",
						"type": "t_mapping(t_string_memory_ptr,t_struct(NarrativePerformanceInfo)1622_storage)"
					},
					{
						"astId": 204,
						"contract": "contracts/DashBoard.sol:Dashboard",
						"label": "narrativeKeys",
						"offset": 0,
						"slot": "11",
						"type": "t_array(t_string_storage)dyn_storage"
					},
					{
						"astId": 209,
						"contract": "contracts/DashBoard.sol:Dashboard",
						"label": "narrativeTopPerformers",
						"offset": 0,
						"slot": "12",
						"type": "t_mapping(t_string_memory_ptr,t_struct(NarrativeTopTokenInfo)1631_storage)"
					},
					{
						"astId": 213,
						"contract": "contracts/DashBoard.sol:Dashboard",
						"label": "topOutperformingAssets",
						"offset": 0,
						"slot": "13",
						"type": "t_array(t_struct(AssetPerformanceInfo)1642_storage)dyn_storage"
					},
					{
						"astId": 217,
						"contract": "contracts/DashBoard.sol:Dashboard",
						"label": "topUnderperformingAssets",
						"offset": 0,
						"slot": "14",
						"type": "t_array(t_struct(AssetPerformanceInfo)1642_storage)dyn_storage"
					},
					{
						"astId": 219,
						"contract": "contracts/DashBoard.sol:Dashboard",
						"label": "marketAverageMovementPercent24h",
						"offset": 0,
						"slot": "15",
						"type": "t_int256"
					},
					{
						"astId": 221,
						"contract": "contracts/DashBoard.sol:Dashboard",
						"label": "marketPerformanceLastUpdatedAt",
						"offset": 0,
						"slot": "16",
						"type": "t_uint256"
					},
					{
						"astId": 258,
						"contract": "contracts/DashBoard.sol:Dashboard",
						"label": "userNetflowAlert",
						"offset": 0,
						"slot": "17",
						"type": "t_struct(NetflowAlert)255_storage"
					},
					{
						"astId": 261,
						"contract": "contracts/DashBoard.sol:Dashboard",
						"label": "nextAlertId",
						"offset": 0,
						"slot": "24",
						"type": "t_uint256"
					}
				],
				"types": {
					"t_address": {
						"encoding": "inplace",
						"label": "address",
						"numberOfBytes": "20"
					},
					"t_array(t_string_storage)dyn_storage": {
						"base": "t_string_storage",
						"encoding": "dynamic_array",
						"label": "string[]",
						"numberOfBytes": "32"
					},
					"t_array(t_struct(AssetPerformanceInfo)1642_storage)dyn_storage": {
						"base": "t_struct(AssetPerformanceInfo)1642_storage",
						"encoding": "dynamic_array",
						"label": "struct types.AssetPerformanceInfo[]",
						"numberOfBytes": "32"
					},
					"t_bool": {
						"encoding": "inplace",
						"label": "bool",
						"numberOfBytes": "1"
					},
					"t_enum(AlertCondition)235": {
						"encoding": "inplace",
						"label": "enum Dashboard.AlertCondition",
						"numberOfBytes": "1"
					},
					"t_int256": {
						"encoding": "inplace",
						"label": "int256",
						"numberOfBytes": "32"
					},
					"t_mapping(t_string_memory_ptr,t_struct(NarrativePerformanceInfo)1622_storage)": {
						"encoding": "mapping",
						"key": "t_string_memory_ptr",
						"label": "mapping(string => struct types.NarrativePerformanceInfo)",
						"numberOfBytes": "32",
						"value": "t_struct(NarrativePerformanceInfo)1622_storage"
					},
					"t_mapping(t_string_memory_ptr,t_struct(NarrativeTopTokenInfo)1631_storage)": {
						"encoding": "mapping",
						"key": "t_string_memory_ptr",
						"label": "mapping(string => struct types.NarrativeTopTokenInfo)",
						"numberOfBytes": "32",
						"value": "t_struct(NarrativeTopTokenInfo)1631_storage"
					},
					"t_string_memory_ptr": {
						"encoding": "bytes",
						"label": "string",
						"numberOfBytes": "32"
					},
					"t_string_storage": {
						"encoding": "bytes",
						"label": "string",
						"numberOfBytes": "32"
					},
					"t_struct(AssetPerformanceInfo)1642_storage": {
						"encoding": "inplace",
						"label": "struct types.AssetPerformanceInfo",
						"members": [
							{
								"astId": 1633,
								"contract": "contracts/DashBoard.sol:Dashboard",
								"label": "tokenSymbol",
								"offset": 0,
								"slot": "0",
								"type": "t_string_storage"
							},
							{
								"astId": 1635,
								"contract": "contracts/DashBoard.sol:Dashboard",
								"label": "tokenAddress",
								"offset": 0,
								"slot": "1",
								"type": "t_address"
							},
							{
								"astId": 1637,
								"contract": "contracts/DashBoard.sol:Dashboard",
								"label": "performancePercent24h",
								"offset": 0,
								"slot": "2",
								"type": "t_int256"
							},
							{
								"astId": 1639,
								"contract": "contracts/DashBoard.sol:Dashboard",
								"label": "performanceVsMarketPercent",
								"offset": 0,
								"slot": "3",
								"type": "t_int256"
							},
							{
								"astId": 1641,
								"contract": "contracts/DashBoard.sol:Dashboard",
								"label": "lastUpdatedAt",
								"offset": 0,
								"slot": "4",
								"type": "t_uint256"
							}
						],
						"numberOfBytes": "160"
					},
					"t_struct(NarrativePerformanceInfo)1622_storage": {
						"encoding": "inplace",
						"label": "struct types.NarrativePerformanceInfo",
						"members": [
							{
								"astId": 1617,
								"contract": "contracts/DashBoard.sol:Dashboard",
								"label": "name",
								"offset": 0,
								"slot": "0",
								"type": "t_string_storage"
							},
							{
								"astId": 1619,
								"contract": "contracts/DashBoard.sol:Dashboard",
								"label": "performancePercent24h",
								"offset": 0,
								"slot": "1",
								"type": "t_int256"
							},
							{
								"astId": 1621,
								"contract": "contracts/DashBoard.sol:Dashboard",
								"label": "lastUpdatedAt",
								"offset": 0,
								"slot": "2",
								"type": "t_uint256"
							}
						],
						"numberOfBytes": "96"
					},
					"t_struct(NarrativeTopTokenInfo)1631_storage": {
						"encoding": "inplace",
						"label": "struct types.NarrativeTopTokenInfo",
						"members": [
							{
								"astId": 1624,
								"contract": "contracts/DashBoard.sol:Dashboard",
								"label": "narrativeName",
								"offset": 0,
								"slot": "0",
								"type": "t_string_storage"
							},
							{
								"astId": 1626,
								"contract": "contracts/DashBoard.sol:Dashboard",
								"label": "tokenSymbol",
								"offset": 0,
								"slot": "1",
								"type": "t_string_storage"
							},
							{
								"astId": 1628,
								"contract": "contracts/DashBoard.sol:Dashboard",
								"label": "relativePerformancePercent",
								"offset": 0,
								"slot": "2",
								"type": "t_int256"
							},
							{
								"astId": 1630,
								"contract": "contracts/DashBoard.sol:Dashboard",
								"label": "lastUpdatedAt",
								"offset": 0,
								"slot": "3",
								"type": "t_uint256"
							}
						],
						"numberOfBytes": "128"
					},
					"t_struct(NetflowAlert)255_storage": {
						"encoding": "inplace",
						"label": "struct Dashboard.NetflowAlert",
						"members": [
							{
								"astId": 237,
								"contract": "contracts/DashBoard.sol:Dashboard",
								"label": "id",
								"offset": 0,
								"slot": "0",
								"type": "t_uint256"
							},
							{
								"astId": 239,
								"contract": "contracts/DashBoard.sol:Dashboard",
								"label": "user",
								"offset": 0,
								"slot": "1",
								"type": "t_address"
							},
							{
								"astId": 242,
								"contract": "contracts/DashBoard.sol:Dashboard",
								"label": "condition",
								"offset": 20,
								"slot": "1",
								"type": "t_enum(AlertCondition)235"
							},
							{
								"astId": 244,
								"contract": "contracts/DashBoard.sol:Dashboard",
								"label": "threshold1",
								"offset": 0,
								"slot": "2",
								"type": "t_int256"
							},
							{
								"astId": 246,
								"contract": "contracts/DashBoard.sol:Dashboard",
								"label": "threshold2",
								"offset": 0,
								"slot": "3",
								"type": "t_int256"
							},
							{
								"astId": 248,
								"contract": "contracts/DashBoard.sol:Dashboard",
								"label": "isActive",
								"offset": 0,
								"slot": "4",
								"type": "t_bool"
							},
							{
								"astId": 250,
								"contract": "contracts/DashBoard.sol:Dashboard",
								"label": "isTriggered",
								"offset": 1,
								"slot": "4",
								"type": "t_bool"
							},
							{
								"astId": 252,
								"contract": "contracts/DashBoard.sol:Dashboard",
								"label": "lastTriggeredAt",
								"offset": 0,
								"slot": "5",
								"type": "t_uint256"
							},
							{
								"astId": 254,
								"contract": "contracts/DashBoard.sol:Dashboard",
								"label": "message",
								"offset": 0,
								"slot": "6",
								"type": "t_string_storage"
							}
						],
						"numberOfBytes": "224"
					},
					"t_struct(NetflowInfo)1604_storage": {
						"encoding": "inplace",
						"label": "struct types.NetflowInfo",
						"members": [
							{
								"astId": 1601,
								"contract": "contracts/DashBoard.sol:Dashboard",
								"label": "amount",
								"offset": 0,
								"slot": "0",
								"type": "t_int256"
							},
							{
								"astId": 1603,
								"contract": "contracts/DashBoard.sol:Dashboard",
								"label": "lastUpdatedAt",
								"offset": 0,
								"slot": "1",
								"type": "t_uint256"
							}
						],
						"numberOfBytes": "64"
					},
					"t_struct(StablecoinOverallInfo)1615_storage": {
						"encoding": "inplace",
						"label": "struct types.StablecoinOverallInfo",
						"members": [
							{
								"astId": 1606,
								"contract": "contracts/DashBoard.sol:Dashboard",
								"label": "dailyNetflowSum",
								"offset": 0,
								"slot": "0",
								"type": "t_int256"
							},
							{
								"astId": 1608,
								"contract": "contracts/DashBoard.sol:Dashboard",
								"label": "weeklyNetflowSum",
								"offset": 0,
								"slot": "1",
								"type": "t_int256"
							},
							{
								"astId": 1610,
								"contract": "contracts/DashBoard.sol:Dashboard",
								"label": "monthlyNetflowSum",
								"offset": 0,
								"slot": "2",
								"type": "t_int256"
							},
							{
								"astId": 1612,
								"contract": "contracts/DashBoard.sol:Dashboard",
								"label": "marketCapChangePercent",
								"offset": 0,
								"slot": "3",
								"type": "t_int256"
							},
							{
								"astId": 1614,
								"contract": "contracts/DashBoard.sol:Dashboard",
								"label": "lastUpdatedAt",
								"offset": 0,
								"slot": "4",
								"type": "t_uint256"
							}
						],
						"numberOfBytes": "160"
					},
					"t_uint256": {
						"encoding": "inplace",
						"label": "uint256",
						"numberOfBytes": "32"
					}
				}
			},
			"userdoc": {
				"kind": "user",
				"methods": {},
				"version": 1
			}
		}
	}
}