{
	"contracts/DashBoard.sol": {
		"Dashboard": {
			"abi": [
				{
					"inputs": [],
					"stateMutability": "nonpayable",
					"type": "constructor"
				},
				{
					"inputs": [
						{
							"internalType": "address",
							"name": "owner",
							"type": "address"
						}
					],
					"name": "OwnableInvalidOwner",
					"type": "error"
				},
				{
					"inputs": [
						{
							"internalType": "address",
							"name": "account",
							"type": "address"
						}
					],
					"name": "OwnableUnauthorizedAccount",
					"type": "error"
				},
				{
					"anonymous": false,
					"inputs": [
						{
							"indexed": true,
							"internalType": "uint256",
							"name": "alertId",
							"type": "uint256"
						}
					],
					"name": "AlertActivated",
					"type": "event"
				},
				{
					"anonymous": false,
					"inputs": [
						{
							"indexed": true,
							"internalType": "uint256",
							"name": "alertId",
							"type": "uint256"
						},
						{
							"indexed": true,
							"internalType": "address",
							"name": "user",
							"type": "address"
						},
						{
							"indexed": false,
							"internalType": "enum Dashboard.AlertCondition",
							"name": "condition",
							"type": "uint8"
						},
						{
							"indexed": false,
							"internalType": "int256",
							"name": "threshold1",
							"type": "int256"
						},
						{
							"indexed": false,
							"internalType": "int256",
							"name": "threshold2",
							"type": "int256"
						},
						{
							"indexed": false,
							"internalType": "string",
							"name": "message",
							"type": "string"
						}
					],
					"name": "AlertConfigured",
					"type": "event"
				},
				{
					"anonymous": false,
					"inputs": [
						{
							"indexed": true,
							"internalType": "uint256",
							"name": "alertId",
							"type": "uint256"
						}
					],
					"name": "AlertDeactivated",
					"type": "event"
				},
				{
					"anonymous": false,
					"inputs": [
						{
							"indexed": true,
							"internalType": "uint256",
							"name": "alertId",
							"type": "uint256"
						}
					],
					"name": "AlertTriggerReset",
					"type": "event"
				},
				{
					"anonymous": false,
					"inputs": [
						{
							"indexed": true,
							"internalType": "uint256",
							"name": "alertId",
							"type": "uint256"
						},
						{
							"indexed": true,
							"internalType": "address",
							"name": "user",
							"type": "address"
						},
						{
							"indexed": false,
							"internalType": "int256",
							"name": "currentValue",
							"type": "int256"
						},
						{
							"indexed": false,
							"internalType": "string",
							"name": "message",
							"type": "string"
						}
					],
					"name": "AlertTriggered",
					"type": "event"
				},
				{
					"anonymous": false,
					"inputs": [
						{
							"indexed": false,
							"internalType": "int256",
							"name": "marketAverage",
							"type": "int256"
						},
						{
							"indexed": false,
							"internalType": "uint256",
							"name": "timestamp",
							"type": "uint256"
						}
					],
					"name": "MarketPerformersUpdated",
					"type": "event"
				},
				{
					"anonymous": false,
					"inputs": [
						{
							"indexed": true,
							"internalType": "string",
							"name": "narrativeName",
							"type": "string"
						}
					],
					"name": "NarrativeKeyAdded",
					"type": "event"
				},
				{
					"anonymous": false,
					"inputs": [
						{
							"indexed": true,
							"internalType": "string",
							"name": "narrativeName",
							"type": "string"
						}
					],
					"name": "NarrativeKeyRemoved",
					"type": "event"
				},
				{
					"anonymous": false,
					"inputs": [
						{
							"indexed": true,
							"internalType": "string",
							"name": "narrativeName",
							"type": "string"
						},
						{
							"indexed": false,
							"internalType": "int256",
							"name": "performancePercent",
							"type": "int256"
						},
						{
							"indexed": false,
							"internalType": "uint256",
							"name": "timestamp",
							"type": "uint256"
						}
					],
					"name": "NarrativePerformanceUpdated",
					"type": "event"
				},
				{
					"anonymous": false,
					"inputs": [
						{
							"indexed": true,
							"internalType": "string",
							"name": "narrativeName",
							"type": "string"
						},
						{
							"indexed": false,
							"internalType": "string",
							"name": "tokenSymbol",
							"type": "string"
						},
						{
							"indexed": false,
							"internalType": "int256",
							"name": "relativePerformance",
							"type": "int256"
						},
						{
							"indexed": false,
							"internalType": "uint256",
							"name": "timestamp",
							"type": "uint256"
						}
					],
					"name": "NarrativeTopTokenUpdated",
					"type": "event"
				},
				{
					"anonymous": false,
					"inputs": [
						{
							"indexed": false,
							"internalType": "int256",
							"name": "amount",
							"type": "int256"
						},
						{
							"indexed": false,
							"internalType": "uint256",
							"name": "timestamp",
							"type": "uint256"
						}
					],
					"name": "NetflowUpdated",
					"type": "event"
				},
				{
					"anonymous": false,
					"inputs": [
						{
							"indexed": true,
							"internalType": "address",
							"name": "previousOwner",
							"type": "address"
						},
						{
							"indexed": true,
							"internalType": "address",
							"name": "newOwner",
							"type": "address"
						}
					],
					"name": "OwnershipTransferred",
					"type": "event"
				},
				{
					"anonymous": false,
					"inputs": [
						{
							"indexed": false,
							"internalType": "int256",
							"name": "daily",
							"type": "int256"
						},
						{
							"indexed": false,
							"internalType": "int256",
							"name": "weekly",
							"type": "int256"
						},
						{
							"indexed": false,
							"internalType": "int256",
							"name": "monthly",
							"type": "int256"
						},
						{
							"indexed": false,
							"internalType": "int256",
							"name": "marketCapChange",
							"type": "int256"
						},
						{
							"indexed": false,
							"internalType": "uint256",
							"name": "timestamp",
							"type": "uint256"
						}
					],
					"name": "StablecoinOverallNetflowUpdated",
					"type": "event"
				},
				{
					"inputs": [
						{
							"internalType": "enum Dashboard.AlertCondition",
							"name": "_condition",
							"type": "uint8"
						},
						{
							"internalType": "int256",
							"name": "_channelBound1",
							"type": "int256"
						},
						{
							"internalType": "int256",
							"name": "_channelBound2",
							"type": "int256"
						},
						{
							"internalType": "string",
							"name": "_message",
							"type": "string"
						}
					],
					"name": "DoubleNetflowAlert",
					"outputs": [],
					"stateMutability": "nonpayable",
					"type": "function"
				},
				{
					"inputs": [],
					"name": "MAX_ALERTS_PER_USER",
					"outputs": [
						{
							"internalType": "uint256",
							"name": "",
							"type": "uint256"
						}
					],
					"stateMutability": "view",
					"type": "function"
				},
				{
					"inputs": [
						{
							"internalType": "enum Dashboard.AlertCondition",
							"name": "_condition",
							"type": "uint8"
						},
						{
							"internalType": "int256",
							"name": "_threshold1",
							"type": "int256"
						},
						{
							"internalType": "string",
							"name": "_message",
							"type": "string"
						}
					],
					"name": "SingleThresholdNetflowAlert",
					"outputs": [],
					"stateMutability": "nonpayable",
					"type": "function"
				},
				{
					"inputs": [],
					"name": "activateAlert",
					"outputs": [],
					"stateMutability": "nonpayable",
					"type": "function"
				},
				{
					"inputs": [
						{
							"internalType": "string",
							"name": "_narrativeName",
							"type": "string"
						},
						{
							"internalType": "int256",
							"name": "_performancePercent",
							"type": "int256"
						}
					],
					"name": "addOrUpdateNarrativePerformance",
					"outputs": [],
					"stateMutability": "nonpayable",
					"type": "function"
				},
				{
					"inputs": [
						{
							"components": [
								{
									"internalType": "string",
									"name": "name",
									"type": "string"
								},
								{
									"internalType": "int256",
									"name": "performancePercent24h",
									"type": "int256"
								},
								{
									"internalType": "uint256",
									"name": "lastUpdatedAt",
									"type": "uint256"
								}
							],
							"internalType": "struct DataTypes.NarrativePerformanceInfo[]",
							"name": "_performances",
							"type": "tuple[]"
						}
					],
					"name": "batchUpdateNarrativePerformances",
					"outputs": [],
					"stateMutability": "nonpayable",
					"type": "function"
				},
				{
					"inputs": [],
					"name": "exchangeNetflow",
					"outputs": [
						{
							"internalType": "int256",
							"name": "amount",
							"type": "int256"
						},
						{
							"internalType": "uint256",
							"name": "lastUpdatedAt",
							"type": "uint256"
						}
					],
					"stateMutability": "view",
					"type": "function"
				},
				{
					"inputs": [],
					"name": "getAllNarrativeKeys",
					"outputs": [
						{
							"internalType": "string[]",
							"name": "",
							"type": "string[]"
						}
					],
					"stateMutability": "view",
					"type": "function"
				},
				{
					"inputs": [],
					"name": "getAllNetflowAlerts",
					"outputs": [
						{
							"components": [
								{
									"internalType": "uint256",
									"name": "id",
									"type": "uint256"
								},
								{
									"internalType": "address",
									"name": "user",
									"type": "address"
								},
								{
									"internalType": "enum Dashboard.AlertCondition",
									"name": "condition",
									"type": "uint8"
								},
								{
									"internalType": "int256",
									"name": "threshold1",
									"type": "int256"
								},
								{
									"internalType": "int256",
									"name": "threshold2",
									"type": "int256"
								},
								{
									"internalType": "bool",
									"name": "isActive",
									"type": "bool"
								},
								{
									"internalType": "bool",
									"name": "isTriggered",
									"type": "bool"
								},
								{
									"internalType": "uint256",
									"name": "lastTriggeredAt",
									"type": "uint256"
								},
								{
									"internalType": "string",
									"name": "message",
									"type": "string"
								}
							],
							"internalType": "struct Dashboard.NetflowAlert[]",
							"name": "alerts",
							"type": "tuple[]"
						}
					],
					"stateMutability": "view",
					"type": "function"
				},
				{
					"inputs": [
						{
							"internalType": "string",
							"name": "_narrativeName",
							"type": "string"
						}
					],
					"name": "getNarrativePerformance",
					"outputs": [
						{
							"components": [
								{
									"internalType": "string",
									"name": "name",
									"type": "string"
								},
								{
									"internalType": "int256",
									"name": "performancePercent24h",
									"type": "int256"
								},
								{
									"internalType": "uint256",
									"name": "lastUpdatedAt",
									"type": "uint256"
								}
							],
							"internalType": "struct DataTypes.NarrativePerformanceInfo",
							"name": "",
							"type": "tuple"
						}
					],
					"stateMutability": "view",
					"type": "function"
				},
				{
					"inputs": [
						{
							"internalType": "string",
							"name": "_narrativeName",
							"type": "string"
						}
					],
					"name": "getNarrativeTopPerformer",
					"outputs": [
						{
							"components": [
								{
									"internalType": "string",
									"name": "narrativeName",
									"type": "string"
								},
								{
									"internalType": "string",
									"name": "tokenSymbol",
									"type": "string"
								},
								{
									"internalType": "int256",
									"name": "relativePerformancePercent",
									"type": "int256"
								},
								{
									"internalType": "uint256",
									"name": "lastUpdatedAt",
									"type": "uint256"
								}
							],
							"internalType": "struct DataTypes.NarrativeTopTokenInfo",
							"name": "",
							"type": "tuple"
						}
					],
					"stateMutability": "view",
					"type": "function"
				},
				{
					"inputs": [],
					"name": "getTopOutperformingAssets",
					"outputs": [
						{
							"components": [
								{
									"internalType": "string",
									"name": "tokenSymbol",
									"type": "string"
								},
								{
									"internalType": "address",
									"name": "tokenAddress",
									"type": "address"
								},
								{
									"internalType": "int256",
									"name": "performancePercent24h",
									"type": "int256"
								},
								{
									"internalType": "int256",
									"name": "performanceVsMarketPercent",
									"type": "int256"
								},
								{
									"internalType": "uint256",
									"name": "lastUpdatedAt",
									"type": "uint256"
								}
							],
							"internalType": "struct DataTypes.AssetPerformanceInfo[]",
							"name": "",
							"type": "tuple[]"
						}
					],
					"stateMutability": "view",
					"type": "function"
				},
				{
					"inputs": [],
					"name": "getTopUnderperformingAssets",
					"outputs": [
						{
							"components": [
								{
									"internalType": "string",
									"name": "tokenSymbol",
									"type": "string"
								},
								{
									"internalType": "address",
									"name": "tokenAddress",
									"type": "address"
								},
								{
									"internalType": "int256",
									"name": "performancePercent24h",
									"type": "int256"
								},
								{
									"internalType": "int256",
									"name": "performanceVsMarketPercent",
									"type": "int256"
								},
								{
									"internalType": "uint256",
									"name": "lastUpdatedAt",
									"type": "uint256"
								}
							],
							"internalType": "struct DataTypes.AssetPerformanceInfo[]",
							"name": "",
							"type": "tuple[]"
						}
					],
					"stateMutability": "view",
					"type": "function"
				},
				{
					"inputs": [],
					"name": "hasPreviousExchangeNetflowAmount",
					"outputs": [
						{
							"internalType": "bool",
							"name": "",
							"type": "bool"
						}
					],
					"stateMutability": "view",
					"type": "function"
				},
				{
					"inputs": [],
					"name": "marketAverageMovementPercent24h",
					"outputs": [
						{
							"internalType": "int256",
							"name": "",
							"type": "int256"
						}
					],
					"stateMutability": "view",
					"type": "function"
				},
				{
					"inputs": [],
					"name": "marketPerformanceLastUpdatedAt",
					"outputs": [
						{
							"internalType": "uint256",
							"name": "",
							"type": "uint256"
						}
					],
					"stateMutability": "view",
					"type": "function"
				},
				{
					"inputs": [
						{
							"internalType": "uint256",
							"name": "",
							"type": "uint256"
						}
					],
					"name": "narrativeKeys",
					"outputs": [
						{
							"internalType": "string",
							"name": "",
							"type": "string"
						}
					],
					"stateMutability": "view",
					"type": "function"
				},
				{
					"inputs": [
						{
							"internalType": "string",
							"name": "",
							"type": "string"
						}
					],
					"name": "narrativePerformances",
					"outputs": [
						{
							"internalType": "string",
							"name": "name",
							"type": "string"
						},
						{
							"internalType": "int256",
							"name": "performancePercent24h",
							"type": "int256"
						},
						{
							"internalType": "uint256",
							"name": "lastUpdatedAt",
							"type": "uint256"
						}
					],
					"stateMutability": "view",
					"type": "function"
				},
				{
					"inputs": [
						{
							"internalType": "string",
							"name": "",
							"type": "string"
						}
					],
					"name": "narrativeTopPerformers",
					"outputs": [
						{
							"internalType": "string",
							"name": "narrativeName",
							"type": "string"
						},
						{
							"internalType": "string",
							"name": "tokenSymbol",
							"type": "string"
						},
						{
							"internalType": "int256",
							"name": "relativePerformancePercent",
							"type": "int256"
						},
						{
							"internalType": "uint256",
							"name": "lastUpdatedAt",
							"type": "uint256"
						}
					],
					"stateMutability": "view",
					"type": "function"
				},
				{
					"inputs": [],
					"name": "owner",
					"outputs": [
						{
							"internalType": "address",
							"name": "",
							"type": "address"
						}
					],
					"stateMutability": "view",
					"type": "function"
				},
				{
					"inputs": [],
					"name": "previousExchangeNetflowAmount",
					"outputs": [
						{
							"internalType": "int256",
							"name": "",
							"type": "int256"
						}
					],
					"stateMutability": "view",
					"type": "function"
				},
				{
					"inputs": [
						{
							"internalType": "string",
							"name": "_narrativeName",
							"type": "string"
						}
					],
					"name": "removeNarrativeKey",
					"outputs": [],
					"stateMutability": "nonpayable",
					"type": "function"
				},
				{
					"inputs": [],
					"name": "renounceOwnership",
					"outputs": [],
					"stateMutability": "nonpayable",
					"type": "function"
				},
				{
					"inputs": [],
					"name": "resetAlertTriggerState",
					"outputs": [],
					"stateMutability": "nonpayable",
					"type": "function"
				},
				{
					"inputs": [],
					"name": "stablecoinExchangeOverallNetflow",
					"outputs": [
						{
							"internalType": "int256",
							"name": "dailyNetflowSum",
							"type": "int256"
						},
						{
							"internalType": "int256",
							"name": "weeklyNetflowSum",
							"type": "int256"
						},
						{
							"internalType": "int256",
							"name": "monthlyNetflowSum",
							"type": "int256"
						},
						{
							"internalType": "int256",
							"name": "marketCapChangePercent",
							"type": "int256"
						},
						{
							"internalType": "uint256",
							"name": "lastUpdatedAt",
							"type": "uint256"
						}
					],
					"stateMutability": "view",
					"type": "function"
				},
				{
					"inputs": [
						{
							"internalType": "uint256",
							"name": "",
							"type": "uint256"
						}
					],
					"name": "topOutperformingAssets",
					"outputs": [
						{
							"internalType": "string",
							"name": "tokenSymbol",
							"type": "string"
						},
						{
							"internalType": "address",
							"name": "tokenAddress",
							"type": "address"
						},
						{
							"internalType": "int256",
							"name": "performancePercent24h",
							"type": "int256"
						},
						{
							"internalType": "int256",
							"name": "performanceVsMarketPercent",
							"type": "int256"
						},
						{
							"internalType": "uint256",
							"name": "lastUpdatedAt",
							"type": "uint256"
						}
					],
					"stateMutability": "view",
					"type": "function"
				},
				{
					"inputs": [
						{
							"internalType": "uint256",
							"name": "",
							"type": "uint256"
						}
					],
					"name": "topUnderperformingAssets",
					"outputs": [
						{
							"internalType": "string",
							"name": "tokenSymbol",
							"type": "string"
						},
						{
							"internalType": "address",
							"name": "tokenAddress",
							"type": "address"
						},
						{
							"internalType": "int256",
							"name": "performancePercent24h",
							"type": "int256"
						},
						{
							"internalType": "int256",
							"name": "performanceVsMarketPercent",
							"type": "int256"
						},
						{
							"internalType": "uint256",
							"name": "lastUpdatedAt",
							"type": "uint256"
						}
					],
					"stateMutability": "view",
					"type": "function"
				},
				{
					"inputs": [
						{
							"internalType": "address",
							"name": "newOwner",
							"type": "address"
						}
					],
					"name": "transferOwnership",
					"outputs": [],
					"stateMutability": "nonpayable",
					"type": "function"
				},
				{
					"inputs": [],
					"name": "turnOffAlert",
					"outputs": [],
					"stateMutability": "nonpayable",
					"type": "function"
				},
				{
					"inputs": [
						{
							"internalType": "int256",
							"name": "_amount",
							"type": "int256"
						}
					],
					"name": "updateExchangeNetflow",
					"outputs": [],
					"stateMutability": "nonpayable",
					"type": "function"
				},
				{
					"inputs": [
						{
							"components": [
								{
									"internalType": "string",
									"name": "tokenSymbol",
									"type": "string"
								},
								{
									"internalType": "address",
									"name": "tokenAddress",
									"type": "address"
								},
								{
									"internalType": "int256",
									"name": "performancePercent24h",
									"type": "int256"
								},
								{
									"internalType": "int256",
									"name": "performanceVsMarketPercent",
									"type": "int256"
								},
								{
									"internalType": "uint256",
									"name": "lastUpdatedAt",
									"type": "uint256"
								}
							],
							"internalType": "struct DataTypes.AssetPerformanceInfo[]",
							"name": "_topOutperformers",
							"type": "tuple[]"
						},
						{
							"components": [
								{
									"internalType": "string",
									"name": "tokenSymbol",
									"type": "string"
								},
								{
									"internalType": "address",
									"name": "tokenAddress",
									"type": "address"
								},
								{
									"internalType": "int256",
									"name": "performancePercent24h",
									"type": "int256"
								},
								{
									"internalType": "int256",
									"name": "performanceVsMarketPercent",
									"type": "int256"
								},
								{
									"internalType": "uint256",
									"name": "lastUpdatedAt",
									"type": "uint256"
								}
							],
							"internalType": "struct DataTypes.AssetPerformanceInfo[]",
							"name": "_topUnderperformers",
							"type": "tuple[]"
						},
						{
							"internalType": "int256",
							"name": "_marketAvgMove24h",
							"type": "int256"
						}
					],
					"name": "updateMarketPerformance",
					"outputs": [],
					"stateMutability": "nonpayable",
					"type": "function"
				},
				{
					"inputs": [
						{
							"internalType": "string",
							"name": "_narrativeName",
							"type": "string"
						},
						{
							"internalType": "string",
							"name": "_tokenSymbol",
							"type": "string"
						},
						{
							"internalType": "int256",
							"name": "_relativePerformancePercent",
							"type": "int256"
						}
					],
					"name": "updateNarrativeTopPerformer",
					"outputs": [],
					"stateMutability": "nonpayable",
					"type": "function"
				},
				{
					"inputs": [
						{
							"internalType": "int256",
							"name": "_dailyNetflow",
							"type": "int256"
						},
						{
							"internalType": "int256",
							"name": "_weeklyNetflow",
							"type": "int256"
						},
						{
							"internalType": "int256",
							"name": "_monthlyNetflow",
							"type": "int256"
						},
						{
							"internalType": "int256",
							"name": "_marketCapChangePercent",
							"type": "int256"
						}
					],
					"name": "updateStablecoinOverallNetflow",
					"outputs": [],
					"stateMutability": "nonpayable",
					"type": "function"
				},
				{
					"inputs": [],
					"name": "userNetflowAlert",
					"outputs": [
						{
							"internalType": "uint256",
							"name": "id",
							"type": "uint256"
						},
						{
							"internalType": "address",
							"name": "user",
							"type": "address"
						},
						{
							"internalType": "enum Dashboard.AlertCondition",
							"name": "condition",
							"type": "uint8"
						},
						{
							"internalType": "int256",
							"name": "threshold1",
							"type": "int256"
						},
						{
							"internalType": "int256",
							"name": "threshold2",
							"type": "int256"
						},
						{
							"internalType": "bool",
							"name": "isActive",
							"type": "bool"
						},
						{
							"internalType": "bool",
							"name": "isTriggered",
							"type": "bool"
						},
						{
							"internalType": "uint256",
							"name": "lastTriggeredAt",
							"type": "uint256"
						},
						{
							"internalType": "string",
							"name": "message",
							"type": "string"
						}
					],
					"stateMutability": "view",
					"type": "function"
				},
				{
					"inputs": [
						{
							"internalType": "uint256",
							"name": "",
							"type": "uint256"
						}
					],
					"name": "userNetflowAlerts",
					"outputs": [
						{
							"internalType": "uint256",
							"name": "id",
							"type": "uint256"
						},
						{
							"internalType": "address",
							"name": "user",
							"type": "address"
						},
						{
							"internalType": "enum Dashboard.AlertCondition",
							"name": "condition",
							"type": "uint8"
						},
						{
							"internalType": "int256",
							"name": "threshold1",
							"type": "int256"
						},
						{
							"internalType": "int256",
							"name": "threshold2",
							"type": "int256"
						},
						{
							"internalType": "bool",
							"name": "isActive",
							"type": "bool"
						},
						{
							"internalType": "bool",
							"name": "isTriggered",
							"type": "bool"
						},
						{
							"internalType": "uint256",
							"name": "lastTriggeredAt",
							"type": "uint256"
						},
						{
							"internalType": "string",
							"name": "message",
							"type": "string"
						}
					],
					"stateMutability": "view",
					"type": "function"
				}
			],
			"devdoc": {
				"errors": {
					"OwnableInvalidOwner(address)": [
						{
							"details": "The owner is not a valid owner account. (eg. `address(0)`)"
						}
					],
					"OwnableUnauthorizedAccount(address)": [
						{
							"details": "The caller account is not authorized to perform an operation."
						}
					]
				},
				"kind": "dev",
				"methods": {
					"owner()": {
						"details": "Returns the address of the current owner."
					},
					"renounceOwnership()": {
						"details": "Leaves the contract without owner. It will not be possible to call `onlyOwner` functions. Can only be called by the current owner. NOTE: Renouncing ownership will leave the contract without an owner, thereby disabling any functionality that is only available to the owner."
					},
					"transferOwnership(address)": {
						"details": "Transfers ownership of the contract to a new account (`newOwner`). Can only be called by the current owner."
					}
				},
				"version": 1
			},
			"evm": {
				"assembly": "    /* \"contracts/DashBoard.sol\":156:17631  contract Dashboard is Ownable, DataTypes {... */\n  mstore(0x40, 0x80)\n    /* \"contracts/DashBoard.sol\":436:488  bool public hasPreviousExchangeNetflowAmount = false */\n  0x05\n  dup1\n  sload\n  not(0xff)\n  and\n  swap1\n  sstore\n  0x01\n    /* \"contracts/DashBoard.sol\":1586:1617  uint256 private nextAlertId = 1 */\n  0x19\n  sstore\n    /* \"contracts/DashBoard.sol\":2841:2961  constructor() Ownable(msg.sender) {... */\n  callvalue\n  dup1\n  iszero\n  tag_1\n  jumpi\n  revert(0x00, 0x00)\ntag_1:\n  pop\n    /* \"contracts/DashBoard.sol\":2863:2873  msg.sender */\n  caller\n  dup1\n    /* \"@openzeppelin/contracts/access/Ownable.sol\":1269:1364  if (initialOwner == address(0)) {... */\n  tag_5\n  jumpi\n    /* \"@openzeppelin/contracts/access/Ownable.sol\":1322:1353  OwnableInvalidOwner(address(0)) */\n  mload(0x40)\n  shl(0xe0, 0x1e4fbdf7)\n  dup2\n  mstore\n    /* \"@openzeppelin/contracts/access/Ownable.sol\":1350:1351  0 */\n  0x00\n    /* \"@openzeppelin/contracts/access/Ownable.sol\":1322:1353  OwnableInvalidOwner(address(0)) */\n  0x04\n  dup3\n  add\n    /* \"#utility.yul\":160:211   */\n  mstore\n    /* \"#utility.yul\":133:151   */\n  0x24\n  add\n    /* \"@openzeppelin/contracts/access/Ownable.sol\":1322:1353  OwnableInvalidOwner(address(0)) */\n  mload(0x40)\n  dup1\n  swap2\n  sub\n  swap1\n  revert\n    /* \"@openzeppelin/contracts/access/Ownable.sol\":1269:1364  if (initialOwner == address(0)) {... */\ntag_5:\n    /* \"@openzeppelin/contracts/access/Ownable.sol\":1373:1405  _transferOwnership(initialOwner) */\n  tag_8\n    /* \"@openzeppelin/contracts/access/Ownable.sol\":1392:1404  initialOwner */\n  dup2\n    /* \"@openzeppelin/contracts/access/Ownable.sol\":1373:1391  _transferOwnership */\n  tag_9\n    /* \"@openzeppelin/contracts/access/Ownable.sol\":1373:1405  _transferOwnership(initialOwner) */\n  jump\t// in\ntag_8:\n  pop\n    /* \"contracts/DashBoard.sol\":2886:2911  userNetflowAlert.isActive */\n  0x16\n    /* \"contracts/DashBoard.sol\":2886:2919  userNetflowAlert.isActive = false */\n  dup1\n  sload\n  not(0xff)\n  and\n  swap1\n  sstore\n    /* \"contracts/DashBoard.sol\":2914:2919  false */\n  0x00\n    /* \"contracts/DashBoard.sol\":2886:2902  userNetflowAlert */\n  0x12\n    /* \"contracts/DashBoard.sol\":2930:2953  userNetflowAlert.id = 0 */\n  sstore\n    /* \"contracts/DashBoard.sol\":156:17631  contract Dashboard is Ownable, DataTypes {... */\n  jump(tag_13)\n    /* \"@openzeppelin/contracts/access/Ownable.sol\":2912:3099  function _transferOwnership(address newOwner) internal virtual {... */\ntag_9:\n    /* \"@openzeppelin/contracts/access/Ownable.sol\":2985:3001  address oldOwner */\n  0x00\n    /* \"@openzeppelin/contracts/access/Ownable.sol\":3004:3010  _owner */\n  dup1\n  sload\n  sub(shl(0xa0, 0x01), 0x01)\n    /* \"@openzeppelin/contracts/access/Ownable.sol\":3020:3037  _owner = newOwner */\n  dup4\n  dup2\n  and\n  not(sub(shl(0xa0, 0x01), 0x01))\n  dup4\n  and\n  dup2\n  or\n  dup5\n  sstore\n    /* \"@openzeppelin/contracts/access/Ownable.sol\":3052:3092  OwnershipTransferred(oldOwner, newOwner) */\n  mload(0x40)\n    /* \"@openzeppelin/contracts/access/Ownable.sol\":3004:3010  _owner */\n  swap2\n  swap1\n  swap3\n  and\n  swap3\n  dup4\n  swap2\n    /* \"@openzeppelin/contracts/access/Ownable.sol\":3052:3092  OwnershipTransferred(oldOwner, newOwner) */\n  0x8be0079c531659141344cd1fd0a4f28419497f9722a3daafe3b4186f6b6457e0\n  swap2\n    /* \"@openzeppelin/contracts/access/Ownable.sol\":2985:3001  address oldOwner */\n  swap1\n    /* \"@openzeppelin/contracts/access/Ownable.sol\":3052:3092  OwnershipTransferred(oldOwner, newOwner) */\n  log3\n    /* \"@openzeppelin/contracts/access/Ownable.sol\":2975:3099  {... */\n  pop\n    /* \"@openzeppelin/contracts/access/Ownable.sol\":2912:3099  function _transferOwnership(address newOwner) internal virtual {... */\n  pop\n  jump\t// out\n    /* \"#utility.yul\":14:217   */\ntag_13:\n    /* \"contracts/DashBoard.sol\":156:17631  contract Dashboard is Ownable, DataTypes {... */\n  dataSize(sub_0)\n  dup1\n  dataOffset(sub_0)\n  0x00\n  codecopy\n  0x00\n  return\nstop\n\nsub_0: assembly {\n        /* \"contracts/DashBoard.sol\":156:17631  contract Dashboard is Ownable, DataTypes {... */\n      mstore(0x40, 0x80)\n      callvalue\n      dup1\n      iszero\n      tag_1\n      jumpi\n      revert(0x00, 0x00)\n    tag_1:\n      pop\n      jumpi(tag_2, lt(calldatasize, 0x04))\n      shr(0xe0, calldataload(0x00))\n      dup1\n      0x86b28718\n      gt\n      tag_38\n      jumpi\n      dup1\n      0xe337d7cf\n      gt\n      tag_39\n      jumpi\n      dup1\n      0xf25ab9c9\n      gt\n      tag_40\n      jumpi\n      dup1\n      0xf25ab9c9\n      eq\n      tag_33\n      jumpi\n      dup1\n      0xf2fde38b\n      eq\n      tag_34\n      jumpi\n      dup1\n      0xf42191de\n      eq\n      tag_35\n      jumpi\n      dup1\n      0xf44f031a\n      eq\n      tag_36\n      jumpi\n      dup1\n      0xfec53907\n      eq\n      tag_37\n      jumpi\n      revert(0x00, 0x00)\n    tag_40:\n      dup1\n      0xe337d7cf\n      eq\n      tag_29\n      jumpi\n      dup1\n      0xe642566f\n      eq\n      tag_30\n      jumpi\n      dup1\n      0xea7fbd64\n      eq\n      tag_31\n      jumpi\n      dup1\n      0xf1e52d1d\n      eq\n      tag_32\n      jumpi\n      revert(0x00, 0x00)\n    tag_39:\n      dup1\n      0xac57e64e\n      gt\n      tag_41\n      jumpi\n      dup1\n      0xac57e64e\n      eq\n      tag_24\n      jumpi\n      dup1\n      0xb1950a37\n      eq\n      tag_25\n      jumpi\n      dup1\n      0xb2cec9ef\n      eq\n      tag_26\n      jumpi\n      dup1\n      0xca848e6a\n      eq\n      tag_27\n      jumpi\n      dup1\n      0xcc0363cd\n      eq\n      tag_28\n      jumpi\n      revert(0x00, 0x00)\n    tag_41:\n      dup1\n      0x86b28718\n      eq\n      tag_20\n      jumpi\n      dup1\n      0x8da5cb5b\n      eq\n      tag_21\n      jumpi\n      dup1\n      0x977ddf37\n      eq\n      tag_22\n      jumpi\n      dup1\n      0x99670fea\n      eq\n      tag_23\n      jumpi\n      revert(0x00, 0x00)\n    tag_38:\n      dup1\n      0x30400a3a\n      gt\n      tag_42\n      jumpi\n      dup1\n      0x51320eb5\n      gt\n      tag_43\n      jumpi\n      dup1\n      0x51320eb5\n      eq\n      tag_15\n      jumpi\n      dup1\n      0x715018a6\n      eq\n      tag_16\n      jumpi\n      dup1\n      0x740fb0d2\n      eq\n      tag_17\n      jumpi\n      dup1\n      0x7e3fb6ca\n      eq\n      tag_18\n      jumpi\n      dup1\n      0x7e767e14\n      eq\n      tag_19\n      jumpi\n      revert(0x00, 0x00)\n    tag_43:\n      dup1\n      0x30400a3a\n      eq\n      tag_11\n      jumpi\n      dup1\n      0x3afa9a2e\n      eq\n      tag_12\n      jumpi\n      dup1\n      0x3fab3dd6\n      eq\n      tag_13\n      jumpi\n      dup1\n      0x440c1ec9\n      eq\n      tag_14\n      jumpi\n      revert(0x00, 0x00)\n    tag_42:\n      dup1\n      0x298fc805\n      gt\n      tag_44\n      jumpi\n      dup1\n      0x298fc805\n      eq\n      tag_7\n      jumpi\n      dup1\n      0x2e4d0321\n      eq\n      tag_8\n      jumpi\n      dup1\n      0x2f66b011\n      eq\n      tag_9\n      jumpi\n      dup1\n      0x2f85909b\n      eq\n      tag_10\n      jumpi\n      revert(0x00, 0x00)\n    tag_44:\n      dup1\n      0x0acd704e\n      eq\n      tag_3\n      jumpi\n      dup1\n      0x0f549423\n      eq\n      tag_4\n      jumpi\n      dup1\n      0x1adae926\n      eq\n      tag_5\n      jumpi\n      dup1\n      0x2243e326\n      eq\n      tag_6\n      jumpi\n    tag_2:\n      revert(0x00, 0x00)\n        /* \"contracts/DashBoard.sol\":566:638  mapping(string => NarrativePerformanceInfo) public narrativePerformances */\n    tag_3:\n      tag_45\n      tag_46\n      calldatasize\n      0x04\n      tag_47\n      jump\t// in\n    tag_46:\n      tag_48\n      jump\t// in\n    tag_45:\n      mload(0x40)\n      tag_49\n      swap4\n      swap3\n      swap2\n      swap1\n      tag_50\n      jump\t// in\n    tag_49:\n      mload(0x40)\n      dup1\n      swap2\n      sub\n      swap1\n      return\n        /* \"contracts/DashBoard.sol\":436:488  bool public hasPreviousExchangeNetflowAmount = false */\n    tag_4:\n      sload(0x05)\n      tag_51\n      swap1\n      0xff\n      and\n      dup2\n      jump\n    tag_51:\n      mload(0x40)\n        /* \"#utility.yul\":2016:2030   */\n      swap1\n      iszero\n        /* \"#utility.yul\":2009:2031   */\n      iszero\n        /* \"#utility.yul\":1991:2032   */\n      dup2\n      mstore\n        /* \"#utility.yul\":1979:1981   */\n      0x20\n        /* \"#utility.yul\":1964:1982   */\n      add\n        /* \"contracts/DashBoard.sol\":436:488  bool public hasPreviousExchangeNetflowAmount = false */\n      tag_49\n        /* \"#utility.yul\":1851:2038   */\n      jump\n        /* \"contracts/DashBoard.sol\":284:323  NetflowAlert[] public userNetflowAlerts */\n    tag_5:\n      tag_55\n      tag_56\n      calldatasize\n      0x04\n      tag_57\n      jump\t// in\n    tag_56:\n      tag_58\n      jump\t// in\n    tag_55:\n      mload(0x40)\n      tag_49\n      swap10\n      swap9\n      swap8\n      swap7\n      swap6\n      swap5\n      swap4\n      swap3\n      swap2\n      swap1\n      tag_60\n      jump\t// in\n        /* \"contracts/DashBoard.sol\":645:674  string[] public narrativeKeys */\n    tag_6:\n      tag_61\n      tag_62\n      calldatasize\n      0x04\n      tag_57\n      jump\t// in\n    tag_62:\n      tag_63\n      jump\t// in\n    tag_61:\n      mload(0x40)\n      tag_49\n      swap2\n      swap1\n      tag_65\n      jump\t// in\n        /* \"contracts/DashBoard.sol\":385:428  int256 public previousExchangeNetflowAmount */\n    tag_7:\n      tag_66\n      sload(0x04)\n      dup2\n      jump\n    tag_66:\n      mload(0x40)\n        /* \"#utility.yul\":3968:3993   */\n      swap1\n      dup2\n      mstore\n        /* \"#utility.yul\":3956:3958   */\n      0x20\n        /* \"#utility.yul\":3941:3959   */\n      add\n        /* \"contracts/DashBoard.sol\":385:428  int256 public previousExchangeNetflowAmount */\n      tag_49\n        /* \"#utility.yul\":3824:3999   */\n      jump\n        /* \"contracts/DashBoard.sol\":7741:9567  function SingleThresholdNetflowAlert( ... */\n    tag_8:\n      tag_70\n      tag_71\n      calldatasize\n      0x04\n      tag_72\n      jump\t// in\n    tag_71:\n      tag_73\n      jump\t// in\n    tag_70:\n      stop\n        /* \"contracts/DashBoard.sol\":15148:15435  function activateAlert() external onlyOwner {... */\n    tag_9:\n      tag_70\n      tag_75\n      jump\t// in\n        /* \"contracts/DashBoard.sol\":15931:16041  function getAllNarrativeKeys() external view returns (string[] memory) {... */\n    tag_10:\n      tag_76\n      tag_77\n      jump\t// in\n    tag_76:\n      mload(0x40)\n      tag_49\n      swap2\n      swap1\n      tag_79\n      jump\t// in\n        /* \"contracts/DashBoard.sol\":758:810  AssetPerformanceInfo[] public topOutperformingAssets */\n    tag_11:\n      tag_80\n      tag_81\n      calldatasize\n      0x04\n      tag_57\n      jump\t// in\n    tag_81:\n      tag_82\n      jump\t// in\n    tag_80:\n      mload(0x40)\n      tag_49\n      swap6\n      swap5\n      swap4\n      swap3\n      swap2\n      swap1\n      tag_84\n      jump\t// in\n        /* \"contracts/DashBoard.sol\":3663:4382  function updateStablecoinOverallNetflow(... */\n    tag_12:\n      tag_70\n      tag_86\n      calldatasize\n      0x04\n      tag_87\n      jump\t// in\n    tag_86:\n      tag_88\n      jump\t// in\n        /* \"contracts/DashBoard.sol\":4390:5284  function addOrUpdateNarrativePerformance(string calldata _narrativeName, int256 _performancePercent) external onlyOwner {... */\n    tag_13:\n      tag_70\n      tag_90\n      calldatasize\n      0x04\n      tag_91\n      jump\t// in\n    tag_90:\n      tag_92\n      jump\t// in\n        /* \"contracts/DashBoard.sol\":15443:15747  function resetAlertTriggerState() external onlyOwner {... */\n    tag_14:\n      tag_70\n      tag_94\n      jump\t// in\n        /* \"contracts/DashBoard.sol\":330:378  uint256 public constant MAX_ALERTS_PER_USER = 10 */\n    tag_15:\n      tag_66\n        /* \"contracts/DashBoard.sol\":376:378  10 */\n      0x0a\n        /* \"contracts/DashBoard.sol\":330:378  uint256 public constant MAX_ALERTS_PER_USER = 10 */\n      dup2\n      jump\n        /* \"@openzeppelin/contracts/access/Ownable.sol\":2293:2394  function renounceOwnership() public virtual onlyOwner {... */\n    tag_16:\n      tag_70\n      tag_100\n      jump\t// in\n        /* \"contracts/DashBoard.sol\":681:751  mapping(string => NarrativeTopTokenInfo) public narrativeTopPerformers */\n    tag_17:\n      tag_101\n      tag_102\n      calldatasize\n      0x04\n      tag_47\n      jump\t// in\n    tag_102:\n      tag_103\n      jump\t// in\n    tag_101:\n      mload(0x40)\n      tag_49\n      swap5\n      swap4\n      swap3\n      swap2\n      swap1\n      tag_105\n      jump\t// in\n        /* \"contracts/DashBoard.sol\":16571:16714  function getTopUnderperformingAssets() external view returns (AssetPerformanceInfo[] memory) {... */\n    tag_18:\n      tag_106\n      tag_107\n      jump\t// in\n    tag_106:\n      mload(0x40)\n      tag_49\n      swap2\n      swap1\n      tag_109\n      jump\t// in\n        /* \"contracts/DashBoard.sol\":16237:16420  function getNarrativeTopPerformer(string calldata _narrativeName) external view returns (NarrativeTopTokenInfo memory) {... */\n    tag_19:\n      tag_110\n      tag_111\n      calldatasize\n      0x04\n      tag_112\n      jump\t// in\n    tag_111:\n      tag_113\n      jump\t// in\n    tag_110:\n      mload(0x40)\n      tag_49\n      swap2\n      swap1\n      tag_115\n      jump\t// in\n        /* \"contracts/DashBoard.sol\":878:923  int256 public marketAverageMovementPercent24h */\n    tag_20:\n      tag_66\n      sload(0x10)\n      dup2\n      jump\n        /* \"@openzeppelin/contracts/access/Ownable.sol\":1638:1723  function owner() public view virtual returns (address) {... */\n    tag_21:\n        /* \"@openzeppelin/contracts/access/Ownable.sol\":1684:1691  address */\n      0x00\n        /* \"@openzeppelin/contracts/access/Ownable.sol\":1710:1716  _owner */\n      sload\n        /* \"@openzeppelin/contracts/access/Ownable.sol\":1638:1723  function owner() public view virtual returns (address) {... */\n      mload(0x40)\n      sub(shl(0xa0, 0x01), 0x01)\n        /* \"@openzeppelin/contracts/access/Ownable.sol\":1710:1716  _owner */\n      swap1\n      swap2\n      and\n        /* \"#utility.yul\":10830:10881   */\n      dup2\n      mstore\n        /* \"#utility.yul\":10818:10820   */\n      0x20\n        /* \"#utility.yul\":10803:10821   */\n      add\n        /* \"@openzeppelin/contracts/access/Ownable.sol\":1638:1723  function owner() public view virtual returns (address) {... */\n      tag_49\n        /* \"#utility.yul\":10684:10887   */\n      jump\n        /* \"contracts/DashBoard.sol\":930:975  uint256 public marketPerformanceLastUpdatedAt */\n    tag_22:\n      tag_66\n      sload(0x11)\n      dup2\n      jump\n        /* \"contracts/DashBoard.sol\":498:559  StablecoinOverallInfo public stablecoinExchangeOverallNetflow */\n    tag_23:\n      sload(0x06)\n      sload(0x07)\n      sload(0x08)\n      sload(0x09)\n      sload(0x0a)\n      tag_126\n      swap5\n      swap4\n      swap3\n      swap2\n      swap1\n      dup6\n      jump\n    tag_126:\n      0x40\n      dup1\n      mload\n        /* \"#utility.yul\":11143:11168   */\n      swap6\n      dup7\n      mstore\n        /* \"#utility.yul\":11199:11201   */\n      0x20\n        /* \"#utility.yul\":11184:11202   */\n      dup7\n      add\n        /* \"#utility.yul\":11177:11211   */\n      swap5\n      swap1\n      swap5\n      mstore\n        /* \"#utility.yul\":11227:11245   */\n      swap3\n      dup5\n      add\n        /* \"#utility.yul\":11220:11254   */\n      swap2\n      swap1\n      swap2\n      mstore\n        /* \"#utility.yul\":11285:11287   */\n      0x60\n        /* \"#utility.yul\":11270:11288   */\n      dup4\n      add\n        /* \"#utility.yul\":11263:11297   */\n      mstore\n        /* \"#utility.yul\":11328:11331   */\n      0x80\n        /* \"#utility.yul\":11313:11332   */\n      dup3\n      add\n        /* \"#utility.yul\":11306:11341   */\n      mstore\n        /* \"#utility.yul\":11130:11133   */\n      0xa0\n        /* \"#utility.yul\":11115:11134   */\n      add\n        /* \"contracts/DashBoard.sol\":498:559  StablecoinOverallInfo public stablecoinExchangeOverallNetflow */\n      tag_49\n        /* \"#utility.yul\":10892:11347   */\n      jump\n        /* \"contracts/DashBoard.sol\":14905:15140  function turnOffAlert() external onlyOwner {... */\n    tag_24:\n      tag_70\n      tag_131\n      jump\t// in\n        /* \"contracts/DashBoard.sol\":6219:7663  function updateMarketPerformance(... */\n    tag_25:\n      tag_70\n      tag_133\n      calldatasize\n      0x04\n      tag_134\n      jump\t// in\n    tag_133:\n      tag_135\n      jump\t// in\n        /* \"contracts/DashBoard.sol\":3010:3655  function updateExchangeNetflow(int256 _amount) external onlyOwner {... */\n    tag_26:\n      tag_70\n      tag_137\n      calldatasize\n      0x04\n      tag_57\n      jump\t// in\n    tag_137:\n      tag_139\n      jump\t// in\n        /* \"contracts/DashBoard.sol\":16763:17628  function removeNarrativeKey(string calldata _narrativeName) external onlyOwner {... */\n    tag_27:\n      tag_70\n      tag_141\n      calldatasize\n      0x04\n      tag_112\n      jump\t// in\n    tag_141:\n      tag_142\n      jump\t// in\n        /* \"contracts/DashBoard.sol\":15796:15923  function getAllNetflowAlerts() external view returns (NetflowAlert[] memory alerts) {... */\n    tag_28:\n      tag_143\n      tag_144\n      jump\t// in\n    tag_143:\n      mload(0x40)\n      tag_49\n      swap2\n      swap1\n      tag_146\n      jump\t// in\n        /* \"contracts/DashBoard.sol\":5292:5596  function batchUpdateNarrativePerformances(NarrativePerformanceInfo[] calldata _performances) external onlyOwner {... */\n    tag_29:\n      tag_70\n      tag_148\n      calldatasize\n      0x04\n      tag_149\n      jump\t// in\n    tag_148:\n      tag_150\n      jump\t// in\n        /* \"contracts/DashBoard.sol\":1543:1579  NetflowAlert public userNetflowAlert */\n    tag_30:\n      tag_55\n      tag_152\n      jump\t// in\n        /* \"contracts/DashBoard.sol\":5604:6211  function updateNarrativeTopPerformer(... */\n    tag_31:\n      tag_70\n      tag_155\n      calldatasize\n      0x04\n      tag_156\n      jump\t// in\n    tag_155:\n      tag_157\n      jump\t// in\n        /* \"contracts/DashBoard.sol\":16426:16565  function getTopOutperformingAssets() external view returns (AssetPerformanceInfo[] memory) {... */\n    tag_32:\n      tag_106\n      tag_159\n      jump\t// in\n        /* \"contracts/DashBoard.sol\":9575:11549  function DoubleNetflowAlert( ... */\n    tag_33:\n      tag_70\n      tag_162\n      calldatasize\n      0x04\n      tag_163\n      jump\t// in\n    tag_162:\n      tag_164\n      jump\t// in\n        /* \"@openzeppelin/contracts/access/Ownable.sol\":2543:2758  function transferOwnership(address newOwner) public virtual onlyOwner {... */\n    tag_34:\n      tag_70\n      tag_166\n      calldatasize\n      0x04\n      tag_167\n      jump\t// in\n    tag_166:\n      tag_168\n      jump\t// in\n        /* \"contracts/DashBoard.sol\":16047:16231  function getNarrativePerformance(string calldata _narrativeName) external view returns (NarrativePerformanceInfo memory) {... */\n    tag_35:\n      tag_169\n      tag_170\n      calldatasize\n      0x04\n      tag_112\n      jump\t// in\n    tag_170:\n      tag_171\n      jump\t// in\n    tag_169:\n      mload(0x40)\n      tag_49\n      swap2\n      swap1\n      tag_173\n      jump\t// in\n        /* \"contracts/DashBoard.sol\":817:871  AssetPerformanceInfo[] public topUnderperformingAssets */\n    tag_36:\n      tag_80\n      tag_175\n      calldatasize\n      0x04\n      tag_57\n      jump\t// in\n    tag_175:\n      tag_176\n      jump\t// in\n        /* \"contracts/DashBoard.sol\":242:276  NetflowInfo public exchangeNetflow */\n    tag_37:\n      sload(0x01)\n      sload(0x02)\n      tag_178\n      swap2\n      swap1\n      dup3\n      jump\n    tag_178:\n      0x40\n      dup1\n      mload\n        /* \"#utility.yul\":17776:17801   */\n      swap3\n      dup4\n      mstore\n        /* \"#utility.yul\":17832:17834   */\n      0x20\n        /* \"#utility.yul\":17817:17835   */\n      dup4\n      add\n        /* \"#utility.yul\":17810:17844   */\n      swap2\n      swap1\n      swap2\n      mstore\n        /* \"#utility.yul\":17749:17767   */\n      add\n        /* \"contracts/DashBoard.sol\":242:276  NetflowInfo public exchangeNetflow */\n      tag_49\n        /* \"#utility.yul\":17604:17850   */\n      jump\n        /* \"contracts/DashBoard.sol\":566:638  mapping(string => NarrativePerformanceInfo) public narrativePerformances */\n    tag_48:\n      dup1\n      mload\n      0x20\n      dup2\n      dup4\n      add\n      dup2\n      add\n      dup1\n      mload\n      0x0b\n      dup3\n      mstore\n      swap3\n      dup3\n      add\n      swap2\n      swap1\n      swap4\n      add\n      keccak256\n      swap2\n      mstore\n      dup1\n      sload\n      dup2\n      swap1\n      tag_182\n      swap1\n      tag_183\n      jump\t// in\n    tag_182:\n      dup1\n      0x1f\n      add\n      0x20\n      dup1\n      swap2\n      div\n      mul\n      0x20\n      add\n      mload(0x40)\n      swap1\n      dup2\n      add\n      0x40\n      mstore\n      dup1\n      swap3\n      swap2\n      swap1\n      dup2\n      dup2\n      mstore\n      0x20\n      add\n      dup3\n      dup1\n      sload\n      tag_184\n      swap1\n      tag_183\n      jump\t// in\n    tag_184:\n      dup1\n      iszero\n      tag_185\n      jumpi\n      dup1\n      0x1f\n      lt\n      tag_186\n      jumpi\n      0x0100\n      dup1\n      dup4\n      sload\n      div\n      mul\n      dup4\n      mstore\n      swap2\n      0x20\n      add\n      swap2\n      jump(tag_185)\n    tag_186:\n      dup3\n      add\n      swap2\n      swap1\n      0x00\n      mstore\n      keccak256(0x00, 0x20)\n      swap1\n    tag_187:\n      dup2\n      sload\n      dup2\n      mstore\n      swap1\n      0x01\n      add\n      swap1\n      0x20\n      add\n      dup1\n      dup4\n      gt\n      tag_187\n      jumpi\n      dup3\n      swap1\n      sub\n      0x1f\n      and\n      dup3\n      add\n      swap2\n    tag_185:\n      pop\n      pop\n      pop\n      pop\n      pop\n      swap1\n      dup1\n      0x01\n      add\n      sload\n      swap1\n      dup1\n      0x02\n      add\n      sload\n      swap1\n      pop\n      dup4\n      jump\t// out\n        /* \"contracts/DashBoard.sol\":284:323  NetflowAlert[] public userNetflowAlerts */\n    tag_58:\n      0x03\n      dup2\n      dup2\n      sload\n      dup2\n      lt\n      tag_188\n      jumpi\n      0x00\n      dup1\n      revert\n    tag_188:\n      0x00\n      swap2\n      dup3\n      mstore\n      0x20\n      swap1\n      swap2\n      keccak256\n      0x07\n      swap1\n      swap2\n      mul\n      add\n      dup1\n      sload\n      0x01\n      dup3\n      add\n      sload\n      0x02\n      dup4\n      add\n      sload\n      0x03\n      dup5\n      add\n      sload\n      0x04\n      dup6\n      add\n      sload\n      0x05\n      dup7\n      add\n      sload\n      0x06\n      dup8\n      add\n      dup1\n      sload\n      swap7\n      swap9\n      pop\n      sub(shl(0xa0, 0x01), 0x01)\n      dup7\n      and\n      swap8\n      0xff\n      shl(0xa0, 0x01)\n      swap1\n      swap8\n      div\n      dup8\n      and\n      swap8\n      swap6\n      swap7\n      swap5\n      swap6\n      dup5\n      dup7\n      and\n      swap6\n      0x0100\n      swap1\n      swap6\n      div\n      swap1\n      swap5\n      and\n      swap4\n      swap1\n      swap2\n      swap1\n      tag_190\n      swap1\n      tag_183\n      jump\t// in\n    tag_190:\n      dup1\n      0x1f\n      add\n      0x20\n      dup1\n      swap2\n      div\n      mul\n      0x20\n      add\n      mload(0x40)\n      swap1\n      dup2\n      add\n      0x40\n      mstore\n      dup1\n      swap3\n      swap2\n      swap1\n      dup2\n      dup2\n      mstore\n      0x20\n      add\n      dup3\n      dup1\n      sload\n      tag_191\n      swap1\n      tag_183\n      jump\t// in\n    tag_191:\n      dup1\n      iszero\n      tag_192\n      jumpi\n      dup1\n      0x1f\n      lt\n      tag_193\n      jumpi\n      0x0100\n      dup1\n      dup4\n      sload\n      div\n      mul\n      dup4\n      mstore\n      swap2\n      0x20\n      add\n      swap2\n      jump(tag_192)\n    tag_193:\n      dup3\n      add\n      swap2\n      swap1\n      0x00\n      mstore\n      keccak256(0x00, 0x20)\n      swap1\n    tag_194:\n      dup2\n      sload\n      dup2\n      mstore\n      swap1\n      0x01\n      add\n      swap1\n      0x20\n      add\n      dup1\n      dup4\n      gt\n      tag_194\n      jumpi\n      dup3\n      swap1\n      sub\n      0x1f\n      and\n      dup3\n      add\n      swap2\n    tag_192:\n      pop\n      pop\n      pop\n      pop\n      pop\n      swap1\n      pop\n      dup10\n      jump\t// out\n        /* \"contracts/DashBoard.sol\":645:674  string[] public narrativeKeys */\n    tag_63:\n      0x0c\n      dup2\n      dup2\n      sload\n      dup2\n      lt\n      tag_195\n      jumpi\n      0x00\n      dup1\n      revert\n    tag_195:\n      swap1\n      0x00\n      mstore\n      keccak256(0x00, 0x20)\n      add\n      0x00\n      swap2\n      pop\n      swap1\n      pop\n      dup1\n      sload\n      tag_197\n      swap1\n      tag_183\n      jump\t// in\n    tag_197:\n      dup1\n      0x1f\n      add\n      0x20\n      dup1\n      swap2\n      div\n      mul\n      0x20\n      add\n      mload(0x40)\n      swap1\n      dup2\n      add\n      0x40\n      mstore\n      dup1\n      swap3\n      swap2\n      swap1\n      dup2\n      dup2\n      mstore\n      0x20\n      add\n      dup3\n      dup1\n      sload\n      tag_198\n      swap1\n      tag_183\n      jump\t// in\n    tag_198:\n      dup1\n      iszero\n      tag_199\n      jumpi\n      dup1\n      0x1f\n      lt\n      tag_200\n      jumpi\n      0x0100\n      dup1\n      dup4\n      sload\n      div\n      mul\n      dup4\n      mstore\n      swap2\n      0x20\n      add\n      swap2\n      jump(tag_199)\n    tag_200:\n      dup3\n      add\n      swap2\n      swap1\n      0x00\n      mstore\n      keccak256(0x00, 0x20)\n      swap1\n    tag_201:\n      dup2\n      sload\n      dup2\n      mstore\n      swap1\n      0x01\n      add\n      swap1\n      0x20\n      add\n      dup1\n      dup4\n      gt\n      tag_201\n      jumpi\n      dup3\n      swap1\n      sub\n      0x1f\n      and\n      dup3\n      add\n      swap2\n    tag_199:\n      pop\n      pop\n      pop\n      pop\n      pop\n      dup2\n      jump\t// out\n        /* \"contracts/DashBoard.sol\":7741:9567  function SingleThresholdNetflowAlert( ... */\n    tag_73:\n        /* \"@openzeppelin/contracts/access/Ownable.sol\":1531:1544  _checkOwner() */\n      tag_203\n        /* \"@openzeppelin/contracts/access/Ownable.sol\":1531:1542  _checkOwner */\n      tag_204\n        /* \"@openzeppelin/contracts/access/Ownable.sol\":1531:1544  _checkOwner() */\n      jump\t// in\n    tag_203:\n        /* \"contracts/DashBoard.sol\":7952:7979  AlertCondition.GREATER_THAN */\n      0x01\n        /* \"contracts/DashBoard.sol\":7938:7948  _condition */\n      dup5\n        /* \"contracts/DashBoard.sol\":7938:7979  _condition == AlertCondition.GREATER_THAN */\n      0x0c\n      dup2\n      gt\n      iszero\n      tag_210\n      jumpi\n      tag_210\n      tag_208\n      jump\t// in\n    tag_210:\n      eq\n        /* \"contracts/DashBoard.sol\":7938:8045  _condition == AlertCondition.GREATER_THAN ||    //1    ... */\n      dup1\n      tag_211\n      jumpi\n      pop\n        /* \"contracts/DashBoard.sol\":8021:8045  AlertCondition.LESS_THAN */\n      0x02\n        /* \"contracts/DashBoard.sol\":8007:8017  _condition */\n      dup5\n        /* \"contracts/DashBoard.sol\":8007:8045  _condition == AlertCondition.LESS_THAN */\n      0x0c\n      dup2\n      gt\n      iszero\n      tag_215\n      jumpi\n      tag_215\n      tag_208\n      jump\t// in\n    tag_215:\n      eq\n        /* \"contracts/DashBoard.sol\":7938:8045  _condition == AlertCondition.GREATER_THAN ||    //1    ... */\n    tag_211:\n        /* \"contracts/DashBoard.sol\":7938:8109  _condition == AlertCondition.GREATER_THAN ||    //1    ... */\n      dup1\n      tag_216\n      jumpi\n      pop\n        /* \"contracts/DashBoard.sol\":8086:8109  AlertCondition.EQUAL_TO */\n      0x03\n        /* \"contracts/DashBoard.sol\":8072:8082  _condition */\n      dup5\n        /* \"contracts/DashBoard.sol\":8072:8109  _condition == AlertCondition.EQUAL_TO */\n      0x0c\n      dup2\n      gt\n      iszero\n      tag_220\n      jumpi\n      tag_220\n      tag_208\n      jump\t// in\n    tag_220:\n      eq\n        /* \"contracts/DashBoard.sol\":7938:8109  _condition == AlertCondition.GREATER_THAN ||    //1    ... */\n    tag_216:\n        /* \"contracts/DashBoard.sol\":7938:8174  _condition == AlertCondition.GREATER_THAN ||    //1    ... */\n      dup1\n      tag_221\n      jumpi\n      pop\n        /* \"contracts/DashBoard.sol\":8151:8174  AlertCondition.CROSSING */\n      0x04\n        /* \"contracts/DashBoard.sol\":8137:8147  _condition */\n      dup5\n        /* \"contracts/DashBoard.sol\":8137:8174  _condition == AlertCondition.CROSSING */\n      0x0c\n      dup2\n      gt\n      iszero\n      tag_225\n      jumpi\n      tag_225\n      tag_208\n      jump\t// in\n    tag_225:\n      eq\n        /* \"contracts/DashBoard.sol\":7938:8174  _condition == AlertCondition.GREATER_THAN ||    //1    ... */\n    tag_221:\n        /* \"contracts/DashBoard.sol\":7938:8242  _condition == AlertCondition.GREATER_THAN ||    //1    ... */\n      dup1\n      tag_226\n      jumpi\n      pop\n        /* \"contracts/DashBoard.sol\":8216:8242  AlertCondition.CROSSING_UP */\n      0x05\n        /* \"contracts/DashBoard.sol\":8202:8212  _condition */\n      dup5\n        /* \"contracts/DashBoard.sol\":8202:8242  _condition == AlertCondition.CROSSING_UP */\n      0x0c\n      dup2\n      gt\n      iszero\n      tag_230\n      jumpi\n      tag_230\n      tag_208\n      jump\t// in\n    tag_230:\n      eq\n        /* \"contracts/DashBoard.sol\":7938:8242  _condition == AlertCondition.GREATER_THAN ||    //1    ... */\n    tag_226:\n        /* \"contracts/DashBoard.sol\":7938:8309  _condition == AlertCondition.GREATER_THAN ||    //1    ... */\n      dup1\n      tag_231\n      jumpi\n      pop\n        /* \"contracts/DashBoard.sol\":8281:8309  AlertCondition.CROSSING_DOWN */\n      0x06\n        /* \"contracts/DashBoard.sol\":8267:8277  _condition */\n      dup5\n        /* \"contracts/DashBoard.sol\":8267:8309  _condition == AlertCondition.CROSSING_DOWN */\n      0x0c\n      dup2\n      gt\n      iszero\n      tag_235\n      jumpi\n      tag_235\n      tag_208\n      jump\t// in\n    tag_235:\n      eq\n        /* \"contracts/DashBoard.sol\":7938:8309  _condition == AlertCondition.GREATER_THAN ||    //1    ... */\n    tag_231:\n        /* \"contracts/DashBoard.sol\":7938:8370  _condition == AlertCondition.GREATER_THAN ||    //1    ... */\n      dup1\n      tag_236\n      jumpi\n      pop\n        /* \"contracts/DashBoard.sol\":8346:8370  AlertCondition.MOVING_UP */\n      0x0b\n        /* \"contracts/DashBoard.sol\":8332:8342  _condition */\n      dup5\n        /* \"contracts/DashBoard.sol\":8332:8370  _condition == AlertCondition.MOVING_UP */\n      0x0c\n      dup2\n      gt\n      iszero\n      tag_240\n      jumpi\n      tag_240\n      tag_208\n      jump\t// in\n    tag_240:\n      eq\n        /* \"contracts/DashBoard.sol\":7938:8370  _condition == AlertCondition.GREATER_THAN ||    //1    ... */\n    tag_236:\n        /* \"contracts/DashBoard.sol\":7938:8437  _condition == AlertCondition.GREATER_THAN ||    //1    ... */\n      dup1\n      tag_241\n      jumpi\n      pop\n        /* \"contracts/DashBoard.sol\":8411:8437  AlertCondition.MOVING_DOWN */\n      0x0c\n        /* \"contracts/DashBoard.sol\":8397:8407  _condition */\n      dup5\n        /* \"contracts/DashBoard.sol\":8397:8437  _condition == AlertCondition.MOVING_DOWN */\n      0x0c\n      dup2\n      gt\n      iszero\n      tag_245\n      jumpi\n      tag_245\n      tag_208\n      jump\t// in\n    tag_245:\n      eq\n        /* \"contracts/DashBoard.sol\":7938:8437  _condition == AlertCondition.GREATER_THAN ||    //1    ... */\n    tag_241:\n        /* \"contracts/DashBoard.sol\":7916:8530  require(... */\n      tag_246\n      jumpi\n      mload(0x40)\n      shl(0xe5, 0x461bcd)\n      dup2\n      mstore\n        /* \"#utility.yul\":18442:18444   */\n      0x20\n        /* \"contracts/DashBoard.sol\":7916:8530  require(... */\n      0x04\n      dup3\n      add\n        /* \"#utility.yul\":18424:18445   */\n      mstore\n        /* \"#utility.yul\":18481:18483   */\n      0x37\n        /* \"#utility.yul\":18461:18479   */\n      0x24\n      dup3\n      add\n        /* \"#utility.yul\":18454:18484   */\n      mstore\n        /* \"#utility.yul\":18520:18554   */\n      0x44617368626f6172643a20496e76616c696420636f6e646974696f6e20666f72\n        /* \"#utility.yul\":18500:18518   */\n      0x44\n      dup3\n      add\n        /* \"#utility.yul\":18493:18555   */\n      mstore\n        /* \"#utility.yul\":18591:18616   */\n      0x2073696e676c65207468726573686f6c6420616c657274000000000000000000\n        /* \"#utility.yul\":18571:18589   */\n      0x64\n      dup3\n      add\n        /* \"#utility.yul\":18564:18617   */\n      mstore\n        /* \"#utility.yul\":18634:18653   */\n      0x84\n      add\n        /* \"contracts/DashBoard.sol\":7916:8530  require(... */\n    tag_247:\n      mload(0x40)\n      dup1\n      swap2\n      sub\n      swap1\n      revert\n    tag_246:\n        /* \"contracts/DashBoard.sol\":8562:8573  nextAlertId */\n      0x19\n        /* \"contracts/DashBoard.sol\":8562:8575  nextAlertId++ */\n      dup1\n      sload\n        /* \"contracts/DashBoard.sol\":8541:8559  uint256 newAlertId */\n      0x00\n      swap2\n      dup3\n        /* \"contracts/DashBoard.sol\":8562:8575  nextAlertId++ */\n      tag_249\n      dup4\n      tag_250\n      jump\t// in\n    tag_249:\n      swap2\n      swap1\n      pop\n      sstore\n        /* \"contracts/DashBoard.sol\":8541:8575  uint256 newAlertId = nextAlertId++ */\n      swap1\n      pop\n        /* \"contracts/DashBoard.sol\":8590:8618  NetflowAlert memory newAlert */\n      0x00\n        /* \"contracts/DashBoard.sol\":8621:8935  NetflowAlert({... */\n      mload(0x40)\n      dup1\n      0x0120\n      add\n      0x40\n      mstore\n      dup1\n        /* \"contracts/DashBoard.sol\":8653:8663  newAlertId */\n      dup4\n        /* \"contracts/DashBoard.sol\":8621:8935  NetflowAlert({... */\n      dup2\n      mstore\n      0x20\n      add\n        /* \"contracts/DashBoard.sol\":8684:8694  msg.sender */\n      caller\n      sub(shl(0xa0, 0x01), 0x01)\n        /* \"contracts/DashBoard.sol\":8621:8935  NetflowAlert({... */\n      and\n      dup2\n      mstore\n      0x20\n      add\n        /* \"contracts/DashBoard.sol\":8720:8730  _condition */\n      dup8\n        /* \"contracts/DashBoard.sol\":8621:8935  NetflowAlert({... */\n      0x0c\n      dup2\n      gt\n      iszero\n      tag_252\n      jumpi\n      tag_252\n      tag_208\n      jump\t// in\n    tag_252:\n      dup2\n      mstore\n      0x20\n      add\n        /* \"contracts/DashBoard.sol\":8757:8768  _threshold1 */\n      dup7\n        /* \"contracts/DashBoard.sol\":8621:8935  NetflowAlert({... */\n      dup2\n      mstore\n      0x20\n      add\n        /* \"contracts/DashBoard.sol\":8795:8796  0 */\n      0x00\n        /* \"contracts/DashBoard.sol\":8621:8935  NetflowAlert({... */\n      dup2\n      mstore\n      0x20\n      add\n        /* \"contracts/DashBoard.sol\":8853:8857  true */\n      0x01\n        /* \"contracts/DashBoard.sol\":8621:8935  NetflowAlert({... */\n      iszero\n      iszero\n      dup2\n      mstore\n      0x20\n      add\n        /* \"contracts/DashBoard.sol\":8885:8890  false */\n      0x00\n        /* \"contracts/DashBoard.sol\":8621:8935  NetflowAlert({... */\n      iszero\n      iszero\n      dup2\n      mstore\n      0x20\n      add\n        /* \"contracts/DashBoard.sol\":8922:8923  0 */\n      0x00\n        /* \"contracts/DashBoard.sol\":8621:8935  NetflowAlert({... */\n      dup2\n      mstore\n      0x20\n      add\n        /* \"contracts/DashBoard.sol\":8820:8828  _message */\n      dup6\n      dup6\n        /* \"contracts/DashBoard.sol\":8621:8935  NetflowAlert({... */\n      dup1\n      dup1\n      0x1f\n      add\n      0x20\n      dup1\n      swap2\n      div\n      mul\n      0x20\n      add\n      mload(0x40)\n      swap1\n      dup2\n      add\n      0x40\n      mstore\n      dup1\n      swap4\n      swap3\n      swap2\n      swap1\n      dup2\n      dup2\n      mstore\n      0x20\n      add\n      dup4\n      dup4\n      dup1\n      dup3\n      dup5\n      calldatacopy\n      0x00\n      swap3\n      add\n      dup3\n      swap1\n      mstore\n      pop\n      swap4\n      swap1\n      swap5\n      mstore\n      pop\n      pop\n        /* \"contracts/DashBoard.sol\":8950:8966  userNetflowAlert */\n      0x12\n        /* \"contracts/DashBoard.sol\":8950:8969  userNetflowAlert.id */\n      sload\n        /* \"contracts/DashBoard.sol\":8590:8935  NetflowAlert memory newAlert = NetflowAlert({... */\n      swap3\n      swap4\n      pop\n        /* \"contracts/DashBoard.sol\":8950:8974  userNetflowAlert.id == 0 */\n      swap2\n      swap1\n      swap2\n      sub\n      swap1\n      pop\n        /* \"contracts/DashBoard.sol\":8946:9039  if (userNetflowAlert.id == 0) {... */\n      tag_253\n      jumpi\n        /* \"contracts/DashBoard.sol\":9014:9025  nextAlertId */\n      0x19\n        /* \"contracts/DashBoard.sol\":9014:9027  nextAlertId++ */\n      dup1\n      sload\n      swap1\n        /* \"contracts/DashBoard.sol\":9014:9025  nextAlertId */\n      0x00\n        /* \"contracts/DashBoard.sol\":9014:9027  nextAlertId++ */\n      tag_254\n      dup4\n      tag_250\n      jump\t// in\n    tag_254:\n      swap1\n      swap2\n      sstore\n      pop\n        /* \"contracts/DashBoard.sol\":8992:9008  userNetflowAlert */\n      0x12\n        /* \"contracts/DashBoard.sol\":8992:9027  userNetflowAlert.id = nextAlertId++ */\n      sstore\n        /* \"contracts/DashBoard.sol\":8946:9039  if (userNetflowAlert.id == 0) {... */\n    tag_253:\n        /* \"contracts/DashBoard.sol\":9049:9070  userNetflowAlert.user */\n      0x13\n        /* \"contracts/DashBoard.sol\":9049:9083  userNetflowAlert.user = msg.sender */\n      dup1\n      sload\n        /* \"contracts/DashBoard.sol\":9073:9083  msg.sender */\n      caller\n      not(sub(shl(0xa0, 0x01), 0x01))\n        /* \"contracts/DashBoard.sol\":9049:9083  userNetflowAlert.user = msg.sender */\n      dup3\n      and\n      dup2\n      or\n      dup4\n      sstore\n        /* \"contracts/DashBoard.sol\":9124:9134  _condition */\n      dup9\n      swap3\n        /* \"contracts/DashBoard.sol\":9049:9070  userNetflowAlert.user */\n      swap2\n      not(sub(shl(0xa8, 0x01), 0x01))\n        /* \"contracts/DashBoard.sol\":9095:9134  userNetflowAlert.condition = _condition */\n      and\n      not(shl(0xa0, 0xff))\n      swap1\n      swap2\n      and\n      or\n      shl(0xa0, 0x01)\n        /* \"contracts/DashBoard.sol\":9124:9134  _condition */\n      dup4\n        /* \"contracts/DashBoard.sol\":9095:9134  userNetflowAlert.condition = _condition */\n      0x0c\n      dup2\n      gt\n      iszero\n      tag_256\n      jumpi\n      tag_256\n      tag_208\n      jump\t// in\n    tag_256:\n      mul\n      or\n      swap1\n      sstore\n      pop\n        /* \"contracts/DashBoard.sol\":9145:9172  userNetflowAlert.threshold1 */\n      0x14\n        /* \"contracts/DashBoard.sol\":9145:9186  userNetflowAlert.threshold1 = _threshold1 */\n      dup6\n      swap1\n      sstore\n        /* \"contracts/DashBoard.sol\":9227:9228  0 */\n      0x00\n        /* \"contracts/DashBoard.sol\":9197:9224  userNetflowAlert.threshold2 */\n      0x15\n        /* \"contracts/DashBoard.sol\":9197:9228  userNetflowAlert.threshold2 = 0 */\n      sstore\n        /* \"contracts/DashBoard.sol\":9240:9264  userNetflowAlert.message */\n      0x18\n        /* \"contracts/DashBoard.sol\":9240:9275  userNetflowAlert.message = _message */\n      tag_257\n        /* \"contracts/DashBoard.sol\":9267:9275  _message */\n      dup5\n      dup7\n        /* \"contracts/DashBoard.sol\":9240:9264  userNetflowAlert.message */\n      dup4\n        /* \"contracts/DashBoard.sol\":9240:9275  userNetflowAlert.message = _message */\n      tag_258\n      jump\t// in\n    tag_257:\n      pop\n        /* \"contracts/DashBoard.sol\":9286:9311  userNetflowAlert.isActive */\n      0x16\n        /* \"contracts/DashBoard.sol\":9286:9318  userNetflowAlert.isActive = true */\n      dup1\n      sload\n      not(0xffff)\n        /* \"contracts/DashBoard.sol\":9329:9365  userNetflowAlert.isTriggered = false */\n      and\n        /* \"contracts/DashBoard.sol\":9314:9318  true */\n      0x01\n        /* \"contracts/DashBoard.sol\":9329:9365  userNetflowAlert.isTriggered = false */\n      swap1\n      dup2\n      or\n      swap1\n      swap2\n      sstore\n        /* \"contracts/DashBoard.sol\":9286:9311  userNetflowAlert.isActive */\n      0x00\n        /* \"contracts/DashBoard.sol\":9376:9408  userNetflowAlert.lastTriggeredAt */\n      0x17\n        /* \"contracts/DashBoard.sol\":9376:9412  userNetflowAlert.lastTriggeredAt = 0 */\n      dup2\n      swap1\n      sstore\n        /* \"contracts/DashBoard.sol\":9425:9442  userNetflowAlerts */\n      0x03\n        /* \"contracts/DashBoard.sol\":9425:9457  userNetflowAlerts.push(newAlert) */\n      dup1\n      sload\n      swap3\n      dup4\n      add\n      dup2\n      sstore\n      swap1\n      mstore\n      dup2\n      mload\n      0x07\n      swap1\n      swap2\n      mul\n      0xc2575a0e9e593c00f959f8c92f12db2869c3395a3b0502d05e2516446f71f85b\n      dup2\n      add\n      swap2\n      dup3\n      sstore\n      0x20\n      dup4\n      add\n      mload\n      0xc2575a0e9e593c00f959f8c92f12db2869c3395a3b0502d05e2516446f71f85c\n      swap1\n      swap2\n      add\n      dup1\n      sload\n      sub(shl(0xa0, 0x01), 0x01)\n      swap1\n      swap3\n      and\n      not(sub(shl(0xa0, 0x01), 0x01))\n      dup4\n      and\n      dup2\n      or\n      dup3\n      sstore\n      0x40\n      dup6\n      add\n      mload\n        /* \"contracts/DashBoard.sol\":9448:9456  newAlert */\n      dup6\n      swap5\n        /* \"contracts/DashBoard.sol\":9425:9457  userNetflowAlerts.push(newAlert) */\n      swap4\n      swap1\n      swap3\n      swap2\n      not(sub(shl(0xa8, 0x01), 0x01))\n      swap1\n      swap2\n      and\n      or\n      shl(0xa0, 0x01)\n      dup4\n      0x0c\n      dup2\n      gt\n      iszero\n      tag_261\n      jumpi\n      tag_261\n      tag_208\n      jump\t// in\n    tag_261:\n      mul\n      or\n      swap1\n      sstore\n      pop\n      0x60\n      dup3\n      add\n      mload\n      0x02\n      dup3\n      add\n      sstore\n      0x80\n      dup3\n      add\n      mload\n      0x03\n      dup3\n      add\n      sstore\n      0xa0\n      dup3\n      add\n      mload\n      0x04\n      dup3\n      add\n      dup1\n      sload\n      0xc0\n      dup6\n      add\n      mload\n      not(0xffff)\n      swap1\n      swap2\n      and\n      swap3\n      iszero\n      iszero\n      not(0xff00)\n      and\n      swap3\n      swap1\n      swap3\n      or\n      0x0100\n      swap3\n      iszero\n      iszero\n      dup4\n      mul\n      or\n      swap1\n      sstore\n      0xe0\n      dup4\n      add\n      mload\n      0x05\n      dup4\n      add\n      sstore\n      dup3\n      add\n      mload\n      0x06\n      dup3\n      add\n      swap1\n      tag_262\n      swap1\n      dup3\n      tag_263\n      jump\t// in\n    tag_262:\n      pop\n      pop\n        /* \"contracts/DashBoard.sol\":9489:9505  userNetflowAlert */\n      0x12\n        /* \"contracts/DashBoard.sol\":9489:9508  userNetflowAlert.id */\n      sload\n        /* \"contracts/DashBoard.sol\":9473:9559  AlertConfigured(userNetflowAlert.id, msg.sender, _condition, _threshold1, 0, _message) */\n      mload(0x40)\n        /* \"contracts/DashBoard.sol\":9510:9520  msg.sender */\n      caller\n      swap3\n      pop\n        /* \"contracts/DashBoard.sol\":9473:9559  AlertConfigured(userNetflowAlert.id, msg.sender, _condition, _threshold1, 0, _message) */\n      0x778334af3114ade8967680fbf1e80e8e34dbe95416246aaef26907ae22cdd358\n      swap1\n      tag_264\n      swap1\n        /* \"contracts/DashBoard.sol\":9522:9532  _condition */\n      dup11\n      swap1\n        /* \"contracts/DashBoard.sol\":9534:9545  _threshold1 */\n      dup11\n      swap1\n        /* \"contracts/DashBoard.sol\":9489:9508  userNetflowAlert.id */\n      0x00\n      swap1\n        /* \"contracts/DashBoard.sol\":9550:9558  _message */\n      dup12\n      swap1\n      dup12\n      swap1\n        /* \"contracts/DashBoard.sol\":9473:9559  AlertConfigured(userNetflowAlert.id, msg.sender, _condition, _threshold1, 0, _message) */\n      tag_265\n      jump\t// in\n    tag_264:\n      mload(0x40)\n      dup1\n      swap2\n      sub\n      swap1\n      log3\n        /* \"contracts/DashBoard.sol\":7905:9567  {... */\n      pop\n      pop\n        /* \"contracts/DashBoard.sol\":7741:9567  function SingleThresholdNetflowAlert( ... */\n      pop\n      pop\n      pop\n      pop\n      jump\t// out\n        /* \"contracts/DashBoard.sol\":15148:15435  function activateAlert() external onlyOwner {... */\n    tag_75:\n        /* \"@openzeppelin/contracts/access/Ownable.sol\":1531:1544  _checkOwner() */\n      tag_267\n        /* \"@openzeppelin/contracts/access/Ownable.sol\":1531:1542  _checkOwner */\n      tag_204\n        /* \"@openzeppelin/contracts/access/Ownable.sol\":1531:1544  _checkOwner() */\n      jump\t// in\n    tag_267:\n        /* \"contracts/DashBoard.sol\":15207:15223  userNetflowAlert */\n      0x12\n        /* \"contracts/DashBoard.sol\":15207:15226  userNetflowAlert.id */\n      sload\n        /* \"contracts/DashBoard.sol\":15207:15231  userNetflowAlert.id != 0 */\n      iszero\n      dup1\n      iszero\n      swap1\n        /* \"contracts/DashBoard.sol\":15207:15261  userNetflowAlert.id != 0 && !userNetflowAlert.isActive */\n      tag_269\n      jumpi\n      pop\n        /* \"contracts/DashBoard.sol\":15236:15261  userNetflowAlert.isActive */\n      and(0xff, sload(0x16))\n        /* \"contracts/DashBoard.sol\":15235:15261  !userNetflowAlert.isActive */\n      iszero\n        /* \"contracts/DashBoard.sol\":15207:15261  userNetflowAlert.id != 0 && !userNetflowAlert.isActive */\n    tag_269:\n        /* \"contracts/DashBoard.sol\":15204:15428  if(userNetflowAlert.id != 0 && !userNetflowAlert.isActive){... */\n      iszero\n      tag_270\n      jumpi\n        /* \"contracts/DashBoard.sol\":15277:15302  userNetflowAlert.isActive */\n      0x16\n        /* \"contracts/DashBoard.sol\":15277:15309  userNetflowAlert.isActive = true */\n      dup1\n      sload\n      not(0xffff)\n        /* \"contracts/DashBoard.sol\":15324:15360  userNetflowAlert.isTriggered = false */\n      and\n        /* \"contracts/DashBoard.sol\":15305:15309  true */\n      0x01\n        /* \"contracts/DashBoard.sol\":15324:15360  userNetflowAlert.isTriggered = false */\n      or\n      swap1\n      sstore\n        /* \"contracts/DashBoard.sol\":15277:15293  userNetflowAlert */\n      0x12\n        /* \"contracts/DashBoard.sol\":15396:15415  userNetflowAlert.id */\n      sload\n        /* \"contracts/DashBoard.sol\":15381:15416  AlertActivated(userNetflowAlert.id) */\n      mload(0x40)\n      0x5b2a724a870cf7fe2c83bd903795d3ba6163ee1091a97587edf93ff866e22965\n      swap1\n        /* \"contracts/DashBoard.sol\":15277:15302  userNetflowAlert.isActive */\n      0x00\n      swap1\n        /* \"contracts/DashBoard.sol\":15381:15416  AlertActivated(userNetflowAlert.id) */\n      log2\n        /* \"contracts/DashBoard.sol\":15204:15428  if(userNetflowAlert.id != 0 && !userNetflowAlert.isActive){... */\n    tag_270:\n        /* \"contracts/DashBoard.sol\":15148:15435  function activateAlert() external onlyOwner {... */\n      jump\t// out\n        /* \"contracts/DashBoard.sol\":15931:16041  function getAllNarrativeKeys() external view returns (string[] memory) {... */\n    tag_77:\n        /* \"contracts/DashBoard.sol\":15985:16000  string[] memory */\n      0x60\n        /* \"contracts/DashBoard.sol\":16020:16033  narrativeKeys */\n      0x0c\n        /* \"contracts/DashBoard.sol\":16013:16033  return narrativeKeys */\n      dup1\n      sload\n      dup1\n      0x20\n      mul\n      0x20\n      add\n      mload(0x40)\n      swap1\n      dup2\n      add\n      0x40\n      mstore\n      dup1\n      swap3\n      swap2\n      swap1\n      dup2\n      dup2\n      mstore\n      0x20\n      add\n      0x00\n      swap1\n    tag_272:\n      dup3\n      dup3\n      lt\n      iszero\n      tag_273\n      jumpi\n      dup4\n      dup3\n      swap1\n      0x00\n      mstore\n      keccak256(0x00, 0x20)\n      add\n      dup1\n      sload\n      tag_275\n      swap1\n      tag_183\n      jump\t// in\n    tag_275:\n      dup1\n      0x1f\n      add\n      0x20\n      dup1\n      swap2\n      div\n      mul\n      0x20\n      add\n      mload(0x40)\n      swap1\n      dup2\n      add\n      0x40\n      mstore\n      dup1\n      swap3\n      swap2\n      swap1\n      dup2\n      dup2\n      mstore\n      0x20\n      add\n      dup3\n      dup1\n      sload\n      tag_276\n      swap1\n      tag_183\n      jump\t// in\n    tag_276:\n      dup1\n      iszero\n      tag_277\n      jumpi\n      dup1\n      0x1f\n      lt\n      tag_278\n      jumpi\n      0x0100\n      dup1\n      dup4\n      sload\n      div\n      mul\n      dup4\n      mstore\n      swap2\n      0x20\n      add\n      swap2\n      jump(tag_277)\n    tag_278:\n      dup3\n      add\n      swap2\n      swap1\n      0x00\n      mstore\n      keccak256(0x00, 0x20)\n      swap1\n    tag_279:\n      dup2\n      sload\n      dup2\n      mstore\n      swap1\n      0x01\n      add\n      swap1\n      0x20\n      add\n      dup1\n      dup4\n      gt\n      tag_279\n      jumpi\n      dup3\n      swap1\n      sub\n      0x1f\n      and\n      dup3\n      add\n      swap2\n    tag_277:\n      pop\n      pop\n      pop\n      pop\n      pop\n      dup2\n      mstore\n      0x20\n      add\n      swap1\n      0x01\n      add\n      swap1\n      jump(tag_272)\n    tag_273:\n      pop\n      pop\n      pop\n      pop\n      swap1\n      pop\n        /* \"contracts/DashBoard.sol\":15931:16041  function getAllNarrativeKeys() external view returns (string[] memory) {... */\n      swap1\n      jump\t// out\n        /* \"contracts/DashBoard.sol\":758:810  AssetPerformanceInfo[] public topOutperformingAssets */\n    tag_82:\n      0x0e\n      dup2\n      dup2\n      sload\n      dup2\n      lt\n      tag_280\n      jumpi\n      0x00\n      dup1\n      revert\n    tag_280:\n      swap1\n      0x00\n      mstore\n      keccak256(0x00, 0x20)\n      swap1\n      0x05\n      mul\n      add\n      0x00\n      swap2\n      pop\n      swap1\n      pop\n      dup1\n      0x00\n      add\n      dup1\n      sload\n      tag_282\n      swap1\n      tag_183\n      jump\t// in\n    tag_282:\n      dup1\n      0x1f\n      add\n      0x20\n      dup1\n      swap2\n      div\n      mul\n      0x20\n      add\n      mload(0x40)\n      swap1\n      dup2\n      add\n      0x40\n      mstore\n      dup1\n      swap3\n      swap2\n      swap1\n      dup2\n      dup2\n      mstore\n      0x20\n      add\n      dup3\n      dup1\n      sload\n      tag_283\n      swap1\n      tag_183\n      jump\t// in\n    tag_283:\n      dup1\n      iszero\n      tag_284\n      jumpi\n      dup1\n      0x1f\n      lt\n      tag_285\n      jumpi\n      0x0100\n      dup1\n      dup4\n      sload\n      div\n      mul\n      dup4\n      mstore\n      swap2\n      0x20\n      add\n      swap2\n      jump(tag_284)\n    tag_285:\n      dup3\n      add\n      swap2\n      swap1\n      0x00\n      mstore\n      keccak256(0x00, 0x20)\n      swap1\n    tag_286:\n      dup2\n      sload\n      dup2\n      mstore\n      swap1\n      0x01\n      add\n      swap1\n      0x20\n      add\n      dup1\n      dup4\n      gt\n      tag_286\n      jumpi\n      dup3\n      swap1\n      sub\n      0x1f\n      and\n      dup3\n      add\n      swap2\n    tag_284:\n      pop\n      pop\n      pop\n      pop\n      0x01\n      dup4\n      add\n      sload\n      0x02\n      dup5\n      add\n      sload\n      0x03\n      dup6\n      add\n      sload\n      0x04\n      swap1\n      swap6\n      add\n      sload\n      swap4\n      swap5\n      sub(shl(0xa0, 0x01), 0x01)\n      swap1\n      swap3\n      and\n      swap4\n      swap1\n      swap3\n      pop\n      dup6\n      jump\t// out\n        /* \"contracts/DashBoard.sol\":3663:4382  function updateStablecoinOverallNetflow(... */\n    tag_88:\n        /* \"@openzeppelin/contracts/access/Ownable.sol\":1531:1544  _checkOwner() */\n      tag_288\n        /* \"@openzeppelin/contracts/access/Ownable.sol\":1531:1542  _checkOwner */\n      tag_204\n        /* \"@openzeppelin/contracts/access/Ownable.sol\":1531:1544  _checkOwner() */\n      jump\t// in\n    tag_288:\n        /* \"contracts/DashBoard.sol\":3850:3882  stablecoinExchangeOverallNetflow */\n      0x06\n        /* \"contracts/DashBoard.sol\":3850:3914  stablecoinExchangeOverallNetflow.dailyNetflowSum = _dailyNetflow */\n      dup5\n      swap1\n      sstore\n        /* \"contracts/DashBoard.sol\":3925:3974  stablecoinExchangeOverallNetflow.weeklyNetflowSum */\n      0x07\n        /* \"contracts/DashBoard.sol\":3925:3991  stablecoinExchangeOverallNetflow.weeklyNetflowSum = _weeklyNetflow */\n      dup4\n      swap1\n      sstore\n        /* \"contracts/DashBoard.sol\":4002:4052  stablecoinExchangeOverallNetflow.monthlyNetflowSum */\n      0x08\n        /* \"contracts/DashBoard.sol\":4002:4070  stablecoinExchangeOverallNetflow.monthlyNetflowSum = _monthlyNetflow */\n      dup3\n      swap1\n      sstore\n        /* \"contracts/DashBoard.sol\":4081:4136  stablecoinExchangeOverallNetflow.marketCapChangePercent */\n      0x09\n        /* \"contracts/DashBoard.sol\":4081:4162  stablecoinExchangeOverallNetflow.marketCapChangePercent = _marketCapChangePercent */\n      dup2\n      swap1\n      sstore\n        /* \"contracts/DashBoard.sol\":4222:4237  block.timestamp */\n      timestamp\n        /* \"contracts/DashBoard.sol\":4173:4219  stablecoinExchangeOverallNetflow.lastUpdatedAt */\n      0x0a\n        /* \"contracts/DashBoard.sol\":4173:4237  stablecoinExchangeOverallNetflow.lastUpdatedAt = block.timestamp */\n      dup2\n      swap1\n      sstore\n        /* \"contracts/DashBoard.sol\":4253:4374  StablecoinOverallNetflowUpdated(_dailyNetflow, _weeklyNetflow, _monthlyNetflow, _marketCapChangePercent, block.timestamp) */\n      0x40\n      dup1\n      mload\n        /* \"#utility.yul\":11143:11168   */\n      dup7\n      dup2\n      mstore\n        /* \"#utility.yul\":11199:11201   */\n      0x20\n        /* \"#utility.yul\":11184:11202   */\n      dup2\n      add\n        /* \"#utility.yul\":11177:11211   */\n      dup7\n      swap1\n      mstore\n        /* \"#utility.yul\":11227:11245   */\n      dup1\n      dup3\n      add\n        /* \"#utility.yul\":11220:11254   */\n      dup6\n      swap1\n      mstore\n        /* \"#utility.yul\":11285:11287   */\n      0x60\n        /* \"#utility.yul\":11270:11288   */\n      dup2\n      add\n        /* \"#utility.yul\":11263:11297   */\n      dup5\n      swap1\n      mstore\n        /* \"#utility.yul\":11328:11331   */\n      0x80\n        /* \"#utility.yul\":11313:11332   */\n      dup2\n      add\n        /* \"#utility.yul\":11306:11341   */\n      swap3\n      swap1\n      swap3\n      mstore\n        /* \"contracts/DashBoard.sol\":4253:4374  StablecoinOverallNetflowUpdated(_dailyNetflow, _weeklyNetflow, _monthlyNetflow, _marketCapChangePercent, block.timestamp) */\n      mload\n      0x08ecd0c5f0d0f300fe6241546a3cc8c4f4dc6f4573ed292c6ffbd86a83353035\n      swap2\n      dup2\n      swap1\n      sub\n        /* \"#utility.yul\":11130:11133   */\n      0xa0\n        /* \"contracts/DashBoard.sol\":4253:4374  StablecoinOverallNetflowUpdated(_dailyNetflow, _weeklyNetflow, _monthlyNetflow, _marketCapChangePercent, block.timestamp) */\n      add\n      swap1\n      log1\n        /* \"contracts/DashBoard.sol\":3663:4382  function updateStablecoinOverallNetflow(... */\n      pop\n      pop\n      pop\n      pop\n      jump\t// out\n        /* \"contracts/DashBoard.sol\":4390:5284  function addOrUpdateNarrativePerformance(string calldata _narrativeName, int256 _performancePercent) external onlyOwner {... */\n    tag_92:\n        /* \"@openzeppelin/contracts/access/Ownable.sol\":1531:1544  _checkOwner() */\n      tag_292\n        /* \"@openzeppelin/contracts/access/Ownable.sol\":1531:1542  _checkOwner */\n      tag_204\n        /* \"@openzeppelin/contracts/access/Ownable.sol\":1531:1544  _checkOwner() */\n      jump\t// in\n    tag_292:\n        /* \"contracts/DashBoard.sol\":4521:4563  NarrativePerformanceInfo storage narrative */\n      0x00\n        /* \"contracts/DashBoard.sol\":4566:4587  narrativePerformances */\n      0x0b\n        /* \"contracts/DashBoard.sol\":4588:4602  _narrativeName */\n      dup5\n      dup5\n        /* \"contracts/DashBoard.sol\":4566:4603  narrativePerformances[_narrativeName] */\n      mload(0x40)\n      tag_294\n      swap3\n      swap2\n      swap1\n      tag_295\n      jump\t// in\n    tag_294:\n      swap1\n      dup2\n      mstore\n      mload(0x40)\n      swap1\n      dup2\n      swap1\n      sub\n      0x20\n      add\n      swap1\n      keccak256\n      swap1\n      pop\n        /* \"contracts/DashBoard.sol\":4614:4624  bool found */\n      0x00\n      dup1\n        /* \"contracts/DashBoard.sol\":4643:4886  for (uint i = 0; i < narrativeKeys.length; i++) {... */\n    tag_296:\n        /* \"contracts/DashBoard.sol\":4664:4677  narrativeKeys */\n      0x0c\n        /* \"contracts/DashBoard.sol\":4664:4684  narrativeKeys.length */\n      sload\n        /* \"contracts/DashBoard.sol\":4660:4684  i < narrativeKeys.length */\n      dup2\n      lt\n        /* \"contracts/DashBoard.sol\":4643:4886  for (uint i = 0; i < narrativeKeys.length; i++) {... */\n      iszero\n      tag_297\n      jumpi\n        /* \"contracts/DashBoard.sol\":4786:4800  _narrativeName */\n      dup6\n      dup6\n        /* \"contracts/DashBoard.sol\":4769:4801  abi.encodePacked(_narrativeName) */\n      add(0x20, mload(0x40))\n      tag_299\n      swap3\n      swap2\n      swap1\n      tag_295\n      jump\t// in\n    tag_299:\n      mload(0x40)\n      0x20\n      dup2\n      dup4\n      sub\n      sub\n      dup2\n      mstore\n      swap1\n      0x40\n      mstore\n        /* \"contracts/DashBoard.sol\":4759:4802  keccak256(abi.encodePacked(_narrativeName)) */\n      dup1\n      mload\n      swap1\n      0x20\n      add\n      keccak256\n        /* \"contracts/DashBoard.sol\":4737:4750  narrativeKeys */\n      0x0c\n        /* \"contracts/DashBoard.sol\":4751:4752  i */\n      dup3\n        /* \"contracts/DashBoard.sol\":4737:4753  narrativeKeys[i] */\n      dup2\n      sload\n      dup2\n      lt\n      tag_301\n      jumpi\n      tag_301\n      tag_302\n      jump\t// in\n    tag_301:\n      swap1\n      0x00\n      mstore\n      keccak256(0x00, 0x20)\n      add\n        /* \"contracts/DashBoard.sol\":4720:4754  abi.encodePacked(narrativeKeys[i]) */\n      add(0x20, mload(0x40))\n      tag_304\n      swap2\n      swap1\n      tag_305\n      jump\t// in\n    tag_304:\n      mload(0x40)\n      0x20\n      dup2\n      dup4\n      sub\n      sub\n      dup2\n      mstore\n      swap1\n      0x40\n      mstore\n        /* \"contracts/DashBoard.sol\":4710:4755  keccak256(abi.encodePacked(narrativeKeys[i])) */\n      dup1\n      mload\n      swap1\n      0x20\n      add\n      keccak256\n        /* \"contracts/DashBoard.sol\":4710:4802  keccak256(abi.encodePacked(narrativeKeys[i])) == keccak256(abi.encodePacked(_narrativeName)) */\n      sub\n        /* \"contracts/DashBoard.sol\":4706:4875  if (keccak256(abi.encodePacked(narrativeKeys[i])) == keccak256(abi.encodePacked(_narrativeName))) {... */\n      tag_306\n      jumpi\n        /* \"contracts/DashBoard.sol\":4831:4835  true */\n      0x01\n        /* \"contracts/DashBoard.sol\":4823:4835  found = true */\n      swap2\n      pop\n        /* \"contracts/DashBoard.sol\":4854:4859  break */\n      jump(tag_297)\n        /* \"contracts/DashBoard.sol\":4706:4875  if (keccak256(abi.encodePacked(narrativeKeys[i])) == keccak256(abi.encodePacked(_narrativeName))) {... */\n    tag_306:\n        /* \"contracts/DashBoard.sol\":4686:4689  i++ */\n      0x01\n      add\n        /* \"contracts/DashBoard.sol\":4643:4886  for (uint i = 0; i < narrativeKeys.length; i++) {... */\n      jump(tag_296)\n    tag_297:\n      pop\n        /* \"contracts/DashBoard.sol\":4901:4906  found */\n      dup1\n        /* \"contracts/DashBoard.sol\":4896:5022  if (!found) {... */\n      tag_307\n      jumpi\n        /* \"contracts/DashBoard.sol\":4923:4936  narrativeKeys */\n      0x0c\n        /* \"contracts/DashBoard.sol\":4923:4957  narrativeKeys.push(_narrativeName) */\n      dup1\n      sload\n      0x01\n      dup2\n      add\n      dup3\n      sstore\n      0x00\n      swap2\n      swap1\n      swap2\n      mstore\n      0xdf6966c971051c3d54ec59162606531493a51404a002842f56009d7e5cf4a8c7\n      add\n      tag_309\n        /* \"contracts/DashBoard.sol\":4942:4956  _narrativeName */\n      dup6\n      dup8\n        /* \"contracts/DashBoard.sol\":4923:4957  narrativeKeys.push(_narrativeName) */\n      dup4\n      tag_258\n      jump\t// in\n    tag_309:\n      pop\n        /* \"contracts/DashBoard.sol\":4995:5009  _narrativeName */\n      dup5\n      dup5\n        /* \"contracts/DashBoard.sol\":4977:5010  NarrativeKeyAdded(_narrativeName) */\n      mload(0x40)\n      tag_310\n      swap3\n      swap2\n      swap1\n      tag_295\n      jump\t// in\n    tag_310:\n      mload(0x40)\n      swap1\n      dup2\n      swap1\n      sub\n      dup2\n      keccak256\n      swap1\n      0x81c6dad8fc2e53ed05f364a56d3df0f0836727eeca7d52c4c25f995362a02744\n      swap1\n      0x00\n      swap1\n      log2\n        /* \"contracts/DashBoard.sol\":4896:5022  if (!found) {... */\n    tag_307:\n        /* \"contracts/DashBoard.sol\":5032:5041  narrative */\n      dup2\n        /* \"contracts/DashBoard.sol\":5032:5063  narrative.name = _narrativeName */\n      tag_311\n        /* \"contracts/DashBoard.sol\":5049:5063  _narrativeName */\n      dup6\n      dup8\n        /* \"contracts/DashBoard.sol\":5032:5041  narrative */\n      dup4\n        /* \"contracts/DashBoard.sol\":5032:5063  narrative.name = _narrativeName */\n      tag_258\n      jump\t// in\n    tag_311:\n      pop\n        /* \"contracts/DashBoard.sol\":5074:5105  narrative.performancePercent24h */\n      0x01\n      dup3\n      add\n        /* \"contracts/DashBoard.sol\":5074:5127  narrative.performancePercent24h = _performancePercent */\n      dup4\n      swap1\n      sstore\n        /* \"contracts/DashBoard.sol\":5164:5179  block.timestamp */\n      timestamp\n        /* \"contracts/DashBoard.sol\":5138:5161  narrative.lastUpdatedAt */\n      0x02\n      dup4\n      add\n        /* \"contracts/DashBoard.sol\":5138:5179  narrative.lastUpdatedAt = block.timestamp */\n      sstore\n        /* \"contracts/DashBoard.sol\":5195:5276  NarrativePerformanceUpdated(_narrativeName, _performancePercent, block.timestamp) */\n      mload(0x40)\n      tag_312\n      swap1\n        /* \"contracts/DashBoard.sol\":5223:5237  _narrativeName */\n      dup7\n      swap1\n      dup7\n      swap1\n        /* \"contracts/DashBoard.sol\":5195:5276  NarrativePerformanceUpdated(_narrativeName, _performancePercent, block.timestamp) */\n      tag_295\n      jump\t// in\n    tag_312:\n      0x40\n      dup1\n      mload\n      swap2\n      dup3\n      swap1\n      sub\n      dup3\n      keccak256\n        /* \"#utility.yul\":17776:17801   */\n      dup6\n      dup4\n      mstore\n        /* \"contracts/DashBoard.sol\":5260:5275  block.timestamp */\n      timestamp\n        /* \"#utility.yul\":17832:17834   */\n      0x20\n        /* \"#utility.yul\":17817:17835   */\n      dup5\n      add\n        /* \"#utility.yul\":17810:17844   */\n      mstore\n        /* \"contracts/DashBoard.sol\":5195:5276  NarrativePerformanceUpdated(_narrativeName, _performancePercent, block.timestamp) */\n      swap2\n      0x30167b93764fad9e40ce98169f9156f222d6ca60145c01b3509119b8d413ed6f\n      swap2\n        /* \"#utility.yul\":17749:17767   */\n      add\n        /* \"contracts/DashBoard.sol\":5195:5276  NarrativePerformanceUpdated(_narrativeName, _performancePercent, block.timestamp) */\n      mload(0x40)\n      dup1\n      swap2\n      sub\n      swap1\n      log2\n        /* \"contracts/DashBoard.sol\":4510:5284  {... */\n      pop\n      pop\n        /* \"contracts/DashBoard.sol\":4390:5284  function addOrUpdateNarrativePerformance(string calldata _narrativeName, int256 _performancePercent) external onlyOwner {... */\n      pop\n      pop\n      pop\n      jump\t// out\n        /* \"contracts/DashBoard.sol\":15443:15747  function resetAlertTriggerState() external onlyOwner {... */\n    tag_94:\n        /* \"@openzeppelin/contracts/access/Ownable.sol\":1531:1544  _checkOwner() */\n      tag_315\n        /* \"@openzeppelin/contracts/access/Ownable.sol\":1531:1542  _checkOwner */\n      tag_204\n        /* \"@openzeppelin/contracts/access/Ownable.sol\":1531:1544  _checkOwner() */\n      jump\t// in\n    tag_315:\n        /* \"contracts/DashBoard.sol\":15510:15526  userNetflowAlert */\n      0x12\n        /* \"contracts/DashBoard.sol\":15510:15529  userNetflowAlert.id */\n      sload\n        /* \"contracts/DashBoard.sol\":15510:15534  userNetflowAlert.id != 0 */\n      iszero\n      dup1\n      iszero\n      swap1\n        /* \"contracts/DashBoard.sol\":15510:15566  userNetflowAlert.id != 0 && userNetflowAlert.isTriggered */\n      tag_317\n      jumpi\n      pop\n        /* \"contracts/DashBoard.sol\":15538:15566  userNetflowAlert.isTriggered */\n      sload(0x16)\n      0x0100\n      swap1\n      div\n      0xff\n      and\n        /* \"contracts/DashBoard.sol\":15510:15566  userNetflowAlert.id != 0 && userNetflowAlert.isTriggered */\n    tag_317:\n        /* \"contracts/DashBoard.sol\":15507:15740  if(userNetflowAlert.id != 0 && userNetflowAlert.isTriggered) {... */\n      iszero\n      tag_270\n      jumpi\n        /* \"contracts/DashBoard.sol\":15583:15611  userNetflowAlert.isTriggered */\n      0x16\n        /* \"contracts/DashBoard.sol\":15583:15619  userNetflowAlert.isTriggered = false */\n      dup1\n      sload\n      not(0xff00)\n      and\n      swap1\n      sstore\n        /* \"contracts/DashBoard.sol\":15614:15619  false */\n      0x00\n        /* \"contracts/DashBoard.sol\":15634:15666  userNetflowAlert.lastTriggeredAt */\n      0x17\n        /* \"contracts/DashBoard.sol\":15634:15670  userNetflowAlert.lastTriggeredAt = 0 */\n      dup2\n      swap1\n      sstore\n        /* \"contracts/DashBoard.sol\":15583:15599  userNetflowAlert */\n      0x12\n        /* \"contracts/DashBoard.sol\":15708:15727  userNetflowAlert.id */\n      sload\n        /* \"contracts/DashBoard.sol\":15690:15728  AlertTriggerReset(userNetflowAlert.id) */\n      mload(0x40)\n        /* \"contracts/DashBoard.sol\":15708:15727  userNetflowAlert.id */\n      swap1\n      swap2\n        /* \"contracts/DashBoard.sol\":15690:15728  AlertTriggerReset(userNetflowAlert.id) */\n      0xc26f9c3201044d3757e27488cd192595aaf8b176842b2175ef47a4cdf1a53952\n      swap2\n      log2\n        /* \"contracts/DashBoard.sol\":15443:15747  function resetAlertTriggerState() external onlyOwner {... */\n      jump\t// out\n        /* \"@openzeppelin/contracts/access/Ownable.sol\":2293:2394  function renounceOwnership() public virtual onlyOwner {... */\n    tag_100:\n        /* \"@openzeppelin/contracts/access/Ownable.sol\":1531:1544  _checkOwner() */\n      tag_320\n        /* \"@openzeppelin/contracts/access/Ownable.sol\":1531:1542  _checkOwner */\n      tag_204\n        /* \"@openzeppelin/contracts/access/Ownable.sol\":1531:1544  _checkOwner() */\n      jump\t// in\n    tag_320:\n        /* \"@openzeppelin/contracts/access/Ownable.sol\":2357:2387  _transferOwnership(address(0)) */\n      tag_270\n        /* \"@openzeppelin/contracts/access/Ownable.sol\":2384:2385  0 */\n      0x00\n        /* \"@openzeppelin/contracts/access/Ownable.sol\":2357:2375  _transferOwnership */\n      tag_323\n        /* \"@openzeppelin/contracts/access/Ownable.sol\":2357:2387  _transferOwnership(address(0)) */\n      jump\t// in\n        /* \"contracts/DashBoard.sol\":681:751  mapping(string => NarrativeTopTokenInfo) public narrativeTopPerformers */\n    tag_103:\n      dup1\n      mload\n      0x20\n      dup2\n      dup4\n      add\n      dup2\n      add\n      dup1\n      mload\n      0x0d\n      dup3\n      mstore\n      swap3\n      dup3\n      add\n      swap2\n      swap1\n      swap4\n      add\n      keccak256\n      swap2\n      mstore\n      dup1\n      sload\n      dup2\n      swap1\n      tag_324\n      swap1\n      tag_183\n      jump\t// in\n    tag_324:\n      dup1\n      0x1f\n      add\n      0x20\n      dup1\n      swap2\n      div\n      mul\n      0x20\n      add\n      mload(0x40)\n      swap1\n      dup2\n      add\n      0x40\n      mstore\n      dup1\n      swap3\n      swap2\n      swap1\n      dup2\n      dup2\n      mstore\n      0x20\n      add\n      dup3\n      dup1\n      sload\n      tag_325\n      swap1\n      tag_183\n      jump\t// in\n    tag_325:\n      dup1\n      iszero\n      tag_326\n      jumpi\n      dup1\n      0x1f\n      lt\n      tag_327\n      jumpi\n      0x0100\n      dup1\n      dup4\n      sload\n      div\n      mul\n      dup4\n      mstore\n      swap2\n      0x20\n      add\n      swap2\n      jump(tag_326)\n    tag_327:\n      dup3\n      add\n      swap2\n      swap1\n      0x00\n      mstore\n      keccak256(0x00, 0x20)\n      swap1\n    tag_328:\n      dup2\n      sload\n      dup2\n      mstore\n      swap1\n      0x01\n      add\n      swap1\n      0x20\n      add\n      dup1\n      dup4\n      gt\n      tag_328\n      jumpi\n      dup3\n      swap1\n      sub\n      0x1f\n      and\n      dup3\n      add\n      swap2\n    tag_326:\n      pop\n      pop\n      pop\n      pop\n      pop\n      swap1\n      dup1\n      0x01\n      add\n      dup1\n      sload\n      tag_329\n      swap1\n      tag_183\n      jump\t// in\n    tag_329:\n      dup1\n      0x1f\n      add\n      0x20\n      dup1\n      swap2\n      div\n      mul\n      0x20\n      add\n      mload(0x40)\n      swap1\n      dup2\n      add\n      0x40\n      mstore\n      dup1\n      swap3\n      swap2\n      swap1\n      dup2\n      dup2\n      mstore\n      0x20\n      add\n      dup3\n      dup1\n      sload\n      tag_330\n      swap1\n      tag_183\n      jump\t// in\n    tag_330:\n      dup1\n      iszero\n      tag_331\n      jumpi\n      dup1\n      0x1f\n      lt\n      tag_332\n      jumpi\n      0x0100\n      dup1\n      dup4\n      sload\n      div\n      mul\n      dup4\n      mstore\n      swap2\n      0x20\n      add\n      swap2\n      jump(tag_331)\n    tag_332:\n      dup3\n      add\n      swap2\n      swap1\n      0x00\n      mstore\n      keccak256(0x00, 0x20)\n      swap1\n    tag_333:\n      dup2\n      sload\n      dup2\n      mstore\n      swap1\n      0x01\n      add\n      swap1\n      0x20\n      add\n      dup1\n      dup4\n      gt\n      tag_333\n      jumpi\n      dup3\n      swap1\n      sub\n      0x1f\n      and\n      dup3\n      add\n      swap2\n    tag_331:\n      pop\n      pop\n      pop\n      pop\n      pop\n      swap1\n      dup1\n      0x02\n      add\n      sload\n      swap1\n      dup1\n      0x03\n      add\n      sload\n      swap1\n      pop\n      dup5\n      jump\t// out\n        /* \"contracts/DashBoard.sol\":16571:16714  function getTopUnderperformingAssets() external view returns (AssetPerformanceInfo[] memory) {... */\n    tag_107:\n        /* \"contracts/DashBoard.sol\":16633:16662  AssetPerformanceInfo[] memory */\n      0x60\n        /* \"contracts/DashBoard.sol\":16682:16706  topUnderperformingAssets */\n      0x0f\n        /* \"contracts/DashBoard.sol\":16675:16706  return topUnderperformingAssets */\n      dup1\n      sload\n      dup1\n      0x20\n      mul\n      0x20\n      add\n      mload(0x40)\n      swap1\n      dup2\n      add\n      0x40\n      mstore\n      dup1\n      swap3\n      swap2\n      swap1\n      dup2\n      dup2\n      mstore\n      0x20\n      add\n      0x00\n      swap1\n    tag_335:\n      dup3\n      dup3\n      lt\n      iszero\n      tag_273\n      jumpi\n      dup4\n      dup3\n      swap1\n      0x00\n      mstore\n      keccak256(0x00, 0x20)\n      swap1\n      0x05\n      mul\n      add\n      mload(0x40)\n      dup1\n      0xa0\n      add\n      0x40\n      mstore\n      swap1\n      dup2\n      0x00\n      dup3\n      add\n      dup1\n      sload\n      tag_338\n      swap1\n      tag_183\n      jump\t// in\n    tag_338:\n      dup1\n      0x1f\n      add\n      0x20\n      dup1\n      swap2\n      div\n      mul\n      0x20\n      add\n      mload(0x40)\n      swap1\n      dup2\n      add\n      0x40\n      mstore\n      dup1\n      swap3\n      swap2\n      swap1\n      dup2\n      dup2\n      mstore\n      0x20\n      add\n      dup3\n      dup1\n      sload\n      tag_339\n      swap1\n      tag_183\n      jump\t// in\n    tag_339:\n      dup1\n      iszero\n      tag_340\n      jumpi\n      dup1\n      0x1f\n      lt\n      tag_341\n      jumpi\n      0x0100\n      dup1\n      dup4\n      sload\n      div\n      mul\n      dup4\n      mstore\n      swap2\n      0x20\n      add\n      swap2\n      jump(tag_340)\n    tag_341:\n      dup3\n      add\n      swap2\n      swap1\n      0x00\n      mstore\n      keccak256(0x00, 0x20)\n      swap1\n    tag_342:\n      dup2\n      sload\n      dup2\n      mstore\n      swap1\n      0x01\n      add\n      swap1\n      0x20\n      add\n      dup1\n      dup4\n      gt\n      tag_342\n      jumpi\n      dup3\n      swap1\n      sub\n      0x1f\n      and\n      dup3\n      add\n      swap2\n    tag_340:\n      pop\n      pop\n      pop\n      swap2\n      dup4\n      mstore\n      pop\n      pop\n      0x01\n      dup3\n      dup2\n      add\n      sload\n      sub(shl(0xa0, 0x01), 0x01)\n      and\n      0x20\n      dup1\n      dup5\n      add\n      swap2\n      swap1\n      swap2\n      mstore\n      0x02\n      dup5\n      add\n      sload\n      0x40\n      dup5\n      add\n      mstore\n      0x03\n      dup5\n      add\n      sload\n      0x60\n      dup5\n      add\n      mstore\n      0x04\n      swap1\n      swap4\n      add\n      sload\n      0x80\n      swap1\n      swap3\n      add\n      swap2\n      swap1\n      swap2\n      mstore\n      swap2\n      dup4\n      mstore\n      swap3\n      add\n      swap2\n      add\n      jump(tag_335)\n        /* \"contracts/DashBoard.sol\":16237:16420  function getNarrativeTopPerformer(string calldata _narrativeName) external view returns (NarrativeTopTokenInfo memory) {... */\n    tag_113:\n        /* \"contracts/DashBoard.sol\":16326:16354  NarrativeTopTokenInfo memory */\n      tag_343\n      mload(0x40)\n      dup1\n      0x80\n      add\n      0x40\n      mstore\n      dup1\n      0x60\n      dup2\n      mstore\n      0x20\n      add\n      0x60\n      dup2\n      mstore\n      0x20\n      add\n      0x00\n      dup2\n      mstore\n      0x20\n      add\n      0x00\n      dup2\n      mstore\n      pop\n      swap1\n      jump\n    tag_343:\n        /* \"contracts/DashBoard.sol\":16374:16396  narrativeTopPerformers */\n      0x0d\n        /* \"contracts/DashBoard.sol\":16397:16411  _narrativeName */\n      dup4\n      dup4\n        /* \"contracts/DashBoard.sol\":16374:16412  narrativeTopPerformers[_narrativeName] */\n      mload(0x40)\n      tag_346\n      swap3\n      swap2\n      swap1\n      tag_295\n      jump\t// in\n    tag_346:\n      swap1\n      dup2\n      mstore\n      0x20\n      add\n      mload(0x40)\n      dup1\n      swap2\n      sub\n      swap1\n      keccak256\n        /* \"contracts/DashBoard.sol\":16367:16412  return narrativeTopPerformers[_narrativeName] */\n      mload(0x40)\n      dup1\n      0x80\n      add\n      0x40\n      mstore\n      swap1\n      dup2\n      0x00\n      dup3\n      add\n      dup1\n      sload\n      tag_347\n      swap1\n      tag_183\n      jump\t// in\n    tag_347:\n      dup1\n      0x1f\n      add\n      0x20\n      dup1\n      swap2\n      div\n      mul\n      0x20\n      add\n      mload(0x40)\n      swap1\n      dup2\n      add\n      0x40\n      mstore\n      dup1\n      swap3\n      swap2\n      swap1\n      dup2\n      dup2\n      mstore\n      0x20\n      add\n      dup3\n      dup1\n      sload\n      tag_348\n      swap1\n      tag_183\n      jump\t// in\n    tag_348:\n      dup1\n      iszero\n      tag_349\n      jumpi\n      dup1\n      0x1f\n      lt\n      tag_350\n      jumpi\n      0x0100\n      dup1\n      dup4\n      sload\n      div\n      mul\n      dup4\n      mstore\n      swap2\n      0x20\n      add\n      swap2\n      jump(tag_349)\n    tag_350:\n      dup3\n      add\n      swap2\n      swap1\n      0x00\n      mstore\n      keccak256(0x00, 0x20)\n      swap1\n    tag_351:\n      dup2\n      sload\n      dup2\n      mstore\n      swap1\n      0x01\n      add\n      swap1\n      0x20\n      add\n      dup1\n      dup4\n      gt\n      tag_351\n      jumpi\n      dup3\n      swap1\n      sub\n      0x1f\n      and\n      dup3\n      add\n      swap2\n    tag_349:\n      pop\n      pop\n      pop\n      pop\n      pop\n      dup2\n      mstore\n      0x20\n      add\n      0x01\n      dup3\n      add\n      dup1\n      sload\n      tag_352\n      swap1\n      tag_183\n      jump\t// in\n    tag_352:\n      dup1\n      0x1f\n      add\n      0x20\n      dup1\n      swap2\n      div\n      mul\n      0x20\n      add\n      mload(0x40)\n      swap1\n      dup2\n      add\n      0x40\n      mstore\n      dup1\n      swap3\n      swap2\n      swap1\n      dup2\n      dup2\n      mstore\n      0x20\n      add\n      dup3\n      dup1\n      sload\n      tag_353\n      swap1\n      tag_183\n      jump\t// in\n    tag_353:\n      dup1\n      iszero\n      tag_354\n      jumpi\n      dup1\n      0x1f\n      lt\n      tag_355\n      jumpi\n      0x0100\n      dup1\n      dup4\n      sload\n      div\n      mul\n      dup4\n      mstore\n      swap2\n      0x20\n      add\n      swap2\n      jump(tag_354)\n    tag_355:\n      dup3\n      add\n      swap2\n      swap1\n      0x00\n      mstore\n      keccak256(0x00, 0x20)\n      swap1\n    tag_356:\n      dup2\n      sload\n      dup2\n      mstore\n      swap1\n      0x01\n      add\n      swap1\n      0x20\n      add\n      dup1\n      dup4\n      gt\n      tag_356\n      jumpi\n      dup3\n      swap1\n      sub\n      0x1f\n      and\n      dup3\n      add\n      swap2\n    tag_354:\n      pop\n      pop\n      pop\n      pop\n      pop\n      dup2\n      mstore\n      0x20\n      add\n      0x02\n      dup3\n      add\n      sload\n      dup2\n      mstore\n      0x20\n      add\n      0x03\n      dup3\n      add\n      sload\n      dup2\n      mstore\n      pop\n      pop\n      swap1\n      pop\n        /* \"contracts/DashBoard.sol\":16237:16420  function getNarrativeTopPerformer(string calldata _narrativeName) external view returns (NarrativeTopTokenInfo memory) {... */\n    tag_345:\n      swap3\n      swap2\n      pop\n      pop\n      jump\t// out\n        /* \"contracts/DashBoard.sol\":14905:15140  function turnOffAlert() external onlyOwner {... */\n    tag_131:\n        /* \"@openzeppelin/contracts/access/Ownable.sol\":1531:1544  _checkOwner() */\n      tag_359\n        /* \"@openzeppelin/contracts/access/Ownable.sol\":1531:1542  _checkOwner */\n      tag_204\n        /* \"@openzeppelin/contracts/access/Ownable.sol\":1531:1544  _checkOwner() */\n      jump\t// in\n    tag_359:\n        /* \"contracts/DashBoard.sol\":14962:14978  userNetflowAlert */\n      0x12\n        /* \"contracts/DashBoard.sol\":14962:14981  userNetflowAlert.id */\n      sload\n        /* \"contracts/DashBoard.sol\":14962:14986  userNetflowAlert.id != 0 */\n      iszero\n      dup1\n      iszero\n      swap1\n        /* \"contracts/DashBoard.sol\":14962:15015  userNetflowAlert.id != 0 && userNetflowAlert.isActive */\n      tag_361\n      jumpi\n      pop\n        /* \"contracts/DashBoard.sol\":14990:15015  userNetflowAlert.isActive */\n      and(0xff, sload(0x16))\n        /* \"contracts/DashBoard.sol\":14962:15015  userNetflowAlert.id != 0 && userNetflowAlert.isActive */\n    tag_361:\n        /* \"contracts/DashBoard.sol\":14959:15133  if(userNetflowAlert.id != 0 && userNetflowAlert.isActive){... */\n      iszero\n      tag_270\n      jumpi\n        /* \"contracts/DashBoard.sol\":15031:15056  userNetflowAlert.isActive */\n      0x16\n        /* \"contracts/DashBoard.sol\":15031:15064  userNetflowAlert.isActive = false */\n      dup1\n      sload\n      not(0xff)\n      and\n      swap1\n      sstore\n        /* \"contracts/DashBoard.sol\":15031:15047  userNetflowAlert */\n      0x12\n        /* \"contracts/DashBoard.sol\":15101:15120  userNetflowAlert.id */\n      sload\n        /* \"contracts/DashBoard.sol\":15084:15121  AlertDeactivated(userNetflowAlert.id) */\n      mload(0x40)\n      0xd7d997a7d5bb0e259c4bcbf9213b950fc2d302d3d30540c7671b3c2e6d33088d\n      swap1\n        /* \"contracts/DashBoard.sol\":15059:15064  false */\n      0x00\n      swap1\n        /* \"contracts/DashBoard.sol\":15084:15121  AlertDeactivated(userNetflowAlert.id) */\n      log2\n        /* \"contracts/DashBoard.sol\":14905:15140  function turnOffAlert() external onlyOwner {... */\n      jump\t// out\n        /* \"contracts/DashBoard.sol\":6219:7663  function updateMarketPerformance(... */\n    tag_135:\n        /* \"@openzeppelin/contracts/access/Ownable.sol\":1531:1544  _checkOwner() */\n      tag_364\n        /* \"@openzeppelin/contracts/access/Ownable.sol\":1531:1542  _checkOwner */\n      tag_204\n        /* \"@openzeppelin/contracts/access/Ownable.sol\":1531:1544  _checkOwner() */\n      jump\t// in\n    tag_364:\n        /* \"contracts/DashBoard.sol\":6428:6457  delete topOutperformingAssets */\n      tag_366\n        /* \"contracts/DashBoard.sol\":6435:6457  topOutperformingAssets */\n      0x0e\n      0x00\n        /* \"contracts/DashBoard.sol\":6428:6457  delete topOutperformingAssets */\n      tag_367\n      jump\t// in\n    tag_366:\n        /* \"contracts/DashBoard.sol\":6472:6478  uint i */\n      0x00\n        /* \"contracts/DashBoard.sol\":6468:6932  for(uint i=0; i < _topOutperformers.length; i++){... */\n    tag_368:\n        /* \"contracts/DashBoard.sol\":6482:6510  i < _topOutperformers.length */\n      dup5\n      dup2\n      lt\n        /* \"contracts/DashBoard.sol\":6468:6932  for(uint i=0; i < _topOutperformers.length; i++){... */\n      iszero\n      tag_369\n      jumpi\n        /* \"contracts/DashBoard.sol\":6531:6553  topOutperformingAssets */\n      0x0e\n        /* \"contracts/DashBoard.sol\":6559:6919  AssetPerformanceInfo({... */\n      mload(0x40)\n      dup1\n      0xa0\n      add\n      0x40\n      mstore\n      dup1\n        /* \"contracts/DashBoard.sol\":6612:6629  _topOutperformers */\n      dup9\n      dup9\n        /* \"contracts/DashBoard.sol\":6630:6631  i */\n      dup6\n        /* \"contracts/DashBoard.sol\":6612:6632  _topOutperformers[i] */\n      dup2\n      dup2\n      lt\n      tag_372\n      jumpi\n      tag_372\n      tag_302\n      jump\t// in\n    tag_372:\n      swap1\n      pop\n      0x20\n      mul\n      dup2\n      add\n      swap1\n      tag_373\n      swap2\n      swap1\n      tag_374\n      jump\t// in\n    tag_373:\n        /* \"contracts/DashBoard.sol\":6612:6644  _topOutperformers[i].tokenSymbol */\n      tag_375\n      swap1\n      dup1\n      tag_376\n      jump\t// in\n    tag_375:\n        /* \"contracts/DashBoard.sol\":6559:6919  AssetPerformanceInfo({... */\n      dup1\n      dup1\n      0x1f\n      add\n      0x20\n      dup1\n      swap2\n      div\n      mul\n      0x20\n      add\n      mload(0x40)\n      swap1\n      dup2\n      add\n      0x40\n      mstore\n      dup1\n      swap4\n      swap3\n      swap2\n      swap1\n      dup2\n      dup2\n      mstore\n      0x20\n      add\n      dup4\n      dup4\n      dup1\n      dup3\n      dup5\n      calldatacopy\n      0x00\n      swap3\n      add\n      swap2\n      swap1\n      swap2\n      mstore\n      pop\n      pop\n      pop\n      swap1\n      dup3\n      mstore\n      pop\n      0x20\n      add\n        /* \"contracts/DashBoard.sol\":6660:6677  _topOutperformers */\n      dup9\n      dup9\n        /* \"contracts/DashBoard.sol\":6678:6679  i */\n      dup6\n        /* \"contracts/DashBoard.sol\":6660:6680  _topOutperformers[i] */\n      dup2\n      dup2\n      lt\n      tag_378\n      jumpi\n      tag_378\n      tag_302\n      jump\t// in\n    tag_378:\n      swap1\n      pop\n      0x20\n      mul\n      dup2\n      add\n      swap1\n      tag_379\n      swap2\n      swap1\n      tag_374\n      jump\t// in\n    tag_379:\n        /* \"contracts/DashBoard.sol\":6660:6693  _topOutperformers[i].tokenAddress */\n      tag_380\n      swap1\n      0x40\n      dup2\n      add\n      swap1\n      0x20\n      add\n      tag_167\n      jump\t// in\n    tag_380:\n      sub(shl(0xa0, 0x01), 0x01)\n        /* \"contracts/DashBoard.sol\":6559:6919  AssetPerformanceInfo({... */\n      and\n      dup2\n      mstore\n      0x20\n      add\n        /* \"contracts/DashBoard.sol\":6735:6752  _topOutperformers */\n      dup9\n      dup9\n        /* \"contracts/DashBoard.sol\":6753:6754  i */\n      dup6\n        /* \"contracts/DashBoard.sol\":6735:6755  _topOutperformers[i] */\n      dup2\n      dup2\n      lt\n      tag_382\n      jumpi\n      tag_382\n      tag_302\n      jump\t// in\n    tag_382:\n      swap1\n      pop\n      0x20\n      mul\n      dup2\n      add\n      swap1\n      tag_383\n      swap2\n      swap1\n      tag_374\n      jump\t// in\n    tag_383:\n        /* \"contracts/DashBoard.sol\":6735:6777  _topOutperformers[i].performancePercent24h */\n      0x40\n      add\n      calldataload\n        /* \"contracts/DashBoard.sol\":6559:6919  AssetPerformanceInfo({... */\n      dup2\n      mstore\n      0x20\n      add\n        /* \"contracts/DashBoard.sol\":6807:6824  _topOutperformers */\n      dup9\n      dup9\n        /* \"contracts/DashBoard.sol\":6825:6826  i */\n      dup6\n        /* \"contracts/DashBoard.sol\":6807:6827  _topOutperformers[i] */\n      dup2\n      dup2\n      lt\n      tag_385\n      jumpi\n      tag_385\n      tag_302\n      jump\t// in\n    tag_385:\n      swap1\n      pop\n      0x20\n      mul\n      dup2\n      add\n      swap1\n      tag_386\n      swap2\n      swap1\n      tag_374\n      jump\t// in\n    tag_386:\n        /* \"contracts/DashBoard.sol\":6807:6854  _topOutperformers[i].performanceVsMarketPercent */\n      0x60\n      add\n      calldataload\n        /* \"contracts/DashBoard.sol\":6559:6919  AssetPerformanceInfo({... */\n      dup2\n      mstore\n        /* \"contracts/DashBoard.sol\":6888:6903  block.timestamp */\n      timestamp\n        /* \"contracts/DashBoard.sol\":6559:6919  AssetPerformanceInfo({... */\n      0x20\n      swap2\n      dup3\n      add\n      mstore\n        /* \"contracts/DashBoard.sol\":6531:6920  topOutperformingAssets.push(AssetPerformanceInfo({... */\n      dup3\n      sload\n      0x01\n      dup2\n      add\n      dup5\n      sstore\n      0x00\n      swap4\n      dup5\n      mstore\n      swap3\n      keccak256\n      dup2\n      mload\n      swap2\n      swap3\n      0x05\n      mul\n      add\n      swap1\n      dup2\n      swap1\n      tag_388\n      swap1\n      dup3\n      tag_263\n      jump\t// in\n    tag_388:\n      pop\n      0x20\n      dup3\n      add\n      mload\n      0x01\n      dup3\n      dup2\n      add\n      dup1\n      sload\n      not(sub(shl(0xa0, 0x01), 0x01))\n      and\n      sub(shl(0xa0, 0x01), 0x01)\n      swap1\n      swap4\n      and\n      swap3\n      swap1\n      swap3\n      or\n      swap1\n      swap2\n      sstore\n      0x40\n      dup4\n      add\n      mload\n      0x02\n      dup4\n      add\n      sstore\n      0x60\n      dup4\n      add\n      mload\n      0x03\n      dup4\n      add\n      sstore\n      0x80\n      swap1\n      swap3\n      add\n      mload\n      0x04\n      swap1\n      swap2\n      add\n      sstore\n        /* \"contracts/DashBoard.sol\":6512:6515  i++ */\n      add\n        /* \"contracts/DashBoard.sol\":6468:6932  for(uint i=0; i < _topOutperformers.length; i++){... */\n      jump(tag_368)\n    tag_369:\n      pop\n        /* \"contracts/DashBoard.sol\":6942:6973  delete topUnderperformingAssets */\n      tag_389\n        /* \"contracts/DashBoard.sol\":6949:6973  topUnderperformingAssets */\n      0x0f\n      0x00\n        /* \"contracts/DashBoard.sol\":6942:6973  delete topUnderperformingAssets */\n      tag_367\n      jump\t// in\n    tag_389:\n        /* \"contracts/DashBoard.sol\":6988:6994  uint i */\n      0x00\n        /* \"contracts/DashBoard.sol\":6984:7460  for(uint i=0; i < _topUnderperformers.length; i++){... */\n    tag_390:\n        /* \"contracts/DashBoard.sol\":6998:7028  i < _topUnderperformers.length */\n      dup3\n      dup2\n      lt\n        /* \"contracts/DashBoard.sol\":6984:7460  for(uint i=0; i < _topUnderperformers.length; i++){... */\n      iszero\n      tag_391\n      jumpi\n        /* \"contracts/DashBoard.sol\":7049:7073  topUnderperformingAssets */\n      0x0f\n        /* \"contracts/DashBoard.sol\":7079:7447  AssetPerformanceInfo({... */\n      mload(0x40)\n      dup1\n      0xa0\n      add\n      0x40\n      mstore\n      dup1\n        /* \"contracts/DashBoard.sol\":7132:7151  _topUnderperformers */\n      dup7\n      dup7\n        /* \"contracts/DashBoard.sol\":7152:7153  i */\n      dup6\n        /* \"contracts/DashBoard.sol\":7132:7154  _topUnderperformers[i] */\n      dup2\n      dup2\n      lt\n      tag_394\n      jumpi\n      tag_394\n      tag_302\n      jump\t// in\n    tag_394:\n      swap1\n      pop\n      0x20\n      mul\n      dup2\n      add\n      swap1\n      tag_395\n      swap2\n      swap1\n      tag_374\n      jump\t// in\n    tag_395:\n        /* \"contracts/DashBoard.sol\":7132:7166  _topUnderperformers[i].tokenSymbol */\n      tag_396\n      swap1\n      dup1\n      tag_376\n      jump\t// in\n    tag_396:\n        /* \"contracts/DashBoard.sol\":7079:7447  AssetPerformanceInfo({... */\n      dup1\n      dup1\n      0x1f\n      add\n      0x20\n      dup1\n      swap2\n      div\n      mul\n      0x20\n      add\n      mload(0x40)\n      swap1\n      dup2\n      add\n      0x40\n      mstore\n      dup1\n      swap4\n      swap3\n      swap2\n      swap1\n      dup2\n      dup2\n      mstore\n      0x20\n      add\n      dup4\n      dup4\n      dup1\n      dup3\n      dup5\n      calldatacopy\n      0x00\n      swap3\n      add\n      swap2\n      swap1\n      swap2\n      mstore\n      pop\n      pop\n      pop\n      swap1\n      dup3\n      mstore\n      pop\n      0x20\n      add\n        /* \"contracts/DashBoard.sol\":7182:7201  _topUnderperformers */\n      dup7\n      dup7\n        /* \"contracts/DashBoard.sol\":7202:7203  i */\n      dup6\n        /* \"contracts/DashBoard.sol\":7182:7204  _topUnderperformers[i] */\n      dup2\n      dup2\n      lt\n      tag_398\n      jumpi\n      tag_398\n      tag_302\n      jump\t// in\n    tag_398:\n      swap1\n      pop\n      0x20\n      mul\n      dup2\n      add\n      swap1\n      tag_399\n      swap2\n      swap1\n      tag_374\n      jump\t// in\n    tag_399:\n        /* \"contracts/DashBoard.sol\":7182:7217  _topUnderperformers[i].tokenAddress */\n      tag_400\n      swap1\n      0x40\n      dup2\n      add\n      swap1\n      0x20\n      add\n      tag_167\n      jump\t// in\n    tag_400:\n      sub(shl(0xa0, 0x01), 0x01)\n        /* \"contracts/DashBoard.sol\":7079:7447  AssetPerformanceInfo({... */\n      and\n      dup2\n      mstore\n      0x20\n      add\n        /* \"contracts/DashBoard.sol\":7259:7278  _topUnderperformers */\n      dup7\n      dup7\n        /* \"contracts/DashBoard.sol\":7279:7280  i */\n      dup6\n        /* \"contracts/DashBoard.sol\":7259:7281  _topUnderperformers[i] */\n      dup2\n      dup2\n      lt\n      tag_402\n      jumpi\n      tag_402\n      tag_302\n      jump\t// in\n    tag_402:\n      swap1\n      pop\n      0x20\n      mul\n      dup2\n      add\n      swap1\n      tag_403\n      swap2\n      swap1\n      tag_374\n      jump\t// in\n    tag_403:\n        /* \"contracts/DashBoard.sol\":7259:7303  _topUnderperformers[i].performancePercent24h */\n      0x40\n      add\n      calldataload\n        /* \"contracts/DashBoard.sol\":7079:7447  AssetPerformanceInfo({... */\n      dup2\n      mstore\n      0x20\n      add\n        /* \"contracts/DashBoard.sol\":7333:7352  _topUnderperformers */\n      dup7\n      dup7\n        /* \"contracts/DashBoard.sol\":7353:7354  i */\n      dup6\n        /* \"contracts/DashBoard.sol\":7333:7355  _topUnderperformers[i] */\n      dup2\n      dup2\n      lt\n      tag_405\n      jumpi\n      tag_405\n      tag_302\n      jump\t// in\n    tag_405:\n      swap1\n      pop\n      0x20\n      mul\n      dup2\n      add\n      swap1\n      tag_406\n      swap2\n      swap1\n      tag_374\n      jump\t// in\n    tag_406:\n        /* \"contracts/DashBoard.sol\":7333:7382  _topUnderperformers[i].performanceVsMarketPercent */\n      0x60\n      add\n      calldataload\n        /* \"contracts/DashBoard.sol\":7079:7447  AssetPerformanceInfo({... */\n      dup2\n      mstore\n        /* \"contracts/DashBoard.sol\":7416:7431  block.timestamp */\n      timestamp\n        /* \"contracts/DashBoard.sol\":7079:7447  AssetPerformanceInfo({... */\n      0x20\n      swap2\n      dup3\n      add\n      mstore\n        /* \"contracts/DashBoard.sol\":7049:7448  topUnderperformingAssets.push(AssetPerformanceInfo({... */\n      dup3\n      sload\n      0x01\n      dup2\n      add\n      dup5\n      sstore\n      0x00\n      swap4\n      dup5\n      mstore\n      swap3\n      keccak256\n      dup2\n      mload\n      swap2\n      swap3\n      0x05\n      mul\n      add\n      swap1\n      dup2\n      swap1\n      tag_408\n      swap1\n      dup3\n      tag_263\n      jump\t// in\n    tag_408:\n      pop\n      0x20\n      dup3\n      add\n      mload\n      0x01\n      dup3\n      dup2\n      add\n      dup1\n      sload\n      not(sub(shl(0xa0, 0x01), 0x01))\n      and\n      sub(shl(0xa0, 0x01), 0x01)\n      swap1\n      swap4\n      and\n      swap3\n      swap1\n      swap3\n      or\n      swap1\n      swap2\n      sstore\n      0x40\n      dup4\n      add\n      mload\n      0x02\n      dup4\n      add\n      sstore\n      0x60\n      dup4\n      add\n      mload\n      0x03\n      dup4\n      add\n      sstore\n      0x80\n      swap1\n      swap3\n      add\n      mload\n      0x04\n      swap1\n      swap2\n      add\n      sstore\n        /* \"contracts/DashBoard.sol\":7030:7033  i++ */\n      add\n        /* \"contracts/DashBoard.sol\":6984:7460  for(uint i=0; i < _topUnderperformers.length; i++){... */\n      jump(tag_390)\n    tag_391:\n      pop\n        /* \"contracts/DashBoard.sol\":7470:7501  marketAverageMovementPercent24h */\n      0x10\n        /* \"contracts/DashBoard.sol\":7470:7521  marketAverageMovementPercent24h = _marketAvgMove24h */\n      dup2\n      swap1\n      sstore\n        /* \"contracts/DashBoard.sol\":7565:7580  block.timestamp */\n      timestamp\n        /* \"contracts/DashBoard.sol\":7532:7562  marketPerformanceLastUpdatedAt */\n      0x11\n        /* \"contracts/DashBoard.sol\":7532:7580  marketPerformanceLastUpdatedAt = block.timestamp */\n      dup2\n      swap1\n      sstore\n        /* \"contracts/DashBoard.sol\":7596:7655  MarketPerformersUpdated(_marketAvgMove24h, block.timestamp) */\n      0x40\n      dup1\n      mload\n        /* \"#utility.yul\":17776:17801   */\n      dup4\n      dup2\n      mstore\n        /* \"#utility.yul\":17832:17834   */\n      0x20\n        /* \"#utility.yul\":17817:17835   */\n      dup2\n      add\n        /* \"#utility.yul\":17810:17844   */\n      swap3\n      swap1\n      swap3\n      mstore\n        /* \"contracts/DashBoard.sol\":7596:7655  MarketPerformersUpdated(_marketAvgMove24h, block.timestamp) */\n      0xadf8225e8e3a7ce8aaabd2d8357177b1a9937694639e8488214b2f12c18146ee\n      swap2\n        /* \"#utility.yul\":17749:17767   */\n      add\n        /* \"contracts/DashBoard.sol\":7596:7655  MarketPerformersUpdated(_marketAvgMove24h, block.timestamp) */\n      mload(0x40)\n      dup1\n      swap2\n      sub\n      swap1\n      log1\n        /* \"contracts/DashBoard.sol\":6219:7663  function updateMarketPerformance(... */\n      pop\n      pop\n      pop\n      pop\n      pop\n      jump\t// out\n        /* \"contracts/DashBoard.sol\":3010:3655  function updateExchangeNetflow(int256 _amount) external onlyOwner {... */\n    tag_139:\n        /* \"@openzeppelin/contracts/access/Ownable.sol\":1531:1544  _checkOwner() */\n      tag_411\n        /* \"@openzeppelin/contracts/access/Ownable.sol\":1531:1542  _checkOwner */\n      tag_204\n        /* \"@openzeppelin/contracts/access/Ownable.sol\":1531:1544  _checkOwner() */\n      jump\t// in\n    tag_411:\n        /* \"contracts/DashBoard.sol\":3091:3123  hasPreviousExchangeNetflowAmount */\n      and(0xff, sload(0x05))\n      dup1\n        /* \"contracts/DashBoard.sol\":3091:3161  hasPreviousExchangeNetflowAmount || exchangeNetflow.lastUpdatedAt != 0 */\n      tag_413\n      jumpi\n      pop\n        /* \"contracts/DashBoard.sol\":3127:3156  exchangeNetflow.lastUpdatedAt */\n      sload(0x02)\n        /* \"contracts/DashBoard.sol\":3127:3161  exchangeNetflow.lastUpdatedAt != 0 */\n      iszero\n      iszero\n        /* \"contracts/DashBoard.sol\":3091:3161  hasPreviousExchangeNetflowAmount || exchangeNetflow.lastUpdatedAt != 0 */\n    tag_413:\n        /* \"contracts/DashBoard.sol\":3087:3317  if (hasPreviousExchangeNetflowAmount || exchangeNetflow.lastUpdatedAt != 0) {... */\n      iszero\n      tag_414\n      jumpi\n        /* \"contracts/DashBoard.sol\":3210:3225  exchangeNetflow */\n      0x01\n        /* \"contracts/DashBoard.sol\":3210:3232  exchangeNetflow.amount */\n      sload\n        /* \"contracts/DashBoard.sol\":3178:3207  previousExchangeNetflowAmount */\n      0x04\n        /* \"contracts/DashBoard.sol\":3178:3232  previousExchangeNetflowAmount = exchangeNetflow.amount */\n      sstore\n        /* \"contracts/DashBoard.sol\":3087:3317  if (hasPreviousExchangeNetflowAmount || exchangeNetflow.lastUpdatedAt != 0) {... */\n      jump(tag_415)\n    tag_414:\n        /* \"contracts/DashBoard.sol\":3265:3294  previousExchangeNetflowAmount */\n      0x04\n        /* \"contracts/DashBoard.sol\":3265:3304  previousExchangeNetflowAmount = _amount */\n      dup2\n      swap1\n      sstore\n        /* \"contracts/DashBoard.sol\":3087:3317  if (hasPreviousExchangeNetflowAmount || exchangeNetflow.lastUpdatedAt != 0) {... */\n    tag_415:\n        /* \"contracts/DashBoard.sol\":3327:3359  hasPreviousExchangeNetflowAmount */\n      0x05\n        /* \"contracts/DashBoard.sol\":3327:3366  hasPreviousExchangeNetflowAmount = true */\n      dup1\n      sload\n      not(0xff)\n      and\n        /* \"contracts/DashBoard.sol\":3362:3366  true */\n      0x01\n        /* \"contracts/DashBoard.sol\":3327:3366  hasPreviousExchangeNetflowAmount = true */\n      swap1\n      dup2\n      or\n      swap1\n      swap2\n      sstore\n        /* \"contracts/DashBoard.sol\":3379:3411  exchangeNetflow.amount = _amount */\n      dup2\n      swap1\n      sstore\n        /* \"contracts/DashBoard.sol\":3454:3469  block.timestamp */\n      timestamp\n        /* \"contracts/DashBoard.sol\":3422:3451  exchangeNetflow.lastUpdatedAt */\n      0x02\n        /* \"contracts/DashBoard.sol\":3422:3469  exchangeNetflow.lastUpdatedAt = block.timestamp */\n      dup2\n      swap1\n      sstore\n        /* \"contracts/DashBoard.sol\":3485:3525  NetflowUpdated(_amount, block.timestamp) */\n      0x40\n      dup1\n      mload\n        /* \"#utility.yul\":17776:17801   */\n      dup4\n      dup2\n      mstore\n        /* \"#utility.yul\":17832:17834   */\n      0x20\n        /* \"#utility.yul\":17817:17835   */\n      dup2\n      add\n        /* \"#utility.yul\":17810:17844   */\n      swap3\n      swap1\n      swap3\n      mstore\n        /* \"contracts/DashBoard.sol\":3485:3525  NetflowUpdated(_amount, block.timestamp) */\n      0x475cae5b1b67b8f03aba6a9d0442b263224ee619fa6fb913c08d9edf37904b8c\n      swap2\n        /* \"#utility.yul\":17749:17767   */\n      add\n        /* \"contracts/DashBoard.sol\":3485:3525  NetflowUpdated(_amount, block.timestamp) */\n      mload(0x40)\n      dup1\n      swap2\n      sub\n      swap1\n      log1\n        /* \"contracts/DashBoard.sol\":3559:3574  exchangeNetflow */\n      0x01\n        /* \"contracts/DashBoard.sol\":3559:3581  exchangeNetflow.amount */\n      sload\n        /* \"contracts/DashBoard.sol\":3583:3612  previousExchangeNetflowAmount */\n      sload(0x04)\n        /* \"contracts/DashBoard.sol\":3614:3646  hasPreviousExchangeNetflowAmount */\n      sload(0x05)\n        /* \"contracts/DashBoard.sol\":3538:3647  checkAndTriggerAlert(exchangeNetflow.amount, previousExchangeNetflowAmount, hasPreviousExchangeNetflowAmount) */\n      tag_417\n      swap3\n        /* \"contracts/DashBoard.sol\":3559:3581  exchangeNetflow.amount */\n      swap2\n        /* \"contracts/DashBoard.sol\":3583:3612  previousExchangeNetflowAmount */\n      swap1\n        /* \"contracts/DashBoard.sol\":3614:3646  hasPreviousExchangeNetflowAmount */\n      0xff\n      and\n        /* \"contracts/DashBoard.sol\":3538:3558  checkAndTriggerAlert */\n      tag_418\n        /* \"contracts/DashBoard.sol\":3538:3647  checkAndTriggerAlert(exchangeNetflow.amount, previousExchangeNetflowAmount, hasPreviousExchangeNetflowAmount) */\n      jump\t// in\n    tag_417:\n        /* \"contracts/DashBoard.sol\":3010:3655  function updateExchangeNetflow(int256 _amount) external onlyOwner {... */\n      pop\n      jump\t// out\n        /* \"contracts/DashBoard.sol\":16763:17628  function removeNarrativeKey(string calldata _narrativeName) external onlyOwner {... */\n    tag_142:\n        /* \"@openzeppelin/contracts/access/Ownable.sol\":1531:1544  _checkOwner() */\n      tag_420\n        /* \"@openzeppelin/contracts/access/Ownable.sol\":1531:1542  _checkOwner */\n      tag_204\n        /* \"@openzeppelin/contracts/access/Ownable.sol\":1531:1544  _checkOwner() */\n      jump\t// in\n    tag_420:\n        /* \"contracts/DashBoard.sol\":16853:16863  bool found */\n      0x00\n      dup1\n      dup1\n        /* \"contracts/DashBoard.sol\":16915:17194  for (uint i = 0; i < narrativeKeys.length; i++) {... */\n    tag_422:\n        /* \"contracts/DashBoard.sol\":16936:16949  narrativeKeys */\n      0x0c\n        /* \"contracts/DashBoard.sol\":16936:16956  narrativeKeys.length */\n      sload\n        /* \"contracts/DashBoard.sol\":16932:16956  i < narrativeKeys.length */\n      dup2\n      lt\n        /* \"contracts/DashBoard.sol\":16915:17194  for (uint i = 0; i < narrativeKeys.length; i++) {... */\n      iszero\n      tag_423\n      jumpi\n        /* \"contracts/DashBoard.sol\":17058:17072  _narrativeName */\n      dup5\n      dup5\n        /* \"contracts/DashBoard.sol\":17041:17073  abi.encodePacked(_narrativeName) */\n      add(0x20, mload(0x40))\n      tag_425\n      swap3\n      swap2\n      swap1\n      tag_295\n      jump\t// in\n    tag_425:\n      mload(0x40)\n      0x20\n      dup2\n      dup4\n      sub\n      sub\n      dup2\n      mstore\n      swap1\n      0x40\n      mstore\n        /* \"contracts/DashBoard.sol\":17031:17074  keccak256(abi.encodePacked(_narrativeName)) */\n      dup1\n      mload\n      swap1\n      0x20\n      add\n      keccak256\n        /* \"contracts/DashBoard.sol\":17009:17022  narrativeKeys */\n      0x0c\n        /* \"contracts/DashBoard.sol\":17023:17024  i */\n      dup3\n        /* \"contracts/DashBoard.sol\":17009:17025  narrativeKeys[i] */\n      dup2\n      sload\n      dup2\n      lt\n      tag_427\n      jumpi\n      tag_427\n      tag_302\n      jump\t// in\n    tag_427:\n      swap1\n      0x00\n      mstore\n      keccak256(0x00, 0x20)\n      add\n        /* \"contracts/DashBoard.sol\":16992:17026  abi.encodePacked(narrativeKeys[i]) */\n      add(0x20, mload(0x40))\n      tag_429\n      swap2\n      swap1\n      tag_305\n      jump\t// in\n    tag_429:\n      mload(0x40)\n      0x20\n      dup2\n      dup4\n      sub\n      sub\n      dup2\n      mstore\n      swap1\n      0x40\n      mstore\n        /* \"contracts/DashBoard.sol\":16982:17027  keccak256(abi.encodePacked(narrativeKeys[i])) */\n      dup1\n      mload\n      swap1\n      0x20\n      add\n      keccak256\n        /* \"contracts/DashBoard.sol\":16982:17074  keccak256(abi.encodePacked(narrativeKeys[i])) == keccak256(abi.encodePacked(_narrativeName)) */\n      sub\n        /* \"contracts/DashBoard.sol\":16978:17183  if (keccak256(abi.encodePacked(narrativeKeys[i])) == keccak256(abi.encodePacked(_narrativeName))) {... */\n      tag_430\n      jumpi\n        /* \"contracts/DashBoard.sol\":17103:17107  true */\n      0x01\n        /* \"contracts/DashBoard.sol\":17095:17107  found = true */\n      swap3\n      pop\n        /* \"contracts/DashBoard.sol\":17142:17143  i */\n      dup1\n        /* \"contracts/DashBoard.sol\":17126:17143  indexToRemove = i */\n      swap2\n      pop\n        /* \"contracts/DashBoard.sol\":17162:17167  break */\n      jump(tag_423)\n        /* \"contracts/DashBoard.sol\":16978:17183  if (keccak256(abi.encodePacked(narrativeKeys[i])) == keccak256(abi.encodePacked(_narrativeName))) {... */\n    tag_430:\n        /* \"contracts/DashBoard.sol\":16958:16961  i++ */\n      0x01\n      add\n        /* \"contracts/DashBoard.sol\":16915:17194  for (uint i = 0; i < narrativeKeys.length; i++) {... */\n      jump(tag_422)\n    tag_423:\n      pop\n        /* \"contracts/DashBoard.sol\":17208:17213  found */\n      dup2\n        /* \"contracts/DashBoard.sol\":17204:17621  if (found) {... */\n      iszero\n      tag_436\n      jumpi\n        /* \"contracts/DashBoard.sol\":17237:17258  narrativePerformances */\n      0x0b\n        /* \"contracts/DashBoard.sol\":17259:17273  _narrativeName */\n      dup5\n      dup5\n        /* \"contracts/DashBoard.sol\":17237:17274  narrativePerformances[_narrativeName] */\n      mload(0x40)\n      tag_432\n      swap3\n      swap2\n      swap1\n      tag_295\n      jump\t// in\n    tag_432:\n      swap1\n      dup2\n      mstore\n      mload(0x40)\n      swap1\n      dup2\n      swap1\n      sub\n      0x20\n      add\n      swap1\n      keccak256\n      0x00\n        /* \"contracts/DashBoard.sol\":17230:17274  delete narrativePerformances[_narrativeName] */\n      tag_433\n        /* \"contracts/DashBoard.sol\":17237:17274  narrativePerformances[_narrativeName] */\n      dup3\n      dup3\n        /* \"contracts/DashBoard.sol\":17230:17274  delete narrativePerformances[_narrativeName] */\n      tag_434\n      jump\t// in\n    tag_433:\n      pop\n      0x00\n      0x01\n      dup3\n      add\n      dup2\n      swap1\n      sstore\n      0x02\n      swap1\n      swap2\n      add\n      sstore\n        /* \"contracts/DashBoard.sol\":17315:17328  narrativeKeys */\n      0x0c\n        /* \"contracts/DashBoard.sol\":17315:17335  narrativeKeys.length */\n      sload\n        /* \"contracts/DashBoard.sol\":17315:17339  narrativeKeys.length > 0 */\n      iszero\n      dup1\n      iszero\n      swap1\n        /* \"contracts/DashBoard.sol\":17315:17379  narrativeKeys.length > 0 && indexToRemove < narrativeKeys.length */\n      tag_435\n      jumpi\n      pop\n        /* \"contracts/DashBoard.sol\":17359:17372  narrativeKeys */\n      0x0c\n        /* \"contracts/DashBoard.sol\":17359:17379  narrativeKeys.length */\n      sload\n        /* \"contracts/DashBoard.sol\":17343:17379  indexToRemove < narrativeKeys.length */\n      dup2\n      lt\n        /* \"contracts/DashBoard.sol\":17315:17379  narrativeKeys.length > 0 && indexToRemove < narrativeKeys.length */\n    tag_435:\n        /* \"contracts/DashBoard.sol\":17311:17610  if (narrativeKeys.length > 0 && indexToRemove < narrativeKeys.length) { // Xóa khỏi mảng keys... */\n      iszero\n      tag_436\n      jumpi\n        /* \"contracts/DashBoard.sol\":17458:17471  narrativeKeys */\n      0x0c\n        /* \"contracts/DashBoard.sol\":17472:17492  narrativeKeys.length */\n      dup1\n      sload\n        /* \"contracts/DashBoard.sol\":17472:17496  narrativeKeys.length - 1 */\n      tag_437\n      swap1\n        /* \"contracts/DashBoard.sol\":17495:17496  1 */\n      0x01\n      swap1\n        /* \"contracts/DashBoard.sol\":17472:17496  narrativeKeys.length - 1 */\n      tag_438\n      jump\t// in\n    tag_437:\n        /* \"contracts/DashBoard.sol\":17458:17497  narrativeKeys[narrativeKeys.length - 1] */\n      dup2\n      sload\n      dup2\n      lt\n      tag_440\n      jumpi\n      tag_440\n      tag_302\n      jump\t// in\n    tag_440:\n      swap1\n      0x00\n      mstore\n      keccak256(0x00, 0x20)\n      add\n        /* \"contracts/DashBoard.sol\":17427:17440  narrativeKeys */\n      0x0c\n        /* \"contracts/DashBoard.sol\":17441:17454  indexToRemove */\n      dup3\n        /* \"contracts/DashBoard.sol\":17427:17455  narrativeKeys[indexToRemove] */\n      dup2\n      sload\n      dup2\n      lt\n      tag_443\n      jumpi\n      tag_443\n      tag_302\n      jump\t// in\n    tag_443:\n      swap1\n      0x00\n      mstore\n      keccak256(0x00, 0x20)\n      add\n        /* \"contracts/DashBoard.sol\":17427:17497  narrativeKeys[indexToRemove] = narrativeKeys[narrativeKeys.length - 1] */\n      swap1\n      dup2\n      tag_445\n      swap2\n      swap1\n      tag_446\n      jump\t// in\n    tag_445:\n      pop\n        /* \"contracts/DashBoard.sol\":17516:17529  narrativeKeys */\n      0x0c\n        /* \"contracts/DashBoard.sol\":17516:17535  narrativeKeys.pop() */\n      dup1\n      sload\n      dup1\n      tag_448\n      jumpi\n      tag_448\n      tag_449\n      jump\t// in\n    tag_448:\n      0x01\n      swap1\n      sub\n      dup2\n      dup2\n      swap1\n      0x00\n      mstore\n      keccak256(0x00, 0x20)\n      add\n      0x00\n      tag_451\n      swap2\n      swap1\n      tag_434\n      jump\t// in\n    tag_451:\n      swap1\n      sstore\n        /* \"contracts/DashBoard.sol\":17579:17593  _narrativeName */\n      dup4\n      dup4\n        /* \"contracts/DashBoard.sol\":17559:17594  NarrativeKeyRemoved(_narrativeName) */\n      mload(0x40)\n      tag_452\n      swap3\n      swap2\n      swap1\n      tag_295\n      jump\t// in\n    tag_452:\n      mload(0x40)\n      swap1\n      dup2\n      swap1\n      sub\n      dup2\n      keccak256\n      swap1\n      0x39c9d1bc62fedff5608e7e91b88c9e3f6b7f4e9e9b184216521d36d88162fba4\n      swap1\n      0x00\n      swap1\n      log2\n        /* \"contracts/DashBoard.sol\":17311:17610  if (narrativeKeys.length > 0 && indexToRemove < narrativeKeys.length) { // Xóa khỏi mảng keys... */\n    tag_436:\n        /* \"contracts/DashBoard.sol\":16842:17628  {... */\n      pop\n      pop\n        /* \"contracts/DashBoard.sol\":16763:17628  function removeNarrativeKey(string calldata _narrativeName) external onlyOwner {... */\n      pop\n      pop\n      jump\t// out\n        /* \"contracts/DashBoard.sol\":15796:15923  function getAllNetflowAlerts() external view returns (NetflowAlert[] memory alerts) {... */\n    tag_144:\n        /* \"contracts/DashBoard.sol\":15850:15878  NetflowAlert[] memory alerts */\n      0x60\n        /* \"contracts/DashBoard.sol\":15898:15915  userNetflowAlerts */\n      0x03\n        /* \"contracts/DashBoard.sol\":15891:15915  return userNetflowAlerts */\n      dup1\n      sload\n      dup1\n      0x20\n      mul\n      0x20\n      add\n      mload(0x40)\n      swap1\n      dup2\n      add\n      0x40\n      mstore\n      dup1\n      swap3\n      swap2\n      swap1\n      dup2\n      dup2\n      mstore\n      0x20\n      add\n      0x00\n      swap1\n    tag_454:\n      dup3\n      dup3\n      lt\n      iszero\n      tag_273\n      jumpi\n      0x00\n      dup5\n      dup2\n      mstore\n      0x20\n      swap1\n      dup2\n      swap1\n      keccak256\n      0x40\n      dup1\n      mload\n      0x0120\n      dup2\n      add\n      dup3\n      mstore\n      0x07\n      dup7\n      mul\n      swap1\n      swap3\n      add\n      dup1\n      sload\n      dup4\n      mstore\n      0x01\n      dup2\n      add\n      sload\n      sub(shl(0xa0, 0x01), 0x01)\n      dup2\n      and\n      swap5\n      dup5\n      add\n      swap5\n      swap1\n      swap5\n      mstore\n      swap2\n      swap3\n      swap1\n      dup4\n      add\n      swap1\n      shl(0xa0, 0x01)\n      swap1\n      div\n      0xff\n      and\n      0x0c\n      dup2\n      gt\n      iszero\n      tag_458\n      jumpi\n      tag_458\n      tag_208\n      jump\t// in\n    tag_458:\n      0x0c\n      dup2\n      gt\n      iszero\n      tag_460\n      jumpi\n      tag_460\n      tag_208\n      jump\t// in\n    tag_460:\n      dup2\n      mstore\n      0x02\n      dup3\n      add\n      sload\n      0x20\n      dup3\n      add\n      mstore\n      0x03\n      dup3\n      add\n      sload\n      0x40\n      dup3\n      add\n      mstore\n      0x04\n      dup3\n      add\n      sload\n      0xff\n      dup1\n      dup3\n      and\n      iszero\n      iszero\n      0x60\n      dup5\n      add\n      mstore\n      0x0100\n      swap1\n      swap2\n      div\n      and\n      iszero\n      iszero\n      0x80\n      dup3\n      add\n      mstore\n      0x05\n      dup3\n      add\n      sload\n      0xa0\n      dup3\n      add\n      mstore\n      0x06\n      dup3\n      add\n      dup1\n      sload\n      0xc0\n      swap1\n      swap3\n      add\n      swap2\n      tag_461\n      swap1\n      tag_183\n      jump\t// in\n    tag_461:\n      dup1\n      0x1f\n      add\n      0x20\n      dup1\n      swap2\n      div\n      mul\n      0x20\n      add\n      mload(0x40)\n      swap1\n      dup2\n      add\n      0x40\n      mstore\n      dup1\n      swap3\n      swap2\n      swap1\n      dup2\n      dup2\n      mstore\n      0x20\n      add\n      dup3\n      dup1\n      sload\n      tag_462\n      swap1\n      tag_183\n      jump\t// in\n    tag_462:\n      dup1\n      iszero\n      tag_463\n      jumpi\n      dup1\n      0x1f\n      lt\n      tag_464\n      jumpi\n      0x0100\n      dup1\n      dup4\n      sload\n      div\n      mul\n      dup4\n      mstore\n      swap2\n      0x20\n      add\n      swap2\n      jump(tag_463)\n    tag_464:\n      dup3\n      add\n      swap2\n      swap1\n      0x00\n      mstore\n      keccak256(0x00, 0x20)\n      swap1\n    tag_465:\n      dup2\n      sload\n      dup2\n      mstore\n      swap1\n      0x01\n      add\n      swap1\n      0x20\n      add\n      dup1\n      dup4\n      gt\n      tag_465\n      jumpi\n      dup3\n      swap1\n      sub\n      0x1f\n      and\n      dup3\n      add\n      swap2\n    tag_463:\n      pop\n      pop\n      pop\n      pop\n      pop\n      dup2\n      mstore\n      pop\n      pop\n      dup2\n      mstore\n      0x20\n      add\n      swap1\n      0x01\n      add\n      swap1\n      jump(tag_454)\n        /* \"contracts/DashBoard.sol\":5292:5596  function batchUpdateNarrativePerformances(NarrativePerformanceInfo[] calldata _performances) external onlyOwner {... */\n    tag_150:\n        /* \"@openzeppelin/contracts/access/Ownable.sol\":1531:1544  _checkOwner() */\n      tag_467\n        /* \"@openzeppelin/contracts/access/Ownable.sol\":1531:1542  _checkOwner */\n      tag_204\n        /* \"@openzeppelin/contracts/access/Ownable.sol\":1531:1544  _checkOwner() */\n      jump\t// in\n    tag_467:\n        /* \"contracts/DashBoard.sol\":5420:5426  uint i */\n      0x00\n        /* \"contracts/DashBoard.sol\":5415:5589  for (uint i = 0; i < _performances.length; i++) {... */\n    tag_469:\n        /* \"contracts/DashBoard.sol\":5432:5456  i < _performances.length */\n      dup2\n      dup2\n      lt\n        /* \"contracts/DashBoard.sol\":5415:5589  for (uint i = 0; i < _performances.length; i++) {... */\n      iszero\n      tag_470\n      jumpi\n        /* \"contracts/DashBoard.sol\":5478:5482  this */\n      address\n        /* \"contracts/DashBoard.sol\":5478:5514  this.addOrUpdateNarrativePerformance */\n      0x3fab3dd6\n        /* \"contracts/DashBoard.sol\":5515:5528  _performances */\n      dup5\n      dup5\n        /* \"contracts/DashBoard.sol\":5529:5530  i */\n      dup5\n        /* \"contracts/DashBoard.sol\":5515:5531  _performances[i] */\n      dup2\n      dup2\n      lt\n      tag_473\n      jumpi\n      tag_473\n      tag_302\n      jump\t// in\n    tag_473:\n      swap1\n      pop\n      0x20\n      mul\n      dup2\n      add\n      swap1\n      tag_474\n      swap2\n      swap1\n      tag_475\n      jump\t// in\n    tag_474:\n        /* \"contracts/DashBoard.sol\":5515:5536  _performances[i].name */\n      tag_476\n      swap1\n      dup1\n      tag_376\n      jump\t// in\n    tag_476:\n        /* \"contracts/DashBoard.sol\":5538:5551  _performances */\n      dup7\n      dup7\n        /* \"contracts/DashBoard.sol\":5552:5553  i */\n      dup7\n        /* \"contracts/DashBoard.sol\":5538:5554  _performances[i] */\n      dup2\n      dup2\n      lt\n      tag_478\n      jumpi\n      tag_478\n      tag_302\n      jump\t// in\n    tag_478:\n      swap1\n      pop\n      0x20\n      mul\n      dup2\n      add\n      swap1\n      tag_479\n      swap2\n      swap1\n      tag_475\n      jump\t// in\n    tag_479:\n        /* \"contracts/DashBoard.sol\":5538:5576  _performances[i].performancePercent24h */\n      0x20\n      add\n      calldataload\n        /* \"contracts/DashBoard.sol\":5478:5577  this.addOrUpdateNarrativePerformance(_performances[i].name, _performances[i].performancePercent24h) */\n      mload(0x40)\n      dup5\n      0xffffffff\n      and\n      0xe0\n      shl\n      dup2\n      mstore\n      0x04\n      add\n      tag_480\n      swap4\n      swap3\n      swap2\n      swap1\n      tag_481\n      jump\t// in\n    tag_480:\n      0x00\n      mload(0x40)\n      dup1\n      dup4\n      sub\n      dup2\n      0x00\n      dup8\n      dup1\n      extcodesize\n      iszero\n      dup1\n      iszero\n      tag_482\n      jumpi\n      revert(0x00, 0x00)\n    tag_482:\n      pop\n      gas\n      call\n      iszero\n      dup1\n      iszero\n      tag_484\n      jumpi\n      returndatacopy(0x00, 0x00, returndatasize)\n      revert(0x00, returndatasize)\n    tag_484:\n      pop\n      pop\n        /* \"contracts/DashBoard.sol\":5458:5461  i++ */\n      0x01\n      swap1\n      swap3\n      add\n      swap2\n      pop\n        /* \"contracts/DashBoard.sol\":5415:5589  for (uint i = 0; i < _performances.length; i++) {... */\n      tag_469\n      swap1\n      pop\n      jump\n    tag_470:\n      pop\n        /* \"contracts/DashBoard.sol\":5292:5596  function batchUpdateNarrativePerformances(NarrativePerformanceInfo[] calldata _performances) external onlyOwner {... */\n      pop\n      pop\n      jump\t// out\n        /* \"contracts/DashBoard.sol\":1543:1579  NetflowAlert public userNetflowAlert */\n    tag_152:\n      0x12\n      dup1\n      sload\n      sload(0x13)\n      sload(0x14)\n      sload(0x15)\n      sload(0x16)\n      sload(0x17)\n      0x18\n      dup1\n      sload\n      swap7\n      swap8\n      sub(shl(0xa0, 0x01), 0x01)\n      dup8\n      and\n      swap8\n      0xff\n      shl(0xa0, 0x01)\n      swap1\n      swap9\n      div\n      dup9\n      and\n      swap8\n      dup6\n      dup2\n      and\n      swap6\n      0x0100\n      swap1\n      div\n      and\n      swap4\n      swap3\n      swap1\n      tag_190\n      swap1\n      tag_183\n      jump\t// in\n        /* \"contracts/DashBoard.sol\":5604:6211  function updateNarrativeTopPerformer(... */\n    tag_157:\n        /* \"@openzeppelin/contracts/access/Ownable.sol\":1531:1544  _checkOwner() */\n      tag_491\n        /* \"@openzeppelin/contracts/access/Ownable.sol\":1531:1542  _checkOwner */\n      tag_204\n        /* \"@openzeppelin/contracts/access/Ownable.sol\":1531:1544  _checkOwner() */\n      jump\t// in\n    tag_491:\n        /* \"contracts/DashBoard.sol\":5785:5823  NarrativeTopTokenInfo storage topToken */\n      0x00\n        /* \"contracts/DashBoard.sol\":5826:5848  narrativeTopPerformers */\n      0x0d\n        /* \"contracts/DashBoard.sol\":5849:5863  _narrativeName */\n      dup7\n      dup7\n        /* \"contracts/DashBoard.sol\":5826:5864  narrativeTopPerformers[_narrativeName] */\n      mload(0x40)\n      tag_493\n      swap3\n      swap2\n      swap1\n      tag_295\n      jump\t// in\n    tag_493:\n      swap1\n      dup2\n      mstore\n      mload(0x40)\n      swap1\n      dup2\n      swap1\n      sub\n      0x20\n      add\n      swap1\n      keccak256\n      swap1\n      pop\n      dup1\n        /* \"contracts/DashBoard.sol\":5875:5914  topToken.narrativeName = _narrativeName */\n      tag_494\n        /* \"contracts/DashBoard.sol\":5900:5914  _narrativeName */\n      dup7\n      dup9\n        /* \"contracts/DashBoard.sol\":5826:5864  narrativeTopPerformers[_narrativeName] */\n      dup4\n        /* \"contracts/DashBoard.sol\":5875:5914  topToken.narrativeName = _narrativeName */\n      tag_258\n      jump\t// in\n    tag_494:\n      pop\n        /* \"contracts/DashBoard.sol\":5925:5945  topToken.tokenSymbol */\n      0x01\n      dup2\n      add\n        /* \"contracts/DashBoard.sol\":5925:5960  topToken.tokenSymbol = _tokenSymbol */\n      tag_495\n        /* \"contracts/DashBoard.sol\":5948:5960  _tokenSymbol */\n      dup5\n      dup7\n        /* \"contracts/DashBoard.sol\":5925:5945  topToken.tokenSymbol */\n      dup4\n        /* \"contracts/DashBoard.sol\":5925:5960  topToken.tokenSymbol = _tokenSymbol */\n      tag_258\n      jump\t// in\n    tag_495:\n      pop\n        /* \"contracts/DashBoard.sol\":5971:6006  topToken.relativePerformancePercent */\n      0x02\n      dup2\n      add\n        /* \"contracts/DashBoard.sol\":5971:6036  topToken.relativePerformancePercent = _relativePerformancePercent */\n      dup3\n      swap1\n      sstore\n        /* \"contracts/DashBoard.sol\":6072:6087  block.timestamp */\n      timestamp\n        /* \"contracts/DashBoard.sol\":6047:6069  topToken.lastUpdatedAt */\n      0x03\n      dup3\n      add\n        /* \"contracts/DashBoard.sol\":6047:6087  topToken.lastUpdatedAt = block.timestamp */\n      sstore\n        /* \"contracts/DashBoard.sol\":6103:6203  NarrativeTopTokenUpdated(_narrativeName, _tokenSymbol, _relativePerformancePercent, block.timestamp) */\n      mload(0x40)\n      tag_496\n      swap1\n        /* \"contracts/DashBoard.sol\":6128:6142  _narrativeName */\n      dup8\n      swap1\n      dup8\n      swap1\n        /* \"contracts/DashBoard.sol\":6103:6203  NarrativeTopTokenUpdated(_narrativeName, _tokenSymbol, _relativePerformancePercent, block.timestamp) */\n      tag_295\n      jump\t// in\n    tag_496:\n      mload(0x40)\n      dup1\n      swap2\n      sub\n      swap1\n      keccak256\n      0x6980cc14623a9e2e782881dd8347e20ebd89e558191566e01e8cc11e9066f068\n        /* \"contracts/DashBoard.sol\":6144:6156  _tokenSymbol */\n      dup6\n      dup6\n        /* \"contracts/DashBoard.sol\":6158:6185  _relativePerformancePercent */\n      dup6\n        /* \"contracts/DashBoard.sol\":6187:6202  block.timestamp */\n      timestamp\n        /* \"contracts/DashBoard.sol\":6103:6203  NarrativeTopTokenUpdated(_narrativeName, _tokenSymbol, _relativePerformancePercent, block.timestamp) */\n      mload(0x40)\n      tag_497\n      swap5\n      swap4\n      swap3\n      swap2\n      swap1\n      tag_498\n      jump\t// in\n    tag_497:\n      mload(0x40)\n      dup1\n      swap2\n      sub\n      swap1\n      log2\n        /* \"contracts/DashBoard.sol\":5774:6211  {... */\n      pop\n        /* \"contracts/DashBoard.sol\":5604:6211  function updateNarrativeTopPerformer(... */\n      pop\n      pop\n      pop\n      pop\n      pop\n      jump\t// out\n        /* \"contracts/DashBoard.sol\":16426:16565  function getTopOutperformingAssets() external view returns (AssetPerformanceInfo[] memory) {... */\n    tag_159:\n        /* \"contracts/DashBoard.sol\":16486:16515  AssetPerformanceInfo[] memory */\n      0x60\n        /* \"contracts/DashBoard.sol\":16535:16557  topOutperformingAssets */\n      0x0e\n        /* \"contracts/DashBoard.sol\":16528:16557  return topOutperformingAssets */\n      dup1\n      sload\n      dup1\n      0x20\n      mul\n      0x20\n      add\n      mload(0x40)\n      swap1\n      dup2\n      add\n      0x40\n      mstore\n      dup1\n      swap3\n      swap2\n      swap1\n      dup2\n      dup2\n      mstore\n      0x20\n      add\n      0x00\n      swap1\n    tag_500:\n      dup3\n      dup3\n      lt\n      iszero\n      tag_273\n      jumpi\n      dup4\n      dup3\n      swap1\n      0x00\n      mstore\n      keccak256(0x00, 0x20)\n      swap1\n      0x05\n      mul\n      add\n      mload(0x40)\n      dup1\n      0xa0\n      add\n      0x40\n      mstore\n      swap1\n      dup2\n      0x00\n      dup3\n      add\n      dup1\n      sload\n      tag_503\n      swap1\n      tag_183\n      jump\t// in\n    tag_503:\n      dup1\n      0x1f\n      add\n      0x20\n      dup1\n      swap2\n      div\n      mul\n      0x20\n      add\n      mload(0x40)\n      swap1\n      dup2\n      add\n      0x40\n      mstore\n      dup1\n      swap3\n      swap2\n      swap1\n      dup2\n      dup2\n      mstore\n      0x20\n      add\n      dup3\n      dup1\n      sload\n      tag_504\n      swap1\n      tag_183\n      jump\t// in\n    tag_504:\n      dup1\n      iszero\n      tag_505\n      jumpi\n      dup1\n      0x1f\n      lt\n      tag_506\n      jumpi\n      0x0100\n      dup1\n      dup4\n      sload\n      div\n      mul\n      dup4\n      mstore\n      swap2\n      0x20\n      add\n      swap2\n      jump(tag_505)\n    tag_506:\n      dup3\n      add\n      swap2\n      swap1\n      0x00\n      mstore\n      keccak256(0x00, 0x20)\n      swap1\n    tag_507:\n      dup2\n      sload\n      dup2\n      mstore\n      swap1\n      0x01\n      add\n      swap1\n      0x20\n      add\n      dup1\n      dup4\n      gt\n      tag_507\n      jumpi\n      dup3\n      swap1\n      sub\n      0x1f\n      and\n      dup3\n      add\n      swap2\n    tag_505:\n      pop\n      pop\n      pop\n      swap2\n      dup4\n      mstore\n      pop\n      pop\n      0x01\n      dup3\n      dup2\n      add\n      sload\n      sub(shl(0xa0, 0x01), 0x01)\n      and\n      0x20\n      dup1\n      dup5\n      add\n      swap2\n      swap1\n      swap2\n      mstore\n      0x02\n      dup5\n      add\n      sload\n      0x40\n      dup5\n      add\n      mstore\n      0x03\n      dup5\n      add\n      sload\n      0x60\n      dup5\n      add\n      mstore\n      0x04\n      swap1\n      swap4\n      add\n      sload\n      0x80\n      swap1\n      swap3\n      add\n      swap2\n      swap1\n      swap2\n      mstore\n      swap2\n      dup4\n      mstore\n      swap3\n      add\n      swap2\n      add\n      jump(tag_500)\n        /* \"contracts/DashBoard.sol\":9575:11549  function DoubleNetflowAlert( ... */\n    tag_164:\n        /* \"@openzeppelin/contracts/access/Ownable.sol\":1531:1544  _checkOwner() */\n      tag_509\n        /* \"@openzeppelin/contracts/access/Ownable.sol\":1531:1542  _checkOwner */\n      tag_204\n        /* \"@openzeppelin/contracts/access/Ownable.sol\":1531:1544  _checkOwner() */\n      jump\t// in\n    tag_509:\n        /* \"contracts/DashBoard.sol\":9812:9843  AlertCondition.ENTERING_CHANNEL */\n      0x07\n        /* \"contracts/DashBoard.sol\":9798:9808  _condition */\n      dup6\n        /* \"contracts/DashBoard.sol\":9798:9843  _condition == AlertCondition.ENTERING_CHANNEL */\n      0x0c\n      dup2\n      gt\n      iszero\n      tag_514\n      jumpi\n      tag_514\n      tag_208\n      jump\t// in\n    tag_514:\n      eq\n        /* \"contracts/DashBoard.sol\":9798:9908  _condition == AlertCondition.ENTERING_CHANNEL || //7... */\n      dup1\n      tag_515\n      jumpi\n      pop\n        /* \"contracts/DashBoard.sol\":9878:9908  AlertCondition.EXITING_CHANNEL */\n      0x08\n        /* \"contracts/DashBoard.sol\":9864:9874  _condition */\n      dup6\n        /* \"contracts/DashBoard.sol\":9864:9908  _condition == AlertCondition.EXITING_CHANNEL */\n      0x0c\n      dup2\n      gt\n      iszero\n      tag_519\n      jumpi\n      tag_519\n      tag_208\n      jump\t// in\n    tag_519:\n      eq\n        /* \"contracts/DashBoard.sol\":9798:9908  _condition == AlertCondition.ENTERING_CHANNEL || //7... */\n    tag_515:\n        /* \"contracts/DashBoard.sol\":9798:9972  _condition == AlertCondition.ENTERING_CHANNEL || //7... */\n      dup1\n      tag_520\n      jumpi\n      pop\n        /* \"contracts/DashBoard.sol\":9943:9972  AlertCondition.INSIDE_CHANNEL */\n      0x09\n        /* \"contracts/DashBoard.sol\":9929:9939  _condition */\n      dup6\n        /* \"contracts/DashBoard.sol\":9929:9972  _condition == AlertCondition.INSIDE_CHANNEL */\n      0x0c\n      dup2\n      gt\n      iszero\n      tag_524\n      jumpi\n      tag_524\n      tag_208\n      jump\t// in\n    tag_524:\n      eq\n        /* \"contracts/DashBoard.sol\":9798:9972  _condition == AlertCondition.ENTERING_CHANNEL || //7... */\n    tag_520:\n        /* \"contracts/DashBoard.sol\":9798:10037  _condition == AlertCondition.ENTERING_CHANNEL || //7... */\n      dup1\n      tag_525\n      jumpi\n      pop\n        /* \"contracts/DashBoard.sol\":10007:10037  AlertCondition.OUTSIDE_CHANNEL */\n      0x0a\n        /* \"contracts/DashBoard.sol\":9993:10003  _condition */\n      dup6\n        /* \"contracts/DashBoard.sol\":9993:10037  _condition == AlertCondition.OUTSIDE_CHANNEL */\n      0x0c\n      dup2\n      gt\n      iszero\n      tag_529\n      jumpi\n      tag_529\n      tag_208\n      jump\t// in\n    tag_529:\n      eq\n        /* \"contracts/DashBoard.sol\":9798:10037  _condition == AlertCondition.ENTERING_CHANNEL || //7... */\n    tag_525:\n        /* \"contracts/DashBoard.sol\":9776:10116  require(... */\n      tag_530\n      jumpi\n      mload(0x40)\n      shl(0xe5, 0x461bcd)\n      dup2\n      mstore\n        /* \"#utility.yul\":28057:28059   */\n      0x20\n        /* \"contracts/DashBoard.sol\":9776:10116  require(... */\n      0x04\n      dup3\n      add\n        /* \"#utility.yul\":28039:28060   */\n      mstore\n        /* \"#utility.yul\":28096:28098   */\n      0x2e\n        /* \"#utility.yul\":28076:28094   */\n      0x24\n      dup3\n      add\n        /* \"#utility.yul\":28069:28099   */\n      mstore\n        /* \"#utility.yul\":28135:28169   */\n      0x44617368626f6172643a20496e76616c696420636f6e646974696f6e20666f72\n        /* \"#utility.yul\":28115:28133   */\n      0x44\n      dup3\n      add\n        /* \"#utility.yul\":28108:28170   */\n      mstore\n      shl(0x92, 0x0818da185b9b995b08185b195c9d)\n        /* \"#utility.yul\":28186:28204   */\n      0x64\n      dup3\n      add\n        /* \"#utility.yul\":28179:28223   */\n      mstore\n        /* \"#utility.yul\":28240:28259   */\n      0x84\n      add\n        /* \"contracts/DashBoard.sol\":9776:10116  require(... */\n      tag_247\n        /* \"#utility.yul\":27855:28265   */\n      jump\n        /* \"contracts/DashBoard.sol\":9776:10116  require(... */\n    tag_530:\n        /* \"contracts/DashBoard.sol\":10153:10167  _channelBound2 */\n      dup3\n        /* \"contracts/DashBoard.sol\":10135:10149  _channelBound1 */\n      dup5\n        /* \"contracts/DashBoard.sol\":10135:10167  _channelBound1 != _channelBound2 */\n      sub\n        /* \"contracts/DashBoard.sol\":10127:10215  require(_channelBound1 != _channelBound2, \"Dashboard: Channel bounds must be different\") */\n      tag_533\n      jumpi\n      mload(0x40)\n      shl(0xe5, 0x461bcd)\n      dup2\n      mstore\n        /* \"#utility.yul\":28472:28474   */\n      0x20\n        /* \"contracts/DashBoard.sol\":10127:10215  require(_channelBound1 != _channelBound2, \"Dashboard: Channel bounds must be different\") */\n      0x04\n      dup3\n      add\n        /* \"#utility.yul\":28454:28475   */\n      mstore\n        /* \"#utility.yul\":28511:28513   */\n      0x2b\n        /* \"#utility.yul\":28491:28509   */\n      0x24\n      dup3\n      add\n        /* \"#utility.yul\":28484:28514   */\n      mstore\n        /* \"#utility.yul\":28550:28584   */\n      0x44617368626f6172643a204368616e6e656c20626f756e6473206d7573742062\n        /* \"#utility.yul\":28530:28548   */\n      0x44\n      dup3\n      add\n        /* \"#utility.yul\":28523:28585   */\n      mstore\n      shl(0xaa, 0x1948191a5999995c995b9d)\n        /* \"#utility.yul\":28601:28619   */\n      0x64\n      dup3\n      add\n        /* \"#utility.yul\":28594:28635   */\n      mstore\n        /* \"#utility.yul\":28652:28671   */\n      0x84\n      add\n        /* \"contracts/DashBoard.sol\":10127:10215  require(_channelBound1 != _channelBound2, \"Dashboard: Channel bounds must be different\") */\n      tag_247\n        /* \"#utility.yul\":28270:28677   */\n      jump\n        /* \"contracts/DashBoard.sol\":10127:10215  require(_channelBound1 != _channelBound2, \"Dashboard: Channel bounds must be different\") */\n    tag_533:\n        /* \"contracts/DashBoard.sol\":10232:10248  userNetflowAlert */\n      0x12\n        /* \"contracts/DashBoard.sol\":10232:10251  userNetflowAlert.id */\n      sload\n      0x00\n        /* \"contracts/DashBoard.sol\":10232:10256  userNetflowAlert.id == 0 */\n      sub\n        /* \"contracts/DashBoard.sol\":10228:10321  if (userNetflowAlert.id == 0) {... */\n      tag_536\n      jumpi\n        /* \"contracts/DashBoard.sol\":10296:10307  nextAlertId */\n      0x19\n        /* \"contracts/DashBoard.sol\":10296:10309  nextAlertId++ */\n      dup1\n      sload\n      swap1\n        /* \"contracts/DashBoard.sol\":10296:10307  nextAlertId */\n      0x00\n        /* \"contracts/DashBoard.sol\":10296:10309  nextAlertId++ */\n      tag_537\n      dup4\n      tag_250\n      jump\t// in\n    tag_537:\n      swap1\n      swap2\n      sstore\n      pop\n        /* \"contracts/DashBoard.sol\":10274:10290  userNetflowAlert */\n      0x12\n        /* \"contracts/DashBoard.sol\":10274:10309  userNetflowAlert.id = nextAlertId++ */\n      sstore\n        /* \"contracts/DashBoard.sol\":10228:10321  if (userNetflowAlert.id == 0) {... */\n    tag_536:\n        /* \"contracts/DashBoard.sol\":10352:10363  nextAlertId */\n      0x19\n        /* \"contracts/DashBoard.sol\":10352:10365  nextAlertId++ */\n      dup1\n      sload\n        /* \"contracts/DashBoard.sol\":10331:10349  uint256 newAlertId */\n      0x00\n      swap2\n      dup3\n        /* \"contracts/DashBoard.sol\":10352:10365  nextAlertId++ */\n      tag_538\n      dup4\n      tag_250\n      jump\t// in\n    tag_538:\n      swap1\n      swap2\n      sstore\n      pop\n        /* \"contracts/DashBoard.sol\":10416:10437  userNetflowAlert.user */\n      0x13\n        /* \"contracts/DashBoard.sol\":10416:10450  userNetflowAlert.user = msg.sender */\n      dup1\n      sload\n      not(sub(shl(0xa0, 0x01), 0x01))\n      dup2\n      and\n        /* \"contracts/DashBoard.sol\":10440:10450  msg.sender */\n      caller\n        /* \"contracts/DashBoard.sol\":10416:10450  userNetflowAlert.user = msg.sender */\n      swap1\n      dup2\n      or\n      dup4\n      sstore\n        /* \"contracts/DashBoard.sol\":10331:10365  uint256 newAlertId = nextAlertId++ */\n      swap3\n      swap4\n      pop\n        /* \"contracts/DashBoard.sol\":10376:10385  int256 t1 */\n      0x00\n      swap3\n      dup4\n      swap3\n        /* \"contracts/DashBoard.sol\":10490:10500  _condition */\n      dup11\n      swap3\n        /* \"contracts/DashBoard.sol\":10416:10437  userNetflowAlert.user */\n      swap1\n      swap2\n      not(shl(0xa0, 0xff))\n        /* \"contracts/DashBoard.sol\":10461:10500  userNetflowAlert.condition = _condition */\n      and\n      not(sub(shl(0xa8, 0x01), 0x01))\n      swap1\n      swap2\n      and\n      or\n      shl(0xa0, 0x01)\n        /* \"contracts/DashBoard.sol\":10490:10500  _condition */\n      dup4\n        /* \"contracts/DashBoard.sol\":10461:10500  userNetflowAlert.condition = _condition */\n      0x0c\n      dup2\n      gt\n      iszero\n      tag_540\n      jumpi\n      tag_540\n      tag_208\n      jump\t// in\n    tag_540:\n      mul\n      or\n      swap1\n      sstore\n      pop\n        /* \"contracts/DashBoard.sol\":10532:10546  _channelBound2 */\n      dup6\n        /* \"contracts/DashBoard.sol\":10515:10529  _channelBound1 */\n      dup8\n        /* \"contracts/DashBoard.sol\":10515:10546  _channelBound1 < _channelBound2 */\n      slt\n        /* \"contracts/DashBoard.sol\":10511:10814  if (_channelBound1 < _channelBound2) {... */\n      iszero\n      tag_541\n      jumpi\n        /* \"contracts/DashBoard.sol\":10563:10590  userNetflowAlert.threshold1 */\n      0x14\n        /* \"contracts/DashBoard.sol\":10563:10607  userNetflowAlert.threshold1 = _channelBound1 */\n      dup8\n      swap1\n      sstore\n        /* \"contracts/DashBoard.sol\":10622:10649  userNetflowAlert.threshold2 */\n      0x15\n        /* \"contracts/DashBoard.sol\":10622:10666  userNetflowAlert.threshold2 = _channelBound2 */\n      dup7\n      swap1\n      sstore\n        /* \"contracts/DashBoard.sol\":10511:10814  if (_channelBound1 < _channelBound2) {... */\n      jump(tag_542)\n    tag_541:\n        /* \"contracts/DashBoard.sol\":10699:10726  userNetflowAlert.threshold1 */\n      0x14\n        /* \"contracts/DashBoard.sol\":10699:10743  userNetflowAlert.threshold1 = _channelBound2 */\n      dup7\n      swap1\n      sstore\n        /* \"contracts/DashBoard.sol\":10758:10785  userNetflowAlert.threshold2 */\n      0x15\n        /* \"contracts/DashBoard.sol\":10758:10802  userNetflowAlert.threshold2 = _channelBound1 */\n      dup8\n      swap1\n      sstore\n        /* \"contracts/DashBoard.sol\":10511:10814  if (_channelBound1 < _channelBound2) {... */\n    tag_542:\n        /* \"contracts/DashBoard.sol\":10824:10848  userNetflowAlert.message */\n      0x18\n        /* \"contracts/DashBoard.sol\":10824:10859  userNetflowAlert.message = _message */\n      tag_543\n        /* \"contracts/DashBoard.sol\":10851:10859  _message */\n      dup6\n      dup8\n        /* \"contracts/DashBoard.sol\":10824:10848  userNetflowAlert.message */\n      dup4\n        /* \"contracts/DashBoard.sol\":10824:10859  userNetflowAlert.message = _message */\n      tag_258\n      jump\t// in\n    tag_543:\n      pop\n        /* \"contracts/DashBoard.sol\":10870:10895  userNetflowAlert.isActive */\n      0x16\n        /* \"contracts/DashBoard.sol\":10870:10902  userNetflowAlert.isActive = true */\n      dup1\n      sload\n      not(0xffff)\n        /* \"contracts/DashBoard.sol\":10913:10949  userNetflowAlert.isTriggered = false */\n      and\n        /* \"contracts/DashBoard.sol\":10898:10902  true */\n      0x01\n        /* \"contracts/DashBoard.sol\":10913:10949  userNetflowAlert.isTriggered = false */\n      or\n      swap1\n      sstore\n        /* \"contracts/DashBoard.sol\":10870:10895  userNetflowAlert.isActive */\n      0x00\n        /* \"contracts/DashBoard.sol\":10960:10992  userNetflowAlert.lastTriggeredAt */\n      0x17\n        /* \"contracts/DashBoard.sol\":10960:10996  userNetflowAlert.lastTriggeredAt = 0 */\n      dup2\n      swap1\n      sstore\n        /* \"contracts/DashBoard.sol\":11048:11354  NetflowAlert({... */\n      0x40\n      dup1\n      mload\n      0x0120\n      dup2\n      add\n      dup3\n      mstore\n      dup6\n      dup2\n      mstore\n        /* \"contracts/DashBoard.sol\":11111:11121  msg.sender */\n      caller\n        /* \"contracts/DashBoard.sol\":11048:11354  NetflowAlert({... */\n      0x20\n      dup3\n      add\n      mstore\n      swap1\n      dup2\n      add\n        /* \"contracts/DashBoard.sol\":11147:11157  _condition */\n      dup11\n        /* \"contracts/DashBoard.sol\":11048:11354  NetflowAlert({... */\n      0x0c\n      dup2\n      gt\n      iszero\n      tag_545\n      jumpi\n      tag_545\n      tag_208\n      jump\t// in\n    tag_545:\n      dup2\n      mstore\n      0x20\n      add\n        /* \"contracts/DashBoard.sol\":11184:11186  t1 */\n      dup5\n        /* \"contracts/DashBoard.sol\":11048:11354  NetflowAlert({... */\n      dup2\n      mstore\n      0x20\n      add\n        /* \"contracts/DashBoard.sol\":11213:11215  t2 */\n      dup4\n        /* \"contracts/DashBoard.sol\":11048:11354  NetflowAlert({... */\n      dup2\n      mstore\n      0x20\n      add\n        /* \"contracts/DashBoard.sol\":11272:11276  true */\n      0x01\n        /* \"contracts/DashBoard.sol\":11048:11354  NetflowAlert({... */\n      iszero\n      iszero\n      dup2\n      mstore\n      0x20\n      add\n        /* \"contracts/DashBoard.sol\":11304:11309  false */\n      0x00\n        /* \"contracts/DashBoard.sol\":11048:11354  NetflowAlert({... */\n      iszero\n      iszero\n      dup2\n      mstore\n      0x20\n      add\n        /* \"contracts/DashBoard.sol\":11341:11342  0 */\n      0x00\n        /* \"contracts/DashBoard.sol\":11048:11354  NetflowAlert({... */\n      dup2\n      mstore\n      0x20\n      add\n        /* \"contracts/DashBoard.sol\":11239:11247  _message */\n      dup8\n      dup8\n        /* \"contracts/DashBoard.sol\":11048:11354  NetflowAlert({... */\n      dup1\n      dup1\n      0x1f\n      add\n      0x20\n      dup1\n      swap2\n      div\n      mul\n      0x20\n      add\n      mload(0x40)\n      swap1\n      dup2\n      add\n      0x40\n      mstore\n      dup1\n      swap4\n      swap3\n      swap2\n      swap1\n      dup2\n      dup2\n      mstore\n      0x20\n      add\n      dup4\n      dup4\n      dup1\n      dup3\n      dup5\n      calldatacopy\n      0x00\n      swap3\n      add\n      dup3\n      swap1\n      mstore\n      pop\n      swap4\n      swap1\n      swap5\n      mstore\n      pop\n      pop\n        /* \"contracts/DashBoard.sol\":11365:11382  userNetflowAlerts */\n      0x03\n        /* \"contracts/DashBoard.sol\":11365:11397  userNetflowAlerts.push(newAlert) */\n      dup1\n      sload\n      0x01\n      dup2\n      add\n      dup3\n      sstore\n      swap2\n      mstore\n      dup3\n      mload\n      0x07\n      swap1\n      swap2\n      mul\n      0xc2575a0e9e593c00f959f8c92f12db2869c3395a3b0502d05e2516446f71f85b\n      dup2\n      add\n      swap2\n      dup3\n      sstore\n      0x20\n      dup5\n      add\n      mload\n      0xc2575a0e9e593c00f959f8c92f12db2869c3395a3b0502d05e2516446f71f85c\n      swap1\n      swap2\n      add\n      dup1\n      sload\n      sub(shl(0xa0, 0x01), 0x01)\n      swap1\n      swap3\n      and\n      not(sub(shl(0xa0, 0x01), 0x01))\n      dup4\n      and\n      dup2\n      or\n      dup3\n      sstore\n      0x40\n      dup7\n      add\n      mload\n        /* \"contracts/DashBoard.sol\":11017:11354  NetflowAlert memory newAlert = NetflowAlert({... */\n      swap6\n      swap7\n      pop\n      dup7\n      swap6\n        /* \"contracts/DashBoard.sol\":11365:11397  userNetflowAlerts.push(newAlert) */\n      swap4\n      swap5\n      pop\n      swap1\n      swap2\n      not(sub(shl(0xa8, 0x01), 0x01))\n      and\n      or\n      shl(0xa0, 0x01)\n      dup4\n      0x0c\n      dup2\n      gt\n      iszero\n      tag_548\n      jumpi\n      tag_548\n      tag_208\n      jump\t// in\n    tag_548:\n      mul\n      or\n      swap1\n      sstore\n      pop\n      0x60\n      dup3\n      add\n      mload\n      0x02\n      dup3\n      add\n      sstore\n      0x80\n      dup3\n      add\n      mload\n      0x03\n      dup3\n      add\n      sstore\n      0xa0\n      dup3\n      add\n      mload\n      0x04\n      dup3\n      add\n      dup1\n      sload\n      0xc0\n      dup6\n      add\n      mload\n      not(0xffff)\n      swap1\n      swap2\n      and\n      swap3\n      iszero\n      iszero\n      not(0xff00)\n      and\n      swap3\n      swap1\n      swap3\n      or\n      0x0100\n      swap3\n      iszero\n      iszero\n      dup4\n      mul\n      or\n      swap1\n      sstore\n      0xe0\n      dup4\n      add\n      mload\n      0x05\n      dup4\n      add\n      sstore\n      dup3\n      add\n      mload\n      0x06\n      dup3\n      add\n      swap1\n      tag_549\n      swap1\n      dup3\n      tag_263\n      jump\t// in\n    tag_549:\n      pop\n      pop\n        /* \"contracts/DashBoard.sol\":11429:11445  userNetflowAlert */\n      0x12\n        /* \"contracts/DashBoard.sol\":11429:11448  userNetflowAlert.id */\n      sload\n        /* \"contracts/DashBoard.sol\":11474:11501  userNetflowAlert.threshold1 */\n      sload(0x14)\n        /* \"contracts/DashBoard.sol\":11503:11530  userNetflowAlert.threshold2 */\n      sload(0x15)\n        /* \"contracts/DashBoard.sol\":11413:11541  AlertConfigured(userNetflowAlert.id, msg.sender, _condition, userNetflowAlert.threshold1, userNetflowAlert.threshold2, _message) */\n      mload(0x40)\n        /* \"contracts/DashBoard.sol\":11450:11460  msg.sender */\n      caller\n      swap5\n      pop\n        /* \"contracts/DashBoard.sol\":11413:11541  AlertConfigured(userNetflowAlert.id, msg.sender, _condition, userNetflowAlert.threshold1, userNetflowAlert.threshold2, _message) */\n      0x778334af3114ade8967680fbf1e80e8e34dbe95416246aaef26907ae22cdd358\n      swap3\n      tag_550\n      swap3\n        /* \"contracts/DashBoard.sol\":11462:11472  _condition */\n      dup16\n      swap3\n        /* \"contracts/DashBoard.sol\":11532:11540  _message */\n      dup14\n      swap1\n      dup14\n      swap1\n        /* \"contracts/DashBoard.sol\":11413:11541  AlertConfigured(userNetflowAlert.id, msg.sender, _condition, userNetflowAlert.threshold1, userNetflowAlert.threshold2, _message) */\n      tag_265\n      jump\t// in\n    tag_550:\n      mload(0x40)\n      dup1\n      swap2\n      sub\n      swap1\n      log3\n        /* \"contracts/DashBoard.sol\":9765:11549  {... */\n      pop\n      pop\n      pop\n      pop\n        /* \"contracts/DashBoard.sol\":9575:11549  function DoubleNetflowAlert( ... */\n      pop\n      pop\n      pop\n      pop\n      pop\n      jump\t// out\n        /* \"@openzeppelin/contracts/access/Ownable.sol\":2543:2758  function transferOwnership(address newOwner) public virtual onlyOwner {... */\n    tag_168:\n        /* \"@openzeppelin/contracts/access/Ownable.sol\":1531:1544  _checkOwner() */\n      tag_553\n        /* \"@openzeppelin/contracts/access/Ownable.sol\":1531:1542  _checkOwner */\n      tag_204\n        /* \"@openzeppelin/contracts/access/Ownable.sol\":1531:1544  _checkOwner() */\n      jump\t// in\n    tag_553:\n      sub(shl(0xa0, 0x01), 0x01)\n        /* \"@openzeppelin/contracts/access/Ownable.sol\":2627:2649  newOwner == address(0) */\n      dup2\n      and\n        /* \"@openzeppelin/contracts/access/Ownable.sol\":2623:2714  if (newOwner == address(0)) {... */\n      tag_555\n      jumpi\n        /* \"@openzeppelin/contracts/access/Ownable.sol\":2672:2703  OwnableInvalidOwner(address(0)) */\n      mload(0x40)\n      shl(0xe0, 0x1e4fbdf7)\n      dup2\n      mstore\n        /* \"@openzeppelin/contracts/access/Ownable.sol\":2700:2701  0 */\n      0x00\n        /* \"@openzeppelin/contracts/access/Ownable.sol\":2672:2703  OwnableInvalidOwner(address(0)) */\n      0x04\n      dup3\n      add\n        /* \"#utility.yul\":10830:10881   */\n      mstore\n        /* \"#utility.yul\":10803:10821   */\n      0x24\n      add\n        /* \"@openzeppelin/contracts/access/Ownable.sol\":2672:2703  OwnableInvalidOwner(address(0)) */\n      tag_247\n        /* \"#utility.yul\":10684:10887   */\n      jump\n        /* \"@openzeppelin/contracts/access/Ownable.sol\":2623:2714  if (newOwner == address(0)) {... */\n    tag_555:\n        /* \"@openzeppelin/contracts/access/Ownable.sol\":2723:2751  _transferOwnership(newOwner) */\n      tag_417\n        /* \"@openzeppelin/contracts/access/Ownable.sol\":2742:2750  newOwner */\n      dup2\n        /* \"@openzeppelin/contracts/access/Ownable.sol\":2723:2741  _transferOwnership */\n      tag_323\n        /* \"@openzeppelin/contracts/access/Ownable.sol\":2723:2751  _transferOwnership(newOwner) */\n      jump\t// in\n        /* \"contracts/DashBoard.sol\":16047:16231  function getNarrativePerformance(string calldata _narrativeName) external view returns (NarrativePerformanceInfo memory) {... */\n    tag_171:\n        /* \"contracts/DashBoard.sol\":16135:16166  NarrativePerformanceInfo memory */\n      tag_558\n      mload(0x40)\n      dup1\n      0x60\n      add\n      0x40\n      mstore\n      dup1\n      0x60\n      dup2\n      mstore\n      0x20\n      add\n      0x00\n      dup2\n      mstore\n      0x20\n      add\n      0x00\n      dup2\n      mstore\n      pop\n      swap1\n      jump\n    tag_558:\n        /* \"contracts/DashBoard.sol\":16186:16207  narrativePerformances */\n      0x0b\n        /* \"contracts/DashBoard.sol\":16208:16222  _narrativeName */\n      dup4\n      dup4\n        /* \"contracts/DashBoard.sol\":16186:16223  narrativePerformances[_narrativeName] */\n      mload(0x40)\n      tag_561\n      swap3\n      swap2\n      swap1\n      tag_295\n      jump\t// in\n    tag_561:\n      swap1\n      dup2\n      mstore\n      0x20\n      add\n      mload(0x40)\n      dup1\n      swap2\n      sub\n      swap1\n      keccak256\n        /* \"contracts/DashBoard.sol\":16179:16223  return narrativePerformances[_narrativeName] */\n      mload(0x40)\n      dup1\n      0x60\n      add\n      0x40\n      mstore\n      swap1\n      dup2\n      0x00\n      dup3\n      add\n      dup1\n      sload\n      tag_562\n      swap1\n      tag_183\n      jump\t// in\n    tag_562:\n      dup1\n      0x1f\n      add\n      0x20\n      dup1\n      swap2\n      div\n      mul\n      0x20\n      add\n      mload(0x40)\n      swap1\n      dup2\n      add\n      0x40\n      mstore\n      dup1\n      swap3\n      swap2\n      swap1\n      dup2\n      dup2\n      mstore\n      0x20\n      add\n      dup3\n      dup1\n      sload\n      tag_563\n      swap1\n      tag_183\n      jump\t// in\n    tag_563:\n      dup1\n      iszero\n      tag_564\n      jumpi\n      dup1\n      0x1f\n      lt\n      tag_565\n      jumpi\n      0x0100\n      dup1\n      dup4\n      sload\n      div\n      mul\n      dup4\n      mstore\n      swap2\n      0x20\n      add\n      swap2\n      jump(tag_564)\n    tag_565:\n      dup3\n      add\n      swap2\n      swap1\n      0x00\n      mstore\n      keccak256(0x00, 0x20)\n      swap1\n    tag_566:\n      dup2\n      sload\n      dup2\n      mstore\n      swap1\n      0x01\n      add\n      swap1\n      0x20\n      add\n      dup1\n      dup4\n      gt\n      tag_566\n      jumpi\n      dup3\n      swap1\n      sub\n      0x1f\n      and\n      dup3\n      add\n      swap2\n    tag_564:\n      pop\n      pop\n      pop\n      pop\n      pop\n      dup2\n      mstore\n      0x20\n      add\n      0x01\n      dup3\n      add\n      sload\n      dup2\n      mstore\n      0x20\n      add\n      0x02\n      dup3\n      add\n      sload\n      dup2\n      mstore\n      pop\n      pop\n      swap1\n      pop\n        /* \"contracts/DashBoard.sol\":16047:16231  function getNarrativePerformance(string calldata _narrativeName) external view returns (NarrativePerformanceInfo memory) {... */\n      swap3\n      swap2\n      pop\n      pop\n      jump\t// out\n        /* \"contracts/DashBoard.sol\":817:871  AssetPerformanceInfo[] public topUnderperformingAssets */\n    tag_176:\n      0x0f\n      dup2\n      dup2\n      sload\n      dup2\n      lt\n      tag_280\n      jumpi\n      0x00\n      dup1\n      revert\n        /* \"@openzeppelin/contracts/access/Ownable.sol\":1796:1958  function _checkOwner() internal view virtual {... */\n    tag_204:\n        /* \"@openzeppelin/contracts/access/Ownable.sol\":1684:1691  address */\n      0x00\n        /* \"@openzeppelin/contracts/access/Ownable.sol\":1710:1716  _owner */\n      sload\n      sub(shl(0xa0, 0x01), 0x01)\n      and\n        /* \"@openzeppelin/contracts/utils/Context.sol\":735:745  msg.sender */\n      caller\n        /* \"@openzeppelin/contracts/access/Ownable.sol\":1855:1878  owner() != _msgSender() */\n      eq\n        /* \"@openzeppelin/contracts/access/Ownable.sol\":1851:1952  if (owner() != _msgSender()) {... */\n      tag_270\n      jumpi\n        /* \"@openzeppelin/contracts/access/Ownable.sol\":1901:1941  OwnableUnauthorizedAccount(_msgSender()) */\n      mload(0x40)\n      shl(0xe0, 0x118cdaa7)\n      dup2\n      mstore\n        /* \"@openzeppelin/contracts/utils/Context.sol\":735:745  msg.sender */\n      caller\n        /* \"@openzeppelin/contracts/access/Ownable.sol\":1901:1941  OwnableUnauthorizedAccount(_msgSender()) */\n      0x04\n      dup3\n      add\n        /* \"#utility.yul\":10830:10881   */\n      mstore\n        /* \"#utility.yul\":10803:10821   */\n      0x24\n      add\n        /* \"@openzeppelin/contracts/access/Ownable.sol\":1901:1941  OwnableUnauthorizedAccount(_msgSender()) */\n      tag_247\n        /* \"#utility.yul\":10684:10887   */\n      jump\n        /* \"@openzeppelin/contracts/access/Ownable.sol\":2912:3099  function _transferOwnership(address newOwner) internal virtual {... */\n    tag_323:\n        /* \"@openzeppelin/contracts/access/Ownable.sol\":2985:3001  address oldOwner */\n      0x00\n        /* \"@openzeppelin/contracts/access/Ownable.sol\":3004:3010  _owner */\n      dup1\n      sload\n      sub(shl(0xa0, 0x01), 0x01)\n        /* \"@openzeppelin/contracts/access/Ownable.sol\":3020:3037  _owner = newOwner */\n      dup4\n      dup2\n      and\n      not(sub(shl(0xa0, 0x01), 0x01))\n      dup4\n      and\n      dup2\n      or\n      dup5\n      sstore\n        /* \"@openzeppelin/contracts/access/Ownable.sol\":3052:3092  OwnershipTransferred(oldOwner, newOwner) */\n      mload(0x40)\n        /* \"@openzeppelin/contracts/access/Ownable.sol\":3004:3010  _owner */\n      swap2\n      swap1\n      swap3\n      and\n      swap3\n      dup4\n      swap2\n        /* \"@openzeppelin/contracts/access/Ownable.sol\":3052:3092  OwnershipTransferred(oldOwner, newOwner) */\n      0x8be0079c531659141344cd1fd0a4f28419497f9722a3daafe3b4186f6b6457e0\n      swap2\n        /* \"@openzeppelin/contracts/access/Ownable.sol\":2985:3001  address oldOwner */\n      swap1\n        /* \"@openzeppelin/contracts/access/Ownable.sol\":3052:3092  OwnershipTransferred(oldOwner, newOwner) */\n      log3\n        /* \"@openzeppelin/contracts/access/Ownable.sol\":2975:3099  {... */\n      pop\n        /* \"@openzeppelin/contracts/access/Ownable.sol\":2912:3099  function _transferOwnership(address newOwner) internal virtual {... */\n      pop\n      jump\t// out\n        /* \"contracts/DashBoard.sol\":11601:14846  function checkAndTriggerAlert(... */\n    tag_418:\n        /* \"contracts/DashBoard.sol\":11741:11766  userNetflowAlert.isActive */\n      and(0xff, sload(0x16))\n        /* \"contracts/DashBoard.sol\":11740:11766  !userNetflowAlert.isActive */\n      iszero\n      dup1\n        /* \"contracts/DashBoard.sol\":11740:11798  !userNetflowAlert.isActive || userNetflowAlert.isTriggered */\n      tag_583\n      jumpi\n      pop\n        /* \"contracts/DashBoard.sol\":11770:11798  userNetflowAlert.isTriggered */\n      sload(0x16)\n      0x0100\n      swap1\n      div\n      0xff\n      and\n        /* \"contracts/DashBoard.sol\":11740:11798  !userNetflowAlert.isActive || userNetflowAlert.isTriggered */\n    tag_583:\n        /* \"contracts/DashBoard.sol\":11740:11826  !userNetflowAlert.isActive || userNetflowAlert.isTriggered || userNetflowAlert.id == 0 */\n      dup1\n      tag_584\n      jumpi\n      pop\n        /* \"contracts/DashBoard.sol\":11802:11818  userNetflowAlert */\n      0x12\n        /* \"contracts/DashBoard.sol\":11802:11821  userNetflowAlert.id */\n      sload\n        /* \"contracts/DashBoard.sol\":11802:11826  userNetflowAlert.id == 0 */\n      iszero\n        /* \"contracts/DashBoard.sol\":11740:11826  !userNetflowAlert.isActive || userNetflowAlert.isTriggered || userNetflowAlert.id == 0 */\n    tag_584:\n        /* \"contracts/DashBoard.sol\":11736:11861  if (!userNetflowAlert.isActive || userNetflowAlert.isTriggered || userNetflowAlert.id == 0) {... */\n      iszero\n      tag_585\n      jumpi\n        /* \"contracts/DashBoard.sol\":11601:14846  function checkAndTriggerAlert(... */\n      pop\n      pop\n      pop\n      jump\t// out\n        /* \"contracts/DashBoard.sol\":11736:11861  if (!userNetflowAlert.isActive || userNetflowAlert.isTriggered || userNetflowAlert.id == 0) {... */\n    tag_585:\n        /* \"contracts/DashBoard.sol\":11931:11957  userNetflowAlert.condition */\n      sload(0x13)\n      0x14\n        /* \"contracts/DashBoard.sol\":11988:12015  userNetflowAlert.threshold1 */\n      sload\n        /* \"contracts/DashBoard.sol\":12119:12146  userNetflowAlert.threshold2 */\n      sload(0x15)\n        /* \"contracts/DashBoard.sol\":11871:11885  bool triggered */\n      0x00\n      swap3\n      shl(0xa0, 0x01)\n        /* \"contracts/DashBoard.sol\":11931:11957  userNetflowAlert.condition */\n      swap1\n      div\n      0xff\n      and\n      swap2\n        /* \"contracts/DashBoard.sol\":11988:12015  userNetflowAlert.threshold1 */\n      swap1\n      dup2\n      swap1\n        /* \"contracts/DashBoard.sol\":11931:11957  userNetflowAlert.condition */\n      0x01\n        /* \"contracts/DashBoard.sol\":12164:12173  condition */\n      dup5\n        /* \"contracts/DashBoard.sol\":12164:12204  condition == AlertCondition.GREATER_THAN */\n      0x0c\n      dup2\n      gt\n      iszero\n      tag_589\n      jumpi\n      tag_589\n      tag_208\n      jump\t// in\n    tag_589:\n      sub\n        /* \"contracts/DashBoard.sol\":12160:14566  if (condition == AlertCondition.GREATER_THAN) {... */\n      tag_590\n      jumpi\n        /* \"contracts/DashBoard.sol\":12241:12251  threshold1 */\n      dup3\n        /* \"contracts/DashBoard.sol\":12225:12238  _currentValue */\n      dup9\n        /* \"contracts/DashBoard.sol\":12225:12251  _currentValue > threshold1 */\n      sgt\n        /* \"contracts/DashBoard.sol\":12221:12269  if (_currentValue > threshold1) triggered = true */\n      iszero\n      tag_591\n      jumpi\n        /* \"contracts/DashBoard.sol\":12265:12269  true */\n      0x01\n        /* \"contracts/DashBoard.sol\":12253:12269  triggered = true */\n      swap5\n      pop\n        /* \"contracts/DashBoard.sol\":12221:12269  if (_currentValue > threshold1) triggered = true */\n    tag_591:\n        /* \"contracts/DashBoard.sol\":12160:14566  if (condition == AlertCondition.GREATER_THAN) {... */\n      jump(tag_682)\n    tag_590:\n        /* \"contracts/DashBoard.sol\":12304:12328  AlertCondition.LESS_THAN */\n      0x02\n        /* \"contracts/DashBoard.sol\":12291:12300  condition */\n      dup5\n        /* \"contracts/DashBoard.sol\":12291:12328  condition == AlertCondition.LESS_THAN */\n      0x0c\n      dup2\n      gt\n      iszero\n      tag_596\n      jumpi\n      tag_596\n      tag_208\n      jump\t// in\n    tag_596:\n      sub\n        /* \"contracts/DashBoard.sol\":12287:14566  if (condition == AlertCondition.LESS_THAN) {... */\n      tag_597\n      jumpi\n        /* \"contracts/DashBoard.sol\":12365:12375  threshold1 */\n      dup3\n        /* \"contracts/DashBoard.sol\":12349:12362  _currentValue */\n      dup9\n        /* \"contracts/DashBoard.sol\":12349:12375  _currentValue < threshold1 */\n      slt\n        /* \"contracts/DashBoard.sol\":12345:12393  if (_currentValue < threshold1) triggered = true */\n      iszero\n      tag_591\n      jumpi\n        /* \"contracts/DashBoard.sol\":12389:12393  true */\n      0x01\n        /* \"contracts/DashBoard.sol\":12377:12393  triggered = true */\n      swap5\n      pop\n        /* \"contracts/DashBoard.sol\":12287:14566  if (condition == AlertCondition.LESS_THAN) {... */\n      jump(tag_682)\n    tag_597:\n        /* \"contracts/DashBoard.sol\":12428:12451  AlertCondition.EQUAL_TO */\n      0x03\n        /* \"contracts/DashBoard.sol\":12415:12424  condition */\n      dup5\n        /* \"contracts/DashBoard.sol\":12415:12451  condition == AlertCondition.EQUAL_TO */\n      0x0c\n      dup2\n      gt\n      iszero\n      tag_603\n      jumpi\n      tag_603\n      tag_208\n      jump\t// in\n    tag_603:\n      sub\n        /* \"contracts/DashBoard.sol\":12411:14566  if (condition == AlertCondition.EQUAL_TO) {... */\n      tag_604\n      jumpi\n        /* \"contracts/DashBoard.sol\":12489:12499  threshold1 */\n      dup3\n        /* \"contracts/DashBoard.sol\":12472:12485  _currentValue */\n      dup9\n        /* \"contracts/DashBoard.sol\":12472:12499  _currentValue == threshold1 */\n      sub\n        /* \"contracts/DashBoard.sol\":12468:12517  if (_currentValue == threshold1) triggered = true */\n      tag_591\n      jumpi\n        /* \"contracts/DashBoard.sol\":12513:12517  true */\n      0x01\n        /* \"contracts/DashBoard.sol\":12501:12517  triggered = true */\n      swap5\n      pop\n        /* \"contracts/DashBoard.sol\":12411:14566  if (condition == AlertCondition.EQUAL_TO) {... */\n      jump(tag_682)\n    tag_604:\n        /* \"contracts/DashBoard.sol\":12539:12556  _hasPreviousValue */\n      dup6\n        /* \"contracts/DashBoard.sol\":12535:14566  if (_hasPreviousValue) {... */\n      iszero\n      tag_682\n      jumpi\n        /* \"contracts/DashBoard.sol\":12590:12613  AlertCondition.CROSSING */\n      0x04\n        /* \"contracts/DashBoard.sol\":12577:12586  condition */\n      dup5\n        /* \"contracts/DashBoard.sol\":12577:12613  condition == AlertCondition.CROSSING */\n      0x0c\n      dup2\n      gt\n      iszero\n      tag_611\n      jumpi\n      tag_611\n      tag_208\n      jump\t// in\n    tag_611:\n      sub\n        /* \"contracts/DashBoard.sol\":12573:14555  if (condition == AlertCondition.CROSSING) {... */\n      tag_612\n      jumpi\n        /* \"contracts/DashBoard.sol\":12656:12666  threshold1 */\n      dup3\n        /* \"contracts/DashBoard.sol\":12639:12653  _previousValue */\n      dup8\n        /* \"contracts/DashBoard.sol\":12639:12666  _previousValue < threshold1 */\n      slt\n        /* \"contracts/DashBoard.sol\":12639:12697  _previousValue < threshold1 && _currentValue >= threshold1 */\n      dup1\n      iszero\n      tag_613\n      jumpi\n      pop\n        /* \"contracts/DashBoard.sol\":12687:12697  threshold1 */\n      dup3\n        /* \"contracts/DashBoard.sol\":12670:12683  _currentValue */\n      dup9\n        /* \"contracts/DashBoard.sol\":12670:12697  _currentValue >= threshold1 */\n      slt\n      iszero\n        /* \"contracts/DashBoard.sol\":12639:12697  _previousValue < threshold1 && _currentValue >= threshold1 */\n    tag_613:\n        /* \"contracts/DashBoard.sol\":12638:12783  (_previousValue < threshold1 && _currentValue >= threshold1) ||... */\n      dup1\n      tag_615\n      jumpi\n      pop\n        /* \"contracts/DashBoard.sol\":12741:12751  threshold1 */\n      dup3\n        /* \"contracts/DashBoard.sol\":12724:12738  _previousValue */\n      dup8\n        /* \"contracts/DashBoard.sol\":12724:12751  _previousValue > threshold1 */\n      sgt\n        /* \"contracts/DashBoard.sol\":12724:12782  _previousValue > threshold1 && _currentValue <= threshold1 */\n      dup1\n      iszero\n      tag_615\n      jumpi\n      pop\n        /* \"contracts/DashBoard.sol\":12772:12782  threshold1 */\n      dup3\n        /* \"contracts/DashBoard.sol\":12755:12768  _currentValue */\n      dup9\n        /* \"contracts/DashBoard.sol\":12755:12782  _currentValue <= threshold1 */\n      sgt\n      iszero\n        /* \"contracts/DashBoard.sol\":12724:12782  _previousValue > threshold1 && _currentValue <= threshold1 */\n    tag_615:\n        /* \"contracts/DashBoard.sol\":12634:12801  if ((_previousValue < threshold1 && _currentValue >= threshold1) ||... */\n      iszero\n      tag_591\n      jumpi\n        /* \"contracts/DashBoard.sol\":12797:12801  true */\n      0x01\n        /* \"contracts/DashBoard.sol\":12785:12801  triggered = true */\n      swap5\n      pop\n        /* \"contracts/DashBoard.sol\":12573:14555  if (condition == AlertCondition.CROSSING) {... */\n      jump(tag_682)\n    tag_612:\n        /* \"contracts/DashBoard.sol\":12840:12866  AlertCondition.CROSSING_UP */\n      0x05\n        /* \"contracts/DashBoard.sol\":12827:12836  condition */\n      dup5\n        /* \"contracts/DashBoard.sol\":12827:12866  condition == AlertCondition.CROSSING_UP */\n      0x0c\n      dup2\n      gt\n      iszero\n      tag_621\n      jumpi\n      tag_621\n      tag_208\n      jump\t// in\n    tag_621:\n      sub\n        /* \"contracts/DashBoard.sol\":12823:14555  if (condition == AlertCondition.CROSSING_UP) {... */\n      tag_622\n      jumpi\n        /* \"contracts/DashBoard.sol\":12908:12918  threshold1 */\n      dup3\n        /* \"contracts/DashBoard.sol\":12891:12905  _previousValue */\n      dup8\n        /* \"contracts/DashBoard.sol\":12891:12918  _previousValue < threshold1 */\n      slt\n        /* \"contracts/DashBoard.sol\":12891:12949  _previousValue < threshold1 && _currentValue >= threshold1 */\n      dup1\n      iszero\n      tag_615\n      jumpi\n      pop\n        /* \"contracts/DashBoard.sol\":12939:12949  threshold1 */\n      dup3\n        /* \"contracts/DashBoard.sol\":12922:12935  _currentValue */\n      dup9\n        /* \"contracts/DashBoard.sol\":12922:12949  _currentValue >= threshold1 */\n      slt\n        /* \"contracts/DashBoard.sol\":12887:12967  if (_previousValue < threshold1 && _currentValue >= threshold1) triggered = true */\n      tag_591\n      jumpi\n        /* \"contracts/DashBoard.sol\":12963:12967  true */\n      0x01\n        /* \"contracts/DashBoard.sol\":12951:12967  triggered = true */\n      swap5\n      pop\n        /* \"contracts/DashBoard.sol\":12823:14555  if (condition == AlertCondition.CROSSING_UP) {... */\n      jump(tag_682)\n    tag_622:\n        /* \"contracts/DashBoard.sol\":13006:13034  AlertCondition.CROSSING_DOWN */\n      0x06\n        /* \"contracts/DashBoard.sol\":12993:13002  condition */\n      dup5\n        /* \"contracts/DashBoard.sol\":12993:13034  condition == AlertCondition.CROSSING_DOWN */\n      0x0c\n      dup2\n      gt\n      iszero\n      tag_629\n      jumpi\n      tag_629\n      tag_208\n      jump\t// in\n    tag_629:\n      sub\n        /* \"contracts/DashBoard.sol\":12989:14555  if (condition == AlertCondition.CROSSING_DOWN) {... */\n      tag_630\n      jumpi\n        /* \"contracts/DashBoard.sol\":13076:13086  threshold1 */\n      dup3\n        /* \"contracts/DashBoard.sol\":13059:13073  _previousValue */\n      dup8\n        /* \"contracts/DashBoard.sol\":13059:13086  _previousValue > threshold1 */\n      sgt\n        /* \"contracts/DashBoard.sol\":13059:13117  _previousValue > threshold1 && _currentValue <= threshold1 */\n      dup1\n      iszero\n      tag_615\n      jumpi\n      pop\n        /* \"contracts/DashBoard.sol\":13107:13117  threshold1 */\n      dup3\n        /* \"contracts/DashBoard.sol\":13090:13103  _currentValue */\n      dup9\n        /* \"contracts/DashBoard.sol\":13090:13117  _currentValue <= threshold1 */\n      sgt\n        /* \"contracts/DashBoard.sol\":13055:13135  if (_previousValue > threshold1 && _currentValue <= threshold1) triggered = true */\n      tag_591\n      jumpi\n        /* \"contracts/DashBoard.sol\":13131:13135  true */\n      0x01\n        /* \"contracts/DashBoard.sol\":13119:13135  triggered = true */\n      swap5\n      pop\n        /* \"contracts/DashBoard.sol\":12989:14555  if (condition == AlertCondition.CROSSING_DOWN) {... */\n      jump(tag_682)\n    tag_630:\n        /* \"contracts/DashBoard.sol\":13174:13205  AlertCondition.ENTERING_CHANNEL */\n      0x07\n        /* \"contracts/DashBoard.sol\":13161:13170  condition */\n      dup5\n        /* \"contracts/DashBoard.sol\":13161:13205  condition == AlertCondition.ENTERING_CHANNEL */\n      0x0c\n      dup2\n      gt\n      iszero\n      tag_637\n      jumpi\n      tag_637\n      tag_208\n      jump\t// in\n    tag_637:\n      sub\n        /* \"contracts/DashBoard.sol\":13157:14555  if (condition == AlertCondition.ENTERING_CHANNEL) {... */\n      tag_638\n      jumpi\n        /* \"contracts/DashBoard.sol\":13226:13248  bool previouslyOutside */\n      0x00\n        /* \"contracts/DashBoard.sol\":13269:13286  lowerChannelBound */\n      dup3\n        /* \"contracts/DashBoard.sol\":13252:13266  _previousValue */\n      dup9\n        /* \"contracts/DashBoard.sol\":13252:13286  _previousValue < lowerChannelBound */\n      slt\n        /* \"contracts/DashBoard.sol\":13252:13324  _previousValue < lowerChannelBound || _previousValue > upperChannelBound */\n      dup1\n      tag_639\n      jumpi\n      pop\n        /* \"contracts/DashBoard.sol\":13307:13324  upperChannelBound */\n      dup2\n        /* \"contracts/DashBoard.sol\":13290:13304  _previousValue */\n      dup9\n        /* \"contracts/DashBoard.sol\":13290:13324  _previousValue > upperChannelBound */\n      sgt\n        /* \"contracts/DashBoard.sol\":13252:13324  _previousValue < lowerChannelBound || _previousValue > upperChannelBound */\n    tag_639:\n        /* \"contracts/DashBoard.sol\":13226:13325  bool previouslyOutside = (_previousValue < lowerChannelBound || _previousValue > upperChannelBound) */\n      swap1\n      pop\n        /* \"contracts/DashBoard.sol\":13344:13364  bool currentlyInside */\n      0x00\n        /* \"contracts/DashBoard.sol\":13385:13402  lowerChannelBound */\n      dup4\n        /* \"contracts/DashBoard.sol\":13368:13381  _currentValue */\n      dup11\n        /* \"contracts/DashBoard.sol\":13368:13402  _currentValue >= lowerChannelBound */\n      slt\n      iszero\n        /* \"contracts/DashBoard.sol\":13368:13440  _currentValue >= lowerChannelBound && _currentValue <= upperChannelBound */\n      dup1\n      iszero\n      tag_640\n      jumpi\n      pop\n        /* \"contracts/DashBoard.sol\":13423:13440  upperChannelBound */\n      dup3\n        /* \"contracts/DashBoard.sol\":13406:13419  _currentValue */\n      dup11\n        /* \"contracts/DashBoard.sol\":13406:13440  _currentValue <= upperChannelBound */\n      sgt\n      iszero\n        /* \"contracts/DashBoard.sol\":13368:13440  _currentValue >= lowerChannelBound && _currentValue <= upperChannelBound */\n    tag_640:\n        /* \"contracts/DashBoard.sol\":13344:13441  bool currentlyInside = (_currentValue >= lowerChannelBound && _currentValue <= upperChannelBound) */\n      swap1\n      pop\n        /* \"contracts/DashBoard.sol\":13464:13481  previouslyOutside */\n      dup2\n        /* \"contracts/DashBoard.sol\":13464:13500  previouslyOutside && currentlyInside */\n      dup1\n      iszero\n      tag_641\n      jumpi\n      pop\n        /* \"contracts/DashBoard.sol\":13485:13500  currentlyInside */\n      dup1\n        /* \"contracts/DashBoard.sol\":13464:13500  previouslyOutside && currentlyInside */\n    tag_641:\n        /* \"contracts/DashBoard.sol\":13460:13518  if (previouslyOutside && currentlyInside) triggered = true */\n      iszero\n      tag_642\n      jumpi\n        /* \"contracts/DashBoard.sol\":13514:13518  true */\n      0x01\n        /* \"contracts/DashBoard.sol\":13502:13518  triggered = true */\n      swap7\n      pop\n        /* \"contracts/DashBoard.sol\":13460:13518  if (previouslyOutside && currentlyInside) triggered = true */\n    tag_642:\n        /* \"contracts/DashBoard.sol\":13207:13534  {... */\n      pop\n      pop\n        /* \"contracts/DashBoard.sol\":13157:14555  if (condition == AlertCondition.ENTERING_CHANNEL) {... */\n      jump(tag_682)\n    tag_638:\n        /* \"contracts/DashBoard.sol\":13557:13587  AlertCondition.EXITING_CHANNEL */\n      0x08\n        /* \"contracts/DashBoard.sol\":13544:13553  condition */\n      dup5\n        /* \"contracts/DashBoard.sol\":13544:13587  condition == AlertCondition.EXITING_CHANNEL */\n      0x0c\n      dup2\n      gt\n      iszero\n      tag_647\n      jumpi\n      tag_647\n      tag_208\n      jump\t// in\n    tag_647:\n      sub\n        /* \"contracts/DashBoard.sol\":13540:14555  if (condition == AlertCondition.EXITING_CHANNEL) {... */\n      tag_648\n      jumpi\n        /* \"contracts/DashBoard.sol\":13608:13629  bool previouslyInside */\n      0x00\n        /* \"contracts/DashBoard.sol\":13651:13668  lowerChannelBound */\n      dup3\n        /* \"contracts/DashBoard.sol\":13633:13647  _previousValue */\n      dup9\n        /* \"contracts/DashBoard.sol\":13633:13668  _previousValue >= lowerChannelBound */\n      slt\n      iszero\n        /* \"contracts/DashBoard.sol\":13633:13707  _previousValue >= lowerChannelBound && _previousValue <= upperChannelBound */\n      dup1\n      iszero\n      tag_649\n      jumpi\n      pop\n        /* \"contracts/DashBoard.sol\":13690:13707  upperChannelBound */\n      dup2\n        /* \"contracts/DashBoard.sol\":13672:13686  _previousValue */\n      dup9\n        /* \"contracts/DashBoard.sol\":13672:13707  _previousValue <= upperChannelBound */\n      sgt\n      iszero\n        /* \"contracts/DashBoard.sol\":13633:13707  _previousValue >= lowerChannelBound && _previousValue <= upperChannelBound */\n    tag_649:\n        /* \"contracts/DashBoard.sol\":13608:13708  bool previouslyInside = (_previousValue >= lowerChannelBound && _previousValue <= upperChannelBound) */\n      swap1\n      pop\n        /* \"contracts/DashBoard.sol\":13727:13748  bool currentlyOutside */\n      0x00\n        /* \"contracts/DashBoard.sol\":13768:13785  lowerChannelBound */\n      dup4\n        /* \"contracts/DashBoard.sol\":13752:13765  _currentValue */\n      dup11\n        /* \"contracts/DashBoard.sol\":13752:13785  _currentValue < lowerChannelBound */\n      slt\n        /* \"contracts/DashBoard.sol\":13752:13822  _currentValue < lowerChannelBound || _currentValue > upperChannelBound */\n      dup1\n      tag_640\n      jumpi\n      pop\n      pop\n        /* \"contracts/DashBoard.sol\":13789:13822  _currentValue > upperChannelBound */\n      dup2\n      dup10\n      sgt\n        /* \"contracts/DashBoard.sol\":13846:13862  previouslyInside */\n      dup2\n        /* \"contracts/DashBoard.sol\":13846:13882  previouslyInside && currentlyOutside */\n      dup1\n      iszero\n      tag_641\n      jumpi\n      pop\n        /* \"contracts/DashBoard.sol\":13866:13882  currentlyOutside */\n      dup1\n        /* \"contracts/DashBoard.sol\":13842:13900  if (previouslyInside && currentlyOutside) triggered = true */\n      iszero\n      tag_642\n      jumpi\n        /* \"contracts/DashBoard.sol\":13896:13900  true */\n      0x01\n        /* \"contracts/DashBoard.sol\":13884:13900  triggered = true */\n      swap7\n      pop\n        /* \"contracts/DashBoard.sol\":13589:13916  {... */\n      pop\n      pop\n        /* \"contracts/DashBoard.sol\":13540:14555  if (condition == AlertCondition.EXITING_CHANNEL) {... */\n      jump(tag_682)\n    tag_648:\n        /* \"contracts/DashBoard.sol\":13939:13968  AlertCondition.INSIDE_CHANNEL */\n      0x09\n        /* \"contracts/DashBoard.sol\":13926:13935  condition */\n      dup5\n        /* \"contracts/DashBoard.sol\":13926:13968  condition == AlertCondition.INSIDE_CHANNEL */\n      0x0c\n      dup2\n      gt\n      iszero\n      tag_657\n      jumpi\n      tag_657\n      tag_208\n      jump\t// in\n    tag_657:\n      sub\n        /* \"contracts/DashBoard.sol\":13922:14555  if (condition == AlertCondition.INSIDE_CHANNEL) {... */\n      tag_658\n      jumpi\n        /* \"contracts/DashBoard.sol\":14010:14027  lowerChannelBound */\n      dup2\n        /* \"contracts/DashBoard.sol\":13993:14006  _currentValue */\n      dup9\n        /* \"contracts/DashBoard.sol\":13993:14027  _currentValue >= lowerChannelBound */\n      slt\n      iszero\n        /* \"contracts/DashBoard.sol\":13993:14065  _currentValue >= lowerChannelBound && _currentValue <= upperChannelBound */\n      dup1\n      iszero\n      tag_615\n      jumpi\n      pop\n        /* \"contracts/DashBoard.sol\":14048:14065  upperChannelBound */\n      dup1\n        /* \"contracts/DashBoard.sol\":14031:14044  _currentValue */\n      dup9\n        /* \"contracts/DashBoard.sol\":14031:14065  _currentValue <= upperChannelBound */\n      sgt\n        /* \"contracts/DashBoard.sol\":13989:14083  if (_currentValue >= lowerChannelBound && _currentValue <= upperChannelBound) triggered = true */\n      tag_591\n      jumpi\n        /* \"contracts/DashBoard.sol\":14079:14083  true */\n      0x01\n        /* \"contracts/DashBoard.sol\":14067:14083  triggered = true */\n      swap5\n      pop\n        /* \"contracts/DashBoard.sol\":13922:14555  if (condition == AlertCondition.INSIDE_CHANNEL) {... */\n      jump(tag_682)\n    tag_658:\n        /* \"contracts/DashBoard.sol\":14122:14152  AlertCondition.OUTSIDE_CHANNEL */\n      0x0a\n        /* \"contracts/DashBoard.sol\":14109:14118  condition */\n      dup5\n        /* \"contracts/DashBoard.sol\":14109:14152  condition == AlertCondition.OUTSIDE_CHANNEL */\n      0x0c\n      dup2\n      gt\n      iszero\n      tag_665\n      jumpi\n      tag_665\n      tag_208\n      jump\t// in\n    tag_665:\n      sub\n        /* \"contracts/DashBoard.sol\":14105:14555  if (condition == AlertCondition.OUTSIDE_CHANNEL) {... */\n      tag_666\n      jumpi\n        /* \"contracts/DashBoard.sol\":14193:14210  lowerChannelBound */\n      dup2\n        /* \"contracts/DashBoard.sol\":14177:14190  _currentValue */\n      dup9\n        /* \"contracts/DashBoard.sol\":14177:14210  _currentValue < lowerChannelBound */\n      slt\n        /* \"contracts/DashBoard.sol\":14177:14247  _currentValue < lowerChannelBound || _currentValue > upperChannelBound */\n      dup1\n      tag_615\n      jumpi\n      pop\n        /* \"contracts/DashBoard.sol\":14230:14247  upperChannelBound */\n      dup1\n        /* \"contracts/DashBoard.sol\":14214:14227  _currentValue */\n      dup9\n        /* \"contracts/DashBoard.sol\":14214:14247  _currentValue > upperChannelBound */\n      sgt\n        /* \"contracts/DashBoard.sol\":14173:14265  if (_currentValue < lowerChannelBound || _currentValue > upperChannelBound) triggered = true */\n      iszero\n      tag_591\n      jumpi\n        /* \"contracts/DashBoard.sol\":14261:14265  true */\n      0x01\n        /* \"contracts/DashBoard.sol\":14249:14265  triggered = true */\n      swap5\n      pop\n        /* \"contracts/DashBoard.sol\":14105:14555  if (condition == AlertCondition.OUTSIDE_CHANNEL) {... */\n      jump(tag_682)\n    tag_666:\n        /* \"contracts/DashBoard.sol\":14304:14328  AlertCondition.MOVING_UP */\n      0x0b\n        /* \"contracts/DashBoard.sol\":14291:14300  condition */\n      dup5\n        /* \"contracts/DashBoard.sol\":14291:14328  condition == AlertCondition.MOVING_UP */\n      0x0c\n      dup2\n      gt\n      iszero\n      tag_673\n      jumpi\n      tag_673\n      tag_208\n      jump\t// in\n    tag_673:\n      sub\n        /* \"contracts/DashBoard.sol\":14287:14555  if (condition == AlertCondition.MOVING_UP) {... */\n      tag_674\n      jumpi\n        /* \"contracts/DashBoard.sol\":14369:14383  _previousValue */\n      dup7\n        /* \"contracts/DashBoard.sol\":14353:14366  _currentValue */\n      dup9\n        /* \"contracts/DashBoard.sol\":14353:14383  _currentValue > _previousValue */\n      sgt\n        /* \"contracts/DashBoard.sol\":14349:14401  if (_currentValue > _previousValue) triggered = true */\n      iszero\n      tag_591\n      jumpi\n        /* \"contracts/DashBoard.sol\":14397:14401  true */\n      0x01\n        /* \"contracts/DashBoard.sol\":14385:14401  triggered = true */\n      swap5\n      pop\n        /* \"contracts/DashBoard.sol\":14287:14555  if (condition == AlertCondition.MOVING_UP) {... */\n      jump(tag_682)\n    tag_674:\n        /* \"contracts/DashBoard.sol\":14440:14466  AlertCondition.MOVING_DOWN */\n      0x0c\n        /* \"contracts/DashBoard.sol\":14427:14436  condition */\n      dup5\n        /* \"contracts/DashBoard.sol\":14427:14466  condition == AlertCondition.MOVING_DOWN */\n      0x0c\n      dup2\n      gt\n      iszero\n      tag_680\n      jumpi\n      tag_680\n      tag_208\n      jump\t// in\n    tag_680:\n      sub\n        /* \"contracts/DashBoard.sol\":14423:14555  if (condition == AlertCondition.MOVING_DOWN) {... */\n      tag_682\n      jumpi\n        /* \"contracts/DashBoard.sol\":14507:14521  _previousValue */\n      dup7\n        /* \"contracts/DashBoard.sol\":14491:14504  _currentValue */\n      dup9\n        /* \"contracts/DashBoard.sol\":14491:14521  _currentValue < _previousValue */\n      slt\n        /* \"contracts/DashBoard.sol\":14487:14539  if (_currentValue < _previousValue) triggered = true */\n      iszero\n      tag_682\n      jumpi\n        /* \"contracts/DashBoard.sol\":14535:14539  true */\n      0x01\n        /* \"contracts/DashBoard.sol\":14523:14539  triggered = true */\n      swap5\n      pop\n        /* \"contracts/DashBoard.sol\":14487:14539  if (_currentValue < _previousValue) triggered = true */\n    tag_682:\n        /* \"contracts/DashBoard.sol\":14582:14591  triggered */\n      dup5\n        /* \"contracts/DashBoard.sol\":14578:14839  if (triggered) {... */\n      iszero\n      tag_683\n      jumpi\n        /* \"contracts/DashBoard.sol\":14608:14636  userNetflowAlert.isTriggered */\n      0x16\n        /* \"contracts/DashBoard.sol\":14608:14643  userNetflowAlert.isTriggered = true */\n      dup1\n      sload\n      not(0xff00)\n      and\n      0x0100\n      or\n      swap1\n      sstore\n        /* \"contracts/DashBoard.sol\":14693:14708  block.timestamp */\n      timestamp\n        /* \"contracts/DashBoard.sol\":14658:14690  userNetflowAlert.lastTriggeredAt */\n      0x17\n        /* \"contracts/DashBoard.sol\":14658:14708  userNetflowAlert.lastTriggeredAt = block.timestamp */\n      sstore\n        /* \"contracts/DashBoard.sol\":14764:14785  userNetflowAlert.user */\n      sload(0x13)\n        /* \"contracts/DashBoard.sol\":14608:14624  userNetflowAlert */\n      0x12\n        /* \"contracts/DashBoard.sol\":14743:14762  userNetflowAlert.id */\n      sload\n        /* \"contracts/DashBoard.sol\":14728:14827  AlertTriggered(userNetflowAlert.id, userNetflowAlert.user, _currentValue, userNetflowAlert.message) */\n      mload(0x40)\n      sub(shl(0xa0, 0x01), 0x01)\n        /* \"contracts/DashBoard.sol\":14764:14785  userNetflowAlert.user */\n      swap1\n      swap3\n      and\n      swap2\n        /* \"contracts/DashBoard.sol\":14728:14827  AlertTriggered(userNetflowAlert.id, userNetflowAlert.user, _currentValue, userNetflowAlert.message) */\n      0x601cdb1cd0f27fc0f4bad78847fbd1402a286180590e1019934014e93e922a0f\n      swap1\n      tag_684\n      swap1\n        /* \"contracts/DashBoard.sol\":14787:14800  _currentValue */\n      dup13\n      swap1\n        /* \"contracts/DashBoard.sol\":14802:14826  userNetflowAlert.message */\n      0x18\n      swap1\n        /* \"contracts/DashBoard.sol\":14728:14827  AlertTriggered(userNetflowAlert.id, userNetflowAlert.user, _currentValue, userNetflowAlert.message) */\n      tag_685\n      jump\t// in\n    tag_684:\n      mload(0x40)\n      dup1\n      swap2\n      sub\n      swap1\n      log3\n        /* \"contracts/DashBoard.sol\":14578:14839  if (triggered) {... */\n    tag_683:\n        /* \"contracts/DashBoard.sol\":11725:14846  {... */\n      pop\n      pop\n      pop\n      pop\n      pop\n        /* \"contracts/DashBoard.sol\":11601:14846  function checkAndTriggerAlert(... */\n      pop\n      pop\n      pop\n      jump\t// out\n    tag_367:\n      pop\n      dup1\n      sload\n      0x00\n      dup3\n      sstore\n      0x05\n      mul\n      swap1\n      0x00\n      mstore\n      keccak256(0x00, 0x20)\n      swap1\n      dup2\n      add\n      swap1\n      tag_417\n      swap2\n      swap1\n      tag_689\n      jump\t// in\n    tag_434:\n      pop\n      dup1\n      sload\n      tag_690\n      swap1\n      tag_183\n      jump\t// in\n    tag_690:\n      0x00\n      dup3\n      sstore\n      dup1\n      0x1f\n      lt\n      tag_692\n      jumpi\n      pop\n      pop\n      jump\t// out\n    tag_692:\n      0x1f\n      add\n      0x20\n      swap1\n      div\n      swap1\n      0x00\n      mstore\n      keccak256(0x00, 0x20)\n      swap1\n      dup2\n      add\n      swap1\n      tag_417\n      swap2\n      swap1\n      tag_694\n      jump\t// in\n    tag_689:\n      dup1\n      dup3\n      gt\n      iszero\n      tag_696\n      jumpi\n      0x00\n      tag_697\n      dup3\n      dup3\n      tag_434\n      jump\t// in\n    tag_697:\n      pop\n      0x01\n      dup2\n      add\n      dup1\n      sload\n      not(sub(shl(0xa0, 0x01), 0x01))\n      and\n      swap1\n      sstore\n      0x00\n      0x02\n      dup3\n      add\n      dup2\n      swap1\n      sstore\n      0x03\n      dup3\n      add\n      dup2\n      swap1\n      sstore\n      0x04\n      dup3\n      add\n      sstore\n      0x05\n      add\n      jump(tag_689)\n    tag_696:\n      pop\n      swap1\n      jump\t// out\n    tag_694:\n    tag_698:\n      dup1\n      dup3\n      gt\n      iszero\n      tag_696\n      jumpi\n      0x00\n      dup2\n      sstore\n      0x01\n      add\n      jump(tag_698)\n        /* \"#utility.yul\":14:141   */\n    tag_700:\n        /* \"#utility.yul\":75:85   */\n      0x4e487b71\n        /* \"#utility.yul\":70:73   */\n      0xe0\n        /* \"#utility.yul\":66:86   */\n      shl\n        /* \"#utility.yul\":63:64   */\n      0x00\n        /* \"#utility.yul\":56:87   */\n      mstore\n        /* \"#utility.yul\":106:110   */\n      0x41\n        /* \"#utility.yul\":103:104   */\n      0x04\n        /* \"#utility.yul\":96:111   */\n      mstore\n        /* \"#utility.yul\":130:134   */\n      0x24\n        /* \"#utility.yul\":127:128   */\n      0x00\n        /* \"#utility.yul\":120:135   */\n      revert\n        /* \"#utility.yul\":146:1091   */\n    tag_47:\n        /* \"#utility.yul\":215:221   */\n      0x00\n        /* \"#utility.yul\":268:270   */\n      0x20\n        /* \"#utility.yul\":256:265   */\n      dup3\n        /* \"#utility.yul\":247:254   */\n      dup5\n        /* \"#utility.yul\":243:266   */\n      sub\n        /* \"#utility.yul\":239:271   */\n      slt\n        /* \"#utility.yul\":236:288   */\n      iszero\n      tag_716\n      jumpi\n        /* \"#utility.yul\":284:285   */\n      0x00\n        /* \"#utility.yul\":281:282   */\n      0x00\n        /* \"#utility.yul\":274:286   */\n      revert\n        /* \"#utility.yul\":236:288   */\n    tag_716:\n        /* \"#utility.yul\":324:333   */\n      dup2\n        /* \"#utility.yul\":311:334   */\n      calldataload\n      sub(shl(0x40, 0x01), 0x01)\n        /* \"#utility.yul\":349:355   */\n      dup2\n        /* \"#utility.yul\":346:376   */\n      gt\n        /* \"#utility.yul\":343:393   */\n      iszero\n      tag_717\n      jumpi\n        /* \"#utility.yul\":389:390   */\n      0x00\n        /* \"#utility.yul\":386:387   */\n      0x00\n        /* \"#utility.yul\":379:391   */\n      revert\n        /* \"#utility.yul\":343:393   */\n    tag_717:\n        /* \"#utility.yul\":412:434   */\n      dup3\n      add\n        /* \"#utility.yul\":465:469   */\n      0x1f\n        /* \"#utility.yul\":457:470   */\n      dup2\n      add\n        /* \"#utility.yul\":453:480   */\n      dup5\n      sgt\n        /* \"#utility.yul\":443:498   */\n      tag_718\n      jumpi\n        /* \"#utility.yul\":494:495   */\n      0x00\n        /* \"#utility.yul\":491:492   */\n      0x00\n        /* \"#utility.yul\":484:496   */\n      revert\n        /* \"#utility.yul\":443:498   */\n    tag_718:\n        /* \"#utility.yul\":534:536   */\n      dup1\n        /* \"#utility.yul\":521:537   */\n      calldataload\n      sub(shl(0x40, 0x01), 0x01)\n        /* \"#utility.yul\":552:558   */\n      dup2\n        /* \"#utility.yul\":549:579   */\n      gt\n        /* \"#utility.yul\":546:602   */\n      iszero\n      tag_720\n      jumpi\n        /* \"#utility.yul\":582:600   */\n      tag_720\n      tag_700\n      jump\t// in\n    tag_720:\n        /* \"#utility.yul\":631:633   */\n      0x40\n        /* \"#utility.yul\":625:634   */\n      mload\n        /* \"#utility.yul\":723:725   */\n      0x1f\n        /* \"#utility.yul\":685:702   */\n      dup3\n      add\n      not(0x1f)\n        /* \"#utility.yul\":681:712   */\n      swap1\n      dup2\n      and\n        /* \"#utility.yul\":714:716   */\n      0x3f\n        /* \"#utility.yul\":677:717   */\n      add\n        /* \"#utility.yul\":673:727   */\n      and\n        /* \"#utility.yul\":661:728   */\n      dup2\n      add\n      sub(shl(0x40, 0x01), 0x01)\n        /* \"#utility.yul\":743:777   */\n      dup2\n      gt\n        /* \"#utility.yul\":779:801   */\n      dup3\n      dup3\n      lt\n        /* \"#utility.yul\":740:802   */\n      or\n        /* \"#utility.yul\":737:825   */\n      iszero\n      tag_722\n      jumpi\n        /* \"#utility.yul\":805:823   */\n      tag_722\n      tag_700\n      jump\t// in\n    tag_722:\n        /* \"#utility.yul\":841:843   */\n      0x40\n        /* \"#utility.yul\":834:856   */\n      mstore\n        /* \"#utility.yul\":865:887   */\n      dup2\n      dup2\n      mstore\n        /* \"#utility.yul\":906:921   */\n      dup3\n      dup3\n      add\n        /* \"#utility.yul\":923:925   */\n      0x20\n        /* \"#utility.yul\":902:926   */\n      add\n        /* \"#utility.yul\":899:936   */\n      dup7\n      lt\n        /* \"#utility.yul\":896:953   */\n      iszero\n      tag_723\n      jumpi\n        /* \"#utility.yul\":949:950   */\n      0x00\n        /* \"#utility.yul\":946:947   */\n      0x00\n        /* \"#utility.yul\":939:951   */\n      revert\n        /* \"#utility.yul\":896:953   */\n    tag_723:\n        /* \"#utility.yul\":1005:1011   */\n      dup2\n        /* \"#utility.yul\":1000:1002   */\n      0x20\n        /* \"#utility.yul\":996:998   */\n      dup5\n        /* \"#utility.yul\":992:1003   */\n      add\n        /* \"#utility.yul\":987:989   */\n      0x20\n        /* \"#utility.yul\":979:985   */\n      dup4\n        /* \"#utility.yul\":975:990   */\n      add\n        /* \"#utility.yul\":962:1012   */\n      calldatacopy\n        /* \"#utility.yul\":1058:1059   */\n      0x00\n        /* \"#utility.yul\":1032:1051   */\n      swap2\n      dup2\n      add\n        /* \"#utility.yul\":1053:1055   */\n      0x20\n        /* \"#utility.yul\":1028:1056   */\n      add\n        /* \"#utility.yul\":1021:1060   */\n      swap2\n      swap1\n      swap2\n      mstore\n        /* \"#utility.yul\":1036:1042   */\n      swap5\n        /* \"#utility.yul\":146:1091   */\n      swap4\n      pop\n      pop\n      pop\n      pop\n      jump\t// out\n        /* \"#utility.yul\":1096:1385   */\n    tag_701:\n        /* \"#utility.yul\":1138:1141   */\n      0x00\n        /* \"#utility.yul\":1176:1181   */\n      dup2\n        /* \"#utility.yul\":1170:1182   */\n      mload\n        /* \"#utility.yul\":1203:1209   */\n      dup1\n        /* \"#utility.yul\":1198:1201   */\n      dup5\n        /* \"#utility.yul\":1191:1210   */\n      mstore\n        /* \"#utility.yul\":1259:1265   */\n      dup1\n        /* \"#utility.yul\":1252:1256   */\n      0x20\n        /* \"#utility.yul\":1245:1250   */\n      dup5\n        /* \"#utility.yul\":1241:1257   */\n      add\n        /* \"#utility.yul\":1234:1238   */\n      0x20\n        /* \"#utility.yul\":1229:1232   */\n      dup7\n        /* \"#utility.yul\":1225:1239   */\n      add\n        /* \"#utility.yul\":1219:1266   */\n      mcopy\n        /* \"#utility.yul\":1311:1312   */\n      0x00\n        /* \"#utility.yul\":1304:1308   */\n      0x20\n        /* \"#utility.yul\":1295:1301   */\n      dup3\n        /* \"#utility.yul\":1290:1293   */\n      dup7\n        /* \"#utility.yul\":1286:1302   */\n      add\n        /* \"#utility.yul\":1282:1309   */\n      add\n        /* \"#utility.yul\":1275:1313   */\n      mstore\n        /* \"#utility.yul\":1374:1378   */\n      0x20\n        /* \"#utility.yul\":1367:1369   */\n      0x1f\n        /* \"#utility.yul\":1363:1370   */\n      not\n        /* \"#utility.yul\":1358:1360   */\n      0x1f\n        /* \"#utility.yul\":1350:1356   */\n      dup4\n        /* \"#utility.yul\":1346:1361   */\n      add\n        /* \"#utility.yul\":1342:1371   */\n      and\n        /* \"#utility.yul\":1337:1340   */\n      dup6\n        /* \"#utility.yul\":1333:1372   */\n      add\n        /* \"#utility.yul\":1329:1379   */\n      add\n        /* \"#utility.yul\":1322:1379   */\n      swap2\n      pop\n      pop\n        /* \"#utility.yul\":1096:1385   */\n      swap3\n      swap2\n      pop\n      pop\n      jump\t// out\n        /* \"#utility.yul\":1390:1750   */\n    tag_50:\n        /* \"#utility.yul\":1593:1595   */\n      0x60\n        /* \"#utility.yul\":1582:1591   */\n      dup2\n        /* \"#utility.yul\":1575:1596   */\n      mstore\n        /* \"#utility.yul\":1556:1560   */\n      0x00\n        /* \"#utility.yul\":1613:1658   */\n      tag_726\n        /* \"#utility.yul\":1654:1656   */\n      0x60\n        /* \"#utility.yul\":1643:1652   */\n      dup4\n        /* \"#utility.yul\":1639:1657   */\n      add\n        /* \"#utility.yul\":1631:1637   */\n      dup7\n        /* \"#utility.yul\":1613:1658   */\n      tag_701\n      jump\t// in\n    tag_726:\n        /* \"#utility.yul\":1689:1691   */\n      0x20\n        /* \"#utility.yul\":1674:1692   */\n      dup4\n      add\n        /* \"#utility.yul\":1667:1701   */\n      swap5\n      swap1\n      swap5\n      mstore\n      pop\n        /* \"#utility.yul\":1732:1734   */\n      0x40\n        /* \"#utility.yul\":1717:1735   */\n      add\n        /* \"#utility.yul\":1710:1744   */\n      mstore\n        /* \"#utility.yul\":1605:1658   */\n      swap2\n        /* \"#utility.yul\":1390:1750   */\n      swap1\n      pop\n      jump\t// out\n        /* \"#utility.yul\":2043:2223   */\n    tag_57:\n        /* \"#utility.yul\":2102:2108   */\n      0x00\n        /* \"#utility.yul\":2155:2157   */\n      0x20\n        /* \"#utility.yul\":2143:2152   */\n      dup3\n        /* \"#utility.yul\":2134:2141   */\n      dup5\n        /* \"#utility.yul\":2130:2153   */\n      sub\n        /* \"#utility.yul\":2126:2158   */\n      slt\n        /* \"#utility.yul\":2123:2175   */\n      iszero\n      tag_730\n      jumpi\n        /* \"#utility.yul\":2171:2172   */\n      0x00\n        /* \"#utility.yul\":2168:2169   */\n      0x00\n        /* \"#utility.yul\":2161:2173   */\n      revert\n        /* \"#utility.yul\":2123:2175   */\n    tag_730:\n      pop\n        /* \"#utility.yul\":2194:2217   */\n      calldataload\n      swap2\n        /* \"#utility.yul\":2043:2223   */\n      swap1\n      pop\n      jump\t// out\n        /* \"#utility.yul\":2337:2464   */\n    tag_208:\n        /* \"#utility.yul\":2398:2408   */\n      0x4e487b71\n        /* \"#utility.yul\":2393:2396   */\n      0xe0\n        /* \"#utility.yul\":2389:2409   */\n      shl\n        /* \"#utility.yul\":2386:2387   */\n      0x00\n        /* \"#utility.yul\":2379:2410   */\n      mstore\n        /* \"#utility.yul\":2429:2433   */\n      0x21\n        /* \"#utility.yul\":2426:2427   */\n      0x04\n        /* \"#utility.yul\":2419:2434   */\n      mstore\n        /* \"#utility.yul\":2453:2457   */\n      0x24\n        /* \"#utility.yul\":2450:2451   */\n      0x00\n        /* \"#utility.yul\":2443:2458   */\n      revert\n        /* \"#utility.yul\":2469:2712   */\n    tag_704:\n        /* \"#utility.yul\":2555:2557   */\n      0x0d\n        /* \"#utility.yul\":2548:2553   */\n      dup2\n        /* \"#utility.yul\":2545:2558   */\n      lt\n        /* \"#utility.yul\":2535:2679   */\n      tag_734\n      jumpi\n        /* \"#utility.yul\":2601:2611   */\n      0x4e487b71\n        /* \"#utility.yul\":2596:2599   */\n      0xe0\n        /* \"#utility.yul\":2592:2612   */\n      shl\n        /* \"#utility.yul\":2589:2590   */\n      0x00\n        /* \"#utility.yul\":2582:2613   */\n      mstore\n        /* \"#utility.yul\":2636:2640   */\n      0x21\n        /* \"#utility.yul\":2633:2634   */\n      0x04\n        /* \"#utility.yul\":2626:2641   */\n      mstore\n        /* \"#utility.yul\":2664:2668   */\n      0x24\n        /* \"#utility.yul\":2661:2662   */\n      0x00\n        /* \"#utility.yul\":2654:2669   */\n      revert\n        /* \"#utility.yul\":2535:2679   */\n    tag_734:\n        /* \"#utility.yul\":2688:2706   */\n      swap1\n      mstore\n        /* \"#utility.yul\":2469:2712   */\n      jump\t// out\n        /* \"#utility.yul\":2717:3594   */\n    tag_60:\n        /* \"#utility.yul\":3072:3097   */\n      dup10\n      dup2\n      mstore\n      sub(shl(0xa0, 0x01), 0x01)\n        /* \"#utility.yul\":3133:3165   */\n      dup10\n      and\n        /* \"#utility.yul\":3128:3130   */\n      0x20\n        /* \"#utility.yul\":3113:3131   */\n      dup3\n      add\n        /* \"#utility.yul\":3106:3166   */\n      mstore\n        /* \"#utility.yul\":3175:3233   */\n      tag_736\n        /* \"#utility.yul\":3229:3231   */\n      0x40\n        /* \"#utility.yul\":3214:3232   */\n      dup3\n      add\n        /* \"#utility.yul\":3206:3212   */\n      dup10\n        /* \"#utility.yul\":3175:3233   */\n      tag_704\n      jump\t// in\n    tag_736:\n        /* \"#utility.yul\":3269:3275   */\n      dup7\n        /* \"#utility.yul\":3264:3266   */\n      0x60\n        /* \"#utility.yul\":3253:3262   */\n      dup3\n        /* \"#utility.yul\":3249:3267   */\n      add\n        /* \"#utility.yul\":3242:3276   */\n      mstore\n        /* \"#utility.yul\":3313:3319   */\n      dup6\n        /* \"#utility.yul\":3307:3310   */\n      0x80\n        /* \"#utility.yul\":3296:3305   */\n      dup3\n        /* \"#utility.yul\":3292:3311   */\n      add\n        /* \"#utility.yul\":3285:3320   */\n      mstore\n        /* \"#utility.yul\":3371:3377   */\n      dup5\n        /* \"#utility.yul\":3364:3378   */\n      iszero\n        /* \"#utility.yul\":3357:3379   */\n      iszero\n        /* \"#utility.yul\":3351:3354   */\n      0xa0\n        /* \"#utility.yul\":3340:3349   */\n      dup3\n        /* \"#utility.yul\":3336:3355   */\n      add\n        /* \"#utility.yul\":3329:3380   */\n      mstore\n        /* \"#utility.yul\":3431:3437   */\n      dup4\n        /* \"#utility.yul\":3424:3438   */\n      iszero\n        /* \"#utility.yul\":3417:3439   */\n      iszero\n        /* \"#utility.yul\":3411:3414   */\n      0xc0\n        /* \"#utility.yul\":3400:3409   */\n      dup3\n        /* \"#utility.yul\":3396:3415   */\n      add\n        /* \"#utility.yul\":3389:3440   */\n      mstore\n        /* \"#utility.yul\":3477:3483   */\n      dup3\n        /* \"#utility.yul\":3471:3474   */\n      0xe0\n        /* \"#utility.yul\":3460:3469   */\n      dup3\n        /* \"#utility.yul\":3456:3475   */\n      add\n        /* \"#utility.yul\":3449:3484   */\n      mstore\n        /* \"#utility.yul\":3521:3524   */\n      0x0120\n        /* \"#utility.yul\":3515:3518   */\n      0x0100\n        /* \"#utility.yul\":3504:3513   */\n      dup3\n        /* \"#utility.yul\":3500:3519   */\n      add\n        /* \"#utility.yul\":3493:3525   */\n      mstore\n        /* \"#utility.yul\":3053:3057   */\n      0x00\n        /* \"#utility.yul\":3542:3588   */\n      tag_737\n        /* \"#utility.yul\":3583:3586   */\n      0x0120\n        /* \"#utility.yul\":3572:3581   */\n      dup4\n        /* \"#utility.yul\":3568:3587   */\n      add\n        /* \"#utility.yul\":3560:3566   */\n      dup5\n        /* \"#utility.yul\":3542:3588   */\n      tag_701\n      jump\t// in\n    tag_737:\n        /* \"#utility.yul\":3534:3588   */\n      swap12\n        /* \"#utility.yul\":2717:3594   */\n      swap11\n      pop\n      pop\n      pop\n      pop\n      pop\n      pop\n      pop\n      pop\n      pop\n      pop\n      pop\n      jump\t// out\n        /* \"#utility.yul\":3599:3819   */\n    tag_65:\n        /* \"#utility.yul\":3748:3750   */\n      0x20\n        /* \"#utility.yul\":3737:3746   */\n      dup2\n        /* \"#utility.yul\":3730:3751   */\n      mstore\n        /* \"#utility.yul\":3711:3715   */\n      0x00\n        /* \"#utility.yul\":3768:3813   */\n      tag_739\n        /* \"#utility.yul\":3809:3811   */\n      0x20\n        /* \"#utility.yul\":3798:3807   */\n      dup4\n        /* \"#utility.yul\":3794:3812   */\n      add\n        /* \"#utility.yul\":3786:3792   */\n      dup5\n        /* \"#utility.yul\":3768:3813   */\n      tag_701\n      jump\t// in\n    tag_739:\n        /* \"#utility.yul\":3760:3813   */\n      swap4\n        /* \"#utility.yul\":3599:3819   */\n      swap3\n      pop\n      pop\n      pop\n      jump\t// out\n        /* \"#utility.yul\":4004:4160   */\n    tag_705:\n        /* \"#utility.yul\":4084:4104   */\n      dup1\n      calldataload\n        /* \"#utility.yul\":4133:4135   */\n      0x0d\n        /* \"#utility.yul\":4123:4136   */\n      dup2\n      lt\n        /* \"#utility.yul\":4113:4154   */\n      tag_742\n      jumpi\n        /* \"#utility.yul\":4150:4151   */\n      0x00\n        /* \"#utility.yul\":4147:4148   */\n      0x00\n        /* \"#utility.yul\":4140:4152   */\n      revert\n        /* \"#utility.yul\":4113:4154   */\n    tag_742:\n        /* \"#utility.yul\":4004:4160   */\n      swap2\n      swap1\n      pop\n      jump\t// out\n        /* \"#utility.yul\":4165:4513   */\n    tag_706:\n        /* \"#utility.yul\":4217:4225   */\n      0x00\n        /* \"#utility.yul\":4227:4233   */\n      0x00\n        /* \"#utility.yul\":4281:4284   */\n      dup4\n        /* \"#utility.yul\":4274:4278   */\n      0x1f\n        /* \"#utility.yul\":4266:4272   */\n      dup5\n        /* \"#utility.yul\":4262:4279   */\n      add\n        /* \"#utility.yul\":4258:4285   */\n      slt\n        /* \"#utility.yul\":4248:4303   */\n      tag_744\n      jumpi\n        /* \"#utility.yul\":4299:4300   */\n      0x00\n        /* \"#utility.yul\":4296:4297   */\n      0x00\n        /* \"#utility.yul\":4289:4301   */\n      revert\n        /* \"#utility.yul\":4248:4303   */\n    tag_744:\n      pop\n        /* \"#utility.yul\":4322:4342   */\n      dup2\n      calldataload\n      sub(shl(0x40, 0x01), 0x01)\n        /* \"#utility.yul\":4354:4384   */\n      dup2\n      gt\n        /* \"#utility.yul\":4351:4401   */\n      iszero\n      tag_745\n      jumpi\n        /* \"#utility.yul\":4397:4398   */\n      0x00\n        /* \"#utility.yul\":4394:4395   */\n      0x00\n        /* \"#utility.yul\":4387:4399   */\n      revert\n        /* \"#utility.yul\":4351:4401   */\n    tag_745:\n        /* \"#utility.yul\":4434:4438   */\n      0x20\n        /* \"#utility.yul\":4426:4432   */\n      dup4\n        /* \"#utility.yul\":4422:4439   */\n      add\n        /* \"#utility.yul\":4410:4439   */\n      swap2\n      pop\n        /* \"#utility.yul\":4486:4489   */\n      dup4\n        /* \"#utility.yul\":4479:4483   */\n      0x20\n        /* \"#utility.yul\":4470:4476   */\n      dup3\n        /* \"#utility.yul\":4462:4468   */\n      dup6\n        /* \"#utility.yul\":4458:4477   */\n      add\n        /* \"#utility.yul\":4454:4484   */\n      add\n        /* \"#utility.yul\":4451:4490   */\n      gt\n        /* \"#utility.yul\":4448:4507   */\n      iszero\n      tag_746\n      jumpi\n        /* \"#utility.yul\":4503:4504   */\n      0x00\n        /* \"#utility.yul\":4500:4501   */\n      0x00\n        /* \"#utility.yul\":4493:4505   */\n      revert\n        /* \"#utility.yul\":4448:4507   */\n    tag_746:\n        /* \"#utility.yul\":4165:4513   */\n      swap3\n      pop\n      swap3\n      swap1\n      pop\n      jump\t// out\n        /* \"#utility.yul\":4518:5146   */\n    tag_72:\n        /* \"#utility.yul\":4624:4630   */\n      0x00\n        /* \"#utility.yul\":4632:4638   */\n      0x00\n        /* \"#utility.yul\":4640:4646   */\n      0x00\n        /* \"#utility.yul\":4648:4654   */\n      0x00\n        /* \"#utility.yul\":4701:4703   */\n      0x60\n        /* \"#utility.yul\":4689:4698   */\n      dup6\n        /* \"#utility.yul\":4680:4687   */\n      dup8\n        /* \"#utility.yul\":4676:4699   */\n      sub\n        /* \"#utility.yul\":4672:4704   */\n      slt\n        /* \"#utility.yul\":4669:4721   */\n      iszero\n      tag_748\n      jumpi\n        /* \"#utility.yul\":4717:4718   */\n      0x00\n        /* \"#utility.yul\":4714:4715   */\n      0x00\n        /* \"#utility.yul\":4707:4719   */\n      revert\n        /* \"#utility.yul\":4669:4721   */\n    tag_748:\n        /* \"#utility.yul\":4740:4781   */\n      tag_749\n        /* \"#utility.yul\":4771:4780   */\n      dup6\n        /* \"#utility.yul\":4740:4781   */\n      tag_705\n      jump\t// in\n    tag_749:\n        /* \"#utility.yul\":4730:4781   */\n      swap4\n      pop\n        /* \"#utility.yul\":4850:4852   */\n      0x20\n        /* \"#utility.yul\":4835:4853   */\n      dup6\n      add\n        /* \"#utility.yul\":4822:4854   */\n      calldataload\n      swap3\n      pop\n        /* \"#utility.yul\":4929:4931   */\n      0x40\n        /* \"#utility.yul\":4914:4932   */\n      dup6\n      add\n        /* \"#utility.yul\":4901:4933   */\n      calldataload\n      sub(shl(0x40, 0x01), 0x01)\n        /* \"#utility.yul\":4945:4975   */\n      dup2\n      gt\n        /* \"#utility.yul\":4942:4992   */\n      iszero\n      tag_750\n      jumpi\n        /* \"#utility.yul\":4988:4989   */\n      0x00\n        /* \"#utility.yul\":4985:4986   */\n      0x00\n        /* \"#utility.yul\":4978:4990   */\n      revert\n        /* \"#utility.yul\":4942:4992   */\n    tag_750:\n        /* \"#utility.yul\":5027:5086   */\n      tag_751\n        /* \"#utility.yul\":5078:5085   */\n      dup8\n        /* \"#utility.yul\":5069:5075   */\n      dup3\n        /* \"#utility.yul\":5058:5067   */\n      dup9\n        /* \"#utility.yul\":5054:5076   */\n      add\n        /* \"#utility.yul\":5027:5086   */\n      tag_706\n      jump\t// in\n    tag_751:\n        /* \"#utility.yul\":4518:5146   */\n      swap6\n      swap9\n      swap5\n      swap8\n      pop\n        /* \"#utility.yul\":5105:5113   */\n      swap6\n      pop\n      pop\n      pop\n      pop\n        /* \"#utility.yul\":4518:5146   */\n      jump\t// out\n        /* \"#utility.yul\":5151:5933   */\n    tag_79:\n        /* \"#utility.yul\":5313:5317   */\n      0x00\n        /* \"#utility.yul\":5361:5363   */\n      0x20\n        /* \"#utility.yul\":5350:5359   */\n      dup3\n        /* \"#utility.yul\":5346:5364   */\n      add\n        /* \"#utility.yul\":5391:5393   */\n      0x20\n        /* \"#utility.yul\":5380:5389   */\n      dup4\n        /* \"#utility.yul\":5373:5394   */\n      mstore\n        /* \"#utility.yul\":5414:5420   */\n      dup1\n        /* \"#utility.yul\":5449:5455   */\n      dup5\n        /* \"#utility.yul\":5443:5456   */\n      mload\n        /* \"#utility.yul\":5480:5486   */\n      dup1\n        /* \"#utility.yul\":5472:5478   */\n      dup4\n        /* \"#utility.yul\":5465:5487   */\n      mstore\n        /* \"#utility.yul\":5518:5520   */\n      0x40\n        /* \"#utility.yul\":5507:5516   */\n      dup6\n        /* \"#utility.yul\":5503:5521   */\n      add\n        /* \"#utility.yul\":5496:5521   */\n      swap2\n      pop\n        /* \"#utility.yul\":5580:5582   */\n      0x40\n        /* \"#utility.yul\":5570:5576   */\n      dup2\n        /* \"#utility.yul\":5567:5568   */\n      0x05\n        /* \"#utility.yul\":5563:5577   */\n      shl\n        /* \"#utility.yul\":5552:5561   */\n      dup7\n        /* \"#utility.yul\":5548:5578   */\n      add\n        /* \"#utility.yul\":5544:5583   */\n      add\n        /* \"#utility.yul\":5530:5583   */\n      swap3\n      pop\n        /* \"#utility.yul\":5618:5620   */\n      0x20\n        /* \"#utility.yul\":5610:5616   */\n      dup7\n        /* \"#utility.yul\":5606:5621   */\n      add\n        /* \"#utility.yul\":5639:5640   */\n      0x00\n        /* \"#utility.yul\":5649:5904   */\n    tag_753:\n        /* \"#utility.yul\":5663:5669   */\n      dup3\n        /* \"#utility.yul\":5660:5661   */\n      dup2\n        /* \"#utility.yul\":5657:5670   */\n      lt\n        /* \"#utility.yul\":5649:5904   */\n      iszero\n      tag_755\n      jumpi\n        /* \"#utility.yul\":5756:5758   */\n      0x3f\n        /* \"#utility.yul\":5752:5759   */\n      not\n        /* \"#utility.yul\":5740:5749   */\n      dup8\n        /* \"#utility.yul\":5732:5738   */\n      dup7\n        /* \"#utility.yul\":5728:5750   */\n      sub\n        /* \"#utility.yul\":5724:5760   */\n      add\n        /* \"#utility.yul\":5719:5722   */\n      dup5\n        /* \"#utility.yul\":5712:5761   */\n      mstore\n        /* \"#utility.yul\":5784:5824   */\n      tag_756\n        /* \"#utility.yul\":5817:5823   */\n      dup6\n        /* \"#utility.yul\":5808:5814   */\n      dup4\n        /* \"#utility.yul\":5802:5815   */\n      mload\n        /* \"#utility.yul\":5784:5824   */\n      tag_701\n      jump\t// in\n    tag_756:\n        /* \"#utility.yul\":5774:5824   */\n      swap5\n      pop\n        /* \"#utility.yul\":5859:5861   */\n      0x20\n        /* \"#utility.yul\":5882:5894   */\n      swap4\n      dup5\n      add\n      swap4\n        /* \"#utility.yul\":5847:5862   */\n      swap2\n      swap1\n      swap2\n      add\n      swap1\n        /* \"#utility.yul\":5685:5686   */\n      0x01\n        /* \"#utility.yul\":5678:5687   */\n      add\n        /* \"#utility.yul\":5649:5904   */\n      jump(tag_753)\n    tag_755:\n      pop\n        /* \"#utility.yul\":5921:5927   */\n      swap3\n      swap7\n        /* \"#utility.yul\":5151:5933   */\n      swap6\n      pop\n      pop\n      pop\n      pop\n      pop\n      pop\n      jump\t// out\n        /* \"#utility.yul\":5938:6467   */\n    tag_84:\n        /* \"#utility.yul\":6195:6198   */\n      0xa0\n        /* \"#utility.yul\":6184:6193   */\n      dup2\n        /* \"#utility.yul\":6177:6199   */\n      mstore\n        /* \"#utility.yul\":6158:6162   */\n      0x00\n        /* \"#utility.yul\":6216:6262   */\n      tag_758\n        /* \"#utility.yul\":6257:6260   */\n      0xa0\n        /* \"#utility.yul\":6246:6255   */\n      dup4\n        /* \"#utility.yul\":6242:6261   */\n      add\n        /* \"#utility.yul\":6234:6240   */\n      dup9\n        /* \"#utility.yul\":6216:6262   */\n      tag_701\n      jump\t// in\n    tag_758:\n      sub(shl(0xa0, 0x01), 0x01)\n        /* \"#utility.yul\":6298:6330   */\n      swap7\n      swap1\n      swap7\n      and\n        /* \"#utility.yul\":6293:6295   */\n      0x20\n        /* \"#utility.yul\":6278:6296   */\n      dup4\n      add\n        /* \"#utility.yul\":6271:6331   */\n      mstore\n      pop\n        /* \"#utility.yul\":6362:6364   */\n      0x40\n        /* \"#utility.yul\":6347:6365   */\n      dup2\n      add\n        /* \"#utility.yul\":6340:6374   */\n      swap4\n      swap1\n      swap4\n      mstore\n        /* \"#utility.yul\":6405:6407   */\n      0x60\n        /* \"#utility.yul\":6390:6408   */\n      dup4\n      add\n        /* \"#utility.yul\":6383:6417   */\n      swap2\n      swap1\n      swap2\n      mstore\n        /* \"#utility.yul\":6448:6451   */\n      0x80\n        /* \"#utility.yul\":6433:6452   */\n      swap1\n      swap2\n      add\n        /* \"#utility.yul\":6426:6461   */\n      mstore\n        /* \"#utility.yul\":6208:6262   */\n      swap2\n        /* \"#utility.yul\":5938:6467   */\n      swap1\n      pop\n      jump\t// out\n        /* \"#utility.yul\":6472:7055   */\n    tag_87:\n        /* \"#utility.yul\":6554:6560   */\n      0x00\n        /* \"#utility.yul\":6562:6568   */\n      0x00\n        /* \"#utility.yul\":6570:6576   */\n      0x00\n        /* \"#utility.yul\":6578:6584   */\n      0x00\n        /* \"#utility.yul\":6631:6634   */\n      0x80\n        /* \"#utility.yul\":6619:6628   */\n      dup6\n        /* \"#utility.yul\":6610:6617   */\n      dup8\n        /* \"#utility.yul\":6606:6629   */\n      sub\n        /* \"#utility.yul\":6602:6635   */\n      slt\n        /* \"#utility.yul\":6599:6652   */\n      iszero\n      tag_760\n      jumpi\n        /* \"#utility.yul\":6648:6649   */\n      0x00\n        /* \"#utility.yul\":6645:6646   */\n      0x00\n        /* \"#utility.yul\":6638:6650   */\n      revert\n        /* \"#utility.yul\":6599:6652   */\n    tag_760:\n      pop\n      pop\n        /* \"#utility.yul\":6693:6716   */\n      dup3\n      calldataload\n      swap5\n        /* \"#utility.yul\":6813:6815   */\n      0x20\n        /* \"#utility.yul\":6798:6816   */\n      dup5\n      add\n        /* \"#utility.yul\":6785:6817   */\n      calldataload\n      swap5\n      pop\n        /* \"#utility.yul\":6916:6918   */\n      0x40\n        /* \"#utility.yul\":6901:6919   */\n      dup5\n      add\n        /* \"#utility.yul\":6888:6920   */\n      calldataload\n      swap4\n        /* \"#utility.yul\":7019:7021   */\n      0x60\n        /* \"#utility.yul\":7004:7022   */\n      add\n        /* \"#utility.yul\":6991:7023   */\n      calldataload\n      swap3\n      pop\n        /* \"#utility.yul\":6472:7055   */\n      swap1\n      pop\n      jump\t// out\n        /* \"#utility.yul\":7060:7584   */\n    tag_91:\n        /* \"#utility.yul\":7139:7145   */\n      0x00\n        /* \"#utility.yul\":7147:7153   */\n      0x00\n        /* \"#utility.yul\":7155:7161   */\n      0x00\n        /* \"#utility.yul\":7208:7210   */\n      0x40\n        /* \"#utility.yul\":7196:7205   */\n      dup5\n        /* \"#utility.yul\":7187:7194   */\n      dup7\n        /* \"#utility.yul\":7183:7206   */\n      sub\n        /* \"#utility.yul\":7179:7211   */\n      slt\n        /* \"#utility.yul\":7176:7228   */\n      iszero\n      tag_762\n      jumpi\n        /* \"#utility.yul\":7224:7225   */\n      0x00\n        /* \"#utility.yul\":7221:7222   */\n      0x00\n        /* \"#utility.yul\":7214:7226   */\n      revert\n        /* \"#utility.yul\":7176:7228   */\n    tag_762:\n        /* \"#utility.yul\":7264:7273   */\n      dup4\n        /* \"#utility.yul\":7251:7274   */\n      calldataload\n      sub(shl(0x40, 0x01), 0x01)\n        /* \"#utility.yul\":7289:7295   */\n      dup2\n        /* \"#utility.yul\":7286:7316   */\n      gt\n        /* \"#utility.yul\":7283:7333   */\n      iszero\n      tag_763\n      jumpi\n        /* \"#utility.yul\":7329:7330   */\n      0x00\n        /* \"#utility.yul\":7326:7327   */\n      0x00\n        /* \"#utility.yul\":7319:7331   */\n      revert\n        /* \"#utility.yul\":7283:7333   */\n    tag_763:\n        /* \"#utility.yul\":7368:7427   */\n      tag_764\n        /* \"#utility.yul\":7419:7426   */\n      dup7\n        /* \"#utility.yul\":7410:7416   */\n      dup3\n        /* \"#utility.yul\":7399:7408   */\n      dup8\n        /* \"#utility.yul\":7395:7417   */\n      add\n        /* \"#utility.yul\":7368:7427   */\n      tag_706\n      jump\t// in\n    tag_764:\n        /* \"#utility.yul\":7446:7454   */\n      swap1\n      swap8\n        /* \"#utility.yul\":7342:7427   */\n      swap1\n      swap7\n      pop\n        /* \"#utility.yul\":7550:7552   */\n      0x20\n        /* \"#utility.yul\":7535:7553   */\n      swap6\n      swap1\n      swap6\n      add\n        /* \"#utility.yul\":7522:7554   */\n      calldataload\n      swap5\n        /* \"#utility.yul\":7060:7584   */\n      swap4\n      pop\n      pop\n      pop\n      pop\n      jump\t// out\n        /* \"#utility.yul\":7771:8296   */\n    tag_105:\n        /* \"#utility.yul\":8022:8025   */\n      0x80\n        /* \"#utility.yul\":8011:8020   */\n      dup2\n        /* \"#utility.yul\":8004:8026   */\n      mstore\n        /* \"#utility.yul\":7985:7989   */\n      0x00\n        /* \"#utility.yul\":8049:8095   */\n      tag_767\n        /* \"#utility.yul\":8090:8093   */\n      0x80\n        /* \"#utility.yul\":8079:8088   */\n      dup4\n        /* \"#utility.yul\":8075:8094   */\n      add\n        /* \"#utility.yul\":8067:8073   */\n      dup8\n        /* \"#utility.yul\":8049:8095   */\n      tag_701\n      jump\t// in\n    tag_767:\n        /* \"#utility.yul\":8143:8152   */\n      dup3\n        /* \"#utility.yul\":8135:8141   */\n      dup2\n        /* \"#utility.yul\":8131:8153   */\n      sub\n        /* \"#utility.yul\":8126:8128   */\n      0x20\n        /* \"#utility.yul\":8115:8124   */\n      dup5\n        /* \"#utility.yul\":8111:8129   */\n      add\n        /* \"#utility.yul\":8104:8154   */\n      mstore\n        /* \"#utility.yul\":8171:8204   */\n      tag_768\n        /* \"#utility.yul\":8197:8203   */\n      dup2\n        /* \"#utility.yul\":8189:8195   */\n      dup8\n        /* \"#utility.yul\":8171:8204   */\n      tag_701\n      jump\t// in\n    tag_768:\n        /* \"#utility.yul\":8235:8237   */\n      0x40\n        /* \"#utility.yul\":8220:8238   */\n      dup5\n      add\n        /* \"#utility.yul\":8213:8247   */\n      swap6\n      swap1\n      swap6\n      mstore\n      pop\n      pop\n        /* \"#utility.yul\":8278:8280   */\n      0x60\n        /* \"#utility.yul\":8263:8281   */\n      add\n        /* \"#utility.yul\":8256:8290   */\n      mstore\n        /* \"#utility.yul\":8163:8204   */\n      swap3\n        /* \"#utility.yul\":7771:8296   */\n      swap2\n      pop\n      pop\n      jump\t// out\n        /* \"#utility.yul\":8301:9551   */\n    tag_109:\n        /* \"#utility.yul\":8519:8523   */\n      0x00\n        /* \"#utility.yul\":8567:8569   */\n      0x20\n        /* \"#utility.yul\":8556:8565   */\n      dup3\n        /* \"#utility.yul\":8552:8570   */\n      add\n        /* \"#utility.yul\":8597:8599   */\n      0x20\n        /* \"#utility.yul\":8586:8595   */\n      dup4\n        /* \"#utility.yul\":8579:8600   */\n      mstore\n        /* \"#utility.yul\":8620:8626   */\n      dup1\n        /* \"#utility.yul\":8655:8661   */\n      dup5\n        /* \"#utility.yul\":8649:8662   */\n      mload\n        /* \"#utility.yul\":8686:8692   */\n      dup1\n        /* \"#utility.yul\":8678:8684   */\n      dup4\n        /* \"#utility.yul\":8671:8693   */\n      mstore\n        /* \"#utility.yul\":8724:8726   */\n      0x40\n        /* \"#utility.yul\":8713:8722   */\n      dup6\n        /* \"#utility.yul\":8709:8727   */\n      add\n        /* \"#utility.yul\":8702:8727   */\n      swap2\n      pop\n        /* \"#utility.yul\":8786:8788   */\n      0x40\n        /* \"#utility.yul\":8776:8782   */\n      dup2\n        /* \"#utility.yul\":8773:8774   */\n      0x05\n        /* \"#utility.yul\":8769:8783   */\n      shl\n        /* \"#utility.yul\":8758:8767   */\n      dup7\n        /* \"#utility.yul\":8754:8784   */\n      add\n        /* \"#utility.yul\":8750:8789   */\n      add\n        /* \"#utility.yul\":8736:8789   */\n      swap3\n      pop\n        /* \"#utility.yul\":8824:8826   */\n      0x20\n        /* \"#utility.yul\":8816:8822   */\n      dup7\n        /* \"#utility.yul\":8812:8827   */\n      add\n        /* \"#utility.yul\":8845:8846   */\n      0x00\n        /* \"#utility.yul\":8855:9522   */\n    tag_770:\n        /* \"#utility.yul\":8869:8875   */\n      dup3\n        /* \"#utility.yul\":8866:8867   */\n      dup2\n        /* \"#utility.yul\":8863:8876   */\n      lt\n        /* \"#utility.yul\":8855:9522   */\n      iszero\n      tag_755\n      jumpi\n        /* \"#utility.yul\":8962:8964   */\n      0x3f\n        /* \"#utility.yul\":8958:8965   */\n      not\n        /* \"#utility.yul\":8946:8955   */\n      dup8\n        /* \"#utility.yul\":8938:8944   */\n      dup7\n        /* \"#utility.yul\":8934:8956   */\n      sub\n        /* \"#utility.yul\":8930:8966   */\n      add\n        /* \"#utility.yul\":8925:8928   */\n      dup5\n        /* \"#utility.yul\":8918:8967   */\n      mstore\n        /* \"#utility.yul\":8996:9002   */\n      dup2\n        /* \"#utility.yul\":8990:9003   */\n      mload\n        /* \"#utility.yul\":9042:9044   */\n      dup1\n        /* \"#utility.yul\":9036:9045   */\n      mload\n        /* \"#utility.yul\":9073:9077   */\n      0xa0\n        /* \"#utility.yul\":9065:9071   */\n      dup8\n        /* \"#utility.yul\":9058:9078   */\n      mstore\n        /* \"#utility.yul\":9105:9155   */\n      tag_773\n        /* \"#utility.yul\":9149:9153   */\n      0xa0\n        /* \"#utility.yul\":9141:9147   */\n      dup9\n        /* \"#utility.yul\":9137:9154   */\n      add\n        /* \"#utility.yul\":9123:9135   */\n      dup3\n        /* \"#utility.yul\":9105:9155   */\n      tag_701\n      jump\t// in\n    tag_773:\n        /* \"#utility.yul\":9210:9212   */\n      0x20\n        /* \"#utility.yul\":9202:9213   */\n      dup4\n      dup2\n      add\n        /* \"#utility.yul\":9196:9214   */\n      mload\n      sub(shl(0xa0, 0x01), 0x01)\n        /* \"#utility.yul\":9192:9236   */\n      and\n        /* \"#utility.yul\":9175:9190   */\n      dup10\n      dup3\n      add\n        /* \"#utility.yul\":9168:9237   */\n      mstore\n        /* \"#utility.yul\":9288:9290   */\n      0x40\n        /* \"#utility.yul\":9280:9291   */\n      dup1\n      dup6\n      add\n        /* \"#utility.yul\":9274:9292   */\n      mload\n        /* \"#utility.yul\":9257:9272   */\n      swap1\n      dup11\n      add\n        /* \"#utility.yul\":9250:9293   */\n      mstore\n        /* \"#utility.yul\":9346:9350   */\n      0x60\n        /* \"#utility.yul\":9338:9351   */\n      dup1\n      dup6\n      add\n        /* \"#utility.yul\":9332:9352   */\n      mload\n        /* \"#utility.yul\":9313:9330   */\n      swap1\n      dup11\n      add\n        /* \"#utility.yul\":9306:9353   */\n      mstore\n        /* \"#utility.yul\":9406:9410   */\n      0x80\n        /* \"#utility.yul\":9398:9411   */\n      swap4\n      dup5\n      add\n        /* \"#utility.yul\":9392:9412   */\n      mload\n        /* \"#utility.yul\":9373:9390   */\n      swap4\n      swap1\n      swap9\n      add\n        /* \"#utility.yul\":9366:9413   */\n      swap3\n      swap1\n      swap3\n      mstore\n      pop\n        /* \"#utility.yul\":9091:9155   */\n      swap5\n        /* \"#utility.yul\":9500:9512   */\n      swap4\n      dup5\n      add\n      swap4\n        /* \"#utility.yul\":9465:9480   */\n      swap2\n      swap1\n      swap2\n      add\n      swap1\n        /* \"#utility.yul\":9233:9234   */\n      0x01\n        /* \"#utility.yul\":8884:8893   */\n      add\n        /* \"#utility.yul\":8855:9522   */\n      jump(tag_770)\n        /* \"#utility.yul\":9556:9967   */\n    tag_112:\n        /* \"#utility.yul\":9627:9633   */\n      0x00\n        /* \"#utility.yul\":9635:9641   */\n      0x00\n        /* \"#utility.yul\":9688:9690   */\n      0x20\n        /* \"#utility.yul\":9676:9685   */\n      dup4\n        /* \"#utility.yul\":9667:9674   */\n      dup6\n        /* \"#utility.yul\":9663:9686   */\n      sub\n        /* \"#utility.yul\":9659:9691   */\n      slt\n        /* \"#utility.yul\":9656:9708   */\n      iszero\n      tag_775\n      jumpi\n        /* \"#utility.yul\":9704:9705   */\n      0x00\n        /* \"#utility.yul\":9701:9702   */\n      0x00\n        /* \"#utility.yul\":9694:9706   */\n      revert\n        /* \"#utility.yul\":9656:9708   */\n    tag_775:\n        /* \"#utility.yul\":9744:9753   */\n      dup3\n        /* \"#utility.yul\":9731:9754   */\n      calldataload\n      sub(shl(0x40, 0x01), 0x01)\n        /* \"#utility.yul\":9769:9775   */\n      dup2\n        /* \"#utility.yul\":9766:9796   */\n      gt\n        /* \"#utility.yul\":9763:9813   */\n      iszero\n      tag_776\n      jumpi\n        /* \"#utility.yul\":9809:9810   */\n      0x00\n        /* \"#utility.yul\":9806:9807   */\n      0x00\n        /* \"#utility.yul\":9799:9811   */\n      revert\n        /* \"#utility.yul\":9763:9813   */\n    tag_776:\n        /* \"#utility.yul\":9848:9907   */\n      tag_777\n        /* \"#utility.yul\":9899:9906   */\n      dup6\n        /* \"#utility.yul\":9890:9896   */\n      dup3\n        /* \"#utility.yul\":9879:9888   */\n      dup7\n        /* \"#utility.yul\":9875:9897   */\n      add\n        /* \"#utility.yul\":9848:9907   */\n      tag_706\n      jump\t// in\n    tag_777:\n        /* \"#utility.yul\":9926:9934   */\n      swap1\n      swap7\n        /* \"#utility.yul\":9822:9907   */\n      swap1\n      swap6\n      pop\n        /* \"#utility.yul\":9556:9967   */\n      swap4\n      pop\n      pop\n      pop\n      pop\n      jump\t// out\n        /* \"#utility.yul\":9972:10679   */\n    tag_115:\n        /* \"#utility.yul\":10179:10181   */\n      0x20\n        /* \"#utility.yul\":10168:10177   */\n      dup2\n        /* \"#utility.yul\":10161:10182   */\n      mstore\n        /* \"#utility.yul\":10142:10146   */\n      0x00\n        /* \"#utility.yul\":10217:10223   */\n      dup3\n        /* \"#utility.yul\":10211:10224   */\n      mload\n        /* \"#utility.yul\":10260:10264   */\n      0x80\n        /* \"#utility.yul\":10255:10257   */\n      0x20\n        /* \"#utility.yul\":10244:10253   */\n      dup5\n        /* \"#utility.yul\":10240:10258   */\n      add\n        /* \"#utility.yul\":10233:10265   */\n      mstore\n        /* \"#utility.yul\":10288:10340   */\n      tag_779\n        /* \"#utility.yul\":10335:10338   */\n      0xa0\n        /* \"#utility.yul\":10324:10333   */\n      dup5\n        /* \"#utility.yul\":10320:10339   */\n      add\n        /* \"#utility.yul\":10306:10318   */\n      dup3\n        /* \"#utility.yul\":10288:10340   */\n      tag_701\n      jump\t// in\n    tag_779:\n        /* \"#utility.yul\":10274:10340   */\n      swap1\n      pop\n        /* \"#utility.yul\":10389:10391   */\n      0x20\n        /* \"#utility.yul\":10381:10387   */\n      dup5\n        /* \"#utility.yul\":10377:10392   */\n      add\n        /* \"#utility.yul\":10371:10393   */\n      mload\n        /* \"#utility.yul\":10461:10463   */\n      0x1f\n        /* \"#utility.yul\":10457:10464   */\n      not\n        /* \"#utility.yul\":10445:10454   */\n      dup5\n        /* \"#utility.yul\":10437:10443   */\n      dup4\n        /* \"#utility.yul\":10433:10455   */\n      sub\n        /* \"#utility.yul\":10429:10465   */\n      add\n        /* \"#utility.yul\":10424:10426   */\n      0x40\n        /* \"#utility.yul\":10413:10422   */\n      dup6\n        /* \"#utility.yul\":10409:10427   */\n      add\n        /* \"#utility.yul\":10402:10466   */\n      mstore\n        /* \"#utility.yul\":10489:10530   */\n      tag_780\n        /* \"#utility.yul\":10523:10529   */\n      dup3\n        /* \"#utility.yul\":10507:10521   */\n      dup3\n        /* \"#utility.yul\":10489:10530   */\n      tag_701\n      jump\t// in\n    tag_780:\n        /* \"#utility.yul\":10475:10530   */\n      swap2\n      pop\n      pop\n        /* \"#utility.yul\":10584:10586   */\n      0x40\n        /* \"#utility.yul\":10576:10582   */\n      dup5\n        /* \"#utility.yul\":10572:10587   */\n      add\n        /* \"#utility.yul\":10566:10588   */\n      mload\n        /* \"#utility.yul\":10561:10563   */\n      0x60\n        /* \"#utility.yul\":10550:10559   */\n      dup5\n        /* \"#utility.yul\":10546:10564   */\n      add\n        /* \"#utility.yul\":10539:10589   */\n      mstore\n        /* \"#utility.yul\":10645:10647   */\n      0x60\n        /* \"#utility.yul\":10637:10643   */\n      dup5\n        /* \"#utility.yul\":10633:10648   */\n      add\n        /* \"#utility.yul\":10627:10649   */\n      mload\n        /* \"#utility.yul\":10620:10624   */\n      0x80\n        /* \"#utility.yul\":10609:10618   */\n      dup5\n        /* \"#utility.yul\":10605:10625   */\n      add\n        /* \"#utility.yul\":10598:10650   */\n      mstore\n        /* \"#utility.yul\":10667:10673   */\n      dup1\n        /* \"#utility.yul\":10659:10673   */\n      swap2\n      pop\n      pop\n        /* \"#utility.yul\":9972:10679   */\n      swap3\n      swap2\n      pop\n      pop\n      jump\t// out\n        /* \"#utility.yul\":11352:11748   */\n    tag_707:\n        /* \"#utility.yul\":11444:11452   */\n      0x00\n        /* \"#utility.yul\":11454:11460   */\n      0x00\n        /* \"#utility.yul\":11508:11511   */\n      dup4\n        /* \"#utility.yul\":11501:11505   */\n      0x1f\n        /* \"#utility.yul\":11493:11499   */\n      dup5\n        /* \"#utility.yul\":11489:11506   */\n      add\n        /* \"#utility.yul\":11485:11512   */\n      slt\n        /* \"#utility.yul\":11475:11530   */\n      tag_784\n      jumpi\n        /* \"#utility.yul\":11526:11527   */\n      0x00\n        /* \"#utility.yul\":11523:11524   */\n      0x00\n        /* \"#utility.yul\":11516:11528   */\n      revert\n        /* \"#utility.yul\":11475:11530   */\n    tag_784:\n      pop\n        /* \"#utility.yul\":11549:11569   */\n      dup2\n      calldataload\n      sub(shl(0x40, 0x01), 0x01)\n        /* \"#utility.yul\":11581:11611   */\n      dup2\n      gt\n        /* \"#utility.yul\":11578:11628   */\n      iszero\n      tag_785\n      jumpi\n        /* \"#utility.yul\":11624:11625   */\n      0x00\n        /* \"#utility.yul\":11621:11622   */\n      0x00\n        /* \"#utility.yul\":11614:11626   */\n      revert\n        /* \"#utility.yul\":11578:11628   */\n    tag_785:\n        /* \"#utility.yul\":11661:11665   */\n      0x20\n        /* \"#utility.yul\":11653:11659   */\n      dup4\n        /* \"#utility.yul\":11649:11666   */\n      add\n        /* \"#utility.yul\":11637:11666   */\n      swap2\n      pop\n        /* \"#utility.yul\":11721:11724   */\n      dup4\n        /* \"#utility.yul\":11714:11718   */\n      0x20\n        /* \"#utility.yul\":11704:11710   */\n      dup3\n        /* \"#utility.yul\":11701:11702   */\n      0x05\n        /* \"#utility.yul\":11697:11711   */\n      shl\n        /* \"#utility.yul\":11689:11695   */\n      dup6\n        /* \"#utility.yul\":11685:11712   */\n      add\n        /* \"#utility.yul\":11681:11719   */\n      add\n        /* \"#utility.yul\":11678:11725   */\n      gt\n        /* \"#utility.yul\":11675:11742   */\n      iszero\n      tag_746\n      jumpi\n        /* \"#utility.yul\":11738:11739   */\n      0x00\n        /* \"#utility.yul\":11735:11736   */\n      0x00\n        /* \"#utility.yul\":11728:11740   */\n      revert\n        /* \"#utility.yul\":11753:12772   */\n    tag_134:\n        /* \"#utility.yul\":11963:11969   */\n      0x00\n        /* \"#utility.yul\":11971:11977   */\n      0x00\n        /* \"#utility.yul\":11979:11985   */\n      0x00\n        /* \"#utility.yul\":11987:11993   */\n      0x00\n        /* \"#utility.yul\":11995:12001   */\n      0x00\n        /* \"#utility.yul\":12048:12050   */\n      0x60\n        /* \"#utility.yul\":12036:12045   */\n      dup7\n        /* \"#utility.yul\":12027:12034   */\n      dup9\n        /* \"#utility.yul\":12023:12046   */\n      sub\n        /* \"#utility.yul\":12019:12051   */\n      slt\n        /* \"#utility.yul\":12016:12068   */\n      iszero\n      tag_788\n      jumpi\n        /* \"#utility.yul\":12064:12065   */\n      0x00\n        /* \"#utility.yul\":12061:12062   */\n      0x00\n        /* \"#utility.yul\":12054:12066   */\n      revert\n        /* \"#utility.yul\":12016:12068   */\n    tag_788:\n        /* \"#utility.yul\":12104:12113   */\n      dup6\n        /* \"#utility.yul\":12091:12114   */\n      calldataload\n      sub(shl(0x40, 0x01), 0x01)\n        /* \"#utility.yul\":12129:12135   */\n      dup2\n        /* \"#utility.yul\":12126:12156   */\n      gt\n        /* \"#utility.yul\":12123:12173   */\n      iszero\n      tag_789\n      jumpi\n        /* \"#utility.yul\":12169:12170   */\n      0x00\n        /* \"#utility.yul\":12166:12167   */\n      0x00\n        /* \"#utility.yul\":12159:12171   */\n      revert\n        /* \"#utility.yul\":12123:12173   */\n    tag_789:\n        /* \"#utility.yul\":12208:12307   */\n      tag_790\n        /* \"#utility.yul\":12299:12306   */\n      dup9\n        /* \"#utility.yul\":12290:12296   */\n      dup3\n        /* \"#utility.yul\":12279:12288   */\n      dup10\n        /* \"#utility.yul\":12275:12297   */\n      add\n        /* \"#utility.yul\":12208:12307   */\n      tag_707\n      jump\t// in\n    tag_790:\n        /* \"#utility.yul\":12326:12334   */\n      swap1\n      swap7\n      pop\n        /* \"#utility.yul\":12182:12307   */\n      swap5\n      pop\n      pop\n        /* \"#utility.yul\":12414:12416   */\n      0x20\n        /* \"#utility.yul\":12399:12417   */\n      dup7\n      add\n        /* \"#utility.yul\":12386:12418   */\n      calldataload\n      sub(shl(0x40, 0x01), 0x01)\n        /* \"#utility.yul\":12430:12462   */\n      dup2\n      gt\n        /* \"#utility.yul\":12427:12479   */\n      iszero\n      tag_791\n      jumpi\n        /* \"#utility.yul\":12475:12476   */\n      0x00\n        /* \"#utility.yul\":12472:12473   */\n      0x00\n        /* \"#utility.yul\":12465:12477   */\n      revert\n        /* \"#utility.yul\":12427:12479   */\n    tag_791:\n        /* \"#utility.yul\":12514:12615   */\n      tag_792\n        /* \"#utility.yul\":12607:12614   */\n      dup9\n        /* \"#utility.yul\":12596:12604   */\n      dup3\n        /* \"#utility.yul\":12585:12594   */\n      dup10\n        /* \"#utility.yul\":12581:12605   */\n      add\n        /* \"#utility.yul\":12514:12615   */\n      tag_707\n      jump\t// in\n    tag_792:\n        /* \"#utility.yul\":11753:12772   */\n      swap7\n      swap10\n      swap6\n      swap9\n      pop\n        /* \"#utility.yul\":12634:12642   */\n      swap7\n        /* \"#utility.yul\":12738:12740   */\n      0x40\n        /* \"#utility.yul\":12723:12741   */\n      add\n        /* \"#utility.yul\":12710:12742   */\n      calldataload\n      swap5\n        /* \"#utility.yul\":11753:12772   */\n      swap4\n      pop\n      pop\n      pop\n      pop\n      jump\t// out\n        /* \"#utility.yul\":13007:14678   */\n    tag_146:\n        /* \"#utility.yul\":13207:13211   */\n      0x00\n        /* \"#utility.yul\":13255:13257   */\n      0x20\n        /* \"#utility.yul\":13244:13253   */\n      dup3\n        /* \"#utility.yul\":13240:13258   */\n      add\n        /* \"#utility.yul\":13285:13287   */\n      0x20\n        /* \"#utility.yul\":13274:13283   */\n      dup4\n        /* \"#utility.yul\":13267:13288   */\n      mstore\n        /* \"#utility.yul\":13308:13314   */\n      dup1\n        /* \"#utility.yul\":13343:13349   */\n      dup5\n        /* \"#utility.yul\":13337:13350   */\n      mload\n        /* \"#utility.yul\":13374:13380   */\n      dup1\n        /* \"#utility.yul\":13366:13372   */\n      dup4\n        /* \"#utility.yul\":13359:13381   */\n      mstore\n        /* \"#utility.yul\":13412:13414   */\n      0x40\n        /* \"#utility.yul\":13401:13410   */\n      dup6\n        /* \"#utility.yul\":13397:13415   */\n      add\n        /* \"#utility.yul\":13390:13415   */\n      swap2\n      pop\n        /* \"#utility.yul\":13474:13476   */\n      0x40\n        /* \"#utility.yul\":13464:13470   */\n      dup2\n        /* \"#utility.yul\":13461:13462   */\n      0x05\n        /* \"#utility.yul\":13457:13471   */\n      shl\n        /* \"#utility.yul\":13446:13455   */\n      dup7\n        /* \"#utility.yul\":13442:13472   */\n      add\n        /* \"#utility.yul\":13438:13477   */\n      add\n        /* \"#utility.yul\":13424:13477   */\n      swap3\n      pop\n        /* \"#utility.yul\":13512:13514   */\n      0x20\n        /* \"#utility.yul\":13504:13510   */\n      dup7\n        /* \"#utility.yul\":13500:13515   */\n      add\n        /* \"#utility.yul\":13533:13534   */\n      0x00\n        /* \"#utility.yul\":13543:14649   */\n    tag_796:\n        /* \"#utility.yul\":13557:13563   */\n      dup3\n        /* \"#utility.yul\":13554:13555   */\n      dup2\n        /* \"#utility.yul\":13551:13564   */\n      lt\n        /* \"#utility.yul\":13543:14649   */\n      iszero\n      tag_755\n      jumpi\n        /* \"#utility.yul\":13650:13652   */\n      0x3f\n        /* \"#utility.yul\":13646:13653   */\n      not\n        /* \"#utility.yul\":13634:13643   */\n      dup8\n        /* \"#utility.yul\":13626:13632   */\n      dup7\n        /* \"#utility.yul\":13622:13644   */\n      sub\n        /* \"#utility.yul\":13618:13654   */\n      add\n        /* \"#utility.yul\":13613:13616   */\n      dup5\n        /* \"#utility.yul\":13606:13655   */\n      mstore\n        /* \"#utility.yul\":13684:13690   */\n      dup2\n        /* \"#utility.yul\":13678:13691   */\n      mload\n        /* \"#utility.yul\":13725:13727   */\n      dup1\n        /* \"#utility.yul\":13719:13728   */\n      mload\n        /* \"#utility.yul\":13711:13717   */\n      dup7\n        /* \"#utility.yul\":13704:13729   */\n      mstore\n        /* \"#utility.yul\":13776:13778   */\n      0x20\n        /* \"#utility.yul\":13772:13774   */\n      dup2\n        /* \"#utility.yul\":13768:13779   */\n      add\n        /* \"#utility.yul\":13762:13780   */\n      mload\n        /* \"#utility.yul\":13793:13842   */\n      tag_799\n        /* \"#utility.yul\":13838:13840   */\n      0x20\n        /* \"#utility.yul\":13830:13836   */\n      dup9\n        /* \"#utility.yul\":13826:13841   */\n      add\n        /* \"#utility.yul\":13812:13824   */\n      dup3\n      sub(shl(0xa0, 0x01), 0x01)\n        /* \"#utility.yul\":2294:2325   */\n      and\n        /* \"#utility.yul\":2282:2326   */\n      swap1\n      mstore\n        /* \"#utility.yul\":2228:2332   */\n      jump\n        /* \"#utility.yul\":13793:13842   */\n    tag_799:\n      pop\n        /* \"#utility.yul\":13891:13893   */\n      0x40\n        /* \"#utility.yul\":13887:13889   */\n      dup2\n        /* \"#utility.yul\":13883:13894   */\n      add\n        /* \"#utility.yul\":13877:13895   */\n      mload\n        /* \"#utility.yul\":13908:13971   */\n      tag_800\n        /* \"#utility.yul\":13967:13969   */\n      0x40\n        /* \"#utility.yul\":13959:13965   */\n      dup9\n        /* \"#utility.yul\":13955:13970   */\n      add\n        /* \"#utility.yul\":13939:13953   */\n      dup3\n        /* \"#utility.yul\":13908:13971   */\n      tag_704\n      jump\t// in\n    tag_800:\n      pop\n        /* \"#utility.yul\":14024:14028   */\n      0x60\n        /* \"#utility.yul\":14020:14022   */\n      dup2\n        /* \"#utility.yul\":14016:14029   */\n      add\n        /* \"#utility.yul\":14010:14030   */\n      mload\n        /* \"#utility.yul\":14003:14007   */\n      0x60\n        /* \"#utility.yul\":13995:14001   */\n      dup8\n        /* \"#utility.yul\":13991:14008   */\n      add\n        /* \"#utility.yul\":13984:14031   */\n      mstore\n        /* \"#utility.yul\":14084:14088   */\n      0x80\n        /* \"#utility.yul\":14080:14082   */\n      dup2\n        /* \"#utility.yul\":14076:14089   */\n      add\n        /* \"#utility.yul\":14070:14090   */\n      mload\n        /* \"#utility.yul\":14063:14067   */\n      0x80\n        /* \"#utility.yul\":14055:14061   */\n      dup8\n        /* \"#utility.yul\":14051:14068   */\n      add\n        /* \"#utility.yul\":14044:14091   */\n      mstore\n        /* \"#utility.yul\":14140:14144   */\n      0xa0\n        /* \"#utility.yul\":14136:14138   */\n      dup2\n        /* \"#utility.yul\":14132:14145   */\n      add\n        /* \"#utility.yul\":14126:14146   */\n      mload\n        /* \"#utility.yul\":14159:14209   */\n      tag_801\n        /* \"#utility.yul\":14203:14207   */\n      0xa0\n        /* \"#utility.yul\":14195:14201   */\n      dup9\n        /* \"#utility.yul\":14191:14208   */\n      add\n        /* \"#utility.yul\":14175:14189   */\n      dup3\n        /* \"#utility.yul\":1825:1838   */\n      iszero\n        /* \"#utility.yul\":1818:1839   */\n      iszero\n        /* \"#utility.yul\":1806:1840   */\n      swap1\n      mstore\n        /* \"#utility.yul\":1755:1846   */\n      jump\n        /* \"#utility.yul\":14159:14209   */\n    tag_801:\n      pop\n        /* \"#utility.yul\":14258:14262   */\n      0xc0\n        /* \"#utility.yul\":14254:14256   */\n      dup2\n        /* \"#utility.yul\":14250:14263   */\n      add\n        /* \"#utility.yul\":14244:14264   */\n      mload\n        /* \"#utility.yul\":14277:14327   */\n      tag_802\n        /* \"#utility.yul\":14321:14325   */\n      0xc0\n        /* \"#utility.yul\":14313:14319   */\n      dup9\n        /* \"#utility.yul\":14309:14326   */\n      add\n        /* \"#utility.yul\":14293:14307   */\n      dup3\n        /* \"#utility.yul\":1825:1838   */\n      iszero\n        /* \"#utility.yul\":1818:1839   */\n      iszero\n        /* \"#utility.yul\":1806:1840   */\n      swap1\n      mstore\n        /* \"#utility.yul\":1755:1846   */\n      jump\n        /* \"#utility.yul\":14277:14327   */\n    tag_802:\n      pop\n        /* \"#utility.yul\":14380:14384   */\n      0xe0\n        /* \"#utility.yul\":14376:14378   */\n      dup2\n        /* \"#utility.yul\":14372:14385   */\n      add\n        /* \"#utility.yul\":14366:14386   */\n      mload\n        /* \"#utility.yul\":14359:14363   */\n      0xe0\n        /* \"#utility.yul\":14351:14357   */\n      dup8\n        /* \"#utility.yul\":14347:14364   */\n      add\n        /* \"#utility.yul\":14340:14387   */\n      mstore\n        /* \"#utility.yul\":14436:14442   */\n      0x0100\n        /* \"#utility.yul\":14432:14434   */\n      dup2\n        /* \"#utility.yul\":14428:14443   */\n      add\n        /* \"#utility.yul\":14422:14444   */\n      mload\n        /* \"#utility.yul\":14400:14444   */\n      swap1\n      pop\n        /* \"#utility.yul\":14485:14491   */\n      0x0120\n        /* \"#utility.yul\":14476:14482   */\n      0x0100\n        /* \"#utility.yul\":14468:14474   */\n      dup8\n        /* \"#utility.yul\":14464:14483   */\n      add\n        /* \"#utility.yul\":14457:14492   */\n      mstore\n        /* \"#utility.yul\":14515:14569   */\n      tag_803\n        /* \"#utility.yul\":14561:14567   */\n      0x0120\n        /* \"#utility.yul\":14553:14559   */\n      dup8\n        /* \"#utility.yul\":14549:14568   */\n      add\n        /* \"#utility.yul\":14533:14547   */\n      dup3\n        /* \"#utility.yul\":14515:14569   */\n      tag_701\n      jump\t// in\n    tag_803:\n        /* \"#utility.yul\":14505:14569   */\n      swap6\n      pop\n      pop\n        /* \"#utility.yul\":14604:14606   */\n      0x20\n        /* \"#utility.yul\":14627:14639   */\n      swap4\n      dup5\n      add\n      swap4\n        /* \"#utility.yul\":14592:14607   */\n      swap2\n      swap1\n      swap2\n      add\n      swap1\n        /* \"#utility.yul\":13579:13580   */\n      0x01\n        /* \"#utility.yul\":13572:13581   */\n      add\n        /* \"#utility.yul\":13543:14649   */\n      jump(tag_796)\n        /* \"#utility.yul\":14683:15193   */\n    tag_149:\n        /* \"#utility.yul\":14813:14819   */\n      0x00\n        /* \"#utility.yul\":14821:14827   */\n      0x00\n        /* \"#utility.yul\":14874:14876   */\n      0x20\n        /* \"#utility.yul\":14862:14871   */\n      dup4\n        /* \"#utility.yul\":14853:14860   */\n      dup6\n        /* \"#utility.yul\":14849:14872   */\n      sub\n        /* \"#utility.yul\":14845:14877   */\n      slt\n        /* \"#utility.yul\":14842:14894   */\n      iszero\n      tag_805\n      jumpi\n        /* \"#utility.yul\":14890:14891   */\n      0x00\n        /* \"#utility.yul\":14887:14888   */\n      0x00\n        /* \"#utility.yul\":14880:14892   */\n      revert\n        /* \"#utility.yul\":14842:14894   */\n    tag_805:\n        /* \"#utility.yul\":14930:14939   */\n      dup3\n        /* \"#utility.yul\":14917:14940   */\n      calldataload\n      sub(shl(0x40, 0x01), 0x01)\n        /* \"#utility.yul\":14955:14961   */\n      dup2\n        /* \"#utility.yul\":14952:14982   */\n      gt\n        /* \"#utility.yul\":14949:14999   */\n      iszero\n      tag_806\n      jumpi\n        /* \"#utility.yul\":14995:14996   */\n      0x00\n        /* \"#utility.yul\":14992:14993   */\n      0x00\n        /* \"#utility.yul\":14985:14997   */\n      revert\n        /* \"#utility.yul\":14949:14999   */\n    tag_806:\n        /* \"#utility.yul\":15034:15133   */\n      tag_777\n        /* \"#utility.yul\":15125:15132   */\n      dup6\n        /* \"#utility.yul\":15116:15122   */\n      dup3\n        /* \"#utility.yul\":15105:15114   */\n      dup7\n        /* \"#utility.yul\":15101:15123   */\n      add\n        /* \"#utility.yul\":15034:15133   */\n      tag_707\n      jump\t// in\n        /* \"#utility.yul\":15198:16027   */\n    tag_156:\n        /* \"#utility.yul\":15298:15304   */\n      0x00\n        /* \"#utility.yul\":15306:15312   */\n      0x00\n        /* \"#utility.yul\":15314:15320   */\n      0x00\n        /* \"#utility.yul\":15322:15328   */\n      0x00\n        /* \"#utility.yul\":15330:15336   */\n      0x00\n        /* \"#utility.yul\":15383:15385   */\n      0x60\n        /* \"#utility.yul\":15371:15380   */\n      dup7\n        /* \"#utility.yul\":15362:15369   */\n      dup9\n        /* \"#utility.yul\":15358:15381   */\n      sub\n        /* \"#utility.yul\":15354:15386   */\n      slt\n        /* \"#utility.yul\":15351:15403   */\n      iszero\n      tag_809\n      jumpi\n        /* \"#utility.yul\":15399:15400   */\n      0x00\n        /* \"#utility.yul\":15396:15397   */\n      0x00\n        /* \"#utility.yul\":15389:15401   */\n      revert\n        /* \"#utility.yul\":15351:15403   */\n    tag_809:\n        /* \"#utility.yul\":15439:15448   */\n      dup6\n        /* \"#utility.yul\":15426:15449   */\n      calldataload\n      sub(shl(0x40, 0x01), 0x01)\n        /* \"#utility.yul\":15464:15470   */\n      dup2\n        /* \"#utility.yul\":15461:15491   */\n      gt\n        /* \"#utility.yul\":15458:15508   */\n      iszero\n      tag_810\n      jumpi\n        /* \"#utility.yul\":15504:15505   */\n      0x00\n        /* \"#utility.yul\":15501:15502   */\n      0x00\n        /* \"#utility.yul\":15494:15506   */\n      revert\n        /* \"#utility.yul\":15458:15508   */\n    tag_810:\n        /* \"#utility.yul\":15543:15602   */\n      tag_811\n        /* \"#utility.yul\":15594:15601   */\n      dup9\n        /* \"#utility.yul\":15585:15591   */\n      dup3\n        /* \"#utility.yul\":15574:15583   */\n      dup10\n        /* \"#utility.yul\":15570:15592   */\n      add\n        /* \"#utility.yul\":15543:15602   */\n      tag_706\n      jump\t// in\n    tag_811:\n        /* \"#utility.yul\":15621:15629   */\n      swap1\n      swap7\n      pop\n        /* \"#utility.yul\":15517:15602   */\n      swap5\n      pop\n      pop\n        /* \"#utility.yul\":15709:15711   */\n      0x20\n        /* \"#utility.yul\":15694:15712   */\n      dup7\n      add\n        /* \"#utility.yul\":15681:15713   */\n      calldataload\n      sub(shl(0x40, 0x01), 0x01)\n        /* \"#utility.yul\":15725:15757   */\n      dup2\n      gt\n        /* \"#utility.yul\":15722:15774   */\n      iszero\n      tag_812\n      jumpi\n        /* \"#utility.yul\":15770:15771   */\n      0x00\n        /* \"#utility.yul\":15767:15768   */\n      0x00\n        /* \"#utility.yul\":15760:15772   */\n      revert\n        /* \"#utility.yul\":15722:15774   */\n    tag_812:\n        /* \"#utility.yul\":15809:15870   */\n      tag_792\n        /* \"#utility.yul\":15862:15869   */\n      dup9\n        /* \"#utility.yul\":15851:15859   */\n      dup3\n        /* \"#utility.yul\":15840:15849   */\n      dup10\n        /* \"#utility.yul\":15836:15860   */\n      add\n        /* \"#utility.yul\":15809:15870   */\n      tag_706\n      jump\t// in\n        /* \"#utility.yul\":16032:16780   */\n    tag_163:\n        /* \"#utility.yul\":16146:16152   */\n      0x00\n        /* \"#utility.yul\":16154:16160   */\n      0x00\n        /* \"#utility.yul\":16162:16168   */\n      0x00\n        /* \"#utility.yul\":16170:16176   */\n      0x00\n        /* \"#utility.yul\":16178:16184   */\n      0x00\n        /* \"#utility.yul\":16231:16234   */\n      0x80\n        /* \"#utility.yul\":16219:16228   */\n      dup7\n        /* \"#utility.yul\":16210:16217   */\n      dup9\n        /* \"#utility.yul\":16206:16229   */\n      sub\n        /* \"#utility.yul\":16202:16235   */\n      slt\n        /* \"#utility.yul\":16199:16252   */\n      iszero\n      tag_815\n      jumpi\n        /* \"#utility.yul\":16248:16249   */\n      0x00\n        /* \"#utility.yul\":16245:16246   */\n      0x00\n        /* \"#utility.yul\":16238:16250   */\n      revert\n        /* \"#utility.yul\":16199:16252   */\n    tag_815:\n        /* \"#utility.yul\":16271:16312   */\n      tag_816\n        /* \"#utility.yul\":16302:16311   */\n      dup7\n        /* \"#utility.yul\":16271:16312   */\n      tag_705\n      jump\t// in\n    tag_816:\n        /* \"#utility.yul\":16261:16312   */\n      swap5\n      pop\n        /* \"#utility.yul\":16381:16383   */\n      0x20\n        /* \"#utility.yul\":16366:16384   */\n      dup7\n      add\n        /* \"#utility.yul\":16353:16385   */\n      calldataload\n      swap4\n      pop\n        /* \"#utility.yul\":16482:16484   */\n      0x40\n        /* \"#utility.yul\":16467:16485   */\n      dup7\n      add\n        /* \"#utility.yul\":16454:16486   */\n      calldataload\n      swap3\n      pop\n        /* \"#utility.yul\":16563:16565   */\n      0x60\n        /* \"#utility.yul\":16548:16566   */\n      dup7\n      add\n        /* \"#utility.yul\":16535:16567   */\n      calldataload\n      sub(shl(0x40, 0x01), 0x01)\n        /* \"#utility.yul\":16579:16609   */\n      dup2\n      gt\n        /* \"#utility.yul\":16576:16626   */\n      iszero\n      tag_817\n      jumpi\n        /* \"#utility.yul\":16622:16623   */\n      0x00\n        /* \"#utility.yul\":16619:16620   */\n      0x00\n        /* \"#utility.yul\":16612:16624   */\n      revert\n        /* \"#utility.yul\":16576:16626   */\n    tag_817:\n        /* \"#utility.yul\":16661:16720   */\n      tag_818\n        /* \"#utility.yul\":16712:16719   */\n      dup9\n        /* \"#utility.yul\":16703:16709   */\n      dup3\n        /* \"#utility.yul\":16692:16701   */\n      dup10\n        /* \"#utility.yul\":16688:16710   */\n      add\n        /* \"#utility.yul\":16661:16720   */\n      tag_706\n      jump\t// in\n    tag_818:\n        /* \"#utility.yul\":16032:16780   */\n      swap7\n      swap10\n      swap6\n      swap9\n      pop\n      swap4\n      swap7\n      pop\n        /* \"#utility.yul\":16739:16747   */\n      swap3\n      swap5\n        /* \"#utility.yul\":16635:16720   */\n      swap4\n        /* \"#utility.yul\":16032:16780   */\n      swap3\n      pop\n      pop\n      pop\n      jump\t// out\n        /* \"#utility.yul\":16785:17071   */\n    tag_167:\n        /* \"#utility.yul\":16844:16850   */\n      0x00\n        /* \"#utility.yul\":16897:16899   */\n      0x20\n        /* \"#utility.yul\":16885:16894   */\n      dup3\n        /* \"#utility.yul\":16876:16883   */\n      dup5\n        /* \"#utility.yul\":16872:16895   */\n      sub\n        /* \"#utility.yul\":16868:16900   */\n      slt\n        /* \"#utility.yul\":16865:16917   */\n      iszero\n      tag_820\n      jumpi\n        /* \"#utility.yul\":16913:16914   */\n      0x00\n        /* \"#utility.yul\":16910:16911   */\n      0x00\n        /* \"#utility.yul\":16903:16915   */\n      revert\n        /* \"#utility.yul\":16865:16917   */\n    tag_820:\n        /* \"#utility.yul\":16939:16962   */\n      dup2\n      calldataload\n      sub(shl(0xa0, 0x01), 0x01)\n        /* \"#utility.yul\":16991:17022   */\n      dup2\n      and\n        /* \"#utility.yul\":16981:17023   */\n      dup2\n      eq\n        /* \"#utility.yul\":16971:17041   */\n      tag_739\n      jumpi\n        /* \"#utility.yul\":17037:17038   */\n      0x00\n        /* \"#utility.yul\":17034:17035   */\n      0x00\n        /* \"#utility.yul\":17027:17039   */\n      revert\n        /* \"#utility.yul\":17076:17599   */\n    tag_173:\n        /* \"#utility.yul\":17289:17291   */\n      0x20\n        /* \"#utility.yul\":17278:17287   */\n      dup2\n        /* \"#utility.yul\":17271:17292   */\n      mstore\n        /* \"#utility.yul\":17252:17256   */\n      0x00\n        /* \"#utility.yul\":17327:17333   */\n      dup3\n        /* \"#utility.yul\":17321:17334   */\n      mload\n        /* \"#utility.yul\":17370:17374   */\n      0x60\n        /* \"#utility.yul\":17365:17367   */\n      0x20\n        /* \"#utility.yul\":17354:17363   */\n      dup5\n        /* \"#utility.yul\":17350:17368   */\n      add\n        /* \"#utility.yul\":17343:17375   */\n      mstore\n        /* \"#utility.yul\":17398:17450   */\n      tag_823\n        /* \"#utility.yul\":17445:17448   */\n      0x80\n        /* \"#utility.yul\":17434:17443   */\n      dup5\n        /* \"#utility.yul\":17430:17449   */\n      add\n        /* \"#utility.yul\":17416:17428   */\n      dup3\n        /* \"#utility.yul\":17398:17450   */\n      tag_701\n      jump\t// in\n    tag_823:\n        /* \"#utility.yul\":17384:17450   */\n      swap1\n      pop\n        /* \"#utility.yul\":17504:17506   */\n      0x20\n        /* \"#utility.yul\":17496:17502   */\n      dup5\n        /* \"#utility.yul\":17492:17507   */\n      add\n        /* \"#utility.yul\":17486:17508   */\n      mload\n        /* \"#utility.yul\":17481:17483   */\n      0x40\n        /* \"#utility.yul\":17470:17479   */\n      dup5\n        /* \"#utility.yul\":17466:17484   */\n      add\n        /* \"#utility.yul\":17459:17509   */\n      mstore\n        /* \"#utility.yul\":17565:17567   */\n      0x40\n        /* \"#utility.yul\":17557:17563   */\n      dup5\n        /* \"#utility.yul\":17553:17568   */\n      add\n        /* \"#utility.yul\":17547:17569   */\n      mload\n        /* \"#utility.yul\":17540:17544   */\n      0x60\n        /* \"#utility.yul\":17529:17538   */\n      dup5\n        /* \"#utility.yul\":17525:17545   */\n      add\n        /* \"#utility.yul\":17518:17570   */\n      mstore\n        /* \"#utility.yul\":17587:17593   */\n      dup1\n        /* \"#utility.yul\":17579:17593   */\n      swap2\n      pop\n      pop\n        /* \"#utility.yul\":17076:17599   */\n      swap3\n      swap2\n      pop\n      pop\n      jump\t// out\n        /* \"#utility.yul\":17855:18235   */\n    tag_183:\n        /* \"#utility.yul\":17934:17935   */\n      0x01\n        /* \"#utility.yul\":17930:17942   */\n      dup2\n      dup2\n      shr\n      swap1\n        /* \"#utility.yul\":17977:17989   */\n      dup3\n      and\n      dup1\n        /* \"#utility.yul\":17998:18059   */\n      tag_826\n      jumpi\n        /* \"#utility.yul\":18052:18056   */\n      0x7f\n        /* \"#utility.yul\":18044:18050   */\n      dup3\n        /* \"#utility.yul\":18040:18057   */\n      and\n        /* \"#utility.yul\":18030:18057   */\n      swap2\n      pop\n        /* \"#utility.yul\":17998:18059   */\n    tag_826:\n        /* \"#utility.yul\":18105:18107   */\n      0x20\n        /* \"#utility.yul\":18097:18103   */\n      dup3\n        /* \"#utility.yul\":18094:18108   */\n      lt\n        /* \"#utility.yul\":18074:18092   */\n      dup2\n        /* \"#utility.yul\":18071:18109   */\n      sub\n        /* \"#utility.yul\":18068:18229   */\n      tag_827\n      jumpi\n        /* \"#utility.yul\":18151:18161   */\n      0x4e487b71\n        /* \"#utility.yul\":18146:18149   */\n      0xe0\n        /* \"#utility.yul\":18142:18162   */\n      shl\n        /* \"#utility.yul\":18139:18140   */\n      0x00\n        /* \"#utility.yul\":18132:18163   */\n      mstore\n        /* \"#utility.yul\":18186:18190   */\n      0x22\n        /* \"#utility.yul\":18183:18184   */\n      0x04\n        /* \"#utility.yul\":18176:18191   */\n      mstore\n        /* \"#utility.yul\":18214:18218   */\n      0x24\n        /* \"#utility.yul\":18211:18212   */\n      0x00\n        /* \"#utility.yul\":18204:18219   */\n      revert\n        /* \"#utility.yul\":18068:18229   */\n    tag_827:\n      pop\n        /* \"#utility.yul\":17855:18235   */\n      swap2\n      swap1\n      pop\n      jump\t// out\n        /* \"#utility.yul\":18664:18791   */\n    tag_708:\n        /* \"#utility.yul\":18725:18735   */\n      0x4e487b71\n        /* \"#utility.yul\":18720:18723   */\n      0xe0\n        /* \"#utility.yul\":18716:18736   */\n      shl\n        /* \"#utility.yul\":18713:18714   */\n      0x00\n        /* \"#utility.yul\":18706:18737   */\n      mstore\n        /* \"#utility.yul\":18756:18760   */\n      0x11\n        /* \"#utility.yul\":18753:18754   */\n      0x04\n        /* \"#utility.yul\":18746:18761   */\n      mstore\n        /* \"#utility.yul\":18780:18784   */\n      0x24\n        /* \"#utility.yul\":18777:18778   */\n      0x00\n        /* \"#utility.yul\":18770:18785   */\n      revert\n        /* \"#utility.yul\":18796:18931   */\n    tag_250:\n        /* \"#utility.yul\":18835:18838   */\n      0x00\n        /* \"#utility.yul\":18856:18873   */\n      0x01\n      dup3\n      add\n        /* \"#utility.yul\":18853:18896   */\n      tag_832\n      jumpi\n        /* \"#utility.yul\":18876:18894   */\n      tag_832\n      tag_708\n      jump\t// in\n    tag_832:\n      pop\n        /* \"#utility.yul\":18923:18924   */\n      0x01\n        /* \"#utility.yul\":18912:18925   */\n      add\n      swap1\n        /* \"#utility.yul\":18796:18931   */\n      jump\t// out\n        /* \"#utility.yul\":19062:19580   */\n    tag_710:\n        /* \"#utility.yul\":19164:19166   */\n      0x1f\n        /* \"#utility.yul\":19159:19162   */\n      dup3\n        /* \"#utility.yul\":19156:19167   */\n      gt\n        /* \"#utility.yul\":19153:19574   */\n      iszero\n      tag_470\n      jumpi\n        /* \"#utility.yul\":19200:19205   */\n      dup1\n        /* \"#utility.yul\":19197:19198   */\n      0x00\n        /* \"#utility.yul\":19190:19206   */\n      mstore\n        /* \"#utility.yul\":19244:19248   */\n      0x20\n        /* \"#utility.yul\":19241:19242   */\n      0x00\n        /* \"#utility.yul\":19231:19249   */\n      keccak256\n        /* \"#utility.yul\":19314:19316   */\n      0x1f\n        /* \"#utility.yul\":19302:19312   */\n      dup5\n        /* \"#utility.yul\":19298:19317   */\n      add\n        /* \"#utility.yul\":19295:19296   */\n      0x05\n        /* \"#utility.yul\":19291:19318   */\n      shr\n        /* \"#utility.yul\":19285:19289   */\n      dup2\n        /* \"#utility.yul\":19281:19319   */\n      add\n        /* \"#utility.yul\":19350:19354   */\n      0x20\n        /* \"#utility.yul\":19338:19348   */\n      dup6\n        /* \"#utility.yul\":19335:19355   */\n      lt\n        /* \"#utility.yul\":19332:19379   */\n      iszero\n      tag_836\n      jumpi\n      pop\n        /* \"#utility.yul\":19373:19377   */\n      dup1\n        /* \"#utility.yul\":19332:19379   */\n    tag_836:\n        /* \"#utility.yul\":19428:19430   */\n      0x1f\n        /* \"#utility.yul\":19423:19426   */\n      dup5\n        /* \"#utility.yul\":19419:19431   */\n      add\n        /* \"#utility.yul\":19416:19417   */\n      0x05\n        /* \"#utility.yul\":19412:19432   */\n      shr\n        /* \"#utility.yul\":19406:19410   */\n      dup3\n        /* \"#utility.yul\":19402:19433   */\n      add\n        /* \"#utility.yul\":19392:19433   */\n      swap2\n      pop\n        /* \"#utility.yul\":19483:19564   */\n    tag_837:\n        /* \"#utility.yul\":19501:19503   */\n      dup2\n        /* \"#utility.yul\":19494:19499   */\n      dup2\n        /* \"#utility.yul\":19491:19504   */\n      lt\n        /* \"#utility.yul\":19483:19564   */\n      iszero\n      tag_839\n      jumpi\n        /* \"#utility.yul\":19560:19561   */\n      0x00\n        /* \"#utility.yul\":19546:19562   */\n      dup2\n      sstore\n        /* \"#utility.yul\":19527:19528   */\n      0x01\n        /* \"#utility.yul\":19516:19529   */\n      add\n        /* \"#utility.yul\":19483:19564   */\n      jump(tag_837)\n    tag_839:\n        /* \"#utility.yul\":19487:19490   */\n      pop\n      pop\n        /* \"#utility.yul\":19062:19580   */\n      pop\n      pop\n      pop\n      jump\t// out\n        /* \"#utility.yul\":19585:19751   */\n    tag_711:\n      not(0x00)\n        /* \"#utility.yul\":19713:19714   */\n      0x03\n        /* \"#utility.yul\":19709:19720   */\n      dup4\n      swap1\n      shl\n        /* \"#utility.yul\":19705:19729   */\n      shr\n        /* \"#utility.yul\":19701:19730   */\n      not\n        /* \"#utility.yul\":19691:19731   */\n      and\n        /* \"#utility.yul\":19737:19738   */\n      0x01\n        /* \"#utility.yul\":19733:19744   */\n      swap2\n      swap1\n      swap2\n      shl\n        /* \"#utility.yul\":19688:19745   */\n      or\n      swap1\n        /* \"#utility.yul\":19585:19751   */\n      jump\t// out\n        /* \"#utility.yul\":19756:20954   */\n    tag_258:\n      sub(shl(0x40, 0x01), 0x01)\n        /* \"#utility.yul\":19875:19878   */\n      dup4\n        /* \"#utility.yul\":19872:19899   */\n      gt\n        /* \"#utility.yul\":19869:19922   */\n      iszero\n      tag_843\n      jumpi\n        /* \"#utility.yul\":19902:19920   */\n      tag_843\n      tag_700\n      jump\t// in\n    tag_843:\n        /* \"#utility.yul\":19931:20025   */\n      tag_844\n        /* \"#utility.yul\":20021:20024   */\n      dup4\n        /* \"#utility.yul\":19981:20019   */\n      tag_845\n        /* \"#utility.yul\":20013:20017   */\n      dup4\n        /* \"#utility.yul\":20007:20018   */\n      sload\n        /* \"#utility.yul\":19981:20019   */\n      tag_183\n      jump\t// in\n    tag_845:\n        /* \"#utility.yul\":19975:19979   */\n      dup4\n        /* \"#utility.yul\":19931:20025   */\n      tag_710\n      jump\t// in\n    tag_844:\n        /* \"#utility.yul\":20051:20052   */\n      0x00\n        /* \"#utility.yul\":20076:20078   */\n      0x1f\n        /* \"#utility.yul\":20071:20074   */\n      dup5\n        /* \"#utility.yul\":20068:20079   */\n      gt\n        /* \"#utility.yul\":20093:20094   */\n      0x01\n        /* \"#utility.yul\":20088:20696   */\n      dup2\n      eq\n      tag_847\n      jumpi\n        /* \"#utility.yul\":20740:20741   */\n      0x00\n        /* \"#utility.yul\":20757:20760   */\n      dup6\n        /* \"#utility.yul\":20754:20847   */\n      iszero\n      tag_848\n      jumpi\n      pop\n        /* \"#utility.yul\":20813:20832   */\n      dup4\n      dup3\n      add\n        /* \"#utility.yul\":20800:20833   */\n      calldataload\n        /* \"#utility.yul\":20754:20847   */\n    tag_848:\n        /* \"#utility.yul\":20873:20937   */\n      tag_849\n        /* \"#utility.yul\":20933:20936   */\n      dup7\n        /* \"#utility.yul\":20926:20931   */\n      dup3\n        /* \"#utility.yul\":20873:20937   */\n      tag_711\n      jump\t// in\n    tag_849:\n        /* \"#utility.yul\":20867:20871   */\n      dup5\n        /* \"#utility.yul\":20860:20938   */\n      sstore\n      pop\n        /* \"#utility.yul\":20061:20948   */\n      jump(tag_839)\n        /* \"#utility.yul\":20088:20696   */\n    tag_847:\n        /* \"#utility.yul\":19009:19010   */\n      0x00\n        /* \"#utility.yul\":19002:19016   */\n      dup4\n      dup2\n      mstore\n        /* \"#utility.yul\":19046:19050   */\n      0x20\n        /* \"#utility.yul\":19033:19051   */\n      dup2\n      keccak256\n      not(0x1f)\n        /* \"#utility.yul\":20124:20141   */\n      dup8\n      and\n      swap2\n        /* \"#utility.yul\":20239:20468   */\n    tag_851:\n        /* \"#utility.yul\":20253:20260   */\n      dup3\n        /* \"#utility.yul\":20250:20251   */\n      dup2\n        /* \"#utility.yul\":20247:20261   */\n      lt\n        /* \"#utility.yul\":20239:20468   */\n      iszero\n      tag_853\n      jumpi\n        /* \"#utility.yul\":20342:20361   */\n      dup7\n      dup6\n      add\n        /* \"#utility.yul\":20329:20362   */\n      calldataload\n        /* \"#utility.yul\":20314:20363   */\n      dup3\n      sstore\n        /* \"#utility.yul\":20449:20453   */\n      0x20\n        /* \"#utility.yul\":20434:20454   */\n      swap5\n      dup6\n      add\n      swap5\n        /* \"#utility.yul\":20402:20403   */\n      0x01\n        /* \"#utility.yul\":20390:20404   */\n      swap1\n      swap3\n      add\n      swap2\n        /* \"#utility.yul\":20269:20281   */\n      add\n        /* \"#utility.yul\":20239:20468   */\n      jump(tag_851)\n    tag_853:\n        /* \"#utility.yul\":20243:20246   */\n      pop\n        /* \"#utility.yul\":20496:20499   */\n      dup7\n        /* \"#utility.yul\":20487:20494   */\n      dup3\n        /* \"#utility.yul\":20484:20500   */\n      lt\n        /* \"#utility.yul\":20481:20640   */\n      iszero\n      tag_854\n      jumpi\n        /* \"#utility.yul\":20620:20621   */\n      0x00\n        /* \"#utility.yul\":20616:20622   */\n      not\n        /* \"#utility.yul\":20610:20613   */\n      0xf8\n        /* \"#utility.yul\":20604:20607   */\n      dup9\n        /* \"#utility.yul\":20601:20602   */\n      0x03\n        /* \"#utility.yul\":20597:20608   */\n      shl\n        /* \"#utility.yul\":20593:20614   */\n      and\n        /* \"#utility.yul\":20589:20623   */\n      shr\n        /* \"#utility.yul\":20585:20624   */\n      not\n        /* \"#utility.yul\":20572:20581   */\n      dup5\n        /* \"#utility.yul\":20567:20570   */\n      dup8\n        /* \"#utility.yul\":20563:20582   */\n      add\n        /* \"#utility.yul\":20550:20583   */\n      calldataload\n        /* \"#utility.yul\":20546:20625   */\n      and\n        /* \"#utility.yul\":20538:20544   */\n      dup2\n        /* \"#utility.yul\":20531:20626   */\n      sstore\n        /* \"#utility.yul\":20481:20640   */\n    tag_854:\n      pop\n      pop\n        /* \"#utility.yul\":20683:20684   */\n      0x01\n        /* \"#utility.yul\":20677:20680   */\n      dup6\n        /* \"#utility.yul\":20674:20675   */\n      0x01\n        /* \"#utility.yul\":20670:20681   */\n      shl\n        /* \"#utility.yul\":20666:20685   */\n      add\n        /* \"#utility.yul\":20660:20664   */\n      dup4\n        /* \"#utility.yul\":20653:20686   */\n      sstore\n        /* \"#utility.yul\":20061:20948   */\n      pop\n      pop\n        /* \"#utility.yul\":19756:20954   */\n      pop\n      pop\n      pop\n      jump\t// out\n        /* \"#utility.yul\":20959:22258   */\n    tag_263:\n        /* \"#utility.yul\":21085:21088   */\n      dup2\n        /* \"#utility.yul\":21079:21089   */\n      mload\n      sub(shl(0x40, 0x01), 0x01)\n        /* \"#utility.yul\":21104:21110   */\n      dup2\n        /* \"#utility.yul\":21101:21131   */\n      gt\n        /* \"#utility.yul\":21098:21154   */\n      iszero\n      tag_857\n      jumpi\n        /* \"#utility.yul\":21134:21152   */\n      tag_857\n      tag_700\n      jump\t// in\n    tag_857:\n        /* \"#utility.yul\":21163:21260   */\n      tag_858\n        /* \"#utility.yul\":21253:21259   */\n      dup2\n        /* \"#utility.yul\":21213:21251   */\n      tag_859\n        /* \"#utility.yul\":21245:21249   */\n      dup5\n        /* \"#utility.yul\":21239:21250   */\n      sload\n        /* \"#utility.yul\":21213:21251   */\n      tag_183\n      jump\t// in\n    tag_859:\n        /* \"#utility.yul\":21207:21211   */\n      dup5\n        /* \"#utility.yul\":21163:21260   */\n      tag_710\n      jump\t// in\n    tag_858:\n        /* \"#utility.yul\":21309:21313   */\n      0x20\n        /* \"#utility.yul\":21340:21342   */\n      0x1f\n        /* \"#utility.yul\":21329:21343   */\n      dup3\n      gt\n        /* \"#utility.yul\":21357:21358   */\n      0x01\n        /* \"#utility.yul\":21352:22001   */\n      dup2\n      eq\n      tag_861\n      jumpi\n        /* \"#utility.yul\":22045:22046   */\n      0x00\n        /* \"#utility.yul\":22062:22068   */\n      dup4\n        /* \"#utility.yul\":22059:22148   */\n      iszero\n      tag_862\n      jumpi\n      pop\n        /* \"#utility.yul\":22114:22133   */\n      dup5\n      dup3\n      add\n        /* \"#utility.yul\":22108:22134   */\n      mload\n        /* \"#utility.yul\":22059:22148   */\n    tag_862:\n        /* \"#utility.yul\":22174:22241   */\n      tag_863\n        /* \"#utility.yul\":22234:22240   */\n      dup5\n        /* \"#utility.yul\":22227:22232   */\n      dup3\n        /* \"#utility.yul\":22174:22241   */\n      tag_711\n      jump\t// in\n    tag_863:\n        /* \"#utility.yul\":22168:22172   */\n      dup6\n        /* \"#utility.yul\":22161:22242   */\n      sstore\n      pop\n        /* \"#utility.yul\":21322:22252   */\n      jump(tag_839)\n        /* \"#utility.yul\":21352:22001   */\n    tag_861:\n        /* \"#utility.yul\":19009:19010   */\n      0x00\n        /* \"#utility.yul\":19002:19016   */\n      dup5\n      dup2\n      mstore\n        /* \"#utility.yul\":19046:19050   */\n      0x20\n        /* \"#utility.yul\":19033:19051   */\n      dup2\n      keccak256\n      not(0x1f)\n        /* \"#utility.yul\":21388:21408   */\n      dup6\n      and\n      swap2\n        /* \"#utility.yul\":21506:21728   */\n    tag_865:\n        /* \"#utility.yul\":21520:21527   */\n      dup3\n        /* \"#utility.yul\":21517:21518   */\n      dup2\n        /* \"#utility.yul\":21514:21528   */\n      lt\n        /* \"#utility.yul\":21506:21728   */\n      iszero\n      tag_867\n      jumpi\n        /* \"#utility.yul\":21602:21621   */\n      dup8\n      dup6\n      add\n        /* \"#utility.yul\":21596:21622   */\n      mload\n        /* \"#utility.yul\":21581:21623   */\n      dup3\n      sstore\n        /* \"#utility.yul\":21709:21713   */\n      0x20\n        /* \"#utility.yul\":21694:21714   */\n      swap5\n      dup6\n      add\n      swap5\n        /* \"#utility.yul\":21662:21663   */\n      0x01\n        /* \"#utility.yul\":21650:21664   */\n      swap1\n      swap3\n      add\n      swap2\n        /* \"#utility.yul\":21536:21548   */\n      add\n        /* \"#utility.yul\":21506:21728   */\n      jump(tag_865)\n    tag_867:\n        /* \"#utility.yul\":21510:21513   */\n      pop\n        /* \"#utility.yul\":21756:21762   */\n      dup5\n        /* \"#utility.yul\":21747:21754   */\n      dup3\n        /* \"#utility.yul\":21744:21763   */\n      lt\n        /* \"#utility.yul\":21741:21942   */\n      iszero\n      tag_868\n      jumpi\n        /* \"#utility.yul\":21817:21836   */\n      dup7\n      dup5\n      add\n        /* \"#utility.yul\":21811:21837   */\n      mload\n      not(0x00)\n        /* \"#utility.yul\":21900:21901   */\n      0x03\n        /* \"#utility.yul\":21896:21910   */\n      dup8\n      swap1\n      shl\n        /* \"#utility.yul\":21912:21915   */\n      0xf8\n        /* \"#utility.yul\":21892:21916   */\n      and\n        /* \"#utility.yul\":21888:21925   */\n      shr\n        /* \"#utility.yul\":21884:21926   */\n      not\n        /* \"#utility.yul\":21869:21927   */\n      and\n        /* \"#utility.yul\":21854:21928   */\n      dup2\n      sstore\n        /* \"#utility.yul\":21741:21942   */\n    tag_868:\n      pop\n      pop\n      pop\n      pop\n        /* \"#utility.yul\":21988:21989   */\n      0x01\n        /* \"#utility.yul\":21972:21986   */\n      swap1\n      dup2\n      shl\n        /* \"#utility.yul\":21968:21990   */\n      add\n        /* \"#utility.yul\":21955:21991   */\n      swap1\n      sstore\n      pop\n        /* \"#utility.yul\":20959:22258   */\n      jump\t// out\n        /* \"#utility.yul\":22263:22530   */\n    tag_712:\n        /* \"#utility.yul\":22352:22358   */\n      dup2\n        /* \"#utility.yul\":22347:22350   */\n      dup4\n        /* \"#utility.yul\":22340:22359   */\n      mstore\n        /* \"#utility.yul\":22404:22410   */\n      dup2\n        /* \"#utility.yul\":22397:22402   */\n      dup2\n        /* \"#utility.yul\":22390:22394   */\n      0x20\n        /* \"#utility.yul\":22385:22388   */\n      dup6\n        /* \"#utility.yul\":22381:22395   */\n      add\n        /* \"#utility.yul\":22368:22411   */\n      calldatacopy\n      pop\n        /* \"#utility.yul\":22456:22457   */\n      0x00\n        /* \"#utility.yul\":22431:22447   */\n      dup3\n      dup3\n      add\n        /* \"#utility.yul\":22449:22453   */\n      0x20\n        /* \"#utility.yul\":22427:22454   */\n      swap1\n      dup2\n      add\n        /* \"#utility.yul\":22420:22458   */\n      swap2\n      swap1\n      swap2\n      mstore\n        /* \"#utility.yul\":22512:22514   */\n      0x1f\n        /* \"#utility.yul\":22491:22506   */\n      swap1\n      swap2\n      add\n      not(0x1f)\n        /* \"#utility.yul\":22487:22516   */\n      and\n        /* \"#utility.yul\":22478:22517   */\n      swap1\n      swap2\n      add\n        /* \"#utility.yul\":22474:22524   */\n      add\n      swap1\n        /* \"#utility.yul\":22263:22530   */\n      jump\t// out\n        /* \"#utility.yul\":22535:23042   */\n    tag_265:\n        /* \"#utility.yul\":22781:22830   */\n      tag_871\n        /* \"#utility.yul\":22820:22829   */\n      dup2\n        /* \"#utility.yul\":22812:22818   */\n      dup8\n        /* \"#utility.yul\":22781:22830   */\n      tag_704\n      jump\t// in\n    tag_871:\n        /* \"#utility.yul\":22866:22872   */\n      dup5\n        /* \"#utility.yul\":22861:22863   */\n      0x20\n        /* \"#utility.yul\":22850:22859   */\n      dup3\n        /* \"#utility.yul\":22846:22864   */\n      add\n        /* \"#utility.yul\":22839:22873   */\n      mstore\n        /* \"#utility.yul\":22909:22915   */\n      dup4\n        /* \"#utility.yul\":22904:22906   */\n      0x40\n        /* \"#utility.yul\":22893:22902   */\n      dup3\n        /* \"#utility.yul\":22889:22907   */\n      add\n        /* \"#utility.yul\":22882:22916   */\n      mstore\n        /* \"#utility.yul\":22952:22955   */\n      0x80\n        /* \"#utility.yul\":22947:22949   */\n      0x60\n        /* \"#utility.yul\":22936:22945   */\n      dup3\n        /* \"#utility.yul\":22932:22950   */\n      add\n        /* \"#utility.yul\":22925:22956   */\n      mstore\n        /* \"#utility.yul\":22762:22766   */\n      0x00\n        /* \"#utility.yul\":22973:23036   */\n      tag_872\n        /* \"#utility.yul\":23031:23034   */\n      0x80\n        /* \"#utility.yul\":23020:23029   */\n      dup4\n        /* \"#utility.yul\":23016:23035   */\n      add\n        /* \"#utility.yul\":23008:23014   */\n      dup5\n        /* \"#utility.yul\":23000:23006   */\n      dup7\n        /* \"#utility.yul\":22973:23036   */\n      tag_712\n      jump\t// in\n    tag_872:\n        /* \"#utility.yul\":22965:23036   */\n      swap8\n        /* \"#utility.yul\":22535:23042   */\n      swap7\n      pop\n      pop\n      pop\n      pop\n      pop\n      pop\n      pop\n      jump\t// out\n        /* \"#utility.yul\":23047:23320   */\n    tag_295:\n        /* \"#utility.yul\":23232:23238   */\n      dup2\n        /* \"#utility.yul\":23224:23230   */\n      dup4\n        /* \"#utility.yul\":23219:23222   */\n      dup3\n        /* \"#utility.yul\":23206:23239   */\n      calldatacopy\n        /* \"#utility.yul\":23188:23191   */\n      0x00\n        /* \"#utility.yul\":23258:23274   */\n      swap2\n      add\n        /* \"#utility.yul\":23283:23296   */\n      swap1\n      dup2\n      mstore\n        /* \"#utility.yul\":23258:23274   */\n      swap2\n        /* \"#utility.yul\":23047:23320   */\n      swap1\n      pop\n      jump\t// out\n        /* \"#utility.yul\":23325:23452   */\n    tag_302:\n        /* \"#utility.yul\":23386:23396   */\n      0x4e487b71\n        /* \"#utility.yul\":23381:23384   */\n      0xe0\n        /* \"#utility.yul\":23377:23397   */\n      shl\n        /* \"#utility.yul\":23374:23375   */\n      0x00\n        /* \"#utility.yul\":23367:23398   */\n      mstore\n        /* \"#utility.yul\":23417:23421   */\n      0x32\n        /* \"#utility.yul\":23414:23415   */\n      0x04\n        /* \"#utility.yul\":23407:23422   */\n      mstore\n        /* \"#utility.yul\":23441:23445   */\n      0x24\n        /* \"#utility.yul\":23438:23439   */\n      0x00\n        /* \"#utility.yul\":23431:23446   */\n      revert\n        /* \"#utility.yul\":23457:24254   */\n    tag_305:\n        /* \"#utility.yul\":23585:23588   */\n      0x00\n        /* \"#utility.yul\":23614:23615   */\n      0x00\n        /* \"#utility.yul\":23647:23653   */\n      dup4\n        /* \"#utility.yul\":23641:23654   */\n      sload\n        /* \"#utility.yul\":23677:23713   */\n      tag_876\n        /* \"#utility.yul\":23703:23712   */\n      dup2\n        /* \"#utility.yul\":23677:23713   */\n      tag_183\n      jump\t// in\n    tag_876:\n        /* \"#utility.yul\":23744:23745   */\n      0x01\n        /* \"#utility.yul\":23729:23746   */\n      dup3\n      and\n        /* \"#utility.yul\":23755:23888   */\n      dup1\n      iszero\n      tag_878\n      jumpi\n        /* \"#utility.yul\":23902:23903   */\n      0x01\n        /* \"#utility.yul\":23897:24229   */\n      dup2\n      eq\n      tag_879\n      jumpi\n        /* \"#utility.yul\":23722:24229   */\n      jump(tag_877)\n        /* \"#utility.yul\":23755:23888   */\n    tag_878:\n      not(0xff)\n        /* \"#utility.yul\":23788:23812   */\n      dup4\n      and\n        /* \"#utility.yul\":23776:23813   */\n      dup7\n      mstore\n        /* \"#utility.yul\":23861:23875   */\n      dup2\n      iszero\n        /* \"#utility.yul\":23854:23876   */\n      iszero\n        /* \"#utility.yul\":23842:23877   */\n      dup3\n      mul\n        /* \"#utility.yul\":23833:23878   */\n      dup7\n      add\n      swap4\n      pop\n        /* \"#utility.yul\":23755:23888   */\n      jump(tag_877)\n        /* \"#utility.yul\":23897:24229   */\n    tag_879:\n        /* \"#utility.yul\":23928:23934   */\n      dup7\n        /* \"#utility.yul\":23925:23926   */\n      0x00\n        /* \"#utility.yul\":23918:23935   */\n      mstore\n        /* \"#utility.yul\":23976:23980   */\n      0x20\n        /* \"#utility.yul\":23973:23974   */\n      0x00\n        /* \"#utility.yul\":23963:23981   */\n      keccak256\n        /* \"#utility.yul\":24003:24004   */\n      0x00\n        /* \"#utility.yul\":24017:24183   */\n    tag_880:\n        /* \"#utility.yul\":24031:24037   */\n      dup4\n        /* \"#utility.yul\":24028:24029   */\n      dup2\n        /* \"#utility.yul\":24025:24038   */\n      lt\n        /* \"#utility.yul\":24017:24183   */\n      iszero\n      tag_882\n      jumpi\n        /* \"#utility.yul\":24111:24125   */\n      dup2\n      sload\n        /* \"#utility.yul\":24098:24109   */\n      dup9\n      dup3\n      add\n        /* \"#utility.yul\":24091:24126   */\n      mstore\n        /* \"#utility.yul\":24167:24168   */\n      0x01\n        /* \"#utility.yul\":24154:24169   */\n      swap1\n      swap2\n      add\n      swap1\n        /* \"#utility.yul\":24053:24057   */\n      0x20\n        /* \"#utility.yul\":24046:24058   */\n      add\n        /* \"#utility.yul\":24017:24183   */\n      jump(tag_880)\n    tag_882:\n        /* \"#utility.yul\":24021:24024   */\n      pop\n      pop\n        /* \"#utility.yul\":24212:24218   */\n      dup2\n        /* \"#utility.yul\":24207:24210   */\n      dup7\n        /* \"#utility.yul\":24203:24219   */\n      add\n        /* \"#utility.yul\":24196:24219   */\n      swap4\n      pop\n        /* \"#utility.yul\":23722:24229   */\n    tag_877:\n      pop\n        /* \"#utility.yul\":24245:24248   */\n      swap2\n      swap6\n        /* \"#utility.yul\":23457:24254   */\n      swap5\n      pop\n      pop\n      pop\n      pop\n      pop\n      jump\t// out\n        /* \"#utility.yul\":24259:24597   */\n    tag_374:\n        /* \"#utility.yul\":24365:24369   */\n      0x00\n        /* \"#utility.yul\":24423:24434   */\n      dup3\n        /* \"#utility.yul\":24410:24435   */\n      calldataload\n        /* \"#utility.yul\":24517:24520   */\n      0x9e\n        /* \"#utility.yul\":24513:24521   */\n      not\n        /* \"#utility.yul\":24502:24510   */\n      dup4\n        /* \"#utility.yul\":24486:24500   */\n      calldatasize\n        /* \"#utility.yul\":24482:24511   */\n      sub\n        /* \"#utility.yul\":24478:24522   */\n      add\n        /* \"#utility.yul\":24458:24476   */\n      dup2\n        /* \"#utility.yul\":24454:24523   */\n      slt\n        /* \"#utility.yul\":24444:24541   */\n      tag_884\n      jumpi\n        /* \"#utility.yul\":24537:24538   */\n      0x00\n        /* \"#utility.yul\":24534:24535   */\n      0x00\n        /* \"#utility.yul\":24527:24539   */\n      revert\n        /* \"#utility.yul\":24444:24541   */\n    tag_884:\n        /* \"#utility.yul\":24558:24591   */\n      swap2\n      swap1\n      swap2\n      add\n      swap3\n        /* \"#utility.yul\":24259:24597   */\n      swap2\n      pop\n      pop\n      jump\t// out\n        /* \"#utility.yul\":24602:25124   */\n    tag_376:\n        /* \"#utility.yul\":24680:24684   */\n      0x00\n        /* \"#utility.yul\":24686:24692   */\n      0x00\n        /* \"#utility.yul\":24746:24757   */\n      dup4\n        /* \"#utility.yul\":24733:24758   */\n      calldataload\n        /* \"#utility.yul\":24840:24842   */\n      0x1e\n        /* \"#utility.yul\":24836:24843   */\n      not\n        /* \"#utility.yul\":24825:24833   */\n      dup5\n        /* \"#utility.yul\":24809:24823   */\n      calldatasize\n        /* \"#utility.yul\":24805:24834   */\n      sub\n        /* \"#utility.yul\":24801:24844   */\n      add\n        /* \"#utility.yul\":24781:24799   */\n      dup2\n        /* \"#utility.yul\":24777:24845   */\n      slt\n        /* \"#utility.yul\":24767:24863   */\n      tag_886\n      jumpi\n        /* \"#utility.yul\":24859:24860   */\n      0x00\n        /* \"#utility.yul\":24856:24857   */\n      0x00\n        /* \"#utility.yul\":24849:24861   */\n      revert\n        /* \"#utility.yul\":24767:24863   */\n    tag_886:\n        /* \"#utility.yul\":24886:24919   */\n      dup4\n      add\n        /* \"#utility.yul\":24938:24958   */\n      dup1\n      calldataload\n      swap2\n      pop\n      sub(shl(0x40, 0x01), 0x01)\n        /* \"#utility.yul\":24970:25000   */\n      dup3\n      gt\n        /* \"#utility.yul\":24967:25017   */\n      iszero\n      tag_887\n      jumpi\n        /* \"#utility.yul\":25013:25014   */\n      0x00\n        /* \"#utility.yul\":25010:25011   */\n      0x00\n        /* \"#utility.yul\":25003:25015   */\n      revert\n        /* \"#utility.yul\":24967:25017   */\n    tag_887:\n        /* \"#utility.yul\":25046:25050   */\n      0x20\n        /* \"#utility.yul\":25034:25051   */\n      add\n      swap2\n      pop\n        /* \"#utility.yul\":25077:25091   */\n      calldatasize\n        /* \"#utility.yul\":25073:25100   */\n      dup2\n      swap1\n      sub\n        /* \"#utility.yul\":25063:25101   */\n      dup3\n      sgt\n        /* \"#utility.yul\":25060:25118   */\n      iszero\n      tag_746\n      jumpi\n        /* \"#utility.yul\":25114:25115   */\n      0x00\n        /* \"#utility.yul\":25111:25112   */\n      0x00\n        /* \"#utility.yul\":25104:25116   */\n      revert\n        /* \"#utility.yul\":25129:25257   */\n    tag_438:\n        /* \"#utility.yul\":25196:25205   */\n      dup2\n      dup2\n      sub\n        /* \"#utility.yul\":25217:25228   */\n      dup2\n      dup2\n      gt\n        /* \"#utility.yul\":25214:25251   */\n      iszero\n      tag_345\n      jumpi\n        /* \"#utility.yul\":25231:25249   */\n      tag_345\n      tag_708\n      jump\t// in\n        /* \"#utility.yul\":25262:26659   */\n    tag_446:\n        /* \"#utility.yul\":25381:25384   */\n      dup2\n        /* \"#utility.yul\":25375:25379   */\n      dup2\n        /* \"#utility.yul\":25372:25385   */\n      sub\n        /* \"#utility.yul\":25369:25395   */\n      tag_893\n      jumpi\n        /* \"#utility.yul\":25388:25393   */\n      pop\n      pop\n        /* \"#utility.yul\":25262:26659   */\n      jump\t// out\n        /* \"#utility.yul\":25369:25395   */\n    tag_893:\n        /* \"#utility.yul\":25418:25455   */\n      tag_894\n        /* \"#utility.yul\":25450:25453   */\n      dup3\n        /* \"#utility.yul\":25444:25454   */\n      sload\n        /* \"#utility.yul\":25418:25455   */\n      tag_183\n      jump\t// in\n    tag_894:\n      sub(shl(0x40, 0x01), 0x01)\n        /* \"#utility.yul\":25470:25476   */\n      dup2\n        /* \"#utility.yul\":25467:25497   */\n      gt\n        /* \"#utility.yul\":25464:25520   */\n      iszero\n      tag_896\n      jumpi\n        /* \"#utility.yul\":25500:25518   */\n      tag_896\n      tag_700\n      jump\t// in\n    tag_896:\n        /* \"#utility.yul\":25529:25626   */\n      tag_897\n        /* \"#utility.yul\":25619:25625   */\n      dup2\n        /* \"#utility.yul\":25579:25617   */\n      tag_859\n        /* \"#utility.yul\":25611:25615   */\n      dup5\n        /* \"#utility.yul\":25605:25616   */\n      sload\n        /* \"#utility.yul\":25579:25617   */\n      tag_183\n      jump\t// in\n        /* \"#utility.yul\":25529:25626   */\n    tag_897:\n        /* \"#utility.yul\":25652:25653   */\n      0x00\n        /* \"#utility.yul\":25680:25682   */\n      0x1f\n        /* \"#utility.yul\":25672:25678   */\n      dup3\n        /* \"#utility.yul\":25669:25683   */\n      gt\n        /* \"#utility.yul\":25697:25698   */\n      0x01\n        /* \"#utility.yul\":25692:26402   */\n      dup2\n      eq\n      tag_900\n      jumpi\n        /* \"#utility.yul\":26446:26447   */\n      0x00\n        /* \"#utility.yul\":26463:26469   */\n      dup4\n        /* \"#utility.yul\":26460:26549   */\n      iszero\n      tag_862\n      jumpi\n      pop\n        /* \"#utility.yul\":26515:26534   */\n      dup5\n      dup3\n      add\n        /* \"#utility.yul\":26509:26535   */\n      sload\n        /* \"#utility.yul\":26575:26642   */\n      tag_863\n        /* \"#utility.yul\":26635:26641   */\n      dup5\n        /* \"#utility.yul\":26628:26633   */\n      dup3\n        /* \"#utility.yul\":26575:26642   */\n      tag_711\n      jump\t// in\n        /* \"#utility.yul\":25692:26402   */\n    tag_900:\n        /* \"#utility.yul\":19009:19010   */\n      0x00\n        /* \"#utility.yul\":19002:19016   */\n      dup6\n      dup2\n      mstore\n        /* \"#utility.yul\":19046:19050   */\n      0x20\n        /* \"#utility.yul\":19033:19051   */\n      dup1\n      dup3\n      keccak256\n        /* \"#utility.yul\":19002:19016   */\n      dup7\n      dup4\n      mstore\n        /* \"#utility.yul\":19033:19051   */\n      swap1\n      dup3\n      keccak256\n      not(0x1f)\n        /* \"#utility.yul\":25728:25748   */\n      dup7\n      and\n      swap3\n        /* \"#utility.yul\":25906:26127   */\n    tag_905:\n        /* \"#utility.yul\":25920:25927   */\n      dup4\n        /* \"#utility.yul\":25917:25918   */\n      dup2\n        /* \"#utility.yul\":25914:25928   */\n      lt\n        /* \"#utility.yul\":25906:26127   */\n      iszero\n      tag_907\n      jumpi\n        /* \"#utility.yul\":26002:26023   */\n      dup3\n      dup7\n      add\n        /* \"#utility.yul\":25996:26024   */\n      sload\n        /* \"#utility.yul\":25981:26025   */\n      dup3\n      sstore\n        /* \"#utility.yul\":26064:26065   */\n      0x01\n        /* \"#utility.yul\":26096:26113   */\n      swap6\n      dup7\n      add\n      swap6\n        /* \"#utility.yul\":26052:26066   */\n      swap1\n      swap2\n      add\n      swap1\n        /* \"#utility.yul\":25943:25947   */\n      0x20\n        /* \"#utility.yul\":25936:25948   */\n      add\n        /* \"#utility.yul\":25906:26127   */\n      jump(tag_905)\n    tag_907:\n        /* \"#utility.yul\":25910:25913   */\n      pop\n        /* \"#utility.yul\":26155:26161   */\n      dup6\n        /* \"#utility.yul\":26146:26153   */\n      dup4\n        /* \"#utility.yul\":26143:26162   */\n      lt\n        /* \"#utility.yul\":26140:26343   */\n      iszero\n      tag_908\n      jumpi\n        /* \"#utility.yul\":26216:26237   */\n      dup2\n      dup6\n      add\n        /* \"#utility.yul\":26210:26238   */\n      sload\n      not(0x00)\n        /* \"#utility.yul\":26301:26302   */\n      0x03\n        /* \"#utility.yul\":26297:26311   */\n      dup9\n      swap1\n      shl\n        /* \"#utility.yul\":26313:26316   */\n      0xf8\n        /* \"#utility.yul\":26293:26317   */\n      and\n        /* \"#utility.yul\":26289:26326   */\n      shr\n        /* \"#utility.yul\":26285:26327   */\n      not\n        /* \"#utility.yul\":26270:26328   */\n      and\n        /* \"#utility.yul\":26255:26329   */\n      dup2\n      sstore\n        /* \"#utility.yul\":26140:26343   */\n    tag_908:\n      pop\n      pop\n      pop\n      pop\n      pop\n        /* \"#utility.yul\":26389:26390   */\n      0x01\n        /* \"#utility.yul\":26373:26387   */\n      swap1\n      dup2\n      shl\n        /* \"#utility.yul\":26369:26391   */\n      add\n        /* \"#utility.yul\":26356:26392   */\n      swap1\n      sstore\n      pop\n        /* \"#utility.yul\":25262:26659   */\n      jump\t// out\n        /* \"#utility.yul\":26664:26791   */\n    tag_449:\n        /* \"#utility.yul\":26725:26735   */\n      0x4e487b71\n        /* \"#utility.yul\":26720:26723   */\n      0xe0\n        /* \"#utility.yul\":26716:26736   */\n      shl\n        /* \"#utility.yul\":26713:26714   */\n      0x00\n        /* \"#utility.yul\":26706:26737   */\n      mstore\n        /* \"#utility.yul\":26756:26760   */\n      0x31\n        /* \"#utility.yul\":26753:26754   */\n      0x04\n        /* \"#utility.yul\":26746:26761   */\n      mstore\n        /* \"#utility.yul\":26780:26784   */\n      0x24\n        /* \"#utility.yul\":26777:26778   */\n      0x00\n        /* \"#utility.yul\":26770:26785   */\n      revert\n        /* \"#utility.yul\":26796:27137   */\n    tag_475:\n        /* \"#utility.yul\":26906:26910   */\n      0x00\n        /* \"#utility.yul\":26964:26975   */\n      dup3\n        /* \"#utility.yul\":26951:26976   */\n      calldataload\n        /* \"#utility.yul\":27058:27060   */\n      0x5e\n        /* \"#utility.yul\":27054:27061   */\n      not\n        /* \"#utility.yul\":27043:27051   */\n      dup4\n        /* \"#utility.yul\":27027:27041   */\n      calldatasize\n        /* \"#utility.yul\":27023:27052   */\n      sub\n        /* \"#utility.yul\":27019:27062   */\n      add\n        /* \"#utility.yul\":26999:27017   */\n      dup2\n        /* \"#utility.yul\":26995:27063   */\n      slt\n        /* \"#utility.yul\":26985:27081   */\n      tag_884\n      jumpi\n        /* \"#utility.yul\":27077:27078   */\n      0x00\n        /* \"#utility.yul\":27074:27075   */\n      0x00\n        /* \"#utility.yul\":27067:27079   */\n      revert\n        /* \"#utility.yul\":27142:27458   */\n    tag_481:\n        /* \"#utility.yul\":27327:27329   */\n      0x40\n        /* \"#utility.yul\":27316:27325   */\n      dup2\n        /* \"#utility.yul\":27309:27330   */\n      mstore\n        /* \"#utility.yul\":27290:27294   */\n      0x00\n        /* \"#utility.yul\":27347:27409   */\n      tag_913\n        /* \"#utility.yul\":27405:27407   */\n      0x40\n        /* \"#utility.yul\":27394:27403   */\n      dup4\n        /* \"#utility.yul\":27390:27408   */\n      add\n        /* \"#utility.yul\":27382:27388   */\n      dup6\n        /* \"#utility.yul\":27374:27380   */\n      dup8\n        /* \"#utility.yul\":27347:27409   */\n      tag_712\n      jump\t// in\n    tag_913:\n        /* \"#utility.yul\":27339:27409   */\n      swap1\n      pop\n        /* \"#utility.yul\":27445:27451   */\n      dup3\n        /* \"#utility.yul\":27440:27442   */\n      0x20\n        /* \"#utility.yul\":27429:27438   */\n      dup4\n        /* \"#utility.yul\":27425:27443   */\n      add\n        /* \"#utility.yul\":27418:27452   */\n      mstore\n        /* \"#utility.yul\":27142:27458   */\n      swap5\n      swap4\n      pop\n      pop\n      pop\n      pop\n      jump\t// out\n        /* \"#utility.yul\":27463:27850   */\n    tag_498:\n        /* \"#utility.yul\":27676:27678   */\n      0x60\n        /* \"#utility.yul\":27665:27674   */\n      dup2\n        /* \"#utility.yul\":27658:27679   */\n      mstore\n        /* \"#utility.yul\":27639:27643   */\n      0x00\n        /* \"#utility.yul\":27696:27758   */\n      tag_915\n        /* \"#utility.yul\":27754:27756   */\n      0x60\n        /* \"#utility.yul\":27743:27752   */\n      dup4\n        /* \"#utility.yul\":27739:27757   */\n      add\n        /* \"#utility.yul\":27731:27737   */\n      dup7\n        /* \"#utility.yul\":27723:27729   */\n      dup9\n        /* \"#utility.yul\":27696:27758   */\n      tag_712\n      jump\t// in\n    tag_915:\n        /* \"#utility.yul\":27789:27791   */\n      0x20\n        /* \"#utility.yul\":27774:27792   */\n      dup4\n      add\n        /* \"#utility.yul\":27767:27801   */\n      swap5\n      swap1\n      swap5\n      mstore\n      pop\n        /* \"#utility.yul\":27832:27834   */\n      0x40\n        /* \"#utility.yul\":27817:27835   */\n      add\n        /* \"#utility.yul\":27810:27844   */\n      mstore\n        /* \"#utility.yul\":27688:27758   */\n      swap3\n        /* \"#utility.yul\":27463:27850   */\n      swap2\n      pop\n      pop\n      jump\t// out\n        /* \"#utility.yul\":29185:30153   */\n    tag_685:\n        /* \"#utility.yul\":29357:29363   */\n      dup3\n        /* \"#utility.yul\":29346:29355   */\n      dup2\n        /* \"#utility.yul\":29339:29364   */\n      mstore\n        /* \"#utility.yul\":29400:29402   */\n      0x40\n        /* \"#utility.yul\":29395:29397   */\n      0x20\n        /* \"#utility.yul\":29384:29393   */\n      dup3\n        /* \"#utility.yul\":29380:29398   */\n      add\n        /* \"#utility.yul\":29373:29403   */\n      mstore\n        /* \"#utility.yul\":29320:29324   */\n      0x00\n        /* \"#utility.yul\":29423:29424   */\n      0x00\n        /* \"#utility.yul\":29456:29462   */\n      dup4\n        /* \"#utility.yul\":29450:29463   */\n      sload\n        /* \"#utility.yul\":29486:29522   */\n      tag_922\n        /* \"#utility.yul\":29512:29521   */\n      dup2\n        /* \"#utility.yul\":29486:29522   */\n      tag_183\n      jump\t// in\n    tag_922:\n        /* \"#utility.yul\":29558:29564   */\n      dup1\n        /* \"#utility.yul\":29553:29555   */\n      0x40\n        /* \"#utility.yul\":29542:29551   */\n      dup7\n        /* \"#utility.yul\":29538:29556   */\n      add\n        /* \"#utility.yul\":29531:29565   */\n      mstore\n        /* \"#utility.yul\":29596:29597   */\n      0x01\n        /* \"#utility.yul\":29585:29594   */\n      dup3\n        /* \"#utility.yul\":29581:29598   */\n      and\n        /* \"#utility.yul\":29612:29613   */\n      0x00\n        /* \"#utility.yul\":29607:29765   */\n      dup2\n      eq\n      tag_924\n      jumpi\n        /* \"#utility.yul\":29779:29780   */\n      0x01\n        /* \"#utility.yul\":29774:30127   */\n      dup2\n      eq\n      tag_925\n      jumpi\n        /* \"#utility.yul\":29574:30127   */\n      jump(tag_923)\n        /* \"#utility.yul\":29607:29765   */\n    tag_924:\n        /* \"#utility.yul\":29674:29677   */\n      0xff\n        /* \"#utility.yul\":29670:29678   */\n      not\n        /* \"#utility.yul\":29659:29668   */\n      dup4\n        /* \"#utility.yul\":29655:29679   */\n      and\n        /* \"#utility.yul\":29650:29652   */\n      0x60\n        /* \"#utility.yul\":29639:29648   */\n      dup8\n        /* \"#utility.yul\":29635:29653   */\n      add\n        /* \"#utility.yul\":29628:29680   */\n      mstore\n        /* \"#utility.yul\":29752:29754   */\n      0x60\n        /* \"#utility.yul\":29740:29746   */\n      dup3\n        /* \"#utility.yul\":29733:29747   */\n      iszero\n        /* \"#utility.yul\":29726:29748   */\n      iszero\n        /* \"#utility.yul\":29723:29724   */\n      0x05\n        /* \"#utility.yul\":29719:29749   */\n      shl\n        /* \"#utility.yul\":29708:29717   */\n      dup8\n        /* \"#utility.yul\":29704:29750   */\n      add\n        /* \"#utility.yul\":29700:29755   */\n      add\n        /* \"#utility.yul\":29693:29755   */\n      swap4\n      pop\n        /* \"#utility.yul\":29607:29765   */\n      jump(tag_923)\n        /* \"#utility.yul\":29774:30127   */\n    tag_925:\n        /* \"#utility.yul\":29805:29811   */\n      dup7\n        /* \"#utility.yul\":29802:29803   */\n      0x00\n        /* \"#utility.yul\":29795:29812   */\n      mstore\n        /* \"#utility.yul\":29853:29855   */\n      0x20\n        /* \"#utility.yul\":29850:29851   */\n      0x00\n        /* \"#utility.yul\":29840:29856   */\n      keccak256\n        /* \"#utility.yul\":29878:29879   */\n      0x00\n        /* \"#utility.yul\":29892:30071   */\n    tag_926:\n        /* \"#utility.yul\":29906:29912   */\n      dup4\n        /* \"#utility.yul\":29903:29904   */\n      dup2\n        /* \"#utility.yul\":29900:29913   */\n      lt\n        /* \"#utility.yul\":29892:30071   */\n      iszero\n      tag_928\n      jumpi\n        /* \"#utility.yul\":29999:30013   */\n      dup2\n      sload\n        /* \"#utility.yul\":29975:29992   */\n      dup9\n      dup3\n      add\n        /* \"#utility.yul\":29994:29996   */\n      0x60\n        /* \"#utility.yul\":29971:29997   */\n      add\n        /* \"#utility.yul\":29964:30014   */\n      mstore\n        /* \"#utility.yul\":30055:30056   */\n      0x01\n        /* \"#utility.yul\":30042:30057   */\n      swap1\n      swap2\n      add\n      swap1\n        /* \"#utility.yul\":29928:29930   */\n      0x20\n        /* \"#utility.yul\":29921:29931   */\n      add\n        /* \"#utility.yul\":29892:30071   */\n      jump(tag_926)\n    tag_928:\n        /* \"#utility.yul\":30095:30112   */\n      dup8\n      add\n        /* \"#utility.yul\":30114:30116   */\n      0x60\n        /* \"#utility.yul\":30091:30117   */\n      add\n      swap5\n      pop\n      pop\n        /* \"#utility.yul\":29574:30127   */\n    tag_923:\n      pop\n        /* \"#utility.yul\":30144:30147   */\n      swap2\n      swap7\n        /* \"#utility.yul\":29185:30153   */\n      swap6\n      pop\n      pop\n      pop\n      pop\n      pop\n      pop\n      jump\t// out\n\n    auxdata: 0xa264697066735822122088666967274bb614fbba4791855fc5a352e3e8af9971e36e6a178cd6290d0e8664736f6c634300081e0033\n}\n",
				"bytecode": {
					"linkReferences": {},
					"object": "60806040526005805460ff191690556001601955348015601d575f5ffd5b503380604257604051631e4fbdf760e01b81525f600482015260240160405180910390fd5b604981605c565b506016805460ff191690555f60125560ab565b5f80546001600160a01b038381166001600160a01b0319831681178455604051919092169283917f8be0079c531659141344cd1fd0a4f28419497f9722a3daafe3b4186f6b6457e09190a35050565b61358f806100b85f395ff3fe608060405234801561000f575f5ffd5b5060043610610208575f3560e01c806386b287181161011f578063e337d7cf116100a9578063f25ab9c911610079578063f25ab9c914610499578063f2fde38b146104ac578063f42191de146104bf578063f44f031a146104df578063fec53907146104f2575f5ffd5b8063e337d7cf14610463578063e642566f14610476578063ea7fbd641461047e578063f1e52d1d14610491575f5ffd5b8063ac57e64e116100ef578063ac57e64e1461040d578063b1950a3714610415578063b2cec9ef14610428578063ca848e6a1461043b578063cc0363cd1461044e575f5ffd5b806386b287181461039f5780638da5cb5b146103a8578063977ddf37146103c257806399670fea146103cb575f5ffd5b806330400a3a116101a057806351320eb51161017057806351320eb514610337578063715018a61461033f578063740fb0d2146103475780637e3fb6ca1461036a5780637e767e141461037f575f5ffd5b806330400a3a146102e55780633afa9a2e146103095780633fab3dd61461031c578063440c1ec91461032f575f5ffd5b8063298fc805116101db578063298fc8051461029c5780632e4d0321146102b35780632f66b011146102c85780632f85909b146102d0575f5ffd5b80630acd704e1461020c5780630f549423146102375780631adae926146102545780632243e3261461027c575b5f5ffd5b61021f61021a366004612828565b610515565b60405161022e93929190612906565b60405180910390f35b6005546102449060ff1681565b604051901515815260200161022e565b61026761026236600461292a565b6105c8565b60405161022e99989796959493929190612975565b61028f61028a36600461292a565b6106c1565b60405161022e91906129dd565b6102a560045481565b60405190815260200161022e565b6102c66102c1366004612a4d565b610767565b005b6102c6610b63565b6102d8610bc0565b60405161022e9190612aa2565b6102f86102f336600461292a565b610c94565b60405161022e959493929190612b05565b6102c6610317366004612b44565b610d66565b6102c661032a366004612b73565b610ddc565b6102c6610f88565b6102a5600a81565b6102c6610feb565b61035a610355366004612828565b610ffc565b60405161022e9493929190612bba565b61037261113b565b60405161022e9190612bf2565b61039261038d366004612c86565b611254565b60405161022e9190612cc4565b6102a560105481565b5f546040516001600160a01b03909116815260200161022e565b6102a560115481565b600654600754600854600954600a546103e5949392919085565b604080519586526020860194909452928401919091526060830152608082015260a00161022e565b6102c66113e4565b6102c6610423366004612d5d565b61143b565b6102c661043636600461292a565b6117c9565b6102c6610449366004612c86565b611866565b610456611a1a565b60405161022e9190612dce565b6102c6610471366004612eb4565b611b90565b610267611c5a565b6102c661048c366004612ee6565b611ca1565b610372611d54565b6102c66104a7366004612f45565b611e6d565b6102c66104ba366004612fa7565b61225b565b6104d26104cd366004612c86565b612295565b60405161022e9190612fcd565b6102f86104ed36600461292a565b61238d565b600154600254610500919082565b6040805192835260208301919091520161022e565b8051602081830181018051600b8252928201919093012091528054819061053b90613008565b80601f016020809104026020016040519081016040528092919081815260200182805461056790613008565b80156105b25780601f10610589576101008083540402835291602001916105b2565b820191905f5260205f20905b81548152906001019060200180831161059557829003601f168201915b5050505050908060010154908060020154905083565b600381815481106105d7575f80fd5b5f91825260209091206007909102018054600182015460028301546003840154600485015460058601546006870180549698506001600160a01b0386169760ff600160a01b90970487169795969495848616956101009095049094169390919061064090613008565b80601f016020809104026020016040519081016040528092919081815260200182805461066c90613008565b80156106b75780601f1061068e576101008083540402835291602001916106b7565b820191905f5260205f20905b81548152906001019060200180831161069a57829003601f168201915b5050505050905089565b600c81815481106106d0575f80fd5b905f5260205f20015f9150905080546106e890613008565b80601f016020809104026020016040519081016040528092919081815260200182805461071490613008565b801561075f5780601f106107365761010080835404028352916020019161075f565b820191905f5260205f20905b81548152906001019060200180831161074257829003601f168201915b505050505081565b61076f61239c565b600184600c81111561078357610783612941565b14806107a05750600284600c81111561079e5761079e612941565b145b806107bc5750600384600c8111156107ba576107ba612941565b145b806107d85750600484600c8111156107d6576107d6612941565b145b806107f45750600584600c8111156107f2576107f2612941565b145b806108105750600684600c81111561080e5761080e612941565b145b8061082c5750600b84600c81111561082a5761082a612941565b145b806108485750600c84600c81111561084657610846612941565b145b6108bf5760405162461bcd60e51b815260206004820152603760248201527f44617368626f6172643a20496e76616c696420636f6e646974696f6e20666f7260448201527f2073696e676c65207468726573686f6c6420616c65727400000000000000000060648201526084015b60405180910390fd5b601980545f91826108cf83613054565b9190505590505f604051806101200160405280838152602001336001600160a01b0316815260200187600c81111561090957610909612941565b81526020018681526020015f81526020016001151581526020015f151581526020015f815260200185858080601f0160208091040260200160405190810160405280939291908181526020018383808284375f92018290525093909452505060125492935091909103905061098f5760198054905f61098783613054565b909155506012555b60138054336001600160a01b03198216811783558892916001600160a81b03191660ff60a01b1990911617600160a01b83600c8111156109d1576109d1612941565b021790555060148590555f60155560186109ec8486836130cb565b506016805461ffff191660019081179091555f60178190556003805492830181559052815160079091027fc2575a0e9e593c00f959f8c92f12db2869c3395a3b0502d05e2516446f71f85b810191825560208301517fc2575a0e9e593c00f959f8c92f12db2869c3395a3b0502d05e2516446f71f85c90910180546001600160a01b039092166001600160a01b031983168117825560408501518594939092916001600160a81b031990911617600160a01b83600c811115610ab057610ab0612941565b0217905550606082015160028201556080820151600382015560a082015160048201805460c085015161ffff1990911692151561ff00191692909217610100921515830217905560e083015160058301558201516006820190610b13908261317f565b50506012546040513392507f778334af3114ade8967680fbf1e80e8e34dbe95416246aaef26907ae22cdd35890610b53908a908a905f908b908b9061325c565b60405180910390a3505050505050565b610b6b61239c565b60125415801590610b7f575060165460ff16155b15610bbe576016805461ffff191660011790556012546040517f5b2a724a870cf7fe2c83bd903795d3ba6163ee1091a97587edf93ff866e22965905f90a25b565b6060600c805480602002602001604051908101604052809291908181526020015f905b82821015610c8b578382905f5260205f20018054610c0090613008565b80601f0160208091040260200160405190810160405280929190818152602001828054610c2c90613008565b8015610c775780601f10610c4e57610100808354040283529160200191610c77565b820191905f5260205f20905b815481529060010190602001808311610c5a57829003601f168201915b505050505081526020019060010190610be3565b50505050905090565b600e8181548110610ca3575f80fd5b905f5260205f2090600502015f91509050805f018054610cc290613008565b80601f0160208091040260200160405190810160405280929190818152602001828054610cee90613008565b8015610d395780601f10610d1057610100808354040283529160200191610d39565b820191905f5260205f20905b815481529060010190602001808311610d1c57829003601f168201915b5050505060018301546002840154600385015460049095015493946001600160a01b039092169390925085565b610d6e61239c565b600684905560078390556008829055600981905542600a8190556040805186815260208101869052808201859052606081018490526080810192909252517f08ecd0c5f0d0f300fe6241546a3cc8c4f4dc6f4573ed292c6ffbd86a833530359181900360a00190a150505050565b610de461239c565b5f600b8484604051610df7929190613293565b90815260405190819003602001902090505f805b600c54811015610e95578585604051602001610e28929190613293565b60405160208183030381529060405280519060200120600c8281548110610e5157610e516132a2565b905f5260205f2001604051602001610e6991906132b6565b6040516020818303038152906040528051906020012003610e8d5760019150610e95565b600101610e0b565b5080610f1857600c80546001810182555f919091527fdf6966c971051c3d54ec59162606531493a51404a002842f56009d7e5cf4a8c701610ed78587836130cb565b508484604051610ee8929190613293565b604051908190038120907f81c6dad8fc2e53ed05f364a56d3df0f0836727eeca7d52c4c25f995362a02744905f90a25b81610f248587836130cb565b5060018201839055426002830155604051610f429086908690613293565b60408051918290038220858352426020840152917f30167b93764fad9e40ce98169f9156f222d6ca60145c01b3509119b8d413ed6f910160405180910390a25050505050565b610f9061239c565b60125415801590610fa85750601654610100900460ff165b15610bbe576016805461ff00191690555f601781905560125460405190917fc26f9c3201044d3757e27488cd192595aaf8b176842b2175ef47a4cdf1a5395291a2565b610ff361239c565b610bbe5f6123c8565b8051602081830181018051600d8252928201919093012091528054819061102290613008565b80601f016020809104026020016040519081016040528092919081815260200182805461104e90613008565b80156110995780601f1061107057610100808354040283529160200191611099565b820191905f5260205f20905b81548152906001019060200180831161107c57829003601f168201915b5050505050908060010180546110ae90613008565b80601f01602080910402602001604051908101604052809291908181526020018280546110da90613008565b80156111255780601f106110fc57610100808354040283529160200191611125565b820191905f5260205f20905b81548152906001019060200180831161110857829003601f168201915b5050505050908060020154908060030154905084565b6060600f805480602002602001604051908101604052809291908181526020015f905b82821015610c8b578382905f5260205f2090600502016040518060a00160405290815f8201805461118e90613008565b80601f01602080910402602001604051908101604052809291908181526020018280546111ba90613008565b80156112055780601f106111dc57610100808354040283529160200191611205565b820191905f5260205f20905b8154815290600101906020018083116111e857829003601f168201915b50505091835250506001828101546001600160a01b031660208084019190915260028401546040840152600384015460608401526004909301546080909201919091529183529201910161115e565b61127d604051806080016040528060608152602001606081526020015f81526020015f81525090565b600d838360405161128f929190613293565b90815260200160405180910390206040518060800160405290815f820180546112b790613008565b80601f01602080910402602001604051908101604052809291908181526020018280546112e390613008565b801561132e5780601f106113055761010080835404028352916020019161132e565b820191905f5260205f20905b81548152906001019060200180831161131157829003601f168201915b5050505050815260200160018201805461134790613008565b80601f016020809104026020016040519081016040528092919081815260200182805461137390613008565b80156113be5780601f10611395576101008083540402835291602001916113be565b820191905f5260205f20905b8154815290600101906020018083116113a157829003601f168201915b505050505081526020016002820154815260200160038201548152505090505b92915050565b6113ec61239c565b601254158015906113ff575060165460ff165b15610bbe576016805460ff191690556012546040517fd7d997a7d5bb0e259c4bcbf9213b950fc2d302d3d30540c7671b3c2e6d33088d905f90a2565b61144361239c565b61144e600e5f612765565b5f5b848110156115df57600e6040518060a00160405280888885818110611477576114776132a2565b90506020028101906114899190613327565b6114939080613345565b8080601f0160208091040260200160405190810160405280939291908181526020018383808284375f920191909152505050908252506020018888858181106114de576114de6132a2565b90506020028101906114f09190613327565b611501906040810190602001612fa7565b6001600160a01b03168152602001888885818110611521576115216132a2565b90506020028101906115339190613327565b60400135815260200188888581811061154e5761154e6132a2565b90506020028101906115609190613327565b6060013581524260209182015282546001810184555f93845292208151919260050201908190611590908261317f565b506020820151600182810180546001600160a01b0319166001600160a01b0390931692909217909155604083015160028301556060830151600383015560809092015160049091015501611450565b506115eb600f5f612765565b5f5b8281101561177c57600f6040518060a00160405280868685818110611614576116146132a2565b90506020028101906116269190613327565b6116309080613345565b8080601f0160208091040260200160405190810160405280939291908181526020018383808284375f9201919091525050509082525060200186868581811061167b5761167b6132a2565b905060200281019061168d9190613327565b61169e906040810190602001612fa7565b6001600160a01b031681526020018686858181106116be576116be6132a2565b90506020028101906116d09190613327565b6040013581526020018686858181106116eb576116eb6132a2565b90506020028101906116fd9190613327565b6060013581524260209182015282546001810184555f9384529220815191926005020190819061172d908261317f565b506020820151600182810180546001600160a01b0319166001600160a01b03909316929092179091556040830151600283015560608301516003830155608090920151600490910155016115ed565b5060108190554260118190556040805183815260208101929092527fadf8225e8e3a7ce8aaabd2d8357177b1a9937694639e8488214b2f12c18146ee910160405180910390a15050505050565b6117d161239c565b60055460ff16806117e3575060025415155b156117f3576001546004556117f9565b60048190555b6005805460ff191660019081179091558190554260028190556040805183815260208101929092527f475cae5b1b67b8f03aba6a9d0442b263224ee619fa6fb913c08d9edf37904b8c910160405180910390a160015460045460055461186392919060ff16612417565b50565b61186e61239c565b5f80805b600c548110156118ff57848460405160200161188f929190613293565b60405160208183030381529060405280519060200120600c82815481106118b8576118b86132a2565b905f5260205f20016040516020016118d091906132b6565b60405160208183030381529060405280519060200120036118f757600192508091506118ff565b600101611872565b508115611a1457600b8484604051611918929190613293565b9081526040519081900360200190205f6119328282612783565b505f60018201819055600290910155600c54158015906119535750600c5481105b15611a1457600c805461196890600190613387565b81548110611978576119786132a2565b905f5260205f2001600c8281548110611993576119936132a2565b905f5260205f200190816119a7919061339a565b50600c8054806119b9576119b961345a565b600190038181905f5260205f20015f6119d29190612783565b905583836040516119e4929190613293565b604051908190038120907f39c9d1bc62fedff5608e7e91b88c9e3f6b7f4e9e9b184216521d36d88162fba4905f90a25b50505050565b60606003805480602002602001604051908101604052809291908181526020015f905b82821015610c8b575f8481526020908190206040805161012081018252600786029092018054835260018101546001600160a01b03811694840194909452919290830190600160a01b900460ff16600c811115611a9c57611a9c612941565b600c811115611aad57611aad612941565b81526002820154602082015260038201546040820152600482015460ff808216151560608401526101009091041615156080820152600582015460a082015260068201805460c090920191611b0190613008565b80601f0160208091040260200160405190810160405280929190818152602001828054611b2d90613008565b8015611b785780601f10611b4f57610100808354040283529160200191611b78565b820191905f5260205f20905b815481529060010190602001808311611b5b57829003601f168201915b50505050508152505081526020019060010190611a3d565b611b9861239c565b5f5b81811015611c555730633fab3dd6848484818110611bba57611bba6132a2565b9050602002810190611bcc919061346e565b611bd69080613345565b868686818110611be857611be86132a2565b9050602002810190611bfa919061346e565b602001356040518463ffffffff1660e01b8152600401611c1c93929190613482565b5f604051808303815f87803b158015611c33575f5ffd5b505af1158015611c45573d5f5f3e3d5ffd5b505060019092019150611b9a9050565b505050565b601280546013546014546015546016546017546018805496976001600160a01b0387169760ff600160a01b9098048816978581169561010090041693929061064090613008565b611ca961239c565b5f600d8686604051611cbc929190613293565b908152604051908190036020019020905080611cd98688836130cb565b5060018101611ce98486836130cb565b5060028101829055426003820155604051611d079087908790613293565b60405180910390207f6980cc14623a9e2e782881dd8347e20ebd89e558191566e01e8cc11e9066f06885858542604051611d4494939291906134a5565b60405180910390a2505050505050565b6060600e805480602002602001604051908101604052809291908181526020015f905b82821015610c8b578382905f5260205f2090600502016040518060a00160405290815f82018054611da790613008565b80601f0160208091040260200160405190810160405280929190818152602001828054611dd390613008565b8015611e1e5780601f10611df557610100808354040283529160200191611e1e565b820191905f5260205f20905b815481529060010190602001808311611e0157829003601f168201915b50505091835250506001828101546001600160a01b0316602080840191909152600284015460408401526003840154606084015260049093015460809092019190915291835292019101611d77565b611e7561239c565b600785600c811115611e8957611e89612941565b1480611ea65750600885600c811115611ea457611ea4612941565b145b80611ec25750600985600c811115611ec057611ec0612941565b145b80611ede5750600a85600c811115611edc57611edc612941565b145b611f415760405162461bcd60e51b815260206004820152602e60248201527f44617368626f6172643a20496e76616c696420636f6e646974696f6e20666f7260448201526d0818da185b9b995b08185b195c9d60921b60648201526084016108b6565b828403611fa45760405162461bcd60e51b815260206004820152602b60248201527f44617368626f6172643a204368616e6e656c20626f756e6473206d757374206260448201526a1948191a5999995c995b9d60aa1b60648201526084016108b6565b6012545f03611fc45760198054905f611fbc83613054565b909155506012555b601980545f9182611fd483613054565b90915550601380546001600160a01b031981163390811783559293505f9283928a92909160ff60a01b19166001600160a81b031990911617600160a01b83600c81111561202357612023612941565b02179055508587121561203f576014879055601586905561204a565b601486905560158790555b60186120578587836130cb565b506016805461ffff191660011790555f601781905560408051610120810182528581523360208201529081018a600c81111561209557612095612941565b81526020018481526020018381526020016001151581526020015f151581526020015f815260200187878080601f0160208091040260200160405190810160405280939291908181526020018383808284375f920182905250939094525050600380546001810182559152825160079091027fc2575a0e9e593c00f959f8c92f12db2869c3395a3b0502d05e2516446f71f85b810191825560208401517fc2575a0e9e593c00f959f8c92f12db2869c3395a3b0502d05e2516446f71f85c90910180546001600160a01b039092166001600160a01b03198316811782556040860151959650869593945090916001600160a81b03191617600160a01b83600c8111156121a3576121a3612941565b0217905550606082015160028201556080820151600382015560a082015160048201805460c085015161ffff1990911692151561ff00191692909217610100921515830217905560e083015160058301558201516006820190612206908261317f565b50506012546014546015546040513394507f778334af3114ade8967680fbf1e80e8e34dbe95416246aaef26907ae22cdd35892612248928f928d908d9061325c565b60405180910390a3505050505050505050565b61226361239c565b6001600160a01b03811661228c57604051631e4fbdf760e01b81525f60048201526024016108b6565b611863816123c8565b6122b76040518060600160405280606081526020015f81526020015f81525090565b600b83836040516122c9929190613293565b90815260200160405180910390206040518060600160405290815f820180546122f190613008565b80601f016020809104026020016040519081016040528092919081815260200182805461231d90613008565b80156123685780601f1061233f57610100808354040283529160200191612368565b820191905f5260205f20905b81548152906001019060200180831161234b57829003601f168201915b5050505050815260200160018201548152602001600282015481525050905092915050565b600f8181548110610ca3575f80fd5b5f546001600160a01b03163314610bbe5760405163118cdaa760e01b81523360048201526024016108b6565b5f80546001600160a01b038381166001600160a01b0319831681178455604051919092169283917f8be0079c531659141344cd1fd0a4f28419497f9722a3daafe3b4186f6b6457e09190a35050565b60165460ff1615806124305750601654610100900460ff165b8061243b5750601254155b1561244557505050565b6013546014546015545f92600160a01b900460ff1691908190600184600c81111561247257612472612941565b03612489578288131561248457600194505b6126f4565b600284600c81111561249d5761249d612941565b036124b3578288121561248457600194506126f4565b600384600c8111156124c7576124c7612941565b036124dc5782880361248457600194506126f4565b85156126f457600484600c8111156124f6576124f6612941565b0361252d57828712801561250a5750828812155b8061251f5750828713801561251f5750828813155b1561248457600194506126f4565b600584600c81111561254157612541612941565b0361256057828712801561251f575082881261248457600194506126f4565b600684600c81111561257457612574612941565b0361259357828713801561251f575082881361248457600194506126f4565b600784600c8111156125a7576125a7612941565b036125ea575f828812806125ba57508188135b90505f838a121580156125cd5750828a13155b90508180156125d95750805b156125e357600196505b50506126f4565b600884600c8111156125fe576125fe612941565b0361263d575f8288121580156126145750818813155b90505f838a12806125cd5750508189138180156125d9575080156125e3576001965050506126f4565b600984600c81111561265157612651612941565b036126715781881215801561251f575080881361248457600194506126f4565b600a84600c81111561268557612685612941565b036126a4578188128061251f57508088131561248457600194506126f4565b600b84600c8111156126b8576126b8612941565b036126ce578688131561248457600194506126f4565b600c84600c8111156126e2576126e2612941565b036126f457868812156126f457600194505b841561275b576016805461ff001916610100179055426017556013546012546040516001600160a01b03909216917f601cdb1cd0f27fc0f4bad78847fbd1402a286180590e1019934014e93e922a0f90612752908c906018906134cb565b60405180910390a35b5050505050505050565b5080545f8255600502905f5260205f209081019061186391906127ba565b50805461278f90613008565b5f825580601f1061279e575050565b601f0160209004905f5260205f20908101906118639190612800565b808211156127fc575f6127cd8282612783565b506001810180546001600160a01b03191690555f600282018190556003820181905560048201556005016127ba565b5090565b5b808211156127fc575f8155600101612801565b634e487b7160e01b5f52604160045260245ffd5b5f60208284031215612838575f5ffd5b81356001600160401b0381111561284d575f5ffd5b8201601f8101841361285d575f5ffd5b80356001600160401b0381111561287657612876612814565b604051601f8201601f19908116603f011681016001600160401b03811182821017156128a4576128a4612814565b6040528181528282016020018610156128bb575f5ffd5b816020840160208301375f91810160200191909152949350505050565b5f81518084528060208401602086015e5f602082860101526020601f19601f83011685010191505092915050565b606081525f61291860608301866128d8565b60208301949094525060400152919050565b5f6020828403121561293a575f5ffd5b5035919050565b634e487b7160e01b5f52602160045260245ffd5b600d811061297157634e487b7160e01b5f52602160045260245ffd5b9052565b8981526001600160a01b03891660208201526129946040820189612955565b86606082015285608082015284151560a082015283151560c08201528260e08201526101206101008201525f6129ce6101208301846128d8565b9b9a5050505050505050505050565b602081525f6129ef60208301846128d8565b9392505050565b8035600d8110612a04575f5ffd5b919050565b5f5f83601f840112612a19575f5ffd5b5081356001600160401b03811115612a2f575f5ffd5b602083019150836020828501011115612a46575f5ffd5b9250929050565b5f5f5f5f60608587031215612a60575f5ffd5b612a69856129f6565b93506020850135925060408501356001600160401b03811115612a8a575f5ffd5b612a9687828801612a09565b95989497509550505050565b5f602082016020835280845180835260408501915060408160051b8601019250602086015f5b82811015612af957603f19878603018452612ae48583516128d8565b94506020938401939190910190600101612ac8565b50929695505050505050565b60a081525f612b1760a08301886128d8565b6001600160a01b039690961660208301525060408101939093526060830191909152608090910152919050565b5f5f5f5f60808587031215612b57575f5ffd5b5050823594602084013594506040840135936060013592509050565b5f5f5f60408486031215612b85575f5ffd5b83356001600160401b03811115612b9a575f5ffd5b612ba686828701612a09565b909790965060209590950135949350505050565b608081525f612bcc60808301876128d8565b8281036020840152612bde81876128d8565b604084019590955250506060015292915050565b5f602082016020835280845180835260408501915060408160051b8601019250602086015f5b82811015612af957603f198786030184528151805160a08752612c3e60a08801826128d8565b6020838101516001600160a01b031689820152604080850151908a0152606080850151908a015260809384015193909801929092525094938401939190910190600101612c18565b5f5f60208385031215612c97575f5ffd5b82356001600160401b03811115612cac575f5ffd5b612cb885828601612a09565b90969095509350505050565b602081525f825160806020840152612cdf60a08401826128d8565b90506020840151601f19848303016040850152612cfc82826128d8565b91505060408401516060840152606084015160808401528091505092915050565b5f5f83601f840112612d2d575f5ffd5b5081356001600160401b03811115612d43575f5ffd5b6020830191508360208260051b8501011115612a46575f5ffd5b5f5f5f5f5f60608688031215612d71575f5ffd5b85356001600160401b03811115612d86575f5ffd5b612d9288828901612d1d565b90965094505060208601356001600160401b03811115612db0575f5ffd5b612dbc88828901612d1d565b96999598509660400135949350505050565b5f602082016020835280845180835260408501915060408160051b8601019250602086015f5b82811015612af957603f198786030184528151805186526020810151612e2560208801826001600160a01b03169052565b506040810151612e386040880182612955565b50606081015160608701526080810151608087015260a0810151612e6060a088018215159052565b5060c0810151612e7460c088018215159052565b5060e081015160e08701526101008101519050610120610100870152612e9e6101208701826128d8565b9550506020938401939190910190600101612df4565b5f5f60208385031215612ec5575f5ffd5b82356001600160401b03811115612eda575f5ffd5b612cb885828601612d1d565b5f5f5f5f5f60608688031215612efa575f5ffd5b85356001600160401b03811115612f0f575f5ffd5b612f1b88828901612a09565b90965094505060208601356001600160401b03811115612f39575f5ffd5b612dbc88828901612a09565b5f5f5f5f5f60808688031215612f59575f5ffd5b612f62866129f6565b9450602086013593506040860135925060608601356001600160401b03811115612f8a575f5ffd5b612f9688828901612a09565b969995985093965092949392505050565b5f60208284031215612fb7575f5ffd5b81356001600160a01b03811681146129ef575f5ffd5b602081525f825160606020840152612fe860808401826128d8565b905060208401516040840152604084015160608401528091505092915050565b600181811c9082168061301c57607f821691505b60208210810361303a57634e487b7160e01b5f52602260045260245ffd5b50919050565b634e487b7160e01b5f52601160045260245ffd5b5f6001820161306557613065613040565b5060010190565b601f821115611c5557805f5260205f20601f840160051c810160208510156130915750805b601f840160051c820191505b818110156130b0575f815560010161309d565b5050505050565b5f19600383901b1c191660019190911b1790565b6001600160401b038311156130e2576130e2612814565b6130f6836130f08354613008565b8361306c565b5f601f841160018114613122575f85156131105750838201355b61311a86826130b7565b8455506130b0565b5f83815260208120601f198716915b828110156131515786850135825560209485019460019092019101613131565b508682101561316d575f1960f88860031b161c19848701351681555b505060018560011b0183555050505050565b81516001600160401b0381111561319857613198612814565b6131ac816131a68454613008565b8461306c565b6020601f8211600181146131d9575f83156131c75750848201515b6131d184826130b7565b8555506130b0565b5f84815260208120601f198516915b8281101561320857878501518255602094850194600190920191016131e8565b508482101561322557868401515f19600387901b60f8161c191681555b50505050600190811b01905550565b81835281816020850137505f828201602090810191909152601f909101601f19169091010190565b6132668187612955565b846020820152836040820152608060608201525f613288608083018486613234565b979650505050505050565b818382375f9101908152919050565b634e487b7160e01b5f52603260045260245ffd5b5f5f83546132c381613008565b6001821680156132da57600181146132ef5761331c565b60ff198316865281151582028601935061331c565b865f5260205f205f5b83811015613314578154888201526001909101906020016132f8565b505081860193505b509195945050505050565b5f8235609e1983360301811261333b575f5ffd5b9190910192915050565b5f5f8335601e1984360301811261335a575f5ffd5b8301803591506001600160401b03821115613373575f5ffd5b602001915036819003821315612a46575f5ffd5b818103818111156113de576113de613040565b8181036133a5575050565b6133af8254613008565b6001600160401b038111156133c6576133c6612814565b6133d4816131a68454613008565b5f601f8211600181146133f7575f83156131c75750848201546131d184826130b7565b5f8581526020808220868352908220601f198616925b8381101561342d578286015482556001958601959091019060200161340d565b508583101561344a57818501545f19600388901b60f8161c191681555b5050505050600190811b01905550565b634e487b7160e01b5f52603160045260245ffd5b5f8235605e1983360301811261333b575f5ffd5b604081525f613495604083018587613234565b9050826020830152949350505050565b606081525f6134b8606083018688613234565b6020830194909452506040015292915050565b828152604060208201525f5f83546134e281613008565b806040860152600182165f8114613500576001811461351c5761354d565b60ff1983166060870152606082151560051b870101935061354d565b865f5260205f205f5b8381101561354457815488820160600152600190910190602001613525565b87016060019450505b5091969550505050505056fea264697066735822122088666967274bb614fbba4791855fc5a352e3e8af9971e36e6a178cd6290d0e8664736f6c634300081e0033",
					"opcodes": "PUSH1 0x80 PUSH1 0x40 MSTORE PUSH1 0x5 DUP1 SLOAD PUSH1 0xFF NOT AND SWAP1 SSTORE PUSH1 0x1 PUSH1 0x19 SSTORE CALLVALUE DUP1 ISZERO PUSH1 0x1D JUMPI PUSH0 PUSH0 REVERT JUMPDEST POP CALLER DUP1 PUSH1 0x42 JUMPI PUSH1 0x40 MLOAD PUSH4 0x1E4FBDF7 PUSH1 0xE0 SHL DUP2 MSTORE PUSH0 PUSH1 0x4 DUP3 ADD MSTORE PUSH1 0x24 ADD PUSH1 0x40 MLOAD DUP1 SWAP2 SUB SWAP1 REVERT JUMPDEST PUSH1 0x49 DUP2 PUSH1 0x5C JUMP JUMPDEST POP PUSH1 0x16 DUP1 SLOAD PUSH1 0xFF NOT AND SWAP1 SSTORE PUSH0 PUSH1 0x12 SSTORE PUSH1 0xAB JUMP JUMPDEST PUSH0 DUP1 SLOAD PUSH1 0x1 PUSH1 0x1 PUSH1 0xA0 SHL SUB DUP4 DUP2 AND PUSH1 0x1 PUSH1 0x1 PUSH1 0xA0 SHL SUB NOT DUP4 AND DUP2 OR DUP5 SSTORE PUSH1 0x40 MLOAD SWAP2 SWAP1 SWAP3 AND SWAP3 DUP4 SWAP2 PUSH32 0x8BE0079C531659141344CD1FD0A4F28419497F9722A3DAAFE3B4186F6B6457E0 SWAP2 SWAP1 LOG3 POP POP JUMP JUMPDEST PUSH2 0x358F DUP1 PUSH2 0xB8 PUSH0 CODECOPY PUSH0 RETURN INVALID PUSH1 0x80 PUSH1 0x40 MSTORE CALLVALUE DUP1 ISZERO PUSH2 0xF JUMPI PUSH0 PUSH0 REVERT JUMPDEST POP PUSH1 0x4 CALLDATASIZE LT PUSH2 0x208 JUMPI PUSH0 CALLDATALOAD PUSH1 0xE0 SHR DUP1 PUSH4 0x86B28718 GT PUSH2 0x11F JUMPI DUP1 PUSH4 0xE337D7CF GT PUSH2 0xA9 JUMPI DUP1 PUSH4 0xF25AB9C9 GT PUSH2 0x79 JUMPI DUP1 PUSH4 0xF25AB9C9 EQ PUSH2 0x499 JUMPI DUP1 PUSH4 0xF2FDE38B EQ PUSH2 0x4AC JUMPI DUP1 PUSH4 0xF42191DE EQ PUSH2 0x4BF JUMPI DUP1 PUSH4 0xF44F031A EQ PUSH2 0x4DF JUMPI DUP1 PUSH4 0xFEC53907 EQ PUSH2 0x4F2 JUMPI PUSH0 PUSH0 REVERT JUMPDEST DUP1 PUSH4 0xE337D7CF EQ PUSH2 0x463 JUMPI DUP1 PUSH4 0xE642566F EQ PUSH2 0x476 JUMPI DUP1 PUSH4 0xEA7FBD64 EQ PUSH2 0x47E JUMPI DUP1 PUSH4 0xF1E52D1D EQ PUSH2 0x491 JUMPI PUSH0 PUSH0 REVERT JUMPDEST DUP1 PUSH4 0xAC57E64E GT PUSH2 0xEF JUMPI DUP1 PUSH4 0xAC57E64E EQ PUSH2 0x40D JUMPI DUP1 PUSH4 0xB1950A37 EQ PUSH2 0x415 JUMPI DUP1 PUSH4 0xB2CEC9EF EQ PUSH2 0x428 JUMPI DUP1 PUSH4 0xCA848E6A EQ PUSH2 0x43B JUMPI DUP1 PUSH4 0xCC0363CD EQ PUSH2 0x44E JUMPI PUSH0 PUSH0 REVERT JUMPDEST DUP1 PUSH4 0x86B28718 EQ PUSH2 0x39F JUMPI DUP1 PUSH4 0x8DA5CB5B EQ PUSH2 0x3A8 JUMPI DUP1 PUSH4 0x977DDF37 EQ PUSH2 0x3C2 JUMPI DUP1 PUSH4 0x99670FEA EQ PUSH2 0x3CB JUMPI PUSH0 PUSH0 REVERT JUMPDEST DUP1 PUSH4 0x30400A3A GT PUSH2 0x1A0 JUMPI DUP1 PUSH4 0x51320EB5 GT PUSH2 0x170 JUMPI DUP1 PUSH4 0x51320EB5 EQ PUSH2 0x337 JUMPI DUP1 PUSH4 0x715018A6 EQ PUSH2 0x33F JUMPI DUP1 PUSH4 0x740FB0D2 EQ PUSH2 0x347 JUMPI DUP1 PUSH4 0x7E3FB6CA EQ PUSH2 0x36A JUMPI DUP1 PUSH4 0x7E767E14 EQ PUSH2 0x37F JUMPI PUSH0 PUSH0 REVERT JUMPDEST DUP1 PUSH4 0x30400A3A EQ PUSH2 0x2E5 JUMPI DUP1 PUSH4 0x3AFA9A2E EQ PUSH2 0x309 JUMPI DUP1 PUSH4 0x3FAB3DD6 EQ PUSH2 0x31C JUMPI DUP1 PUSH4 0x440C1EC9 EQ PUSH2 0x32F JUMPI PUSH0 PUSH0 REVERT JUMPDEST DUP1 PUSH4 0x298FC805 GT PUSH2 0x1DB JUMPI DUP1 PUSH4 0x298FC805 EQ PUSH2 0x29C JUMPI DUP1 PUSH4 0x2E4D0321 EQ PUSH2 0x2B3 JUMPI DUP1 PUSH4 0x2F66B011 EQ PUSH2 0x2C8 JUMPI DUP1 PUSH4 0x2F85909B EQ PUSH2 0x2D0 JUMPI PUSH0 PUSH0 REVERT JUMPDEST DUP1 PUSH4 0xACD704E EQ PUSH2 0x20C JUMPI DUP1 PUSH4 0xF549423 EQ PUSH2 0x237 JUMPI DUP1 PUSH4 0x1ADAE926 EQ PUSH2 0x254 JUMPI DUP1 PUSH4 0x2243E326 EQ PUSH2 0x27C JUMPI JUMPDEST PUSH0 PUSH0 REVERT JUMPDEST PUSH2 0x21F PUSH2 0x21A CALLDATASIZE PUSH1 0x4 PUSH2 0x2828 JUMP JUMPDEST PUSH2 0x515 JUMP JUMPDEST PUSH1 0x40 MLOAD PUSH2 0x22E SWAP4 SWAP3 SWAP2 SWAP1 PUSH2 0x2906 JUMP JUMPDEST PUSH1 0x40 MLOAD DUP1 SWAP2 SUB SWAP1 RETURN JUMPDEST PUSH1 0x5 SLOAD PUSH2 0x244 SWAP1 PUSH1 0xFF AND DUP2 JUMP JUMPDEST PUSH1 0x40 MLOAD SWAP1 ISZERO ISZERO DUP2 MSTORE PUSH1 0x20 ADD PUSH2 0x22E JUMP JUMPDEST PUSH2 0x267 PUSH2 0x262 CALLDATASIZE PUSH1 0x4 PUSH2 0x292A JUMP JUMPDEST PUSH2 0x5C8 JUMP JUMPDEST PUSH1 0x40 MLOAD PUSH2 0x22E SWAP10 SWAP9 SWAP8 SWAP7 SWAP6 SWAP5 SWAP4 SWAP3 SWAP2 SWAP1 PUSH2 0x2975 JUMP JUMPDEST PUSH2 0x28F PUSH2 0x28A CALLDATASIZE PUSH1 0x4 PUSH2 0x292A JUMP JUMPDEST PUSH2 0x6C1 JUMP JUMPDEST PUSH1 0x40 MLOAD PUSH2 0x22E SWAP2 SWAP1 PUSH2 0x29DD JUMP JUMPDEST PUSH2 0x2A5 PUSH1 0x4 SLOAD DUP2 JUMP JUMPDEST PUSH1 0x40 MLOAD SWAP1 DUP2 MSTORE PUSH1 0x20 ADD PUSH2 0x22E JUMP JUMPDEST PUSH2 0x2C6 PUSH2 0x2C1 CALLDATASIZE PUSH1 0x4 PUSH2 0x2A4D JUMP JUMPDEST PUSH2 0x767 JUMP JUMPDEST STOP JUMPDEST PUSH2 0x2C6 PUSH2 0xB63 JUMP JUMPDEST PUSH2 0x2D8 PUSH2 0xBC0 JUMP JUMPDEST PUSH1 0x40 MLOAD PUSH2 0x22E SWAP2 SWAP1 PUSH2 0x2AA2 JUMP JUMPDEST PUSH2 0x2F8 PUSH2 0x2F3 CALLDATASIZE PUSH1 0x4 PUSH2 0x292A JUMP JUMPDEST PUSH2 0xC94 JUMP JUMPDEST PUSH1 0x40 MLOAD PUSH2 0x22E SWAP6 SWAP5 SWAP4 SWAP3 SWAP2 SWAP1 PUSH2 0x2B05 JUMP JUMPDEST PUSH2 0x2C6 PUSH2 0x317 CALLDATASIZE PUSH1 0x4 PUSH2 0x2B44 JUMP JUMPDEST PUSH2 0xD66 JUMP JUMPDEST PUSH2 0x2C6 PUSH2 0x32A CALLDATASIZE PUSH1 0x4 PUSH2 0x2B73 JUMP JUMPDEST PUSH2 0xDDC JUMP JUMPDEST PUSH2 0x2C6 PUSH2 0xF88 JUMP JUMPDEST PUSH2 0x2A5 PUSH1 0xA DUP2 JUMP JUMPDEST PUSH2 0x2C6 PUSH2 0xFEB JUMP JUMPDEST PUSH2 0x35A PUSH2 0x355 CALLDATASIZE PUSH1 0x4 PUSH2 0x2828 JUMP JUMPDEST PUSH2 0xFFC JUMP JUMPDEST PUSH1 0x40 MLOAD PUSH2 0x22E SWAP5 SWAP4 SWAP3 SWAP2 SWAP1 PUSH2 0x2BBA JUMP JUMPDEST PUSH2 0x372 PUSH2 0x113B JUMP JUMPDEST PUSH1 0x40 MLOAD PUSH2 0x22E SWAP2 SWAP1 PUSH2 0x2BF2 JUMP JUMPDEST PUSH2 0x392 PUSH2 0x38D CALLDATASIZE PUSH1 0x4 PUSH2 0x2C86 JUMP JUMPDEST PUSH2 0x1254 JUMP JUMPDEST PUSH1 0x40 MLOAD PUSH2 0x22E SWAP2 SWAP1 PUSH2 0x2CC4 JUMP JUMPDEST PUSH2 0x2A5 PUSH1 0x10 SLOAD DUP2 JUMP JUMPDEST PUSH0 SLOAD PUSH1 0x40 MLOAD PUSH1 0x1 PUSH1 0x1 PUSH1 0xA0 SHL SUB SWAP1 SWAP2 AND DUP2 MSTORE PUSH1 0x20 ADD PUSH2 0x22E JUMP JUMPDEST PUSH2 0x2A5 PUSH1 0x11 SLOAD DUP2 JUMP JUMPDEST PUSH1 0x6 SLOAD PUSH1 0x7 SLOAD PUSH1 0x8 SLOAD PUSH1 0x9 SLOAD PUSH1 0xA SLOAD PUSH2 0x3E5 SWAP5 SWAP4 SWAP3 SWAP2 SWAP1 DUP6 JUMP JUMPDEST PUSH1 0x40 DUP1 MLOAD SWAP6 DUP7 MSTORE PUSH1 0x20 DUP7 ADD SWAP5 SWAP1 SWAP5 MSTORE SWAP3 DUP5 ADD SWAP2 SWAP1 SWAP2 MSTORE PUSH1 0x60 DUP4 ADD MSTORE PUSH1 0x80 DUP3 ADD MSTORE PUSH1 0xA0 ADD PUSH2 0x22E JUMP JUMPDEST PUSH2 0x2C6 PUSH2 0x13E4 JUMP JUMPDEST PUSH2 0x2C6 PUSH2 0x423 CALLDATASIZE PUSH1 0x4 PUSH2 0x2D5D JUMP JUMPDEST PUSH2 0x143B JUMP JUMPDEST PUSH2 0x2C6 PUSH2 0x436 CALLDATASIZE PUSH1 0x4 PUSH2 0x292A JUMP JUMPDEST PUSH2 0x17C9 JUMP JUMPDEST PUSH2 0x2C6 PUSH2 0x449 CALLDATASIZE PUSH1 0x4 PUSH2 0x2C86 JUMP JUMPDEST PUSH2 0x1866 JUMP JUMPDEST PUSH2 0x456 PUSH2 0x1A1A JUMP JUMPDEST PUSH1 0x40 MLOAD PUSH2 0x22E SWAP2 SWAP1 PUSH2 0x2DCE JUMP JUMPDEST PUSH2 0x2C6 PUSH2 0x471 CALLDATASIZE PUSH1 0x4 PUSH2 0x2EB4 JUMP JUMPDEST PUSH2 0x1B90 JUMP JUMPDEST PUSH2 0x267 PUSH2 0x1C5A JUMP JUMPDEST PUSH2 0x2C6 PUSH2 0x48C CALLDATASIZE PUSH1 0x4 PUSH2 0x2EE6 JUMP JUMPDEST PUSH2 0x1CA1 JUMP JUMPDEST PUSH2 0x372 PUSH2 0x1D54 JUMP JUMPDEST PUSH2 0x2C6 PUSH2 0x4A7 CALLDATASIZE PUSH1 0x4 PUSH2 0x2F45 JUMP JUMPDEST PUSH2 0x1E6D JUMP JUMPDEST PUSH2 0x2C6 PUSH2 0x4BA CALLDATASIZE PUSH1 0x4 PUSH2 0x2FA7 JUMP JUMPDEST PUSH2 0x225B JUMP JUMPDEST PUSH2 0x4D2 PUSH2 0x4CD CALLDATASIZE PUSH1 0x4 PUSH2 0x2C86 JUMP JUMPDEST PUSH2 0x2295 JUMP JUMPDEST PUSH1 0x40 MLOAD PUSH2 0x22E SWAP2 SWAP1 PUSH2 0x2FCD JUMP JUMPDEST PUSH2 0x2F8 PUSH2 0x4ED CALLDATASIZE PUSH1 0x4 PUSH2 0x292A JUMP JUMPDEST PUSH2 0x238D JUMP JUMPDEST PUSH1 0x1 SLOAD PUSH1 0x2 SLOAD PUSH2 0x500 SWAP2 SWAP1 DUP3 JUMP JUMPDEST PUSH1 0x40 DUP1 MLOAD SWAP3 DUP4 MSTORE PUSH1 0x20 DUP4 ADD SWAP2 SWAP1 SWAP2 MSTORE ADD PUSH2 0x22E JUMP JUMPDEST DUP1 MLOAD PUSH1 0x20 DUP2 DUP4 ADD DUP2 ADD DUP1 MLOAD PUSH1 0xB DUP3 MSTORE SWAP3 DUP3 ADD SWAP2 SWAP1 SWAP4 ADD KECCAK256 SWAP2 MSTORE DUP1 SLOAD DUP2 SWAP1 PUSH2 0x53B SWAP1 PUSH2 0x3008 JUMP JUMPDEST DUP1 PUSH1 0x1F ADD PUSH1 0x20 DUP1 SWAP2 DIV MUL PUSH1 0x20 ADD PUSH1 0x40 MLOAD SWAP1 DUP2 ADD PUSH1 0x40 MSTORE DUP1 SWAP3 SWAP2 SWAP1 DUP2 DUP2 MSTORE PUSH1 0x20 ADD DUP3 DUP1 SLOAD PUSH2 0x567 SWAP1 PUSH2 0x3008 JUMP JUMPDEST DUP1 ISZERO PUSH2 0x5B2 JUMPI DUP1 PUSH1 0x1F LT PUSH2 0x589 JUMPI PUSH2 0x100 DUP1 DUP4 SLOAD DIV MUL DUP4 MSTORE SWAP2 PUSH1 0x20 ADD SWAP2 PUSH2 0x5B2 JUMP JUMPDEST DUP3 ADD SWAP2 SWAP1 PUSH0 MSTORE PUSH1 0x20 PUSH0 KECCAK256 SWAP1 JUMPDEST DUP2 SLOAD DUP2 MSTORE SWAP1 PUSH1 0x1 ADD SWAP1 PUSH1 0x20 ADD DUP1 DUP4 GT PUSH2 0x595 JUMPI DUP3 SWAP1 SUB PUSH1 0x1F AND DUP3 ADD SWAP2 JUMPDEST POP POP POP POP POP SWAP1 DUP1 PUSH1 0x1 ADD SLOAD SWAP1 DUP1 PUSH1 0x2 ADD SLOAD SWAP1 POP DUP4 JUMP JUMPDEST PUSH1 0x3 DUP2 DUP2 SLOAD DUP2 LT PUSH2 0x5D7 JUMPI PUSH0 DUP1 REVERT JUMPDEST PUSH0 SWAP2 DUP3 MSTORE PUSH1 0x20 SWAP1 SWAP2 KECCAK256 PUSH1 0x7 SWAP1 SWAP2 MUL ADD DUP1 SLOAD PUSH1 0x1 DUP3 ADD SLOAD PUSH1 0x2 DUP4 ADD SLOAD PUSH1 0x3 DUP5 ADD SLOAD PUSH1 0x4 DUP6 ADD SLOAD PUSH1 0x5 DUP7 ADD SLOAD PUSH1 0x6 DUP8 ADD DUP1 SLOAD SWAP7 SWAP9 POP PUSH1 0x1 PUSH1 0x1 PUSH1 0xA0 SHL SUB DUP7 AND SWAP8 PUSH1 0xFF PUSH1 0x1 PUSH1 0xA0 SHL SWAP1 SWAP8 DIV DUP8 AND SWAP8 SWAP6 SWAP7 SWAP5 SWAP6 DUP5 DUP7 AND SWAP6 PUSH2 0x100 SWAP1 SWAP6 DIV SWAP1 SWAP5 AND SWAP4 SWAP1 SWAP2 SWAP1 PUSH2 0x640 SWAP1 PUSH2 0x3008 JUMP JUMPDEST DUP1 PUSH1 0x1F ADD PUSH1 0x20 DUP1 SWAP2 DIV MUL PUSH1 0x20 ADD PUSH1 0x40 MLOAD SWAP1 DUP2 ADD PUSH1 0x40 MSTORE DUP1 SWAP3 SWAP2 SWAP1 DUP2 DUP2 MSTORE PUSH1 0x20 ADD DUP3 DUP1 SLOAD PUSH2 0x66C SWAP1 PUSH2 0x3008 JUMP JUMPDEST DUP1 ISZERO PUSH2 0x6B7 JUMPI DUP1 PUSH1 0x1F LT PUSH2 0x68E JUMPI PUSH2 0x100 DUP1 DUP4 SLOAD DIV MUL DUP4 MSTORE SWAP2 PUSH1 0x20 ADD SWAP2 PUSH2 0x6B7 JUMP JUMPDEST DUP3 ADD SWAP2 SWAP1 PUSH0 MSTORE PUSH1 0x20 PUSH0 KECCAK256 SWAP1 JUMPDEST DUP2 SLOAD DUP2 MSTORE SWAP1 PUSH1 0x1 ADD SWAP1 PUSH1 0x20 ADD DUP1 DUP4 GT PUSH2 0x69A JUMPI DUP3 SWAP1 SUB PUSH1 0x1F AND DUP3 ADD SWAP2 JUMPDEST POP POP POP POP POP SWAP1 POP DUP10 JUMP JUMPDEST PUSH1 0xC DUP2 DUP2 SLOAD DUP2 LT PUSH2 0x6D0 JUMPI PUSH0 DUP1 REVERT JUMPDEST SWAP1 PUSH0 MSTORE PUSH1 0x20 PUSH0 KECCAK256 ADD PUSH0 SWAP2 POP SWAP1 POP DUP1 SLOAD PUSH2 0x6E8 SWAP1 PUSH2 0x3008 JUMP JUMPDEST DUP1 PUSH1 0x1F ADD PUSH1 0x20 DUP1 SWAP2 DIV MUL PUSH1 0x20 ADD PUSH1 0x40 MLOAD SWAP1 DUP2 ADD PUSH1 0x40 MSTORE DUP1 SWAP3 SWAP2 SWAP1 DUP2 DUP2 MSTORE PUSH1 0x20 ADD DUP3 DUP1 SLOAD PUSH2 0x714 SWAP1 PUSH2 0x3008 JUMP JUMPDEST DUP1 ISZERO PUSH2 0x75F JUMPI DUP1 PUSH1 0x1F LT PUSH2 0x736 JUMPI PUSH2 0x100 DUP1 DUP4 SLOAD DIV MUL DUP4 MSTORE SWAP2 PUSH1 0x20 ADD SWAP2 PUSH2 0x75F JUMP JUMPDEST DUP3 ADD SWAP2 SWAP1 PUSH0 MSTORE PUSH1 0x20 PUSH0 KECCAK256 SWAP1 JUMPDEST DUP2 SLOAD DUP2 MSTORE SWAP1 PUSH1 0x1 ADD SWAP1 PUSH1 0x20 ADD DUP1 DUP4 GT PUSH2 0x742 JUMPI DUP3 SWAP1 SUB PUSH1 0x1F AND DUP3 ADD SWAP2 JUMPDEST POP POP POP POP POP DUP2 JUMP JUMPDEST PUSH2 0x76F PUSH2 0x239C JUMP JUMPDEST PUSH1 0x1 DUP5 PUSH1 0xC DUP2 GT ISZERO PUSH2 0x783 JUMPI PUSH2 0x783 PUSH2 0x2941 JUMP JUMPDEST EQ DUP1 PUSH2 0x7A0 JUMPI POP PUSH1 0x2 DUP5 PUSH1 0xC DUP2 GT ISZERO PUSH2 0x79E JUMPI PUSH2 0x79E PUSH2 0x2941 JUMP JUMPDEST EQ JUMPDEST DUP1 PUSH2 0x7BC JUMPI POP PUSH1 0x3 DUP5 PUSH1 0xC DUP2 GT ISZERO PUSH2 0x7BA JUMPI PUSH2 0x7BA PUSH2 0x2941 JUMP JUMPDEST EQ JUMPDEST DUP1 PUSH2 0x7D8 JUMPI POP PUSH1 0x4 DUP5 PUSH1 0xC DUP2 GT ISZERO PUSH2 0x7D6 JUMPI PUSH2 0x7D6 PUSH2 0x2941 JUMP JUMPDEST EQ JUMPDEST DUP1 PUSH2 0x7F4 JUMPI POP PUSH1 0x5 DUP5 PUSH1 0xC DUP2 GT ISZERO PUSH2 0x7F2 JUMPI PUSH2 0x7F2 PUSH2 0x2941 JUMP JUMPDEST EQ JUMPDEST DUP1 PUSH2 0x810 JUMPI POP PUSH1 0x6 DUP5 PUSH1 0xC DUP2 GT ISZERO PUSH2 0x80E JUMPI PUSH2 0x80E PUSH2 0x2941 JUMP JUMPDEST EQ JUMPDEST DUP1 PUSH2 0x82C JUMPI POP PUSH1 0xB DUP5 PUSH1 0xC DUP2 GT ISZERO PUSH2 0x82A JUMPI PUSH2 0x82A PUSH2 0x2941 JUMP JUMPDEST EQ JUMPDEST DUP1 PUSH2 0x848 JUMPI POP PUSH1 0xC DUP5 PUSH1 0xC DUP2 GT ISZERO PUSH2 0x846 JUMPI PUSH2 0x846 PUSH2 0x2941 JUMP JUMPDEST EQ JUMPDEST PUSH2 0x8BF JUMPI PUSH1 0x40 MLOAD PUSH3 0x461BCD PUSH1 0xE5 SHL DUP2 MSTORE PUSH1 0x20 PUSH1 0x4 DUP3 ADD MSTORE PUSH1 0x37 PUSH1 0x24 DUP3 ADD MSTORE PUSH32 0x44617368626F6172643A20496E76616C696420636F6E646974696F6E20666F72 PUSH1 0x44 DUP3 ADD MSTORE PUSH32 0x2073696E676C65207468726573686F6C6420616C657274000000000000000000 PUSH1 0x64 DUP3 ADD MSTORE PUSH1 0x84 ADD JUMPDEST PUSH1 0x40 MLOAD DUP1 SWAP2 SUB SWAP1 REVERT JUMPDEST PUSH1 0x19 DUP1 SLOAD PUSH0 SWAP2 DUP3 PUSH2 0x8CF DUP4 PUSH2 0x3054 JUMP JUMPDEST SWAP2 SWAP1 POP SSTORE SWAP1 POP PUSH0 PUSH1 0x40 MLOAD DUP1 PUSH2 0x120 ADD PUSH1 0x40 MSTORE DUP1 DUP4 DUP2 MSTORE PUSH1 0x20 ADD CALLER PUSH1 0x1 PUSH1 0x1 PUSH1 0xA0 SHL SUB AND DUP2 MSTORE PUSH1 0x20 ADD DUP8 PUSH1 0xC DUP2 GT ISZERO PUSH2 0x909 JUMPI PUSH2 0x909 PUSH2 0x2941 JUMP JUMPDEST DUP2 MSTORE PUSH1 0x20 ADD DUP7 DUP2 MSTORE PUSH1 0x20 ADD PUSH0 DUP2 MSTORE PUSH1 0x20 ADD PUSH1 0x1 ISZERO ISZERO DUP2 MSTORE PUSH1 0x20 ADD PUSH0 ISZERO ISZERO DUP2 MSTORE PUSH1 0x20 ADD PUSH0 DUP2 MSTORE PUSH1 0x20 ADD DUP6 DUP6 DUP1 DUP1 PUSH1 0x1F ADD PUSH1 0x20 DUP1 SWAP2 DIV MUL PUSH1 0x20 ADD PUSH1 0x40 MLOAD SWAP1 DUP2 ADD PUSH1 0x40 MSTORE DUP1 SWAP4 SWAP3 SWAP2 SWAP1 DUP2 DUP2 MSTORE PUSH1 0x20 ADD DUP4 DUP4 DUP1 DUP3 DUP5 CALLDATACOPY PUSH0 SWAP3 ADD DUP3 SWAP1 MSTORE POP SWAP4 SWAP1 SWAP5 MSTORE POP POP PUSH1 0x12 SLOAD SWAP3 SWAP4 POP SWAP2 SWAP1 SWAP2 SUB SWAP1 POP PUSH2 0x98F JUMPI PUSH1 0x19 DUP1 SLOAD SWAP1 PUSH0 PUSH2 0x987 DUP4 PUSH2 0x3054 JUMP JUMPDEST SWAP1 SWAP2 SSTORE POP PUSH1 0x12 SSTORE JUMPDEST PUSH1 0x13 DUP1 SLOAD CALLER PUSH1 0x1 PUSH1 0x1 PUSH1 0xA0 SHL SUB NOT DUP3 AND DUP2 OR DUP4 SSTORE DUP9 SWAP3 SWAP2 PUSH1 0x1 PUSH1 0x1 PUSH1 0xA8 SHL SUB NOT AND PUSH1 0xFF PUSH1 0xA0 SHL NOT SWAP1 SWAP2 AND OR PUSH1 0x1 PUSH1 0xA0 SHL DUP4 PUSH1 0xC DUP2 GT ISZERO PUSH2 0x9D1 JUMPI PUSH2 0x9D1 PUSH2 0x2941 JUMP JUMPDEST MUL OR SWAP1 SSTORE POP PUSH1 0x14 DUP6 SWAP1 SSTORE PUSH0 PUSH1 0x15 SSTORE PUSH1 0x18 PUSH2 0x9EC DUP5 DUP7 DUP4 PUSH2 0x30CB JUMP JUMPDEST POP PUSH1 0x16 DUP1 SLOAD PUSH2 0xFFFF NOT AND PUSH1 0x1 SWAP1 DUP2 OR SWAP1 SWAP2 SSTORE PUSH0 PUSH1 0x17 DUP2 SWAP1 SSTORE PUSH1 0x3 DUP1 SLOAD SWAP3 DUP4 ADD DUP2 SSTORE SWAP1 MSTORE DUP2 MLOAD PUSH1 0x7 SWAP1 SWAP2 MUL PUSH32 0xC2575A0E9E593C00F959F8C92F12DB2869C3395A3B0502D05E2516446F71F85B DUP2 ADD SWAP2 DUP3 SSTORE PUSH1 0x20 DUP4 ADD MLOAD PUSH32 0xC2575A0E9E593C00F959F8C92F12DB2869C3395A3B0502D05E2516446F71F85C SWAP1 SWAP2 ADD DUP1 SLOAD PUSH1 0x1 PUSH1 0x1 PUSH1 0xA0 SHL SUB SWAP1 SWAP3 AND PUSH1 0x1 PUSH1 0x1 PUSH1 0xA0 SHL SUB NOT DUP4 AND DUP2 OR DUP3 SSTORE PUSH1 0x40 DUP6 ADD MLOAD DUP6 SWAP5 SWAP4 SWAP1 SWAP3 SWAP2 PUSH1 0x1 PUSH1 0x1 PUSH1 0xA8 SHL SUB NOT SWAP1 SWAP2 AND OR PUSH1 0x1 PUSH1 0xA0 SHL DUP4 PUSH1 0xC DUP2 GT ISZERO PUSH2 0xAB0 JUMPI PUSH2 0xAB0 PUSH2 0x2941 JUMP JUMPDEST MUL OR SWAP1 SSTORE POP PUSH1 0x60 DUP3 ADD MLOAD PUSH1 0x2 DUP3 ADD SSTORE PUSH1 0x80 DUP3 ADD MLOAD PUSH1 0x3 DUP3 ADD SSTORE PUSH1 0xA0 DUP3 ADD MLOAD PUSH1 0x4 DUP3 ADD DUP1 SLOAD PUSH1 0xC0 DUP6 ADD MLOAD PUSH2 0xFFFF NOT SWAP1 SWAP2 AND SWAP3 ISZERO ISZERO PUSH2 0xFF00 NOT AND SWAP3 SWAP1 SWAP3 OR PUSH2 0x100 SWAP3 ISZERO ISZERO DUP4 MUL OR SWAP1 SSTORE PUSH1 0xE0 DUP4 ADD MLOAD PUSH1 0x5 DUP4 ADD SSTORE DUP3 ADD MLOAD PUSH1 0x6 DUP3 ADD SWAP1 PUSH2 0xB13 SWAP1 DUP3 PUSH2 0x317F JUMP JUMPDEST POP POP PUSH1 0x12 SLOAD PUSH1 0x40 MLOAD CALLER SWAP3 POP PUSH32 0x778334AF3114ADE8967680FBF1E80E8E34DBE95416246AAEF26907AE22CDD358 SWAP1 PUSH2 0xB53 SWAP1 DUP11 SWAP1 DUP11 SWAP1 PUSH0 SWAP1 DUP12 SWAP1 DUP12 SWAP1 PUSH2 0x325C JUMP JUMPDEST PUSH1 0x40 MLOAD DUP1 SWAP2 SUB SWAP1 LOG3 POP POP POP POP POP POP JUMP JUMPDEST PUSH2 0xB6B PUSH2 0x239C JUMP JUMPDEST PUSH1 0x12 SLOAD ISZERO DUP1 ISZERO SWAP1 PUSH2 0xB7F JUMPI POP PUSH1 0x16 SLOAD PUSH1 0xFF AND ISZERO JUMPDEST ISZERO PUSH2 0xBBE JUMPI PUSH1 0x16 DUP1 SLOAD PUSH2 0xFFFF NOT AND PUSH1 0x1 OR SWAP1 SSTORE PUSH1 0x12 SLOAD PUSH1 0x40 MLOAD PUSH32 0x5B2A724A870CF7FE2C83BD903795D3BA6163EE1091A97587EDF93FF866E22965 SWAP1 PUSH0 SWAP1 LOG2 JUMPDEST JUMP JUMPDEST PUSH1 0x60 PUSH1 0xC DUP1 SLOAD DUP1 PUSH1 0x20 MUL PUSH1 0x20 ADD PUSH1 0x40 MLOAD SWAP1 DUP2 ADD PUSH1 0x40 MSTORE DUP1 SWAP3 SWAP2 SWAP1 DUP2 DUP2 MSTORE PUSH1 0x20 ADD PUSH0 SWAP1 JUMPDEST DUP3 DUP3 LT ISZERO PUSH2 0xC8B JUMPI DUP4 DUP3 SWAP1 PUSH0 MSTORE PUSH1 0x20 PUSH0 KECCAK256 ADD DUP1 SLOAD PUSH2 0xC00 SWAP1 PUSH2 0x3008 JUMP JUMPDEST DUP1 PUSH1 0x1F ADD PUSH1 0x20 DUP1 SWAP2 DIV MUL PUSH1 0x20 ADD PUSH1 0x40 MLOAD SWAP1 DUP2 ADD PUSH1 0x40 MSTORE DUP1 SWAP3 SWAP2 SWAP1 DUP2 DUP2 MSTORE PUSH1 0x20 ADD DUP3 DUP1 SLOAD PUSH2 0xC2C SWAP1 PUSH2 0x3008 JUMP JUMPDEST DUP1 ISZERO PUSH2 0xC77 JUMPI DUP1 PUSH1 0x1F LT PUSH2 0xC4E JUMPI PUSH2 0x100 DUP1 DUP4 SLOAD DIV MUL DUP4 MSTORE SWAP2 PUSH1 0x20 ADD SWAP2 PUSH2 0xC77 JUMP JUMPDEST DUP3 ADD SWAP2 SWAP1 PUSH0 MSTORE PUSH1 0x20 PUSH0 KECCAK256 SWAP1 JUMPDEST DUP2 SLOAD DUP2 MSTORE SWAP1 PUSH1 0x1 ADD SWAP1 PUSH1 0x20 ADD DUP1 DUP4 GT PUSH2 0xC5A JUMPI DUP3 SWAP1 SUB PUSH1 0x1F AND DUP3 ADD SWAP2 JUMPDEST POP POP POP POP POP DUP2 MSTORE PUSH1 0x20 ADD SWAP1 PUSH1 0x1 ADD SWAP1 PUSH2 0xBE3 JUMP JUMPDEST POP POP POP POP SWAP1 POP SWAP1 JUMP JUMPDEST PUSH1 0xE DUP2 DUP2 SLOAD DUP2 LT PUSH2 0xCA3 JUMPI PUSH0 DUP1 REVERT JUMPDEST SWAP1 PUSH0 MSTORE PUSH1 0x20 PUSH0 KECCAK256 SWAP1 PUSH1 0x5 MUL ADD PUSH0 SWAP2 POP SWAP1 POP DUP1 PUSH0 ADD DUP1 SLOAD PUSH2 0xCC2 SWAP1 PUSH2 0x3008 JUMP JUMPDEST DUP1 PUSH1 0x1F ADD PUSH1 0x20 DUP1 SWAP2 DIV MUL PUSH1 0x20 ADD PUSH1 0x40 MLOAD SWAP1 DUP2 ADD PUSH1 0x40 MSTORE DUP1 SWAP3 SWAP2 SWAP1 DUP2 DUP2 MSTORE PUSH1 0x20 ADD DUP3 DUP1 SLOAD PUSH2 0xCEE SWAP1 PUSH2 0x3008 JUMP JUMPDEST DUP1 ISZERO PUSH2 0xD39 JUMPI DUP1 PUSH1 0x1F LT PUSH2 0xD10 JUMPI PUSH2 0x100 DUP1 DUP4 SLOAD DIV MUL DUP4 MSTORE SWAP2 PUSH1 0x20 ADD SWAP2 PUSH2 0xD39 JUMP JUMPDEST DUP3 ADD SWAP2 SWAP1 PUSH0 MSTORE PUSH1 0x20 PUSH0 KECCAK256 SWAP1 JUMPDEST DUP2 SLOAD DUP2 MSTORE SWAP1 PUSH1 0x1 ADD SWAP1 PUSH1 0x20 ADD DUP1 DUP4 GT PUSH2 0xD1C JUMPI DUP3 SWAP1 SUB PUSH1 0x1F AND DUP3 ADD SWAP2 JUMPDEST POP POP POP POP PUSH1 0x1 DUP4 ADD SLOAD PUSH1 0x2 DUP5 ADD SLOAD PUSH1 0x3 DUP6 ADD SLOAD PUSH1 0x4 SWAP1 SWAP6 ADD SLOAD SWAP4 SWAP5 PUSH1 0x1 PUSH1 0x1 PUSH1 0xA0 SHL SUB SWAP1 SWAP3 AND SWAP4 SWAP1 SWAP3 POP DUP6 JUMP JUMPDEST PUSH2 0xD6E PUSH2 0x239C JUMP JUMPDEST PUSH1 0x6 DUP5 SWAP1 SSTORE PUSH1 0x7 DUP4 SWAP1 SSTORE PUSH1 0x8 DUP3 SWAP1 SSTORE PUSH1 0x9 DUP2 SWAP1 SSTORE TIMESTAMP PUSH1 0xA DUP2 SWAP1 SSTORE PUSH1 0x40 DUP1 MLOAD DUP7 DUP2 MSTORE PUSH1 0x20 DUP2 ADD DUP7 SWAP1 MSTORE DUP1 DUP3 ADD DUP6 SWAP1 MSTORE PUSH1 0x60 DUP2 ADD DUP5 SWAP1 MSTORE PUSH1 0x80 DUP2 ADD SWAP3 SWAP1 SWAP3 MSTORE MLOAD PUSH32 0x8ECD0C5F0D0F300FE6241546A3CC8C4F4DC6F4573ED292C6FFBD86A83353035 SWAP2 DUP2 SWAP1 SUB PUSH1 0xA0 ADD SWAP1 LOG1 POP POP POP POP JUMP JUMPDEST PUSH2 0xDE4 PUSH2 0x239C JUMP JUMPDEST PUSH0 PUSH1 0xB DUP5 DUP5 PUSH1 0x40 MLOAD PUSH2 0xDF7 SWAP3 SWAP2 SWAP1 PUSH2 0x3293 JUMP JUMPDEST SWAP1 DUP2 MSTORE PUSH1 0x40 MLOAD SWAP1 DUP2 SWAP1 SUB PUSH1 0x20 ADD SWAP1 KECCAK256 SWAP1 POP PUSH0 DUP1 JUMPDEST PUSH1 0xC SLOAD DUP2 LT ISZERO PUSH2 0xE95 JUMPI DUP6 DUP6 PUSH1 0x40 MLOAD PUSH1 0x20 ADD PUSH2 0xE28 SWAP3 SWAP2 SWAP1 PUSH2 0x3293 JUMP JUMPDEST PUSH1 0x40 MLOAD PUSH1 0x20 DUP2 DUP4 SUB SUB DUP2 MSTORE SWAP1 PUSH1 0x40 MSTORE DUP1 MLOAD SWAP1 PUSH1 0x20 ADD KECCAK256 PUSH1 0xC DUP3 DUP2 SLOAD DUP2 LT PUSH2 0xE51 JUMPI PUSH2 0xE51 PUSH2 0x32A2 JUMP JUMPDEST SWAP1 PUSH0 MSTORE PUSH1 0x20 PUSH0 KECCAK256 ADD PUSH1 0x40 MLOAD PUSH1 0x20 ADD PUSH2 0xE69 SWAP2 SWAP1 PUSH2 0x32B6 JUMP JUMPDEST PUSH1 0x40 MLOAD PUSH1 0x20 DUP2 DUP4 SUB SUB DUP2 MSTORE SWAP1 PUSH1 0x40 MSTORE DUP1 MLOAD SWAP1 PUSH1 0x20 ADD KECCAK256 SUB PUSH2 0xE8D JUMPI PUSH1 0x1 SWAP2 POP PUSH2 0xE95 JUMP JUMPDEST PUSH1 0x1 ADD PUSH2 0xE0B JUMP JUMPDEST POP DUP1 PUSH2 0xF18 JUMPI PUSH1 0xC DUP1 SLOAD PUSH1 0x1 DUP2 ADD DUP3 SSTORE PUSH0 SWAP2 SWAP1 SWAP2 MSTORE PUSH32 0xDF6966C971051C3D54EC59162606531493A51404A002842F56009D7E5CF4A8C7 ADD PUSH2 0xED7 DUP6 DUP8 DUP4 PUSH2 0x30CB JUMP JUMPDEST POP DUP5 DUP5 PUSH1 0x40 MLOAD PUSH2 0xEE8 SWAP3 SWAP2 SWAP1 PUSH2 0x3293 JUMP JUMPDEST PUSH1 0x40 MLOAD SWAP1 DUP2 SWAP1 SUB DUP2 KECCAK256 SWAP1 PUSH32 0x81C6DAD8FC2E53ED05F364A56D3DF0F0836727EECA7D52C4C25F995362A02744 SWAP1 PUSH0 SWAP1 LOG2 JUMPDEST DUP2 PUSH2 0xF24 DUP6 DUP8 DUP4 PUSH2 0x30CB JUMP JUMPDEST POP PUSH1 0x1 DUP3 ADD DUP4 SWAP1 SSTORE TIMESTAMP PUSH1 0x2 DUP4 ADD SSTORE PUSH1 0x40 MLOAD PUSH2 0xF42 SWAP1 DUP7 SWAP1 DUP7 SWAP1 PUSH2 0x3293 JUMP JUMPDEST PUSH1 0x40 DUP1 MLOAD SWAP2 DUP3 SWAP1 SUB DUP3 KECCAK256 DUP6 DUP4 MSTORE TIMESTAMP PUSH1 0x20 DUP5 ADD MSTORE SWAP2 PUSH32 0x30167B93764FAD9E40CE98169F9156F222D6CA60145C01B3509119B8D413ED6F SWAP2 ADD PUSH1 0x40 MLOAD DUP1 SWAP2 SUB SWAP1 LOG2 POP POP POP POP POP JUMP JUMPDEST PUSH2 0xF90 PUSH2 0x239C JUMP JUMPDEST PUSH1 0x12 SLOAD ISZERO DUP1 ISZERO SWAP1 PUSH2 0xFA8 JUMPI POP PUSH1 0x16 SLOAD PUSH2 0x100 SWAP1 DIV PUSH1 0xFF AND JUMPDEST ISZERO PUSH2 0xBBE JUMPI PUSH1 0x16 DUP1 SLOAD PUSH2 0xFF00 NOT AND SWAP1 SSTORE PUSH0 PUSH1 0x17 DUP2 SWAP1 SSTORE PUSH1 0x12 SLOAD PUSH1 0x40 MLOAD SWAP1 SWAP2 PUSH32 0xC26F9C3201044D3757E27488CD192595AAF8B176842B2175EF47A4CDF1A53952 SWAP2 LOG2 JUMP JUMPDEST PUSH2 0xFF3 PUSH2 0x239C JUMP JUMPDEST PUSH2 0xBBE PUSH0 PUSH2 0x23C8 JUMP JUMPDEST DUP1 MLOAD PUSH1 0x20 DUP2 DUP4 ADD DUP2 ADD DUP1 MLOAD PUSH1 0xD DUP3 MSTORE SWAP3 DUP3 ADD SWAP2 SWAP1 SWAP4 ADD KECCAK256 SWAP2 MSTORE DUP1 SLOAD DUP2 SWAP1 PUSH2 0x1022 SWAP1 PUSH2 0x3008 JUMP JUMPDEST DUP1 PUSH1 0x1F ADD PUSH1 0x20 DUP1 SWAP2 DIV MUL PUSH1 0x20 ADD PUSH1 0x40 MLOAD SWAP1 DUP2 ADD PUSH1 0x40 MSTORE DUP1 SWAP3 SWAP2 SWAP1 DUP2 DUP2 MSTORE PUSH1 0x20 ADD DUP3 DUP1 SLOAD PUSH2 0x104E SWAP1 PUSH2 0x3008 JUMP JUMPDEST DUP1 ISZERO PUSH2 0x1099 JUMPI DUP1 PUSH1 0x1F LT PUSH2 0x1070 JUMPI PUSH2 0x100 DUP1 DUP4 SLOAD DIV MUL DUP4 MSTORE SWAP2 PUSH1 0x20 ADD SWAP2 PUSH2 0x1099 JUMP JUMPDEST DUP3 ADD SWAP2 SWAP1 PUSH0 MSTORE PUSH1 0x20 PUSH0 KECCAK256 SWAP1 JUMPDEST DUP2 SLOAD DUP2 MSTORE SWAP1 PUSH1 0x1 ADD SWAP1 PUSH1 0x20 ADD DUP1 DUP4 GT PUSH2 0x107C JUMPI DUP3 SWAP1 SUB PUSH1 0x1F AND DUP3 ADD SWAP2 JUMPDEST POP POP POP POP POP SWAP1 DUP1 PUSH1 0x1 ADD DUP1 SLOAD PUSH2 0x10AE SWAP1 PUSH2 0x3008 JUMP JUMPDEST DUP1 PUSH1 0x1F ADD PUSH1 0x20 DUP1 SWAP2 DIV MUL PUSH1 0x20 ADD PUSH1 0x40 MLOAD SWAP1 DUP2 ADD PUSH1 0x40 MSTORE DUP1 SWAP3 SWAP2 SWAP1 DUP2 DUP2 MSTORE PUSH1 0x20 ADD DUP3 DUP1 SLOAD PUSH2 0x10DA SWAP1 PUSH2 0x3008 JUMP JUMPDEST DUP1 ISZERO PUSH2 0x1125 JUMPI DUP1 PUSH1 0x1F LT PUSH2 0x10FC JUMPI PUSH2 0x100 DUP1 DUP4 SLOAD DIV MUL DUP4 MSTORE SWAP2 PUSH1 0x20 ADD SWAP2 PUSH2 0x1125 JUMP JUMPDEST DUP3 ADD SWAP2 SWAP1 PUSH0 MSTORE PUSH1 0x20 PUSH0 KECCAK256 SWAP1 JUMPDEST DUP2 SLOAD DUP2 MSTORE SWAP1 PUSH1 0x1 ADD SWAP1 PUSH1 0x20 ADD DUP1 DUP4 GT PUSH2 0x1108 JUMPI DUP3 SWAP1 SUB PUSH1 0x1F AND DUP3 ADD SWAP2 JUMPDEST POP POP POP POP POP SWAP1 DUP1 PUSH1 0x2 ADD SLOAD SWAP1 DUP1 PUSH1 0x3 ADD SLOAD SWAP1 POP DUP5 JUMP JUMPDEST PUSH1 0x60 PUSH1 0xF DUP1 SLOAD DUP1 PUSH1 0x20 MUL PUSH1 0x20 ADD PUSH1 0x40 MLOAD SWAP1 DUP2 ADD PUSH1 0x40 MSTORE DUP1 SWAP3 SWAP2 SWAP1 DUP2 DUP2 MSTORE PUSH1 0x20 ADD PUSH0 SWAP1 JUMPDEST DUP3 DUP3 LT ISZERO PUSH2 0xC8B JUMPI DUP4 DUP3 SWAP1 PUSH0 MSTORE PUSH1 0x20 PUSH0 KECCAK256 SWAP1 PUSH1 0x5 MUL ADD PUSH1 0x40 MLOAD DUP1 PUSH1 0xA0 ADD PUSH1 0x40 MSTORE SWAP1 DUP2 PUSH0 DUP3 ADD DUP1 SLOAD PUSH2 0x118E SWAP1 PUSH2 0x3008 JUMP JUMPDEST DUP1 PUSH1 0x1F ADD PUSH1 0x20 DUP1 SWAP2 DIV MUL PUSH1 0x20 ADD PUSH1 0x40 MLOAD SWAP1 DUP2 ADD PUSH1 0x40 MSTORE DUP1 SWAP3 SWAP2 SWAP1 DUP2 DUP2 MSTORE PUSH1 0x20 ADD DUP3 DUP1 SLOAD PUSH2 0x11BA SWAP1 PUSH2 0x3008 JUMP JUMPDEST DUP1 ISZERO PUSH2 0x1205 JUMPI DUP1 PUSH1 0x1F LT PUSH2 0x11DC JUMPI PUSH2 0x100 DUP1 DUP4 SLOAD DIV MUL DUP4 MSTORE SWAP2 PUSH1 0x20 ADD SWAP2 PUSH2 0x1205 JUMP JUMPDEST DUP3 ADD SWAP2 SWAP1 PUSH0 MSTORE PUSH1 0x20 PUSH0 KECCAK256 SWAP1 JUMPDEST DUP2 SLOAD DUP2 MSTORE SWAP1 PUSH1 0x1 ADD SWAP1 PUSH1 0x20 ADD DUP1 DUP4 GT PUSH2 0x11E8 JUMPI DUP3 SWAP1 SUB PUSH1 0x1F AND DUP3 ADD SWAP2 JUMPDEST POP POP POP SWAP2 DUP4 MSTORE POP POP PUSH1 0x1 DUP3 DUP2 ADD SLOAD PUSH1 0x1 PUSH1 0x1 PUSH1 0xA0 SHL SUB AND PUSH1 0x20 DUP1 DUP5 ADD SWAP2 SWAP1 SWAP2 MSTORE PUSH1 0x2 DUP5 ADD SLOAD PUSH1 0x40 DUP5 ADD MSTORE PUSH1 0x3 DUP5 ADD SLOAD PUSH1 0x60 DUP5 ADD MSTORE PUSH1 0x4 SWAP1 SWAP4 ADD SLOAD PUSH1 0x80 SWAP1 SWAP3 ADD SWAP2 SWAP1 SWAP2 MSTORE SWAP2 DUP4 MSTORE SWAP3 ADD SWAP2 ADD PUSH2 0x115E JUMP JUMPDEST PUSH2 0x127D PUSH1 0x40 MLOAD DUP1 PUSH1 0x80 ADD PUSH1 0x40 MSTORE DUP1 PUSH1 0x60 DUP2 MSTORE PUSH1 0x20 ADD PUSH1 0x60 DUP2 MSTORE PUSH1 0x20 ADD PUSH0 DUP2 MSTORE PUSH1 0x20 ADD PUSH0 DUP2 MSTORE POP SWAP1 JUMP JUMPDEST PUSH1 0xD DUP4 DUP4 PUSH1 0x40 MLOAD PUSH2 0x128F SWAP3 SWAP2 SWAP1 PUSH2 0x3293 JUMP JUMPDEST SWAP1 DUP2 MSTORE PUSH1 0x20 ADD PUSH1 0x40 MLOAD DUP1 SWAP2 SUB SWAP1 KECCAK256 PUSH1 0x40 MLOAD DUP1 PUSH1 0x80 ADD PUSH1 0x40 MSTORE SWAP1 DUP2 PUSH0 DUP3 ADD DUP1 SLOAD PUSH2 0x12B7 SWAP1 PUSH2 0x3008 JUMP JUMPDEST DUP1 PUSH1 0x1F ADD PUSH1 0x20 DUP1 SWAP2 DIV MUL PUSH1 0x20 ADD PUSH1 0x40 MLOAD SWAP1 DUP2 ADD PUSH1 0x40 MSTORE DUP1 SWAP3 SWAP2 SWAP1 DUP2 DUP2 MSTORE PUSH1 0x20 ADD DUP3 DUP1 SLOAD PUSH2 0x12E3 SWAP1 PUSH2 0x3008 JUMP JUMPDEST DUP1 ISZERO PUSH2 0x132E JUMPI DUP1 PUSH1 0x1F LT PUSH2 0x1305 JUMPI PUSH2 0x100 DUP1 DUP4 SLOAD DIV MUL DUP4 MSTORE SWAP2 PUSH1 0x20 ADD SWAP2 PUSH2 0x132E JUMP JUMPDEST DUP3 ADD SWAP2 SWAP1 PUSH0 MSTORE PUSH1 0x20 PUSH0 KECCAK256 SWAP1 JUMPDEST DUP2 SLOAD DUP2 MSTORE SWAP1 PUSH1 0x1 ADD SWAP1 PUSH1 0x20 ADD DUP1 DUP4 GT PUSH2 0x1311 JUMPI DUP3 SWAP1 SUB PUSH1 0x1F AND DUP3 ADD SWAP2 JUMPDEST POP POP POP POP POP DUP2 MSTORE PUSH1 0x20 ADD PUSH1 0x1 DUP3 ADD DUP1 SLOAD PUSH2 0x1347 SWAP1 PUSH2 0x3008 JUMP JUMPDEST DUP1 PUSH1 0x1F ADD PUSH1 0x20 DUP1 SWAP2 DIV MUL PUSH1 0x20 ADD PUSH1 0x40 MLOAD SWAP1 DUP2 ADD PUSH1 0x40 MSTORE DUP1 SWAP3 SWAP2 SWAP1 DUP2 DUP2 MSTORE PUSH1 0x20 ADD DUP3 DUP1 SLOAD PUSH2 0x1373 SWAP1 PUSH2 0x3008 JUMP JUMPDEST DUP1 ISZERO PUSH2 0x13BE JUMPI DUP1 PUSH1 0x1F LT PUSH2 0x1395 JUMPI PUSH2 0x100 DUP1 DUP4 SLOAD DIV MUL DUP4 MSTORE SWAP2 PUSH1 0x20 ADD SWAP2 PUSH2 0x13BE JUMP JUMPDEST DUP3 ADD SWAP2 SWAP1 PUSH0 MSTORE PUSH1 0x20 PUSH0 KECCAK256 SWAP1 JUMPDEST DUP2 SLOAD DUP2 MSTORE SWAP1 PUSH1 0x1 ADD SWAP1 PUSH1 0x20 ADD DUP1 DUP4 GT PUSH2 0x13A1 JUMPI DUP3 SWAP1 SUB PUSH1 0x1F AND DUP3 ADD SWAP2 JUMPDEST POP POP POP POP POP DUP2 MSTORE PUSH1 0x20 ADD PUSH1 0x2 DUP3 ADD SLOAD DUP2 MSTORE PUSH1 0x20 ADD PUSH1 0x3 DUP3 ADD SLOAD DUP2 MSTORE POP POP SWAP1 POP JUMPDEST SWAP3 SWAP2 POP POP JUMP JUMPDEST PUSH2 0x13EC PUSH2 0x239C JUMP JUMPDEST PUSH1 0x12 SLOAD ISZERO DUP1 ISZERO SWAP1 PUSH2 0x13FF JUMPI POP PUSH1 0x16 SLOAD PUSH1 0xFF AND JUMPDEST ISZERO PUSH2 0xBBE JUMPI PUSH1 0x16 DUP1 SLOAD PUSH1 0xFF NOT AND SWAP1 SSTORE PUSH1 0x12 SLOAD PUSH1 0x40 MLOAD PUSH32 0xD7D997A7D5BB0E259C4BCBF9213B950FC2D302D3D30540C7671B3C2E6D33088D SWAP1 PUSH0 SWAP1 LOG2 JUMP JUMPDEST PUSH2 0x1443 PUSH2 0x239C JUMP JUMPDEST PUSH2 0x144E PUSH1 0xE PUSH0 PUSH2 0x2765 JUMP JUMPDEST PUSH0 JUMPDEST DUP5 DUP2 LT ISZERO PUSH2 0x15DF JUMPI PUSH1 0xE PUSH1 0x40 MLOAD DUP1 PUSH1 0xA0 ADD PUSH1 0x40 MSTORE DUP1 DUP9 DUP9 DUP6 DUP2 DUP2 LT PUSH2 0x1477 JUMPI PUSH2 0x1477 PUSH2 0x32A2 JUMP JUMPDEST SWAP1 POP PUSH1 0x20 MUL DUP2 ADD SWAP1 PUSH2 0x1489 SWAP2 SWAP1 PUSH2 0x3327 JUMP JUMPDEST PUSH2 0x1493 SWAP1 DUP1 PUSH2 0x3345 JUMP JUMPDEST DUP1 DUP1 PUSH1 0x1F ADD PUSH1 0x20 DUP1 SWAP2 DIV MUL PUSH1 0x20 ADD PUSH1 0x40 MLOAD SWAP1 DUP2 ADD PUSH1 0x40 MSTORE DUP1 SWAP4 SWAP3 SWAP2 SWAP1 DUP2 DUP2 MSTORE PUSH1 0x20 ADD DUP4 DUP4 DUP1 DUP3 DUP5 CALLDATACOPY PUSH0 SWAP3 ADD SWAP2 SWAP1 SWAP2 MSTORE POP POP POP SWAP1 DUP3 MSTORE POP PUSH1 0x20 ADD DUP9 DUP9 DUP6 DUP2 DUP2 LT PUSH2 0x14DE JUMPI PUSH2 0x14DE PUSH2 0x32A2 JUMP JUMPDEST SWAP1 POP PUSH1 0x20 MUL DUP2 ADD SWAP1 PUSH2 0x14F0 SWAP2 SWAP1 PUSH2 0x3327 JUMP JUMPDEST PUSH2 0x1501 SWAP1 PUSH1 0x40 DUP2 ADD SWAP1 PUSH1 0x20 ADD PUSH2 0x2FA7 JUMP JUMPDEST PUSH1 0x1 PUSH1 0x1 PUSH1 0xA0 SHL SUB AND DUP2 MSTORE PUSH1 0x20 ADD DUP9 DUP9 DUP6 DUP2 DUP2 LT PUSH2 0x1521 JUMPI PUSH2 0x1521 PUSH2 0x32A2 JUMP JUMPDEST SWAP1 POP PUSH1 0x20 MUL DUP2 ADD SWAP1 PUSH2 0x1533 SWAP2 SWAP1 PUSH2 0x3327 JUMP JUMPDEST PUSH1 0x40 ADD CALLDATALOAD DUP2 MSTORE PUSH1 0x20 ADD DUP9 DUP9 DUP6 DUP2 DUP2 LT PUSH2 0x154E JUMPI PUSH2 0x154E PUSH2 0x32A2 JUMP JUMPDEST SWAP1 POP PUSH1 0x20 MUL DUP2 ADD SWAP1 PUSH2 0x1560 SWAP2 SWAP1 PUSH2 0x3327 JUMP JUMPDEST PUSH1 0x60 ADD CALLDATALOAD DUP2 MSTORE TIMESTAMP PUSH1 0x20 SWAP2 DUP3 ADD MSTORE DUP3 SLOAD PUSH1 0x1 DUP2 ADD DUP5 SSTORE PUSH0 SWAP4 DUP5 MSTORE SWAP3 KECCAK256 DUP2 MLOAD SWAP2 SWAP3 PUSH1 0x5 MUL ADD SWAP1 DUP2 SWAP1 PUSH2 0x1590 SWAP1 DUP3 PUSH2 0x317F JUMP JUMPDEST POP PUSH1 0x20 DUP3 ADD MLOAD PUSH1 0x1 DUP3 DUP2 ADD DUP1 SLOAD PUSH1 0x1 PUSH1 0x1 PUSH1 0xA0 SHL SUB NOT AND PUSH1 0x1 PUSH1 0x1 PUSH1 0xA0 SHL SUB SWAP1 SWAP4 AND SWAP3 SWAP1 SWAP3 OR SWAP1 SWAP2 SSTORE PUSH1 0x40 DUP4 ADD MLOAD PUSH1 0x2 DUP4 ADD SSTORE PUSH1 0x60 DUP4 ADD MLOAD PUSH1 0x3 DUP4 ADD SSTORE PUSH1 0x80 SWAP1 SWAP3 ADD MLOAD PUSH1 0x4 SWAP1 SWAP2 ADD SSTORE ADD PUSH2 0x1450 JUMP JUMPDEST POP PUSH2 0x15EB PUSH1 0xF PUSH0 PUSH2 0x2765 JUMP JUMPDEST PUSH0 JUMPDEST DUP3 DUP2 LT ISZERO PUSH2 0x177C JUMPI PUSH1 0xF PUSH1 0x40 MLOAD DUP1 PUSH1 0xA0 ADD PUSH1 0x40 MSTORE DUP1 DUP7 DUP7 DUP6 DUP2 DUP2 LT PUSH2 0x1614 JUMPI PUSH2 0x1614 PUSH2 0x32A2 JUMP JUMPDEST SWAP1 POP PUSH1 0x20 MUL DUP2 ADD SWAP1 PUSH2 0x1626 SWAP2 SWAP1 PUSH2 0x3327 JUMP JUMPDEST PUSH2 0x1630 SWAP1 DUP1 PUSH2 0x3345 JUMP JUMPDEST DUP1 DUP1 PUSH1 0x1F ADD PUSH1 0x20 DUP1 SWAP2 DIV MUL PUSH1 0x20 ADD PUSH1 0x40 MLOAD SWAP1 DUP2 ADD PUSH1 0x40 MSTORE DUP1 SWAP4 SWAP3 SWAP2 SWAP1 DUP2 DUP2 MSTORE PUSH1 0x20 ADD DUP4 DUP4 DUP1 DUP3 DUP5 CALLDATACOPY PUSH0 SWAP3 ADD SWAP2 SWAP1 SWAP2 MSTORE POP POP POP SWAP1 DUP3 MSTORE POP PUSH1 0x20 ADD DUP7 DUP7 DUP6 DUP2 DUP2 LT PUSH2 0x167B JUMPI PUSH2 0x167B PUSH2 0x32A2 JUMP JUMPDEST SWAP1 POP PUSH1 0x20 MUL DUP2 ADD SWAP1 PUSH2 0x168D SWAP2 SWAP1 PUSH2 0x3327 JUMP JUMPDEST PUSH2 0x169E SWAP1 PUSH1 0x40 DUP2 ADD SWAP1 PUSH1 0x20 ADD PUSH2 0x2FA7 JUMP JUMPDEST PUSH1 0x1 PUSH1 0x1 PUSH1 0xA0 SHL SUB AND DUP2 MSTORE PUSH1 0x20 ADD DUP7 DUP7 DUP6 DUP2 DUP2 LT PUSH2 0x16BE JUMPI PUSH2 0x16BE PUSH2 0x32A2 JUMP JUMPDEST SWAP1 POP PUSH1 0x20 MUL DUP2 ADD SWAP1 PUSH2 0x16D0 SWAP2 SWAP1 PUSH2 0x3327 JUMP JUMPDEST PUSH1 0x40 ADD CALLDATALOAD DUP2 MSTORE PUSH1 0x20 ADD DUP7 DUP7 DUP6 DUP2 DUP2 LT PUSH2 0x16EB JUMPI PUSH2 0x16EB PUSH2 0x32A2 JUMP JUMPDEST SWAP1 POP PUSH1 0x20 MUL DUP2 ADD SWAP1 PUSH2 0x16FD SWAP2 SWAP1 PUSH2 0x3327 JUMP JUMPDEST PUSH1 0x60 ADD CALLDATALOAD DUP2 MSTORE TIMESTAMP PUSH1 0x20 SWAP2 DUP3 ADD MSTORE DUP3 SLOAD PUSH1 0x1 DUP2 ADD DUP5 SSTORE PUSH0 SWAP4 DUP5 MSTORE SWAP3 KECCAK256 DUP2 MLOAD SWAP2 SWAP3 PUSH1 0x5 MUL ADD SWAP1 DUP2 SWAP1 PUSH2 0x172D SWAP1 DUP3 PUSH2 0x317F JUMP JUMPDEST POP PUSH1 0x20 DUP3 ADD MLOAD PUSH1 0x1 DUP3 DUP2 ADD DUP1 SLOAD PUSH1 0x1 PUSH1 0x1 PUSH1 0xA0 SHL SUB NOT AND PUSH1 0x1 PUSH1 0x1 PUSH1 0xA0 SHL SUB SWAP1 SWAP4 AND SWAP3 SWAP1 SWAP3 OR SWAP1 SWAP2 SSTORE PUSH1 0x40 DUP4 ADD MLOAD PUSH1 0x2 DUP4 ADD SSTORE PUSH1 0x60 DUP4 ADD MLOAD PUSH1 0x3 DUP4 ADD SSTORE PUSH1 0x80 SWAP1 SWAP3 ADD MLOAD PUSH1 0x4 SWAP1 SWAP2 ADD SSTORE ADD PUSH2 0x15ED JUMP JUMPDEST POP PUSH1 0x10 DUP2 SWAP1 SSTORE TIMESTAMP PUSH1 0x11 DUP2 SWAP1 SSTORE PUSH1 0x40 DUP1 MLOAD DUP4 DUP2 MSTORE PUSH1 0x20 DUP2 ADD SWAP3 SWAP1 SWAP3 MSTORE PUSH32 0xADF8225E8E3A7CE8AAABD2D8357177B1A9937694639E8488214B2F12C18146EE SWAP2 ADD PUSH1 0x40 MLOAD DUP1 SWAP2 SUB SWAP1 LOG1 POP POP POP POP POP JUMP JUMPDEST PUSH2 0x17D1 PUSH2 0x239C JUMP JUMPDEST PUSH1 0x5 SLOAD PUSH1 0xFF AND DUP1 PUSH2 0x17E3 JUMPI POP PUSH1 0x2 SLOAD ISZERO ISZERO JUMPDEST ISZERO PUSH2 0x17F3 JUMPI PUSH1 0x1 SLOAD PUSH1 0x4 SSTORE PUSH2 0x17F9 JUMP JUMPDEST PUSH1 0x4 DUP2 SWAP1 SSTORE JUMPDEST PUSH1 0x5 DUP1 SLOAD PUSH1 0xFF NOT AND PUSH1 0x1 SWAP1 DUP2 OR SWAP1 SWAP2 SSTORE DUP2 SWAP1 SSTORE TIMESTAMP PUSH1 0x2 DUP2 SWAP1 SSTORE PUSH1 0x40 DUP1 MLOAD DUP4 DUP2 MSTORE PUSH1 0x20 DUP2 ADD SWAP3 SWAP1 SWAP3 MSTORE PUSH32 0x475CAE5B1B67B8F03ABA6A9D0442B263224EE619FA6FB913C08D9EDF37904B8C SWAP2 ADD PUSH1 0x40 MLOAD DUP1 SWAP2 SUB SWAP1 LOG1 PUSH1 0x1 SLOAD PUSH1 0x4 SLOAD PUSH1 0x5 SLOAD PUSH2 0x1863 SWAP3 SWAP2 SWAP1 PUSH1 0xFF AND PUSH2 0x2417 JUMP JUMPDEST POP JUMP JUMPDEST PUSH2 0x186E PUSH2 0x239C JUMP JUMPDEST PUSH0 DUP1 DUP1 JUMPDEST PUSH1 0xC SLOAD DUP2 LT ISZERO PUSH2 0x18FF JUMPI DUP5 DUP5 PUSH1 0x40 MLOAD PUSH1 0x20 ADD PUSH2 0x188F SWAP3 SWAP2 SWAP1 PUSH2 0x3293 JUMP JUMPDEST PUSH1 0x40 MLOAD PUSH1 0x20 DUP2 DUP4 SUB SUB DUP2 MSTORE SWAP1 PUSH1 0x40 MSTORE DUP1 MLOAD SWAP1 PUSH1 0x20 ADD KECCAK256 PUSH1 0xC DUP3 DUP2 SLOAD DUP2 LT PUSH2 0x18B8 JUMPI PUSH2 0x18B8 PUSH2 0x32A2 JUMP JUMPDEST SWAP1 PUSH0 MSTORE PUSH1 0x20 PUSH0 KECCAK256 ADD PUSH1 0x40 MLOAD PUSH1 0x20 ADD PUSH2 0x18D0 SWAP2 SWAP1 PUSH2 0x32B6 JUMP JUMPDEST PUSH1 0x40 MLOAD PUSH1 0x20 DUP2 DUP4 SUB SUB DUP2 MSTORE SWAP1 PUSH1 0x40 MSTORE DUP1 MLOAD SWAP1 PUSH1 0x20 ADD KECCAK256 SUB PUSH2 0x18F7 JUMPI PUSH1 0x1 SWAP3 POP DUP1 SWAP2 POP PUSH2 0x18FF JUMP JUMPDEST PUSH1 0x1 ADD PUSH2 0x1872 JUMP JUMPDEST POP DUP2 ISZERO PUSH2 0x1A14 JUMPI PUSH1 0xB DUP5 DUP5 PUSH1 0x40 MLOAD PUSH2 0x1918 SWAP3 SWAP2 SWAP1 PUSH2 0x3293 JUMP JUMPDEST SWAP1 DUP2 MSTORE PUSH1 0x40 MLOAD SWAP1 DUP2 SWAP1 SUB PUSH1 0x20 ADD SWAP1 KECCAK256 PUSH0 PUSH2 0x1932 DUP3 DUP3 PUSH2 0x2783 JUMP JUMPDEST POP PUSH0 PUSH1 0x1 DUP3 ADD DUP2 SWAP1 SSTORE PUSH1 0x2 SWAP1 SWAP2 ADD SSTORE PUSH1 0xC SLOAD ISZERO DUP1 ISZERO SWAP1 PUSH2 0x1953 JUMPI POP PUSH1 0xC SLOAD DUP2 LT JUMPDEST ISZERO PUSH2 0x1A14 JUMPI PUSH1 0xC DUP1 SLOAD PUSH2 0x1968 SWAP1 PUSH1 0x1 SWAP1 PUSH2 0x3387 JUMP JUMPDEST DUP2 SLOAD DUP2 LT PUSH2 0x1978 JUMPI PUSH2 0x1978 PUSH2 0x32A2 JUMP JUMPDEST SWAP1 PUSH0 MSTORE PUSH1 0x20 PUSH0 KECCAK256 ADD PUSH1 0xC DUP3 DUP2 SLOAD DUP2 LT PUSH2 0x1993 JUMPI PUSH2 0x1993 PUSH2 0x32A2 JUMP JUMPDEST SWAP1 PUSH0 MSTORE PUSH1 0x20 PUSH0 KECCAK256 ADD SWAP1 DUP2 PUSH2 0x19A7 SWAP2 SWAP1 PUSH2 0x339A JUMP JUMPDEST POP PUSH1 0xC DUP1 SLOAD DUP1 PUSH2 0x19B9 JUMPI PUSH2 0x19B9 PUSH2 0x345A JUMP JUMPDEST PUSH1 0x1 SWAP1 SUB DUP2 DUP2 SWAP1 PUSH0 MSTORE PUSH1 0x20 PUSH0 KECCAK256 ADD PUSH0 PUSH2 0x19D2 SWAP2 SWAP1 PUSH2 0x2783 JUMP JUMPDEST SWAP1 SSTORE DUP4 DUP4 PUSH1 0x40 MLOAD PUSH2 0x19E4 SWAP3 SWAP2 SWAP1 PUSH2 0x3293 JUMP JUMPDEST PUSH1 0x40 MLOAD SWAP1 DUP2 SWAP1 SUB DUP2 KECCAK256 SWAP1 PUSH32 0x39C9D1BC62FEDFF5608E7E91B88C9E3F6B7F4E9E9B184216521D36D88162FBA4 SWAP1 PUSH0 SWAP1 LOG2 JUMPDEST POP POP POP POP JUMP JUMPDEST PUSH1 0x60 PUSH1 0x3 DUP1 SLOAD DUP1 PUSH1 0x20 MUL PUSH1 0x20 ADD PUSH1 0x40 MLOAD SWAP1 DUP2 ADD PUSH1 0x40 MSTORE DUP1 SWAP3 SWAP2 SWAP1 DUP2 DUP2 MSTORE PUSH1 0x20 ADD PUSH0 SWAP1 JUMPDEST DUP3 DUP3 LT ISZERO PUSH2 0xC8B JUMPI PUSH0 DUP5 DUP2 MSTORE PUSH1 0x20 SWAP1 DUP2 SWAP1 KECCAK256 PUSH1 0x40 DUP1 MLOAD PUSH2 0x120 DUP2 ADD DUP3 MSTORE PUSH1 0x7 DUP7 MUL SWAP1 SWAP3 ADD DUP1 SLOAD DUP4 MSTORE PUSH1 0x1 DUP2 ADD SLOAD PUSH1 0x1 PUSH1 0x1 PUSH1 0xA0 SHL SUB DUP2 AND SWAP5 DUP5 ADD SWAP5 SWAP1 SWAP5 MSTORE SWAP2 SWAP3 SWAP1 DUP4 ADD SWAP1 PUSH1 0x1 PUSH1 0xA0 SHL SWAP1 DIV PUSH1 0xFF AND PUSH1 0xC DUP2 GT ISZERO PUSH2 0x1A9C JUMPI PUSH2 0x1A9C PUSH2 0x2941 JUMP JUMPDEST PUSH1 0xC DUP2 GT ISZERO PUSH2 0x1AAD JUMPI PUSH2 0x1AAD PUSH2 0x2941 JUMP JUMPDEST DUP2 MSTORE PUSH1 0x2 DUP3 ADD SLOAD PUSH1 0x20 DUP3 ADD MSTORE PUSH1 0x3 DUP3 ADD SLOAD PUSH1 0x40 DUP3 ADD MSTORE PUSH1 0x4 DUP3 ADD SLOAD PUSH1 0xFF DUP1 DUP3 AND ISZERO ISZERO PUSH1 0x60 DUP5 ADD MSTORE PUSH2 0x100 SWAP1 SWAP2 DIV AND ISZERO ISZERO PUSH1 0x80 DUP3 ADD MSTORE PUSH1 0x5 DUP3 ADD SLOAD PUSH1 0xA0 DUP3 ADD MSTORE PUSH1 0x6 DUP3 ADD DUP1 SLOAD PUSH1 0xC0 SWAP1 SWAP3 ADD SWAP2 PUSH2 0x1B01 SWAP1 PUSH2 0x3008 JUMP JUMPDEST DUP1 PUSH1 0x1F ADD PUSH1 0x20 DUP1 SWAP2 DIV MUL PUSH1 0x20 ADD PUSH1 0x40 MLOAD SWAP1 DUP2 ADD PUSH1 0x40 MSTORE DUP1 SWAP3 SWAP2 SWAP1 DUP2 DUP2 MSTORE PUSH1 0x20 ADD DUP3 DUP1 SLOAD PUSH2 0x1B2D SWAP1 PUSH2 0x3008 JUMP JUMPDEST DUP1 ISZERO PUSH2 0x1B78 JUMPI DUP1 PUSH1 0x1F LT PUSH2 0x1B4F JUMPI PUSH2 0x100 DUP1 DUP4 SLOAD DIV MUL DUP4 MSTORE SWAP2 PUSH1 0x20 ADD SWAP2 PUSH2 0x1B78 JUMP JUMPDEST DUP3 ADD SWAP2 SWAP1 PUSH0 MSTORE PUSH1 0x20 PUSH0 KECCAK256 SWAP1 JUMPDEST DUP2 SLOAD DUP2 MSTORE SWAP1 PUSH1 0x1 ADD SWAP1 PUSH1 0x20 ADD DUP1 DUP4 GT PUSH2 0x1B5B JUMPI DUP3 SWAP1 SUB PUSH1 0x1F AND DUP3 ADD SWAP2 JUMPDEST POP POP POP POP POP DUP2 MSTORE POP POP DUP2 MSTORE PUSH1 0x20 ADD SWAP1 PUSH1 0x1 ADD SWAP1 PUSH2 0x1A3D JUMP JUMPDEST PUSH2 0x1B98 PUSH2 0x239C JUMP JUMPDEST PUSH0 JUMPDEST DUP2 DUP2 LT ISZERO PUSH2 0x1C55 JUMPI ADDRESS PUSH4 0x3FAB3DD6 DUP5 DUP5 DUP5 DUP2 DUP2 LT PUSH2 0x1BBA JUMPI PUSH2 0x1BBA PUSH2 0x32A2 JUMP JUMPDEST SWAP1 POP PUSH1 0x20 MUL DUP2 ADD SWAP1 PUSH2 0x1BCC SWAP2 SWAP1 PUSH2 0x346E JUMP JUMPDEST PUSH2 0x1BD6 SWAP1 DUP1 PUSH2 0x3345 JUMP JUMPDEST DUP7 DUP7 DUP7 DUP2 DUP2 LT PUSH2 0x1BE8 JUMPI PUSH2 0x1BE8 PUSH2 0x32A2 JUMP JUMPDEST SWAP1 POP PUSH1 0x20 MUL DUP2 ADD SWAP1 PUSH2 0x1BFA SWAP2 SWAP1 PUSH2 0x346E JUMP JUMPDEST PUSH1 0x20 ADD CALLDATALOAD PUSH1 0x40 MLOAD DUP5 PUSH4 0xFFFFFFFF AND PUSH1 0xE0 SHL DUP2 MSTORE PUSH1 0x4 ADD PUSH2 0x1C1C SWAP4 SWAP3 SWAP2 SWAP1 PUSH2 0x3482 JUMP JUMPDEST PUSH0 PUSH1 0x40 MLOAD DUP1 DUP4 SUB DUP2 PUSH0 DUP8 DUP1 EXTCODESIZE ISZERO DUP1 ISZERO PUSH2 0x1C33 JUMPI PUSH0 PUSH0 REVERT JUMPDEST POP GAS CALL ISZERO DUP1 ISZERO PUSH2 0x1C45 JUMPI RETURNDATASIZE PUSH0 PUSH0 RETURNDATACOPY RETURNDATASIZE PUSH0 REVERT JUMPDEST POP POP PUSH1 0x1 SWAP1 SWAP3 ADD SWAP2 POP PUSH2 0x1B9A SWAP1 POP JUMP JUMPDEST POP POP POP JUMP JUMPDEST PUSH1 0x12 DUP1 SLOAD PUSH1 0x13 SLOAD PUSH1 0x14 SLOAD PUSH1 0x15 SLOAD PUSH1 0x16 SLOAD PUSH1 0x17 SLOAD PUSH1 0x18 DUP1 SLOAD SWAP7 SWAP8 PUSH1 0x1 PUSH1 0x1 PUSH1 0xA0 SHL SUB DUP8 AND SWAP8 PUSH1 0xFF PUSH1 0x1 PUSH1 0xA0 SHL SWAP1 SWAP9 DIV DUP9 AND SWAP8 DUP6 DUP2 AND SWAP6 PUSH2 0x100 SWAP1 DIV AND SWAP4 SWAP3 SWAP1 PUSH2 0x640 SWAP1 PUSH2 0x3008 JUMP JUMPDEST PUSH2 0x1CA9 PUSH2 0x239C JUMP JUMPDEST PUSH0 PUSH1 0xD DUP7 DUP7 PUSH1 0x40 MLOAD PUSH2 0x1CBC SWAP3 SWAP2 SWAP1 PUSH2 0x3293 JUMP JUMPDEST SWAP1 DUP2 MSTORE PUSH1 0x40 MLOAD SWAP1 DUP2 SWAP1 SUB PUSH1 0x20 ADD SWAP1 KECCAK256 SWAP1 POP DUP1 PUSH2 0x1CD9 DUP7 DUP9 DUP4 PUSH2 0x30CB JUMP JUMPDEST POP PUSH1 0x1 DUP2 ADD PUSH2 0x1CE9 DUP5 DUP7 DUP4 PUSH2 0x30CB JUMP JUMPDEST POP PUSH1 0x2 DUP2 ADD DUP3 SWAP1 SSTORE TIMESTAMP PUSH1 0x3 DUP3 ADD SSTORE PUSH1 0x40 MLOAD PUSH2 0x1D07 SWAP1 DUP8 SWAP1 DUP8 SWAP1 PUSH2 0x3293 JUMP JUMPDEST PUSH1 0x40 MLOAD DUP1 SWAP2 SUB SWAP1 KECCAK256 PUSH32 0x6980CC14623A9E2E782881DD8347E20EBD89E558191566E01E8CC11E9066F068 DUP6 DUP6 DUP6 TIMESTAMP PUSH1 0x40 MLOAD PUSH2 0x1D44 SWAP5 SWAP4 SWAP3 SWAP2 SWAP1 PUSH2 0x34A5 JUMP JUMPDEST PUSH1 0x40 MLOAD DUP1 SWAP2 SUB SWAP1 LOG2 POP POP POP POP POP POP JUMP JUMPDEST PUSH1 0x60 PUSH1 0xE DUP1 SLOAD DUP1 PUSH1 0x20 MUL PUSH1 0x20 ADD PUSH1 0x40 MLOAD SWAP1 DUP2 ADD PUSH1 0x40 MSTORE DUP1 SWAP3 SWAP2 SWAP1 DUP2 DUP2 MSTORE PUSH1 0x20 ADD PUSH0 SWAP1 JUMPDEST DUP3 DUP3 LT ISZERO PUSH2 0xC8B JUMPI DUP4 DUP3 SWAP1 PUSH0 MSTORE PUSH1 0x20 PUSH0 KECCAK256 SWAP1 PUSH1 0x5 MUL ADD PUSH1 0x40 MLOAD DUP1 PUSH1 0xA0 ADD PUSH1 0x40 MSTORE SWAP1 DUP2 PUSH0 DUP3 ADD DUP1 SLOAD PUSH2 0x1DA7 SWAP1 PUSH2 0x3008 JUMP JUMPDEST DUP1 PUSH1 0x1F ADD PUSH1 0x20 DUP1 SWAP2 DIV MUL PUSH1 0x20 ADD PUSH1 0x40 MLOAD SWAP1 DUP2 ADD PUSH1 0x40 MSTORE DUP1 SWAP3 SWAP2 SWAP1 DUP2 DUP2 MSTORE PUSH1 0x20 ADD DUP3 DUP1 SLOAD PUSH2 0x1DD3 SWAP1 PUSH2 0x3008 JUMP JUMPDEST DUP1 ISZERO PUSH2 0x1E1E JUMPI DUP1 PUSH1 0x1F LT PUSH2 0x1DF5 JUMPI PUSH2 0x100 DUP1 DUP4 SLOAD DIV MUL DUP4 MSTORE SWAP2 PUSH1 0x20 ADD SWAP2 PUSH2 0x1E1E JUMP JUMPDEST DUP3 ADD SWAP2 SWAP1 PUSH0 MSTORE PUSH1 0x20 PUSH0 KECCAK256 SWAP1 JUMPDEST DUP2 SLOAD DUP2 MSTORE SWAP1 PUSH1 0x1 ADD SWAP1 PUSH1 0x20 ADD DUP1 DUP4 GT PUSH2 0x1E01 JUMPI DUP3 SWAP1 SUB PUSH1 0x1F AND DUP3 ADD SWAP2 JUMPDEST POP POP POP SWAP2 DUP4 MSTORE POP POP PUSH1 0x1 DUP3 DUP2 ADD SLOAD PUSH1 0x1 PUSH1 0x1 PUSH1 0xA0 SHL SUB AND PUSH1 0x20 DUP1 DUP5 ADD SWAP2 SWAP1 SWAP2 MSTORE PUSH1 0x2 DUP5 ADD SLOAD PUSH1 0x40 DUP5 ADD MSTORE PUSH1 0x3 DUP5 ADD SLOAD PUSH1 0x60 DUP5 ADD MSTORE PUSH1 0x4 SWAP1 SWAP4 ADD SLOAD PUSH1 0x80 SWAP1 SWAP3 ADD SWAP2 SWAP1 SWAP2 MSTORE SWAP2 DUP4 MSTORE SWAP3 ADD SWAP2 ADD PUSH2 0x1D77 JUMP JUMPDEST PUSH2 0x1E75 PUSH2 0x239C JUMP JUMPDEST PUSH1 0x7 DUP6 PUSH1 0xC DUP2 GT ISZERO PUSH2 0x1E89 JUMPI PUSH2 0x1E89 PUSH2 0x2941 JUMP JUMPDEST EQ DUP1 PUSH2 0x1EA6 JUMPI POP PUSH1 0x8 DUP6 PUSH1 0xC DUP2 GT ISZERO PUSH2 0x1EA4 JUMPI PUSH2 0x1EA4 PUSH2 0x2941 JUMP JUMPDEST EQ JUMPDEST DUP1 PUSH2 0x1EC2 JUMPI POP PUSH1 0x9 DUP6 PUSH1 0xC DUP2 GT ISZERO PUSH2 0x1EC0 JUMPI PUSH2 0x1EC0 PUSH2 0x2941 JUMP JUMPDEST EQ JUMPDEST DUP1 PUSH2 0x1EDE JUMPI POP PUSH1 0xA DUP6 PUSH1 0xC DUP2 GT ISZERO PUSH2 0x1EDC JUMPI PUSH2 0x1EDC PUSH2 0x2941 JUMP JUMPDEST EQ JUMPDEST PUSH2 0x1F41 JUMPI PUSH1 0x40 MLOAD PUSH3 0x461BCD PUSH1 0xE5 SHL DUP2 MSTORE PUSH1 0x20 PUSH1 0x4 DUP3 ADD MSTORE PUSH1 0x2E PUSH1 0x24 DUP3 ADD MSTORE PUSH32 0x44617368626F6172643A20496E76616C696420636F6E646974696F6E20666F72 PUSH1 0x44 DUP3 ADD MSTORE PUSH14 0x818DA185B9B995B08185B195C9D PUSH1 0x92 SHL PUSH1 0x64 DUP3 ADD MSTORE PUSH1 0x84 ADD PUSH2 0x8B6 JUMP JUMPDEST DUP3 DUP5 SUB PUSH2 0x1FA4 JUMPI PUSH1 0x40 MLOAD PUSH3 0x461BCD PUSH1 0xE5 SHL DUP2 MSTORE PUSH1 0x20 PUSH1 0x4 DUP3 ADD MSTORE PUSH1 0x2B PUSH1 0x24 DUP3 ADD MSTORE PUSH32 0x44617368626F6172643A204368616E6E656C20626F756E6473206D7573742062 PUSH1 0x44 DUP3 ADD MSTORE PUSH11 0x1948191A5999995C995B9D PUSH1 0xAA SHL PUSH1 0x64 DUP3 ADD MSTORE PUSH1 0x84 ADD PUSH2 0x8B6 JUMP JUMPDEST PUSH1 0x12 SLOAD PUSH0 SUB PUSH2 0x1FC4 JUMPI PUSH1 0x19 DUP1 SLOAD SWAP1 PUSH0 PUSH2 0x1FBC DUP4 PUSH2 0x3054 JUMP JUMPDEST SWAP1 SWAP2 SSTORE POP PUSH1 0x12 SSTORE JUMPDEST PUSH1 0x19 DUP1 SLOAD PUSH0 SWAP2 DUP3 PUSH2 0x1FD4 DUP4 PUSH2 0x3054 JUMP JUMPDEST SWAP1 SWAP2 SSTORE POP PUSH1 0x13 DUP1 SLOAD PUSH1 0x1 PUSH1 0x1 PUSH1 0xA0 SHL SUB NOT DUP2 AND CALLER SWAP1 DUP2 OR DUP4 SSTORE SWAP3 SWAP4 POP PUSH0 SWAP3 DUP4 SWAP3 DUP11 SWAP3 SWAP1 SWAP2 PUSH1 0xFF PUSH1 0xA0 SHL NOT AND PUSH1 0x1 PUSH1 0x1 PUSH1 0xA8 SHL SUB NOT SWAP1 SWAP2 AND OR PUSH1 0x1 PUSH1 0xA0 SHL DUP4 PUSH1 0xC DUP2 GT ISZERO PUSH2 0x2023 JUMPI PUSH2 0x2023 PUSH2 0x2941 JUMP JUMPDEST MUL OR SWAP1 SSTORE POP DUP6 DUP8 SLT ISZERO PUSH2 0x203F JUMPI PUSH1 0x14 DUP8 SWAP1 SSTORE PUSH1 0x15 DUP7 SWAP1 SSTORE PUSH2 0x204A JUMP JUMPDEST PUSH1 0x14 DUP7 SWAP1 SSTORE PUSH1 0x15 DUP8 SWAP1 SSTORE JUMPDEST PUSH1 0x18 PUSH2 0x2057 DUP6 DUP8 DUP4 PUSH2 0x30CB JUMP JUMPDEST POP PUSH1 0x16 DUP1 SLOAD PUSH2 0xFFFF NOT AND PUSH1 0x1 OR SWAP1 SSTORE PUSH0 PUSH1 0x17 DUP2 SWAP1 SSTORE PUSH1 0x40 DUP1 MLOAD PUSH2 0x120 DUP2 ADD DUP3 MSTORE DUP6 DUP2 MSTORE CALLER PUSH1 0x20 DUP3 ADD MSTORE SWAP1 DUP2 ADD DUP11 PUSH1 0xC DUP2 GT ISZERO PUSH2 0x2095 JUMPI PUSH2 0x2095 PUSH2 0x2941 JUMP JUMPDEST DUP2 MSTORE PUSH1 0x20 ADD DUP5 DUP2 MSTORE PUSH1 0x20 ADD DUP4 DUP2 MSTORE PUSH1 0x20 ADD PUSH1 0x1 ISZERO ISZERO DUP2 MSTORE PUSH1 0x20 ADD PUSH0 ISZERO ISZERO DUP2 MSTORE PUSH1 0x20 ADD PUSH0 DUP2 MSTORE PUSH1 0x20 ADD DUP8 DUP8 DUP1 DUP1 PUSH1 0x1F ADD PUSH1 0x20 DUP1 SWAP2 DIV MUL PUSH1 0x20 ADD PUSH1 0x40 MLOAD SWAP1 DUP2 ADD PUSH1 0x40 MSTORE DUP1 SWAP4 SWAP3 SWAP2 SWAP1 DUP2 DUP2 MSTORE PUSH1 0x20 ADD DUP4 DUP4 DUP1 DUP3 DUP5 CALLDATACOPY PUSH0 SWAP3 ADD DUP3 SWAP1 MSTORE POP SWAP4 SWAP1 SWAP5 MSTORE POP POP PUSH1 0x3 DUP1 SLOAD PUSH1 0x1 DUP2 ADD DUP3 SSTORE SWAP2 MSTORE DUP3 MLOAD PUSH1 0x7 SWAP1 SWAP2 MUL PUSH32 0xC2575A0E9E593C00F959F8C92F12DB2869C3395A3B0502D05E2516446F71F85B DUP2 ADD SWAP2 DUP3 SSTORE PUSH1 0x20 DUP5 ADD MLOAD PUSH32 0xC2575A0E9E593C00F959F8C92F12DB2869C3395A3B0502D05E2516446F71F85C SWAP1 SWAP2 ADD DUP1 SLOAD PUSH1 0x1 PUSH1 0x1 PUSH1 0xA0 SHL SUB SWAP1 SWAP3 AND PUSH1 0x1 PUSH1 0x1 PUSH1 0xA0 SHL SUB NOT DUP4 AND DUP2 OR DUP3 SSTORE PUSH1 0x40 DUP7 ADD MLOAD SWAP6 SWAP7 POP DUP7 SWAP6 SWAP4 SWAP5 POP SWAP1 SWAP2 PUSH1 0x1 PUSH1 0x1 PUSH1 0xA8 SHL SUB NOT AND OR PUSH1 0x1 PUSH1 0xA0 SHL DUP4 PUSH1 0xC DUP2 GT ISZERO PUSH2 0x21A3 JUMPI PUSH2 0x21A3 PUSH2 0x2941 JUMP JUMPDEST MUL OR SWAP1 SSTORE POP PUSH1 0x60 DUP3 ADD MLOAD PUSH1 0x2 DUP3 ADD SSTORE PUSH1 0x80 DUP3 ADD MLOAD PUSH1 0x3 DUP3 ADD SSTORE PUSH1 0xA0 DUP3 ADD MLOAD PUSH1 0x4 DUP3 ADD DUP1 SLOAD PUSH1 0xC0 DUP6 ADD MLOAD PUSH2 0xFFFF NOT SWAP1 SWAP2 AND SWAP3 ISZERO ISZERO PUSH2 0xFF00 NOT AND SWAP3 SWAP1 SWAP3 OR PUSH2 0x100 SWAP3 ISZERO ISZERO DUP4 MUL OR SWAP1 SSTORE PUSH1 0xE0 DUP4 ADD MLOAD PUSH1 0x5 DUP4 ADD SSTORE DUP3 ADD MLOAD PUSH1 0x6 DUP3 ADD SWAP1 PUSH2 0x2206 SWAP1 DUP3 PUSH2 0x317F JUMP JUMPDEST POP POP PUSH1 0x12 SLOAD PUSH1 0x14 SLOAD PUSH1 0x15 SLOAD PUSH1 0x40 MLOAD CALLER SWAP5 POP PUSH32 0x778334AF3114ADE8967680FBF1E80E8E34DBE95416246AAEF26907AE22CDD358 SWAP3 PUSH2 0x2248 SWAP3 DUP16 SWAP3 DUP14 SWAP1 DUP14 SWAP1 PUSH2 0x325C JUMP JUMPDEST PUSH1 0x40 MLOAD DUP1 SWAP2 SUB SWAP1 LOG3 POP POP POP POP POP POP POP POP POP JUMP JUMPDEST PUSH2 0x2263 PUSH2 0x239C JUMP JUMPDEST PUSH1 0x1 PUSH1 0x1 PUSH1 0xA0 SHL SUB DUP2 AND PUSH2 0x228C JUMPI PUSH1 0x40 MLOAD PUSH4 0x1E4FBDF7 PUSH1 0xE0 SHL DUP2 MSTORE PUSH0 PUSH1 0x4 DUP3 ADD MSTORE PUSH1 0x24 ADD PUSH2 0x8B6 JUMP JUMPDEST PUSH2 0x1863 DUP2 PUSH2 0x23C8 JUMP JUMPDEST PUSH2 0x22B7 PUSH1 0x40 MLOAD DUP1 PUSH1 0x60 ADD PUSH1 0x40 MSTORE DUP1 PUSH1 0x60 DUP2 MSTORE PUSH1 0x20 ADD PUSH0 DUP2 MSTORE PUSH1 0x20 ADD PUSH0 DUP2 MSTORE POP SWAP1 JUMP JUMPDEST PUSH1 0xB DUP4 DUP4 PUSH1 0x40 MLOAD PUSH2 0x22C9 SWAP3 SWAP2 SWAP1 PUSH2 0x3293 JUMP JUMPDEST SWAP1 DUP2 MSTORE PUSH1 0x20 ADD PUSH1 0x40 MLOAD DUP1 SWAP2 SUB SWAP1 KECCAK256 PUSH1 0x40 MLOAD DUP1 PUSH1 0x60 ADD PUSH1 0x40 MSTORE SWAP1 DUP2 PUSH0 DUP3 ADD DUP1 SLOAD PUSH2 0x22F1 SWAP1 PUSH2 0x3008 JUMP JUMPDEST DUP1 PUSH1 0x1F ADD PUSH1 0x20 DUP1 SWAP2 DIV MUL PUSH1 0x20 ADD PUSH1 0x40 MLOAD SWAP1 DUP2 ADD PUSH1 0x40 MSTORE DUP1 SWAP3 SWAP2 SWAP1 DUP2 DUP2 MSTORE PUSH1 0x20 ADD DUP3 DUP1 SLOAD PUSH2 0x231D SWAP1 PUSH2 0x3008 JUMP JUMPDEST DUP1 ISZERO PUSH2 0x2368 JUMPI DUP1 PUSH1 0x1F LT PUSH2 0x233F JUMPI PUSH2 0x100 DUP1 DUP4 SLOAD DIV MUL DUP4 MSTORE SWAP2 PUSH1 0x20 ADD SWAP2 PUSH2 0x2368 JUMP JUMPDEST DUP3 ADD SWAP2 SWAP1 PUSH0 MSTORE PUSH1 0x20 PUSH0 KECCAK256 SWAP1 JUMPDEST DUP2 SLOAD DUP2 MSTORE SWAP1 PUSH1 0x1 ADD SWAP1 PUSH1 0x20 ADD DUP1 DUP4 GT PUSH2 0x234B JUMPI DUP3 SWAP1 SUB PUSH1 0x1F AND DUP3 ADD SWAP2 JUMPDEST POP POP POP POP POP DUP2 MSTORE PUSH1 0x20 ADD PUSH1 0x1 DUP3 ADD SLOAD DUP2 MSTORE PUSH1 0x20 ADD PUSH1 0x2 DUP3 ADD SLOAD DUP2 MSTORE POP POP SWAP1 POP SWAP3 SWAP2 POP POP JUMP JUMPDEST PUSH1 0xF DUP2 DUP2 SLOAD DUP2 LT PUSH2 0xCA3 JUMPI PUSH0 DUP1 REVERT JUMPDEST PUSH0 SLOAD PUSH1 0x1 PUSH1 0x1 PUSH1 0xA0 SHL SUB AND CALLER EQ PUSH2 0xBBE JUMPI PUSH1 0x40 MLOAD PUSH4 0x118CDAA7 PUSH1 0xE0 SHL DUP2 MSTORE CALLER PUSH1 0x4 DUP3 ADD MSTORE PUSH1 0x24 ADD PUSH2 0x8B6 JUMP JUMPDEST PUSH0 DUP1 SLOAD PUSH1 0x1 PUSH1 0x1 PUSH1 0xA0 SHL SUB DUP4 DUP2 AND PUSH1 0x1 PUSH1 0x1 PUSH1 0xA0 SHL SUB NOT DUP4 AND DUP2 OR DUP5 SSTORE PUSH1 0x40 MLOAD SWAP2 SWAP1 SWAP3 AND SWAP3 DUP4 SWAP2 PUSH32 0x8BE0079C531659141344CD1FD0A4F28419497F9722A3DAAFE3B4186F6B6457E0 SWAP2 SWAP1 LOG3 POP POP JUMP JUMPDEST PUSH1 0x16 SLOAD PUSH1 0xFF AND ISZERO DUP1 PUSH2 0x2430 JUMPI POP PUSH1 0x16 SLOAD PUSH2 0x100 SWAP1 DIV PUSH1 0xFF AND JUMPDEST DUP1 PUSH2 0x243B JUMPI POP PUSH1 0x12 SLOAD ISZERO JUMPDEST ISZERO PUSH2 0x2445 JUMPI POP POP POP JUMP JUMPDEST PUSH1 0x13 SLOAD PUSH1 0x14 SLOAD PUSH1 0x15 SLOAD PUSH0 SWAP3 PUSH1 0x1 PUSH1 0xA0 SHL SWAP1 DIV PUSH1 0xFF AND SWAP2 SWAP1 DUP2 SWAP1 PUSH1 0x1 DUP5 PUSH1 0xC DUP2 GT ISZERO PUSH2 0x2472 JUMPI PUSH2 0x2472 PUSH2 0x2941 JUMP JUMPDEST SUB PUSH2 0x2489 JUMPI DUP3 DUP9 SGT ISZERO PUSH2 0x2484 JUMPI PUSH1 0x1 SWAP5 POP JUMPDEST PUSH2 0x26F4 JUMP JUMPDEST PUSH1 0x2 DUP5 PUSH1 0xC DUP2 GT ISZERO PUSH2 0x249D JUMPI PUSH2 0x249D PUSH2 0x2941 JUMP JUMPDEST SUB PUSH2 0x24B3 JUMPI DUP3 DUP9 SLT ISZERO PUSH2 0x2484 JUMPI PUSH1 0x1 SWAP5 POP PUSH2 0x26F4 JUMP JUMPDEST PUSH1 0x3 DUP5 PUSH1 0xC DUP2 GT ISZERO PUSH2 0x24C7 JUMPI PUSH2 0x24C7 PUSH2 0x2941 JUMP JUMPDEST SUB PUSH2 0x24DC JUMPI DUP3 DUP9 SUB PUSH2 0x2484 JUMPI PUSH1 0x1 SWAP5 POP PUSH2 0x26F4 JUMP JUMPDEST DUP6 ISZERO PUSH2 0x26F4 JUMPI PUSH1 0x4 DUP5 PUSH1 0xC DUP2 GT ISZERO PUSH2 0x24F6 JUMPI PUSH2 0x24F6 PUSH2 0x2941 JUMP JUMPDEST SUB PUSH2 0x252D JUMPI DUP3 DUP8 SLT DUP1 ISZERO PUSH2 0x250A JUMPI POP DUP3 DUP9 SLT ISZERO JUMPDEST DUP1 PUSH2 0x251F JUMPI POP DUP3 DUP8 SGT DUP1 ISZERO PUSH2 0x251F JUMPI POP DUP3 DUP9 SGT ISZERO JUMPDEST ISZERO PUSH2 0x2484 JUMPI PUSH1 0x1 SWAP5 POP PUSH2 0x26F4 JUMP JUMPDEST PUSH1 0x5 DUP5 PUSH1 0xC DUP2 GT ISZERO PUSH2 0x2541 JUMPI PUSH2 0x2541 PUSH2 0x2941 JUMP JUMPDEST SUB PUSH2 0x2560 JUMPI DUP3 DUP8 SLT DUP1 ISZERO PUSH2 0x251F JUMPI POP DUP3 DUP9 SLT PUSH2 0x2484 JUMPI PUSH1 0x1 SWAP5 POP PUSH2 0x26F4 JUMP JUMPDEST PUSH1 0x6 DUP5 PUSH1 0xC DUP2 GT ISZERO PUSH2 0x2574 JUMPI PUSH2 0x2574 PUSH2 0x2941 JUMP JUMPDEST SUB PUSH2 0x2593 JUMPI DUP3 DUP8 SGT DUP1 ISZERO PUSH2 0x251F JUMPI POP DUP3 DUP9 SGT PUSH2 0x2484 JUMPI PUSH1 0x1 SWAP5 POP PUSH2 0x26F4 JUMP JUMPDEST PUSH1 0x7 DUP5 PUSH1 0xC DUP2 GT ISZERO PUSH2 0x25A7 JUMPI PUSH2 0x25A7 PUSH2 0x2941 JUMP JUMPDEST SUB PUSH2 0x25EA JUMPI PUSH0 DUP3 DUP9 SLT DUP1 PUSH2 0x25BA JUMPI POP DUP2 DUP9 SGT JUMPDEST SWAP1 POP PUSH0 DUP4 DUP11 SLT ISZERO DUP1 ISZERO PUSH2 0x25CD JUMPI POP DUP3 DUP11 SGT ISZERO JUMPDEST SWAP1 POP DUP2 DUP1 ISZERO PUSH2 0x25D9 JUMPI POP DUP1 JUMPDEST ISZERO PUSH2 0x25E3 JUMPI PUSH1 0x1 SWAP7 POP JUMPDEST POP POP PUSH2 0x26F4 JUMP JUMPDEST PUSH1 0x8 DUP5 PUSH1 0xC DUP2 GT ISZERO PUSH2 0x25FE JUMPI PUSH2 0x25FE PUSH2 0x2941 JUMP JUMPDEST SUB PUSH2 0x263D JUMPI PUSH0 DUP3 DUP9 SLT ISZERO DUP1 ISZERO PUSH2 0x2614 JUMPI POP DUP2 DUP9 SGT ISZERO JUMPDEST SWAP1 POP PUSH0 DUP4 DUP11 SLT DUP1 PUSH2 0x25CD JUMPI POP POP DUP2 DUP10 SGT DUP2 DUP1 ISZERO PUSH2 0x25D9 JUMPI POP DUP1 ISZERO PUSH2 0x25E3 JUMPI PUSH1 0x1 SWAP7 POP POP POP PUSH2 0x26F4 JUMP JUMPDEST PUSH1 0x9 DUP5 PUSH1 0xC DUP2 GT ISZERO PUSH2 0x2651 JUMPI PUSH2 0x2651 PUSH2 0x2941 JUMP JUMPDEST SUB PUSH2 0x2671 JUMPI DUP2 DUP9 SLT ISZERO DUP1 ISZERO PUSH2 0x251F JUMPI POP DUP1 DUP9 SGT PUSH2 0x2484 JUMPI PUSH1 0x1 SWAP5 POP PUSH2 0x26F4 JUMP JUMPDEST PUSH1 0xA DUP5 PUSH1 0xC DUP2 GT ISZERO PUSH2 0x2685 JUMPI PUSH2 0x2685 PUSH2 0x2941 JUMP JUMPDEST SUB PUSH2 0x26A4 JUMPI DUP2 DUP9 SLT DUP1 PUSH2 0x251F JUMPI POP DUP1 DUP9 SGT ISZERO PUSH2 0x2484 JUMPI PUSH1 0x1 SWAP5 POP PUSH2 0x26F4 JUMP JUMPDEST PUSH1 0xB DUP5 PUSH1 0xC DUP2 GT ISZERO PUSH2 0x26B8 JUMPI PUSH2 0x26B8 PUSH2 0x2941 JUMP JUMPDEST SUB PUSH2 0x26CE JUMPI DUP7 DUP9 SGT ISZERO PUSH2 0x2484 JUMPI PUSH1 0x1 SWAP5 POP PUSH2 0x26F4 JUMP JUMPDEST PUSH1 0xC DUP5 PUSH1 0xC DUP2 GT ISZERO PUSH2 0x26E2 JUMPI PUSH2 0x26E2 PUSH2 0x2941 JUMP JUMPDEST SUB PUSH2 0x26F4 JUMPI DUP7 DUP9 SLT ISZERO PUSH2 0x26F4 JUMPI PUSH1 0x1 SWAP5 POP JUMPDEST DUP5 ISZERO PUSH2 0x275B JUMPI PUSH1 0x16 DUP1 SLOAD PUSH2 0xFF00 NOT AND PUSH2 0x100 OR SWAP1 SSTORE TIMESTAMP PUSH1 0x17 SSTORE PUSH1 0x13 SLOAD PUSH1 0x12 SLOAD PUSH1 0x40 MLOAD PUSH1 0x1 PUSH1 0x1 PUSH1 0xA0 SHL SUB SWAP1 SWAP3 AND SWAP2 PUSH32 0x601CDB1CD0F27FC0F4BAD78847FBD1402A286180590E1019934014E93E922A0F SWAP1 PUSH2 0x2752 SWAP1 DUP13 SWAP1 PUSH1 0x18 SWAP1 PUSH2 0x34CB JUMP JUMPDEST PUSH1 0x40 MLOAD DUP1 SWAP2 SUB SWAP1 LOG3 JUMPDEST POP POP POP POP POP POP POP POP JUMP JUMPDEST POP DUP1 SLOAD PUSH0 DUP3 SSTORE PUSH1 0x5 MUL SWAP1 PUSH0 MSTORE PUSH1 0x20 PUSH0 KECCAK256 SWAP1 DUP2 ADD SWAP1 PUSH2 0x1863 SWAP2 SWAP1 PUSH2 0x27BA JUMP JUMPDEST POP DUP1 SLOAD PUSH2 0x278F SWAP1 PUSH2 0x3008 JUMP JUMPDEST PUSH0 DUP3 SSTORE DUP1 PUSH1 0x1F LT PUSH2 0x279E JUMPI POP POP JUMP JUMPDEST PUSH1 0x1F ADD PUSH1 0x20 SWAP1 DIV SWAP1 PUSH0 MSTORE PUSH1 0x20 PUSH0 KECCAK256 SWAP1 DUP2 ADD SWAP1 PUSH2 0x1863 SWAP2 SWAP1 PUSH2 0x2800 JUMP JUMPDEST DUP1 DUP3 GT ISZERO PUSH2 0x27FC JUMPI PUSH0 PUSH2 0x27CD DUP3 DUP3 PUSH2 0x2783 JUMP JUMPDEST POP PUSH1 0x1 DUP2 ADD DUP1 SLOAD PUSH1 0x1 PUSH1 0x1 PUSH1 0xA0 SHL SUB NOT AND SWAP1 SSTORE PUSH0 PUSH1 0x2 DUP3 ADD DUP2 SWAP1 SSTORE PUSH1 0x3 DUP3 ADD DUP2 SWAP1 SSTORE PUSH1 0x4 DUP3 ADD SSTORE PUSH1 0x5 ADD PUSH2 0x27BA JUMP JUMPDEST POP SWAP1 JUMP JUMPDEST JUMPDEST DUP1 DUP3 GT ISZERO PUSH2 0x27FC JUMPI PUSH0 DUP2 SSTORE PUSH1 0x1 ADD PUSH2 0x2801 JUMP JUMPDEST PUSH4 0x4E487B71 PUSH1 0xE0 SHL PUSH0 MSTORE PUSH1 0x41 PUSH1 0x4 MSTORE PUSH1 0x24 PUSH0 REVERT JUMPDEST PUSH0 PUSH1 0x20 DUP3 DUP5 SUB SLT ISZERO PUSH2 0x2838 JUMPI PUSH0 PUSH0 REVERT JUMPDEST DUP2 CALLDATALOAD PUSH1 0x1 PUSH1 0x1 PUSH1 0x40 SHL SUB DUP2 GT ISZERO PUSH2 0x284D JUMPI PUSH0 PUSH0 REVERT JUMPDEST DUP3 ADD PUSH1 0x1F DUP2 ADD DUP5 SGT PUSH2 0x285D JUMPI PUSH0 PUSH0 REVERT JUMPDEST DUP1 CALLDATALOAD PUSH1 0x1 PUSH1 0x1 PUSH1 0x40 SHL SUB DUP2 GT ISZERO PUSH2 0x2876 JUMPI PUSH2 0x2876 PUSH2 0x2814 JUMP JUMPDEST PUSH1 0x40 MLOAD PUSH1 0x1F DUP3 ADD PUSH1 0x1F NOT SWAP1 DUP2 AND PUSH1 0x3F ADD AND DUP2 ADD PUSH1 0x1 PUSH1 0x1 PUSH1 0x40 SHL SUB DUP2 GT DUP3 DUP3 LT OR ISZERO PUSH2 0x28A4 JUMPI PUSH2 0x28A4 PUSH2 0x2814 JUMP JUMPDEST PUSH1 0x40 MSTORE DUP2 DUP2 MSTORE DUP3 DUP3 ADD PUSH1 0x20 ADD DUP7 LT ISZERO PUSH2 0x28BB JUMPI PUSH0 PUSH0 REVERT JUMPDEST DUP2 PUSH1 0x20 DUP5 ADD PUSH1 0x20 DUP4 ADD CALLDATACOPY PUSH0 SWAP2 DUP2 ADD PUSH1 0x20 ADD SWAP2 SWAP1 SWAP2 MSTORE SWAP5 SWAP4 POP POP POP POP JUMP JUMPDEST PUSH0 DUP2 MLOAD DUP1 DUP5 MSTORE DUP1 PUSH1 0x20 DUP5 ADD PUSH1 0x20 DUP7 ADD MCOPY PUSH0 PUSH1 0x20 DUP3 DUP7 ADD ADD MSTORE PUSH1 0x20 PUSH1 0x1F NOT PUSH1 0x1F DUP4 ADD AND DUP6 ADD ADD SWAP2 POP POP SWAP3 SWAP2 POP POP JUMP JUMPDEST PUSH1 0x60 DUP2 MSTORE PUSH0 PUSH2 0x2918 PUSH1 0x60 DUP4 ADD DUP7 PUSH2 0x28D8 JUMP JUMPDEST PUSH1 0x20 DUP4 ADD SWAP5 SWAP1 SWAP5 MSTORE POP PUSH1 0x40 ADD MSTORE SWAP2 SWAP1 POP JUMP JUMPDEST PUSH0 PUSH1 0x20 DUP3 DUP5 SUB SLT ISZERO PUSH2 0x293A JUMPI PUSH0 PUSH0 REVERT JUMPDEST POP CALLDATALOAD SWAP2 SWAP1 POP JUMP JUMPDEST PUSH4 0x4E487B71 PUSH1 0xE0 SHL PUSH0 MSTORE PUSH1 0x21 PUSH1 0x4 MSTORE PUSH1 0x24 PUSH0 REVERT JUMPDEST PUSH1 0xD DUP2 LT PUSH2 0x2971 JUMPI PUSH4 0x4E487B71 PUSH1 0xE0 SHL PUSH0 MSTORE PUSH1 0x21 PUSH1 0x4 MSTORE PUSH1 0x24 PUSH0 REVERT JUMPDEST SWAP1 MSTORE JUMP JUMPDEST DUP10 DUP2 MSTORE PUSH1 0x1 PUSH1 0x1 PUSH1 0xA0 SHL SUB DUP10 AND PUSH1 0x20 DUP3 ADD MSTORE PUSH2 0x2994 PUSH1 0x40 DUP3 ADD DUP10 PUSH2 0x2955 JUMP JUMPDEST DUP7 PUSH1 0x60 DUP3 ADD MSTORE DUP6 PUSH1 0x80 DUP3 ADD MSTORE DUP5 ISZERO ISZERO PUSH1 0xA0 DUP3 ADD MSTORE DUP4 ISZERO ISZERO PUSH1 0xC0 DUP3 ADD MSTORE DUP3 PUSH1 0xE0 DUP3 ADD MSTORE PUSH2 0x120 PUSH2 0x100 DUP3 ADD MSTORE PUSH0 PUSH2 0x29CE PUSH2 0x120 DUP4 ADD DUP5 PUSH2 0x28D8 JUMP JUMPDEST SWAP12 SWAP11 POP POP POP POP POP POP POP POP POP POP POP JUMP JUMPDEST PUSH1 0x20 DUP2 MSTORE PUSH0 PUSH2 0x29EF PUSH1 0x20 DUP4 ADD DUP5 PUSH2 0x28D8 JUMP JUMPDEST SWAP4 SWAP3 POP POP POP JUMP JUMPDEST DUP1 CALLDATALOAD PUSH1 0xD DUP2 LT PUSH2 0x2A04 JUMPI PUSH0 PUSH0 REVERT JUMPDEST SWAP2 SWAP1 POP JUMP JUMPDEST PUSH0 PUSH0 DUP4 PUSH1 0x1F DUP5 ADD SLT PUSH2 0x2A19 JUMPI PUSH0 PUSH0 REVERT JUMPDEST POP DUP2 CALLDATALOAD PUSH1 0x1 PUSH1 0x1 PUSH1 0x40 SHL SUB DUP2 GT ISZERO PUSH2 0x2A2F JUMPI PUSH0 PUSH0 REVERT JUMPDEST PUSH1 0x20 DUP4 ADD SWAP2 POP DUP4 PUSH1 0x20 DUP3 DUP6 ADD ADD GT ISZERO PUSH2 0x2A46 JUMPI PUSH0 PUSH0 REVERT JUMPDEST SWAP3 POP SWAP3 SWAP1 POP JUMP JUMPDEST PUSH0 PUSH0 PUSH0 PUSH0 PUSH1 0x60 DUP6 DUP8 SUB SLT ISZERO PUSH2 0x2A60 JUMPI PUSH0 PUSH0 REVERT JUMPDEST PUSH2 0x2A69 DUP6 PUSH2 0x29F6 JUMP JUMPDEST SWAP4 POP PUSH1 0x20 DUP6 ADD CALLDATALOAD SWAP3 POP PUSH1 0x40 DUP6 ADD CALLDATALOAD PUSH1 0x1 PUSH1 0x1 PUSH1 0x40 SHL SUB DUP2 GT ISZERO PUSH2 0x2A8A JUMPI PUSH0 PUSH0 REVERT JUMPDEST PUSH2 0x2A96 DUP8 DUP3 DUP9 ADD PUSH2 0x2A09 JUMP JUMPDEST SWAP6 SWAP9 SWAP5 SWAP8 POP SWAP6 POP POP POP POP JUMP JUMPDEST PUSH0 PUSH1 0x20 DUP3 ADD PUSH1 0x20 DUP4 MSTORE DUP1 DUP5 MLOAD DUP1 DUP4 MSTORE PUSH1 0x40 DUP6 ADD SWAP2 POP PUSH1 0x40 DUP2 PUSH1 0x5 SHL DUP7 ADD ADD SWAP3 POP PUSH1 0x20 DUP7 ADD PUSH0 JUMPDEST DUP3 DUP2 LT ISZERO PUSH2 0x2AF9 JUMPI PUSH1 0x3F NOT DUP8 DUP7 SUB ADD DUP5 MSTORE PUSH2 0x2AE4 DUP6 DUP4 MLOAD PUSH2 0x28D8 JUMP JUMPDEST SWAP5 POP PUSH1 0x20 SWAP4 DUP5 ADD SWAP4 SWAP2 SWAP1 SWAP2 ADD SWAP1 PUSH1 0x1 ADD PUSH2 0x2AC8 JUMP JUMPDEST POP SWAP3 SWAP7 SWAP6 POP POP POP POP POP POP JUMP JUMPDEST PUSH1 0xA0 DUP2 MSTORE PUSH0 PUSH2 0x2B17 PUSH1 0xA0 DUP4 ADD DUP9 PUSH2 0x28D8 JUMP JUMPDEST PUSH1 0x1 PUSH1 0x1 PUSH1 0xA0 SHL SUB SWAP7 SWAP1 SWAP7 AND PUSH1 0x20 DUP4 ADD MSTORE POP PUSH1 0x40 DUP2 ADD SWAP4 SWAP1 SWAP4 MSTORE PUSH1 0x60 DUP4 ADD SWAP2 SWAP1 SWAP2 MSTORE PUSH1 0x80 SWAP1 SWAP2 ADD MSTORE SWAP2 SWAP1 POP JUMP JUMPDEST PUSH0 PUSH0 PUSH0 PUSH0 PUSH1 0x80 DUP6 DUP8 SUB SLT ISZERO PUSH2 0x2B57 JUMPI PUSH0 PUSH0 REVERT JUMPDEST POP POP DUP3 CALLDATALOAD SWAP5 PUSH1 0x20 DUP5 ADD CALLDATALOAD SWAP5 POP PUSH1 0x40 DUP5 ADD CALLDATALOAD SWAP4 PUSH1 0x60 ADD CALLDATALOAD SWAP3 POP SWAP1 POP JUMP JUMPDEST PUSH0 PUSH0 PUSH0 PUSH1 0x40 DUP5 DUP7 SUB SLT ISZERO PUSH2 0x2B85 JUMPI PUSH0 PUSH0 REVERT JUMPDEST DUP4 CALLDATALOAD PUSH1 0x1 PUSH1 0x1 PUSH1 0x40 SHL SUB DUP2 GT ISZERO PUSH2 0x2B9A JUMPI PUSH0 PUSH0 REVERT JUMPDEST PUSH2 0x2BA6 DUP7 DUP3 DUP8 ADD PUSH2 0x2A09 JUMP JUMPDEST SWAP1 SWAP8 SWAP1 SWAP7 POP PUSH1 0x20 SWAP6 SWAP1 SWAP6 ADD CALLDATALOAD SWAP5 SWAP4 POP POP POP POP JUMP JUMPDEST PUSH1 0x80 DUP2 MSTORE PUSH0 PUSH2 0x2BCC PUSH1 0x80 DUP4 ADD DUP8 PUSH2 0x28D8 JUMP JUMPDEST DUP3 DUP2 SUB PUSH1 0x20 DUP5 ADD MSTORE PUSH2 0x2BDE DUP2 DUP8 PUSH2 0x28D8 JUMP JUMPDEST PUSH1 0x40 DUP5 ADD SWAP6 SWAP1 SWAP6 MSTORE POP POP PUSH1 0x60 ADD MSTORE SWAP3 SWAP2 POP POP JUMP JUMPDEST PUSH0 PUSH1 0x20 DUP3 ADD PUSH1 0x20 DUP4 MSTORE DUP1 DUP5 MLOAD DUP1 DUP4 MSTORE PUSH1 0x40 DUP6 ADD SWAP2 POP PUSH1 0x40 DUP2 PUSH1 0x5 SHL DUP7 ADD ADD SWAP3 POP PUSH1 0x20 DUP7 ADD PUSH0 JUMPDEST DUP3 DUP2 LT ISZERO PUSH2 0x2AF9 JUMPI PUSH1 0x3F NOT DUP8 DUP7 SUB ADD DUP5 MSTORE DUP2 MLOAD DUP1 MLOAD PUSH1 0xA0 DUP8 MSTORE PUSH2 0x2C3E PUSH1 0xA0 DUP9 ADD DUP3 PUSH2 0x28D8 JUMP JUMPDEST PUSH1 0x20 DUP4 DUP2 ADD MLOAD PUSH1 0x1 PUSH1 0x1 PUSH1 0xA0 SHL SUB AND DUP10 DUP3 ADD MSTORE PUSH1 0x40 DUP1 DUP6 ADD MLOAD SWAP1 DUP11 ADD MSTORE PUSH1 0x60 DUP1 DUP6 ADD MLOAD SWAP1 DUP11 ADD MSTORE PUSH1 0x80 SWAP4 DUP5 ADD MLOAD SWAP4 SWAP1 SWAP9 ADD SWAP3 SWAP1 SWAP3 MSTORE POP SWAP5 SWAP4 DUP5 ADD SWAP4 SWAP2 SWAP1 SWAP2 ADD SWAP1 PUSH1 0x1 ADD PUSH2 0x2C18 JUMP JUMPDEST PUSH0 PUSH0 PUSH1 0x20 DUP4 DUP6 SUB SLT ISZERO PUSH2 0x2C97 JUMPI PUSH0 PUSH0 REVERT JUMPDEST DUP3 CALLDATALOAD PUSH1 0x1 PUSH1 0x1 PUSH1 0x40 SHL SUB DUP2 GT ISZERO PUSH2 0x2CAC JUMPI PUSH0 PUSH0 REVERT JUMPDEST PUSH2 0x2CB8 DUP6 DUP3 DUP7 ADD PUSH2 0x2A09 JUMP JUMPDEST SWAP1 SWAP7 SWAP1 SWAP6 POP SWAP4 POP POP POP POP JUMP JUMPDEST PUSH1 0x20 DUP2 MSTORE PUSH0 DUP3 MLOAD PUSH1 0x80 PUSH1 0x20 DUP5 ADD MSTORE PUSH2 0x2CDF PUSH1 0xA0 DUP5 ADD DUP3 PUSH2 0x28D8 JUMP JUMPDEST SWAP1 POP PUSH1 0x20 DUP5 ADD MLOAD PUSH1 0x1F NOT DUP5 DUP4 SUB ADD PUSH1 0x40 DUP6 ADD MSTORE PUSH2 0x2CFC DUP3 DUP3 PUSH2 0x28D8 JUMP JUMPDEST SWAP2 POP POP PUSH1 0x40 DUP5 ADD MLOAD PUSH1 0x60 DUP5 ADD MSTORE PUSH1 0x60 DUP5 ADD MLOAD PUSH1 0x80 DUP5 ADD MSTORE DUP1 SWAP2 POP POP SWAP3 SWAP2 POP POP JUMP JUMPDEST PUSH0 PUSH0 DUP4 PUSH1 0x1F DUP5 ADD SLT PUSH2 0x2D2D JUMPI PUSH0 PUSH0 REVERT JUMPDEST POP DUP2 CALLDATALOAD PUSH1 0x1 PUSH1 0x1 PUSH1 0x40 SHL SUB DUP2 GT ISZERO PUSH2 0x2D43 JUMPI PUSH0 PUSH0 REVERT JUMPDEST PUSH1 0x20 DUP4 ADD SWAP2 POP DUP4 PUSH1 0x20 DUP3 PUSH1 0x5 SHL DUP6 ADD ADD GT ISZERO PUSH2 0x2A46 JUMPI PUSH0 PUSH0 REVERT JUMPDEST PUSH0 PUSH0 PUSH0 PUSH0 PUSH0 PUSH1 0x60 DUP7 DUP9 SUB SLT ISZERO PUSH2 0x2D71 JUMPI PUSH0 PUSH0 REVERT JUMPDEST DUP6 CALLDATALOAD PUSH1 0x1 PUSH1 0x1 PUSH1 0x40 SHL SUB DUP2 GT ISZERO PUSH2 0x2D86 JUMPI PUSH0 PUSH0 REVERT JUMPDEST PUSH2 0x2D92 DUP9 DUP3 DUP10 ADD PUSH2 0x2D1D JUMP JUMPDEST SWAP1 SWAP7 POP SWAP5 POP POP PUSH1 0x20 DUP7 ADD CALLDATALOAD PUSH1 0x1 PUSH1 0x1 PUSH1 0x40 SHL SUB DUP2 GT ISZERO PUSH2 0x2DB0 JUMPI PUSH0 PUSH0 REVERT JUMPDEST PUSH2 0x2DBC DUP9 DUP3 DUP10 ADD PUSH2 0x2D1D JUMP JUMPDEST SWAP7 SWAP10 SWAP6 SWAP9 POP SWAP7 PUSH1 0x40 ADD CALLDATALOAD SWAP5 SWAP4 POP POP POP POP JUMP JUMPDEST PUSH0 PUSH1 0x20 DUP3 ADD PUSH1 0x20 DUP4 MSTORE DUP1 DUP5 MLOAD DUP1 DUP4 MSTORE PUSH1 0x40 DUP6 ADD SWAP2 POP PUSH1 0x40 DUP2 PUSH1 0x5 SHL DUP7 ADD ADD SWAP3 POP PUSH1 0x20 DUP7 ADD PUSH0 JUMPDEST DUP3 DUP2 LT ISZERO PUSH2 0x2AF9 JUMPI PUSH1 0x3F NOT DUP8 DUP7 SUB ADD DUP5 MSTORE DUP2 MLOAD DUP1 MLOAD DUP7 MSTORE PUSH1 0x20 DUP2 ADD MLOAD PUSH2 0x2E25 PUSH1 0x20 DUP9 ADD DUP3 PUSH1 0x1 PUSH1 0x1 PUSH1 0xA0 SHL SUB AND SWAP1 MSTORE JUMP JUMPDEST POP PUSH1 0x40 DUP2 ADD MLOAD PUSH2 0x2E38 PUSH1 0x40 DUP9 ADD DUP3 PUSH2 0x2955 JUMP JUMPDEST POP PUSH1 0x60 DUP2 ADD MLOAD PUSH1 0x60 DUP8 ADD MSTORE PUSH1 0x80 DUP2 ADD MLOAD PUSH1 0x80 DUP8 ADD MSTORE PUSH1 0xA0 DUP2 ADD MLOAD PUSH2 0x2E60 PUSH1 0xA0 DUP9 ADD DUP3 ISZERO ISZERO SWAP1 MSTORE JUMP JUMPDEST POP PUSH1 0xC0 DUP2 ADD MLOAD PUSH2 0x2E74 PUSH1 0xC0 DUP9 ADD DUP3 ISZERO ISZERO SWAP1 MSTORE JUMP JUMPDEST POP PUSH1 0xE0 DUP2 ADD MLOAD PUSH1 0xE0 DUP8 ADD MSTORE PUSH2 0x100 DUP2 ADD MLOAD SWAP1 POP PUSH2 0x120 PUSH2 0x100 DUP8 ADD MSTORE PUSH2 0x2E9E PUSH2 0x120 DUP8 ADD DUP3 PUSH2 0x28D8 JUMP JUMPDEST SWAP6 POP POP PUSH1 0x20 SWAP4 DUP5 ADD SWAP4 SWAP2 SWAP1 SWAP2 ADD SWAP1 PUSH1 0x1 ADD PUSH2 0x2DF4 JUMP JUMPDEST PUSH0 PUSH0 PUSH1 0x20 DUP4 DUP6 SUB SLT ISZERO PUSH2 0x2EC5 JUMPI PUSH0 PUSH0 REVERT JUMPDEST DUP3 CALLDATALOAD PUSH1 0x1 PUSH1 0x1 PUSH1 0x40 SHL SUB DUP2 GT ISZERO PUSH2 0x2EDA JUMPI PUSH0 PUSH0 REVERT JUMPDEST PUSH2 0x2CB8 DUP6 DUP3 DUP7 ADD PUSH2 0x2D1D JUMP JUMPDEST PUSH0 PUSH0 PUSH0 PUSH0 PUSH0 PUSH1 0x60 DUP7 DUP9 SUB SLT ISZERO PUSH2 0x2EFA JUMPI PUSH0 PUSH0 REVERT JUMPDEST DUP6 CALLDATALOAD PUSH1 0x1 PUSH1 0x1 PUSH1 0x40 SHL SUB DUP2 GT ISZERO PUSH2 0x2F0F JUMPI PUSH0 PUSH0 REVERT JUMPDEST PUSH2 0x2F1B DUP9 DUP3 DUP10 ADD PUSH2 0x2A09 JUMP JUMPDEST SWAP1 SWAP7 POP SWAP5 POP POP PUSH1 0x20 DUP7 ADD CALLDATALOAD PUSH1 0x1 PUSH1 0x1 PUSH1 0x40 SHL SUB DUP2 GT ISZERO PUSH2 0x2F39 JUMPI PUSH0 PUSH0 REVERT JUMPDEST PUSH2 0x2DBC DUP9 DUP3 DUP10 ADD PUSH2 0x2A09 JUMP JUMPDEST PUSH0 PUSH0 PUSH0 PUSH0 PUSH0 PUSH1 0x80 DUP7 DUP9 SUB SLT ISZERO PUSH2 0x2F59 JUMPI PUSH0 PUSH0 REVERT JUMPDEST PUSH2 0x2F62 DUP7 PUSH2 0x29F6 JUMP JUMPDEST SWAP5 POP PUSH1 0x20 DUP7 ADD CALLDATALOAD SWAP4 POP PUSH1 0x40 DUP7 ADD CALLDATALOAD SWAP3 POP PUSH1 0x60 DUP7 ADD CALLDATALOAD PUSH1 0x1 PUSH1 0x1 PUSH1 0x40 SHL SUB DUP2 GT ISZERO PUSH2 0x2F8A JUMPI PUSH0 PUSH0 REVERT JUMPDEST PUSH2 0x2F96 DUP9 DUP3 DUP10 ADD PUSH2 0x2A09 JUMP JUMPDEST SWAP7 SWAP10 SWAP6 SWAP9 POP SWAP4 SWAP7 POP SWAP3 SWAP5 SWAP4 SWAP3 POP POP POP JUMP JUMPDEST PUSH0 PUSH1 0x20 DUP3 DUP5 SUB SLT ISZERO PUSH2 0x2FB7 JUMPI PUSH0 PUSH0 REVERT JUMPDEST DUP2 CALLDATALOAD PUSH1 0x1 PUSH1 0x1 PUSH1 0xA0 SHL SUB DUP2 AND DUP2 EQ PUSH2 0x29EF JUMPI PUSH0 PUSH0 REVERT JUMPDEST PUSH1 0x20 DUP2 MSTORE PUSH0 DUP3 MLOAD PUSH1 0x60 PUSH1 0x20 DUP5 ADD MSTORE PUSH2 0x2FE8 PUSH1 0x80 DUP5 ADD DUP3 PUSH2 0x28D8 JUMP JUMPDEST SWAP1 POP PUSH1 0x20 DUP5 ADD MLOAD PUSH1 0x40 DUP5 ADD MSTORE PUSH1 0x40 DUP5 ADD MLOAD PUSH1 0x60 DUP5 ADD MSTORE DUP1 SWAP2 POP POP SWAP3 SWAP2 POP POP JUMP JUMPDEST PUSH1 0x1 DUP2 DUP2 SHR SWAP1 DUP3 AND DUP1 PUSH2 0x301C JUMPI PUSH1 0x7F DUP3 AND SWAP2 POP JUMPDEST PUSH1 0x20 DUP3 LT DUP2 SUB PUSH2 0x303A JUMPI PUSH4 0x4E487B71 PUSH1 0xE0 SHL PUSH0 MSTORE PUSH1 0x22 PUSH1 0x4 MSTORE PUSH1 0x24 PUSH0 REVERT JUMPDEST POP SWAP2 SWAP1 POP JUMP JUMPDEST PUSH4 0x4E487B71 PUSH1 0xE0 SHL PUSH0 MSTORE PUSH1 0x11 PUSH1 0x4 MSTORE PUSH1 0x24 PUSH0 REVERT JUMPDEST PUSH0 PUSH1 0x1 DUP3 ADD PUSH2 0x3065 JUMPI PUSH2 0x3065 PUSH2 0x3040 JUMP JUMPDEST POP PUSH1 0x1 ADD SWAP1 JUMP JUMPDEST PUSH1 0x1F DUP3 GT ISZERO PUSH2 0x1C55 JUMPI DUP1 PUSH0 MSTORE PUSH1 0x20 PUSH0 KECCAK256 PUSH1 0x1F DUP5 ADD PUSH1 0x5 SHR DUP2 ADD PUSH1 0x20 DUP6 LT ISZERO PUSH2 0x3091 JUMPI POP DUP1 JUMPDEST PUSH1 0x1F DUP5 ADD PUSH1 0x5 SHR DUP3 ADD SWAP2 POP JUMPDEST DUP2 DUP2 LT ISZERO PUSH2 0x30B0 JUMPI PUSH0 DUP2 SSTORE PUSH1 0x1 ADD PUSH2 0x309D JUMP JUMPDEST POP POP POP POP POP JUMP JUMPDEST PUSH0 NOT PUSH1 0x3 DUP4 SWAP1 SHL SHR NOT AND PUSH1 0x1 SWAP2 SWAP1 SWAP2 SHL OR SWAP1 JUMP JUMPDEST PUSH1 0x1 PUSH1 0x1 PUSH1 0x40 SHL SUB DUP4 GT ISZERO PUSH2 0x30E2 JUMPI PUSH2 0x30E2 PUSH2 0x2814 JUMP JUMPDEST PUSH2 0x30F6 DUP4 PUSH2 0x30F0 DUP4 SLOAD PUSH2 0x3008 JUMP JUMPDEST DUP4 PUSH2 0x306C JUMP JUMPDEST PUSH0 PUSH1 0x1F DUP5 GT PUSH1 0x1 DUP2 EQ PUSH2 0x3122 JUMPI PUSH0 DUP6 ISZERO PUSH2 0x3110 JUMPI POP DUP4 DUP3 ADD CALLDATALOAD JUMPDEST PUSH2 0x311A DUP7 DUP3 PUSH2 0x30B7 JUMP JUMPDEST DUP5 SSTORE POP PUSH2 0x30B0 JUMP JUMPDEST PUSH0 DUP4 DUP2 MSTORE PUSH1 0x20 DUP2 KECCAK256 PUSH1 0x1F NOT DUP8 AND SWAP2 JUMPDEST DUP3 DUP2 LT ISZERO PUSH2 0x3151 JUMPI DUP7 DUP6 ADD CALLDATALOAD DUP3 SSTORE PUSH1 0x20 SWAP5 DUP6 ADD SWAP5 PUSH1 0x1 SWAP1 SWAP3 ADD SWAP2 ADD PUSH2 0x3131 JUMP JUMPDEST POP DUP7 DUP3 LT ISZERO PUSH2 0x316D JUMPI PUSH0 NOT PUSH1 0xF8 DUP9 PUSH1 0x3 SHL AND SHR NOT DUP5 DUP8 ADD CALLDATALOAD AND DUP2 SSTORE JUMPDEST POP POP PUSH1 0x1 DUP6 PUSH1 0x1 SHL ADD DUP4 SSTORE POP POP POP POP POP JUMP JUMPDEST DUP2 MLOAD PUSH1 0x1 PUSH1 0x1 PUSH1 0x40 SHL SUB DUP2 GT ISZERO PUSH2 0x3198 JUMPI PUSH2 0x3198 PUSH2 0x2814 JUMP JUMPDEST PUSH2 0x31AC DUP2 PUSH2 0x31A6 DUP5 SLOAD PUSH2 0x3008 JUMP JUMPDEST DUP5 PUSH2 0x306C JUMP JUMPDEST PUSH1 0x20 PUSH1 0x1F DUP3 GT PUSH1 0x1 DUP2 EQ PUSH2 0x31D9 JUMPI PUSH0 DUP4 ISZERO PUSH2 0x31C7 JUMPI POP DUP5 DUP3 ADD MLOAD JUMPDEST PUSH2 0x31D1 DUP5 DUP3 PUSH2 0x30B7 JUMP JUMPDEST DUP6 SSTORE POP PUSH2 0x30B0 JUMP JUMPDEST PUSH0 DUP5 DUP2 MSTORE PUSH1 0x20 DUP2 KECCAK256 PUSH1 0x1F NOT DUP6 AND SWAP2 JUMPDEST DUP3 DUP2 LT ISZERO PUSH2 0x3208 JUMPI DUP8 DUP6 ADD MLOAD DUP3 SSTORE PUSH1 0x20 SWAP5 DUP6 ADD SWAP5 PUSH1 0x1 SWAP1 SWAP3 ADD SWAP2 ADD PUSH2 0x31E8 JUMP JUMPDEST POP DUP5 DUP3 LT ISZERO PUSH2 0x3225 JUMPI DUP7 DUP5 ADD MLOAD PUSH0 NOT PUSH1 0x3 DUP8 SWAP1 SHL PUSH1 0xF8 AND SHR NOT AND DUP2 SSTORE JUMPDEST POP POP POP POP PUSH1 0x1 SWAP1 DUP2 SHL ADD SWAP1 SSTORE POP JUMP JUMPDEST DUP2 DUP4 MSTORE DUP2 DUP2 PUSH1 0x20 DUP6 ADD CALLDATACOPY POP PUSH0 DUP3 DUP3 ADD PUSH1 0x20 SWAP1 DUP2 ADD SWAP2 SWAP1 SWAP2 MSTORE PUSH1 0x1F SWAP1 SWAP2 ADD PUSH1 0x1F NOT AND SWAP1 SWAP2 ADD ADD SWAP1 JUMP JUMPDEST PUSH2 0x3266 DUP2 DUP8 PUSH2 0x2955 JUMP JUMPDEST DUP5 PUSH1 0x20 DUP3 ADD MSTORE DUP4 PUSH1 0x40 DUP3 ADD MSTORE PUSH1 0x80 PUSH1 0x60 DUP3 ADD MSTORE PUSH0 PUSH2 0x3288 PUSH1 0x80 DUP4 ADD DUP5 DUP7 PUSH2 0x3234 JUMP JUMPDEST SWAP8 SWAP7 POP POP POP POP POP POP POP JUMP JUMPDEST DUP2 DUP4 DUP3 CALLDATACOPY PUSH0 SWAP2 ADD SWAP1 DUP2 MSTORE SWAP2 SWAP1 POP JUMP JUMPDEST PUSH4 0x4E487B71 PUSH1 0xE0 SHL PUSH0 MSTORE PUSH1 0x32 PUSH1 0x4 MSTORE PUSH1 0x24 PUSH0 REVERT JUMPDEST PUSH0 PUSH0 DUP4 SLOAD PUSH2 0x32C3 DUP2 PUSH2 0x3008 JUMP JUMPDEST PUSH1 0x1 DUP3 AND DUP1 ISZERO PUSH2 0x32DA JUMPI PUSH1 0x1 DUP2 EQ PUSH2 0x32EF JUMPI PUSH2 0x331C JUMP JUMPDEST PUSH1 0xFF NOT DUP4 AND DUP7 MSTORE DUP2 ISZERO ISZERO DUP3 MUL DUP7 ADD SWAP4 POP PUSH2 0x331C JUMP JUMPDEST DUP7 PUSH0 MSTORE PUSH1 0x20 PUSH0 KECCAK256 PUSH0 JUMPDEST DUP4 DUP2 LT ISZERO PUSH2 0x3314 JUMPI DUP2 SLOAD DUP9 DUP3 ADD MSTORE PUSH1 0x1 SWAP1 SWAP2 ADD SWAP1 PUSH1 0x20 ADD PUSH2 0x32F8 JUMP JUMPDEST POP POP DUP2 DUP7 ADD SWAP4 POP JUMPDEST POP SWAP2 SWAP6 SWAP5 POP POP POP POP POP JUMP JUMPDEST PUSH0 DUP3 CALLDATALOAD PUSH1 0x9E NOT DUP4 CALLDATASIZE SUB ADD DUP2 SLT PUSH2 0x333B JUMPI PUSH0 PUSH0 REVERT JUMPDEST SWAP2 SWAP1 SWAP2 ADD SWAP3 SWAP2 POP POP JUMP JUMPDEST PUSH0 PUSH0 DUP4 CALLDATALOAD PUSH1 0x1E NOT DUP5 CALLDATASIZE SUB ADD DUP2 SLT PUSH2 0x335A JUMPI PUSH0 PUSH0 REVERT JUMPDEST DUP4 ADD DUP1 CALLDATALOAD SWAP2 POP PUSH1 0x1 PUSH1 0x1 PUSH1 0x40 SHL SUB DUP3 GT ISZERO PUSH2 0x3373 JUMPI PUSH0 PUSH0 REVERT JUMPDEST PUSH1 0x20 ADD SWAP2 POP CALLDATASIZE DUP2 SWAP1 SUB DUP3 SGT ISZERO PUSH2 0x2A46 JUMPI PUSH0 PUSH0 REVERT JUMPDEST DUP2 DUP2 SUB DUP2 DUP2 GT ISZERO PUSH2 0x13DE JUMPI PUSH2 0x13DE PUSH2 0x3040 JUMP JUMPDEST DUP2 DUP2 SUB PUSH2 0x33A5 JUMPI POP POP JUMP JUMPDEST PUSH2 0x33AF DUP3 SLOAD PUSH2 0x3008 JUMP JUMPDEST PUSH1 0x1 PUSH1 0x1 PUSH1 0x40 SHL SUB DUP2 GT ISZERO PUSH2 0x33C6 JUMPI PUSH2 0x33C6 PUSH2 0x2814 JUMP JUMPDEST PUSH2 0x33D4 DUP2 PUSH2 0x31A6 DUP5 SLOAD PUSH2 0x3008 JUMP JUMPDEST PUSH0 PUSH1 0x1F DUP3 GT PUSH1 0x1 DUP2 EQ PUSH2 0x33F7 JUMPI PUSH0 DUP4 ISZERO PUSH2 0x31C7 JUMPI POP DUP5 DUP3 ADD SLOAD PUSH2 0x31D1 DUP5 DUP3 PUSH2 0x30B7 JUMP JUMPDEST PUSH0 DUP6 DUP2 MSTORE PUSH1 0x20 DUP1 DUP3 KECCAK256 DUP7 DUP4 MSTORE SWAP1 DUP3 KECCAK256 PUSH1 0x1F NOT DUP7 AND SWAP3 JUMPDEST DUP4 DUP2 LT ISZERO PUSH2 0x342D JUMPI DUP3 DUP7 ADD SLOAD DUP3 SSTORE PUSH1 0x1 SWAP6 DUP7 ADD SWAP6 SWAP1 SWAP2 ADD SWAP1 PUSH1 0x20 ADD PUSH2 0x340D JUMP JUMPDEST POP DUP6 DUP4 LT ISZERO PUSH2 0x344A JUMPI DUP2 DUP6 ADD SLOAD PUSH0 NOT PUSH1 0x3 DUP9 SWAP1 SHL PUSH1 0xF8 AND SHR NOT AND DUP2 SSTORE JUMPDEST POP POP POP POP POP PUSH1 0x1 SWAP1 DUP2 SHL ADD SWAP1 SSTORE POP JUMP JUMPDEST PUSH4 0x4E487B71 PUSH1 0xE0 SHL PUSH0 MSTORE PUSH1 0x31 PUSH1 0x4 MSTORE PUSH1 0x24 PUSH0 REVERT JUMPDEST PUSH0 DUP3 CALLDATALOAD PUSH1 0x5E NOT DUP4 CALLDATASIZE SUB ADD DUP2 SLT PUSH2 0x333B JUMPI PUSH0 PUSH0 REVERT JUMPDEST PUSH1 0x40 DUP2 MSTORE PUSH0 PUSH2 0x3495 PUSH1 0x40 DUP4 ADD DUP6 DUP8 PUSH2 0x3234 JUMP JUMPDEST SWAP1 POP DUP3 PUSH1 0x20 DUP4 ADD MSTORE SWAP5 SWAP4 POP POP POP POP JUMP JUMPDEST PUSH1 0x60 DUP2 MSTORE PUSH0 PUSH2 0x34B8 PUSH1 0x60 DUP4 ADD DUP7 DUP9 PUSH2 0x3234 JUMP JUMPDEST PUSH1 0x20 DUP4 ADD SWAP5 SWAP1 SWAP5 MSTORE POP PUSH1 0x40 ADD MSTORE SWAP3 SWAP2 POP POP JUMP JUMPDEST DUP3 DUP2 MSTORE PUSH1 0x40 PUSH1 0x20 DUP3 ADD MSTORE PUSH0 PUSH0 DUP4 SLOAD PUSH2 0x34E2 DUP2 PUSH2 0x3008 JUMP JUMPDEST DUP1 PUSH1 0x40 DUP7 ADD MSTORE PUSH1 0x1 DUP3 AND PUSH0 DUP2 EQ PUSH2 0x3500 JUMPI PUSH1 0x1 DUP2 EQ PUSH2 0x351C JUMPI PUSH2 0x354D JUMP JUMPDEST PUSH1 0xFF NOT DUP4 AND PUSH1 0x60 DUP8 ADD MSTORE PUSH1 0x60 DUP3 ISZERO ISZERO PUSH1 0x5 SHL DUP8 ADD ADD SWAP4 POP PUSH2 0x354D JUMP JUMPDEST DUP7 PUSH0 MSTORE PUSH1 0x20 PUSH0 KECCAK256 PUSH0 JUMPDEST DUP4 DUP2 LT ISZERO PUSH2 0x3544 JUMPI DUP2 SLOAD DUP9 DUP3 ADD PUSH1 0x60 ADD MSTORE PUSH1 0x1 SWAP1 SWAP2 ADD SWAP1 PUSH1 0x20 ADD PUSH2 0x3525 JUMP JUMPDEST DUP8 ADD PUSH1 0x60 ADD SWAP5 POP POP JUMPDEST POP SWAP2 SWAP7 SWAP6 POP POP POP POP POP POP JUMP INVALID LOG2 PUSH5 0x6970667358 0x22 SLT KECCAK256 DUP9 PUSH7 0x6967274BB614FB 0xBA SELFBALANCE SWAP2 DUP6 PUSH0 0xC5 LOG3 MSTORE CALLF 0xE8AF SWAP10 PUSH18 0xE36E6A178CD6290D0E8664736F6C63430008 0x1E STOP CALLER "
				},
				"gasEstimates": {
					"creation": {
						"codeDepositCost": "2742200",
						"executionCost": "104391",
						"totalCost": "2846591"
					},
					"external": {
						"DoubleNetflowAlert(uint8,int256,int256,string)": "infinite",
						"MAX_ALERTS_PER_USER()": "239",
						"SingleThresholdNetflowAlert(uint8,int256,string)": "infinite",
						"activateAlert()": "infinite",
						"addOrUpdateNarrativePerformance(string,int256)": "infinite",
						"batchUpdateNarrativePerformances((string,int256,uint256)[])": "infinite",
						"exchangeNetflow()": "4559",
						"getAllNarrativeKeys()": "infinite",
						"getAllNetflowAlerts()": "infinite",
						"getNarrativePerformance(string)": "infinite",
						"getNarrativeTopPerformer(string)": "infinite",
						"getTopOutperformingAssets()": "infinite",
						"getTopUnderperformingAssets()": "infinite",
						"hasPreviousExchangeNetflowAmount()": "2378",
						"marketAverageMovementPercent24h()": "2340",
						"marketPerformanceLastUpdatedAt()": "2384",
						"narrativeKeys(uint256)": "infinite",
						"narrativePerformances(string)": "infinite",
						"narrativeTopPerformers(string)": "infinite",
						"owner()": "2367",
						"previousExchangeNetflowAmount()": "2340",
						"removeNarrativeKey(string)": "infinite",
						"renounceOwnership()": "infinite",
						"resetAlertTriggerState()": "infinite",
						"stablecoinExchangeOverallNetflow()": "10914",
						"topOutperformingAssets(uint256)": "infinite",
						"topUnderperformingAssets(uint256)": "infinite",
						"transferOwnership(address)": "28360",
						"turnOffAlert()": "infinite",
						"updateExchangeNetflow(int256)": "infinite",
						"updateMarketPerformance((string,address,int256,int256,uint256)[],(string,address,int256,int256,uint256)[],int256)": "infinite",
						"updateNarrativeTopPerformer(string,string,int256)": "infinite",
						"updateStablecoinOverallNetflow(int256,int256,int256,int256)": "115230",
						"userNetflowAlert()": "infinite",
						"userNetflowAlerts(uint256)": "infinite"
					},
					"internal": {
						"checkAndTriggerAlert(int256,int256,bool)": "infinite"
					}
				},
				"methodIdentifiers": {
					"DoubleNetflowAlert(uint8,int256,int256,string)": "f25ab9c9",
					"MAX_ALERTS_PER_USER()": "51320eb5",
					"SingleThresholdNetflowAlert(uint8,int256,string)": "2e4d0321",
					"activateAlert()": "2f66b011",
					"addOrUpdateNarrativePerformance(string,int256)": "3fab3dd6",
					"batchUpdateNarrativePerformances((string,int256,uint256)[])": "e337d7cf",
					"exchangeNetflow()": "fec53907",
					"getAllNarrativeKeys()": "2f85909b",
					"getAllNetflowAlerts()": "cc0363cd",
					"getNarrativePerformance(string)": "f42191de",
					"getNarrativeTopPerformer(string)": "7e767e14",
					"getTopOutperformingAssets()": "f1e52d1d",
					"getTopUnderperformingAssets()": "7e3fb6ca",
					"hasPreviousExchangeNetflowAmount()": "0f549423",
					"marketAverageMovementPercent24h()": "86b28718",
					"marketPerformanceLastUpdatedAt()": "977ddf37",
					"narrativeKeys(uint256)": "2243e326",
					"narrativePerformances(string)": "0acd704e",
					"narrativeTopPerformers(string)": "740fb0d2",
					"owner()": "8da5cb5b",
					"previousExchangeNetflowAmount()": "298fc805",
					"removeNarrativeKey(string)": "ca848e6a",
					"renounceOwnership()": "715018a6",
					"resetAlertTriggerState()": "440c1ec9",
					"stablecoinExchangeOverallNetflow()": "99670fea",
					"topOutperformingAssets(uint256)": "30400a3a",
					"topUnderperformingAssets(uint256)": "f44f031a",
					"transferOwnership(address)": "f2fde38b",
					"turnOffAlert()": "ac57e64e",
					"updateExchangeNetflow(int256)": "b2cec9ef",
					"updateMarketPerformance((string,address,int256,int256,uint256)[],(string,address,int256,int256,uint256)[],int256)": "b1950a37",
					"updateNarrativeTopPerformer(string,string,int256)": "ea7fbd64",
					"updateStablecoinOverallNetflow(int256,int256,int256,int256)": "3afa9a2e",
					"userNetflowAlert()": "e642566f",
					"userNetflowAlerts(uint256)": "1adae926"
				}
			},
			"storageLayout": {
				"storage": [
					{
						"astId": 8,
						"contract": "contracts/DashBoard.sol:Dashboard",
						"label": "_owner",
						"offset": 0,
						"slot": "0",
						"type": "t_address"
					},
					{
						"astId": 188,
						"contract": "contracts/DashBoard.sol:Dashboard",
						"label": "exchangeNetflow",
						"offset": 0,
						"slot": "1",
						"type": "t_struct(NetflowInfo)1687_storage"
					},
					{
						"astId": 192,
						"contract": "contracts/DashBoard.sol:Dashboard",
						"label": "userNetflowAlerts",
						"offset": 0,
						"slot": "3",
						"type": "t_array(t_struct(NetflowAlert)262_storage)dyn_storage"
					},
					{
						"astId": 197,
						"contract": "contracts/DashBoard.sol:Dashboard",
						"label": "previousExchangeNetflowAmount",
						"offset": 0,
						"slot": "4",
						"type": "t_int256"
					},
					{
						"astId": 200,
						"contract": "contracts/DashBoard.sol:Dashboard",
						"label": "hasPreviousExchangeNetflowAmount",
						"offset": 0,
						"slot": "5",
						"type": "t_bool"
					},
					{
						"astId": 203,
						"contract": "contracts/DashBoard.sol:Dashboard",
						"label": "stablecoinExchangeOverallNetflow",
						"offset": 0,
						"slot": "6",
						"type": "t_struct(StablecoinOverallInfo)1698_storage"
					},
					{
						"astId": 208,
						"contract": "contracts/DashBoard.sol:Dashboard",
						"label": "narrativePerformances",
						"offset": 0,
						"slot": "11",
						"type": "t_mapping(t_string_memory_ptr,t_struct(NarrativePerformanceInfo)1705_storage)"
					},
					{
						"astId": 211,
						"contract": "contracts/DashBoard.sol:Dashboard",
						"label": "narrativeKeys",
						"offset": 0,
						"slot": "12",
						"type": "t_array(t_string_storage)dyn_storage"
					},
					{
						"astId": 216,
						"contract": "contracts/DashBoard.sol:Dashboard",
						"label": "narrativeTopPerformers",
						"offset": 0,
						"slot": "13",
						"type": "t_mapping(t_string_memory_ptr,t_struct(NarrativeTopTokenInfo)1714_storage)"
					},
					{
						"astId": 220,
						"contract": "contracts/DashBoard.sol:Dashboard",
						"label": "topOutperformingAssets",
						"offset": 0,
						"slot": "14",
						"type": "t_array(t_struct(AssetPerformanceInfo)1725_storage)dyn_storage"
					},
					{
						"astId": 224,
						"contract": "contracts/DashBoard.sol:Dashboard",
						"label": "topUnderperformingAssets",
						"offset": 0,
						"slot": "15",
						"type": "t_array(t_struct(AssetPerformanceInfo)1725_storage)dyn_storage"
					},
					{
						"astId": 226,
						"contract": "contracts/DashBoard.sol:Dashboard",
						"label": "marketAverageMovementPercent24h",
						"offset": 0,
						"slot": "16",
						"type": "t_int256"
					},
					{
						"astId": 228,
						"contract": "contracts/DashBoard.sol:Dashboard",
						"label": "marketPerformanceLastUpdatedAt",
						"offset": 0,
						"slot": "17",
						"type": "t_uint256"
					},
					{
						"astId": 265,
						"contract": "contracts/DashBoard.sol:Dashboard",
						"label": "userNetflowAlert",
						"offset": 0,
						"slot": "18",
						"type": "t_struct(NetflowAlert)262_storage"
					},
					{
						"astId": 268,
						"contract": "contracts/DashBoard.sol:Dashboard",
						"label": "nextAlertId",
						"offset": 0,
						"slot": "25",
						"type": "t_uint256"
					}
				],
				"types": {
					"t_address": {
						"encoding": "inplace",
						"label": "address",
						"numberOfBytes": "20"
					},
					"t_array(t_string_storage)dyn_storage": {
						"base": "t_string_storage",
						"encoding": "dynamic_array",
						"label": "string[]",
						"numberOfBytes": "32"
					},
					"t_array(t_struct(AssetPerformanceInfo)1725_storage)dyn_storage": {
						"base": "t_struct(AssetPerformanceInfo)1725_storage",
						"encoding": "dynamic_array",
						"label": "struct DataTypes.AssetPerformanceInfo[]",
						"numberOfBytes": "32"
					},
					"t_array(t_struct(NetflowAlert)262_storage)dyn_storage": {
						"base": "t_struct(NetflowAlert)262_storage",
						"encoding": "dynamic_array",
						"label": "struct Dashboard.NetflowAlert[]",
						"numberOfBytes": "32"
					},
					"t_bool": {
						"encoding": "inplace",
						"label": "bool",
						"numberOfBytes": "1"
					},
					"t_enum(AlertCondition)242": {
						"encoding": "inplace",
						"label": "enum Dashboard.AlertCondition",
						"numberOfBytes": "1"
					},
					"t_int256": {
						"encoding": "inplace",
						"label": "int256",
						"numberOfBytes": "32"
					},
					"t_mapping(t_string_memory_ptr,t_struct(NarrativePerformanceInfo)1705_storage)": {
						"encoding": "mapping",
						"key": "t_string_memory_ptr",
						"label": "mapping(string => struct DataTypes.NarrativePerformanceInfo)",
						"numberOfBytes": "32",
						"value": "t_struct(NarrativePerformanceInfo)1705_storage"
					},
					"t_mapping(t_string_memory_ptr,t_struct(NarrativeTopTokenInfo)1714_storage)": {
						"encoding": "mapping",
						"key": "t_string_memory_ptr",
						"label": "mapping(string => struct DataTypes.NarrativeTopTokenInfo)",
						"numberOfBytes": "32",
						"value": "t_struct(NarrativeTopTokenInfo)1714_storage"
					},
					"t_string_memory_ptr": {
						"encoding": "bytes",
						"label": "string",
						"numberOfBytes": "32"
					},
					"t_string_storage": {
						"encoding": "bytes",
						"label": "string",
						"numberOfBytes": "32"
					},
					"t_struct(AssetPerformanceInfo)1725_storage": {
						"encoding": "inplace",
						"label": "struct DataTypes.AssetPerformanceInfo",
						"members": [
							{
								"astId": 1716,
								"contract": "contracts/DashBoard.sol:Dashboard",
								"label": "tokenSymbol",
								"offset": 0,
								"slot": "0",
								"type": "t_string_storage"
							},
							{
								"astId": 1718,
								"contract": "contracts/DashBoard.sol:Dashboard",
								"label": "tokenAddress",
								"offset": 0,
								"slot": "1",
								"type": "t_address"
							},
							{
								"astId": 1720,
								"contract": "contracts/DashBoard.sol:Dashboard",
								"label": "performancePercent24h",
								"offset": 0,
								"slot": "2",
								"type": "t_int256"
							},
							{
								"astId": 1722,
								"contract": "contracts/DashBoard.sol:Dashboard",
								"label": "performanceVsMarketPercent",
								"offset": 0,
								"slot": "3",
								"type": "t_int256"
							},
							{
								"astId": 1724,
								"contract": "contracts/DashBoard.sol:Dashboard",
								"label": "lastUpdatedAt",
								"offset": 0,
								"slot": "4",
								"type": "t_uint256"
							}
						],
						"numberOfBytes": "160"
					},
					"t_struct(NarrativePerformanceInfo)1705_storage": {
						"encoding": "inplace",
						"label": "struct DataTypes.NarrativePerformanceInfo",
						"members": [
							{
								"astId": 1700,
								"contract": "contracts/DashBoard.sol:Dashboard",
								"label": "name",
								"offset": 0,
								"slot": "0",
								"type": "t_string_storage"
							},
							{
								"astId": 1702,
								"contract": "contracts/DashBoard.sol:Dashboard",
								"label": "performancePercent24h",
								"offset": 0,
								"slot": "1",
								"type": "t_int256"
							},
							{
								"astId": 1704,
								"contract": "contracts/DashBoard.sol:Dashboard",
								"label": "lastUpdatedAt",
								"offset": 0,
								"slot": "2",
								"type": "t_uint256"
							}
						],
						"numberOfBytes": "96"
					},
					"t_struct(NarrativeTopTokenInfo)1714_storage": {
						"encoding": "inplace",
						"label": "struct DataTypes.NarrativeTopTokenInfo",
						"members": [
							{
								"astId": 1707,
								"contract": "contracts/DashBoard.sol:Dashboard",
								"label": "narrativeName",
								"offset": 0,
								"slot": "0",
								"type": "t_string_storage"
							},
							{
								"astId": 1709,
								"contract": "contracts/DashBoard.sol:Dashboard",
								"label": "tokenSymbol",
								"offset": 0,
								"slot": "1",
								"type": "t_string_storage"
							},
							{
								"astId": 1711,
								"contract": "contracts/DashBoard.sol:Dashboard",
								"label": "relativePerformancePercent",
								"offset": 0,
								"slot": "2",
								"type": "t_int256"
							},
							{
								"astId": 1713,
								"contract": "contracts/DashBoard.sol:Dashboard",
								"label": "lastUpdatedAt",
								"offset": 0,
								"slot": "3",
								"type": "t_uint256"
							}
						],
						"numberOfBytes": "128"
					},
					"t_struct(NetflowAlert)262_storage": {
						"encoding": "inplace",
						"label": "struct Dashboard.NetflowAlert",
						"members": [
							{
								"astId": 244,
								"contract": "contracts/DashBoard.sol:Dashboard",
								"label": "id",
								"offset": 0,
								"slot": "0",
								"type": "t_uint256"
							},
							{
								"astId": 246,
								"contract": "contracts/DashBoard.sol:Dashboard",
								"label": "user",
								"offset": 0,
								"slot": "1",
								"type": "t_address"
							},
							{
								"astId": 249,
								"contract": "contracts/DashBoard.sol:Dashboard",
								"label": "condition",
								"offset": 20,
								"slot": "1",
								"type": "t_enum(AlertCondition)242"
							},
							{
								"astId": 251,
								"contract": "contracts/DashBoard.sol:Dashboard",
								"label": "threshold1",
								"offset": 0,
								"slot": "2",
								"type": "t_int256"
							},
							{
								"astId": 253,
								"contract": "contracts/DashBoard.sol:Dashboard",
								"label": "threshold2",
								"offset": 0,
								"slot": "3",
								"type": "t_int256"
							},
							{
								"astId": 255,
								"contract": "contracts/DashBoard.sol:Dashboard",
								"label": "isActive",
								"offset": 0,
								"slot": "4",
								"type": "t_bool"
							},
							{
								"astId": 257,
								"contract": "contracts/DashBoard.sol:Dashboard",
								"label": "isTriggered",
								"offset": 1,
								"slot": "4",
								"type": "t_bool"
							},
							{
								"astId": 259,
								"contract": "contracts/DashBoard.sol:Dashboard",
								"label": "lastTriggeredAt",
								"offset": 0,
								"slot": "5",
								"type": "t_uint256"
							},
							{
								"astId": 261,
								"contract": "contracts/DashBoard.sol:Dashboard",
								"label": "message",
								"offset": 0,
								"slot": "6",
								"type": "t_string_storage"
							}
						],
						"numberOfBytes": "224"
					},
					"t_struct(NetflowInfo)1687_storage": {
						"encoding": "inplace",
						"label": "struct DataTypes.NetflowInfo",
						"members": [
							{
								"astId": 1684,
								"contract": "contracts/DashBoard.sol:Dashboard",
								"label": "amount",
								"offset": 0,
								"slot": "0",
								"type": "t_int256"
							},
							{
								"astId": 1686,
								"contract": "contracts/DashBoard.sol:Dashboard",
								"label": "lastUpdatedAt",
								"offset": 0,
								"slot": "1",
								"type": "t_uint256"
							}
						],
						"numberOfBytes": "64"
					},
					"t_struct(StablecoinOverallInfo)1698_storage": {
						"encoding": "inplace",
						"label": "struct DataTypes.StablecoinOverallInfo",
						"members": [
							{
								"astId": 1689,
								"contract": "contracts/DashBoard.sol:Dashboard",
								"label": "dailyNetflowSum",
								"offset": 0,
								"slot": "0",
								"type": "t_int256"
							},
							{
								"astId": 1691,
								"contract": "contracts/DashBoard.sol:Dashboard",
								"label": "weeklyNetflowSum",
								"offset": 0,
								"slot": "1",
								"type": "t_int256"
							},
							{
								"astId": 1693,
								"contract": "contracts/DashBoard.sol:Dashboard",
								"label": "monthlyNetflowSum",
								"offset": 0,
								"slot": "2",
								"type": "t_int256"
							},
							{
								"astId": 1695,
								"contract": "contracts/DashBoard.sol:Dashboard",
								"label": "marketCapChangePercent",
								"offset": 0,
								"slot": "3",
								"type": "t_int256"
							},
							{
								"astId": 1697,
								"contract": "contracts/DashBoard.sol:Dashboard",
								"label": "lastUpdatedAt",
								"offset": 0,
								"slot": "4",
								"type": "t_uint256"
							}
						],
						"numberOfBytes": "160"
					},
					"t_uint256": {
						"encoding": "inplace",
						"label": "uint256",
						"numberOfBytes": "32"
					}
				}
			},
			"userdoc": {
				"kind": "user",
				"methods": {},
				"version": 1
			}
		}
	}
}