{
	"data": {
		"bytecode": {
			"linkReferences": {},
			"object": "60806040526004805460ff191690556001600c5534801561001e575f5ffd5b506040516114d13803806114d183398101604081905261003d9161011f565b816001600160a01b03811661006b57604051631e4fbdf760e01b81525f600482015260240160405180910390fd5b610074816100b5565b506001600160a01b038116156100a057600d80546001600160a01b0319166001600160a01b0383161790555b50506009805460ff191690555f600555610150565b5f80546001600160a01b038381166001600160a01b0319831681178455604051919092169283917f8be0079c531659141344cd1fd0a4f28419497f9722a3daafe3b4186f6b6457e09190a35050565b80516001600160a01b038116811461011a575f5ffd5b919050565b5f5f60408385031215610130575f5ffd5b61013983610104565b915061014760208401610104565b90509250929050565b6113748061015d5f395ff3fe608060405234801561000f575f5ffd5b50600436106100fb575f3560e01c80638da5cb5b11610093578063bf25c80c11610063578063bf25c80c146101e1578063f2fde38b14610204578063f608a36014610217578063f68baac114610254575f5ffd5b80638da5cb5b146101995780639d2ed12b146101a9578063a82b9060146101bc578063ac57e64e146101d9575f5ffd5b8063715018a6116100ce578063715018a6146101375780637aad40611461013f57806380b3880c1461015b5780638804d1b314610186575f5ffd5b80632f66b011146100ff578063311e431914610109578063440c1ec91461011c578063651a96af14610124575b5f5ffd5b610107610271565b005b610107610117366004610eae565b6102ce565b6101076104f2565b610107610132366004610f04565b61054f565b61010761077d565b61014860035481565b6040519081526020015b60405180910390f35b600d5461016e906001600160a01b031681565b6040516001600160a01b039091168152602001610152565b610107610194366004610f67565b61078e565b5f546001600160a01b031661016e565b6101076101b7366004610f7e565b61089f565b6004546101c99060ff1681565b6040519015158152602001610152565b6101076108c9565b6001546002546101ef919082565b60408051928352602083019190915201610152565b610107610212366004610f7e565b610920565b6040805180820182525f80825260209182015281518083018352600154808252600254918301918252835190815290519181019190915201610152565b61025c61095a565b60405161015299989796959493929190610fdf565b610279610a22565b6005541580159061028d575060095460ff16155b156102cc576009805461ffff191660011790556005546040517f5b2a724a870cf7fe2c83bd903795d3ba6163ee1091a97587edf93ff866e22965905f90a25b565b6102d6610a22565b600184600c8111156102ea576102ea610fab565b14806103075750600284600c81111561030557610305610fab565b145b806103235750600384600c81111561032157610321610fab565b145b8061033f5750600484600c81111561033d5761033d610fab565b145b8061035b5750600584600c81111561035957610359610fab565b145b806103775750600684600c81111561037557610375610fab565b145b806103935750600b84600c81111561039157610391610fab565b145b806103af5750600c84600c8111156103ad576103ad610fab565b145b61041f5760405162461bcd60e51b815260206004820152603660248201527f426974636f696e4e6574666c6f773a20496e76616c696420636f6e646974696f6044820152751b88199bdc881cda5b99db19481d1a1c995cda1bdb1960521b60648201526084015b60405180910390fd5b6005545f0361043f57600c8054905f61043783611066565b909155506005555b60068054336001600160a01b03198216811783558692916001600160a81b03191660ff60a01b1990911617600160a01b83600c81111561048157610481610fab565b021790555060078390555f600855600b61049c828483611122565b506009805461ffff191660011790555f600a556005805460405190917f3440945fea32b95db84a1da2429e3b2489a75ede5070a7e82bf894273c544032916104e4919061125b565b60405180910390a250505050565b6104fa610a22565b600554158015906105125750600954610100900460ff165b156102cc576009805461ff00191690556005546040517fc26f9c3201044d3757e27488cd192595aaf8b176842b2175ef47a4cdf1a53952905f90a2565b610557610a22565b600785600c81111561056b5761056b610fab565b14806105885750600885600c81111561058657610586610fab565b145b806105a45750600985600c8111156105a2576105a2610fab565b145b806105c05750600a85600c8111156105be576105be610fab565b145b6106285760405162461bcd60e51b815260206004820152603360248201527f426974636f696e4e6574666c6f773a20496e76616c696420636f6e646974696f6044820152721b88199bdc8818da185b9b995b08185b195c9d606a1b6064820152608401610416565b8284036106905760405162461bcd60e51b815260206004820152603060248201527f426974636f696e4e6574666c6f773a204368616e6e656c20626f756e6473206d60448201526f1d5cdd08189948191a5999995c995b9d60821b6064820152608401610416565b6005545f036106b057600c8054905f6106a883611066565b909155506005555b60068054336001600160a01b03198216811783558792916001600160a81b03191660ff60a01b1990911617600160a01b83600c8111156106f2576106f2610fab565b02179055508284121561070e5760078490556008839055610719565b600783905560088490555b600b610726828483611122565b506009805461ffff191660011790555f600a556005805460405190917f3440945fea32b95db84a1da2429e3b2489a75ede5070a7e82bf894273c5440329161076e919061125b565b60405180910390a25050505050565b610785610a22565b6102cc5f610a4e565b610796610a22565b60045460ff16806107a8575060025415155b156107b8576001546003556107be565b60038190555b6004805460ff191660019081179091558190554260028190556040805183815260208101929092527f6aa923a6c9209a2e21ae6e280a4db9b9ee735a6365236e562b53a25d23c1ef56910160405180910390a1600d546001600160a01b03161561088557600d54604051632a57f87b60e21b8152600154600482015260025460248201526001600160a01b039091169063a95fe1ec906044015f604051808303815f87803b15801561086e575f5ffd5b505af1158015610880573d5f5f3e3d5ffd5b505050505b60015460035460045461089c92919060ff16610a9d565b50565b6108a7610a22565b600d80546001600160a01b0319166001600160a01b0392909216919091179055565b6108d1610a22565b600554158015906108e4575060095460ff165b156102cc576009805460ff191690556005546040517fd7d997a7d5bb0e259c4bcbf9213b950fc2d302d3d30540c7671b3c2e6d33088d905f90a2565b610928610a22565b6001600160a01b03811661095157604051631e4fbdf760e01b81525f6004820152602401610416565b61089c81610a4e565b60058054600654600754600854600954600a54600b805496976001600160a01b0387169760ff600160a01b909804881697858116956101009004169392906109a19061109e565b80601f01602080910402602001604051908101604052809291908181526020018280546109cd9061109e565b8015610a185780601f106109ef57610100808354040283529160200191610a18565b820191905f5260205f20905b8154815290600101906020018083116109fb57829003601f168201915b5050505050905089565b5f546001600160a01b031633146102cc5760405163118cdaa760e01b8152336004820152602401610416565b5f80546001600160a01b038381166001600160a01b0319831681178455604051919092169283917f8be0079c531659141344cd1fd0a4f28419497f9722a3daafe3b4186f6b6457e09190a35050565b60095460ff161580610ab65750600954610100900460ff165b80610ac15750600554155b15610acb57505050565b6006546007546008545f92600160a01b900460ff1691908190600184600c811115610af857610af8610fab565b03610b0f5782881315610b0a57600194505b610d7a565b600284600c811115610b2357610b23610fab565b03610b395782881215610b0a5760019450610d7a565b600384600c811115610b4d57610b4d610fab565b03610b6257828803610b0a5760019450610d7a565b8515610d7a57600484600c811115610b7c57610b7c610fab565b03610bb3578287128015610b905750828812155b80610ba557508287138015610ba55750828813155b15610b0a5760019450610d7a565b600584600c811115610bc757610bc7610fab565b03610be6578287128015610ba55750828812610b0a5760019450610d7a565b600684600c811115610bfa57610bfa610fab565b03610c19578287138015610ba55750828813610b0a5760019450610d7a565b600784600c811115610c2d57610c2d610fab565b03610c70575f82881280610c4057508188135b90505f838a12158015610c535750828a13155b9050818015610c5f5750805b15610c6957600196505b5050610d7a565b600884600c811115610c8457610c84610fab565b03610cc3575f828812158015610c9a5750818813155b90505f838a1280610c53575050818913818015610c5f57508015610c6957600196505050610d7a565b600984600c811115610cd757610cd7610fab565b03610cf757818812158015610ba55750808813610b0a5760019450610d7a565b600a84600c811115610d0b57610d0b610fab565b03610d2a5781881280610ba5575080881315610b0a5760019450610d7a565b600b84600c811115610d3e57610d3e610fab565b03610d545786881315610b0a5760019450610d7a565b600c84600c811115610d6857610d68610fab565b03610d7a5786881215610d7a57600194505b8415610e4c576009805461ff00191661010017905542600a556005546040517ffd1237999c3a51192c69c42973f8afdb29066bcacb8f3b3569f68f871127280990610dc9908b90600b906112ec565b60405180910390a2600d546001600160a01b031615610e4c57600d5460055460065460405163fbe93de360e01b81526001600160a01b039384169363fbe93de393610e1e939092911690600b9060040161130c565b5f604051808303815f87803b158015610e35575f5ffd5b505af1158015610e47573d5f5f3e3d5ffd5b505050505b5050505050505050565b8035600d8110610e64575f5ffd5b919050565b5f5f83601f840112610e79575f5ffd5b50813567ffffffffffffffff811115610e90575f5ffd5b602083019150836020828501011115610ea7575f5ffd5b9250929050565b5f5f5f5f60608587031215610ec1575f5ffd5b610eca85610e56565b935060208501359250604085013567ffffffffffffffff811115610eec575f5ffd5b610ef887828801610e69565b95989497509550505050565b5f5f5f5f5f60808688031215610f18575f5ffd5b610f2186610e56565b94506020860135935060408601359250606086013567ffffffffffffffff811115610f4a575f5ffd5b610f5688828901610e69565b969995985093965092949392505050565b5f60208284031215610f77575f5ffd5b5035919050565b5f60208284031215610f8e575f5ffd5b81356001600160a01b0381168114610fa4575f5ffd5b9392505050565b634e487b7160e01b5f52602160045260245ffd5b600d8110610fdb57634e487b7160e01b5f52602160045260245ffd5b9052565b8981526001600160a01b0389166020820152610ffe6040820189610fbf565b86606082015285608082015284151560a082015283151560c08201528260e08201526101206101008201525f825180610120840152806020850161014085015e5f6101408285010152610140601f19601f8301168401019150509a9950505050505050505050565b5f6001820161108357634e487b7160e01b5f52601160045260245ffd5b5060010190565b634e487b7160e01b5f52604160045260245ffd5b600181811c908216806110b257607f821691505b6020821081036110d057634e487b7160e01b5f52602260045260245ffd5b50919050565b601f82111561111d57805f5260205f20601f840160051c810160208510156110fb5750805b601f840160051c820191505b8181101561111a575f8155600101611107565b50505b505050565b67ffffffffffffffff83111561113a5761113a61108a565b61114e83611148835461109e565b836110d6565b5f601f84116001811461117f575f85156111685750838201355b5f19600387901b1c1916600186901b17835561111a565b5f83815260208120601f198716915b828110156111ae578685013582556020948501946001909201910161118e565b50868210156111ca575f1960f88860031b161c19848701351681555b505060018560011b0183555050505050565b5f81546111e88161109e565b808552600182168015611202576001811461121e57611252565b60ff1983166020870152602082151560051b8701019350611252565b845f5260205f205f5b838110156112495781546020828a010152600182019150602081019050611227565b87016020019450505b50505092915050565b602080825282549082015260018201546001600160a01b03811660408301525f9061128f6060840160ff8360a01c16610fbf565b5060028301546080830152600383015460a0830152600483015460ff8116151560c08401526112c860e0840160ff8360081c1615159052565b50600583015461010083015261012080830152610fa46101408301600685016111dc565b828152604060208201525f61130460408301846111dc565b949350505050565b8381526001600160a01b03831660208201526060604082018190525f90611335908301846111dc565b9594505050505056fea2646970667358221220ddaef68a37ef1b07eabcedae2ae51a5ec117e43ea979585732946c66f2e5927d64736f6c634300081e0033",
			"opcodes": "PUSH1 0x80 PUSH1 0x40 MSTORE PUSH1 0x4 DUP1 SLOAD PUSH1 0xFF NOT AND SWAP1 SSTORE PUSH1 0x1 PUSH1 0xC SSTORE CALLVALUE DUP1 ISZERO PUSH2 0x1E JUMPI PUSH0 PUSH0 REVERT JUMPDEST POP PUSH1 0x40 MLOAD PUSH2 0x14D1 CODESIZE SUB DUP1 PUSH2 0x14D1 DUP4 CODECOPY DUP2 ADD PUSH1 0x40 DUP2 SWAP1 MSTORE PUSH2 0x3D SWAP2 PUSH2 0x11F JUMP JUMPDEST DUP2 PUSH1 0x1 PUSH1 0x1 PUSH1 0xA0 SHL SUB DUP2 AND PUSH2 0x6B JUMPI PUSH1 0x40 MLOAD PUSH4 0x1E4FBDF7 PUSH1 0xE0 SHL DUP2 MSTORE PUSH0 PUSH1 0x4 DUP3 ADD MSTORE PUSH1 0x24 ADD PUSH1 0x40 MLOAD DUP1 SWAP2 SUB SWAP1 REVERT JUMPDEST PUSH2 0x74 DUP2 PUSH2 0xB5 JUMP JUMPDEST POP PUSH1 0x1 PUSH1 0x1 PUSH1 0xA0 SHL SUB DUP2 AND ISZERO PUSH2 0xA0 JUMPI PUSH1 0xD DUP1 SLOAD PUSH1 0x1 PUSH1 0x1 PUSH1 0xA0 SHL SUB NOT AND PUSH1 0x1 PUSH1 0x1 PUSH1 0xA0 SHL SUB DUP4 AND OR SWAP1 SSTORE JUMPDEST POP POP PUSH1 0x9 DUP1 SLOAD PUSH1 0xFF NOT AND SWAP1 SSTORE PUSH0 PUSH1 0x5 SSTORE PUSH2 0x150 JUMP JUMPDEST PUSH0 DUP1 SLOAD PUSH1 0x1 PUSH1 0x1 PUSH1 0xA0 SHL SUB DUP4 DUP2 AND PUSH1 0x1 PUSH1 0x1 PUSH1 0xA0 SHL SUB NOT DUP4 AND DUP2 OR DUP5 SSTORE PUSH1 0x40 MLOAD SWAP2 SWAP1 SWAP3 AND SWAP3 DUP4 SWAP2 PUSH32 0x8BE0079C531659141344CD1FD0A4F28419497F9722A3DAAFE3B4186F6B6457E0 SWAP2 SWAP1 LOG3 POP POP JUMP JUMPDEST DUP1 MLOAD PUSH1 0x1 PUSH1 0x1 PUSH1 0xA0 SHL SUB DUP2 AND DUP2 EQ PUSH2 0x11A JUMPI PUSH0 PUSH0 REVERT JUMPDEST SWAP2 SWAP1 POP JUMP JUMPDEST PUSH0 PUSH0 PUSH1 0x40 DUP4 DUP6 SUB SLT ISZERO PUSH2 0x130 JUMPI PUSH0 PUSH0 REVERT JUMPDEST PUSH2 0x139 DUP4 PUSH2 0x104 JUMP JUMPDEST SWAP2 POP PUSH2 0x147 PUSH1 0x20 DUP5 ADD PUSH2 0x104 JUMP JUMPDEST SWAP1 POP SWAP3 POP SWAP3 SWAP1 POP JUMP JUMPDEST PUSH2 0x1374 DUP1 PUSH2 0x15D PUSH0 CODECOPY PUSH0 RETURN INVALID PUSH1 0x80 PUSH1 0x40 MSTORE CALLVALUE DUP1 ISZERO PUSH2 0xF JUMPI PUSH0 PUSH0 REVERT JUMPDEST POP PUSH1 0x4 CALLDATASIZE LT PUSH2 0xFB JUMPI PUSH0 CALLDATALOAD PUSH1 0xE0 SHR DUP1 PUSH4 0x8DA5CB5B GT PUSH2 0x93 JUMPI DUP1 PUSH4 0xBF25C80C GT PUSH2 0x63 JUMPI DUP1 PUSH4 0xBF25C80C EQ PUSH2 0x1E1 JUMPI DUP1 PUSH4 0xF2FDE38B EQ PUSH2 0x204 JUMPI DUP1 PUSH4 0xF608A360 EQ PUSH2 0x217 JUMPI DUP1 PUSH4 0xF68BAAC1 EQ PUSH2 0x254 JUMPI PUSH0 PUSH0 REVERT JUMPDEST DUP1 PUSH4 0x8DA5CB5B EQ PUSH2 0x199 JUMPI DUP1 PUSH4 0x9D2ED12B EQ PUSH2 0x1A9 JUMPI DUP1 PUSH4 0xA82B9060 EQ PUSH2 0x1BC JUMPI DUP1 PUSH4 0xAC57E64E EQ PUSH2 0x1D9 JUMPI PUSH0 PUSH0 REVERT JUMPDEST DUP1 PUSH4 0x715018A6 GT PUSH2 0xCE JUMPI DUP1 PUSH4 0x715018A6 EQ PUSH2 0x137 JUMPI DUP1 PUSH4 0x7AAD4061 EQ PUSH2 0x13F JUMPI DUP1 PUSH4 0x80B3880C EQ PUSH2 0x15B JUMPI DUP1 PUSH4 0x8804D1B3 EQ PUSH2 0x186 JUMPI PUSH0 PUSH0 REVERT JUMPDEST DUP1 PUSH4 0x2F66B011 EQ PUSH2 0xFF JUMPI DUP1 PUSH4 0x311E4319 EQ PUSH2 0x109 JUMPI DUP1 PUSH4 0x440C1EC9 EQ PUSH2 0x11C JUMPI DUP1 PUSH4 0x651A96AF EQ PUSH2 0x124 JUMPI JUMPDEST PUSH0 PUSH0 REVERT JUMPDEST PUSH2 0x107 PUSH2 0x271 JUMP JUMPDEST STOP JUMPDEST PUSH2 0x107 PUSH2 0x117 CALLDATASIZE PUSH1 0x4 PUSH2 0xEAE JUMP JUMPDEST PUSH2 0x2CE JUMP JUMPDEST PUSH2 0x107 PUSH2 0x4F2 JUMP JUMPDEST PUSH2 0x107 PUSH2 0x132 CALLDATASIZE PUSH1 0x4 PUSH2 0xF04 JUMP JUMPDEST PUSH2 0x54F JUMP JUMPDEST PUSH2 0x107 PUSH2 0x77D JUMP JUMPDEST PUSH2 0x148 PUSH1 0x3 SLOAD DUP2 JUMP JUMPDEST PUSH1 0x40 MLOAD SWAP1 DUP2 MSTORE PUSH1 0x20 ADD JUMPDEST PUSH1 0x40 MLOAD DUP1 SWAP2 SUB SWAP1 RETURN JUMPDEST PUSH1 0xD SLOAD PUSH2 0x16E SWAP1 PUSH1 0x1 PUSH1 0x1 PUSH1 0xA0 SHL SUB AND DUP2 JUMP JUMPDEST PUSH1 0x40 MLOAD PUSH1 0x1 PUSH1 0x1 PUSH1 0xA0 SHL SUB SWAP1 SWAP2 AND DUP2 MSTORE PUSH1 0x20 ADD PUSH2 0x152 JUMP JUMPDEST PUSH2 0x107 PUSH2 0x194 CALLDATASIZE PUSH1 0x4 PUSH2 0xF67 JUMP JUMPDEST PUSH2 0x78E JUMP JUMPDEST PUSH0 SLOAD PUSH1 0x1 PUSH1 0x1 PUSH1 0xA0 SHL SUB AND PUSH2 0x16E JUMP JUMPDEST PUSH2 0x107 PUSH2 0x1B7 CALLDATASIZE PUSH1 0x4 PUSH2 0xF7E JUMP JUMPDEST PUSH2 0x89F JUMP JUMPDEST PUSH1 0x4 SLOAD PUSH2 0x1C9 SWAP1 PUSH1 0xFF AND DUP2 JUMP JUMPDEST PUSH1 0x40 MLOAD SWAP1 ISZERO ISZERO DUP2 MSTORE PUSH1 0x20 ADD PUSH2 0x152 JUMP JUMPDEST PUSH2 0x107 PUSH2 0x8C9 JUMP JUMPDEST PUSH1 0x1 SLOAD PUSH1 0x2 SLOAD PUSH2 0x1EF SWAP2 SWAP1 DUP3 JUMP JUMPDEST PUSH1 0x40 DUP1 MLOAD SWAP3 DUP4 MSTORE PUSH1 0x20 DUP4 ADD SWAP2 SWAP1 SWAP2 MSTORE ADD PUSH2 0x152 JUMP JUMPDEST PUSH2 0x107 PUSH2 0x212 CALLDATASIZE PUSH1 0x4 PUSH2 0xF7E JUMP JUMPDEST PUSH2 0x920 JUMP JUMPDEST PUSH1 0x40 DUP1 MLOAD DUP1 DUP3 ADD DUP3 MSTORE PUSH0 DUP1 DUP3 MSTORE PUSH1 0x20 SWAP2 DUP3 ADD MSTORE DUP2 MLOAD DUP1 DUP4 ADD DUP4 MSTORE PUSH1 0x1 SLOAD DUP1 DUP3 MSTORE PUSH1 0x2 SLOAD SWAP2 DUP4 ADD SWAP2 DUP3 MSTORE DUP4 MLOAD SWAP1 DUP2 MSTORE SWAP1 MLOAD SWAP2 DUP2 ADD SWAP2 SWAP1 SWAP2 MSTORE ADD PUSH2 0x152 JUMP JUMPDEST PUSH2 0x25C PUSH2 0x95A JUMP JUMPDEST PUSH1 0x40 MLOAD PUSH2 0x152 SWAP10 SWAP9 SWAP8 SWAP7 SWAP6 SWAP5 SWAP4 SWAP3 SWAP2 SWAP1 PUSH2 0xFDF JUMP JUMPDEST PUSH2 0x279 PUSH2 0xA22 JUMP JUMPDEST PUSH1 0x5 SLOAD ISZERO DUP1 ISZERO SWAP1 PUSH2 0x28D JUMPI POP PUSH1 0x9 SLOAD PUSH1 0xFF AND ISZERO JUMPDEST ISZERO PUSH2 0x2CC JUMPI PUSH1 0x9 DUP1 SLOAD PUSH2 0xFFFF NOT AND PUSH1 0x1 OR SWAP1 SSTORE PUSH1 0x5 SLOAD PUSH1 0x40 MLOAD PUSH32 0x5B2A724A870CF7FE2C83BD903795D3BA6163EE1091A97587EDF93FF866E22965 SWAP1 PUSH0 SWAP1 LOG2 JUMPDEST JUMP JUMPDEST PUSH2 0x2D6 PUSH2 0xA22 JUMP JUMPDEST PUSH1 0x1 DUP5 PUSH1 0xC DUP2 GT ISZERO PUSH2 0x2EA JUMPI PUSH2 0x2EA PUSH2 0xFAB JUMP JUMPDEST EQ DUP1 PUSH2 0x307 JUMPI POP PUSH1 0x2 DUP5 PUSH1 0xC DUP2 GT ISZERO PUSH2 0x305 JUMPI PUSH2 0x305 PUSH2 0xFAB JUMP JUMPDEST EQ JUMPDEST DUP1 PUSH2 0x323 JUMPI POP PUSH1 0x3 DUP5 PUSH1 0xC DUP2 GT ISZERO PUSH2 0x321 JUMPI PUSH2 0x321 PUSH2 0xFAB JUMP JUMPDEST EQ JUMPDEST DUP1 PUSH2 0x33F JUMPI POP PUSH1 0x4 DUP5 PUSH1 0xC DUP2 GT ISZERO PUSH2 0x33D JUMPI PUSH2 0x33D PUSH2 0xFAB JUMP JUMPDEST EQ JUMPDEST DUP1 PUSH2 0x35B JUMPI POP PUSH1 0x5 DUP5 PUSH1 0xC DUP2 GT ISZERO PUSH2 0x359 JUMPI PUSH2 0x359 PUSH2 0xFAB JUMP JUMPDEST EQ JUMPDEST DUP1 PUSH2 0x377 JUMPI POP PUSH1 0x6 DUP5 PUSH1 0xC DUP2 GT ISZERO PUSH2 0x375 JUMPI PUSH2 0x375 PUSH2 0xFAB JUMP JUMPDEST EQ JUMPDEST DUP1 PUSH2 0x393 JUMPI POP PUSH1 0xB DUP5 PUSH1 0xC DUP2 GT ISZERO PUSH2 0x391 JUMPI PUSH2 0x391 PUSH2 0xFAB JUMP JUMPDEST EQ JUMPDEST DUP1 PUSH2 0x3AF JUMPI POP PUSH1 0xC DUP5 PUSH1 0xC DUP2 GT ISZERO PUSH2 0x3AD JUMPI PUSH2 0x3AD PUSH2 0xFAB JUMP JUMPDEST EQ JUMPDEST PUSH2 0x41F JUMPI PUSH1 0x40 MLOAD PUSH3 0x461BCD PUSH1 0xE5 SHL DUP2 MSTORE PUSH1 0x20 PUSH1 0x4 DUP3 ADD MSTORE PUSH1 0x36 PUSH1 0x24 DUP3 ADD MSTORE PUSH32 0x426974636F696E4E6574666C6F773A20496E76616C696420636F6E646974696F PUSH1 0x44 DUP3 ADD MSTORE PUSH22 0x1B88199BDC881CDA5B99DB19481D1A1C995CDA1BDB19 PUSH1 0x52 SHL PUSH1 0x64 DUP3 ADD MSTORE PUSH1 0x84 ADD JUMPDEST PUSH1 0x40 MLOAD DUP1 SWAP2 SUB SWAP1 REVERT JUMPDEST PUSH1 0x5 SLOAD PUSH0 SUB PUSH2 0x43F JUMPI PUSH1 0xC DUP1 SLOAD SWAP1 PUSH0 PUSH2 0x437 DUP4 PUSH2 0x1066 JUMP JUMPDEST SWAP1 SWAP2 SSTORE POP PUSH1 0x5 SSTORE JUMPDEST PUSH1 0x6 DUP1 SLOAD CALLER PUSH1 0x1 PUSH1 0x1 PUSH1 0xA0 SHL SUB NOT DUP3 AND DUP2 OR DUP4 SSTORE DUP7 SWAP3 SWAP2 PUSH1 0x1 PUSH1 0x1 PUSH1 0xA8 SHL SUB NOT AND PUSH1 0xFF PUSH1 0xA0 SHL NOT SWAP1 SWAP2 AND OR PUSH1 0x1 PUSH1 0xA0 SHL DUP4 PUSH1 0xC DUP2 GT ISZERO PUSH2 0x481 JUMPI PUSH2 0x481 PUSH2 0xFAB JUMP JUMPDEST MUL OR SWAP1 SSTORE POP PUSH1 0x7 DUP4 SWAP1 SSTORE PUSH0 PUSH1 0x8 SSTORE PUSH1 0xB PUSH2 0x49C DUP3 DUP5 DUP4 PUSH2 0x1122 JUMP JUMPDEST POP PUSH1 0x9 DUP1 SLOAD PUSH2 0xFFFF NOT AND PUSH1 0x1 OR SWAP1 SSTORE PUSH0 PUSH1 0xA SSTORE PUSH1 0x5 DUP1 SLOAD PUSH1 0x40 MLOAD SWAP1 SWAP2 PUSH32 0x3440945FEA32B95DB84A1DA2429E3B2489A75EDE5070A7E82BF894273C544032 SWAP2 PUSH2 0x4E4 SWAP2 SWAP1 PUSH2 0x125B JUMP JUMPDEST PUSH1 0x40 MLOAD DUP1 SWAP2 SUB SWAP1 LOG2 POP POP POP POP JUMP JUMPDEST PUSH2 0x4FA PUSH2 0xA22 JUMP JUMPDEST PUSH1 0x5 SLOAD ISZERO DUP1 ISZERO SWAP1 PUSH2 0x512 JUMPI POP PUSH1 0x9 SLOAD PUSH2 0x100 SWAP1 DIV PUSH1 0xFF AND JUMPDEST ISZERO PUSH2 0x2CC JUMPI PUSH1 0x9 DUP1 SLOAD PUSH2 0xFF00 NOT AND SWAP1 SSTORE PUSH1 0x5 SLOAD PUSH1 0x40 MLOAD PUSH32 0xC26F9C3201044D3757E27488CD192595AAF8B176842B2175EF47A4CDF1A53952 SWAP1 PUSH0 SWAP1 LOG2 JUMP JUMPDEST PUSH2 0x557 PUSH2 0xA22 JUMP JUMPDEST PUSH1 0x7 DUP6 PUSH1 0xC DUP2 GT ISZERO PUSH2 0x56B JUMPI PUSH2 0x56B PUSH2 0xFAB JUMP JUMPDEST EQ DUP1 PUSH2 0x588 JUMPI POP PUSH1 0x8 DUP6 PUSH1 0xC DUP2 GT ISZERO PUSH2 0x586 JUMPI PUSH2 0x586 PUSH2 0xFAB JUMP JUMPDEST EQ JUMPDEST DUP1 PUSH2 0x5A4 JUMPI POP PUSH1 0x9 DUP6 PUSH1 0xC DUP2 GT ISZERO PUSH2 0x5A2 JUMPI PUSH2 0x5A2 PUSH2 0xFAB JUMP JUMPDEST EQ JUMPDEST DUP1 PUSH2 0x5C0 JUMPI POP PUSH1 0xA DUP6 PUSH1 0xC DUP2 GT ISZERO PUSH2 0x5BE JUMPI PUSH2 0x5BE PUSH2 0xFAB JUMP JUMPDEST EQ JUMPDEST PUSH2 0x628 JUMPI PUSH1 0x40 MLOAD PUSH3 0x461BCD PUSH1 0xE5 SHL DUP2 MSTORE PUSH1 0x20 PUSH1 0x4 DUP3 ADD MSTORE PUSH1 0x33 PUSH1 0x24 DUP3 ADD MSTORE PUSH32 0x426974636F696E4E6574666C6F773A20496E76616C696420636F6E646974696F PUSH1 0x44 DUP3 ADD MSTORE PUSH19 0x1B88199BDC8818DA185B9B995B08185B195C9D PUSH1 0x6A SHL PUSH1 0x64 DUP3 ADD MSTORE PUSH1 0x84 ADD PUSH2 0x416 JUMP JUMPDEST DUP3 DUP5 SUB PUSH2 0x690 JUMPI PUSH1 0x40 MLOAD PUSH3 0x461BCD PUSH1 0xE5 SHL DUP2 MSTORE PUSH1 0x20 PUSH1 0x4 DUP3 ADD MSTORE PUSH1 0x30 PUSH1 0x24 DUP3 ADD MSTORE PUSH32 0x426974636F696E4E6574666C6F773A204368616E6E656C20626F756E6473206D PUSH1 0x44 DUP3 ADD MSTORE PUSH16 0x1D5CDD08189948191A5999995C995B9D PUSH1 0x82 SHL PUSH1 0x64 DUP3 ADD MSTORE PUSH1 0x84 ADD PUSH2 0x416 JUMP JUMPDEST PUSH1 0x5 SLOAD PUSH0 SUB PUSH2 0x6B0 JUMPI PUSH1 0xC DUP1 SLOAD SWAP1 PUSH0 PUSH2 0x6A8 DUP4 PUSH2 0x1066 JUMP JUMPDEST SWAP1 SWAP2 SSTORE POP PUSH1 0x5 SSTORE JUMPDEST PUSH1 0x6 DUP1 SLOAD CALLER PUSH1 0x1 PUSH1 0x1 PUSH1 0xA0 SHL SUB NOT DUP3 AND DUP2 OR DUP4 SSTORE DUP8 SWAP3 SWAP2 PUSH1 0x1 PUSH1 0x1 PUSH1 0xA8 SHL SUB NOT AND PUSH1 0xFF PUSH1 0xA0 SHL NOT SWAP1 SWAP2 AND OR PUSH1 0x1 PUSH1 0xA0 SHL DUP4 PUSH1 0xC DUP2 GT ISZERO PUSH2 0x6F2 JUMPI PUSH2 0x6F2 PUSH2 0xFAB JUMP JUMPDEST MUL OR SWAP1 SSTORE POP DUP3 DUP5 SLT ISZERO PUSH2 0x70E JUMPI PUSH1 0x7 DUP5 SWAP1 SSTORE PUSH1 0x8 DUP4 SWAP1 SSTORE PUSH2 0x719 JUMP JUMPDEST PUSH1 0x7 DUP4 SWAP1 SSTORE PUSH1 0x8 DUP5 SWAP1 SSTORE JUMPDEST PUSH1 0xB PUSH2 0x726 DUP3 DUP5 DUP4 PUSH2 0x1122 JUMP JUMPDEST POP PUSH1 0x9 DUP1 SLOAD PUSH2 0xFFFF NOT AND PUSH1 0x1 OR SWAP1 SSTORE PUSH0 PUSH1 0xA SSTORE PUSH1 0x5 DUP1 SLOAD PUSH1 0x40 MLOAD SWAP1 SWAP2 PUSH32 0x3440945FEA32B95DB84A1DA2429E3B2489A75EDE5070A7E82BF894273C544032 SWAP2 PUSH2 0x76E SWAP2 SWAP1 PUSH2 0x125B JUMP JUMPDEST PUSH1 0x40 MLOAD DUP1 SWAP2 SUB SWAP1 LOG2 POP POP POP POP POP JUMP JUMPDEST PUSH2 0x785 PUSH2 0xA22 JUMP JUMPDEST PUSH2 0x2CC PUSH0 PUSH2 0xA4E JUMP JUMPDEST PUSH2 0x796 PUSH2 0xA22 JUMP JUMPDEST PUSH1 0x4 SLOAD PUSH1 0xFF AND DUP1 PUSH2 0x7A8 JUMPI POP PUSH1 0x2 SLOAD ISZERO ISZERO JUMPDEST ISZERO PUSH2 0x7B8 JUMPI PUSH1 0x1 SLOAD PUSH1 0x3 SSTORE PUSH2 0x7BE JUMP JUMPDEST PUSH1 0x3 DUP2 SWAP1 SSTORE JUMPDEST PUSH1 0x4 DUP1 SLOAD PUSH1 0xFF NOT AND PUSH1 0x1 SWAP1 DUP2 OR SWAP1 SWAP2 SSTORE DUP2 SWAP1 SSTORE TIMESTAMP PUSH1 0x2 DUP2 SWAP1 SSTORE PUSH1 0x40 DUP1 MLOAD DUP4 DUP2 MSTORE PUSH1 0x20 DUP2 ADD SWAP3 SWAP1 SWAP3 MSTORE PUSH32 0x6AA923A6C9209A2E21AE6E280A4DB9B9EE735A6365236E562B53A25D23C1EF56 SWAP2 ADD PUSH1 0x40 MLOAD DUP1 SWAP2 SUB SWAP1 LOG1 PUSH1 0xD SLOAD PUSH1 0x1 PUSH1 0x1 PUSH1 0xA0 SHL SUB AND ISZERO PUSH2 0x885 JUMPI PUSH1 0xD SLOAD PUSH1 0x40 MLOAD PUSH4 0x2A57F87B PUSH1 0xE2 SHL DUP2 MSTORE PUSH1 0x1 SLOAD PUSH1 0x4 DUP3 ADD MSTORE PUSH1 0x2 SLOAD PUSH1 0x24 DUP3 ADD MSTORE PUSH1 0x1 PUSH1 0x1 PUSH1 0xA0 SHL SUB SWAP1 SWAP2 AND SWAP1 PUSH4 0xA95FE1EC SWAP1 PUSH1 0x44 ADD PUSH0 PUSH1 0x40 MLOAD DUP1 DUP4 SUB DUP2 PUSH0 DUP8 DUP1 EXTCODESIZE ISZERO DUP1 ISZERO PUSH2 0x86E JUMPI PUSH0 PUSH0 REVERT JUMPDEST POP GAS CALL ISZERO DUP1 ISZERO PUSH2 0x880 JUMPI RETURNDATASIZE PUSH0 PUSH0 RETURNDATACOPY RETURNDATASIZE PUSH0 REVERT JUMPDEST POP POP POP POP JUMPDEST PUSH1 0x1 SLOAD PUSH1 0x3 SLOAD PUSH1 0x4 SLOAD PUSH2 0x89C SWAP3 SWAP2 SWAP1 PUSH1 0xFF AND PUSH2 0xA9D JUMP JUMPDEST POP JUMP JUMPDEST PUSH2 0x8A7 PUSH2 0xA22 JUMP JUMPDEST PUSH1 0xD DUP1 SLOAD PUSH1 0x1 PUSH1 0x1 PUSH1 0xA0 SHL SUB NOT AND PUSH1 0x1 PUSH1 0x1 PUSH1 0xA0 SHL SUB SWAP3 SWAP1 SWAP3 AND SWAP2 SWAP1 SWAP2 OR SWAP1 SSTORE JUMP JUMPDEST PUSH2 0x8D1 PUSH2 0xA22 JUMP JUMPDEST PUSH1 0x5 SLOAD ISZERO DUP1 ISZERO SWAP1 PUSH2 0x8E4 JUMPI POP PUSH1 0x9 SLOAD PUSH1 0xFF AND JUMPDEST ISZERO PUSH2 0x2CC JUMPI PUSH1 0x9 DUP1 SLOAD PUSH1 0xFF NOT AND SWAP1 SSTORE PUSH1 0x5 SLOAD PUSH1 0x40 MLOAD PUSH32 0xD7D997A7D5BB0E259C4BCBF9213B950FC2D302D3D30540C7671B3C2E6D33088D SWAP1 PUSH0 SWAP1 LOG2 JUMP JUMPDEST PUSH2 0x928 PUSH2 0xA22 JUMP JUMPDEST PUSH1 0x1 PUSH1 0x1 PUSH1 0xA0 SHL SUB DUP2 AND PUSH2 0x951 JUMPI PUSH1 0x40 MLOAD PUSH4 0x1E4FBDF7 PUSH1 0xE0 SHL DUP2 MSTORE PUSH0 PUSH1 0x4 DUP3 ADD MSTORE PUSH1 0x24 ADD PUSH2 0x416 JUMP JUMPDEST PUSH2 0x89C DUP2 PUSH2 0xA4E JUMP JUMPDEST PUSH1 0x5 DUP1 SLOAD PUSH1 0x6 SLOAD PUSH1 0x7 SLOAD PUSH1 0x8 SLOAD PUSH1 0x9 SLOAD PUSH1 0xA SLOAD PUSH1 0xB DUP1 SLOAD SWAP7 SWAP8 PUSH1 0x1 PUSH1 0x1 PUSH1 0xA0 SHL SUB DUP8 AND SWAP8 PUSH1 0xFF PUSH1 0x1 PUSH1 0xA0 SHL SWAP1 SWAP9 DIV DUP9 AND SWAP8 DUP6 DUP2 AND SWAP6 PUSH2 0x100 SWAP1 DIV AND SWAP4 SWAP3 SWAP1 PUSH2 0x9A1 SWAP1 PUSH2 0x109E JUMP JUMPDEST DUP1 PUSH1 0x1F ADD PUSH1 0x20 DUP1 SWAP2 DIV MUL PUSH1 0x20 ADD PUSH1 0x40 MLOAD SWAP1 DUP2 ADD PUSH1 0x40 MSTORE DUP1 SWAP3 SWAP2 SWAP1 DUP2 DUP2 MSTORE PUSH1 0x20 ADD DUP3 DUP1 SLOAD PUSH2 0x9CD SWAP1 PUSH2 0x109E JUMP JUMPDEST DUP1 ISZERO PUSH2 0xA18 JUMPI DUP1 PUSH1 0x1F LT PUSH2 0x9EF JUMPI PUSH2 0x100 DUP1 DUP4 SLOAD DIV MUL DUP4 MSTORE SWAP2 PUSH1 0x20 ADD SWAP2 PUSH2 0xA18 JUMP JUMPDEST DUP3 ADD SWAP2 SWAP1 PUSH0 MSTORE PUSH1 0x20 PUSH0 KECCAK256 SWAP1 JUMPDEST DUP2 SLOAD DUP2 MSTORE SWAP1 PUSH1 0x1 ADD SWAP1 PUSH1 0x20 ADD DUP1 DUP4 GT PUSH2 0x9FB JUMPI DUP3 SWAP1 SUB PUSH1 0x1F AND DUP3 ADD SWAP2 JUMPDEST POP POP POP POP POP SWAP1 POP DUP10 JUMP JUMPDEST PUSH0 SLOAD PUSH1 0x1 PUSH1 0x1 PUSH1 0xA0 SHL SUB AND CALLER EQ PUSH2 0x2CC JUMPI PUSH1 0x40 MLOAD PUSH4 0x118CDAA7 PUSH1 0xE0 SHL DUP2 MSTORE CALLER PUSH1 0x4 DUP3 ADD MSTORE PUSH1 0x24 ADD PUSH2 0x416 JUMP JUMPDEST PUSH0 DUP1 SLOAD PUSH1 0x1 PUSH1 0x1 PUSH1 0xA0 SHL SUB DUP4 DUP2 AND PUSH1 0x1 PUSH1 0x1 PUSH1 0xA0 SHL SUB NOT DUP4 AND DUP2 OR DUP5 SSTORE PUSH1 0x40 MLOAD SWAP2 SWAP1 SWAP3 AND SWAP3 DUP4 SWAP2 PUSH32 0x8BE0079C531659141344CD1FD0A4F28419497F9722A3DAAFE3B4186F6B6457E0 SWAP2 SWAP1 LOG3 POP POP JUMP JUMPDEST PUSH1 0x9 SLOAD PUSH1 0xFF AND ISZERO DUP1 PUSH2 0xAB6 JUMPI POP PUSH1 0x9 SLOAD PUSH2 0x100 SWAP1 DIV PUSH1 0xFF AND JUMPDEST DUP1 PUSH2 0xAC1 JUMPI POP PUSH1 0x5 SLOAD ISZERO JUMPDEST ISZERO PUSH2 0xACB JUMPI POP POP POP JUMP JUMPDEST PUSH1 0x6 SLOAD PUSH1 0x7 SLOAD PUSH1 0x8 SLOAD PUSH0 SWAP3 PUSH1 0x1 PUSH1 0xA0 SHL SWAP1 DIV PUSH1 0xFF AND SWAP2 SWAP1 DUP2 SWAP1 PUSH1 0x1 DUP5 PUSH1 0xC DUP2 GT ISZERO PUSH2 0xAF8 JUMPI PUSH2 0xAF8 PUSH2 0xFAB JUMP JUMPDEST SUB PUSH2 0xB0F JUMPI DUP3 DUP9 SGT ISZERO PUSH2 0xB0A JUMPI PUSH1 0x1 SWAP5 POP JUMPDEST PUSH2 0xD7A JUMP JUMPDEST PUSH1 0x2 DUP5 PUSH1 0xC DUP2 GT ISZERO PUSH2 0xB23 JUMPI PUSH2 0xB23 PUSH2 0xFAB JUMP JUMPDEST SUB PUSH2 0xB39 JUMPI DUP3 DUP9 SLT ISZERO PUSH2 0xB0A JUMPI PUSH1 0x1 SWAP5 POP PUSH2 0xD7A JUMP JUMPDEST PUSH1 0x3 DUP5 PUSH1 0xC DUP2 GT ISZERO PUSH2 0xB4D JUMPI PUSH2 0xB4D PUSH2 0xFAB JUMP JUMPDEST SUB PUSH2 0xB62 JUMPI DUP3 DUP9 SUB PUSH2 0xB0A JUMPI PUSH1 0x1 SWAP5 POP PUSH2 0xD7A JUMP JUMPDEST DUP6 ISZERO PUSH2 0xD7A JUMPI PUSH1 0x4 DUP5 PUSH1 0xC DUP2 GT ISZERO PUSH2 0xB7C JUMPI PUSH2 0xB7C PUSH2 0xFAB JUMP JUMPDEST SUB PUSH2 0xBB3 JUMPI DUP3 DUP8 SLT DUP1 ISZERO PUSH2 0xB90 JUMPI POP DUP3 DUP9 SLT ISZERO JUMPDEST DUP1 PUSH2 0xBA5 JUMPI POP DUP3 DUP8 SGT DUP1 ISZERO PUSH2 0xBA5 JUMPI POP DUP3 DUP9 SGT ISZERO JUMPDEST ISZERO PUSH2 0xB0A JUMPI PUSH1 0x1 SWAP5 POP PUSH2 0xD7A JUMP JUMPDEST PUSH1 0x5 DUP5 PUSH1 0xC DUP2 GT ISZERO PUSH2 0xBC7 JUMPI PUSH2 0xBC7 PUSH2 0xFAB JUMP JUMPDEST SUB PUSH2 0xBE6 JUMPI DUP3 DUP8 SLT DUP1 ISZERO PUSH2 0xBA5 JUMPI POP DUP3 DUP9 SLT PUSH2 0xB0A JUMPI PUSH1 0x1 SWAP5 POP PUSH2 0xD7A JUMP JUMPDEST PUSH1 0x6 DUP5 PUSH1 0xC DUP2 GT ISZERO PUSH2 0xBFA JUMPI PUSH2 0xBFA PUSH2 0xFAB JUMP JUMPDEST SUB PUSH2 0xC19 JUMPI DUP3 DUP8 SGT DUP1 ISZERO PUSH2 0xBA5 JUMPI POP DUP3 DUP9 SGT PUSH2 0xB0A JUMPI PUSH1 0x1 SWAP5 POP PUSH2 0xD7A JUMP JUMPDEST PUSH1 0x7 DUP5 PUSH1 0xC DUP2 GT ISZERO PUSH2 0xC2D JUMPI PUSH2 0xC2D PUSH2 0xFAB JUMP JUMPDEST SUB PUSH2 0xC70 JUMPI PUSH0 DUP3 DUP9 SLT DUP1 PUSH2 0xC40 JUMPI POP DUP2 DUP9 SGT JUMPDEST SWAP1 POP PUSH0 DUP4 DUP11 SLT ISZERO DUP1 ISZERO PUSH2 0xC53 JUMPI POP DUP3 DUP11 SGT ISZERO JUMPDEST SWAP1 POP DUP2 DUP1 ISZERO PUSH2 0xC5F JUMPI POP DUP1 JUMPDEST ISZERO PUSH2 0xC69 JUMPI PUSH1 0x1 SWAP7 POP JUMPDEST POP POP PUSH2 0xD7A JUMP JUMPDEST PUSH1 0x8 DUP5 PUSH1 0xC DUP2 GT ISZERO PUSH2 0xC84 JUMPI PUSH2 0xC84 PUSH2 0xFAB JUMP JUMPDEST SUB PUSH2 0xCC3 JUMPI PUSH0 DUP3 DUP9 SLT ISZERO DUP1 ISZERO PUSH2 0xC9A JUMPI POP DUP2 DUP9 SGT ISZERO JUMPDEST SWAP1 POP PUSH0 DUP4 DUP11 SLT DUP1 PUSH2 0xC53 JUMPI POP POP DUP2 DUP10 SGT DUP2 DUP1 ISZERO PUSH2 0xC5F JUMPI POP DUP1 ISZERO PUSH2 0xC69 JUMPI PUSH1 0x1 SWAP7 POP POP POP PUSH2 0xD7A JUMP JUMPDEST PUSH1 0x9 DUP5 PUSH1 0xC DUP2 GT ISZERO PUSH2 0xCD7 JUMPI PUSH2 0xCD7 PUSH2 0xFAB JUMP JUMPDEST SUB PUSH2 0xCF7 JUMPI DUP2 DUP9 SLT ISZERO DUP1 ISZERO PUSH2 0xBA5 JUMPI POP DUP1 DUP9 SGT PUSH2 0xB0A JUMPI PUSH1 0x1 SWAP5 POP PUSH2 0xD7A JUMP JUMPDEST PUSH1 0xA DUP5 PUSH1 0xC DUP2 GT ISZERO PUSH2 0xD0B JUMPI PUSH2 0xD0B PUSH2 0xFAB JUMP JUMPDEST SUB PUSH2 0xD2A JUMPI DUP2 DUP9 SLT DUP1 PUSH2 0xBA5 JUMPI POP DUP1 DUP9 SGT ISZERO PUSH2 0xB0A JUMPI PUSH1 0x1 SWAP5 POP PUSH2 0xD7A JUMP JUMPDEST PUSH1 0xB DUP5 PUSH1 0xC DUP2 GT ISZERO PUSH2 0xD3E JUMPI PUSH2 0xD3E PUSH2 0xFAB JUMP JUMPDEST SUB PUSH2 0xD54 JUMPI DUP7 DUP9 SGT ISZERO PUSH2 0xB0A JUMPI PUSH1 0x1 SWAP5 POP PUSH2 0xD7A JUMP JUMPDEST PUSH1 0xC DUP5 PUSH1 0xC DUP2 GT ISZERO PUSH2 0xD68 JUMPI PUSH2 0xD68 PUSH2 0xFAB JUMP JUMPDEST SUB PUSH2 0xD7A JUMPI DUP7 DUP9 SLT ISZERO PUSH2 0xD7A JUMPI PUSH1 0x1 SWAP5 POP JUMPDEST DUP5 ISZERO PUSH2 0xE4C JUMPI PUSH1 0x9 DUP1 SLOAD PUSH2 0xFF00 NOT AND PUSH2 0x100 OR SWAP1 SSTORE TIMESTAMP PUSH1 0xA SSTORE PUSH1 0x5 SLOAD PUSH1 0x40 MLOAD PUSH32 0xFD1237999C3A51192C69C42973F8AFDB29066BCACB8F3B3569F68F8711272809 SWAP1 PUSH2 0xDC9 SWAP1 DUP12 SWAP1 PUSH1 0xB SWAP1 PUSH2 0x12EC JUMP JUMPDEST PUSH1 0x40 MLOAD DUP1 SWAP2 SUB SWAP1 LOG2 PUSH1 0xD SLOAD PUSH1 0x1 PUSH1 0x1 PUSH1 0xA0 SHL SUB AND ISZERO PUSH2 0xE4C JUMPI PUSH1 0xD SLOAD PUSH1 0x5 SLOAD PUSH1 0x6 SLOAD PUSH1 0x40 MLOAD PUSH4 0xFBE93DE3 PUSH1 0xE0 SHL DUP2 MSTORE PUSH1 0x1 PUSH1 0x1 PUSH1 0xA0 SHL SUB SWAP4 DUP5 AND SWAP4 PUSH4 0xFBE93DE3 SWAP4 PUSH2 0xE1E SWAP4 SWAP1 SWAP3 SWAP2 AND SWAP1 PUSH1 0xB SWAP1 PUSH1 0x4 ADD PUSH2 0x130C JUMP JUMPDEST PUSH0 PUSH1 0x40 MLOAD DUP1 DUP4 SUB DUP2 PUSH0 DUP8 DUP1 EXTCODESIZE ISZERO DUP1 ISZERO PUSH2 0xE35 JUMPI PUSH0 PUSH0 REVERT JUMPDEST POP GAS CALL ISZERO DUP1 ISZERO PUSH2 0xE47 JUMPI RETURNDATASIZE PUSH0 PUSH0 RETURNDATACOPY RETURNDATASIZE PUSH0 REVERT JUMPDEST POP POP POP POP JUMPDEST POP POP POP POP POP POP POP POP JUMP JUMPDEST DUP1 CALLDATALOAD PUSH1 0xD DUP2 LT PUSH2 0xE64 JUMPI PUSH0 PUSH0 REVERT JUMPDEST SWAP2 SWAP1 POP JUMP JUMPDEST PUSH0 PUSH0 DUP4 PUSH1 0x1F DUP5 ADD SLT PUSH2 0xE79 JUMPI PUSH0 PUSH0 REVERT JUMPDEST POP DUP2 CALLDATALOAD PUSH8 0xFFFFFFFFFFFFFFFF DUP2 GT ISZERO PUSH2 0xE90 JUMPI PUSH0 PUSH0 REVERT JUMPDEST PUSH1 0x20 DUP4 ADD SWAP2 POP DUP4 PUSH1 0x20 DUP3 DUP6 ADD ADD GT ISZERO PUSH2 0xEA7 JUMPI PUSH0 PUSH0 REVERT JUMPDEST SWAP3 POP SWAP3 SWAP1 POP JUMP JUMPDEST PUSH0 PUSH0 PUSH0 PUSH0 PUSH1 0x60 DUP6 DUP8 SUB SLT ISZERO PUSH2 0xEC1 JUMPI PUSH0 PUSH0 REVERT JUMPDEST PUSH2 0xECA DUP6 PUSH2 0xE56 JUMP JUMPDEST SWAP4 POP PUSH1 0x20 DUP6 ADD CALLDATALOAD SWAP3 POP PUSH1 0x40 DUP6 ADD CALLDATALOAD PUSH8 0xFFFFFFFFFFFFFFFF DUP2 GT ISZERO PUSH2 0xEEC JUMPI PUSH0 PUSH0 REVERT JUMPDEST PUSH2 0xEF8 DUP8 DUP3 DUP9 ADD PUSH2 0xE69 JUMP JUMPDEST SWAP6 SWAP9 SWAP5 SWAP8 POP SWAP6 POP POP POP POP JUMP JUMPDEST PUSH0 PUSH0 PUSH0 PUSH0 PUSH0 PUSH1 0x80 DUP7 DUP9 SUB SLT ISZERO PUSH2 0xF18 JUMPI PUSH0 PUSH0 REVERT JUMPDEST PUSH2 0xF21 DUP7 PUSH2 0xE56 JUMP JUMPDEST SWAP5 POP PUSH1 0x20 DUP7 ADD CALLDATALOAD SWAP4 POP PUSH1 0x40 DUP7 ADD CALLDATALOAD SWAP3 POP PUSH1 0x60 DUP7 ADD CALLDATALOAD PUSH8 0xFFFFFFFFFFFFFFFF DUP2 GT ISZERO PUSH2 0xF4A JUMPI PUSH0 PUSH0 REVERT JUMPDEST PUSH2 0xF56 DUP9 DUP3 DUP10 ADD PUSH2 0xE69 JUMP JUMPDEST SWAP7 SWAP10 SWAP6 SWAP9 POP SWAP4 SWAP7 POP SWAP3 SWAP5 SWAP4 SWAP3 POP POP POP JUMP JUMPDEST PUSH0 PUSH1 0x20 DUP3 DUP5 SUB SLT ISZERO PUSH2 0xF77 JUMPI PUSH0 PUSH0 REVERT JUMPDEST POP CALLDATALOAD SWAP2 SWAP1 POP JUMP JUMPDEST PUSH0 PUSH1 0x20 DUP3 DUP5 SUB SLT ISZERO PUSH2 0xF8E JUMPI PUSH0 PUSH0 REVERT JUMPDEST DUP2 CALLDATALOAD PUSH1 0x1 PUSH1 0x1 PUSH1 0xA0 SHL SUB DUP2 AND DUP2 EQ PUSH2 0xFA4 JUMPI PUSH0 PUSH0 REVERT JUMPDEST SWAP4 SWAP3 POP POP POP JUMP JUMPDEST PUSH4 0x4E487B71 PUSH1 0xE0 SHL PUSH0 MSTORE PUSH1 0x21 PUSH1 0x4 MSTORE PUSH1 0x24 PUSH0 REVERT JUMPDEST PUSH1 0xD DUP2 LT PUSH2 0xFDB JUMPI PUSH4 0x4E487B71 PUSH1 0xE0 SHL PUSH0 MSTORE PUSH1 0x21 PUSH1 0x4 MSTORE PUSH1 0x24 PUSH0 REVERT JUMPDEST SWAP1 MSTORE JUMP JUMPDEST DUP10 DUP2 MSTORE PUSH1 0x1 PUSH1 0x1 PUSH1 0xA0 SHL SUB DUP10 AND PUSH1 0x20 DUP3 ADD MSTORE PUSH2 0xFFE PUSH1 0x40 DUP3 ADD DUP10 PUSH2 0xFBF JUMP JUMPDEST DUP7 PUSH1 0x60 DUP3 ADD MSTORE DUP6 PUSH1 0x80 DUP3 ADD MSTORE DUP5 ISZERO ISZERO PUSH1 0xA0 DUP3 ADD MSTORE DUP4 ISZERO ISZERO PUSH1 0xC0 DUP3 ADD MSTORE DUP3 PUSH1 0xE0 DUP3 ADD MSTORE PUSH2 0x120 PUSH2 0x100 DUP3 ADD MSTORE PUSH0 DUP3 MLOAD DUP1 PUSH2 0x120 DUP5 ADD MSTORE DUP1 PUSH1 0x20 DUP6 ADD PUSH2 0x140 DUP6 ADD MCOPY PUSH0 PUSH2 0x140 DUP3 DUP6 ADD ADD MSTORE PUSH2 0x140 PUSH1 0x1F NOT PUSH1 0x1F DUP4 ADD AND DUP5 ADD ADD SWAP2 POP POP SWAP11 SWAP10 POP POP POP POP POP POP POP POP POP POP JUMP JUMPDEST PUSH0 PUSH1 0x1 DUP3 ADD PUSH2 0x1083 JUMPI PUSH4 0x4E487B71 PUSH1 0xE0 SHL PUSH0 MSTORE PUSH1 0x11 PUSH1 0x4 MSTORE PUSH1 0x24 PUSH0 REVERT JUMPDEST POP PUSH1 0x1 ADD SWAP1 JUMP JUMPDEST PUSH4 0x4E487B71 PUSH1 0xE0 SHL PUSH0 MSTORE PUSH1 0x41 PUSH1 0x4 MSTORE PUSH1 0x24 PUSH0 REVERT JUMPDEST PUSH1 0x1 DUP2 DUP2 SHR SWAP1 DUP3 AND DUP1 PUSH2 0x10B2 JUMPI PUSH1 0x7F DUP3 AND SWAP2 POP JUMPDEST PUSH1 0x20 DUP3 LT DUP2 SUB PUSH2 0x10D0 JUMPI PUSH4 0x4E487B71 PUSH1 0xE0 SHL PUSH0 MSTORE PUSH1 0x22 PUSH1 0x4 MSTORE PUSH1 0x24 PUSH0 REVERT JUMPDEST POP SWAP2 SWAP1 POP JUMP JUMPDEST PUSH1 0x1F DUP3 GT ISZERO PUSH2 0x111D JUMPI DUP1 PUSH0 MSTORE PUSH1 0x20 PUSH0 KECCAK256 PUSH1 0x1F DUP5 ADD PUSH1 0x5 SHR DUP2 ADD PUSH1 0x20 DUP6 LT ISZERO PUSH2 0x10FB JUMPI POP DUP1 JUMPDEST PUSH1 0x1F DUP5 ADD PUSH1 0x5 SHR DUP3 ADD SWAP2 POP JUMPDEST DUP2 DUP2 LT ISZERO PUSH2 0x111A JUMPI PUSH0 DUP2 SSTORE PUSH1 0x1 ADD PUSH2 0x1107 JUMP JUMPDEST POP POP JUMPDEST POP POP POP JUMP JUMPDEST PUSH8 0xFFFFFFFFFFFFFFFF DUP4 GT ISZERO PUSH2 0x113A JUMPI PUSH2 0x113A PUSH2 0x108A JUMP JUMPDEST PUSH2 0x114E DUP4 PUSH2 0x1148 DUP4 SLOAD PUSH2 0x109E JUMP JUMPDEST DUP4 PUSH2 0x10D6 JUMP JUMPDEST PUSH0 PUSH1 0x1F DUP5 GT PUSH1 0x1 DUP2 EQ PUSH2 0x117F JUMPI PUSH0 DUP6 ISZERO PUSH2 0x1168 JUMPI POP DUP4 DUP3 ADD CALLDATALOAD JUMPDEST PUSH0 NOT PUSH1 0x3 DUP8 SWAP1 SHL SHR NOT AND PUSH1 0x1 DUP7 SWAP1 SHL OR DUP4 SSTORE PUSH2 0x111A JUMP JUMPDEST PUSH0 DUP4 DUP2 MSTORE PUSH1 0x20 DUP2 KECCAK256 PUSH1 0x1F NOT DUP8 AND SWAP2 JUMPDEST DUP3 DUP2 LT ISZERO PUSH2 0x11AE JUMPI DUP7 DUP6 ADD CALLDATALOAD DUP3 SSTORE PUSH1 0x20 SWAP5 DUP6 ADD SWAP5 PUSH1 0x1 SWAP1 SWAP3 ADD SWAP2 ADD PUSH2 0x118E JUMP JUMPDEST POP DUP7 DUP3 LT ISZERO PUSH2 0x11CA JUMPI PUSH0 NOT PUSH1 0xF8 DUP9 PUSH1 0x3 SHL AND SHR NOT DUP5 DUP8 ADD CALLDATALOAD AND DUP2 SSTORE JUMPDEST POP POP PUSH1 0x1 DUP6 PUSH1 0x1 SHL ADD DUP4 SSTORE POP POP POP POP POP JUMP JUMPDEST PUSH0 DUP2 SLOAD PUSH2 0x11E8 DUP2 PUSH2 0x109E JUMP JUMPDEST DUP1 DUP6 MSTORE PUSH1 0x1 DUP3 AND DUP1 ISZERO PUSH2 0x1202 JUMPI PUSH1 0x1 DUP2 EQ PUSH2 0x121E JUMPI PUSH2 0x1252 JUMP JUMPDEST PUSH1 0xFF NOT DUP4 AND PUSH1 0x20 DUP8 ADD MSTORE PUSH1 0x20 DUP3 ISZERO ISZERO PUSH1 0x5 SHL DUP8 ADD ADD SWAP4 POP PUSH2 0x1252 JUMP JUMPDEST DUP5 PUSH0 MSTORE PUSH1 0x20 PUSH0 KECCAK256 PUSH0 JUMPDEST DUP4 DUP2 LT ISZERO PUSH2 0x1249 JUMPI DUP2 SLOAD PUSH1 0x20 DUP3 DUP11 ADD ADD MSTORE PUSH1 0x1 DUP3 ADD SWAP2 POP PUSH1 0x20 DUP2 ADD SWAP1 POP PUSH2 0x1227 JUMP JUMPDEST DUP8 ADD PUSH1 0x20 ADD SWAP5 POP POP JUMPDEST POP POP POP SWAP3 SWAP2 POP POP JUMP JUMPDEST PUSH1 0x20 DUP1 DUP3 MSTORE DUP3 SLOAD SWAP1 DUP3 ADD MSTORE PUSH1 0x1 DUP3 ADD SLOAD PUSH1 0x1 PUSH1 0x1 PUSH1 0xA0 SHL SUB DUP2 AND PUSH1 0x40 DUP4 ADD MSTORE PUSH0 SWAP1 PUSH2 0x128F PUSH1 0x60 DUP5 ADD PUSH1 0xFF DUP4 PUSH1 0xA0 SHR AND PUSH2 0xFBF JUMP JUMPDEST POP PUSH1 0x2 DUP4 ADD SLOAD PUSH1 0x80 DUP4 ADD MSTORE PUSH1 0x3 DUP4 ADD SLOAD PUSH1 0xA0 DUP4 ADD MSTORE PUSH1 0x4 DUP4 ADD SLOAD PUSH1 0xFF DUP2 AND ISZERO ISZERO PUSH1 0xC0 DUP5 ADD MSTORE PUSH2 0x12C8 PUSH1 0xE0 DUP5 ADD PUSH1 0xFF DUP4 PUSH1 0x8 SHR AND ISZERO ISZERO SWAP1 MSTORE JUMP JUMPDEST POP PUSH1 0x5 DUP4 ADD SLOAD PUSH2 0x100 DUP4 ADD MSTORE PUSH2 0x120 DUP1 DUP4 ADD MSTORE PUSH2 0xFA4 PUSH2 0x140 DUP4 ADD PUSH1 0x6 DUP6 ADD PUSH2 0x11DC JUMP JUMPDEST DUP3 DUP2 MSTORE PUSH1 0x40 PUSH1 0x20 DUP3 ADD MSTORE PUSH0 PUSH2 0x1304 PUSH1 0x40 DUP4 ADD DUP5 PUSH2 0x11DC JUMP JUMPDEST SWAP5 SWAP4 POP POP POP POP JUMP JUMPDEST DUP4 DUP2 MSTORE PUSH1 0x1 PUSH1 0x1 PUSH1 0xA0 SHL SUB DUP4 AND PUSH1 0x20 DUP3 ADD MSTORE PUSH1 0x60 PUSH1 0x40 DUP3 ADD DUP2 SWAP1 MSTORE PUSH0 SWAP1 PUSH2 0x1335 SWAP1 DUP4 ADD DUP5 PUSH2 0x11DC JUMP JUMPDEST SWAP6 SWAP5 POP POP POP POP POP JUMP INVALID LOG2 PUSH5 0x6970667358 0x22 SLT KECCAK256 0xDD 0xAE 0xF6 DUP11 CALLDATACOPY 0xEF SHL SMOD 0xEA 0xBC 0xED 0xAE 0x2A JUMPF 0x1A5E 0xC1 OR RETF RETURNDATACOPY 0xA9 PUSH26 0x585732946C66F2E5927D64736F6C634300081E00330000000000 "
		},
		"gasEstimates": {
			"creation": {
				"codeDepositCost": "996000",
				"executionCost": "infinite",
				"totalCost": "infinite"
			},
			"external": {
				"activateAlert()": "infinite",
				"configureChannelAlert(uint8,int256,int256,string)": "infinite",
				"configureSingleThresholdAlert(uint8,int256,string)": "infinite",
				"currentNetflow()": "4449",
				"dashboardNotifier()": "2403",
				"getCurrentNetflow()": "4585",
				"hasPreviousNetflowAmount()": "2376",
				"netflowAlert()": "infinite",
				"owner()": "2352",
				"previousNetflowAmount()": "2328",
				"renounceOwnership()": "infinite",
				"resetAlertTriggerState()": "infinite",
				"setDashboardNotifier(address)": "26742",
				"transferOwnership(address)": "28338",
				"turnOffAlert()": "infinite",
				"updateNetflow(int256)": "infinite"
			},
			"internal": {
				"checkAndTriggerAlert(int256,int256,bool)": "infinite"
			}
		},
		"methodIdentifiers": {
			"activateAlert()": "2f66b011",
			"configureChannelAlert(uint8,int256,int256,string)": "651a96af",
			"configureSingleThresholdAlert(uint8,int256,string)": "311e4319",
			"currentNetflow()": "bf25c80c",
			"dashboardNotifier()": "80b3880c",
			"getCurrentNetflow()": "f608a360",
			"hasPreviousNetflowAmount()": "a82b9060",
			"netflowAlert()": "f68baac1",
			"owner()": "8da5cb5b",
			"previousNetflowAmount()": "7aad4061",
			"renounceOwnership()": "715018a6",
			"resetAlertTriggerState()": "440c1ec9",
			"setDashboardNotifier(address)": "9d2ed12b",
			"transferOwnership(address)": "f2fde38b",
			"turnOffAlert()": "ac57e64e",
			"updateNetflow(int256)": "8804d1b3"
		}
	},
	"abi": [
		{
			"inputs": [
				{
					"internalType": "address",
					"name": "_initialOwner",
					"type": "address"
				},
				{
					"internalType": "address",
					"name": "_dashboardNotifierAddress",
					"type": "address"
				}
			],
			"stateMutability": "nonpayable",
			"type": "constructor"
		},
		{
			"inputs": [
				{
					"internalType": "address",
					"name": "owner",
					"type": "address"
				}
			],
			"name": "OwnableInvalidOwner",
			"type": "error"
		},
		{
			"inputs": [
				{
					"internalType": "address",
					"name": "account",
					"type": "address"
				}
			],
			"name": "OwnableUnauthorizedAccount",
			"type": "error"
		},
		{
			"anonymous": false,
			"inputs": [
				{
					"indexed": true,
					"internalType": "uint256",
					"name": "alertId",
					"type": "uint256"
				}
			],
			"name": "AlertActivated",
			"type": "event"
		},
		{
			"anonymous": false,
			"inputs": [
				{
					"indexed": true,
					"internalType": "uint256",
					"name": "alertId",
					"type": "uint256"
				},
				{
					"components": [
						{
							"internalType": "uint256",
							"name": "id",
							"type": "uint256"
						},
						{
							"internalType": "address",
							"name": "user",
							"type": "address"
						},
						{
							"internalType": "enum DataTypes.AlertCondition",
							"name": "condition",
							"type": "uint8"
						},
						{
							"internalType": "int256",
							"name": "threshold1",
							"type": "int256"
						},
						{
							"internalType": "int256",
							"name": "threshold2",
							"type": "int256"
						},
						{
							"internalType": "bool",
							"name": "isActive",
							"type": "bool"
						},
						{
							"internalType": "bool",
							"name": "isTriggered",
							"type": "bool"
						},
						{
							"internalType": "uint256",
							"name": "lastTriggeredAt",
							"type": "uint256"
						},
						{
							"internalType": "string",
							"name": "message",
							"type": "string"
						}
					],
					"indexed": false,
					"internalType": "struct DataTypes.AlertConfig",
					"name": "config",
					"type": "tuple"
				}
			],
			"name": "AlertConfigured",
			"type": "event"
		},
		{
			"anonymous": false,
			"inputs": [
				{
					"indexed": true,
					"internalType": "uint256",
					"name": "alertId",
					"type": "uint256"
				}
			],
			"name": "AlertDeactivated",
			"type": "event"
		},
		{
			"anonymous": false,
			"inputs": [
				{
					"indexed": true,
					"internalType": "uint256",
					"name": "alertId",
					"type": "uint256"
				}
			],
			"name": "AlertTriggerReset",
			"type": "event"
		},
		{
			"anonymous": false,
			"inputs": [
				{
					"indexed": true,
					"internalType": "uint256",
					"name": "alertId",
					"type": "uint256"
				},
				{
					"indexed": false,
					"internalType": "int256",
					"name": "currentValue",
					"type": "int256"
				},
				{
					"indexed": false,
					"internalType": "string",
					"name": "message",
					"type": "string"
				}
			],
			"name": "AlertTriggered",
			"type": "event"
		},
		{
			"anonymous": false,
			"inputs": [
				{
					"components": [
						{
							"internalType": "int256",
							"name": "amount",
							"type": "int256"
						},
						{
							"internalType": "uint256",
							"name": "lastUpdatedAt",
							"type": "uint256"
						}
					],
					"indexed": false,
					"internalType": "struct DataTypes.NetflowInfo",
					"name": "netflow",
					"type": "tuple"
				}
			],
			"name": "NetflowUpdated",
			"type": "event"
		},
		{
			"anonymous": false,
			"inputs": [
				{
					"indexed": true,
					"internalType": "address",
					"name": "previousOwner",
					"type": "address"
				},
				{
					"indexed": true,
					"internalType": "address",
					"name": "newOwner",
					"type": "address"
				}
			],
			"name": "OwnershipTransferred",
			"type": "event"
		},
		{
			"inputs": [],
			"name": "activateAlert",
			"outputs": [],
			"stateMutability": "nonpayable",
			"type": "function"
		},
		{
			"inputs": [
				{
					"internalType": "enum DataTypes.AlertCondition",
					"name": "_condition",
					"type": "uint8"
				},
				{
					"internalType": "int256",
					"name": "_bound1",
					"type": "int256"
				},
				{
					"internalType": "int256",
					"name": "_bound2",
					"type": "int256"
				},
				{
					"internalType": "string",
					"name": "_message",
					"type": "string"
				}
			],
			"name": "configureChannelAlert",
			"outputs": [],
			"stateMutability": "nonpayable",
			"type": "function"
		},
		{
			"inputs": [
				{
					"internalType": "enum DataTypes.AlertCondition",
					"name": "_condition",
					"type": "uint8"
				},
				{
					"internalType": "int256",
					"name": "_threshold1",
					"type": "int256"
				},
				{
					"internalType": "string",
					"name": "_message",
					"type": "string"
				}
			],
			"name": "configureSingleThresholdAlert",
			"outputs": [],
			"stateMutability": "nonpayable",
			"type": "function"
		},
		{
			"inputs": [],
			"name": "currentNetflow",
			"outputs": [
				{
					"internalType": "int256",
					"name": "amount",
					"type": "int256"
				},
				{
					"internalType": "uint256",
					"name": "lastUpdatedAt",
					"type": "uint256"
				}
			],
			"stateMutability": "view",
			"type": "function"
		},
		{
			"inputs": [],
			"name": "dashboardNotifier",
			"outputs": [
				{
					"internalType": "contract IDashboardNotifier",
					"name": "",
					"type": "address"
				}
			],
			"stateMutability": "view",
			"type": "function"
		},
		{
			"inputs": [],
			"name": "getCurrentNetflow",
			"outputs": [
				{
					"components": [
						{
							"internalType": "int256",
							"name": "amount",
							"type": "int256"
						},
						{
							"internalType": "uint256",
							"name": "lastUpdatedAt",
							"type": "uint256"
						}
					],
					"internalType": "struct DataTypes.NetflowInfo",
					"name": "",
					"type": "tuple"
				}
			],
			"stateMutability": "view",
			"type": "function"
		},
		{
			"inputs": [],
			"name": "hasPreviousNetflowAmount",
			"outputs": [
				{
					"internalType": "bool",
					"name": "",
					"type": "bool"
				}
			],
			"stateMutability": "view",
			"type": "function"
		},
		{
			"inputs": [],
			"name": "netflowAlert",
			"outputs": [
				{
					"internalType": "uint256",
					"name": "id",
					"type": "uint256"
				},
				{
					"internalType": "address",
					"name": "user",
					"type": "address"
				},
				{
					"internalType": "enum DataTypes.AlertCondition",
					"name": "condition",
					"type": "uint8"
				},
				{
					"internalType": "int256",
					"name": "threshold1",
					"type": "int256"
				},
				{
					"internalType": "int256",
					"name": "threshold2",
					"type": "int256"
				},
				{
					"internalType": "bool",
					"name": "isActive",
					"type": "bool"
				},
				{
					"internalType": "bool",
					"name": "isTriggered",
					"type": "bool"
				},
				{
					"internalType": "uint256",
					"name": "lastTriggeredAt",
					"type": "uint256"
				},
				{
					"internalType": "string",
					"name": "message",
					"type": "string"
				}
			],
			"stateMutability": "view",
			"type": "function"
		},
		{
			"inputs": [],
			"name": "owner",
			"outputs": [
				{
					"internalType": "address",
					"name": "",
					"type": "address"
				}
			],
			"stateMutability": "view",
			"type": "function"
		},
		{
			"inputs": [],
			"name": "previousNetflowAmount",
			"outputs": [
				{
					"internalType": "int256",
					"name": "",
					"type": "int256"
				}
			],
			"stateMutability": "view",
			"type": "function"
		},
		{
			"inputs": [],
			"name": "renounceOwnership",
			"outputs": [],
			"stateMutability": "nonpayable",
			"type": "function"
		},
		{
			"inputs": [],
			"name": "resetAlertTriggerState",
			"outputs": [],
			"stateMutability": "nonpayable",
			"type": "function"
		},
		{
			"inputs": [
				{
					"internalType": "address",
					"name": "_dashboardNotifierAddress",
					"type": "address"
				}
			],
			"name": "setDashboardNotifier",
			"outputs": [],
			"stateMutability": "nonpayable",
			"type": "function"
		},
		{
			"inputs": [
				{
					"internalType": "address",
					"name": "newOwner",
					"type": "address"
				}
			],
			"name": "transferOwnership",
			"outputs": [],
			"stateMutability": "nonpayable",
			"type": "function"
		},
		{
			"inputs": [],
			"name": "turnOffAlert",
			"outputs": [],
			"stateMutability": "nonpayable",
			"type": "function"
		},
		{
			"inputs": [
				{
					"internalType": "int256",
					"name": "_amount",
					"type": "int256"
				}
			],
			"name": "updateNetflow",
			"outputs": [],
			"stateMutability": "nonpayable",
			"type": "function"
		}
	]
}