{
	"data": {
		"bytecode": {
			"linkReferences": {},
			"object": "60806040526005805460ff191690556001601955348015601d575f5ffd5b503380604257604051631e4fbdf760e01b81525f600482015260240160405180910390fd5b604981605c565b506016805460ff191690555f60125560ab565b5f80546001600160a01b038381166001600160a01b0319831681178455604051919092169283917f8be0079c531659141344cd1fd0a4f28419497f9722a3daafe3b4186f6b6457e09190a35050565b61358f806100b85f395ff3fe608060405234801561000f575f5ffd5b5060043610610208575f3560e01c806386b287181161011f578063e337d7cf116100a9578063f25ab9c911610079578063f25ab9c914610499578063f2fde38b146104ac578063f42191de146104bf578063f44f031a146104df578063fec53907146104f2575f5ffd5b8063e337d7cf14610463578063e642566f14610476578063ea7fbd641461047e578063f1e52d1d14610491575f5ffd5b8063ac57e64e116100ef578063ac57e64e1461040d578063b1950a3714610415578063b2cec9ef14610428578063ca848e6a1461043b578063cc0363cd1461044e575f5ffd5b806386b287181461039f5780638da5cb5b146103a8578063977ddf37146103c257806399670fea146103cb575f5ffd5b806330400a3a116101a057806351320eb51161017057806351320eb514610337578063715018a61461033f578063740fb0d2146103475780637e3fb6ca1461036a5780637e767e141461037f575f5ffd5b806330400a3a146102e55780633afa9a2e146103095780633fab3dd61461031c578063440c1ec91461032f575f5ffd5b8063298fc805116101db578063298fc8051461029c5780632e4d0321146102b35780632f66b011146102c85780632f85909b146102d0575f5ffd5b80630acd704e1461020c5780630f549423146102375780631adae926146102545780632243e3261461027c575b5f5ffd5b61021f61021a366004612828565b610515565b60405161022e93929190612906565b60405180910390f35b6005546102449060ff1681565b604051901515815260200161022e565b61026761026236600461292a565b6105c8565b60405161022e99989796959493929190612975565b61028f61028a36600461292a565b6106c1565b60405161022e91906129dd565b6102a560045481565b60405190815260200161022e565b6102c66102c1366004612a4d565b610767565b005b6102c6610b63565b6102d8610bc0565b60405161022e9190612aa2565b6102f86102f336600461292a565b610c94565b60405161022e959493929190612b05565b6102c6610317366004612b44565b610d66565b6102c661032a366004612b73565b610ddc565b6102c6610f88565b6102a5600a81565b6102c6610feb565b61035a610355366004612828565b610ffc565b60405161022e9493929190612bba565b61037261113b565b60405161022e9190612bf2565b61039261038d366004612c86565b611254565b60405161022e9190612cc4565b6102a560105481565b5f546040516001600160a01b03909116815260200161022e565b6102a560115481565b600654600754600854600954600a546103e5949392919085565b604080519586526020860194909452928401919091526060830152608082015260a00161022e565b6102c66113e4565b6102c6610423366004612d5d565b61143b565b6102c661043636600461292a565b6117c9565b6102c6610449366004612c86565b611866565b610456611a1a565b60405161022e9190612dce565b6102c6610471366004612eb4565b611b90565b610267611c5a565b6102c661048c366004612ee6565b611ca1565b610372611d54565b6102c66104a7366004612f45565b611e6d565b6102c66104ba366004612fa7565b61225b565b6104d26104cd366004612c86565b612295565b60405161022e9190612fcd565b6102f86104ed36600461292a565b61238d565b600154600254610500919082565b6040805192835260208301919091520161022e565b8051602081830181018051600b8252928201919093012091528054819061053b90613008565b80601f016020809104026020016040519081016040528092919081815260200182805461056790613008565b80156105b25780601f10610589576101008083540402835291602001916105b2565b820191905f5260205f20905b81548152906001019060200180831161059557829003601f168201915b5050505050908060010154908060020154905083565b600381815481106105d7575f80fd5b5f91825260209091206007909102018054600182015460028301546003840154600485015460058601546006870180549698506001600160a01b0386169760ff600160a01b90970487169795969495848616956101009095049094169390919061064090613008565b80601f016020809104026020016040519081016040528092919081815260200182805461066c90613008565b80156106b75780601f1061068e576101008083540402835291602001916106b7565b820191905f5260205f20905b81548152906001019060200180831161069a57829003601f168201915b5050505050905089565b600c81815481106106d0575f80fd5b905f5260205f20015f9150905080546106e890613008565b80601f016020809104026020016040519081016040528092919081815260200182805461071490613008565b801561075f5780601f106107365761010080835404028352916020019161075f565b820191905f5260205f20905b81548152906001019060200180831161074257829003601f168201915b505050505081565b61076f61239c565b600184600c81111561078357610783612941565b14806107a05750600284600c81111561079e5761079e612941565b145b806107bc5750600384600c8111156107ba576107ba612941565b145b806107d85750600484600c8111156107d6576107d6612941565b145b806107f45750600584600c8111156107f2576107f2612941565b145b806108105750600684600c81111561080e5761080e612941565b145b8061082c5750600b84600c81111561082a5761082a612941565b145b806108485750600c84600c81111561084657610846612941565b145b6108bf5760405162461bcd60e51b815260206004820152603760248201527f44617368626f6172643a20496e76616c696420636f6e646974696f6e20666f7260448201527f2073696e676c65207468726573686f6c6420616c65727400000000000000000060648201526084015b60405180910390fd5b601980545f91826108cf83613054565b9190505590505f604051806101200160405280838152602001336001600160a01b0316815260200187600c81111561090957610909612941565b81526020018681526020015f81526020016001151581526020015f151581526020015f815260200185858080601f0160208091040260200160405190810160405280939291908181526020018383808284375f92018290525093909452505060125492935091909103905061098f5760198054905f61098783613054565b909155506012555b60138054336001600160a01b03198216811783558892916001600160a81b03191660ff60a01b1990911617600160a01b83600c8111156109d1576109d1612941565b021790555060148590555f60155560186109ec8486836130cb565b506016805461ffff191660019081179091555f60178190556003805492830181559052815160079091027fc2575a0e9e593c00f959f8c92f12db2869c3395a3b0502d05e2516446f71f85b810191825560208301517fc2575a0e9e593c00f959f8c92f12db2869c3395a3b0502d05e2516446f71f85c90910180546001600160a01b039092166001600160a01b031983168117825560408501518594939092916001600160a81b031990911617600160a01b83600c811115610ab057610ab0612941565b0217905550606082015160028201556080820151600382015560a082015160048201805460c085015161ffff1990911692151561ff00191692909217610100921515830217905560e083015160058301558201516006820190610b13908261317f565b50506012546040513392507f778334af3114ade8967680fbf1e80e8e34dbe95416246aaef26907ae22cdd35890610b53908a908a905f908b908b9061325c565b60405180910390a3505050505050565b610b6b61239c565b60125415801590610b7f575060165460ff16155b15610bbe576016805461ffff191660011790556012546040517f5b2a724a870cf7fe2c83bd903795d3ba6163ee1091a97587edf93ff866e22965905f90a25b565b6060600c805480602002602001604051908101604052809291908181526020015f905b82821015610c8b578382905f5260205f20018054610c0090613008565b80601f0160208091040260200160405190810160405280929190818152602001828054610c2c90613008565b8015610c775780601f10610c4e57610100808354040283529160200191610c77565b820191905f5260205f20905b815481529060010190602001808311610c5a57829003601f168201915b505050505081526020019060010190610be3565b50505050905090565b600e8181548110610ca3575f80fd5b905f5260205f2090600502015f91509050805f018054610cc290613008565b80601f0160208091040260200160405190810160405280929190818152602001828054610cee90613008565b8015610d395780601f10610d1057610100808354040283529160200191610d39565b820191905f5260205f20905b815481529060010190602001808311610d1c57829003601f168201915b5050505060018301546002840154600385015460049095015493946001600160a01b039092169390925085565b610d6e61239c565b600684905560078390556008829055600981905542600a8190556040805186815260208101869052808201859052606081018490526080810192909252517f08ecd0c5f0d0f300fe6241546a3cc8c4f4dc6f4573ed292c6ffbd86a833530359181900360a00190a150505050565b610de461239c565b5f600b8484604051610df7929190613293565b90815260405190819003602001902090505f805b600c54811015610e95578585604051602001610e28929190613293565b60405160208183030381529060405280519060200120600c8281548110610e5157610e516132a2565b905f5260205f2001604051602001610e6991906132b6565b6040516020818303038152906040528051906020012003610e8d5760019150610e95565b600101610e0b565b5080610f1857600c80546001810182555f919091527fdf6966c971051c3d54ec59162606531493a51404a002842f56009d7e5cf4a8c701610ed78587836130cb565b508484604051610ee8929190613293565b604051908190038120907f81c6dad8fc2e53ed05f364a56d3df0f0836727eeca7d52c4c25f995362a02744905f90a25b81610f248587836130cb565b5060018201839055426002830155604051610f429086908690613293565b60408051918290038220858352426020840152917f30167b93764fad9e40ce98169f9156f222d6ca60145c01b3509119b8d413ed6f910160405180910390a25050505050565b610f9061239c565b60125415801590610fa85750601654610100900460ff165b15610bbe576016805461ff00191690555f601781905560125460405190917fc26f9c3201044d3757e27488cd192595aaf8b176842b2175ef47a4cdf1a5395291a2565b610ff361239c565b610bbe5f6123c8565b8051602081830181018051600d8252928201919093012091528054819061102290613008565b80601f016020809104026020016040519081016040528092919081815260200182805461104e90613008565b80156110995780601f1061107057610100808354040283529160200191611099565b820191905f5260205f20905b81548152906001019060200180831161107c57829003601f168201915b5050505050908060010180546110ae90613008565b80601f01602080910402602001604051908101604052809291908181526020018280546110da90613008565b80156111255780601f106110fc57610100808354040283529160200191611125565b820191905f5260205f20905b81548152906001019060200180831161110857829003601f168201915b5050505050908060020154908060030154905084565b6060600f805480602002602001604051908101604052809291908181526020015f905b82821015610c8b578382905f5260205f2090600502016040518060a00160405290815f8201805461118e90613008565b80601f01602080910402602001604051908101604052809291908181526020018280546111ba90613008565b80156112055780601f106111dc57610100808354040283529160200191611205565b820191905f5260205f20905b8154815290600101906020018083116111e857829003601f168201915b50505091835250506001828101546001600160a01b031660208084019190915260028401546040840152600384015460608401526004909301546080909201919091529183529201910161115e565b61127d604051806080016040528060608152602001606081526020015f81526020015f81525090565b600d838360405161128f929190613293565b90815260200160405180910390206040518060800160405290815f820180546112b790613008565b80601f01602080910402602001604051908101604052809291908181526020018280546112e390613008565b801561132e5780601f106113055761010080835404028352916020019161132e565b820191905f5260205f20905b81548152906001019060200180831161131157829003601f168201915b5050505050815260200160018201805461134790613008565b80601f016020809104026020016040519081016040528092919081815260200182805461137390613008565b80156113be5780601f10611395576101008083540402835291602001916113be565b820191905f5260205f20905b8154815290600101906020018083116113a157829003601f168201915b505050505081526020016002820154815260200160038201548152505090505b92915050565b6113ec61239c565b601254158015906113ff575060165460ff165b15610bbe576016805460ff191690556012546040517fd7d997a7d5bb0e259c4bcbf9213b950fc2d302d3d30540c7671b3c2e6d33088d905f90a2565b61144361239c565b61144e600e5f612765565b5f5b848110156115df57600e6040518060a00160405280888885818110611477576114776132a2565b90506020028101906114899190613327565b6114939080613345565b8080601f0160208091040260200160405190810160405280939291908181526020018383808284375f920191909152505050908252506020018888858181106114de576114de6132a2565b90506020028101906114f09190613327565b611501906040810190602001612fa7565b6001600160a01b03168152602001888885818110611521576115216132a2565b90506020028101906115339190613327565b60400135815260200188888581811061154e5761154e6132a2565b90506020028101906115609190613327565b6060013581524260209182015282546001810184555f93845292208151919260050201908190611590908261317f565b506020820151600182810180546001600160a01b0319166001600160a01b0390931692909217909155604083015160028301556060830151600383015560809092015160049091015501611450565b506115eb600f5f612765565b5f5b8281101561177c57600f6040518060a00160405280868685818110611614576116146132a2565b90506020028101906116269190613327565b6116309080613345565b8080601f0160208091040260200160405190810160405280939291908181526020018383808284375f9201919091525050509082525060200186868581811061167b5761167b6132a2565b905060200281019061168d9190613327565b61169e906040810190602001612fa7565b6001600160a01b031681526020018686858181106116be576116be6132a2565b90506020028101906116d09190613327565b6040013581526020018686858181106116eb576116eb6132a2565b90506020028101906116fd9190613327565b6060013581524260209182015282546001810184555f9384529220815191926005020190819061172d908261317f565b506020820151600182810180546001600160a01b0319166001600160a01b03909316929092179091556040830151600283015560608301516003830155608090920151600490910155016115ed565b5060108190554260118190556040805183815260208101929092527fadf8225e8e3a7ce8aaabd2d8357177b1a9937694639e8488214b2f12c18146ee910160405180910390a15050505050565b6117d161239c565b60055460ff16806117e3575060025415155b156117f3576001546004556117f9565b60048190555b6005805460ff191660019081179091558190554260028190556040805183815260208101929092527f475cae5b1b67b8f03aba6a9d0442b263224ee619fa6fb913c08d9edf37904b8c910160405180910390a160015460045460055461186392919060ff16612417565b50565b61186e61239c565b5f80805b600c548110156118ff57848460405160200161188f929190613293565b60405160208183030381529060405280519060200120600c82815481106118b8576118b86132a2565b905f5260205f20016040516020016118d091906132b6565b60405160208183030381529060405280519060200120036118f757600192508091506118ff565b600101611872565b508115611a1457600b8484604051611918929190613293565b9081526040519081900360200190205f6119328282612783565b505f60018201819055600290910155600c54158015906119535750600c5481105b15611a1457600c805461196890600190613387565b81548110611978576119786132a2565b905f5260205f2001600c8281548110611993576119936132a2565b905f5260205f200190816119a7919061339a565b50600c8054806119b9576119b961345a565b600190038181905f5260205f20015f6119d29190612783565b905583836040516119e4929190613293565b604051908190038120907f39c9d1bc62fedff5608e7e91b88c9e3f6b7f4e9e9b184216521d36d88162fba4905f90a25b50505050565b60606003805480602002602001604051908101604052809291908181526020015f905b82821015610c8b575f8481526020908190206040805161012081018252600786029092018054835260018101546001600160a01b03811694840194909452919290830190600160a01b900460ff16600c811115611a9c57611a9c612941565b600c811115611aad57611aad612941565b81526002820154602082015260038201546040820152600482015460ff808216151560608401526101009091041615156080820152600582015460a082015260068201805460c090920191611b0190613008565b80601f0160208091040260200160405190810160405280929190818152602001828054611b2d90613008565b8015611b785780601f10611b4f57610100808354040283529160200191611b78565b820191905f5260205f20905b815481529060010190602001808311611b5b57829003601f168201915b50505050508152505081526020019060010190611a3d565b611b9861239c565b5f5b81811015611c555730633fab3dd6848484818110611bba57611bba6132a2565b9050602002810190611bcc919061346e565b611bd69080613345565b868686818110611be857611be86132a2565b9050602002810190611bfa919061346e565b602001356040518463ffffffff1660e01b8152600401611c1c93929190613482565b5f604051808303815f87803b158015611c33575f5ffd5b505af1158015611c45573d5f5f3e3d5ffd5b505060019092019150611b9a9050565b505050565b601280546013546014546015546016546017546018805496976001600160a01b0387169760ff600160a01b9098048816978581169561010090041693929061064090613008565b611ca961239c565b5f600d8686604051611cbc929190613293565b908152604051908190036020019020905080611cd98688836130cb565b5060018101611ce98486836130cb565b5060028101829055426003820155604051611d079087908790613293565b60405180910390207f6980cc14623a9e2e782881dd8347e20ebd89e558191566e01e8cc11e9066f06885858542604051611d4494939291906134a5565b60405180910390a2505050505050565b6060600e805480602002602001604051908101604052809291908181526020015f905b82821015610c8b578382905f5260205f2090600502016040518060a00160405290815f82018054611da790613008565b80601f0160208091040260200160405190810160405280929190818152602001828054611dd390613008565b8015611e1e5780601f10611df557610100808354040283529160200191611e1e565b820191905f5260205f20905b815481529060010190602001808311611e0157829003601f168201915b50505091835250506001828101546001600160a01b0316602080840191909152600284015460408401526003840154606084015260049093015460809092019190915291835292019101611d77565b611e7561239c565b600785600c811115611e8957611e89612941565b1480611ea65750600885600c811115611ea457611ea4612941565b145b80611ec25750600985600c811115611ec057611ec0612941565b145b80611ede5750600a85600c811115611edc57611edc612941565b145b611f415760405162461bcd60e51b815260206004820152602e60248201527f44617368626f6172643a20496e76616c696420636f6e646974696f6e20666f7260448201526d0818da185b9b995b08185b195c9d60921b60648201526084016108b6565b828403611fa45760405162461bcd60e51b815260206004820152602b60248201527f44617368626f6172643a204368616e6e656c20626f756e6473206d757374206260448201526a1948191a5999995c995b9d60aa1b60648201526084016108b6565b6012545f03611fc45760198054905f611fbc83613054565b909155506012555b601980545f9182611fd483613054565b90915550601380546001600160a01b031981163390811783559293505f9283928a92909160ff60a01b19166001600160a81b031990911617600160a01b83600c81111561202357612023612941565b02179055508587121561203f576014879055601586905561204a565b601486905560158790555b60186120578587836130cb565b506016805461ffff191660011790555f601781905560408051610120810182528581523360208201529081018a600c81111561209557612095612941565b81526020018481526020018381526020016001151581526020015f151581526020015f815260200187878080601f0160208091040260200160405190810160405280939291908181526020018383808284375f920182905250939094525050600380546001810182559152825160079091027fc2575a0e9e593c00f959f8c92f12db2869c3395a3b0502d05e2516446f71f85b810191825560208401517fc2575a0e9e593c00f959f8c92f12db2869c3395a3b0502d05e2516446f71f85c90910180546001600160a01b039092166001600160a01b03198316811782556040860151959650869593945090916001600160a81b03191617600160a01b83600c8111156121a3576121a3612941565b0217905550606082015160028201556080820151600382015560a082015160048201805460c085015161ffff1990911692151561ff00191692909217610100921515830217905560e083015160058301558201516006820190612206908261317f565b50506012546014546015546040513394507f778334af3114ade8967680fbf1e80e8e34dbe95416246aaef26907ae22cdd35892612248928f928d908d9061325c565b60405180910390a3505050505050505050565b61226361239c565b6001600160a01b03811661228c57604051631e4fbdf760e01b81525f60048201526024016108b6565b611863816123c8565b6122b76040518060600160405280606081526020015f81526020015f81525090565b600b83836040516122c9929190613293565b90815260200160405180910390206040518060600160405290815f820180546122f190613008565b80601f016020809104026020016040519081016040528092919081815260200182805461231d90613008565b80156123685780601f1061233f57610100808354040283529160200191612368565b820191905f5260205f20905b81548152906001019060200180831161234b57829003601f168201915b5050505050815260200160018201548152602001600282015481525050905092915050565b600f8181548110610ca3575f80fd5b5f546001600160a01b03163314610bbe5760405163118cdaa760e01b81523360048201526024016108b6565b5f80546001600160a01b038381166001600160a01b0319831681178455604051919092169283917f8be0079c531659141344cd1fd0a4f28419497f9722a3daafe3b4186f6b6457e09190a35050565b60165460ff1615806124305750601654610100900460ff165b8061243b5750601254155b1561244557505050565b6013546014546015545f92600160a01b900460ff1691908190600184600c81111561247257612472612941565b03612489578288131561248457600194505b6126f4565b600284600c81111561249d5761249d612941565b036124b3578288121561248457600194506126f4565b600384600c8111156124c7576124c7612941565b036124dc5782880361248457600194506126f4565b85156126f457600484600c8111156124f6576124f6612941565b0361252d57828712801561250a5750828812155b8061251f5750828713801561251f5750828813155b1561248457600194506126f4565b600584600c81111561254157612541612941565b0361256057828712801561251f575082881261248457600194506126f4565b600684600c81111561257457612574612941565b0361259357828713801561251f575082881361248457600194506126f4565b600784600c8111156125a7576125a7612941565b036125ea575f828812806125ba57508188135b90505f838a121580156125cd5750828a13155b90508180156125d95750805b156125e357600196505b50506126f4565b600884600c8111156125fe576125fe612941565b0361263d575f8288121580156126145750818813155b90505f838a12806125cd5750508189138180156125d9575080156125e3576001965050506126f4565b600984600c81111561265157612651612941565b036126715781881215801561251f575080881361248457600194506126f4565b600a84600c81111561268557612685612941565b036126a4578188128061251f57508088131561248457600194506126f4565b600b84600c8111156126b8576126b8612941565b036126ce578688131561248457600194506126f4565b600c84600c8111156126e2576126e2612941565b036126f457868812156126f457600194505b841561275b576016805461ff001916610100179055426017556013546012546040516001600160a01b03909216917f601cdb1cd0f27fc0f4bad78847fbd1402a286180590e1019934014e93e922a0f90612752908c906018906134cb565b60405180910390a35b5050505050505050565b5080545f8255600502905f5260205f209081019061186391906127ba565b50805461278f90613008565b5f825580601f1061279e575050565b601f0160209004905f5260205f20908101906118639190612800565b808211156127fc575f6127cd8282612783565b506001810180546001600160a01b03191690555f600282018190556003820181905560048201556005016127ba565b5090565b5b808211156127fc575f8155600101612801565b634e487b7160e01b5f52604160045260245ffd5b5f60208284031215612838575f5ffd5b81356001600160401b0381111561284d575f5ffd5b8201601f8101841361285d575f5ffd5b80356001600160401b0381111561287657612876612814565b604051601f8201601f19908116603f011681016001600160401b03811182821017156128a4576128a4612814565b6040528181528282016020018610156128bb575f5ffd5b816020840160208301375f91810160200191909152949350505050565b5f81518084528060208401602086015e5f602082860101526020601f19601f83011685010191505092915050565b606081525f61291860608301866128d8565b60208301949094525060400152919050565b5f6020828403121561293a575f5ffd5b5035919050565b634e487b7160e01b5f52602160045260245ffd5b600d811061297157634e487b7160e01b5f52602160045260245ffd5b9052565b8981526001600160a01b03891660208201526129946040820189612955565b86606082015285608082015284151560a082015283151560c08201528260e08201526101206101008201525f6129ce6101208301846128d8565b9b9a5050505050505050505050565b602081525f6129ef60208301846128d8565b9392505050565b8035600d8110612a04575f5ffd5b919050565b5f5f83601f840112612a19575f5ffd5b5081356001600160401b03811115612a2f575f5ffd5b602083019150836020828501011115612a46575f5ffd5b9250929050565b5f5f5f5f60608587031215612a60575f5ffd5b612a69856129f6565b93506020850135925060408501356001600160401b03811115612a8a575f5ffd5b612a9687828801612a09565b95989497509550505050565b5f602082016020835280845180835260408501915060408160051b8601019250602086015f5b82811015612af957603f19878603018452612ae48583516128d8565b94506020938401939190910190600101612ac8565b50929695505050505050565b60a081525f612b1760a08301886128d8565b6001600160a01b039690961660208301525060408101939093526060830191909152608090910152919050565b5f5f5f5f60808587031215612b57575f5ffd5b5050823594602084013594506040840135936060013592509050565b5f5f5f60408486031215612b85575f5ffd5b83356001600160401b03811115612b9a575f5ffd5b612ba686828701612a09565b909790965060209590950135949350505050565b608081525f612bcc60808301876128d8565b8281036020840152612bde81876128d8565b604084019590955250506060015292915050565b5f602082016020835280845180835260408501915060408160051b8601019250602086015f5b82811015612af957603f198786030184528151805160a08752612c3e60a08801826128d8565b6020838101516001600160a01b031689820152604080850151908a0152606080850151908a015260809384015193909801929092525094938401939190910190600101612c18565b5f5f60208385031215612c97575f5ffd5b82356001600160401b03811115612cac575f5ffd5b612cb885828601612a09565b90969095509350505050565b602081525f825160806020840152612cdf60a08401826128d8565b90506020840151601f19848303016040850152612cfc82826128d8565b91505060408401516060840152606084015160808401528091505092915050565b5f5f83601f840112612d2d575f5ffd5b5081356001600160401b03811115612d43575f5ffd5b6020830191508360208260051b8501011115612a46575f5ffd5b5f5f5f5f5f60608688031215612d71575f5ffd5b85356001600160401b03811115612d86575f5ffd5b612d9288828901612d1d565b90965094505060208601356001600160401b03811115612db0575f5ffd5b612dbc88828901612d1d565b96999598509660400135949350505050565b5f602082016020835280845180835260408501915060408160051b8601019250602086015f5b82811015612af957603f198786030184528151805186526020810151612e2560208801826001600160a01b03169052565b506040810151612e386040880182612955565b50606081015160608701526080810151608087015260a0810151612e6060a088018215159052565b5060c0810151612e7460c088018215159052565b5060e081015160e08701526101008101519050610120610100870152612e9e6101208701826128d8565b9550506020938401939190910190600101612df4565b5f5f60208385031215612ec5575f5ffd5b82356001600160401b03811115612eda575f5ffd5b612cb885828601612d1d565b5f5f5f5f5f60608688031215612efa575f5ffd5b85356001600160401b03811115612f0f575f5ffd5b612f1b88828901612a09565b90965094505060208601356001600160401b03811115612f39575f5ffd5b612dbc88828901612a09565b5f5f5f5f5f60808688031215612f59575f5ffd5b612f62866129f6565b9450602086013593506040860135925060608601356001600160401b03811115612f8a575f5ffd5b612f9688828901612a09565b969995985093965092949392505050565b5f60208284031215612fb7575f5ffd5b81356001600160a01b03811681146129ef575f5ffd5b602081525f825160606020840152612fe860808401826128d8565b905060208401516040840152604084015160608401528091505092915050565b600181811c9082168061301c57607f821691505b60208210810361303a57634e487b7160e01b5f52602260045260245ffd5b50919050565b634e487b7160e01b5f52601160045260245ffd5b5f6001820161306557613065613040565b5060010190565b601f821115611c5557805f5260205f20601f840160051c810160208510156130915750805b601f840160051c820191505b818110156130b0575f815560010161309d565b5050505050565b5f19600383901b1c191660019190911b1790565b6001600160401b038311156130e2576130e2612814565b6130f6836130f08354613008565b8361306c565b5f601f841160018114613122575f85156131105750838201355b61311a86826130b7565b8455506130b0565b5f83815260208120601f198716915b828110156131515786850135825560209485019460019092019101613131565b508682101561316d575f1960f88860031b161c19848701351681555b505060018560011b0183555050505050565b81516001600160401b0381111561319857613198612814565b6131ac816131a68454613008565b8461306c565b6020601f8211600181146131d9575f83156131c75750848201515b6131d184826130b7565b8555506130b0565b5f84815260208120601f198516915b8281101561320857878501518255602094850194600190920191016131e8565b508482101561322557868401515f19600387901b60f8161c191681555b50505050600190811b01905550565b81835281816020850137505f828201602090810191909152601f909101601f19169091010190565b6132668187612955565b846020820152836040820152608060608201525f613288608083018486613234565b979650505050505050565b818382375f9101908152919050565b634e487b7160e01b5f52603260045260245ffd5b5f5f83546132c381613008565b6001821680156132da57600181146132ef5761331c565b60ff198316865281151582028601935061331c565b865f5260205f205f5b83811015613314578154888201526001909101906020016132f8565b505081860193505b509195945050505050565b5f8235609e1983360301811261333b575f5ffd5b9190910192915050565b5f5f8335601e1984360301811261335a575f5ffd5b8301803591506001600160401b03821115613373575f5ffd5b602001915036819003821315612a46575f5ffd5b818103818111156113de576113de613040565b8181036133a5575050565b6133af8254613008565b6001600160401b038111156133c6576133c6612814565b6133d4816131a68454613008565b5f601f8211600181146133f7575f83156131c75750848201546131d184826130b7565b5f8581526020808220868352908220601f198616925b8381101561342d578286015482556001958601959091019060200161340d565b508583101561344a57818501545f19600388901b60f8161c191681555b5050505050600190811b01905550565b634e487b7160e01b5f52603160045260245ffd5b5f8235605e1983360301811261333b575f5ffd5b604081525f613495604083018587613234565b9050826020830152949350505050565b606081525f6134b8606083018688613234565b6020830194909452506040015292915050565b828152604060208201525f5f83546134e281613008565b806040860152600182165f8114613500576001811461351c5761354d565b60ff1983166060870152606082151560051b870101935061354d565b865f5260205f205f5b8381101561354457815488820160600152600190910190602001613525565b87016060019450505b5091969550505050505056fea264697066735822122088666967274bb614fbba4791855fc5a352e3e8af9971e36e6a178cd6290d0e8664736f6c634300081e0033",
			"opcodes": "PUSH1 0x80 PUSH1 0x40 MSTORE PUSH1 0x5 DUP1 SLOAD PUSH1 0xFF NOT AND SWAP1 SSTORE PUSH1 0x1 PUSH1 0x19 SSTORE CALLVALUE DUP1 ISZERO PUSH1 0x1D JUMPI PUSH0 PUSH0 REVERT JUMPDEST POP CALLER DUP1 PUSH1 0x42 JUMPI PUSH1 0x40 MLOAD PUSH4 0x1E4FBDF7 PUSH1 0xE0 SHL DUP2 MSTORE PUSH0 PUSH1 0x4 DUP3 ADD MSTORE PUSH1 0x24 ADD PUSH1 0x40 MLOAD DUP1 SWAP2 SUB SWAP1 REVERT JUMPDEST PUSH1 0x49 DUP2 PUSH1 0x5C JUMP JUMPDEST POP PUSH1 0x16 DUP1 SLOAD PUSH1 0xFF NOT AND SWAP1 SSTORE PUSH0 PUSH1 0x12 SSTORE PUSH1 0xAB JUMP JUMPDEST PUSH0 DUP1 SLOAD PUSH1 0x1 PUSH1 0x1 PUSH1 0xA0 SHL SUB DUP4 DUP2 AND PUSH1 0x1 PUSH1 0x1 PUSH1 0xA0 SHL SUB NOT DUP4 AND DUP2 OR DUP5 SSTORE PUSH1 0x40 MLOAD SWAP2 SWAP1 SWAP3 AND SWAP3 DUP4 SWAP2 PUSH32 0x8BE0079C531659141344CD1FD0A4F28419497F9722A3DAAFE3B4186F6B6457E0 SWAP2 SWAP1 LOG3 POP POP JUMP JUMPDEST PUSH2 0x358F DUP1 PUSH2 0xB8 PUSH0 CODECOPY PUSH0 RETURN INVALID PUSH1 0x80 PUSH1 0x40 MSTORE CALLVALUE DUP1 ISZERO PUSH2 0xF JUMPI PUSH0 PUSH0 REVERT JUMPDEST POP PUSH1 0x4 CALLDATASIZE LT PUSH2 0x208 JUMPI PUSH0 CALLDATALOAD PUSH1 0xE0 SHR DUP1 PUSH4 0x86B28718 GT PUSH2 0x11F JUMPI DUP1 PUSH4 0xE337D7CF GT PUSH2 0xA9 JUMPI DUP1 PUSH4 0xF25AB9C9 GT PUSH2 0x79 JUMPI DUP1 PUSH4 0xF25AB9C9 EQ PUSH2 0x499 JUMPI DUP1 PUSH4 0xF2FDE38B EQ PUSH2 0x4AC JUMPI DUP1 PUSH4 0xF42191DE EQ PUSH2 0x4BF JUMPI DUP1 PUSH4 0xF44F031A EQ PUSH2 0x4DF JUMPI DUP1 PUSH4 0xFEC53907 EQ PUSH2 0x4F2 JUMPI PUSH0 PUSH0 REVERT JUMPDEST DUP1 PUSH4 0xE337D7CF EQ PUSH2 0x463 JUMPI DUP1 PUSH4 0xE642566F EQ PUSH2 0x476 JUMPI DUP1 PUSH4 0xEA7FBD64 EQ PUSH2 0x47E JUMPI DUP1 PUSH4 0xF1E52D1D EQ PUSH2 0x491 JUMPI PUSH0 PUSH0 REVERT JUMPDEST DUP1 PUSH4 0xAC57E64E GT PUSH2 0xEF JUMPI DUP1 PUSH4 0xAC57E64E EQ PUSH2 0x40D JUMPI DUP1 PUSH4 0xB1950A37 EQ PUSH2 0x415 JUMPI DUP1 PUSH4 0xB2CEC9EF EQ PUSH2 0x428 JUMPI DUP1 PUSH4 0xCA848E6A EQ PUSH2 0x43B JUMPI DUP1 PUSH4 0xCC0363CD EQ PUSH2 0x44E JUMPI PUSH0 PUSH0 REVERT JUMPDEST DUP1 PUSH4 0x86B28718 EQ PUSH2 0x39F JUMPI DUP1 PUSH4 0x8DA5CB5B EQ PUSH2 0x3A8 JUMPI DUP1 PUSH4 0x977DDF37 EQ PUSH2 0x3C2 JUMPI DUP1 PUSH4 0x99670FEA EQ PUSH2 0x3CB JUMPI PUSH0 PUSH0 REVERT JUMPDEST DUP1 PUSH4 0x30400A3A GT PUSH2 0x1A0 JUMPI DUP1 PUSH4 0x51320EB5 GT PUSH2 0x170 JUMPI DUP1 PUSH4 0x51320EB5 EQ PUSH2 0x337 JUMPI DUP1 PUSH4 0x715018A6 EQ PUSH2 0x33F JUMPI DUP1 PUSH4 0x740FB0D2 EQ PUSH2 0x347 JUMPI DUP1 PUSH4 0x7E3FB6CA EQ PUSH2 0x36A JUMPI DUP1 PUSH4 0x7E767E14 EQ PUSH2 0x37F JUMPI PUSH0 PUSH0 REVERT JUMPDEST DUP1 PUSH4 0x30400A3A EQ PUSH2 0x2E5 JUMPI DUP1 PUSH4 0x3AFA9A2E EQ PUSH2 0x309 JUMPI DUP1 PUSH4 0x3FAB3DD6 EQ PUSH2 0x31C JUMPI DUP1 PUSH4 0x440C1EC9 EQ PUSH2 0x32F JUMPI PUSH0 PUSH0 REVERT JUMPDEST DUP1 PUSH4 0x298FC805 GT PUSH2 0x1DB JUMPI DUP1 PUSH4 0x298FC805 EQ PUSH2 0x29C JUMPI DUP1 PUSH4 0x2E4D0321 EQ PUSH2 0x2B3 JUMPI DUP1 PUSH4 0x2F66B011 EQ PUSH2 0x2C8 JUMPI DUP1 PUSH4 0x2F85909B EQ PUSH2 0x2D0 JUMPI PUSH0 PUSH0 REVERT JUMPDEST DUP1 PUSH4 0xACD704E EQ PUSH2 0x20C JUMPI DUP1 PUSH4 0xF549423 EQ PUSH2 0x237 JUMPI DUP1 PUSH4 0x1ADAE926 EQ PUSH2 0x254 JUMPI DUP1 PUSH4 0x2243E326 EQ PUSH2 0x27C JUMPI JUMPDEST PUSH0 PUSH0 REVERT JUMPDEST PUSH2 0x21F PUSH2 0x21A CALLDATASIZE PUSH1 0x4 PUSH2 0x2828 JUMP JUMPDEST PUSH2 0x515 JUMP JUMPDEST PUSH1 0x40 MLOAD PUSH2 0x22E SWAP4 SWAP3 SWAP2 SWAP1 PUSH2 0x2906 JUMP JUMPDEST PUSH1 0x40 MLOAD DUP1 SWAP2 SUB SWAP1 RETURN JUMPDEST PUSH1 0x5 SLOAD PUSH2 0x244 SWAP1 PUSH1 0xFF AND DUP2 JUMP JUMPDEST PUSH1 0x40 MLOAD SWAP1 ISZERO ISZERO DUP2 MSTORE PUSH1 0x20 ADD PUSH2 0x22E JUMP JUMPDEST PUSH2 0x267 PUSH2 0x262 CALLDATASIZE PUSH1 0x4 PUSH2 0x292A JUMP JUMPDEST PUSH2 0x5C8 JUMP JUMPDEST PUSH1 0x40 MLOAD PUSH2 0x22E SWAP10 SWAP9 SWAP8 SWAP7 SWAP6 SWAP5 SWAP4 SWAP3 SWAP2 SWAP1 PUSH2 0x2975 JUMP JUMPDEST PUSH2 0x28F PUSH2 0x28A CALLDATASIZE PUSH1 0x4 PUSH2 0x292A JUMP JUMPDEST PUSH2 0x6C1 JUMP JUMPDEST PUSH1 0x40 MLOAD PUSH2 0x22E SWAP2 SWAP1 PUSH2 0x29DD JUMP JUMPDEST PUSH2 0x2A5 PUSH1 0x4 SLOAD DUP2 JUMP JUMPDEST PUSH1 0x40 MLOAD SWAP1 DUP2 MSTORE PUSH1 0x20 ADD PUSH2 0x22E JUMP JUMPDEST PUSH2 0x2C6 PUSH2 0x2C1 CALLDATASIZE PUSH1 0x4 PUSH2 0x2A4D JUMP JUMPDEST PUSH2 0x767 JUMP JUMPDEST STOP JUMPDEST PUSH2 0x2C6 PUSH2 0xB63 JUMP JUMPDEST PUSH2 0x2D8 PUSH2 0xBC0 JUMP JUMPDEST PUSH1 0x40 MLOAD PUSH2 0x22E SWAP2 SWAP1 PUSH2 0x2AA2 JUMP JUMPDEST PUSH2 0x2F8 PUSH2 0x2F3 CALLDATASIZE PUSH1 0x4 PUSH2 0x292A JUMP JUMPDEST PUSH2 0xC94 JUMP JUMPDEST PUSH1 0x40 MLOAD PUSH2 0x22E SWAP6 SWAP5 SWAP4 SWAP3 SWAP2 SWAP1 PUSH2 0x2B05 JUMP JUMPDEST PUSH2 0x2C6 PUSH2 0x317 CALLDATASIZE PUSH1 0x4 PUSH2 0x2B44 JUMP JUMPDEST PUSH2 0xD66 JUMP JUMPDEST PUSH2 0x2C6 PUSH2 0x32A CALLDATASIZE PUSH1 0x4 PUSH2 0x2B73 JUMP JUMPDEST PUSH2 0xDDC JUMP JUMPDEST PUSH2 0x2C6 PUSH2 0xF88 JUMP JUMPDEST PUSH2 0x2A5 PUSH1 0xA DUP2 JUMP JUMPDEST PUSH2 0x2C6 PUSH2 0xFEB JUMP JUMPDEST PUSH2 0x35A PUSH2 0x355 CALLDATASIZE PUSH1 0x4 PUSH2 0x2828 JUMP JUMPDEST PUSH2 0xFFC JUMP JUMPDEST PUSH1 0x40 MLOAD PUSH2 0x22E SWAP5 SWAP4 SWAP3 SWAP2 SWAP1 PUSH2 0x2BBA JUMP JUMPDEST PUSH2 0x372 PUSH2 0x113B JUMP JUMPDEST PUSH1 0x40 MLOAD PUSH2 0x22E SWAP2 SWAP1 PUSH2 0x2BF2 JUMP JUMPDEST PUSH2 0x392 PUSH2 0x38D CALLDATASIZE PUSH1 0x4 PUSH2 0x2C86 JUMP JUMPDEST PUSH2 0x1254 JUMP JUMPDEST PUSH1 0x40 MLOAD PUSH2 0x22E SWAP2 SWAP1 PUSH2 0x2CC4 JUMP JUMPDEST PUSH2 0x2A5 PUSH1 0x10 SLOAD DUP2 JUMP JUMPDEST PUSH0 SLOAD PUSH1 0x40 MLOAD PUSH1 0x1 PUSH1 0x1 PUSH1 0xA0 SHL SUB SWAP1 SWAP2 AND DUP2 MSTORE PUSH1 0x20 ADD PUSH2 0x22E JUMP JUMPDEST PUSH2 0x2A5 PUSH1 0x11 SLOAD DUP2 JUMP JUMPDEST PUSH1 0x6 SLOAD PUSH1 0x7 SLOAD PUSH1 0x8 SLOAD PUSH1 0x9 SLOAD PUSH1 0xA SLOAD PUSH2 0x3E5 SWAP5 SWAP4 SWAP3 SWAP2 SWAP1 DUP6 JUMP JUMPDEST PUSH1 0x40 DUP1 MLOAD SWAP6 DUP7 MSTORE PUSH1 0x20 DUP7 ADD SWAP5 SWAP1 SWAP5 MSTORE SWAP3 DUP5 ADD SWAP2 SWAP1 SWAP2 MSTORE PUSH1 0x60 DUP4 ADD MSTORE PUSH1 0x80 DUP3 ADD MSTORE PUSH1 0xA0 ADD PUSH2 0x22E JUMP JUMPDEST PUSH2 0x2C6 PUSH2 0x13E4 JUMP JUMPDEST PUSH2 0x2C6 PUSH2 0x423 CALLDATASIZE PUSH1 0x4 PUSH2 0x2D5D JUMP JUMPDEST PUSH2 0x143B JUMP JUMPDEST PUSH2 0x2C6 PUSH2 0x436 CALLDATASIZE PUSH1 0x4 PUSH2 0x292A JUMP JUMPDEST PUSH2 0x17C9 JUMP JUMPDEST PUSH2 0x2C6 PUSH2 0x449 CALLDATASIZE PUSH1 0x4 PUSH2 0x2C86 JUMP JUMPDEST PUSH2 0x1866 JUMP JUMPDEST PUSH2 0x456 PUSH2 0x1A1A JUMP JUMPDEST PUSH1 0x40 MLOAD PUSH2 0x22E SWAP2 SWAP1 PUSH2 0x2DCE JUMP JUMPDEST PUSH2 0x2C6 PUSH2 0x471 CALLDATASIZE PUSH1 0x4 PUSH2 0x2EB4 JUMP JUMPDEST PUSH2 0x1B90 JUMP JUMPDEST PUSH2 0x267 PUSH2 0x1C5A JUMP JUMPDEST PUSH2 0x2C6 PUSH2 0x48C CALLDATASIZE PUSH1 0x4 PUSH2 0x2EE6 JUMP JUMPDEST PUSH2 0x1CA1 JUMP JUMPDEST PUSH2 0x372 PUSH2 0x1D54 JUMP JUMPDEST PUSH2 0x2C6 PUSH2 0x4A7 CALLDATASIZE PUSH1 0x4 PUSH2 0x2F45 JUMP JUMPDEST PUSH2 0x1E6D JUMP JUMPDEST PUSH2 0x2C6 PUSH2 0x4BA CALLDATASIZE PUSH1 0x4 PUSH2 0x2FA7 JUMP JUMPDEST PUSH2 0x225B JUMP JUMPDEST PUSH2 0x4D2 PUSH2 0x4CD CALLDATASIZE PUSH1 0x4 PUSH2 0x2C86 JUMP JUMPDEST PUSH2 0x2295 JUMP JUMPDEST PUSH1 0x40 MLOAD PUSH2 0x22E SWAP2 SWAP1 PUSH2 0x2FCD JUMP JUMPDEST PUSH2 0x2F8 PUSH2 0x4ED CALLDATASIZE PUSH1 0x4 PUSH2 0x292A JUMP JUMPDEST PUSH2 0x238D JUMP JUMPDEST PUSH1 0x1 SLOAD PUSH1 0x2 SLOAD PUSH2 0x500 SWAP2 SWAP1 DUP3 JUMP JUMPDEST PUSH1 0x40 DUP1 MLOAD SWAP3 DUP4 MSTORE PUSH1 0x20 DUP4 ADD SWAP2 SWAP1 SWAP2 MSTORE ADD PUSH2 0x22E JUMP JUMPDEST DUP1 MLOAD PUSH1 0x20 DUP2 DUP4 ADD DUP2 ADD DUP1 MLOAD PUSH1 0xB DUP3 MSTORE SWAP3 DUP3 ADD SWAP2 SWAP1 SWAP4 ADD KECCAK256 SWAP2 MSTORE DUP1 SLOAD DUP2 SWAP1 PUSH2 0x53B SWAP1 PUSH2 0x3008 JUMP JUMPDEST DUP1 PUSH1 0x1F ADD PUSH1 0x20 DUP1 SWAP2 DIV MUL PUSH1 0x20 ADD PUSH1 0x40 MLOAD SWAP1 DUP2 ADD PUSH1 0x40 MSTORE DUP1 SWAP3 SWAP2 SWAP1 DUP2 DUP2 MSTORE PUSH1 0x20 ADD DUP3 DUP1 SLOAD PUSH2 0x567 SWAP1 PUSH2 0x3008 JUMP JUMPDEST DUP1 ISZERO PUSH2 0x5B2 JUMPI DUP1 PUSH1 0x1F LT PUSH2 0x589 JUMPI PUSH2 0x100 DUP1 DUP4 SLOAD DIV MUL DUP4 MSTORE SWAP2 PUSH1 0x20 ADD SWAP2 PUSH2 0x5B2 JUMP JUMPDEST DUP3 ADD SWAP2 SWAP1 PUSH0 MSTORE PUSH1 0x20 PUSH0 KECCAK256 SWAP1 JUMPDEST DUP2 SLOAD DUP2 MSTORE SWAP1 PUSH1 0x1 ADD SWAP1 PUSH1 0x20 ADD DUP1 DUP4 GT PUSH2 0x595 JUMPI DUP3 SWAP1 SUB PUSH1 0x1F AND DUP3 ADD SWAP2 JUMPDEST POP POP POP POP POP SWAP1 DUP1 PUSH1 0x1 ADD SLOAD SWAP1 DUP1 PUSH1 0x2 ADD SLOAD SWAP1 POP DUP4 JUMP JUMPDEST PUSH1 0x3 DUP2 DUP2 SLOAD DUP2 LT PUSH2 0x5D7 JUMPI PUSH0 DUP1 REVERT JUMPDEST PUSH0 SWAP2 DUP3 MSTORE PUSH1 0x20 SWAP1 SWAP2 KECCAK256 PUSH1 0x7 SWAP1 SWAP2 MUL ADD DUP1 SLOAD PUSH1 0x1 DUP3 ADD SLOAD PUSH1 0x2 DUP4 ADD SLOAD PUSH1 0x3 DUP5 ADD SLOAD PUSH1 0x4 DUP6 ADD SLOAD PUSH1 0x5 DUP7 ADD SLOAD PUSH1 0x6 DUP8 ADD DUP1 SLOAD SWAP7 SWAP9 POP PUSH1 0x1 PUSH1 0x1 PUSH1 0xA0 SHL SUB DUP7 AND SWAP8 PUSH1 0xFF PUSH1 0x1 PUSH1 0xA0 SHL SWAP1 SWAP8 DIV DUP8 AND SWAP8 SWAP6 SWAP7 SWAP5 SWAP6 DUP5 DUP7 AND SWAP6 PUSH2 0x100 SWAP1 SWAP6 DIV SWAP1 SWAP5 AND SWAP4 SWAP1 SWAP2 SWAP1 PUSH2 0x640 SWAP1 PUSH2 0x3008 JUMP JUMPDEST DUP1 PUSH1 0x1F ADD PUSH1 0x20 DUP1 SWAP2 DIV MUL PUSH1 0x20 ADD PUSH1 0x40 MLOAD SWAP1 DUP2 ADD PUSH1 0x40 MSTORE DUP1 SWAP3 SWAP2 SWAP1 DUP2 DUP2 MSTORE PUSH1 0x20 ADD DUP3 DUP1 SLOAD PUSH2 0x66C SWAP1 PUSH2 0x3008 JUMP JUMPDEST DUP1 ISZERO PUSH2 0x6B7 JUMPI DUP1 PUSH1 0x1F LT PUSH2 0x68E JUMPI PUSH2 0x100 DUP1 DUP4 SLOAD DIV MUL DUP4 MSTORE SWAP2 PUSH1 0x20 ADD SWAP2 PUSH2 0x6B7 JUMP JUMPDEST DUP3 ADD SWAP2 SWAP1 PUSH0 MSTORE PUSH1 0x20 PUSH0 KECCAK256 SWAP1 JUMPDEST DUP2 SLOAD DUP2 MSTORE SWAP1 PUSH1 0x1 ADD SWAP1 PUSH1 0x20 ADD DUP1 DUP4 GT PUSH2 0x69A JUMPI DUP3 SWAP1 SUB PUSH1 0x1F AND DUP3 ADD SWAP2 JUMPDEST POP POP POP POP POP SWAP1 POP DUP10 JUMP JUMPDEST PUSH1 0xC DUP2 DUP2 SLOAD DUP2 LT PUSH2 0x6D0 JUMPI PUSH0 DUP1 REVERT JUMPDEST SWAP1 PUSH0 MSTORE PUSH1 0x20 PUSH0 KECCAK256 ADD PUSH0 SWAP2 POP SWAP1 POP DUP1 SLOAD PUSH2 0x6E8 SWAP1 PUSH2 0x3008 JUMP JUMPDEST DUP1 PUSH1 0x1F ADD PUSH1 0x20 DUP1 SWAP2 DIV MUL PUSH1 0x20 ADD PUSH1 0x40 MLOAD SWAP1 DUP2 ADD PUSH1 0x40 MSTORE DUP1 SWAP3 SWAP2 SWAP1 DUP2 DUP2 MSTORE PUSH1 0x20 ADD DUP3 DUP1 SLOAD PUSH2 0x714 SWAP1 PUSH2 0x3008 JUMP JUMPDEST DUP1 ISZERO PUSH2 0x75F JUMPI DUP1 PUSH1 0x1F LT PUSH2 0x736 JUMPI PUSH2 0x100 DUP1 DUP4 SLOAD DIV MUL DUP4 MSTORE SWAP2 PUSH1 0x20 ADD SWAP2 PUSH2 0x75F JUMP JUMPDEST DUP3 ADD SWAP2 SWAP1 PUSH0 MSTORE PUSH1 0x20 PUSH0 KECCAK256 SWAP1 JUMPDEST DUP2 SLOAD DUP2 MSTORE SWAP1 PUSH1 0x1 ADD SWAP1 PUSH1 0x20 ADD DUP1 DUP4 GT PUSH2 0x742 JUMPI DUP3 SWAP1 SUB PUSH1 0x1F AND DUP3 ADD SWAP2 JUMPDEST POP POP POP POP POP DUP2 JUMP JUMPDEST PUSH2 0x76F PUSH2 0x239C JUMP JUMPDEST PUSH1 0x1 DUP5 PUSH1 0xC DUP2 GT ISZERO PUSH2 0x783 JUMPI PUSH2 0x783 PUSH2 0x2941 JUMP JUMPDEST EQ DUP1 PUSH2 0x7A0 JUMPI POP PUSH1 0x2 DUP5 PUSH1 0xC DUP2 GT ISZERO PUSH2 0x79E JUMPI PUSH2 0x79E PUSH2 0x2941 JUMP JUMPDEST EQ JUMPDEST DUP1 PUSH2 0x7BC JUMPI POP PUSH1 0x3 DUP5 PUSH1 0xC DUP2 GT ISZERO PUSH2 0x7BA JUMPI PUSH2 0x7BA PUSH2 0x2941 JUMP JUMPDEST EQ JUMPDEST DUP1 PUSH2 0x7D8 JUMPI POP PUSH1 0x4 DUP5 PUSH1 0xC DUP2 GT ISZERO PUSH2 0x7D6 JUMPI PUSH2 0x7D6 PUSH2 0x2941 JUMP JUMPDEST EQ JUMPDEST DUP1 PUSH2 0x7F4 JUMPI POP PUSH1 0x5 DUP5 PUSH1 0xC DUP2 GT ISZERO PUSH2 0x7F2 JUMPI PUSH2 0x7F2 PUSH2 0x2941 JUMP JUMPDEST EQ JUMPDEST DUP1 PUSH2 0x810 JUMPI POP PUSH1 0x6 DUP5 PUSH1 0xC DUP2 GT ISZERO PUSH2 0x80E JUMPI PUSH2 0x80E PUSH2 0x2941 JUMP JUMPDEST EQ JUMPDEST DUP1 PUSH2 0x82C JUMPI POP PUSH1 0xB DUP5 PUSH1 0xC DUP2 GT ISZERO PUSH2 0x82A JUMPI PUSH2 0x82A PUSH2 0x2941 JUMP JUMPDEST EQ JUMPDEST DUP1 PUSH2 0x848 JUMPI POP PUSH1 0xC DUP5 PUSH1 0xC DUP2 GT ISZERO PUSH2 0x846 JUMPI PUSH2 0x846 PUSH2 0x2941 JUMP JUMPDEST EQ JUMPDEST PUSH2 0x8BF JUMPI PUSH1 0x40 MLOAD PUSH3 0x461BCD PUSH1 0xE5 SHL DUP2 MSTORE PUSH1 0x20 PUSH1 0x4 DUP3 ADD MSTORE PUSH1 0x37 PUSH1 0x24 DUP3 ADD MSTORE PUSH32 0x44617368626F6172643A20496E76616C696420636F6E646974696F6E20666F72 PUSH1 0x44 DUP3 ADD MSTORE PUSH32 0x2073696E676C65207468726573686F6C6420616C657274000000000000000000 PUSH1 0x64 DUP3 ADD MSTORE PUSH1 0x84 ADD JUMPDEST PUSH1 0x40 MLOAD DUP1 SWAP2 SUB SWAP1 REVERT JUMPDEST PUSH1 0x19 DUP1 SLOAD PUSH0 SWAP2 DUP3 PUSH2 0x8CF DUP4 PUSH2 0x3054 JUMP JUMPDEST SWAP2 SWAP1 POP SSTORE SWAP1 POP PUSH0 PUSH1 0x40 MLOAD DUP1 PUSH2 0x120 ADD PUSH1 0x40 MSTORE DUP1 DUP4 DUP2 MSTORE PUSH1 0x20 ADD CALLER PUSH1 0x1 PUSH1 0x1 PUSH1 0xA0 SHL SUB AND DUP2 MSTORE PUSH1 0x20 ADD DUP8 PUSH1 0xC DUP2 GT ISZERO PUSH2 0x909 JUMPI PUSH2 0x909 PUSH2 0x2941 JUMP JUMPDEST DUP2 MSTORE PUSH1 0x20 ADD DUP7 DUP2 MSTORE PUSH1 0x20 ADD PUSH0 DUP2 MSTORE PUSH1 0x20 ADD PUSH1 0x1 ISZERO ISZERO DUP2 MSTORE PUSH1 0x20 ADD PUSH0 ISZERO ISZERO DUP2 MSTORE PUSH1 0x20 ADD PUSH0 DUP2 MSTORE PUSH1 0x20 ADD DUP6 DUP6 DUP1 DUP1 PUSH1 0x1F ADD PUSH1 0x20 DUP1 SWAP2 DIV MUL PUSH1 0x20 ADD PUSH1 0x40 MLOAD SWAP1 DUP2 ADD PUSH1 0x40 MSTORE DUP1 SWAP4 SWAP3 SWAP2 SWAP1 DUP2 DUP2 MSTORE PUSH1 0x20 ADD DUP4 DUP4 DUP1 DUP3 DUP5 CALLDATACOPY PUSH0 SWAP3 ADD DUP3 SWAP1 MSTORE POP SWAP4 SWAP1 SWAP5 MSTORE POP POP PUSH1 0x12 SLOAD SWAP3 SWAP4 POP SWAP2 SWAP1 SWAP2 SUB SWAP1 POP PUSH2 0x98F JUMPI PUSH1 0x19 DUP1 SLOAD SWAP1 PUSH0 PUSH2 0x987 DUP4 PUSH2 0x3054 JUMP JUMPDEST SWAP1 SWAP2 SSTORE POP PUSH1 0x12 SSTORE JUMPDEST PUSH1 0x13 DUP1 SLOAD CALLER PUSH1 0x1 PUSH1 0x1 PUSH1 0xA0 SHL SUB NOT DUP3 AND DUP2 OR DUP4 SSTORE DUP9 SWAP3 SWAP2 PUSH1 0x1 PUSH1 0x1 PUSH1 0xA8 SHL SUB NOT AND PUSH1 0xFF PUSH1 0xA0 SHL NOT SWAP1 SWAP2 AND OR PUSH1 0x1 PUSH1 0xA0 SHL DUP4 PUSH1 0xC DUP2 GT ISZERO PUSH2 0x9D1 JUMPI PUSH2 0x9D1 PUSH2 0x2941 JUMP JUMPDEST MUL OR SWAP1 SSTORE POP PUSH1 0x14 DUP6 SWAP1 SSTORE PUSH0 PUSH1 0x15 SSTORE PUSH1 0x18 PUSH2 0x9EC DUP5 DUP7 DUP4 PUSH2 0x30CB JUMP JUMPDEST POP PUSH1 0x16 DUP1 SLOAD PUSH2 0xFFFF NOT AND PUSH1 0x1 SWAP1 DUP2 OR SWAP1 SWAP2 SSTORE PUSH0 PUSH1 0x17 DUP2 SWAP1 SSTORE PUSH1 0x3 DUP1 SLOAD SWAP3 DUP4 ADD DUP2 SSTORE SWAP1 MSTORE DUP2 MLOAD PUSH1 0x7 SWAP1 SWAP2 MUL PUSH32 0xC2575A0E9E593C00F959F8C92F12DB2869C3395A3B0502D05E2516446F71F85B DUP2 ADD SWAP2 DUP3 SSTORE PUSH1 0x20 DUP4 ADD MLOAD PUSH32 0xC2575A0E9E593C00F959F8C92F12DB2869C3395A3B0502D05E2516446F71F85C SWAP1 SWAP2 ADD DUP1 SLOAD PUSH1 0x1 PUSH1 0x1 PUSH1 0xA0 SHL SUB SWAP1 SWAP3 AND PUSH1 0x1 PUSH1 0x1 PUSH1 0xA0 SHL SUB NOT DUP4 AND DUP2 OR DUP3 SSTORE PUSH1 0x40 DUP6 ADD MLOAD DUP6 SWAP5 SWAP4 SWAP1 SWAP3 SWAP2 PUSH1 0x1 PUSH1 0x1 PUSH1 0xA8 SHL SUB NOT SWAP1 SWAP2 AND OR PUSH1 0x1 PUSH1 0xA0 SHL DUP4 PUSH1 0xC DUP2 GT ISZERO PUSH2 0xAB0 JUMPI PUSH2 0xAB0 PUSH2 0x2941 JUMP JUMPDEST MUL OR SWAP1 SSTORE POP PUSH1 0x60 DUP3 ADD MLOAD PUSH1 0x2 DUP3 ADD SSTORE PUSH1 0x80 DUP3 ADD MLOAD PUSH1 0x3 DUP3 ADD SSTORE PUSH1 0xA0 DUP3 ADD MLOAD PUSH1 0x4 DUP3 ADD DUP1 SLOAD PUSH1 0xC0 DUP6 ADD MLOAD PUSH2 0xFFFF NOT SWAP1 SWAP2 AND SWAP3 ISZERO ISZERO PUSH2 0xFF00 NOT AND SWAP3 SWAP1 SWAP3 OR PUSH2 0x100 SWAP3 ISZERO ISZERO DUP4 MUL OR SWAP1 SSTORE PUSH1 0xE0 DUP4 ADD MLOAD PUSH1 0x5 DUP4 ADD SSTORE DUP3 ADD MLOAD PUSH1 0x6 DUP3 ADD SWAP1 PUSH2 0xB13 SWAP1 DUP3 PUSH2 0x317F JUMP JUMPDEST POP POP PUSH1 0x12 SLOAD PUSH1 0x40 MLOAD CALLER SWAP3 POP PUSH32 0x778334AF3114ADE8967680FBF1E80E8E34DBE95416246AAEF26907AE22CDD358 SWAP1 PUSH2 0xB53 SWAP1 DUP11 SWAP1 DUP11 SWAP1 PUSH0 SWAP1 DUP12 SWAP1 DUP12 SWAP1 PUSH2 0x325C JUMP JUMPDEST PUSH1 0x40 MLOAD DUP1 SWAP2 SUB SWAP1 LOG3 POP POP POP POP POP POP JUMP JUMPDEST PUSH2 0xB6B PUSH2 0x239C JUMP JUMPDEST PUSH1 0x12 SLOAD ISZERO DUP1 ISZERO SWAP1 PUSH2 0xB7F JUMPI POP PUSH1 0x16 SLOAD PUSH1 0xFF AND ISZERO JUMPDEST ISZERO PUSH2 0xBBE JUMPI PUSH1 0x16 DUP1 SLOAD PUSH2 0xFFFF NOT AND PUSH1 0x1 OR SWAP1 SSTORE PUSH1 0x12 SLOAD PUSH1 0x40 MLOAD PUSH32 0x5B2A724A870CF7FE2C83BD903795D3BA6163EE1091A97587EDF93FF866E22965 SWAP1 PUSH0 SWAP1 LOG2 JUMPDEST JUMP JUMPDEST PUSH1 0x60 PUSH1 0xC DUP1 SLOAD DUP1 PUSH1 0x20 MUL PUSH1 0x20 ADD PUSH1 0x40 MLOAD SWAP1 DUP2 ADD PUSH1 0x40 MSTORE DUP1 SWAP3 SWAP2 SWAP1 DUP2 DUP2 MSTORE PUSH1 0x20 ADD PUSH0 SWAP1 JUMPDEST DUP3 DUP3 LT ISZERO PUSH2 0xC8B JUMPI DUP4 DUP3 SWAP1 PUSH0 MSTORE PUSH1 0x20 PUSH0 KECCAK256 ADD DUP1 SLOAD PUSH2 0xC00 SWAP1 PUSH2 0x3008 JUMP JUMPDEST DUP1 PUSH1 0x1F ADD PUSH1 0x20 DUP1 SWAP2 DIV MUL PUSH1 0x20 ADD PUSH1 0x40 MLOAD SWAP1 DUP2 ADD PUSH1 0x40 MSTORE DUP1 SWAP3 SWAP2 SWAP1 DUP2 DUP2 MSTORE PUSH1 0x20 ADD DUP3 DUP1 SLOAD PUSH2 0xC2C SWAP1 PUSH2 0x3008 JUMP JUMPDEST DUP1 ISZERO PUSH2 0xC77 JUMPI DUP1 PUSH1 0x1F LT PUSH2 0xC4E JUMPI PUSH2 0x100 DUP1 DUP4 SLOAD DIV MUL DUP4 MSTORE SWAP2 PUSH1 0x20 ADD SWAP2 PUSH2 0xC77 JUMP JUMPDEST DUP3 ADD SWAP2 SWAP1 PUSH0 MSTORE PUSH1 0x20 PUSH0 KECCAK256 SWAP1 JUMPDEST DUP2 SLOAD DUP2 MSTORE SWAP1 PUSH1 0x1 ADD SWAP1 PUSH1 0x20 ADD DUP1 DUP4 GT PUSH2 0xC5A JUMPI DUP3 SWAP1 SUB PUSH1 0x1F AND DUP3 ADD SWAP2 JUMPDEST POP POP POP POP POP DUP2 MSTORE PUSH1 0x20 ADD SWAP1 PUSH1 0x1 ADD SWAP1 PUSH2 0xBE3 JUMP JUMPDEST POP POP POP POP SWAP1 POP SWAP1 JUMP JUMPDEST PUSH1 0xE DUP2 DUP2 SLOAD DUP2 LT PUSH2 0xCA3 JUMPI PUSH0 DUP1 REVERT JUMPDEST SWAP1 PUSH0 MSTORE PUSH1 0x20 PUSH0 KECCAK256 SWAP1 PUSH1 0x5 MUL ADD PUSH0 SWAP2 POP SWAP1 POP DUP1 PUSH0 ADD DUP1 SLOAD PUSH2 0xCC2 SWAP1 PUSH2 0x3008 JUMP JUMPDEST DUP1 PUSH1 0x1F ADD PUSH1 0x20 DUP1 SWAP2 DIV MUL PUSH1 0x20 ADD PUSH1 0x40 MLOAD SWAP1 DUP2 ADD PUSH1 0x40 MSTORE DUP1 SWAP3 SWAP2 SWAP1 DUP2 DUP2 MSTORE PUSH1 0x20 ADD DUP3 DUP1 SLOAD PUSH2 0xCEE SWAP1 PUSH2 0x3008 JUMP JUMPDEST DUP1 ISZERO PUSH2 0xD39 JUMPI DUP1 PUSH1 0x1F LT PUSH2 0xD10 JUMPI PUSH2 0x100 DUP1 DUP4 SLOAD DIV MUL DUP4 MSTORE SWAP2 PUSH1 0x20 ADD SWAP2 PUSH2 0xD39 JUMP JUMPDEST DUP3 ADD SWAP2 SWAP1 PUSH0 MSTORE PUSH1 0x20 PUSH0 KECCAK256 SWAP1 JUMPDEST DUP2 SLOAD DUP2 MSTORE SWAP1 PUSH1 0x1 ADD SWAP1 PUSH1 0x20 ADD DUP1 DUP4 GT PUSH2 0xD1C JUMPI DUP3 SWAP1 SUB PUSH1 0x1F AND DUP3 ADD SWAP2 JUMPDEST POP POP POP POP PUSH1 0x1 DUP4 ADD SLOAD PUSH1 0x2 DUP5 ADD SLOAD PUSH1 0x3 DUP6 ADD SLOAD PUSH1 0x4 SWAP1 SWAP6 ADD SLOAD SWAP4 SWAP5 PUSH1 0x1 PUSH1 0x1 PUSH1 0xA0 SHL SUB SWAP1 SWAP3 AND SWAP4 SWAP1 SWAP3 POP DUP6 JUMP JUMPDEST PUSH2 0xD6E PUSH2 0x239C JUMP JUMPDEST PUSH1 0x6 DUP5 SWAP1 SSTORE PUSH1 0x7 DUP4 SWAP1 SSTORE PUSH1 0x8 DUP3 SWAP1 SSTORE PUSH1 0x9 DUP2 SWAP1 SSTORE TIMESTAMP PUSH1 0xA DUP2 SWAP1 SSTORE PUSH1 0x40 DUP1 MLOAD DUP7 DUP2 MSTORE PUSH1 0x20 DUP2 ADD DUP7 SWAP1 MSTORE DUP1 DUP3 ADD DUP6 SWAP1 MSTORE PUSH1 0x60 DUP2 ADD DUP5 SWAP1 MSTORE PUSH1 0x80 DUP2 ADD SWAP3 SWAP1 SWAP3 MSTORE MLOAD PUSH32 0x8ECD0C5F0D0F300FE6241546A3CC8C4F4DC6F4573ED292C6FFBD86A83353035 SWAP2 DUP2 SWAP1 SUB PUSH1 0xA0 ADD SWAP1 LOG1 POP POP POP POP JUMP JUMPDEST PUSH2 0xDE4 PUSH2 0x239C JUMP JUMPDEST PUSH0 PUSH1 0xB DUP5 DUP5 PUSH1 0x40 MLOAD PUSH2 0xDF7 SWAP3 SWAP2 SWAP1 PUSH2 0x3293 JUMP JUMPDEST SWAP1 DUP2 MSTORE PUSH1 0x40 MLOAD SWAP1 DUP2 SWAP1 SUB PUSH1 0x20 ADD SWAP1 KECCAK256 SWAP1 POP PUSH0 DUP1 JUMPDEST PUSH1 0xC SLOAD DUP2 LT ISZERO PUSH2 0xE95 JUMPI DUP6 DUP6 PUSH1 0x40 MLOAD PUSH1 0x20 ADD PUSH2 0xE28 SWAP3 SWAP2 SWAP1 PUSH2 0x3293 JUMP JUMPDEST PUSH1 0x40 MLOAD PUSH1 0x20 DUP2 DUP4 SUB SUB DUP2 MSTORE SWAP1 PUSH1 0x40 MSTORE DUP1 MLOAD SWAP1 PUSH1 0x20 ADD KECCAK256 PUSH1 0xC DUP3 DUP2 SLOAD DUP2 LT PUSH2 0xE51 JUMPI PUSH2 0xE51 PUSH2 0x32A2 JUMP JUMPDEST SWAP1 PUSH0 MSTORE PUSH1 0x20 PUSH0 KECCAK256 ADD PUSH1 0x40 MLOAD PUSH1 0x20 ADD PUSH2 0xE69 SWAP2 SWAP1 PUSH2 0x32B6 JUMP JUMPDEST PUSH1 0x40 MLOAD PUSH1 0x20 DUP2 DUP4 SUB SUB DUP2 MSTORE SWAP1 PUSH1 0x40 MSTORE DUP1 MLOAD SWAP1 PUSH1 0x20 ADD KECCAK256 SUB PUSH2 0xE8D JUMPI PUSH1 0x1 SWAP2 POP PUSH2 0xE95 JUMP JUMPDEST PUSH1 0x1 ADD PUSH2 0xE0B JUMP JUMPDEST POP DUP1 PUSH2 0xF18 JUMPI PUSH1 0xC DUP1 SLOAD PUSH1 0x1 DUP2 ADD DUP3 SSTORE PUSH0 SWAP2 SWAP1 SWAP2 MSTORE PUSH32 0xDF6966C971051C3D54EC59162606531493A51404A002842F56009D7E5CF4A8C7 ADD PUSH2 0xED7 DUP6 DUP8 DUP4 PUSH2 0x30CB JUMP JUMPDEST POP DUP5 DUP5 PUSH1 0x40 MLOAD PUSH2 0xEE8 SWAP3 SWAP2 SWAP1 PUSH2 0x3293 JUMP JUMPDEST PUSH1 0x40 MLOAD SWAP1 DUP2 SWAP1 SUB DUP2 KECCAK256 SWAP1 PUSH32 0x81C6DAD8FC2E53ED05F364A56D3DF0F0836727EECA7D52C4C25F995362A02744 SWAP1 PUSH0 SWAP1 LOG2 JUMPDEST DUP2 PUSH2 0xF24 DUP6 DUP8 DUP4 PUSH2 0x30CB JUMP JUMPDEST POP PUSH1 0x1 DUP3 ADD DUP4 SWAP1 SSTORE TIMESTAMP PUSH1 0x2 DUP4 ADD SSTORE PUSH1 0x40 MLOAD PUSH2 0xF42 SWAP1 DUP7 SWAP1 DUP7 SWAP1 PUSH2 0x3293 JUMP JUMPDEST PUSH1 0x40 DUP1 MLOAD SWAP2 DUP3 SWAP1 SUB DUP3 KECCAK256 DUP6 DUP4 MSTORE TIMESTAMP PUSH1 0x20 DUP5 ADD MSTORE SWAP2 PUSH32 0x30167B93764FAD9E40CE98169F9156F222D6CA60145C01B3509119B8D413ED6F SWAP2 ADD PUSH1 0x40 MLOAD DUP1 SWAP2 SUB SWAP1 LOG2 POP POP POP POP POP JUMP JUMPDEST PUSH2 0xF90 PUSH2 0x239C JUMP JUMPDEST PUSH1 0x12 SLOAD ISZERO DUP1 ISZERO SWAP1 PUSH2 0xFA8 JUMPI POP PUSH1 0x16 SLOAD PUSH2 0x100 SWAP1 DIV PUSH1 0xFF AND JUMPDEST ISZERO PUSH2 0xBBE JUMPI PUSH1 0x16 DUP1 SLOAD PUSH2 0xFF00 NOT AND SWAP1 SSTORE PUSH0 PUSH1 0x17 DUP2 SWAP1 SSTORE PUSH1 0x12 SLOAD PUSH1 0x40 MLOAD SWAP1 SWAP2 PUSH32 0xC26F9C3201044D3757E27488CD192595AAF8B176842B2175EF47A4CDF1A53952 SWAP2 LOG2 JUMP JUMPDEST PUSH2 0xFF3 PUSH2 0x239C JUMP JUMPDEST PUSH2 0xBBE PUSH0 PUSH2 0x23C8 JUMP JUMPDEST DUP1 MLOAD PUSH1 0x20 DUP2 DUP4 ADD DUP2 ADD DUP1 MLOAD PUSH1 0xD DUP3 MSTORE SWAP3 DUP3 ADD SWAP2 SWAP1 SWAP4 ADD KECCAK256 SWAP2 MSTORE DUP1 SLOAD DUP2 SWAP1 PUSH2 0x1022 SWAP1 PUSH2 0x3008 JUMP JUMPDEST DUP1 PUSH1 0x1F ADD PUSH1 0x20 DUP1 SWAP2 DIV MUL PUSH1 0x20 ADD PUSH1 0x40 MLOAD SWAP1 DUP2 ADD PUSH1 0x40 MSTORE DUP1 SWAP3 SWAP2 SWAP1 DUP2 DUP2 MSTORE PUSH1 0x20 ADD DUP3 DUP1 SLOAD PUSH2 0x104E SWAP1 PUSH2 0x3008 JUMP JUMPDEST DUP1 ISZERO PUSH2 0x1099 JUMPI DUP1 PUSH1 0x1F LT PUSH2 0x1070 JUMPI PUSH2 0x100 DUP1 DUP4 SLOAD DIV MUL DUP4 MSTORE SWAP2 PUSH1 0x20 ADD SWAP2 PUSH2 0x1099 JUMP JUMPDEST DUP3 ADD SWAP2 SWAP1 PUSH0 MSTORE PUSH1 0x20 PUSH0 KECCAK256 SWAP1 JUMPDEST DUP2 SLOAD DUP2 MSTORE SWAP1 PUSH1 0x1 ADD SWAP1 PUSH1 0x20 ADD DUP1 DUP4 GT PUSH2 0x107C JUMPI DUP3 SWAP1 SUB PUSH1 0x1F AND DUP3 ADD SWAP2 JUMPDEST POP POP POP POP POP SWAP1 DUP1 PUSH1 0x1 ADD DUP1 SLOAD PUSH2 0x10AE SWAP1 PUSH2 0x3008 JUMP JUMPDEST DUP1 PUSH1 0x1F ADD PUSH1 0x20 DUP1 SWAP2 DIV MUL PUSH1 0x20 ADD PUSH1 0x40 MLOAD SWAP1 DUP2 ADD PUSH1 0x40 MSTORE DUP1 SWAP3 SWAP2 SWAP1 DUP2 DUP2 MSTORE PUSH1 0x20 ADD DUP3 DUP1 SLOAD PUSH2 0x10DA SWAP1 PUSH2 0x3008 JUMP JUMPDEST DUP1 ISZERO PUSH2 0x1125 JUMPI DUP1 PUSH1 0x1F LT PUSH2 0x10FC JUMPI PUSH2 0x100 DUP1 DUP4 SLOAD DIV MUL DUP4 MSTORE SWAP2 PUSH1 0x20 ADD SWAP2 PUSH2 0x1125 JUMP JUMPDEST DUP3 ADD SWAP2 SWAP1 PUSH0 MSTORE PUSH1 0x20 PUSH0 KECCAK256 SWAP1 JUMPDEST DUP2 SLOAD DUP2 MSTORE SWAP1 PUSH1 0x1 ADD SWAP1 PUSH1 0x20 ADD DUP1 DUP4 GT PUSH2 0x1108 JUMPI DUP3 SWAP1 SUB PUSH1 0x1F AND DUP3 ADD SWAP2 JUMPDEST POP POP POP POP POP SWAP1 DUP1 PUSH1 0x2 ADD SLOAD SWAP1 DUP1 PUSH1 0x3 ADD SLOAD SWAP1 POP DUP5 JUMP JUMPDEST PUSH1 0x60 PUSH1 0xF DUP1 SLOAD DUP1 PUSH1 0x20 MUL PUSH1 0x20 ADD PUSH1 0x40 MLOAD SWAP1 DUP2 ADD PUSH1 0x40 MSTORE DUP1 SWAP3 SWAP2 SWAP1 DUP2 DUP2 MSTORE PUSH1 0x20 ADD PUSH0 SWAP1 JUMPDEST DUP3 DUP3 LT ISZERO PUSH2 0xC8B JUMPI DUP4 DUP3 SWAP1 PUSH0 MSTORE PUSH1 0x20 PUSH0 KECCAK256 SWAP1 PUSH1 0x5 MUL ADD PUSH1 0x40 MLOAD DUP1 PUSH1 0xA0 ADD PUSH1 0x40 MSTORE SWAP1 DUP2 PUSH0 DUP3 ADD DUP1 SLOAD PUSH2 0x118E SWAP1 PUSH2 0x3008 JUMP JUMPDEST DUP1 PUSH1 0x1F ADD PUSH1 0x20 DUP1 SWAP2 DIV MUL PUSH1 0x20 ADD PUSH1 0x40 MLOAD SWAP1 DUP2 ADD PUSH1 0x40 MSTORE DUP1 SWAP3 SWAP2 SWAP1 DUP2 DUP2 MSTORE PUSH1 0x20 ADD DUP3 DUP1 SLOAD PUSH2 0x11BA SWAP1 PUSH2 0x3008 JUMP JUMPDEST DUP1 ISZERO PUSH2 0x1205 JUMPI DUP1 PUSH1 0x1F LT PUSH2 0x11DC JUMPI PUSH2 0x100 DUP1 DUP4 SLOAD DIV MUL DUP4 MSTORE SWAP2 PUSH1 0x20 ADD SWAP2 PUSH2 0x1205 JUMP JUMPDEST DUP3 ADD SWAP2 SWAP1 PUSH0 MSTORE PUSH1 0x20 PUSH0 KECCAK256 SWAP1 JUMPDEST DUP2 SLOAD DUP2 MSTORE SWAP1 PUSH1 0x1 ADD SWAP1 PUSH1 0x20 ADD DUP1 DUP4 GT PUSH2 0x11E8 JUMPI DUP3 SWAP1 SUB PUSH1 0x1F AND DUP3 ADD SWAP2 JUMPDEST POP POP POP SWAP2 DUP4 MSTORE POP POP PUSH1 0x1 DUP3 DUP2 ADD SLOAD PUSH1 0x1 PUSH1 0x1 PUSH1 0xA0 SHL SUB AND PUSH1 0x20 DUP1 DUP5 ADD SWAP2 SWAP1 SWAP2 MSTORE PUSH1 0x2 DUP5 ADD SLOAD PUSH1 0x40 DUP5 ADD MSTORE PUSH1 0x3 DUP5 ADD SLOAD PUSH1 0x60 DUP5 ADD MSTORE PUSH1 0x4 SWAP1 SWAP4 ADD SLOAD PUSH1 0x80 SWAP1 SWAP3 ADD SWAP2 SWAP1 SWAP2 MSTORE SWAP2 DUP4 MSTORE SWAP3 ADD SWAP2 ADD PUSH2 0x115E JUMP JUMPDEST PUSH2 0x127D PUSH1 0x40 MLOAD DUP1 PUSH1 0x80 ADD PUSH1 0x40 MSTORE DUP1 PUSH1 0x60 DUP2 MSTORE PUSH1 0x20 ADD PUSH1 0x60 DUP2 MSTORE PUSH1 0x20 ADD PUSH0 DUP2 MSTORE PUSH1 0x20 ADD PUSH0 DUP2 MSTORE POP SWAP1 JUMP JUMPDEST PUSH1 0xD DUP4 DUP4 PUSH1 0x40 MLOAD PUSH2 0x128F SWAP3 SWAP2 SWAP1 PUSH2 0x3293 JUMP JUMPDEST SWAP1 DUP2 MSTORE PUSH1 0x20 ADD PUSH1 0x40 MLOAD DUP1 SWAP2 SUB SWAP1 KECCAK256 PUSH1 0x40 MLOAD DUP1 PUSH1 0x80 ADD PUSH1 0x40 MSTORE SWAP1 DUP2 PUSH0 DUP3 ADD DUP1 SLOAD PUSH2 0x12B7 SWAP1 PUSH2 0x3008 JUMP JUMPDEST DUP1 PUSH1 0x1F ADD PUSH1 0x20 DUP1 SWAP2 DIV MUL PUSH1 0x20 ADD PUSH1 0x40 MLOAD SWAP1 DUP2 ADD PUSH1 0x40 MSTORE DUP1 SWAP3 SWAP2 SWAP1 DUP2 DUP2 MSTORE PUSH1 0x20 ADD DUP3 DUP1 SLOAD PUSH2 0x12E3 SWAP1 PUSH2 0x3008 JUMP JUMPDEST DUP1 ISZERO PUSH2 0x132E JUMPI DUP1 PUSH1 0x1F LT PUSH2 0x1305 JUMPI PUSH2 0x100 DUP1 DUP4 SLOAD DIV MUL DUP4 MSTORE SWAP2 PUSH1 0x20 ADD SWAP2 PUSH2 0x132E JUMP JUMPDEST DUP3 ADD SWAP2 SWAP1 PUSH0 MSTORE PUSH1 0x20 PUSH0 KECCAK256 SWAP1 JUMPDEST DUP2 SLOAD DUP2 MSTORE SWAP1 PUSH1 0x1 ADD SWAP1 PUSH1 0x20 ADD DUP1 DUP4 GT PUSH2 0x1311 JUMPI DUP3 SWAP1 SUB PUSH1 0x1F AND DUP3 ADD SWAP2 JUMPDEST POP POP POP POP POP DUP2 MSTORE PUSH1 0x20 ADD PUSH1 0x1 DUP3 ADD DUP1 SLOAD PUSH2 0x1347 SWAP1 PUSH2 0x3008 JUMP JUMPDEST DUP1 PUSH1 0x1F ADD PUSH1 0x20 DUP1 SWAP2 DIV MUL PUSH1 0x20 ADD PUSH1 0x40 MLOAD SWAP1 DUP2 ADD PUSH1 0x40 MSTORE DUP1 SWAP3 SWAP2 SWAP1 DUP2 DUP2 MSTORE PUSH1 0x20 ADD DUP3 DUP1 SLOAD PUSH2 0x1373 SWAP1 PUSH2 0x3008 JUMP JUMPDEST DUP1 ISZERO PUSH2 0x13BE JUMPI DUP1 PUSH1 0x1F LT PUSH2 0x1395 JUMPI PUSH2 0x100 DUP1 DUP4 SLOAD DIV MUL DUP4 MSTORE SWAP2 PUSH1 0x20 ADD SWAP2 PUSH2 0x13BE JUMP JUMPDEST DUP3 ADD SWAP2 SWAP1 PUSH0 MSTORE PUSH1 0x20 PUSH0 KECCAK256 SWAP1 JUMPDEST DUP2 SLOAD DUP2 MSTORE SWAP1 PUSH1 0x1 ADD SWAP1 PUSH1 0x20 ADD DUP1 DUP4 GT PUSH2 0x13A1 JUMPI DUP3 SWAP1 SUB PUSH1 0x1F AND DUP3 ADD SWAP2 JUMPDEST POP POP POP POP POP DUP2 MSTORE PUSH1 0x20 ADD PUSH1 0x2 DUP3 ADD SLOAD DUP2 MSTORE PUSH1 0x20 ADD PUSH1 0x3 DUP3 ADD SLOAD DUP2 MSTORE POP POP SWAP1 POP JUMPDEST SWAP3 SWAP2 POP POP JUMP JUMPDEST PUSH2 0x13EC PUSH2 0x239C JUMP JUMPDEST PUSH1 0x12 SLOAD ISZERO DUP1 ISZERO SWAP1 PUSH2 0x13FF JUMPI POP PUSH1 0x16 SLOAD PUSH1 0xFF AND JUMPDEST ISZERO PUSH2 0xBBE JUMPI PUSH1 0x16 DUP1 SLOAD PUSH1 0xFF NOT AND SWAP1 SSTORE PUSH1 0x12 SLOAD PUSH1 0x40 MLOAD PUSH32 0xD7D997A7D5BB0E259C4BCBF9213B950FC2D302D3D30540C7671B3C2E6D33088D SWAP1 PUSH0 SWAP1 LOG2 JUMP JUMPDEST PUSH2 0x1443 PUSH2 0x239C JUMP JUMPDEST PUSH2 0x144E PUSH1 0xE PUSH0 PUSH2 0x2765 JUMP JUMPDEST PUSH0 JUMPDEST DUP5 DUP2 LT ISZERO PUSH2 0x15DF JUMPI PUSH1 0xE PUSH1 0x40 MLOAD DUP1 PUSH1 0xA0 ADD PUSH1 0x40 MSTORE DUP1 DUP9 DUP9 DUP6 DUP2 DUP2 LT PUSH2 0x1477 JUMPI PUSH2 0x1477 PUSH2 0x32A2 JUMP JUMPDEST SWAP1 POP PUSH1 0x20 MUL DUP2 ADD SWAP1 PUSH2 0x1489 SWAP2 SWAP1 PUSH2 0x3327 JUMP JUMPDEST PUSH2 0x1493 SWAP1 DUP1 PUSH2 0x3345 JUMP JUMPDEST DUP1 DUP1 PUSH1 0x1F ADD PUSH1 0x20 DUP1 SWAP2 DIV MUL PUSH1 0x20 ADD PUSH1 0x40 MLOAD SWAP1 DUP2 ADD PUSH1 0x40 MSTORE DUP1 SWAP4 SWAP3 SWAP2 SWAP1 DUP2 DUP2 MSTORE PUSH1 0x20 ADD DUP4 DUP4 DUP1 DUP3 DUP5 CALLDATACOPY PUSH0 SWAP3 ADD SWAP2 SWAP1 SWAP2 MSTORE POP POP POP SWAP1 DUP3 MSTORE POP PUSH1 0x20 ADD DUP9 DUP9 DUP6 DUP2 DUP2 LT PUSH2 0x14DE JUMPI PUSH2 0x14DE PUSH2 0x32A2 JUMP JUMPDEST SWAP1 POP PUSH1 0x20 MUL DUP2 ADD SWAP1 PUSH2 0x14F0 SWAP2 SWAP1 PUSH2 0x3327 JUMP JUMPDEST PUSH2 0x1501 SWAP1 PUSH1 0x40 DUP2 ADD SWAP1 PUSH1 0x20 ADD PUSH2 0x2FA7 JUMP JUMPDEST PUSH1 0x1 PUSH1 0x1 PUSH1 0xA0 SHL SUB AND DUP2 MSTORE PUSH1 0x20 ADD DUP9 DUP9 DUP6 DUP2 DUP2 LT PUSH2 0x1521 JUMPI PUSH2 0x1521 PUSH2 0x32A2 JUMP JUMPDEST SWAP1 POP PUSH1 0x20 MUL DUP2 ADD SWAP1 PUSH2 0x1533 SWAP2 SWAP1 PUSH2 0x3327 JUMP JUMPDEST PUSH1 0x40 ADD CALLDATALOAD DUP2 MSTORE PUSH1 0x20 ADD DUP9 DUP9 DUP6 DUP2 DUP2 LT PUSH2 0x154E JUMPI PUSH2 0x154E PUSH2 0x32A2 JUMP JUMPDEST SWAP1 POP PUSH1 0x20 MUL DUP2 ADD SWAP1 PUSH2 0x1560 SWAP2 SWAP1 PUSH2 0x3327 JUMP JUMPDEST PUSH1 0x60 ADD CALLDATALOAD DUP2 MSTORE TIMESTAMP PUSH1 0x20 SWAP2 DUP3 ADD MSTORE DUP3 SLOAD PUSH1 0x1 DUP2 ADD DUP5 SSTORE PUSH0 SWAP4 DUP5 MSTORE SWAP3 KECCAK256 DUP2 MLOAD SWAP2 SWAP3 PUSH1 0x5 MUL ADD SWAP1 DUP2 SWAP1 PUSH2 0x1590 SWAP1 DUP3 PUSH2 0x317F JUMP JUMPDEST POP PUSH1 0x20 DUP3 ADD MLOAD PUSH1 0x1 DUP3 DUP2 ADD DUP1 SLOAD PUSH1 0x1 PUSH1 0x1 PUSH1 0xA0 SHL SUB NOT AND PUSH1 0x1 PUSH1 0x1 PUSH1 0xA0 SHL SUB SWAP1 SWAP4 AND SWAP3 SWAP1 SWAP3 OR SWAP1 SWAP2 SSTORE PUSH1 0x40 DUP4 ADD MLOAD PUSH1 0x2 DUP4 ADD SSTORE PUSH1 0x60 DUP4 ADD MLOAD PUSH1 0x3 DUP4 ADD SSTORE PUSH1 0x80 SWAP1 SWAP3 ADD MLOAD PUSH1 0x4 SWAP1 SWAP2 ADD SSTORE ADD PUSH2 0x1450 JUMP JUMPDEST POP PUSH2 0x15EB PUSH1 0xF PUSH0 PUSH2 0x2765 JUMP JUMPDEST PUSH0 JUMPDEST DUP3 DUP2 LT ISZERO PUSH2 0x177C JUMPI PUSH1 0xF PUSH1 0x40 MLOAD DUP1 PUSH1 0xA0 ADD PUSH1 0x40 MSTORE DUP1 DUP7 DUP7 DUP6 DUP2 DUP2 LT PUSH2 0x1614 JUMPI PUSH2 0x1614 PUSH2 0x32A2 JUMP JUMPDEST SWAP1 POP PUSH1 0x20 MUL DUP2 ADD SWAP1 PUSH2 0x1626 SWAP2 SWAP1 PUSH2 0x3327 JUMP JUMPDEST PUSH2 0x1630 SWAP1 DUP1 PUSH2 0x3345 JUMP JUMPDEST DUP1 DUP1 PUSH1 0x1F ADD PUSH1 0x20 DUP1 SWAP2 DIV MUL PUSH1 0x20 ADD PUSH1 0x40 MLOAD SWAP1 DUP2 ADD PUSH1 0x40 MSTORE DUP1 SWAP4 SWAP3 SWAP2 SWAP1 DUP2 DUP2 MSTORE PUSH1 0x20 ADD DUP4 DUP4 DUP1 DUP3 DUP5 CALLDATACOPY PUSH0 SWAP3 ADD SWAP2 SWAP1 SWAP2 MSTORE POP POP POP SWAP1 DUP3 MSTORE POP PUSH1 0x20 ADD DUP7 DUP7 DUP6 DUP2 DUP2 LT PUSH2 0x167B JUMPI PUSH2 0x167B PUSH2 0x32A2 JUMP JUMPDEST SWAP1 POP PUSH1 0x20 MUL DUP2 ADD SWAP1 PUSH2 0x168D SWAP2 SWAP1 PUSH2 0x3327 JUMP JUMPDEST PUSH2 0x169E SWAP1 PUSH1 0x40 DUP2 ADD SWAP1 PUSH1 0x20 ADD PUSH2 0x2FA7 JUMP JUMPDEST PUSH1 0x1 PUSH1 0x1 PUSH1 0xA0 SHL SUB AND DUP2 MSTORE PUSH1 0x20 ADD DUP7 DUP7 DUP6 DUP2 DUP2 LT PUSH2 0x16BE JUMPI PUSH2 0x16BE PUSH2 0x32A2 JUMP JUMPDEST SWAP1 POP PUSH1 0x20 MUL DUP2 ADD SWAP1 PUSH2 0x16D0 SWAP2 SWAP1 PUSH2 0x3327 JUMP JUMPDEST PUSH1 0x40 ADD CALLDATALOAD DUP2 MSTORE PUSH1 0x20 ADD DUP7 DUP7 DUP6 DUP2 DUP2 LT PUSH2 0x16EB JUMPI PUSH2 0x16EB PUSH2 0x32A2 JUMP JUMPDEST SWAP1 POP PUSH1 0x20 MUL DUP2 ADD SWAP1 PUSH2 0x16FD SWAP2 SWAP1 PUSH2 0x3327 JUMP JUMPDEST PUSH1 0x60 ADD CALLDATALOAD DUP2 MSTORE TIMESTAMP PUSH1 0x20 SWAP2 DUP3 ADD MSTORE DUP3 SLOAD PUSH1 0x1 DUP2 ADD DUP5 SSTORE PUSH0 SWAP4 DUP5 MSTORE SWAP3 KECCAK256 DUP2 MLOAD SWAP2 SWAP3 PUSH1 0x5 MUL ADD SWAP1 DUP2 SWAP1 PUSH2 0x172D SWAP1 DUP3 PUSH2 0x317F JUMP JUMPDEST POP PUSH1 0x20 DUP3 ADD MLOAD PUSH1 0x1 DUP3 DUP2 ADD DUP1 SLOAD PUSH1 0x1 PUSH1 0x1 PUSH1 0xA0 SHL SUB NOT AND PUSH1 0x1 PUSH1 0x1 PUSH1 0xA0 SHL SUB SWAP1 SWAP4 AND SWAP3 SWAP1 SWAP3 OR SWAP1 SWAP2 SSTORE PUSH1 0x40 DUP4 ADD MLOAD PUSH1 0x2 DUP4 ADD SSTORE PUSH1 0x60 DUP4 ADD MLOAD PUSH1 0x3 DUP4 ADD SSTORE PUSH1 0x80 SWAP1 SWAP3 ADD MLOAD PUSH1 0x4 SWAP1 SWAP2 ADD SSTORE ADD PUSH2 0x15ED JUMP JUMPDEST POP PUSH1 0x10 DUP2 SWAP1 SSTORE TIMESTAMP PUSH1 0x11 DUP2 SWAP1 SSTORE PUSH1 0x40 DUP1 MLOAD DUP4 DUP2 MSTORE PUSH1 0x20 DUP2 ADD SWAP3 SWAP1 SWAP3 MSTORE PUSH32 0xADF8225E8E3A7CE8AAABD2D8357177B1A9937694639E8488214B2F12C18146EE SWAP2 ADD PUSH1 0x40 MLOAD DUP1 SWAP2 SUB SWAP1 LOG1 POP POP POP POP POP JUMP JUMPDEST PUSH2 0x17D1 PUSH2 0x239C JUMP JUMPDEST PUSH1 0x5 SLOAD PUSH1 0xFF AND DUP1 PUSH2 0x17E3 JUMPI POP PUSH1 0x2 SLOAD ISZERO ISZERO JUMPDEST ISZERO PUSH2 0x17F3 JUMPI PUSH1 0x1 SLOAD PUSH1 0x4 SSTORE PUSH2 0x17F9 JUMP JUMPDEST PUSH1 0x4 DUP2 SWAP1 SSTORE JUMPDEST PUSH1 0x5 DUP1 SLOAD PUSH1 0xFF NOT AND PUSH1 0x1 SWAP1 DUP2 OR SWAP1 SWAP2 SSTORE DUP2 SWAP1 SSTORE TIMESTAMP PUSH1 0x2 DUP2 SWAP1 SSTORE PUSH1 0x40 DUP1 MLOAD DUP4 DUP2 MSTORE PUSH1 0x20 DUP2 ADD SWAP3 SWAP1 SWAP3 MSTORE PUSH32 0x475CAE5B1B67B8F03ABA6A9D0442B263224EE619FA6FB913C08D9EDF37904B8C SWAP2 ADD PUSH1 0x40 MLOAD DUP1 SWAP2 SUB SWAP1 LOG1 PUSH1 0x1 SLOAD PUSH1 0x4 SLOAD PUSH1 0x5 SLOAD PUSH2 0x1863 SWAP3 SWAP2 SWAP1 PUSH1 0xFF AND PUSH2 0x2417 JUMP JUMPDEST POP JUMP JUMPDEST PUSH2 0x186E PUSH2 0x239C JUMP JUMPDEST PUSH0 DUP1 DUP1 JUMPDEST PUSH1 0xC SLOAD DUP2 LT ISZERO PUSH2 0x18FF JUMPI DUP5 DUP5 PUSH1 0x40 MLOAD PUSH1 0x20 ADD PUSH2 0x188F SWAP3 SWAP2 SWAP1 PUSH2 0x3293 JUMP JUMPDEST PUSH1 0x40 MLOAD PUSH1 0x20 DUP2 DUP4 SUB SUB DUP2 MSTORE SWAP1 PUSH1 0x40 MSTORE DUP1 MLOAD SWAP1 PUSH1 0x20 ADD KECCAK256 PUSH1 0xC DUP3 DUP2 SLOAD DUP2 LT PUSH2 0x18B8 JUMPI PUSH2 0x18B8 PUSH2 0x32A2 JUMP JUMPDEST SWAP1 PUSH0 MSTORE PUSH1 0x20 PUSH0 KECCAK256 ADD PUSH1 0x40 MLOAD PUSH1 0x20 ADD PUSH2 0x18D0 SWAP2 SWAP1 PUSH2 0x32B6 JUMP JUMPDEST PUSH1 0x40 MLOAD PUSH1 0x20 DUP2 DUP4 SUB SUB DUP2 MSTORE SWAP1 PUSH1 0x40 MSTORE DUP1 MLOAD SWAP1 PUSH1 0x20 ADD KECCAK256 SUB PUSH2 0x18F7 JUMPI PUSH1 0x1 SWAP3 POP DUP1 SWAP2 POP PUSH2 0x18FF JUMP JUMPDEST PUSH1 0x1 ADD PUSH2 0x1872 JUMP JUMPDEST POP DUP2 ISZERO PUSH2 0x1A14 JUMPI PUSH1 0xB DUP5 DUP5 PUSH1 0x40 MLOAD PUSH2 0x1918 SWAP3 SWAP2 SWAP1 PUSH2 0x3293 JUMP JUMPDEST SWAP1 DUP2 MSTORE PUSH1 0x40 MLOAD SWAP1 DUP2 SWAP1 SUB PUSH1 0x20 ADD SWAP1 KECCAK256 PUSH0 PUSH2 0x1932 DUP3 DUP3 PUSH2 0x2783 JUMP JUMPDEST POP PUSH0 PUSH1 0x1 DUP3 ADD DUP2 SWAP1 SSTORE PUSH1 0x2 SWAP1 SWAP2 ADD SSTORE PUSH1 0xC SLOAD ISZERO DUP1 ISZERO SWAP1 PUSH2 0x1953 JUMPI POP PUSH1 0xC SLOAD DUP2 LT JUMPDEST ISZERO PUSH2 0x1A14 JUMPI PUSH1 0xC DUP1 SLOAD PUSH2 0x1968 SWAP1 PUSH1 0x1 SWAP1 PUSH2 0x3387 JUMP JUMPDEST DUP2 SLOAD DUP2 LT PUSH2 0x1978 JUMPI PUSH2 0x1978 PUSH2 0x32A2 JUMP JUMPDEST SWAP1 PUSH0 MSTORE PUSH1 0x20 PUSH0 KECCAK256 ADD PUSH1 0xC DUP3 DUP2 SLOAD DUP2 LT PUSH2 0x1993 JUMPI PUSH2 0x1993 PUSH2 0x32A2 JUMP JUMPDEST SWAP1 PUSH0 MSTORE PUSH1 0x20 PUSH0 KECCAK256 ADD SWAP1 DUP2 PUSH2 0x19A7 SWAP2 SWAP1 PUSH2 0x339A JUMP JUMPDEST POP PUSH1 0xC DUP1 SLOAD DUP1 PUSH2 0x19B9 JUMPI PUSH2 0x19B9 PUSH2 0x345A JUMP JUMPDEST PUSH1 0x1 SWAP1 SUB DUP2 DUP2 SWAP1 PUSH0 MSTORE PUSH1 0x20 PUSH0 KECCAK256 ADD PUSH0 PUSH2 0x19D2 SWAP2 SWAP1 PUSH2 0x2783 JUMP JUMPDEST SWAP1 SSTORE DUP4 DUP4 PUSH1 0x40 MLOAD PUSH2 0x19E4 SWAP3 SWAP2 SWAP1 PUSH2 0x3293 JUMP JUMPDEST PUSH1 0x40 MLOAD SWAP1 DUP2 SWAP1 SUB DUP2 KECCAK256 SWAP1 PUSH32 0x39C9D1BC62FEDFF5608E7E91B88C9E3F6B7F4E9E9B184216521D36D88162FBA4 SWAP1 PUSH0 SWAP1 LOG2 JUMPDEST POP POP POP POP JUMP JUMPDEST PUSH1 0x60 PUSH1 0x3 DUP1 SLOAD DUP1 PUSH1 0x20 MUL PUSH1 0x20 ADD PUSH1 0x40 MLOAD SWAP1 DUP2 ADD PUSH1 0x40 MSTORE DUP1 SWAP3 SWAP2 SWAP1 DUP2 DUP2 MSTORE PUSH1 0x20 ADD PUSH0 SWAP1 JUMPDEST DUP3 DUP3 LT ISZERO PUSH2 0xC8B JUMPI PUSH0 DUP5 DUP2 MSTORE PUSH1 0x20 SWAP1 DUP2 SWAP1 KECCAK256 PUSH1 0x40 DUP1 MLOAD PUSH2 0x120 DUP2 ADD DUP3 MSTORE PUSH1 0x7 DUP7 MUL SWAP1 SWAP3 ADD DUP1 SLOAD DUP4 MSTORE PUSH1 0x1 DUP2 ADD SLOAD PUSH1 0x1 PUSH1 0x1 PUSH1 0xA0 SHL SUB DUP2 AND SWAP5 DUP5 ADD SWAP5 SWAP1 SWAP5 MSTORE SWAP2 SWAP3 SWAP1 DUP4 ADD SWAP1 PUSH1 0x1 PUSH1 0xA0 SHL SWAP1 DIV PUSH1 0xFF AND PUSH1 0xC DUP2 GT ISZERO PUSH2 0x1A9C JUMPI PUSH2 0x1A9C PUSH2 0x2941 JUMP JUMPDEST PUSH1 0xC DUP2 GT ISZERO PUSH2 0x1AAD JUMPI PUSH2 0x1AAD PUSH2 0x2941 JUMP JUMPDEST DUP2 MSTORE PUSH1 0x2 DUP3 ADD SLOAD PUSH1 0x20 DUP3 ADD MSTORE PUSH1 0x3 DUP3 ADD SLOAD PUSH1 0x40 DUP3 ADD MSTORE PUSH1 0x4 DUP3 ADD SLOAD PUSH1 0xFF DUP1 DUP3 AND ISZERO ISZERO PUSH1 0x60 DUP5 ADD MSTORE PUSH2 0x100 SWAP1 SWAP2 DIV AND ISZERO ISZERO PUSH1 0x80 DUP3 ADD MSTORE PUSH1 0x5 DUP3 ADD SLOAD PUSH1 0xA0 DUP3 ADD MSTORE PUSH1 0x6 DUP3 ADD DUP1 SLOAD PUSH1 0xC0 SWAP1 SWAP3 ADD SWAP2 PUSH2 0x1B01 SWAP1 PUSH2 0x3008 JUMP JUMPDEST DUP1 PUSH1 0x1F ADD PUSH1 0x20 DUP1 SWAP2 DIV MUL PUSH1 0x20 ADD PUSH1 0x40 MLOAD SWAP1 DUP2 ADD PUSH1 0x40 MSTORE DUP1 SWAP3 SWAP2 SWAP1 DUP2 DUP2 MSTORE PUSH1 0x20 ADD DUP3 DUP1 SLOAD PUSH2 0x1B2D SWAP1 PUSH2 0x3008 JUMP JUMPDEST DUP1 ISZERO PUSH2 0x1B78 JUMPI DUP1 PUSH1 0x1F LT PUSH2 0x1B4F JUMPI PUSH2 0x100 DUP1 DUP4 SLOAD DIV MUL DUP4 MSTORE SWAP2 PUSH1 0x20 ADD SWAP2 PUSH2 0x1B78 JUMP JUMPDEST DUP3 ADD SWAP2 SWAP1 PUSH0 MSTORE PUSH1 0x20 PUSH0 KECCAK256 SWAP1 JUMPDEST DUP2 SLOAD DUP2 MSTORE SWAP1 PUSH1 0x1 ADD SWAP1 PUSH1 0x20 ADD DUP1 DUP4 GT PUSH2 0x1B5B JUMPI DUP3 SWAP1 SUB PUSH1 0x1F AND DUP3 ADD SWAP2 JUMPDEST POP POP POP POP POP DUP2 MSTORE POP POP DUP2 MSTORE PUSH1 0x20 ADD SWAP1 PUSH1 0x1 ADD SWAP1 PUSH2 0x1A3D JUMP JUMPDEST PUSH2 0x1B98 PUSH2 0x239C JUMP JUMPDEST PUSH0 JUMPDEST DUP2 DUP2 LT ISZERO PUSH2 0x1C55 JUMPI ADDRESS PUSH4 0x3FAB3DD6 DUP5 DUP5 DUP5 DUP2 DUP2 LT PUSH2 0x1BBA JUMPI PUSH2 0x1BBA PUSH2 0x32A2 JUMP JUMPDEST SWAP1 POP PUSH1 0x20 MUL DUP2 ADD SWAP1 PUSH2 0x1BCC SWAP2 SWAP1 PUSH2 0x346E JUMP JUMPDEST PUSH2 0x1BD6 SWAP1 DUP1 PUSH2 0x3345 JUMP JUMPDEST DUP7 DUP7 DUP7 DUP2 DUP2 LT PUSH2 0x1BE8 JUMPI PUSH2 0x1BE8 PUSH2 0x32A2 JUMP JUMPDEST SWAP1 POP PUSH1 0x20 MUL DUP2 ADD SWAP1 PUSH2 0x1BFA SWAP2 SWAP1 PUSH2 0x346E JUMP JUMPDEST PUSH1 0x20 ADD CALLDATALOAD PUSH1 0x40 MLOAD DUP5 PUSH4 0xFFFFFFFF AND PUSH1 0xE0 SHL DUP2 MSTORE PUSH1 0x4 ADD PUSH2 0x1C1C SWAP4 SWAP3 SWAP2 SWAP1 PUSH2 0x3482 JUMP JUMPDEST PUSH0 PUSH1 0x40 MLOAD DUP1 DUP4 SUB DUP2 PUSH0 DUP8 DUP1 EXTCODESIZE ISZERO DUP1 ISZERO PUSH2 0x1C33 JUMPI PUSH0 PUSH0 REVERT JUMPDEST POP GAS CALL ISZERO DUP1 ISZERO PUSH2 0x1C45 JUMPI RETURNDATASIZE PUSH0 PUSH0 RETURNDATACOPY RETURNDATASIZE PUSH0 REVERT JUMPDEST POP POP PUSH1 0x1 SWAP1 SWAP3 ADD SWAP2 POP PUSH2 0x1B9A SWAP1 POP JUMP JUMPDEST POP POP POP JUMP JUMPDEST PUSH1 0x12 DUP1 SLOAD PUSH1 0x13 SLOAD PUSH1 0x14 SLOAD PUSH1 0x15 SLOAD PUSH1 0x16 SLOAD PUSH1 0x17 SLOAD PUSH1 0x18 DUP1 SLOAD SWAP7 SWAP8 PUSH1 0x1 PUSH1 0x1 PUSH1 0xA0 SHL SUB DUP8 AND SWAP8 PUSH1 0xFF PUSH1 0x1 PUSH1 0xA0 SHL SWAP1 SWAP9 DIV DUP9 AND SWAP8 DUP6 DUP2 AND SWAP6 PUSH2 0x100 SWAP1 DIV AND SWAP4 SWAP3 SWAP1 PUSH2 0x640 SWAP1 PUSH2 0x3008 JUMP JUMPDEST PUSH2 0x1CA9 PUSH2 0x239C JUMP JUMPDEST PUSH0 PUSH1 0xD DUP7 DUP7 PUSH1 0x40 MLOAD PUSH2 0x1CBC SWAP3 SWAP2 SWAP1 PUSH2 0x3293 JUMP JUMPDEST SWAP1 DUP2 MSTORE PUSH1 0x40 MLOAD SWAP1 DUP2 SWAP1 SUB PUSH1 0x20 ADD SWAP1 KECCAK256 SWAP1 POP DUP1 PUSH2 0x1CD9 DUP7 DUP9 DUP4 PUSH2 0x30CB JUMP JUMPDEST POP PUSH1 0x1 DUP2 ADD PUSH2 0x1CE9 DUP5 DUP7 DUP4 PUSH2 0x30CB JUMP JUMPDEST POP PUSH1 0x2 DUP2 ADD DUP3 SWAP1 SSTORE TIMESTAMP PUSH1 0x3 DUP3 ADD SSTORE PUSH1 0x40 MLOAD PUSH2 0x1D07 SWAP1 DUP8 SWAP1 DUP8 SWAP1 PUSH2 0x3293 JUMP JUMPDEST PUSH1 0x40 MLOAD DUP1 SWAP2 SUB SWAP1 KECCAK256 PUSH32 0x6980CC14623A9E2E782881DD8347E20EBD89E558191566E01E8CC11E9066F068 DUP6 DUP6 DUP6 TIMESTAMP PUSH1 0x40 MLOAD PUSH2 0x1D44 SWAP5 SWAP4 SWAP3 SWAP2 SWAP1 PUSH2 0x34A5 JUMP JUMPDEST PUSH1 0x40 MLOAD DUP1 SWAP2 SUB SWAP1 LOG2 POP POP POP POP POP POP JUMP JUMPDEST PUSH1 0x60 PUSH1 0xE DUP1 SLOAD DUP1 PUSH1 0x20 MUL PUSH1 0x20 ADD PUSH1 0x40 MLOAD SWAP1 DUP2 ADD PUSH1 0x40 MSTORE DUP1 SWAP3 SWAP2 SWAP1 DUP2 DUP2 MSTORE PUSH1 0x20 ADD PUSH0 SWAP1 JUMPDEST DUP3 DUP3 LT ISZERO PUSH2 0xC8B JUMPI DUP4 DUP3 SWAP1 PUSH0 MSTORE PUSH1 0x20 PUSH0 KECCAK256 SWAP1 PUSH1 0x5 MUL ADD PUSH1 0x40 MLOAD DUP1 PUSH1 0xA0 ADD PUSH1 0x40 MSTORE SWAP1 DUP2 PUSH0 DUP3 ADD DUP1 SLOAD PUSH2 0x1DA7 SWAP1 PUSH2 0x3008 JUMP JUMPDEST DUP1 PUSH1 0x1F ADD PUSH1 0x20 DUP1 SWAP2 DIV MUL PUSH1 0x20 ADD PUSH1 0x40 MLOAD SWAP1 DUP2 ADD PUSH1 0x40 MSTORE DUP1 SWAP3 SWAP2 SWAP1 DUP2 DUP2 MSTORE PUSH1 0x20 ADD DUP3 DUP1 SLOAD PUSH2 0x1DD3 SWAP1 PUSH2 0x3008 JUMP JUMPDEST DUP1 ISZERO PUSH2 0x1E1E JUMPI DUP1 PUSH1 0x1F LT PUSH2 0x1DF5 JUMPI PUSH2 0x100 DUP1 DUP4 SLOAD DIV MUL DUP4 MSTORE SWAP2 PUSH1 0x20 ADD SWAP2 PUSH2 0x1E1E JUMP JUMPDEST DUP3 ADD SWAP2 SWAP1 PUSH0 MSTORE PUSH1 0x20 PUSH0 KECCAK256 SWAP1 JUMPDEST DUP2 SLOAD DUP2 MSTORE SWAP1 PUSH1 0x1 ADD SWAP1 PUSH1 0x20 ADD DUP1 DUP4 GT PUSH2 0x1E01 JUMPI DUP3 SWAP1 SUB PUSH1 0x1F AND DUP3 ADD SWAP2 JUMPDEST POP POP POP SWAP2 DUP4 MSTORE POP POP PUSH1 0x1 DUP3 DUP2 ADD SLOAD PUSH1 0x1 PUSH1 0x1 PUSH1 0xA0 SHL SUB AND PUSH1 0x20 DUP1 DUP5 ADD SWAP2 SWAP1 SWAP2 MSTORE PUSH1 0x2 DUP5 ADD SLOAD PUSH1 0x40 DUP5 ADD MSTORE PUSH1 0x3 DUP5 ADD SLOAD PUSH1 0x60 DUP5 ADD MSTORE PUSH1 0x4 SWAP1 SWAP4 ADD SLOAD PUSH1 0x80 SWAP1 SWAP3 ADD SWAP2 SWAP1 SWAP2 MSTORE SWAP2 DUP4 MSTORE SWAP3 ADD SWAP2 ADD PUSH2 0x1D77 JUMP JUMPDEST PUSH2 0x1E75 PUSH2 0x239C JUMP JUMPDEST PUSH1 0x7 DUP6 PUSH1 0xC DUP2 GT ISZERO PUSH2 0x1E89 JUMPI PUSH2 0x1E89 PUSH2 0x2941 JUMP JUMPDEST EQ DUP1 PUSH2 0x1EA6 JUMPI POP PUSH1 0x8 DUP6 PUSH1 0xC DUP2 GT ISZERO PUSH2 0x1EA4 JUMPI PUSH2 0x1EA4 PUSH2 0x2941 JUMP JUMPDEST EQ JUMPDEST DUP1 PUSH2 0x1EC2 JUMPI POP PUSH1 0x9 DUP6 PUSH1 0xC DUP2 GT ISZERO PUSH2 0x1EC0 JUMPI PUSH2 0x1EC0 PUSH2 0x2941 JUMP JUMPDEST EQ JUMPDEST DUP1 PUSH2 0x1EDE JUMPI POP PUSH1 0xA DUP6 PUSH1 0xC DUP2 GT ISZERO PUSH2 0x1EDC JUMPI PUSH2 0x1EDC PUSH2 0x2941 JUMP JUMPDEST EQ JUMPDEST PUSH2 0x1F41 JUMPI PUSH1 0x40 MLOAD PUSH3 0x461BCD PUSH1 0xE5 SHL DUP2 MSTORE PUSH1 0x20 PUSH1 0x4 DUP3 ADD MSTORE PUSH1 0x2E PUSH1 0x24 DUP3 ADD MSTORE PUSH32 0x44617368626F6172643A20496E76616C696420636F6E646974696F6E20666F72 PUSH1 0x44 DUP3 ADD MSTORE PUSH14 0x818DA185B9B995B08185B195C9D PUSH1 0x92 SHL PUSH1 0x64 DUP3 ADD MSTORE PUSH1 0x84 ADD PUSH2 0x8B6 JUMP JUMPDEST DUP3 DUP5 SUB PUSH2 0x1FA4 JUMPI PUSH1 0x40 MLOAD PUSH3 0x461BCD PUSH1 0xE5 SHL DUP2 MSTORE PUSH1 0x20 PUSH1 0x4 DUP3 ADD MSTORE PUSH1 0x2B PUSH1 0x24 DUP3 ADD MSTORE PUSH32 0x44617368626F6172643A204368616E6E656C20626F756E6473206D7573742062 PUSH1 0x44 DUP3 ADD MSTORE PUSH11 0x1948191A5999995C995B9D PUSH1 0xAA SHL PUSH1 0x64 DUP3 ADD MSTORE PUSH1 0x84 ADD PUSH2 0x8B6 JUMP JUMPDEST PUSH1 0x12 SLOAD PUSH0 SUB PUSH2 0x1FC4 JUMPI PUSH1 0x19 DUP1 SLOAD SWAP1 PUSH0 PUSH2 0x1FBC DUP4 PUSH2 0x3054 JUMP JUMPDEST SWAP1 SWAP2 SSTORE POP PUSH1 0x12 SSTORE JUMPDEST PUSH1 0x19 DUP1 SLOAD PUSH0 SWAP2 DUP3 PUSH2 0x1FD4 DUP4 PUSH2 0x3054 JUMP JUMPDEST SWAP1 SWAP2 SSTORE POP PUSH1 0x13 DUP1 SLOAD PUSH1 0x1 PUSH1 0x1 PUSH1 0xA0 SHL SUB NOT DUP2 AND CALLER SWAP1 DUP2 OR DUP4 SSTORE SWAP3 SWAP4 POP PUSH0 SWAP3 DUP4 SWAP3 DUP11 SWAP3 SWAP1 SWAP2 PUSH1 0xFF PUSH1 0xA0 SHL NOT AND PUSH1 0x1 PUSH1 0x1 PUSH1 0xA8 SHL SUB NOT SWAP1 SWAP2 AND OR PUSH1 0x1 PUSH1 0xA0 SHL DUP4 PUSH1 0xC DUP2 GT ISZERO PUSH2 0x2023 JUMPI PUSH2 0x2023 PUSH2 0x2941 JUMP JUMPDEST MUL OR SWAP1 SSTORE POP DUP6 DUP8 SLT ISZERO PUSH2 0x203F JUMPI PUSH1 0x14 DUP8 SWAP1 SSTORE PUSH1 0x15 DUP7 SWAP1 SSTORE PUSH2 0x204A JUMP JUMPDEST PUSH1 0x14 DUP7 SWAP1 SSTORE PUSH1 0x15 DUP8 SWAP1 SSTORE JUMPDEST PUSH1 0x18 PUSH2 0x2057 DUP6 DUP8 DUP4 PUSH2 0x30CB JUMP JUMPDEST POP PUSH1 0x16 DUP1 SLOAD PUSH2 0xFFFF NOT AND PUSH1 0x1 OR SWAP1 SSTORE PUSH0 PUSH1 0x17 DUP2 SWAP1 SSTORE PUSH1 0x40 DUP1 MLOAD PUSH2 0x120 DUP2 ADD DUP3 MSTORE DUP6 DUP2 MSTORE CALLER PUSH1 0x20 DUP3 ADD MSTORE SWAP1 DUP2 ADD DUP11 PUSH1 0xC DUP2 GT ISZERO PUSH2 0x2095 JUMPI PUSH2 0x2095 PUSH2 0x2941 JUMP JUMPDEST DUP2 MSTORE PUSH1 0x20 ADD DUP5 DUP2 MSTORE PUSH1 0x20 ADD DUP4 DUP2 MSTORE PUSH1 0x20 ADD PUSH1 0x1 ISZERO ISZERO DUP2 MSTORE PUSH1 0x20 ADD PUSH0 ISZERO ISZERO DUP2 MSTORE PUSH1 0x20 ADD PUSH0 DUP2 MSTORE PUSH1 0x20 ADD DUP8 DUP8 DUP1 DUP1 PUSH1 0x1F ADD PUSH1 0x20 DUP1 SWAP2 DIV MUL PUSH1 0x20 ADD PUSH1 0x40 MLOAD SWAP1 DUP2 ADD PUSH1 0x40 MSTORE DUP1 SWAP4 SWAP3 SWAP2 SWAP1 DUP2 DUP2 MSTORE PUSH1 0x20 ADD DUP4 DUP4 DUP1 DUP3 DUP5 CALLDATACOPY PUSH0 SWAP3 ADD DUP3 SWAP1 MSTORE POP SWAP4 SWAP1 SWAP5 MSTORE POP POP PUSH1 0x3 DUP1 SLOAD PUSH1 0x1 DUP2 ADD DUP3 SSTORE SWAP2 MSTORE DUP3 MLOAD PUSH1 0x7 SWAP1 SWAP2 MUL PUSH32 0xC2575A0E9E593C00F959F8C92F12DB2869C3395A3B0502D05E2516446F71F85B DUP2 ADD SWAP2 DUP3 SSTORE PUSH1 0x20 DUP5 ADD MLOAD PUSH32 0xC2575A0E9E593C00F959F8C92F12DB2869C3395A3B0502D05E2516446F71F85C SWAP1 SWAP2 ADD DUP1 SLOAD PUSH1 0x1 PUSH1 0x1 PUSH1 0xA0 SHL SUB SWAP1 SWAP3 AND PUSH1 0x1 PUSH1 0x1 PUSH1 0xA0 SHL SUB NOT DUP4 AND DUP2 OR DUP3 SSTORE PUSH1 0x40 DUP7 ADD MLOAD SWAP6 SWAP7 POP DUP7 SWAP6 SWAP4 SWAP5 POP SWAP1 SWAP2 PUSH1 0x1 PUSH1 0x1 PUSH1 0xA8 SHL SUB NOT AND OR PUSH1 0x1 PUSH1 0xA0 SHL DUP4 PUSH1 0xC DUP2 GT ISZERO PUSH2 0x21A3 JUMPI PUSH2 0x21A3 PUSH2 0x2941 JUMP JUMPDEST MUL OR SWAP1 SSTORE POP PUSH1 0x60 DUP3 ADD MLOAD PUSH1 0x2 DUP3 ADD SSTORE PUSH1 0x80 DUP3 ADD MLOAD PUSH1 0x3 DUP3 ADD SSTORE PUSH1 0xA0 DUP3 ADD MLOAD PUSH1 0x4 DUP3 ADD DUP1 SLOAD PUSH1 0xC0 DUP6 ADD MLOAD PUSH2 0xFFFF NOT SWAP1 SWAP2 AND SWAP3 ISZERO ISZERO PUSH2 0xFF00 NOT AND SWAP3 SWAP1 SWAP3 OR PUSH2 0x100 SWAP3 ISZERO ISZERO DUP4 MUL OR SWAP1 SSTORE PUSH1 0xE0 DUP4 ADD MLOAD PUSH1 0x5 DUP4 ADD SSTORE DUP3 ADD MLOAD PUSH1 0x6 DUP3 ADD SWAP1 PUSH2 0x2206 SWAP1 DUP3 PUSH2 0x317F JUMP JUMPDEST POP POP PUSH1 0x12 SLOAD PUSH1 0x14 SLOAD PUSH1 0x15 SLOAD PUSH1 0x40 MLOAD CALLER SWAP5 POP PUSH32 0x778334AF3114ADE8967680FBF1E80E8E34DBE95416246AAEF26907AE22CDD358 SWAP3 PUSH2 0x2248 SWAP3 DUP16 SWAP3 DUP14 SWAP1 DUP14 SWAP1 PUSH2 0x325C JUMP JUMPDEST PUSH1 0x40 MLOAD DUP1 SWAP2 SUB SWAP1 LOG3 POP POP POP POP POP POP POP POP POP JUMP JUMPDEST PUSH2 0x2263 PUSH2 0x239C JUMP JUMPDEST PUSH1 0x1 PUSH1 0x1 PUSH1 0xA0 SHL SUB DUP2 AND PUSH2 0x228C JUMPI PUSH1 0x40 MLOAD PUSH4 0x1E4FBDF7 PUSH1 0xE0 SHL DUP2 MSTORE PUSH0 PUSH1 0x4 DUP3 ADD MSTORE PUSH1 0x24 ADD PUSH2 0x8B6 JUMP JUMPDEST PUSH2 0x1863 DUP2 PUSH2 0x23C8 JUMP JUMPDEST PUSH2 0x22B7 PUSH1 0x40 MLOAD DUP1 PUSH1 0x60 ADD PUSH1 0x40 MSTORE DUP1 PUSH1 0x60 DUP2 MSTORE PUSH1 0x20 ADD PUSH0 DUP2 MSTORE PUSH1 0x20 ADD PUSH0 DUP2 MSTORE POP SWAP1 JUMP JUMPDEST PUSH1 0xB DUP4 DUP4 PUSH1 0x40 MLOAD PUSH2 0x22C9 SWAP3 SWAP2 SWAP1 PUSH2 0x3293 JUMP JUMPDEST SWAP1 DUP2 MSTORE PUSH1 0x20 ADD PUSH1 0x40 MLOAD DUP1 SWAP2 SUB SWAP1 KECCAK256 PUSH1 0x40 MLOAD DUP1 PUSH1 0x60 ADD PUSH1 0x40 MSTORE SWAP1 DUP2 PUSH0 DUP3 ADD DUP1 SLOAD PUSH2 0x22F1 SWAP1 PUSH2 0x3008 JUMP JUMPDEST DUP1 PUSH1 0x1F ADD PUSH1 0x20 DUP1 SWAP2 DIV MUL PUSH1 0x20 ADD PUSH1 0x40 MLOAD SWAP1 DUP2 ADD PUSH1 0x40 MSTORE DUP1 SWAP3 SWAP2 SWAP1 DUP2 DUP2 MSTORE PUSH1 0x20 ADD DUP3 DUP1 SLOAD PUSH2 0x231D SWAP1 PUSH2 0x3008 JUMP JUMPDEST DUP1 ISZERO PUSH2 0x2368 JUMPI DUP1 PUSH1 0x1F LT PUSH2 0x233F JUMPI PUSH2 0x100 DUP1 DUP4 SLOAD DIV MUL DUP4 MSTORE SWAP2 PUSH1 0x20 ADD SWAP2 PUSH2 0x2368 JUMP JUMPDEST DUP3 ADD SWAP2 SWAP1 PUSH0 MSTORE PUSH1 0x20 PUSH0 KECCAK256 SWAP1 JUMPDEST DUP2 SLOAD DUP2 MSTORE SWAP1 PUSH1 0x1 ADD SWAP1 PUSH1 0x20 ADD DUP1 DUP4 GT PUSH2 0x234B JUMPI DUP3 SWAP1 SUB PUSH1 0x1F AND DUP3 ADD SWAP2 JUMPDEST POP POP POP POP POP DUP2 MSTORE PUSH1 0x20 ADD PUSH1 0x1 DUP3 ADD SLOAD DUP2 MSTORE PUSH1 0x20 ADD PUSH1 0x2 DUP3 ADD SLOAD DUP2 MSTORE POP POP SWAP1 POP SWAP3 SWAP2 POP POP JUMP JUMPDEST PUSH1 0xF DUP2 DUP2 SLOAD DUP2 LT PUSH2 0xCA3 JUMPI PUSH0 DUP1 REVERT JUMPDEST PUSH0 SLOAD PUSH1 0x1 PUSH1 0x1 PUSH1 0xA0 SHL SUB AND CALLER EQ PUSH2 0xBBE JUMPI PUSH1 0x40 MLOAD PUSH4 0x118CDAA7 PUSH1 0xE0 SHL DUP2 MSTORE CALLER PUSH1 0x4 DUP3 ADD MSTORE PUSH1 0x24 ADD PUSH2 0x8B6 JUMP JUMPDEST PUSH0 DUP1 SLOAD PUSH1 0x1 PUSH1 0x1 PUSH1 0xA0 SHL SUB DUP4 DUP2 AND PUSH1 0x1 PUSH1 0x1 PUSH1 0xA0 SHL SUB NOT DUP4 AND DUP2 OR DUP5 SSTORE PUSH1 0x40 MLOAD SWAP2 SWAP1 SWAP3 AND SWAP3 DUP4 SWAP2 PUSH32 0x8BE0079C531659141344CD1FD0A4F28419497F9722A3DAAFE3B4186F6B6457E0 SWAP2 SWAP1 LOG3 POP POP JUMP JUMPDEST PUSH1 0x16 SLOAD PUSH1 0xFF AND ISZERO DUP1 PUSH2 0x2430 JUMPI POP PUSH1 0x16 SLOAD PUSH2 0x100 SWAP1 DIV PUSH1 0xFF AND JUMPDEST DUP1 PUSH2 0x243B JUMPI POP PUSH1 0x12 SLOAD ISZERO JUMPDEST ISZERO PUSH2 0x2445 JUMPI POP POP POP JUMP JUMPDEST PUSH1 0x13 SLOAD PUSH1 0x14 SLOAD PUSH1 0x15 SLOAD PUSH0 SWAP3 PUSH1 0x1 PUSH1 0xA0 SHL SWAP1 DIV PUSH1 0xFF AND SWAP2 SWAP1 DUP2 SWAP1 PUSH1 0x1 DUP5 PUSH1 0xC DUP2 GT ISZERO PUSH2 0x2472 JUMPI PUSH2 0x2472 PUSH2 0x2941 JUMP JUMPDEST SUB PUSH2 0x2489 JUMPI DUP3 DUP9 SGT ISZERO PUSH2 0x2484 JUMPI PUSH1 0x1 SWAP5 POP JUMPDEST PUSH2 0x26F4 JUMP JUMPDEST PUSH1 0x2 DUP5 PUSH1 0xC DUP2 GT ISZERO PUSH2 0x249D JUMPI PUSH2 0x249D PUSH2 0x2941 JUMP JUMPDEST SUB PUSH2 0x24B3 JUMPI DUP3 DUP9 SLT ISZERO PUSH2 0x2484 JUMPI PUSH1 0x1 SWAP5 POP PUSH2 0x26F4 JUMP JUMPDEST PUSH1 0x3 DUP5 PUSH1 0xC DUP2 GT ISZERO PUSH2 0x24C7 JUMPI PUSH2 0x24C7 PUSH2 0x2941 JUMP JUMPDEST SUB PUSH2 0x24DC JUMPI DUP3 DUP9 SUB PUSH2 0x2484 JUMPI PUSH1 0x1 SWAP5 POP PUSH2 0x26F4 JUMP JUMPDEST DUP6 ISZERO PUSH2 0x26F4 JUMPI PUSH1 0x4 DUP5 PUSH1 0xC DUP2 GT ISZERO PUSH2 0x24F6 JUMPI PUSH2 0x24F6 PUSH2 0x2941 JUMP JUMPDEST SUB PUSH2 0x252D JUMPI DUP3 DUP8 SLT DUP1 ISZERO PUSH2 0x250A JUMPI POP DUP3 DUP9 SLT ISZERO JUMPDEST DUP1 PUSH2 0x251F JUMPI POP DUP3 DUP8 SGT DUP1 ISZERO PUSH2 0x251F JUMPI POP DUP3 DUP9 SGT ISZERO JUMPDEST ISZERO PUSH2 0x2484 JUMPI PUSH1 0x1 SWAP5 POP PUSH2 0x26F4 JUMP JUMPDEST PUSH1 0x5 DUP5 PUSH1 0xC DUP2 GT ISZERO PUSH2 0x2541 JUMPI PUSH2 0x2541 PUSH2 0x2941 JUMP JUMPDEST SUB PUSH2 0x2560 JUMPI DUP3 DUP8 SLT DUP1 ISZERO PUSH2 0x251F JUMPI POP DUP3 DUP9 SLT PUSH2 0x2484 JUMPI PUSH1 0x1 SWAP5 POP PUSH2 0x26F4 JUMP JUMPDEST PUSH1 0x6 DUP5 PUSH1 0xC DUP2 GT ISZERO PUSH2 0x2574 JUMPI PUSH2 0x2574 PUSH2 0x2941 JUMP JUMPDEST SUB PUSH2 0x2593 JUMPI DUP3 DUP8 SGT DUP1 ISZERO PUSH2 0x251F JUMPI POP DUP3 DUP9 SGT PUSH2 0x2484 JUMPI PUSH1 0x1 SWAP5 POP PUSH2 0x26F4 JUMP JUMPDEST PUSH1 0x7 DUP5 PUSH1 0xC DUP2 GT ISZERO PUSH2 0x25A7 JUMPI PUSH2 0x25A7 PUSH2 0x2941 JUMP JUMPDEST SUB PUSH2 0x25EA JUMPI PUSH0 DUP3 DUP9 SLT DUP1 PUSH2 0x25BA JUMPI POP DUP2 DUP9 SGT JUMPDEST SWAP1 POP PUSH0 DUP4 DUP11 SLT ISZERO DUP1 ISZERO PUSH2 0x25CD JUMPI POP DUP3 DUP11 SGT ISZERO JUMPDEST SWAP1 POP DUP2 DUP1 ISZERO PUSH2 0x25D9 JUMPI POP DUP1 JUMPDEST ISZERO PUSH2 0x25E3 JUMPI PUSH1 0x1 SWAP7 POP JUMPDEST POP POP PUSH2 0x26F4 JUMP JUMPDEST PUSH1 0x8 DUP5 PUSH1 0xC DUP2 GT ISZERO PUSH2 0x25FE JUMPI PUSH2 0x25FE PUSH2 0x2941 JUMP JUMPDEST SUB PUSH2 0x263D JUMPI PUSH0 DUP3 DUP9 SLT ISZERO DUP1 ISZERO PUSH2 0x2614 JUMPI POP DUP2 DUP9 SGT ISZERO JUMPDEST SWAP1 POP PUSH0 DUP4 DUP11 SLT DUP1 PUSH2 0x25CD JUMPI POP POP DUP2 DUP10 SGT DUP2 DUP1 ISZERO PUSH2 0x25D9 JUMPI POP DUP1 ISZERO PUSH2 0x25E3 JUMPI PUSH1 0x1 SWAP7 POP POP POP PUSH2 0x26F4 JUMP JUMPDEST PUSH1 0x9 DUP5 PUSH1 0xC DUP2 GT ISZERO PUSH2 0x2651 JUMPI PUSH2 0x2651 PUSH2 0x2941 JUMP JUMPDEST SUB PUSH2 0x2671 JUMPI DUP2 DUP9 SLT ISZERO DUP1 ISZERO PUSH2 0x251F JUMPI POP DUP1 DUP9 SGT PUSH2 0x2484 JUMPI PUSH1 0x1 SWAP5 POP PUSH2 0x26F4 JUMP JUMPDEST PUSH1 0xA DUP5 PUSH1 0xC DUP2 GT ISZERO PUSH2 0x2685 JUMPI PUSH2 0x2685 PUSH2 0x2941 JUMP JUMPDEST SUB PUSH2 0x26A4 JUMPI DUP2 DUP9 SLT DUP1 PUSH2 0x251F JUMPI POP DUP1 DUP9 SGT ISZERO PUSH2 0x2484 JUMPI PUSH1 0x1 SWAP5 POP PUSH2 0x26F4 JUMP JUMPDEST PUSH1 0xB DUP5 PUSH1 0xC DUP2 GT ISZERO PUSH2 0x26B8 JUMPI PUSH2 0x26B8 PUSH2 0x2941 JUMP JUMPDEST SUB PUSH2 0x26CE JUMPI DUP7 DUP9 SGT ISZERO PUSH2 0x2484 JUMPI PUSH1 0x1 SWAP5 POP PUSH2 0x26F4 JUMP JUMPDEST PUSH1 0xC DUP5 PUSH1 0xC DUP2 GT ISZERO PUSH2 0x26E2 JUMPI PUSH2 0x26E2 PUSH2 0x2941 JUMP JUMPDEST SUB PUSH2 0x26F4 JUMPI DUP7 DUP9 SLT ISZERO PUSH2 0x26F4 JUMPI PUSH1 0x1 SWAP5 POP JUMPDEST DUP5 ISZERO PUSH2 0x275B JUMPI PUSH1 0x16 DUP1 SLOAD PUSH2 0xFF00 NOT AND PUSH2 0x100 OR SWAP1 SSTORE TIMESTAMP PUSH1 0x17 SSTORE PUSH1 0x13 SLOAD PUSH1 0x12 SLOAD PUSH1 0x40 MLOAD PUSH1 0x1 PUSH1 0x1 PUSH1 0xA0 SHL SUB SWAP1 SWAP3 AND SWAP2 PUSH32 0x601CDB1CD0F27FC0F4BAD78847FBD1402A286180590E1019934014E93E922A0F SWAP1 PUSH2 0x2752 SWAP1 DUP13 SWAP1 PUSH1 0x18 SWAP1 PUSH2 0x34CB JUMP JUMPDEST PUSH1 0x40 MLOAD DUP1 SWAP2 SUB SWAP1 LOG3 JUMPDEST POP POP POP POP POP POP POP POP JUMP JUMPDEST POP DUP1 SLOAD PUSH0 DUP3 SSTORE PUSH1 0x5 MUL SWAP1 PUSH0 MSTORE PUSH1 0x20 PUSH0 KECCAK256 SWAP1 DUP2 ADD SWAP1 PUSH2 0x1863 SWAP2 SWAP1 PUSH2 0x27BA JUMP JUMPDEST POP DUP1 SLOAD PUSH2 0x278F SWAP1 PUSH2 0x3008 JUMP JUMPDEST PUSH0 DUP3 SSTORE DUP1 PUSH1 0x1F LT PUSH2 0x279E JUMPI POP POP JUMP JUMPDEST PUSH1 0x1F ADD PUSH1 0x20 SWAP1 DIV SWAP1 PUSH0 MSTORE PUSH1 0x20 PUSH0 KECCAK256 SWAP1 DUP2 ADD SWAP1 PUSH2 0x1863 SWAP2 SWAP1 PUSH2 0x2800 JUMP JUMPDEST DUP1 DUP3 GT ISZERO PUSH2 0x27FC JUMPI PUSH0 PUSH2 0x27CD DUP3 DUP3 PUSH2 0x2783 JUMP JUMPDEST POP PUSH1 0x1 DUP2 ADD DUP1 SLOAD PUSH1 0x1 PUSH1 0x1 PUSH1 0xA0 SHL SUB NOT AND SWAP1 SSTORE PUSH0 PUSH1 0x2 DUP3 ADD DUP2 SWAP1 SSTORE PUSH1 0x3 DUP3 ADD DUP2 SWAP1 SSTORE PUSH1 0x4 DUP3 ADD SSTORE PUSH1 0x5 ADD PUSH2 0x27BA JUMP JUMPDEST POP SWAP1 JUMP JUMPDEST JUMPDEST DUP1 DUP3 GT ISZERO PUSH2 0x27FC JUMPI PUSH0 DUP2 SSTORE PUSH1 0x1 ADD PUSH2 0x2801 JUMP JUMPDEST PUSH4 0x4E487B71 PUSH1 0xE0 SHL PUSH0 MSTORE PUSH1 0x41 PUSH1 0x4 MSTORE PUSH1 0x24 PUSH0 REVERT JUMPDEST PUSH0 PUSH1 0x20 DUP3 DUP5 SUB SLT ISZERO PUSH2 0x2838 JUMPI PUSH0 PUSH0 REVERT JUMPDEST DUP2 CALLDATALOAD PUSH1 0x1 PUSH1 0x1 PUSH1 0x40 SHL SUB DUP2 GT ISZERO PUSH2 0x284D JUMPI PUSH0 PUSH0 REVERT JUMPDEST DUP3 ADD PUSH1 0x1F DUP2 ADD DUP5 SGT PUSH2 0x285D JUMPI PUSH0 PUSH0 REVERT JUMPDEST DUP1 CALLDATALOAD PUSH1 0x1 PUSH1 0x1 PUSH1 0x40 SHL SUB DUP2 GT ISZERO PUSH2 0x2876 JUMPI PUSH2 0x2876 PUSH2 0x2814 JUMP JUMPDEST PUSH1 0x40 MLOAD PUSH1 0x1F DUP3 ADD PUSH1 0x1F NOT SWAP1 DUP2 AND PUSH1 0x3F ADD AND DUP2 ADD PUSH1 0x1 PUSH1 0x1 PUSH1 0x40 SHL SUB DUP2 GT DUP3 DUP3 LT OR ISZERO PUSH2 0x28A4 JUMPI PUSH2 0x28A4 PUSH2 0x2814 JUMP JUMPDEST PUSH1 0x40 MSTORE DUP2 DUP2 MSTORE DUP3 DUP3 ADD PUSH1 0x20 ADD DUP7 LT ISZERO PUSH2 0x28BB JUMPI PUSH0 PUSH0 REVERT JUMPDEST DUP2 PUSH1 0x20 DUP5 ADD PUSH1 0x20 DUP4 ADD CALLDATACOPY PUSH0 SWAP2 DUP2 ADD PUSH1 0x20 ADD SWAP2 SWAP1 SWAP2 MSTORE SWAP5 SWAP4 POP POP POP POP JUMP JUMPDEST PUSH0 DUP2 MLOAD DUP1 DUP5 MSTORE DUP1 PUSH1 0x20 DUP5 ADD PUSH1 0x20 DUP7 ADD MCOPY PUSH0 PUSH1 0x20 DUP3 DUP7 ADD ADD MSTORE PUSH1 0x20 PUSH1 0x1F NOT PUSH1 0x1F DUP4 ADD AND DUP6 ADD ADD SWAP2 POP POP SWAP3 SWAP2 POP POP JUMP JUMPDEST PUSH1 0x60 DUP2 MSTORE PUSH0 PUSH2 0x2918 PUSH1 0x60 DUP4 ADD DUP7 PUSH2 0x28D8 JUMP JUMPDEST PUSH1 0x20 DUP4 ADD SWAP5 SWAP1 SWAP5 MSTORE POP PUSH1 0x40 ADD MSTORE SWAP2 SWAP1 POP JUMP JUMPDEST PUSH0 PUSH1 0x20 DUP3 DUP5 SUB SLT ISZERO PUSH2 0x293A JUMPI PUSH0 PUSH0 REVERT JUMPDEST POP CALLDATALOAD SWAP2 SWAP1 POP JUMP JUMPDEST PUSH4 0x4E487B71 PUSH1 0xE0 SHL PUSH0 MSTORE PUSH1 0x21 PUSH1 0x4 MSTORE PUSH1 0x24 PUSH0 REVERT JUMPDEST PUSH1 0xD DUP2 LT PUSH2 0x2971 JUMPI PUSH4 0x4E487B71 PUSH1 0xE0 SHL PUSH0 MSTORE PUSH1 0x21 PUSH1 0x4 MSTORE PUSH1 0x24 PUSH0 REVERT JUMPDEST SWAP1 MSTORE JUMP JUMPDEST DUP10 DUP2 MSTORE PUSH1 0x1 PUSH1 0x1 PUSH1 0xA0 SHL SUB DUP10 AND PUSH1 0x20 DUP3 ADD MSTORE PUSH2 0x2994 PUSH1 0x40 DUP3 ADD DUP10 PUSH2 0x2955 JUMP JUMPDEST DUP7 PUSH1 0x60 DUP3 ADD MSTORE DUP6 PUSH1 0x80 DUP3 ADD MSTORE DUP5 ISZERO ISZERO PUSH1 0xA0 DUP3 ADD MSTORE DUP4 ISZERO ISZERO PUSH1 0xC0 DUP3 ADD MSTORE DUP3 PUSH1 0xE0 DUP3 ADD MSTORE PUSH2 0x120 PUSH2 0x100 DUP3 ADD MSTORE PUSH0 PUSH2 0x29CE PUSH2 0x120 DUP4 ADD DUP5 PUSH2 0x28D8 JUMP JUMPDEST SWAP12 SWAP11 POP POP POP POP POP POP POP POP POP POP POP JUMP JUMPDEST PUSH1 0x20 DUP2 MSTORE PUSH0 PUSH2 0x29EF PUSH1 0x20 DUP4 ADD DUP5 PUSH2 0x28D8 JUMP JUMPDEST SWAP4 SWAP3 POP POP POP JUMP JUMPDEST DUP1 CALLDATALOAD PUSH1 0xD DUP2 LT PUSH2 0x2A04 JUMPI PUSH0 PUSH0 REVERT JUMPDEST SWAP2 SWAP1 POP JUMP JUMPDEST PUSH0 PUSH0 DUP4 PUSH1 0x1F DUP5 ADD SLT PUSH2 0x2A19 JUMPI PUSH0 PUSH0 REVERT JUMPDEST POP DUP2 CALLDATALOAD PUSH1 0x1 PUSH1 0x1 PUSH1 0x40 SHL SUB DUP2 GT ISZERO PUSH2 0x2A2F JUMPI PUSH0 PUSH0 REVERT JUMPDEST PUSH1 0x20 DUP4 ADD SWAP2 POP DUP4 PUSH1 0x20 DUP3 DUP6 ADD ADD GT ISZERO PUSH2 0x2A46 JUMPI PUSH0 PUSH0 REVERT JUMPDEST SWAP3 POP SWAP3 SWAP1 POP JUMP JUMPDEST PUSH0 PUSH0 PUSH0 PUSH0 PUSH1 0x60 DUP6 DUP8 SUB SLT ISZERO PUSH2 0x2A60 JUMPI PUSH0 PUSH0 REVERT JUMPDEST PUSH2 0x2A69 DUP6 PUSH2 0x29F6 JUMP JUMPDEST SWAP4 POP PUSH1 0x20 DUP6 ADD CALLDATALOAD SWAP3 POP PUSH1 0x40 DUP6 ADD CALLDATALOAD PUSH1 0x1 PUSH1 0x1 PUSH1 0x40 SHL SUB DUP2 GT ISZERO PUSH2 0x2A8A JUMPI PUSH0 PUSH0 REVERT JUMPDEST PUSH2 0x2A96 DUP8 DUP3 DUP9 ADD PUSH2 0x2A09 JUMP JUMPDEST SWAP6 SWAP9 SWAP5 SWAP8 POP SWAP6 POP POP POP POP JUMP JUMPDEST PUSH0 PUSH1 0x20 DUP3 ADD PUSH1 0x20 DUP4 MSTORE DUP1 DUP5 MLOAD DUP1 DUP4 MSTORE PUSH1 0x40 DUP6 ADD SWAP2 POP PUSH1 0x40 DUP2 PUSH1 0x5 SHL DUP7 ADD ADD SWAP3 POP PUSH1 0x20 DUP7 ADD PUSH0 JUMPDEST DUP3 DUP2 LT ISZERO PUSH2 0x2AF9 JUMPI PUSH1 0x3F NOT DUP8 DUP7 SUB ADD DUP5 MSTORE PUSH2 0x2AE4 DUP6 DUP4 MLOAD PUSH2 0x28D8 JUMP JUMPDEST SWAP5 POP PUSH1 0x20 SWAP4 DUP5 ADD SWAP4 SWAP2 SWAP1 SWAP2 ADD SWAP1 PUSH1 0x1 ADD PUSH2 0x2AC8 JUMP JUMPDEST POP SWAP3 SWAP7 SWAP6 POP POP POP POP POP POP JUMP JUMPDEST PUSH1 0xA0 DUP2 MSTORE PUSH0 PUSH2 0x2B17 PUSH1 0xA0 DUP4 ADD DUP9 PUSH2 0x28D8 JUMP JUMPDEST PUSH1 0x1 PUSH1 0x1 PUSH1 0xA0 SHL SUB SWAP7 SWAP1 SWAP7 AND PUSH1 0x20 DUP4 ADD MSTORE POP PUSH1 0x40 DUP2 ADD SWAP4 SWAP1 SWAP4 MSTORE PUSH1 0x60 DUP4 ADD SWAP2 SWAP1 SWAP2 MSTORE PUSH1 0x80 SWAP1 SWAP2 ADD MSTORE SWAP2 SWAP1 POP JUMP JUMPDEST PUSH0 PUSH0 PUSH0 PUSH0 PUSH1 0x80 DUP6 DUP8 SUB SLT ISZERO PUSH2 0x2B57 JUMPI PUSH0 PUSH0 REVERT JUMPDEST POP POP DUP3 CALLDATALOAD SWAP5 PUSH1 0x20 DUP5 ADD CALLDATALOAD SWAP5 POP PUSH1 0x40 DUP5 ADD CALLDATALOAD SWAP4 PUSH1 0x60 ADD CALLDATALOAD SWAP3 POP SWAP1 POP JUMP JUMPDEST PUSH0 PUSH0 PUSH0 PUSH1 0x40 DUP5 DUP7 SUB SLT ISZERO PUSH2 0x2B85 JUMPI PUSH0 PUSH0 REVERT JUMPDEST DUP4 CALLDATALOAD PUSH1 0x1 PUSH1 0x1 PUSH1 0x40 SHL SUB DUP2 GT ISZERO PUSH2 0x2B9A JUMPI PUSH0 PUSH0 REVERT JUMPDEST PUSH2 0x2BA6 DUP7 DUP3 DUP8 ADD PUSH2 0x2A09 JUMP JUMPDEST SWAP1 SWAP8 SWAP1 SWAP7 POP PUSH1 0x20 SWAP6 SWAP1 SWAP6 ADD CALLDATALOAD SWAP5 SWAP4 POP POP POP POP JUMP JUMPDEST PUSH1 0x80 DUP2 MSTORE PUSH0 PUSH2 0x2BCC PUSH1 0x80 DUP4 ADD DUP8 PUSH2 0x28D8 JUMP JUMPDEST DUP3 DUP2 SUB PUSH1 0x20 DUP5 ADD MSTORE PUSH2 0x2BDE DUP2 DUP8 PUSH2 0x28D8 JUMP JUMPDEST PUSH1 0x40 DUP5 ADD SWAP6 SWAP1 SWAP6 MSTORE POP POP PUSH1 0x60 ADD MSTORE SWAP3 SWAP2 POP POP JUMP JUMPDEST PUSH0 PUSH1 0x20 DUP3 ADD PUSH1 0x20 DUP4 MSTORE DUP1 DUP5 MLOAD DUP1 DUP4 MSTORE PUSH1 0x40 DUP6 ADD SWAP2 POP PUSH1 0x40 DUP2 PUSH1 0x5 SHL DUP7 ADD ADD SWAP3 POP PUSH1 0x20 DUP7 ADD PUSH0 JUMPDEST DUP3 DUP2 LT ISZERO PUSH2 0x2AF9 JUMPI PUSH1 0x3F NOT DUP8 DUP7 SUB ADD DUP5 MSTORE DUP2 MLOAD DUP1 MLOAD PUSH1 0xA0 DUP8 MSTORE PUSH2 0x2C3E PUSH1 0xA0 DUP9 ADD DUP3 PUSH2 0x28D8 JUMP JUMPDEST PUSH1 0x20 DUP4 DUP2 ADD MLOAD PUSH1 0x1 PUSH1 0x1 PUSH1 0xA0 SHL SUB AND DUP10 DUP3 ADD MSTORE PUSH1 0x40 DUP1 DUP6 ADD MLOAD SWAP1 DUP11 ADD MSTORE PUSH1 0x60 DUP1 DUP6 ADD MLOAD SWAP1 DUP11 ADD MSTORE PUSH1 0x80 SWAP4 DUP5 ADD MLOAD SWAP4 SWAP1 SWAP9 ADD SWAP3 SWAP1 SWAP3 MSTORE POP SWAP5 SWAP4 DUP5 ADD SWAP4 SWAP2 SWAP1 SWAP2 ADD SWAP1 PUSH1 0x1 ADD PUSH2 0x2C18 JUMP JUMPDEST PUSH0 PUSH0 PUSH1 0x20 DUP4 DUP6 SUB SLT ISZERO PUSH2 0x2C97 JUMPI PUSH0 PUSH0 REVERT JUMPDEST DUP3 CALLDATALOAD PUSH1 0x1 PUSH1 0x1 PUSH1 0x40 SHL SUB DUP2 GT ISZERO PUSH2 0x2CAC JUMPI PUSH0 PUSH0 REVERT JUMPDEST PUSH2 0x2CB8 DUP6 DUP3 DUP7 ADD PUSH2 0x2A09 JUMP JUMPDEST SWAP1 SWAP7 SWAP1 SWAP6 POP SWAP4 POP POP POP POP JUMP JUMPDEST PUSH1 0x20 DUP2 MSTORE PUSH0 DUP3 MLOAD PUSH1 0x80 PUSH1 0x20 DUP5 ADD MSTORE PUSH2 0x2CDF PUSH1 0xA0 DUP5 ADD DUP3 PUSH2 0x28D8 JUMP JUMPDEST SWAP1 POP PUSH1 0x20 DUP5 ADD MLOAD PUSH1 0x1F NOT DUP5 DUP4 SUB ADD PUSH1 0x40 DUP6 ADD MSTORE PUSH2 0x2CFC DUP3 DUP3 PUSH2 0x28D8 JUMP JUMPDEST SWAP2 POP POP PUSH1 0x40 DUP5 ADD MLOAD PUSH1 0x60 DUP5 ADD MSTORE PUSH1 0x60 DUP5 ADD MLOAD PUSH1 0x80 DUP5 ADD MSTORE DUP1 SWAP2 POP POP SWAP3 SWAP2 POP POP JUMP JUMPDEST PUSH0 PUSH0 DUP4 PUSH1 0x1F DUP5 ADD SLT PUSH2 0x2D2D JUMPI PUSH0 PUSH0 REVERT JUMPDEST POP DUP2 CALLDATALOAD PUSH1 0x1 PUSH1 0x1 PUSH1 0x40 SHL SUB DUP2 GT ISZERO PUSH2 0x2D43 JUMPI PUSH0 PUSH0 REVERT JUMPDEST PUSH1 0x20 DUP4 ADD SWAP2 POP DUP4 PUSH1 0x20 DUP3 PUSH1 0x5 SHL DUP6 ADD ADD GT ISZERO PUSH2 0x2A46 JUMPI PUSH0 PUSH0 REVERT JUMPDEST PUSH0 PUSH0 PUSH0 PUSH0 PUSH0 PUSH1 0x60 DUP7 DUP9 SUB SLT ISZERO PUSH2 0x2D71 JUMPI PUSH0 PUSH0 REVERT JUMPDEST DUP6 CALLDATALOAD PUSH1 0x1 PUSH1 0x1 PUSH1 0x40 SHL SUB DUP2 GT ISZERO PUSH2 0x2D86 JUMPI PUSH0 PUSH0 REVERT JUMPDEST PUSH2 0x2D92 DUP9 DUP3 DUP10 ADD PUSH2 0x2D1D JUMP JUMPDEST SWAP1 SWAP7 POP SWAP5 POP POP PUSH1 0x20 DUP7 ADD CALLDATALOAD PUSH1 0x1 PUSH1 0x1 PUSH1 0x40 SHL SUB DUP2 GT ISZERO PUSH2 0x2DB0 JUMPI PUSH0 PUSH0 REVERT JUMPDEST PUSH2 0x2DBC DUP9 DUP3 DUP10 ADD PUSH2 0x2D1D JUMP JUMPDEST SWAP7 SWAP10 SWAP6 SWAP9 POP SWAP7 PUSH1 0x40 ADD CALLDATALOAD SWAP5 SWAP4 POP POP POP POP JUMP JUMPDEST PUSH0 PUSH1 0x20 DUP3 ADD PUSH1 0x20 DUP4 MSTORE DUP1 DUP5 MLOAD DUP1 DUP4 MSTORE PUSH1 0x40 DUP6 ADD SWAP2 POP PUSH1 0x40 DUP2 PUSH1 0x5 SHL DUP7 ADD ADD SWAP3 POP PUSH1 0x20 DUP7 ADD PUSH0 JUMPDEST DUP3 DUP2 LT ISZERO PUSH2 0x2AF9 JUMPI PUSH1 0x3F NOT DUP8 DUP7 SUB ADD DUP5 MSTORE DUP2 MLOAD DUP1 MLOAD DUP7 MSTORE PUSH1 0x20 DUP2 ADD MLOAD PUSH2 0x2E25 PUSH1 0x20 DUP9 ADD DUP3 PUSH1 0x1 PUSH1 0x1 PUSH1 0xA0 SHL SUB AND SWAP1 MSTORE JUMP JUMPDEST POP PUSH1 0x40 DUP2 ADD MLOAD PUSH2 0x2E38 PUSH1 0x40 DUP9 ADD DUP3 PUSH2 0x2955 JUMP JUMPDEST POP PUSH1 0x60 DUP2 ADD MLOAD PUSH1 0x60 DUP8 ADD MSTORE PUSH1 0x80 DUP2 ADD MLOAD PUSH1 0x80 DUP8 ADD MSTORE PUSH1 0xA0 DUP2 ADD MLOAD PUSH2 0x2E60 PUSH1 0xA0 DUP9 ADD DUP3 ISZERO ISZERO SWAP1 MSTORE JUMP JUMPDEST POP PUSH1 0xC0 DUP2 ADD MLOAD PUSH2 0x2E74 PUSH1 0xC0 DUP9 ADD DUP3 ISZERO ISZERO SWAP1 MSTORE JUMP JUMPDEST POP PUSH1 0xE0 DUP2 ADD MLOAD PUSH1 0xE0 DUP8 ADD MSTORE PUSH2 0x100 DUP2 ADD MLOAD SWAP1 POP PUSH2 0x120 PUSH2 0x100 DUP8 ADD MSTORE PUSH2 0x2E9E PUSH2 0x120 DUP8 ADD DUP3 PUSH2 0x28D8 JUMP JUMPDEST SWAP6 POP POP PUSH1 0x20 SWAP4 DUP5 ADD SWAP4 SWAP2 SWAP1 SWAP2 ADD SWAP1 PUSH1 0x1 ADD PUSH2 0x2DF4 JUMP JUMPDEST PUSH0 PUSH0 PUSH1 0x20 DUP4 DUP6 SUB SLT ISZERO PUSH2 0x2EC5 JUMPI PUSH0 PUSH0 REVERT JUMPDEST DUP3 CALLDATALOAD PUSH1 0x1 PUSH1 0x1 PUSH1 0x40 SHL SUB DUP2 GT ISZERO PUSH2 0x2EDA JUMPI PUSH0 PUSH0 REVERT JUMPDEST PUSH2 0x2CB8 DUP6 DUP3 DUP7 ADD PUSH2 0x2D1D JUMP JUMPDEST PUSH0 PUSH0 PUSH0 PUSH0 PUSH0 PUSH1 0x60 DUP7 DUP9 SUB SLT ISZERO PUSH2 0x2EFA JUMPI PUSH0 PUSH0 REVERT JUMPDEST DUP6 CALLDATALOAD PUSH1 0x1 PUSH1 0x1 PUSH1 0x40 SHL SUB DUP2 GT ISZERO PUSH2 0x2F0F JUMPI PUSH0 PUSH0 REVERT JUMPDEST PUSH2 0x2F1B DUP9 DUP3 DUP10 ADD PUSH2 0x2A09 JUMP JUMPDEST SWAP1 SWAP7 POP SWAP5 POP POP PUSH1 0x20 DUP7 ADD CALLDATALOAD PUSH1 0x1 PUSH1 0x1 PUSH1 0x40 SHL SUB DUP2 GT ISZERO PUSH2 0x2F39 JUMPI PUSH0 PUSH0 REVERT JUMPDEST PUSH2 0x2DBC DUP9 DUP3 DUP10 ADD PUSH2 0x2A09 JUMP JUMPDEST PUSH0 PUSH0 PUSH0 PUSH0 PUSH0 PUSH1 0x80 DUP7 DUP9 SUB SLT ISZERO PUSH2 0x2F59 JUMPI PUSH0 PUSH0 REVERT JUMPDEST PUSH2 0x2F62 DUP7 PUSH2 0x29F6 JUMP JUMPDEST SWAP5 POP PUSH1 0x20 DUP7 ADD CALLDATALOAD SWAP4 POP PUSH1 0x40 DUP7 ADD CALLDATALOAD SWAP3 POP PUSH1 0x60 DUP7 ADD CALLDATALOAD PUSH1 0x1 PUSH1 0x1 PUSH1 0x40 SHL SUB DUP2 GT ISZERO PUSH2 0x2F8A JUMPI PUSH0 PUSH0 REVERT JUMPDEST PUSH2 0x2F96 DUP9 DUP3 DUP10 ADD PUSH2 0x2A09 JUMP JUMPDEST SWAP7 SWAP10 SWAP6 SWAP9 POP SWAP4 SWAP7 POP SWAP3 SWAP5 SWAP4 SWAP3 POP POP POP JUMP JUMPDEST PUSH0 PUSH1 0x20 DUP3 DUP5 SUB SLT ISZERO PUSH2 0x2FB7 JUMPI PUSH0 PUSH0 REVERT JUMPDEST DUP2 CALLDATALOAD PUSH1 0x1 PUSH1 0x1 PUSH1 0xA0 SHL SUB DUP2 AND DUP2 EQ PUSH2 0x29EF JUMPI PUSH0 PUSH0 REVERT JUMPDEST PUSH1 0x20 DUP2 MSTORE PUSH0 DUP3 MLOAD PUSH1 0x60 PUSH1 0x20 DUP5 ADD MSTORE PUSH2 0x2FE8 PUSH1 0x80 DUP5 ADD DUP3 PUSH2 0x28D8 JUMP JUMPDEST SWAP1 POP PUSH1 0x20 DUP5 ADD MLOAD PUSH1 0x40 DUP5 ADD MSTORE PUSH1 0x40 DUP5 ADD MLOAD PUSH1 0x60 DUP5 ADD MSTORE DUP1 SWAP2 POP POP SWAP3 SWAP2 POP POP JUMP JUMPDEST PUSH1 0x1 DUP2 DUP2 SHR SWAP1 DUP3 AND DUP1 PUSH2 0x301C JUMPI PUSH1 0x7F DUP3 AND SWAP2 POP JUMPDEST PUSH1 0x20 DUP3 LT DUP2 SUB PUSH2 0x303A JUMPI PUSH4 0x4E487B71 PUSH1 0xE0 SHL PUSH0 MSTORE PUSH1 0x22 PUSH1 0x4 MSTORE PUSH1 0x24 PUSH0 REVERT JUMPDEST POP SWAP2 SWAP1 POP JUMP JUMPDEST PUSH4 0x4E487B71 PUSH1 0xE0 SHL PUSH0 MSTORE PUSH1 0x11 PUSH1 0x4 MSTORE PUSH1 0x24 PUSH0 REVERT JUMPDEST PUSH0 PUSH1 0x1 DUP3 ADD PUSH2 0x3065 JUMPI PUSH2 0x3065 PUSH2 0x3040 JUMP JUMPDEST POP PUSH1 0x1 ADD SWAP1 JUMP JUMPDEST PUSH1 0x1F DUP3 GT ISZERO PUSH2 0x1C55 JUMPI DUP1 PUSH0 MSTORE PUSH1 0x20 PUSH0 KECCAK256 PUSH1 0x1F DUP5 ADD PUSH1 0x5 SHR DUP2 ADD PUSH1 0x20 DUP6 LT ISZERO PUSH2 0x3091 JUMPI POP DUP1 JUMPDEST PUSH1 0x1F DUP5 ADD PUSH1 0x5 SHR DUP3 ADD SWAP2 POP JUMPDEST DUP2 DUP2 LT ISZERO PUSH2 0x30B0 JUMPI PUSH0 DUP2 SSTORE PUSH1 0x1 ADD PUSH2 0x309D JUMP JUMPDEST POP POP POP POP POP JUMP JUMPDEST PUSH0 NOT PUSH1 0x3 DUP4 SWAP1 SHL SHR NOT AND PUSH1 0x1 SWAP2 SWAP1 SWAP2 SHL OR SWAP1 JUMP JUMPDEST PUSH1 0x1 PUSH1 0x1 PUSH1 0x40 SHL SUB DUP4 GT ISZERO PUSH2 0x30E2 JUMPI PUSH2 0x30E2 PUSH2 0x2814 JUMP JUMPDEST PUSH2 0x30F6 DUP4 PUSH2 0x30F0 DUP4 SLOAD PUSH2 0x3008 JUMP JUMPDEST DUP4 PUSH2 0x306C JUMP JUMPDEST PUSH0 PUSH1 0x1F DUP5 GT PUSH1 0x1 DUP2 EQ PUSH2 0x3122 JUMPI PUSH0 DUP6 ISZERO PUSH2 0x3110 JUMPI POP DUP4 DUP3 ADD CALLDATALOAD JUMPDEST PUSH2 0x311A DUP7 DUP3 PUSH2 0x30B7 JUMP JUMPDEST DUP5 SSTORE POP PUSH2 0x30B0 JUMP JUMPDEST PUSH0 DUP4 DUP2 MSTORE PUSH1 0x20 DUP2 KECCAK256 PUSH1 0x1F NOT DUP8 AND SWAP2 JUMPDEST DUP3 DUP2 LT ISZERO PUSH2 0x3151 JUMPI DUP7 DUP6 ADD CALLDATALOAD DUP3 SSTORE PUSH1 0x20 SWAP5 DUP6 ADD SWAP5 PUSH1 0x1 SWAP1 SWAP3 ADD SWAP2 ADD PUSH2 0x3131 JUMP JUMPDEST POP DUP7 DUP3 LT ISZERO PUSH2 0x316D JUMPI PUSH0 NOT PUSH1 0xF8 DUP9 PUSH1 0x3 SHL AND SHR NOT DUP5 DUP8 ADD CALLDATALOAD AND DUP2 SSTORE JUMPDEST POP POP PUSH1 0x1 DUP6 PUSH1 0x1 SHL ADD DUP4 SSTORE POP POP POP POP POP JUMP JUMPDEST DUP2 MLOAD PUSH1 0x1 PUSH1 0x1 PUSH1 0x40 SHL SUB DUP2 GT ISZERO PUSH2 0x3198 JUMPI PUSH2 0x3198 PUSH2 0x2814 JUMP JUMPDEST PUSH2 0x31AC DUP2 PUSH2 0x31A6 DUP5 SLOAD PUSH2 0x3008 JUMP JUMPDEST DUP5 PUSH2 0x306C JUMP JUMPDEST PUSH1 0x20 PUSH1 0x1F DUP3 GT PUSH1 0x1 DUP2 EQ PUSH2 0x31D9 JUMPI PUSH0 DUP4 ISZERO PUSH2 0x31C7 JUMPI POP DUP5 DUP3 ADD MLOAD JUMPDEST PUSH2 0x31D1 DUP5 DUP3 PUSH2 0x30B7 JUMP JUMPDEST DUP6 SSTORE POP PUSH2 0x30B0 JUMP JUMPDEST PUSH0 DUP5 DUP2 MSTORE PUSH1 0x20 DUP2 KECCAK256 PUSH1 0x1F NOT DUP6 AND SWAP2 JUMPDEST DUP3 DUP2 LT ISZERO PUSH2 0x3208 JUMPI DUP8 DUP6 ADD MLOAD DUP3 SSTORE PUSH1 0x20 SWAP5 DUP6 ADD SWAP5 PUSH1 0x1 SWAP1 SWAP3 ADD SWAP2 ADD PUSH2 0x31E8 JUMP JUMPDEST POP DUP5 DUP3 LT ISZERO PUSH2 0x3225 JUMPI DUP7 DUP5 ADD MLOAD PUSH0 NOT PUSH1 0x3 DUP8 SWAP1 SHL PUSH1 0xF8 AND SHR NOT AND DUP2 SSTORE JUMPDEST POP POP POP POP PUSH1 0x1 SWAP1 DUP2 SHL ADD SWAP1 SSTORE POP JUMP JUMPDEST DUP2 DUP4 MSTORE DUP2 DUP2 PUSH1 0x20 DUP6 ADD CALLDATACOPY POP PUSH0 DUP3 DUP3 ADD PUSH1 0x20 SWAP1 DUP2 ADD SWAP2 SWAP1 SWAP2 MSTORE PUSH1 0x1F SWAP1 SWAP2 ADD PUSH1 0x1F NOT AND SWAP1 SWAP2 ADD ADD SWAP1 JUMP JUMPDEST PUSH2 0x3266 DUP2 DUP8 PUSH2 0x2955 JUMP JUMPDEST DUP5 PUSH1 0x20 DUP3 ADD MSTORE DUP4 PUSH1 0x40 DUP3 ADD MSTORE PUSH1 0x80 PUSH1 0x60 DUP3 ADD MSTORE PUSH0 PUSH2 0x3288 PUSH1 0x80 DUP4 ADD DUP5 DUP7 PUSH2 0x3234 JUMP JUMPDEST SWAP8 SWAP7 POP POP POP POP POP POP POP JUMP JUMPDEST DUP2 DUP4 DUP3 CALLDATACOPY PUSH0 SWAP2 ADD SWAP1 DUP2 MSTORE SWAP2 SWAP1 POP JUMP JUMPDEST PUSH4 0x4E487B71 PUSH1 0xE0 SHL PUSH0 MSTORE PUSH1 0x32 PUSH1 0x4 MSTORE PUSH1 0x24 PUSH0 REVERT JUMPDEST PUSH0 PUSH0 DUP4 SLOAD PUSH2 0x32C3 DUP2 PUSH2 0x3008 JUMP JUMPDEST PUSH1 0x1 DUP3 AND DUP1 ISZERO PUSH2 0x32DA JUMPI PUSH1 0x1 DUP2 EQ PUSH2 0x32EF JUMPI PUSH2 0x331C JUMP JUMPDEST PUSH1 0xFF NOT DUP4 AND DUP7 MSTORE DUP2 ISZERO ISZERO DUP3 MUL DUP7 ADD SWAP4 POP PUSH2 0x331C JUMP JUMPDEST DUP7 PUSH0 MSTORE PUSH1 0x20 PUSH0 KECCAK256 PUSH0 JUMPDEST DUP4 DUP2 LT ISZERO PUSH2 0x3314 JUMPI DUP2 SLOAD DUP9 DUP3 ADD MSTORE PUSH1 0x1 SWAP1 SWAP2 ADD SWAP1 PUSH1 0x20 ADD PUSH2 0x32F8 JUMP JUMPDEST POP POP DUP2 DUP7 ADD SWAP4 POP JUMPDEST POP SWAP2 SWAP6 SWAP5 POP POP POP POP POP JUMP JUMPDEST PUSH0 DUP3 CALLDATALOAD PUSH1 0x9E NOT DUP4 CALLDATASIZE SUB ADD DUP2 SLT PUSH2 0x333B JUMPI PUSH0 PUSH0 REVERT JUMPDEST SWAP2 SWAP1 SWAP2 ADD SWAP3 SWAP2 POP POP JUMP JUMPDEST PUSH0 PUSH0 DUP4 CALLDATALOAD PUSH1 0x1E NOT DUP5 CALLDATASIZE SUB ADD DUP2 SLT PUSH2 0x335A JUMPI PUSH0 PUSH0 REVERT JUMPDEST DUP4 ADD DUP1 CALLDATALOAD SWAP2 POP PUSH1 0x1 PUSH1 0x1 PUSH1 0x40 SHL SUB DUP3 GT ISZERO PUSH2 0x3373 JUMPI PUSH0 PUSH0 REVERT JUMPDEST PUSH1 0x20 ADD SWAP2 POP CALLDATASIZE DUP2 SWAP1 SUB DUP3 SGT ISZERO PUSH2 0x2A46 JUMPI PUSH0 PUSH0 REVERT JUMPDEST DUP2 DUP2 SUB DUP2 DUP2 GT ISZERO PUSH2 0x13DE JUMPI PUSH2 0x13DE PUSH2 0x3040 JUMP JUMPDEST DUP2 DUP2 SUB PUSH2 0x33A5 JUMPI POP POP JUMP JUMPDEST PUSH2 0x33AF DUP3 SLOAD PUSH2 0x3008 JUMP JUMPDEST PUSH1 0x1 PUSH1 0x1 PUSH1 0x40 SHL SUB DUP2 GT ISZERO PUSH2 0x33C6 JUMPI PUSH2 0x33C6 PUSH2 0x2814 JUMP JUMPDEST PUSH2 0x33D4 DUP2 PUSH2 0x31A6 DUP5 SLOAD PUSH2 0x3008 JUMP JUMPDEST PUSH0 PUSH1 0x1F DUP3 GT PUSH1 0x1 DUP2 EQ PUSH2 0x33F7 JUMPI PUSH0 DUP4 ISZERO PUSH2 0x31C7 JUMPI POP DUP5 DUP3 ADD SLOAD PUSH2 0x31D1 DUP5 DUP3 PUSH2 0x30B7 JUMP JUMPDEST PUSH0 DUP6 DUP2 MSTORE PUSH1 0x20 DUP1 DUP3 KECCAK256 DUP7 DUP4 MSTORE SWAP1 DUP3 KECCAK256 PUSH1 0x1F NOT DUP7 AND SWAP3 JUMPDEST DUP4 DUP2 LT ISZERO PUSH2 0x342D JUMPI DUP3 DUP7 ADD SLOAD DUP3 SSTORE PUSH1 0x1 SWAP6 DUP7 ADD SWAP6 SWAP1 SWAP2 ADD SWAP1 PUSH1 0x20 ADD PUSH2 0x340D JUMP JUMPDEST POP DUP6 DUP4 LT ISZERO PUSH2 0x344A JUMPI DUP2 DUP6 ADD SLOAD PUSH0 NOT PUSH1 0x3 DUP9 SWAP1 SHL PUSH1 0xF8 AND SHR NOT AND DUP2 SSTORE JUMPDEST POP POP POP POP POP PUSH1 0x1 SWAP1 DUP2 SHL ADD SWAP1 SSTORE POP JUMP JUMPDEST PUSH4 0x4E487B71 PUSH1 0xE0 SHL PUSH0 MSTORE PUSH1 0x31 PUSH1 0x4 MSTORE PUSH1 0x24 PUSH0 REVERT JUMPDEST PUSH0 DUP3 CALLDATALOAD PUSH1 0x5E NOT DUP4 CALLDATASIZE SUB ADD DUP2 SLT PUSH2 0x333B JUMPI PUSH0 PUSH0 REVERT JUMPDEST PUSH1 0x40 DUP2 MSTORE PUSH0 PUSH2 0x3495 PUSH1 0x40 DUP4 ADD DUP6 DUP8 PUSH2 0x3234 JUMP JUMPDEST SWAP1 POP DUP3 PUSH1 0x20 DUP4 ADD MSTORE SWAP5 SWAP4 POP POP POP POP JUMP JUMPDEST PUSH1 0x60 DUP2 MSTORE PUSH0 PUSH2 0x34B8 PUSH1 0x60 DUP4 ADD DUP7 DUP9 PUSH2 0x3234 JUMP JUMPDEST PUSH1 0x20 DUP4 ADD SWAP5 SWAP1 SWAP5 MSTORE POP PUSH1 0x40 ADD MSTORE SWAP3 SWAP2 POP POP JUMP JUMPDEST DUP3 DUP2 MSTORE PUSH1 0x40 PUSH1 0x20 DUP3 ADD MSTORE PUSH0 PUSH0 DUP4 SLOAD PUSH2 0x34E2 DUP2 PUSH2 0x3008 JUMP JUMPDEST DUP1 PUSH1 0x40 DUP7 ADD MSTORE PUSH1 0x1 DUP3 AND PUSH0 DUP2 EQ PUSH2 0x3500 JUMPI PUSH1 0x1 DUP2 EQ PUSH2 0x351C JUMPI PUSH2 0x354D JUMP JUMPDEST PUSH1 0xFF NOT DUP4 AND PUSH1 0x60 DUP8 ADD MSTORE PUSH1 0x60 DUP3 ISZERO ISZERO PUSH1 0x5 SHL DUP8 ADD ADD SWAP4 POP PUSH2 0x354D JUMP JUMPDEST DUP7 PUSH0 MSTORE PUSH1 0x20 PUSH0 KECCAK256 PUSH0 JUMPDEST DUP4 DUP2 LT ISZERO PUSH2 0x3544 JUMPI DUP2 SLOAD DUP9 DUP3 ADD PUSH1 0x60 ADD MSTORE PUSH1 0x1 SWAP1 SWAP2 ADD SWAP1 PUSH1 0x20 ADD PUSH2 0x3525 JUMP JUMPDEST DUP8 ADD PUSH1 0x60 ADD SWAP5 POP POP JUMPDEST POP SWAP2 SWAP7 SWAP6 POP POP POP POP POP POP JUMP INVALID LOG2 PUSH5 0x6970667358 0x22 SLT KECCAK256 DUP9 PUSH7 0x6967274BB614FB 0xBA SELFBALANCE SWAP2 DUP6 PUSH0 0xC5 LOG3 MSTORE CALLF 0xE8AF SWAP10 PUSH18 0xE36E6A178CD6290D0E8664736F6C63430008 0x1E STOP CALLER "
		},
		"gasEstimates": {
			"creation": {
				"codeDepositCost": "2742200",
				"executionCost": "104391",
				"totalCost": "2846591"
			},
			"external": {
				"DoubleNetflowAlert(uint8,int256,int256,string)": "infinite",
				"MAX_ALERTS_PER_USER()": "239",
				"SingleThresholdNetflowAlert(uint8,int256,string)": "infinite",
				"activateAlert()": "infinite",
				"addOrUpdateNarrativePerformance(string,int256)": "infinite",
				"batchUpdateNarrativePerformances((string,int256,uint256)[])": "infinite",
				"exchangeNetflow()": "4559",
				"getAllNarrativeKeys()": "infinite",
				"getAllNetflowAlerts()": "infinite",
				"getNarrativePerformance(string)": "infinite",
				"getNarrativeTopPerformer(string)": "infinite",
				"getTopOutperformingAssets()": "infinite",
				"getTopUnderperformingAssets()": "infinite",
				"hasPreviousExchangeNetflowAmount()": "2378",
				"marketAverageMovementPercent24h()": "2340",
				"marketPerformanceLastUpdatedAt()": "2384",
				"narrativeKeys(uint256)": "infinite",
				"narrativePerformances(string)": "infinite",
				"narrativeTopPerformers(string)": "infinite",
				"owner()": "2367",
				"previousExchangeNetflowAmount()": "2340",
				"removeNarrativeKey(string)": "infinite",
				"renounceOwnership()": "infinite",
				"resetAlertTriggerState()": "infinite",
				"stablecoinExchangeOverallNetflow()": "10914",
				"topOutperformingAssets(uint256)": "infinite",
				"topUnderperformingAssets(uint256)": "infinite",
				"transferOwnership(address)": "28360",
				"turnOffAlert()": "infinite",
				"updateExchangeNetflow(int256)": "infinite",
				"updateMarketPerformance((string,address,int256,int256,uint256)[],(string,address,int256,int256,uint256)[],int256)": "infinite",
				"updateNarrativeTopPerformer(string,string,int256)": "infinite",
				"updateStablecoinOverallNetflow(int256,int256,int256,int256)": "115230",
				"userNetflowAlert()": "infinite",
				"userNetflowAlerts(uint256)": "infinite"
			},
			"internal": {
				"checkAndTriggerAlert(int256,int256,bool)": "infinite"
			}
		},
		"methodIdentifiers": {
			"DoubleNetflowAlert(uint8,int256,int256,string)": "f25ab9c9",
			"MAX_ALERTS_PER_USER()": "51320eb5",
			"SingleThresholdNetflowAlert(uint8,int256,string)": "2e4d0321",
			"activateAlert()": "2f66b011",
			"addOrUpdateNarrativePerformance(string,int256)": "3fab3dd6",
			"batchUpdateNarrativePerformances((string,int256,uint256)[])": "e337d7cf",
			"exchangeNetflow()": "fec53907",
			"getAllNarrativeKeys()": "2f85909b",
			"getAllNetflowAlerts()": "cc0363cd",
			"getNarrativePerformance(string)": "f42191de",
			"getNarrativeTopPerformer(string)": "7e767e14",
			"getTopOutperformingAssets()": "f1e52d1d",
			"getTopUnderperformingAssets()": "7e3fb6ca",
			"hasPreviousExchangeNetflowAmount()": "0f549423",
			"marketAverageMovementPercent24h()": "86b28718",
			"marketPerformanceLastUpdatedAt()": "977ddf37",
			"narrativeKeys(uint256)": "2243e326",
			"narrativePerformances(string)": "0acd704e",
			"narrativeTopPerformers(string)": "740fb0d2",
			"owner()": "8da5cb5b",
			"previousExchangeNetflowAmount()": "298fc805",
			"removeNarrativeKey(string)": "ca848e6a",
			"renounceOwnership()": "715018a6",
			"resetAlertTriggerState()": "440c1ec9",
			"stablecoinExchangeOverallNetflow()": "99670fea",
			"topOutperformingAssets(uint256)": "30400a3a",
			"topUnderperformingAssets(uint256)": "f44f031a",
			"transferOwnership(address)": "f2fde38b",
			"turnOffAlert()": "ac57e64e",
			"updateExchangeNetflow(int256)": "b2cec9ef",
			"updateMarketPerformance((string,address,int256,int256,uint256)[],(string,address,int256,int256,uint256)[],int256)": "b1950a37",
			"updateNarrativeTopPerformer(string,string,int256)": "ea7fbd64",
			"updateStablecoinOverallNetflow(int256,int256,int256,int256)": "3afa9a2e",
			"userNetflowAlert()": "e642566f",
			"userNetflowAlerts(uint256)": "1adae926"
		}
	},
	"abi": [
		{
			"inputs": [],
			"stateMutability": "nonpayable",
			"type": "constructor"
		},
		{
			"inputs": [
				{
					"internalType": "address",
					"name": "owner",
					"type": "address"
				}
			],
			"name": "OwnableInvalidOwner",
			"type": "error"
		},
		{
			"inputs": [
				{
					"internalType": "address",
					"name": "account",
					"type": "address"
				}
			],
			"name": "OwnableUnauthorizedAccount",
			"type": "error"
		},
		{
			"anonymous": false,
			"inputs": [
				{
					"indexed": true,
					"internalType": "uint256",
					"name": "alertId",
					"type": "uint256"
				}
			],
			"name": "AlertActivated",
			"type": "event"
		},
		{
			"anonymous": false,
			"inputs": [
				{
					"indexed": true,
					"internalType": "uint256",
					"name": "alertId",
					"type": "uint256"
				},
				{
					"indexed": true,
					"internalType": "address",
					"name": "user",
					"type": "address"
				},
				{
					"indexed": false,
					"internalType": "enum Dashboard.AlertCondition",
					"name": "condition",
					"type": "uint8"
				},
				{
					"indexed": false,
					"internalType": "int256",
					"name": "threshold1",
					"type": "int256"
				},
				{
					"indexed": false,
					"internalType": "int256",
					"name": "threshold2",
					"type": "int256"
				},
				{
					"indexed": false,
					"internalType": "string",
					"name": "message",
					"type": "string"
				}
			],
			"name": "AlertConfigured",
			"type": "event"
		},
		{
			"anonymous": false,
			"inputs": [
				{
					"indexed": true,
					"internalType": "uint256",
					"name": "alertId",
					"type": "uint256"
				}
			],
			"name": "AlertDeactivated",
			"type": "event"
		},
		{
			"anonymous": false,
			"inputs": [
				{
					"indexed": true,
					"internalType": "uint256",
					"name": "alertId",
					"type": "uint256"
				}
			],
			"name": "AlertTriggerReset",
			"type": "event"
		},
		{
			"anonymous": false,
			"inputs": [
				{
					"indexed": true,
					"internalType": "uint256",
					"name": "alertId",
					"type": "uint256"
				},
				{
					"indexed": true,
					"internalType": "address",
					"name": "user",
					"type": "address"
				},
				{
					"indexed": false,
					"internalType": "int256",
					"name": "currentValue",
					"type": "int256"
				},
				{
					"indexed": false,
					"internalType": "string",
					"name": "message",
					"type": "string"
				}
			],
			"name": "AlertTriggered",
			"type": "event"
		},
		{
			"anonymous": false,
			"inputs": [
				{
					"indexed": false,
					"internalType": "int256",
					"name": "marketAverage",
					"type": "int256"
				},
				{
					"indexed": false,
					"internalType": "uint256",
					"name": "timestamp",
					"type": "uint256"
				}
			],
			"name": "MarketPerformersUpdated",
			"type": "event"
		},
		{
			"anonymous": false,
			"inputs": [
				{
					"indexed": true,
					"internalType": "string",
					"name": "narrativeName",
					"type": "string"
				}
			],
			"name": "NarrativeKeyAdded",
			"type": "event"
		},
		{
			"anonymous": false,
			"inputs": [
				{
					"indexed": true,
					"internalType": "string",
					"name": "narrativeName",
					"type": "string"
				}
			],
			"name": "NarrativeKeyRemoved",
			"type": "event"
		},
		{
			"anonymous": false,
			"inputs": [
				{
					"indexed": true,
					"internalType": "string",
					"name": "narrativeName",
					"type": "string"
				},
				{
					"indexed": false,
					"internalType": "int256",
					"name": "performancePercent",
					"type": "int256"
				},
				{
					"indexed": false,
					"internalType": "uint256",
					"name": "timestamp",
					"type": "uint256"
				}
			],
			"name": "NarrativePerformanceUpdated",
			"type": "event"
		},
		{
			"anonymous": false,
			"inputs": [
				{
					"indexed": true,
					"internalType": "string",
					"name": "narrativeName",
					"type": "string"
				},
				{
					"indexed": false,
					"internalType": "string",
					"name": "tokenSymbol",
					"type": "string"
				},
				{
					"indexed": false,
					"internalType": "int256",
					"name": "relativePerformance",
					"type": "int256"
				},
				{
					"indexed": false,
					"internalType": "uint256",
					"name": "timestamp",
					"type": "uint256"
				}
			],
			"name": "NarrativeTopTokenUpdated",
			"type": "event"
		},
		{
			"anonymous": false,
			"inputs": [
				{
					"indexed": false,
					"internalType": "int256",
					"name": "amount",
					"type": "int256"
				},
				{
					"indexed": false,
					"internalType": "uint256",
					"name": "timestamp",
					"type": "uint256"
				}
			],
			"name": "NetflowUpdated",
			"type": "event"
		},
		{
			"anonymous": false,
			"inputs": [
				{
					"indexed": true,
					"internalType": "address",
					"name": "previousOwner",
					"type": "address"
				},
				{
					"indexed": true,
					"internalType": "address",
					"name": "newOwner",
					"type": "address"
				}
			],
			"name": "OwnershipTransferred",
			"type": "event"
		},
		{
			"anonymous": false,
			"inputs": [
				{
					"indexed": false,
					"internalType": "int256",
					"name": "daily",
					"type": "int256"
				},
				{
					"indexed": false,
					"internalType": "int256",
					"name": "weekly",
					"type": "int256"
				},
				{
					"indexed": false,
					"internalType": "int256",
					"name": "monthly",
					"type": "int256"
				},
				{
					"indexed": false,
					"internalType": "int256",
					"name": "marketCapChange",
					"type": "int256"
				},
				{
					"indexed": false,
					"internalType": "uint256",
					"name": "timestamp",
					"type": "uint256"
				}
			],
			"name": "StablecoinOverallNetflowUpdated",
			"type": "event"
		},
		{
			"inputs": [
				{
					"internalType": "enum Dashboard.AlertCondition",
					"name": "_condition",
					"type": "uint8"
				},
				{
					"internalType": "int256",
					"name": "_channelBound1",
					"type": "int256"
				},
				{
					"internalType": "int256",
					"name": "_channelBound2",
					"type": "int256"
				},
				{
					"internalType": "string",
					"name": "_message",
					"type": "string"
				}
			],
			"name": "DoubleNetflowAlert",
			"outputs": [],
			"stateMutability": "nonpayable",
			"type": "function"
		},
		{
			"inputs": [],
			"name": "MAX_ALERTS_PER_USER",
			"outputs": [
				{
					"internalType": "uint256",
					"name": "",
					"type": "uint256"
				}
			],
			"stateMutability": "view",
			"type": "function"
		},
		{
			"inputs": [
				{
					"internalType": "enum Dashboard.AlertCondition",
					"name": "_condition",
					"type": "uint8"
				},
				{
					"internalType": "int256",
					"name": "_threshold1",
					"type": "int256"
				},
				{
					"internalType": "string",
					"name": "_message",
					"type": "string"
				}
			],
			"name": "SingleThresholdNetflowAlert",
			"outputs": [],
			"stateMutability": "nonpayable",
			"type": "function"
		},
		{
			"inputs": [],
			"name": "activateAlert",
			"outputs": [],
			"stateMutability": "nonpayable",
			"type": "function"
		},
		{
			"inputs": [
				{
					"internalType": "string",
					"name": "_narrativeName",
					"type": "string"
				},
				{
					"internalType": "int256",
					"name": "_performancePercent",
					"type": "int256"
				}
			],
			"name": "addOrUpdateNarrativePerformance",
			"outputs": [],
			"stateMutability": "nonpayable",
			"type": "function"
		},
		{
			"inputs": [
				{
					"components": [
						{
							"internalType": "string",
							"name": "name",
							"type": "string"
						},
						{
							"internalType": "int256",
							"name": "performancePercent24h",
							"type": "int256"
						},
						{
							"internalType": "uint256",
							"name": "lastUpdatedAt",
							"type": "uint256"
						}
					],
					"internalType": "struct DataTypes.NarrativePerformanceInfo[]",
					"name": "_performances",
					"type": "tuple[]"
				}
			],
			"name": "batchUpdateNarrativePerformances",
			"outputs": [],
			"stateMutability": "nonpayable",
			"type": "function"
		},
		{
			"inputs": [],
			"name": "exchangeNetflow",
			"outputs": [
				{
					"internalType": "int256",
					"name": "amount",
					"type": "int256"
				},
				{
					"internalType": "uint256",
					"name": "lastUpdatedAt",
					"type": "uint256"
				}
			],
			"stateMutability": "view",
			"type": "function"
		},
		{
			"inputs": [],
			"name": "getAllNarrativeKeys",
			"outputs": [
				{
					"internalType": "string[]",
					"name": "",
					"type": "string[]"
				}
			],
			"stateMutability": "view",
			"type": "function"
		},
		{
			"inputs": [],
			"name": "getAllNetflowAlerts",
			"outputs": [
				{
					"components": [
						{
							"internalType": "uint256",
							"name": "id",
							"type": "uint256"
						},
						{
							"internalType": "address",
							"name": "user",
							"type": "address"
						},
						{
							"internalType": "enum Dashboard.AlertCondition",
							"name": "condition",
							"type": "uint8"
						},
						{
							"internalType": "int256",
							"name": "threshold1",
							"type": "int256"
						},
						{
							"internalType": "int256",
							"name": "threshold2",
							"type": "int256"
						},
						{
							"internalType": "bool",
							"name": "isActive",
							"type": "bool"
						},
						{
							"internalType": "bool",
							"name": "isTriggered",
							"type": "bool"
						},
						{
							"internalType": "uint256",
							"name": "lastTriggeredAt",
							"type": "uint256"
						},
						{
							"internalType": "string",
							"name": "message",
							"type": "string"
						}
					],
					"internalType": "struct Dashboard.NetflowAlert[]",
					"name": "alerts",
					"type": "tuple[]"
				}
			],
			"stateMutability": "view",
			"type": "function"
		},
		{
			"inputs": [
				{
					"internalType": "string",
					"name": "_narrativeName",
					"type": "string"
				}
			],
			"name": "getNarrativePerformance",
			"outputs": [
				{
					"components": [
						{
							"internalType": "string",
							"name": "name",
							"type": "string"
						},
						{
							"internalType": "int256",
							"name": "performancePercent24h",
							"type": "int256"
						},
						{
							"internalType": "uint256",
							"name": "lastUpdatedAt",
							"type": "uint256"
						}
					],
					"internalType": "struct DataTypes.NarrativePerformanceInfo",
					"name": "",
					"type": "tuple"
				}
			],
			"stateMutability": "view",
			"type": "function"
		},
		{
			"inputs": [
				{
					"internalType": "string",
					"name": "_narrativeName",
					"type": "string"
				}
			],
			"name": "getNarrativeTopPerformer",
			"outputs": [
				{
					"components": [
						{
							"internalType": "string",
							"name": "narrativeName",
							"type": "string"
						},
						{
							"internalType": "string",
							"name": "tokenSymbol",
							"type": "string"
						},
						{
							"internalType": "int256",
							"name": "relativePerformancePercent",
							"type": "int256"
						},
						{
							"internalType": "uint256",
							"name": "lastUpdatedAt",
							"type": "uint256"
						}
					],
					"internalType": "struct DataTypes.NarrativeTopTokenInfo",
					"name": "",
					"type": "tuple"
				}
			],
			"stateMutability": "view",
			"type": "function"
		},
		{
			"inputs": [],
			"name": "getTopOutperformingAssets",
			"outputs": [
				{
					"components": [
						{
							"internalType": "string",
							"name": "tokenSymbol",
							"type": "string"
						},
						{
							"internalType": "address",
							"name": "tokenAddress",
							"type": "address"
						},
						{
							"internalType": "int256",
							"name": "performancePercent24h",
							"type": "int256"
						},
						{
							"internalType": "int256",
							"name": "performanceVsMarketPercent",
							"type": "int256"
						},
						{
							"internalType": "uint256",
							"name": "lastUpdatedAt",
							"type": "uint256"
						}
					],
					"internalType": "struct DataTypes.AssetPerformanceInfo[]",
					"name": "",
					"type": "tuple[]"
				}
			],
			"stateMutability": "view",
			"type": "function"
		},
		{
			"inputs": [],
			"name": "getTopUnderperformingAssets",
			"outputs": [
				{
					"components": [
						{
							"internalType": "string",
							"name": "tokenSymbol",
							"type": "string"
						},
						{
							"internalType": "address",
							"name": "tokenAddress",
							"type": "address"
						},
						{
							"internalType": "int256",
							"name": "performancePercent24h",
							"type": "int256"
						},
						{
							"internalType": "int256",
							"name": "performanceVsMarketPercent",
							"type": "int256"
						},
						{
							"internalType": "uint256",
							"name": "lastUpdatedAt",
							"type": "uint256"
						}
					],
					"internalType": "struct DataTypes.AssetPerformanceInfo[]",
					"name": "",
					"type": "tuple[]"
				}
			],
			"stateMutability": "view",
			"type": "function"
		},
		{
			"inputs": [],
			"name": "hasPreviousExchangeNetflowAmount",
			"outputs": [
				{
					"internalType": "bool",
					"name": "",
					"type": "bool"
				}
			],
			"stateMutability": "view",
			"type": "function"
		},
		{
			"inputs": [],
			"name": "marketAverageMovementPercent24h",
			"outputs": [
				{
					"internalType": "int256",
					"name": "",
					"type": "int256"
				}
			],
			"stateMutability": "view",
			"type": "function"
		},
		{
			"inputs": [],
			"name": "marketPerformanceLastUpdatedAt",
			"outputs": [
				{
					"internalType": "uint256",
					"name": "",
					"type": "uint256"
				}
			],
			"stateMutability": "view",
			"type": "function"
		},
		{
			"inputs": [
				{
					"internalType": "uint256",
					"name": "",
					"type": "uint256"
				}
			],
			"name": "narrativeKeys",
			"outputs": [
				{
					"internalType": "string",
					"name": "",
					"type": "string"
				}
			],
			"stateMutability": "view",
			"type": "function"
		},
		{
			"inputs": [
				{
					"internalType": "string",
					"name": "",
					"type": "string"
				}
			],
			"name": "narrativePerformances",
			"outputs": [
				{
					"internalType": "string",
					"name": "name",
					"type": "string"
				},
				{
					"internalType": "int256",
					"name": "performancePercent24h",
					"type": "int256"
				},
				{
					"internalType": "uint256",
					"name": "lastUpdatedAt",
					"type": "uint256"
				}
			],
			"stateMutability": "view",
			"type": "function"
		},
		{
			"inputs": [
				{
					"internalType": "string",
					"name": "",
					"type": "string"
				}
			],
			"name": "narrativeTopPerformers",
			"outputs": [
				{
					"internalType": "string",
					"name": "narrativeName",
					"type": "string"
				},
				{
					"internalType": "string",
					"name": "tokenSymbol",
					"type": "string"
				},
				{
					"internalType": "int256",
					"name": "relativePerformancePercent",
					"type": "int256"
				},
				{
					"internalType": "uint256",
					"name": "lastUpdatedAt",
					"type": "uint256"
				}
			],
			"stateMutability": "view",
			"type": "function"
		},
		{
			"inputs": [],
			"name": "owner",
			"outputs": [
				{
					"internalType": "address",
					"name": "",
					"type": "address"
				}
			],
			"stateMutability": "view",
			"type": "function"
		},
		{
			"inputs": [],
			"name": "previousExchangeNetflowAmount",
			"outputs": [
				{
					"internalType": "int256",
					"name": "",
					"type": "int256"
				}
			],
			"stateMutability": "view",
			"type": "function"
		},
		{
			"inputs": [
				{
					"internalType": "string",
					"name": "_narrativeName",
					"type": "string"
				}
			],
			"name": "removeNarrativeKey",
			"outputs": [],
			"stateMutability": "nonpayable",
			"type": "function"
		},
		{
			"inputs": [],
			"name": "renounceOwnership",
			"outputs": [],
			"stateMutability": "nonpayable",
			"type": "function"
		},
		{
			"inputs": [],
			"name": "resetAlertTriggerState",
			"outputs": [],
			"stateMutability": "nonpayable",
			"type": "function"
		},
		{
			"inputs": [],
			"name": "stablecoinExchangeOverallNetflow",
			"outputs": [
				{
					"internalType": "int256",
					"name": "dailyNetflowSum",
					"type": "int256"
				},
				{
					"internalType": "int256",
					"name": "weeklyNetflowSum",
					"type": "int256"
				},
				{
					"internalType": "int256",
					"name": "monthlyNetflowSum",
					"type": "int256"
				},
				{
					"internalType": "int256",
					"name": "marketCapChangePercent",
					"type": "int256"
				},
				{
					"internalType": "uint256",
					"name": "lastUpdatedAt",
					"type": "uint256"
				}
			],
			"stateMutability": "view",
			"type": "function"
		},
		{
			"inputs": [
				{
					"internalType": "uint256",
					"name": "",
					"type": "uint256"
				}
			],
			"name": "topOutperformingAssets",
			"outputs": [
				{
					"internalType": "string",
					"name": "tokenSymbol",
					"type": "string"
				},
				{
					"internalType": "address",
					"name": "tokenAddress",
					"type": "address"
				},
				{
					"internalType": "int256",
					"name": "performancePercent24h",
					"type": "int256"
				},
				{
					"internalType": "int256",
					"name": "performanceVsMarketPercent",
					"type": "int256"
				},
				{
					"internalType": "uint256",
					"name": "lastUpdatedAt",
					"type": "uint256"
				}
			],
			"stateMutability": "view",
			"type": "function"
		},
		{
			"inputs": [
				{
					"internalType": "uint256",
					"name": "",
					"type": "uint256"
				}
			],
			"name": "topUnderperformingAssets",
			"outputs": [
				{
					"internalType": "string",
					"name": "tokenSymbol",
					"type": "string"
				},
				{
					"internalType": "address",
					"name": "tokenAddress",
					"type": "address"
				},
				{
					"internalType": "int256",
					"name": "performancePercent24h",
					"type": "int256"
				},
				{
					"internalType": "int256",
					"name": "performanceVsMarketPercent",
					"type": "int256"
				},
				{
					"internalType": "uint256",
					"name": "lastUpdatedAt",
					"type": "uint256"
				}
			],
			"stateMutability": "view",
			"type": "function"
		},
		{
			"inputs": [
				{
					"internalType": "address",
					"name": "newOwner",
					"type": "address"
				}
			],
			"name": "transferOwnership",
			"outputs": [],
			"stateMutability": "nonpayable",
			"type": "function"
		},
		{
			"inputs": [],
			"name": "turnOffAlert",
			"outputs": [],
			"stateMutability": "nonpayable",
			"type": "function"
		},
		{
			"inputs": [
				{
					"internalType": "int256",
					"name": "_amount",
					"type": "int256"
				}
			],
			"name": "updateExchangeNetflow",
			"outputs": [],
			"stateMutability": "nonpayable",
			"type": "function"
		},
		{
			"inputs": [
				{
					"components": [
						{
							"internalType": "string",
							"name": "tokenSymbol",
							"type": "string"
						},
						{
							"internalType": "address",
							"name": "tokenAddress",
							"type": "address"
						},
						{
							"internalType": "int256",
							"name": "performancePercent24h",
							"type": "int256"
						},
						{
							"internalType": "int256",
							"name": "performanceVsMarketPercent",
							"type": "int256"
						},
						{
							"internalType": "uint256",
							"name": "lastUpdatedAt",
							"type": "uint256"
						}
					],
					"internalType": "struct DataTypes.AssetPerformanceInfo[]",
					"name": "_topOutperformers",
					"type": "tuple[]"
				},
				{
					"components": [
						{
							"internalType": "string",
							"name": "tokenSymbol",
							"type": "string"
						},
						{
							"internalType": "address",
							"name": "tokenAddress",
							"type": "address"
						},
						{
							"internalType": "int256",
							"name": "performancePercent24h",
							"type": "int256"
						},
						{
							"internalType": "int256",
							"name": "performanceVsMarketPercent",
							"type": "int256"
						},
						{
							"internalType": "uint256",
							"name": "lastUpdatedAt",
							"type": "uint256"
						}
					],
					"internalType": "struct DataTypes.AssetPerformanceInfo[]",
					"name": "_topUnderperformers",
					"type": "tuple[]"
				},
				{
					"internalType": "int256",
					"name": "_marketAvgMove24h",
					"type": "int256"
				}
			],
			"name": "updateMarketPerformance",
			"outputs": [],
			"stateMutability": "nonpayable",
			"type": "function"
		},
		{
			"inputs": [
				{
					"internalType": "string",
					"name": "_narrativeName",
					"type": "string"
				},
				{
					"internalType": "string",
					"name": "_tokenSymbol",
					"type": "string"
				},
				{
					"internalType": "int256",
					"name": "_relativePerformancePercent",
					"type": "int256"
				}
			],
			"name": "updateNarrativeTopPerformer",
			"outputs": [],
			"stateMutability": "nonpayable",
			"type": "function"
		},
		{
			"inputs": [
				{
					"internalType": "int256",
					"name": "_dailyNetflow",
					"type": "int256"
				},
				{
					"internalType": "int256",
					"name": "_weeklyNetflow",
					"type": "int256"
				},
				{
					"internalType": "int256",
					"name": "_monthlyNetflow",
					"type": "int256"
				},
				{
					"internalType": "int256",
					"name": "_marketCapChangePercent",
					"type": "int256"
				}
			],
			"name": "updateStablecoinOverallNetflow",
			"outputs": [],
			"stateMutability": "nonpayable",
			"type": "function"
		},
		{
			"inputs": [],
			"name": "userNetflowAlert",
			"outputs": [
				{
					"internalType": "uint256",
					"name": "id",
					"type": "uint256"
				},
				{
					"internalType": "address",
					"name": "user",
					"type": "address"
				},
				{
					"internalType": "enum Dashboard.AlertCondition",
					"name": "condition",
					"type": "uint8"
				},
				{
					"internalType": "int256",
					"name": "threshold1",
					"type": "int256"
				},
				{
					"internalType": "int256",
					"name": "threshold2",
					"type": "int256"
				},
				{
					"internalType": "bool",
					"name": "isActive",
					"type": "bool"
				},
				{
					"internalType": "bool",
					"name": "isTriggered",
					"type": "bool"
				},
				{
					"internalType": "uint256",
					"name": "lastTriggeredAt",
					"type": "uint256"
				},
				{
					"internalType": "string",
					"name": "message",
					"type": "string"
				}
			],
			"stateMutability": "view",
			"type": "function"
		},
		{
			"inputs": [
				{
					"internalType": "uint256",
					"name": "",
					"type": "uint256"
				}
			],
			"name": "userNetflowAlerts",
			"outputs": [
				{
					"internalType": "uint256",
					"name": "id",
					"type": "uint256"
				},
				{
					"internalType": "address",
					"name": "user",
					"type": "address"
				},
				{
					"internalType": "enum Dashboard.AlertCondition",
					"name": "condition",
					"type": "uint8"
				},
				{
					"internalType": "int256",
					"name": "threshold1",
					"type": "int256"
				},
				{
					"internalType": "int256",
					"name": "threshold2",
					"type": "int256"
				},
				{
					"internalType": "bool",
					"name": "isActive",
					"type": "bool"
				},
				{
					"internalType": "bool",
					"name": "isTriggered",
					"type": "bool"
				},
				{
					"internalType": "uint256",
					"name": "lastTriggeredAt",
					"type": "uint256"
				},
				{
					"internalType": "string",
					"name": "message",
					"type": "string"
				}
			],
			"stateMutability": "view",
			"type": "function"
		}
	]
}